:100000000DC5000028C5000026C500000C94A132D3
:1000100022C5000020C500001EC500001CC5000050
:100020001AC5000018C500000C945D1A0C94191A2A
:100030000C94F62810C500000EC500000CC5000089
:100040000AC5000008C5000006C5000004C5000080
:1000500002C500000C94451BFEC40000FCC4000057
:10006000FAC40000F8C40000F6C40000F4C40000A4
:10007000F2C40000F0C40000EEC40000ECC40000B4
:10008000EAC40000E8C40000E6C40000E4C40000C4
:10009000E2C40000E0C40000DEC40000DCC40000D4
:1000A000DAC40000D8C40000D6C40000050109026B
:1000B000A10185020901A1000509190129081500FE
:1000C0002501950875018102050109300931158165
:1000D000257F95027508810609381581257F9501D0
:1000E00075088106050C0A38021581257F95017572
:1000F000088106C0C005010980A101850319012AF4
:10010000B700150126B700950175108100C0050CD8
:100110000901A101850419012AA002150126A002E6
:10012000950175108100C00660FF0961A101096297
:10013000150026FF00952075088102096315002629
:10014000FF00952075089102C005010906A101056F
:100150000719E029E7150025019508750181029529
:1001600001750881010507190029FF150026FF0008
:100170009506750881000508190129051500250156
:10018000950575019102950175039101C061626346
:100190006465666768696A6B6C6D6E6F70717273A7
:1001A0007475767778797A31323334353637383931
:1001B00030524542545F2D3D5B5D5C233B27602CF4
:1001C0002E2F00DA0281FFD9F1DB20A4A62EAF008A
:1001D000A0C0D30000A1C8D30000AED580A81F40A6
:1001E0008D142000783C1E1E140A05000101010137
:1001F00001010101010202020202020202020303E2
:1002000003030303030304040404040404050505B1
:100210000505060606060607070707070808080873
:10022000090909090A0A0A0B0B0B0C0C0C0D0D0D20
:100230000E0E0E0F0F0F10101111111212131314B6
:1002400014151516161717181819191A1A1B1B1C2E
:100250001D1D1E1E1F202021222223242425262688
:10026000272829292A2B2C2D2D2E2F3031323233BD
:100270003435363738393A3B3C3D3E3F40414243C6
:100280004445464748494A4C4D4E4F5051535455AA
:100290005658595A5B5D5E5F616264656668696B5A
:1002A0006C6D6F7072737577787A7B7D7E808283D8
:1002B0008587888A8C8E8F91939596989A9C9EA01C
:1002C000A2A3A5A7A9ABADAFB1B3B5B7BABCBEC029
:1002D000C2C4C6C9CBCDCFD1D4D6D8DBDDDFE2E4F2
:1002E000E7E9EBEEF0F3F5F8FAFDFF2223252628E7
:1002F000292A2C2D2F3032333536383A3B3D3E40BB
:1003000042434547494A4C4E5051535557595A5C00
:100310005E6062646668696B6D6F71737577797B17
:100320007D7F81838587898A8C8E90929496989A16
:100330009C9E9FA1A3A5A7A8AAACAEAFB1B3B4B62B
:10034000B8B9BBBCBEBFC1C2C3C5C6C7C9CACBCC86
:10035000CDCED0D1D2D2D3D4D5D6D7D7D8D9D9DA59
:10036000DADBDBDBDCDCDCDCDCDDDDDDDDDCDCDCCE
:10037000DCDCDBDBDBDADAD9D9D8D7D7D6D5D4D3F6
:10038000D2D2D1D0CECDCCCBCAC9C7C6C5C3C2C1CB
:10039000BFBEBCBBB9B8B6B4B3B1AFAEACAAA8A728
:1003A000A5A3A19F9E9C9A98969492908E8C8A89E0
:1003B000878583817F7D7B79777573716F6D6B69BD
:1003C00068666462605E5C5A5957555351504E4C92
:1003D0004A4947454342403E3D3B3A383635333241
:1003E000302F2D2C2A29282625232200AF00AE20CD
:1003F0002000BABB004B657920B10020C0C100BE0F
:10040000BF00484F005654003030200020202020EC
:10041000B1BCBD0042616C6CB100B4B500B2B300B8
:10042000C2C3004CB6B772B1002020001300120006
:100430000C0018001C0000002D430F000E000D41A1
:100440000B00000038423700360010001100000099
:100450008702000000002A422A42284114001A00A4
:10046000080015001700000004001600070009002E
:100470000A0000001D411B000600190005000000D5
:10048000E100E300E20091432C00904227002600A7
:1004900025002400230000004300420041004000EA
:1004A0003F0000002E022F0031003000330000001A
:1004B000890000000000D100010001001E001F00A3
:1004C00020002100220000003A003B003C003D00DB
:1004D0003E0000002E0025023000310034000000F4
:1004E00001000100010029002B004C000000000069
:1004F000D3000000000000002352D2005200D100BF
:100500000000000000004F005100500000000000FB
:100510000000000000002A000100010054005F00FC
:10052000600061005600000055005C005D005E0048
:1005300057000000620059005A005B006300000091
:1005400001000100010001000100010056006100EE
:1005500060005F005400000057005E005D005C001A
:100560005500000063005B005A0059006200000063
:10057000000000000000D2000100010000000000A7
:10058000000000000000000004011601070109013D
:100590000A0100001D011B010601190105010000EF
:1005A00001000100010001000100010009025B00DF
:1005B000030100A0FA090400000103010100092160
:1005C00011010F01224400070581030800010904FD
:1005D0000100020300000009211101000122220094
:1005E0000705820320000107050303200001090419
:1005F00002000103000000092111010F01227B000C
:1006000007058403200001120100020000000857C2
:1006100059000500010102000112034B0065007939
:1006200000620061006C006C002B00000010035998
:10063000006F0077006B0065006500730000000428
:1006400003090400000000000000002F000000006B
:100650000700070000123F123F1200242A7F2A12CF
:100660000036091E241B0018262912280000000746
:10067000000000001E214000000040211E00001468
:10068000083E08140008083E08080000003070000A
:100690000008080808080000003030000020100C96
:1006A0000201001E2925231E0000223F20000022F7
:1006B0003129292600122125251A001814123F106D
:1006C000001725252518001E2525251800013109AC
:1006D0000503001A2525251A00062929291E0000D0
:1006E000003333000000003373000008141422228A
:1006F00000141414141400222214140800020129F6
:100700000502003E59555D3E003816111638003F6F
:100710002525251A001E21212112003F2121211EFD
:10072000003F25252521003F09090901001E21213F
:10073000291A003F0404043F0000213F210000105B
:100740002020201F003F040C1221003F20202020E9
:10075000003F0204023F003F020C103F001E212117
:10076000211E003F09090906001E2129112E003F04
:10077000090919260012252529120001013F01014E
:10078000001F2020201F000718201807000F300C22
:10079000300F0021120C1221000304380403003131
:1007A0002925232100007F4141000001020C102077
:1007B000000041417F00000402010204004040406B
:1007C000404000000103040000102A2A2A3C003F98
:1007D0002422221C001C22222224001C2222243F2C
:1007E000001C2A2A2A0C0000043E0505000C525267
:1007F000543E003F080404380000003D0000002083
:1008000040403D00003F080814220000013F200046
:10081000003E023C023C003E0402023C001C22223C
:10082000221C007E1422221C001C2222147E003E68
:100830000402020400242A2A2A120000021F2200B5
:10084000001E2020103E000618201806000E300C56
:10085000300E002214081422000E5050483E002290
:10086000322A26220008087741410000007F00005C
:1008700000414177080800180408100C000000002F
:10088000000000000000000000000000000000C0A8
:10089000F0F88C86C6E7FFFFFFFFFFFFFEFCFCF8C9
:1008A000E080000000F0F0F00000C0E0F0707000A8
:1008B0000000000000000000000000000000000038
:1008C0000000000000F8F8F8000000000000000040
:1008D0000000000000000000000000F8F8F8000030
:1008E000F8F8F8000000000080E07078686C64C7D9
:1008F000C7C7C7C7C7E73F1F0F3FFFFFFFFFFFFF88
:100900003F0F000000FFFFFF1E3FFFF3E1800000EC
:10091000F8FCFE3636363EBCB8000E3EFEF080F0E7
:10092000FE3E0E0000FFFFFF060606FEFEFC700006
:10093000E6F6F63636FEFEFC000000FFFFFF000084
:10094000FFFFFF000000003C7F6360E0C0C0C0C04C
:10095000C0C0C0C0FFFFC06030180F030303010018
:100960000000000000030303000000030303030072
:10097000010303030303030301007070393F1F07E2
:10098000010000000001030303030303030100004F
:10099000010303030303030100000003030300003A
:1009A0000303030010101000000000550000003E7B
:1009B000635D5D637F417B77413E00001C22221C0A
:1009C000003E0A003E0A00322A3C0026281E001C77
:1009D0002A2C0000003F09360000001E21210000E3
:1009E0000000003F0837001E2121001E2121003F8A
:1009F000090600213F2100222519001E2121003F68
:100A00000936003F211E00213F21000F300F003E1C
:100A1000093E003F063F003F2020000011241FBE7A
:100A2000CFEFDAE0DEBFCDBF12E0A0E0B1E0EEE252
:100A3000FBE602C005900D92A632B107D9F726E079
:100A4000A6E2B2E001C01D92AF38B207E1F70E9402
:100A500027290C944D35D4CA8091900181111BC077
:100A600088E1909191019923C1F0909192019111A7
:100A700016C098E120918104211113C0292F2093E1
:100A80008B0180938C01890F10928D0180938E01D0
:100A900080938F01089586E1E4CF90E0EBCF96E15B
:100AA000E9CF20E0ECCFE0917E04F0917F04309715
:100AB00039F00284F385E02D309711F060E209955A
:100AC0000895982FE091750440913C0457E0E41399
:100AD00002C080E008952E2F30E05E9FF0011124C7
:100AE000E35CFB4F8181681306C08081981303C0CB
:100AF00085818111EFCFF9013196E770E8CFE8EDFC
:100B0000F0E080818E7F80831092E2001092DA0004
:100B10001092E100A0EEB0E08C9181608C93808116
:100B20008F77808319BCA7EDB0E08C918E7F8C937A
:100B300080818F7E80831092260408952091E400A6
:100B40003091E50095E6A9012091EC00822F81709B
:100B500020FF06C08091E80080FF06C080E0089575
:100B60002091E80022FD1AC080913204882389F088
:100B7000853089F08091EB0085FD0FC02091E40065
:100B80003091E50042175307F9F29150E1F684E005
:100B9000089582E0089583E0089581E008958091AA
:100BA000340487FF13C08091E80082FF06C0809163
:100BB000E8008B778093E80004C0809132048111B3
:100BC000F2CF0895809132048823D9F38091E80010
:100BD00080FFF8CF8091E8008E77ECCF982F90932C
:100BE000E900242F762F50E0891731F07091EC0046
:100BF0002091ED005091F00021FD07C09F5F9730DC
:100C000071F78093E90081E008953091EB003E7F19
:100C10003093EB003091ED003D7F3093ED0030914B
:100C2000EB0031603093EB007093EC002093ED000B
:100C30005093F0002091EE0027FDE0CF80E0089572
:100C4000B0E0A0E0E6E2F6E00C94D033C8EDD0E0EE
:100C500088818F7E8883E7EDF0E0808181608083EA
:100C600084E082BF81E08093260488818E7F888320
:100C700002EE10E0F80110821092DA0081EEC82E28
:100C8000D12CF601108288818F77888388818068D3
:100C9000888388818F7D888319BC109232041092DA
:100CA0003304109231041092300490EEE92EF12CAE
:100CB000F70180818B7F808388818160888342E017
:100CC00060E080E08BDFF60180818E7F8083F80119
:100CD000808181608083808188608083F70180814A
:100CE0008E7F8083888180618883CDB7DEB7E8E01E
:100CF0000C94EC33FC01CB0120913A0430913B047D
:100D00002617370790F0009729F42091E8002E77F6
:100D10002093E80040E0009751F4411108C0809111
:100D2000E80082FF31C080E00895C901F3CF20912F
:100D300032042223A9F12530A9F12091E80023FDF6
:100D40002DC02091E80022FDEACF2091E80020FF8D
:100D5000E2CF3091F3002091F200009719F0283093
:100D6000310558F041E02830310509F040E020918C
:100D7000E8002E772093E800CECF41914093F10018
:100D800001972F5F3F4FE9CF80913204882341F0D4
:100D9000853041F08091E80083FFC1CF81E0089564
:100DA00082E0089583E008950895089587E797E71E
:100DB000909301088093000888E19AE00FB6F894B8
:100DC000A895809360000FBE90936000FFCFA4E0D1
:100DD000B0E0EDEEF6E00C94D6338FB7F8942091A6
:100DE0002204309123044091240450912504298346
:100DF0003A834B835C838FBF69817A818B819C812D
:100E00002496E2E00C94F233809188010895A3E0E7
:100E1000B0E0EDE0F7E00C94D6339C0180911F0424
:100E20009091200482179307B1F03093200420930F
:100E30001F04E0917E04F0917F04309761F00084FC
:100E4000F185E02D309739F084E089833B832A8354
:100E5000CE01019609952396E2E00C94F233A3E0CB
:100E6000B0E0E5E3F7E00C94D6339C0180911D04DB
:100E700090911E0482179307B1F030931E042093C3
:100E80001D04E0917E04F0917F04309761F00084AE
:100E9000F185E02D309739F083E089833B832A8305
:100EA000CE01019609952396E2E00C94F2338091ED
:100EB0008004882369F0E0917E04F0917F043097EC
:100EC00039F00190F081E02D309711F009950895E7
:100ED00080E00895FC01680F791F8FEF91E3219165
:100EE000822728E030E087FF09C0880F892721503A
:100EF0003109C9F7E617F70791F70895880FF7CF7B
:100F0000FC01EE0FFF1FE80FF91FE858FC4F61834B
:100F1000408322830895539A0895EAE4F3E011820E
:100F20008281846082830895CF938091760480FFCC
:100F300004C00E940515CF910895C0918D01809144
:100F40008E01C817B0F780918B019C2F981B892FB9
:100F500020E040E060E090E0D3DFCF5FF0CF0F9380
:100F60001F93CF93DF93D82F162F042F80917604F1
:100F7000C0918D0180FD10C0DF91CF911F910F9125
:100F8000089580918B019C2F981B892F202F412F32
:100F90006D2F90E0B5DFCF5F80918E01C81788F389
:100FA000C3DFEACFB0E0A0E0E8EDF7E00C94CE3389
:100FB000262FD72EE82FF0E0E551FE4F71110AC021
:100FC000E4918E2F9E2F6E2F792FCDB7DEB7EAE0FA
:100FD0000C94EA33072F10E0E4914E2F56E0659F02
:100FE00070011124CFEFD0E0C701BE010E94B233DF
:100FF000822F90E0880F991F55E5569F9001579FCB
:10100000300D1124821B930B582F550F580FCE0112
:10101000801B910BE89F9001E99F300D1124932FC5
:10102000D59ED0011124AB2FBB276E01CA1ADB0A53
:10103000EC9DD001ED9DB00D11248B2F5E01A51A02
:10104000B108A09E6001A19ED00CB09ED00C1124CE
:10105000CD2CDD24CC19DD09EC9F8001ED9F100D16
:10106000112463307105D1F05CEFE51653E0F5060D
:1010700070F461307105B1F062307105B9F04FEF75
:10108000E416F10408F09FCF832F912F9CCF64309A
:10109000710579F066307105B9F395CFE32F9B2F79
:1010A000842F91CFEB2F832F942F8DCF812FE32F80
:1010B000FBCF8E2FE12F87CF982F762F842F209173
:1010C000760420FF0AC0473908F086E9692F6ADFF5
:1010D000962F672F482F892F42CF0895CF93DF9304
:1010E000EC01E6E7F4E0438162818C81E5DF8C81ED
:1010F0008F5F8C83DF91CF910895CF93DF93EC01C5
:10110000EC81F0E0E551FD4F4491E6E7F4E06281C7
:101110008181D2DF8C818F5F8C83DF91CF910895A5
:1011200090917B01882341F09F5F90937B01109207
:1011300078011092770108959150F7CFE0E7F1E040
:10114000828591E089278287108617820895809191
:101150007901811114C080917B01811110C08091AF
:101160007A0181110CC090914303969596959695BE
:1011700081E020917101921380E08170089581E0F7
:10118000FCCF80919001F901808366CCCF93DF93EF
:10119000E0E9F1E083819481A581B681E90188834A
:1011A0009983AA83BB831482138216821582DF91EE
:1011B000CF91089580E0089563E070E089E992E0BE
:1011C00089DE90919802891318C0E0919902EC3061
:1011D000A4F488E0E802F0011124EF5FFE4F0680DE
:1011E000F781E02D309749F02CEB32E040919B02E3
:1011F0006CE972E080919A0209950895E3E8F2E0C3
:10120000878980933101808D809344010895F894FB
:10121000E82FE295EF70F0E041A18F7021E030E01F
:10122000B90102C0660F771F8A95E2F7CB01962FAE
:101230009095942391A392A1892B82A378940895E9
:10124000A4E0B0E0E6E2F9E00C94D63380918004AB
:10125000882369F0BCDD69837A838B839C836981F1
:101260007A818B819C812496E2E00C94F233AFDD8D
:1012700069837A838B839C838091F1029091F2023F
:10128000A091F302B091F40229813A814B815C81F3
:10129000280F391F4A1F5B1F29833A834B835C83C6
:1012A000DECF811522E5920708F04AC0811530E5AE
:1012B000930708F0C5C0803E910540F58D3C91052F
:1012C00008F09AC0883A910580F4853A910508F0B3
:1012D00090C08130910541F09C0124503109213AA0
:1012E000310510F090E080E008959C01285A310902
:1012F0002B313105B8F7885AE82FF0E0EE0FFF1FC9
:10130000E954FE4F8081918194640895811540E4F1
:10131000940798F4811550E2950708F0ABC0883E19
:10132000910510F39C013A9521153F41D8F620E034
:10133000392FA901482BCA0108959F70906A08951A
:10134000803852E59507B8F5803622E5920708F017
:101350005CC0803432E59307C8F4803242E59407DC
:1013600008F04CC0282F2695269550E2259F900125
:101370001124482F437081E090E002C0880F991F2C
:101380004A95E2F7822B932B9D680895282F269586
:101390002695277040E2249F90011124482F437026
:1013A00081E090E002C0880F991F4A95E2F7822BF6
:1013B000932B9C680895803C52E5950760F4282F94
:1013C0002F71803A9245B0F5822F90E0982F8827B0
:1013D000846F906A08959C01205C3245203231056B
:1013E00008F080CF982F882788279F71806F906A98
:1013F0000895849790640895906508958F7190E0A2
:10140000982F8827816F906A0895282F2695269512
:10141000277050E2259F90011124482F437081E0EE
:1014200090E002C0880F991F4A95E2F7822B932B18
:101430009A680895822F90E0982F882790620895E7
:101440009C0195E0369527959A95E1F72F7030E04D
:10145000322F2227482F4F7150E084FF06C084E0CE
:10146000440F551F8A95E1F75527C901842B952B09
:10147000906908959F71E2CF982F909580912704ED
:1014800089238093270408958091750490913C04EA
:10149000981301C008958F5F8770FACF292F983075
:1014A00078F5863068F590E036E0239F800D911D39
:1014B0001124682F677023E0969587952A95E1F7A8
:1014C000FC01EE0FFF1FE80FF91FEC5AFD4F50E033
:1014D00040E080E0219130E0062E02C0369527954D
:1014E0000A94E2F721703327042E01C0220F0A94D8
:1014F000EAF7822B4F5F5F4F4330510559F708954C
:1015000080E00895292F983090F5863080F590E09E
:1015100036E0239F800D911D1124282F277041E074
:1015200001C0440F2A95EAF723E0969587952A95FE
:10153000E1F7FC01EE0FFF1FE80FF91FEC5AFD4F1A
:1015400090E080E070E05191DF0111979B01082E3F
:1015500002C0369527950A94E2F721702195252738
:10156000242325272C9301968330910561F7089554
:101570008093FF020895982F82958F7011F0982F15
:1015800084E0292F2695269511F08E5F922F96954F
:1015900009F08F5F0895CF93C82F80919D018C171C
:1015A00049F015DC60939E0170939F018093A00128
:1015B0009093A101C0939D01CF910895ACE0B0E05C
:1015C000E4EEFAE00C94C8336C017B01DC01129666
:1015D000ED91FC9113978D919C91222309F450C0B9
:1015E0002091A201211101C024E02150330B32E0EF
:1015F000832E912C02C0880C991C2A95E2F7B40125
:101600000E9418349B01D6018D939C93CF01B401A5
:101610000E941834F601938382836138FFEF7F07BD
:1016200004F160387105FCF4D70115966C932138EC
:10163000BFEF3B07D4F020383105CCF4822F8195E1
:10164000F7018483442319F0619565832483809195
:10165000A301882371F0813081F02C96E0E10C9495
:10166000E43361E8E1CF6FE7DFCF21E8E7CF2FE791
:10167000E5CFD70115961C92F0CFF7011482EDCF7C
:1016800021E02427411106C0F195E195F1099195DA
:1016900081959109022F10E044E0249F90011124CC
:1016A000D901AB5BBD4F6D917C911197AB0177FF79
:1016B00002C04D5F5F4F55954795559547954F0132
:1016C000841A950AA401460F571F4D935C93F901A4
:1016D000EB5BFD4F42815381BA0157FF02C06D5F42
:1016E0007F4F75956795759567955C01A61AB70A42
:1016F000A40EB51EBA82A982F901EB5BFD4FB3823D
:10170000A2822081318137FF02C02D5F3F4F359586
:1017100027953595279549815A8157FF04C04D5F1C
:101720005F4F5A83498369807A8075946794759472
:1017300067945090290353E0000F111F5A95E1F769
:101740005520A9F0A90137FF04C044275527421BA3
:10175000530BC30177FE04C0882799278619970980
:10176000481759070CF4AC0141155105B9F4F801BB
:10177000EB5CFD4F1082118212821382148215825B
:1017800016821782D70112962C93129713966C9299
:10179000F60111821082138212825FCF0B5C1D4F03
:1017A000DA010E944D3469837A838B839C83F8012C
:1017B00080819181A281B38189809A80AB80BC8035
:1017C000880E991EAA1EBB1E89829A82AB82BC8299
:1017D0009A01D3010E944D346D837E838F83988755
:1017E00084819581A681B7812D813E814F81588565
:1017F000280F391F4A1F5B1F2D833E834F83588755
:10180000652D70E080E490E00E9418344B01770F62
:10181000AA08BB0869817A818B819C81A50194010A
:101820000E942B3429013A01D8016D937D938D9349
:101830009C9313976D817E818F819885A50194017A
:101840000E942B3429833A834B835C83A501940146
:1018500069817A818B819C810E94FD334B015C01FF
:101860008D819E81AF81B88588199909AA09BB0924
:10187000F80184839583A683B78321E83FEFF1E8DD
:101880004F16FFEF5F066F067F063CF020E842161A
:10189000510461047104E4F4920149815A816B811D
:1018A0007C8191E8692E77247A9441388FEF58072C
:1018B000680778070CF466CF69807A804038510554
:1018C000610571050CF45ECF8FE7682E712C5ACF3D
:1018D0002FE730E0E2CF8F708A3010F4805D0895FA
:1018E000895A089520E297FF04C091958195910946
:1018F0002DE2EAE0F0E0BF010E941834805D8093A1
:1019000033026115710559F42093320220E22093CD
:10191000310220E22093300280E392E00895CB016F
:10192000BF010E941834805D8093320261157105F9
:1019300071F3CB01BF010E941834805D80933102A6
:10194000E9CFAC01860F971F57FD07C077FD04C094
:1019500097FF02C08FEF9FE7089577FFFDCF97FDB8
:10196000FBCF80E090E80895E9E7F1E083E0DF0154
:101970001D928A95E9F7E5E7F1E084E0DF011D9229
:101980008A95E9F708959C01809172019091730105
:101990008217930729F03093730120937201E4CFEB
:1019A000089590917001981719F080937001DCCF21
:1019B0000895CF9390913E0380913603981323C0EE
:1019C00080913F03882321F09091370389131BC036
:1019D00080914003882321F090913803891313C02C
:1019E00080914203882321F090913A0389130BC020
:1019F00090914103992329F081E020913903291323
:101A000003C080E001C081E0C82FC17080FF11C019
:101A1000E0917E04F0917F04309759F00680F781C1
:101A2000E02D309731F082E080933D038DE393E029
:101A3000099590913E0386E0EDE3F3E0DF01282F66
:101A40001D922A95E9F790933E03A5E3B3E0019038
:101A50000D928A95E1F781E0C11103C0911101C097
:101A600080E08170CF9108952FE2280F283070F424
:101A700081E090E001C0880F2A95EAF720913E03AB
:101A8000662329F0822B80933E0393CF089580959F
:101A90008223F9CFCF93DF93282F81E02A3019F0EA
:101AA0002D3029F480E088D0DF91CF910895809186
:101AB0008B0690918C0636E0FC01A5E8B6E001901B
:101AC0000D923A95E1F730EE320F343A08F458C0EF
:101AD00026E0FC0111922A95E9F7C0918B06D0917E
:101AE0008C0646E050E0BE0185E896E00E94E034B6
:101AF0009E0125583440892B41F1C90145E0969556
:101B000087954A95E1F741E050E0BA0102C0660FBF
:101B1000771F8A95E2F7CB0160918304709184046A
:101B2000862B972BB9016B5F7F4FE5E07695679524
:101B3000EA95E1F702C0440F551F6A95E2F7842B3E
:101B4000952B90938404809383042A5F3F4F4091A8
:101B50008204642F70E0C9010E94B233481B4630F2
:101B600010F4240F311D211572E0370710F030E01A
:101B700020E02B573B4F30938C0620938B0694CF5D
:101B80002052330B46E0429FB001439F700D112459
:101B90006D5B794F46E050E00E94CA349ECFCF93F0
:101BA000DF93EC01FE018491811103C0DF91CF919D
:101BB000089570DF2196F6CFCF93382FE0918B06F2
:101BC000F0918C06E558F44020918204622F70E079
:101BD000CF010E94B233281B822F332359F066E0D5
:101BE0000E940C34C82FC15010F4CF91089580E2A8
:101BF00051DFF9CF9F01280F311D2115324018F018
:101C000080E0F0E0E0E08E0F9F2F911D8B579B4FFF
:101C100090938C0680938B06E8CF80912704909157
:101C20006E02892B90916D02992389F0892B90E0A7
:101C30002AE232E0F90140812F5F3F4F41119F5F5F
:101C400042E020333407B1F7911110926D02809376
:101C5000280248E050E06FE672E088E292E00E94DD
:101C6000E034892BB9F088E0E8E2F2E0AFE6B2E0D8
:101C700001900D928A95E1F7E0917E04F0917F0446
:101C8000309741F00280F381E02D309719F088E21F
:101C900092E009950895EAE2F2E086E0DF011D9204
:101CA0008A95E9F790E080E0DAD890E080E0AFD85C
:101CB00010926E02B2CFAAE2B0E0E1E6FEE00C9430
:101CC000D53384E394E0FC0101962091F100208358
:101CD00024E08C339207B9F780913504893009F4F8
:101CE0005BC0C8F4823009F4B8C0833009F487C0FF
:101CF000813099F18091E80083FF3BC180913404E9
:101D0000909135049A3008F034C1E92FF0E0E15B9E
:101D1000FA4C0C9447348A3009F48EC08B3051F75A
:101D200080913404813231F78091380490913904E4
:101D3000892B01F78091E800877F8093E8000E945B
:101D4000CF0581E090913604911101C080E080932D
:101D50008901109227049FDFCDCF80913404813A0E
:101D600049F68091E800877F8093E80080913804ED
:101D700090913904892B61F468E088E294E070E086
:101D80000E947A068091E8008B778093E800B2CFBA
:101D900060E090E080E0F3CF80913404813209F07C
:101DA000A9CF80913804909139048D7F892B09F057
:101DB000A1CF8091E800877F8093E8008091E800C0
:101DC00082FF18C09091F3008091F200029731F4E5
:101DD0008091F100813011F0863021F48091F10082
:101DE000809388018091E8008B778093E8000E94BF
:101DF000CF0580CF809132048111E0CF7BCF8091DD
:101E00003404813A09F076CF8091380490913904F6
:101E1000892B09F06FCF8091E800877F8093E800DD
:101E20008091E80080FFFCCF809189018093F100D0
:101E30008091E8008E77D9CF80913404813209F007
:101E400059CF8091E800877F8093E8000E94CF05FA
:101E500080913704809387014DCF80913404813A7B
:101E600009F048CF8091E800877F8093E800809157
:101E7000E80080FFFCCF80918701D8CF803899F0AF
:101E8000823809F076C0809138048F70873008F06E
:101E900070C08093E9008091EB0085FB882780F972
:101EA0001092E90006C080913004909131049111A4
:101EB00082609091E800977F9093E8008093F10012
:101EC0001092F1008091E8008E77B7C1882309F461
:101ED000A4C1823009F04DC0809136048111A8C19F
:101EE000809138048F702FEF280F263008F041C002
:101EF0008093E9002091EB0020FF9AC1933031F4E8
:101F00008091EB0080628093EB0092C19091EB0096
:101F100090619093EB0021E030E001C0220F8A95A0
:101F2000EAF72093EA001092EA008091EB008860C3
:101F3000EACF81111EC0109136041F778091E30013
:101F40008078812B8093E3008091E800877F8093E5
:101F5000E8000E94CF058091E80080FFFCCF8091CF
:101F6000E30080688093E30082E0111183E08093B6
:101F700032048091E80083FF0AC08091E800877FE7
:101F80008093E8008091EB0080628093EB00AA963A
:101F9000E3E00C94F1338058823058F740913604D6
:101FA000509137044C3D83E05807A1F583E08A83C4
:101FB0008AE289834FB7F894DE01139620E03EE071
:101FC00051E2E32FF0E050935700E49120FF03C06B
:101FD000E295EF703F5FEF708E2F90E0EA30C0F037
:101FE000C7968D939D932F5F243159F74FBF8091F2
:101FF000E800877F8093E8006AE270E0CE010196F6
:102000000E947A068091E8008B778093E800B1CF38
:10201000C096E7CF8091380490913904252F33275B
:102020002330310509F44AC078F52130310509F42F
:1020300079C08BE590E0ECEAF5E02230310509F05B
:1020400098CF2091E800277F2093E80020913A0460
:1020500030913B048217930708F49C0140E021155E
:10206000310509F064C0411162C08091E80082FD31
:10207000C9CF80913204882329F2853019F28091EA
:10208000E80083FFF2CFBECF2132310509F43BC017
:102090002232310509F06DCF8330910508F069CF08
:1020A000FC01EE0FFF1FE75EFD4F0190F081E02D78
:1020B0008A5E9D4FDC018C9190E011C0CA01992786
:1020C000413089F082309105B1F0892B09F051CF70
:1020D000EFE3F6E0E4918E2F90E0EFE3F6E0009777
:1020E00009F447CFAECFEDE2F6E0E4918E2F90E019
:1020F000EDE2F6E0F4CFE9E1F6E0E4918E2F90E036
:10210000E9E1F6E0ECCF8330910508F032CF880F9B
:10211000991FFC01E15EFD4F0190F081E02D89E007
:1021200090E08FCF82E190E0E7E0F6E08ACF809107
:102130003204882309F466CF853009F463CF809197
:10214000E80083FD5FCF8091E80082FD8ECF809113
:10215000E80080FF84CF9091F3008091F200211578
:10216000310519F08830910550F041E0089709F0E9
:1021700040E08091E8008E778093E80070CF449132
:102180004093F1003196215031090196E8CF803813
:1021900009F0EFCE8091E800877F8093E80080917E
:1021A00033048093F1008ECE8111E3CE109136047A
:1021B000123008F0DECE8091E800877F8093E8003F
:1021C000109333040E94CF05112311F084E005C061
:1021D0008091E30087FDFACF81E08093320442E0F2
:1021E00061EC81E00E94EE0542E261EC84E00E9435
:1021F000EE0542E261EC82E00E94EE0542E260EC14
:1022000083E00E94EE0580913204843021F081E069
:1022100080938A01AECE82E0FBCF8091360481307C
:1022200009F0A7CE81E0933009F080E0809331047B
:102230001092E9008091E800877F8093E8000E9477
:10224000CF0597CE882311F017D9E7CC08958823BE
:1022500031F090912704892B80932704DECC0895D8
:102260008823A1F19CEF980F913A68F4EAE2F2E03A
:102270009191891303C0DF0111971C9292E0E03322
:10228000F907B1F7CACC90E2980F983048F48770FC
:1022900091E001C0990F8A95EAF7892FEDD8F2CF26
:1022A0009BE5980F933020F490E080E00C942F078A
:1022B00098E5980F9B3120F490E080E00C9407079C
:1022C00093E3980F933110F460E0CECB08950F9311
:1022D0001F93CF93C82F882331F18CEF8C0F813A55
:1022E000A0F50AE212E0F8018191C81701F122E09D
:1022F000E033F207C9F7EFEF80E0D8019D918D013F
:10230000C91781F0EF3F19F4911101C0E82F8F5FD9
:10231000863099F7EF3F31F00E2E000CFF0BE85D91
:10232000FD4FC2837ADCCF911F910F910895EAE2AD
:10233000F2E08191C81303C0DF0111971C9232E0D3
:10234000E033F307B1F769DCD6CF80E28C0F883039
:1023500068F4C77021E030E001C0220FCA95EAF7A7
:1023600080912704822B80932704DCCF8BE58C0F90
:10237000833038F42C2F2452330BC9010E942F07CD
:10238000D2CFE8E5EC0FEB3150F4F0E0EE0FFF1F99
:10239000E954FE4F808191810E940707C4CF83E3F7
:1023A0008C0F833108F0BFCF61E08C2F5DDBBBCF9A
:1023B0000F931F93CF93DF93EC01FC01019000205A
:1023C000E9F78F0101501109C017D10728F0DF91FB
:1023D000CF911F910F91089589915CDBF5CF0F93F9
:1023E000CF93DF93C6E7D4E0488159816A817B812E
:1023F00088E090E00E942A35288139814A815B81FA
:102400006C817D818E819F8100E20E948D34622FDC
:1024100083E290E00E941835DF91CF910F910895EB
:102420000F931F93CF93DF93D82F162FC42F022F14
:102430008091760480FF36C0209177042D1308C068
:1024400090917804961304C090917904941729F020
:1024500090914C03926090934C03E82FE695E6959B
:10246000F0E0EB5FFD4F908190934A038C7F8430C6
:10247000F1F48C2FC73908F086E96D2F712F0E9477
:10248000D207962F672F482F892F0E94AF07D0932E
:10249000770410937804C0937904002319F086E739
:1024A00094E09DDFDF91CF911F910F9108959230BD
:1024B00019F4C0917904EBCF963049F7D22FE7CFCA
:1024C000E6E7F4E043812FE0421B08F440E021E01E
:1024D00062818181A5CFE6E7F4E043812FE0420FDE
:1024E00008F44FEF21E0628181819ACFE6E7F4E0C2
:1024F000628121E1621B08F460E021E04381818177
:102500008FCFE6E7F4E0628121E1620F08F46FEF1C
:1025100021E04381818184CFE6E7F4E0818121E0FD
:102520004381628181517CCFE6E7F4E0818121E043
:10253000438162818F5E74CF80917A04882319F081
:10254000815080937A0486E794E049CF80917A04A1
:10255000833018F48F5F80937A0486E794E03FCF4E
:10256000E6E7F4E080818E7F8083CF0138DF0E9430
:102570008D07EAE4F3E08281816082830C94940702
:10258000E6E7F4E089E080838AEA81838FEF828343
:1025900084E683831482EAE4F3E0828183608283A9
:1025A00086E794E01CCF1F93CF93DF93962F122FD3
:1025B000632F8430D8F49830C8F44630B8F4C42F70
:1025C000D0E0CC0FDD1F2CE0929FC00DD11D112457
:1025D00090E6899FC00DD11D1124CE0185960E94E1
:1025E0001835612FCE0186960E941835DF91CF9164
:1025F0001F910895AF92BF92CF92DF92FF920F93F7
:102600001F93CF93DF93B12CA12C00E0650110E064
:1026100012C0FE01259134914F2D612F802FC3DF11
:102620002296F39486E0F812F4CF86E0C80ED11C0F
:102630001F5F183039F0E601CC0FDD1FC45DDB4FA2
:10264000F12CE7CF0F5F80E3A80EB11C0430F1F648
:10265000DF91CF911F910F91FF90DF90CF90BF90AE
:10266000AF9008954F925F926F927F928F929F9258
:10267000AF92BF920F93CF93DF9300D000D0CDB72E
:10268000DEB788E090E00E940E352B013C01A6E702
:10269000B4E06C935092770480937804709279043C
:1026A00010927A0410927B0410927C0410927D04A4
:1026B00083E290E00E940635282F30E040E050E0B1
:1026C00060E070E080E090E000E20E947234242933
:1026D000352946295729E6E7F4E02083309377042B
:1026E000409378045093790460937A0470937B0448
:1026F00080937C0490937D040F900F900F900F9027
:10270000DF91CF910F91BF90AF909F908F907F906E
:102710006F905F904F9008950F931F93CF93DF9327
:10272000843030F5683020F5463010F5C42FD0E005
:10273000CC0FDD1F2CE0629FC00DD11D112430E6AF
:10274000839FC00DD11D1124CE0185960E940635B0
:10275000082F10E0102F0027CE0186960E94063524
:102760009801282BC901DF91CF911F910F910895F6
:1027700090E080E0F8CF462F672F783028F446307D
:1027800018F4843008F4C8CF80E090E00895B0E0F9
:10279000A0E0EDECF3E10C94D1337C0100914D030A
:1027A0008091FF02082BC3E0D0E010E0DC2EC801CE
:1027B0000C2E02C0959587950A94E2F780FD09C01A
:1027C0002197A0F7D12C8D2DCDB7DEB7E7E00C9483
:1027D000ED33B7018C2FCFDF0E945109019781F3B0
:1027E000F2CFCF93DF93D82FC92FD1DF6D2F7C2F5E
:1027F000C2DF0E945109DF91CF910895FC018481CD
:10280000882399F080819181ECDF282F92959F7029
:10281000963091F060F4925F9F70923030F481E0D6
:10282000203F81F030F4283E30F080E004C09A5F11
:10283000F3CF243FD1F7089581E0283E20F0213FD7
:10284000A1F7F9CF08950895A6E0B0E0EAE2F4E137
:102850000C94D5339C0186E0F901DE0111960190BC
:102860000D928A95E1F7F901258189819A812223C8
:1028700089F0662379F08BDF182F682F89819A8180
:102880000E94820A69817A81812F75DF2696E3E0B2
:102890000C94F1330E944E0A182FF4CF8091180344
:1028A00081110BC080EE93E00E940635883040F421
:1028B00080936D0181E08093180380916D010895EC
:1028C0008E3FB1F383E0F4CFCF93DF93C82F0E9404
:1028D000BB0AD82FE3DF982F81E0D91380E00E9454
:1028E000CB0AC0934D03DF91CF91089521E030E0F2
:1028F00001C0220F8A95EAF7209580914D0382232B
:10290000E3CF909143038095892380934303282F3D
:10291000277061F4891751F09091010392FF06C06E
:10292000869586958695E2DF10924303089521E00F
:1029300030E001C0220F8A95EAF780914D03822B87
:10294000C3CF0F931F93CF93DF938B01EA01909135
:102950003204943061F58093E9008FEF9091E800A4
:10296000815095FD06C095ED9A95F1F70000811113
:10297000F5CF8091E80085FF1AC00E949E05811165
:1029800011C08091E80085FD06C08091E8008E7737
:102990008093E800F2CFF80181918F018093F100DC
:1029A000219779F78091E8008E778093E800DF9196
:1029B000CF911F910F910895BC0143E050E084E056
:1029C000C0CFBC0146E050E084E0BBCFCF93DF93A3
:1029D000D82FC92F48E050E0682F792F81E0B1DF70
:1029E00088E0ED2FFC2FA8E2B4E001900D928A95CB
:1029F000E1F7DF91CF910895792F603229F440E219
:102A000050E0682F82E09DCF08953BB1377F2BB116
:102A100028604FB7F89488E793E0FC010196508155
:102A200068E02BB9000000C057FF3BB9550F00000C
:102A300000C000C000C03BB900C06A9591F754E0E7
:102A40008D31950751F74FBF8FE594E00197F1F76E
:102A500000C000000895B0E0A0E0E1E3F5E10C94CF
:102A6000CE33F82EE92ED62EC72E8A018091F002A1
:102A7000AA24A394B12C8A3018F48AE0A82EB12C91
:102A8000C1E0D0E06D2D7C2D8F2D9E2DF801099594
:102A9000811104C02196AC16BD062CF4CDB7DEB76B
:102AA000EAE00C94EA33CC9F9001CD9F300D300DBD
:102AB000112490E080E045E34A95F1F7000001968B
:102AC00082179307C1F7DECF10922704E4D82FEFC7
:102AD00084E39CE0215080409040E1F700C000007A
:102AE00088E19AE00FB6F894A895809360000FBE35
:102AF00090936000FFCFAB0124E630E0BC0188E793
:102B00000E9477319C0181E0232B09F080E0089539
:102B10008091740390917703911103C091E089270C
:102B20000895882361F062E070E08DEE93E0E3DFCA
:102B3000811103C0809174030895109274038091F1
:102B40007403ECCFA5E0B0E0E8EAF5E10C94D633ED
:102B5000809174038D83809177038823E9F00E942C
:102B6000E706DC01CB01805A9541AF4FBF4F809300
:102B7000700390937103A0937203B09373038D81DC
:102B8000811107C062E070E08BEE93E0B4DF811149
:102B900008C0809174038D838D812596E2E00C94AA
:102BA000F23381E080937403F4CF9091010392FBA0
:102BB000222720F9281771F080FB92F990930103E6
:102BC000609100037091010384E090E00E9432352F
:102BD00082E097CE0895B0E0A0E0E1EFF5E10C943B
:102BE000D033FA0169017801C82F880FDD0B3097C7
:102BF000B1F0DE0193E0AA0FBB1F9A95E1F7AF5F3A
:102C0000BE4F11968D919C9112978D579D4F4C916F
:102C100050E0E417F50708F4AF010E94ED34CE014F
:102C20000E944233182F8823D1F0E114F104B9F047
:102C300083E0CC0FDD1F8A95E1F7FE01EF5FFE4FC9
:102C4000438150E0E416F50608F4A701CF5FDE4F9C
:102C50006C817D816D577D4FC6010E94ED34812FBF
:102C6000CDB7DEB7E8E00C94EC33A5E0B0E0EBE3E1
:102C7000F6E10C94CE338D83E62E5A01F22E6801D4
:102C80008091F0028A3028F080E02596EAE00C94EA
:102C9000EA338D818930C4F319828A836B832C8354
:102CA00063E070E0CE0102960E946A078983E09299
:102CB0003101F092440110E000E030E020E044E017
:102CC00050E0BE016F5F7F4F85E085DF8823E1F232
:102CD0004E2D50E030E020E0B50186E07CDF882317
:102CE00099F230E020E041E050E0BE016B5F7F4FA1
:102CF00087E071DF882341F20F2D10E0960150E04C
:102D000040E070E060E088E066DFBFCFA8E0B0E0C0
:102D1000ECE8F6E10C94D033C090E402D090E502E8
:102D2000E090E602F090E7020E94E706DC01CB01AA
:102D30008C199D09AE09BF0911E084369105A105E2
:102D4000B10518F10E942009DC01CB010296A11DFA
:102D5000B11D89839A83AB83BC8310E000E030E02F
:102D600020E044E050E0BE016F5F7F4F82E033DF40
:102D7000182F882351F00E94E7066093E4027093B5
:102D8000E5028093E6029093E702812F2896E8E01F
:102D90000C94EC338F929F92AF92BF92EF92FF927E
:102DA0000F931F93CF93DF93CDB7DEB729970FB65D
:102DB000F894DEBF0FBECDBF7B0101E010E09E01A5
:102DC0002B5F3F4F50E040E070E060E080E003DFC9
:102DD000182F882309F44EC08090E0029090E10201
:102DE000A090E202B090E3020E94E706DC01CB0172
:102DF00088199909AA09BB0984369105A105B1056D
:102E000048F464E070E084E892E00E946A079D81E3
:102E1000891781F104E010E09E012F5F3F4F50E0E1
:102E200040E070E060E081E0D6DE182F64E070E002
:102E300084E892E00E946A0791E02D81281390E0D7
:102E4000192331F10E94E7066093E0027093E102DA
:102E50008093E2029093E30289819A81AB81BC81E5
:102E60008093DC029093DD02A093DE02B093DF0238
:102E700011E00EC08091840290918502A09186029B
:102E8000B091870289839A83AB83BC831111E4CF0D
:102E90008091DC029091DD02A091DE02B091DF0210
:102EA000F70180839183A283B383812F29960FB684
:102EB000F894DEBF0FBECDBFDF91CF911F910F9170
:102EC000FF90EF90BF90AF909F908F9008954F929A
:102ED0005F926F927F92AF92BF92CF92DF92EF920A
:102EE000FF920F931F93CF93DF9300D000D000D0B9
:102EF000CDB7DEB78D837B01A42ED22E3E83B02EBC
:102F0000C12EDB014D905D906D907C900E94E70694
:102F1000DC01CB0184199509A609B709843691050E
:102F2000A105B10510F4AA2051F110E000E030E055
:102F300020E04B2D5C2D6D2D7E818D814CDE8983B3
:102F4000882339F00E94E706F7016083718382834A
:102F50009383898126960FB6F894DEBF0FBECDBF4E
:102F6000DF91CF911F910F91FF90EF90DF90CF9065
:102F7000BF90AF907F906F905F904F900895F1E079
:102F8000F983E7CFA1E0B0E0E8ECF7E10C94D433AB
:102F90008091740389832091970290E041E0281783
:102FA000190609F440E001E010E09E012F5F3F4F59
:102FB0006CEE72E084E08BDF2196E4E00C94F03359
:102FC000ABE0B0E0E6EEF7E10C94D43388E0E6E75E
:102FD000F4E0DE01119601900D928A95E1F780915F
:102FE0004A0390914B03A0914C0389879A87AB8742
:102FF00041E08B85811101C040E00BE010E09E01B3
:103000002F5F3F4F68EE72E083E061DF8111109225
:103010004C032B96E4E00C94F033CF93DF93D82F3E
:10302000C92F80915202811165C040E150E060E4F7
:1030300072E089E193E00E94F63480911903909147
:103040001A03C297873B934068F0EBE1F3E08EE010
:10305000DF011D928A95E9F788EC90E090931A03BE
:103060008093190380911C038150873018F081E010
:1030700080931C0380911D0390911E038456910937
:103080008532934130F08AE892E090931E0380935A
:103090001D0380911F038150843618F08AE08093CD
:1030A0001F03809121039091220301978E3F9F4F30
:1030B000C0F08FE29AE0909322038093210380E393
:1030C0009AE090932403809323038FE298E09093F7
:1030D00026038093250380E398E090932803809350
:1030E0002703809120038F3F11F41092200381E089
:1030F0008093520280E1E9E1F3E0AD2FBC2F019013
:103100000D928A95E1F78D2F9C2FDF91CF91089535
:10311000A0E1B0E0EEE8F8E10C94D633CE010196E0
:103120007CDF89819A819C0122533109273B3340FE
:1031300010F088EC90E06096E2E00C94F23328E026
:1031400030E043E060E086E30C943C30CF93DF93C3
:10315000D82FC62FF4DF8D2F80680E944E308C2F21
:103160000E944E308AEB8A95F1F700C00E947E30B3
:1031700083E492E00197F1F700C00000DF91CF9166
:103180000895682F893708F068E760939B0191E004
:1031900090939C0190919001992349F06150811185
:1031A00001C064E0683708F067E78FE0CFCF08958B
:1031B000FB018081E6CF282F80919B01811101C006
:1031C00085E0022E000C330B820F932F911D1816F1
:1031D000190614F081E090E0D4CFACE0B0E0E3EF6A
:1031E000F8E10C94D2334F83588769877A878B87AD
:1031F0009C8780919001882309F444C080914D02FE
:10320000811106C060E080E5A1DF81E080934D027E
:1032100096DF80E50E944E300AEB0A95F1F700C078
:103220000E9466300E9466300E9466307C010E94D7
:10323000663060E0E62AF82A0E9466308C010E941F
:10324000663020E0022B182B0E947E3025E02A9564
:10325000F1F70000F894B7018091930190919401E7
:103260000E94A10C9093940180939301B8018091E6
:103270009501909196010E94A10C909396018093E4
:103280009501789480918004882309F466C00E9497
:10329000E706462F572FBC0180914E0290914F02B6
:1032A000A0915002B09151028A019B01081B190B99
:1032B0002A0B3B0BD901C8010897A105B10508F4F9
:1032C0004CC040934E0250934F0260935002709353
:1032D000510280919E0190919F01A091A001B09117
:1032E000A101481B590B6A0B7B0B42335105610549
:1032F000710580F41092940110929301109296013E
:1033000010929501109298011092970110929A01D3
:10331000109299011091810420919D01412FBE01CD
:10332000695F7F4F83E991E00E94DE0A20919D0151
:1033300080919001282741E04127BE01695F7F4FBE
:1033400087E991E00E94DE0A86E0FE013796A8EA4E
:10335000B1E001900D928A95E1F786E0FE01379683
:10336000DE01119601900D928A95E1F729813A814B
:103370004B815C816D817E8180E090E02C96E6E05F
:103380000C94EE33CF93C82FDADE8C2F0E944E3090
:103390008FE792E00197F1F700C000000E946630CD
:1033A000C82F95E09A95F1F700000E947E3085E6DF
:1033B0008A95F1F7000010924D028C2FCF9108955D
:1033C000CF93DF930E94AB2F269AB9DE6AE58AE39A
:1033D000BDDE2FEF80E792E0215080409040E1F782
:1033E00000C0000082E0CEDF83E0CCDF84E0CADFF3
:1033F00085E0C8DF86E0C6DF60E080E1A7DE80E030
:10340000C1DFD82F81E0BEDFC82F0E947E30D234CA
:1034100019F481E0C13009F080E08170809390015F
:10342000882319F064E08FE091DE81E0DF91CF9195
:1034300008951F920F920FB60F9211242F933F936E
:103440004F935F936F937F938F939F93AF93BF93AC
:10345000CF93DF93EF93FF93D091E900DF708091DA
:10346000EC00C82FC17080FDC0E81092E900809187
:10347000F000877F8093F00078940E945B0E10929A
:10348000E9008091F00088608093F000CD2BCF7030
:10349000C093E900FF91EF91DF91CF91BF91AF9180
:1034A0009F918F917F916F915F914F913F912F915C
:1034B0000F900FBE0F901F9018951F920F920FB68E
:1034C0000F9211242F933F934F935F936F937F93AA
:1034D0008F939F93AF93BF93EF93FF938091E100FE
:1034E00082FF09C08091E20082FF05C08091E10067
:1034F0008B7F8093E1008091DA0080FF24C080916F
:10350000D80080FF20C08091DA008E7F8093DA009F
:103510008091D90080FFA9C080E189BD82E189BD89
:1035200009B400FEFDCF81E080933204809126042F
:10353000811109C00E947F050E9420068091E2004F
:1035400084608093E2008091E10080FF1AC0809146
:10355000E20080FF16C08091E2008E7F8093E2003F
:103560008091E20080618093E2008091D8008062C7
:103570008093D80019BC85E08093320483E0809367
:103580008A018091E10084FF2FC08091E20084FFD6
:103590002BC080E189BD82E189BD09B400FEFDCF69
:1035A0008091D8008F7D8093D8008091E1008F7E3C
:1035B0008093E1008091E2008F7E8093E200809111
:1035C000E20081608093E20080913304882309F453
:1035D00052C084E08093320480913204843009F434
:1035E00052C081E080938A018091E10083FF2CC06A
:1035F0008091E20083FF28C08091E100877F809363
:10360000E10082E080933204109233048091E10063
:103610008E7F8093E1008091E2008E7F8093E200B4
:103620008091E20080618093E20042E060E080E00F
:103630000E94EE058091F00088608093F00081E0A8
:1036400080938A0180938901FF91EF91BF91AF919F
:103650009F918F917F916F915F914F913F912F91AA
:103660000F900FBE0F901F90189519BC1092320446
:103670001092260468CF8091E30087FD02C081E0AC
:10368000A9CF83E0A7CF82E0ADCF78941F921FB679
:103690001F9211248F939F93AF93BF938091220425
:1036A00090912304A0912404B09125040196A11DBA
:1036B000B11D8093220490932304A0932404B0931B
:1036C0002504BF91AF919F918F911F901FBE1F90B6
:1036D00018952FB7F8948091220490912304A0911B
:1036E0002404B09125042FBF0895A5E0B0E0EBE7D6
:1036F000FBE10C94CA3380917703882309F41DC140
:1037000020917503309176033A832983E2DF498162
:103710005A81841B950BC29708F4E6C0DADF9093B8
:1037200076038093750385E894E090938C068093EC
:103730008B0680918004882309F40EC185EF93E005
:103740000E94CF0D88EB0E944A0D8091A7010E9434
:103750006B0C0E944A0D89EB0E944A0D8091A601D4
:103760000E946B0C0E944A0D82EF93E00E94CF0DE5
:103770008091A4019091A50154E0969587955A9562
:10378000E1F70E946B0C0E944A0D8091A4010E94F7
:103790006B0C0E944A0D8FEE93E00E94CF0D8EEAD3
:1037A00091E00E94D81184E194E00E94CF0D8091B5
:1037B000AA01082E000C990B0E94720C0E94D811CD
:1037C0008091AB01082E000C990B0E94720C0E9494
:1037D000D8118091AD01082E000C990B0E94720C3B
:1037E0000E94D8118091AC01082E000C990B0E9408
:1037F000720C0E94D8118CE094E00E94CF0D809151
:103800009B01811101C085E090E00E94720C01963D
:103810000E94D81188E094E00E94CF0D8091A3010E
:10382000882331F0813009F48CC08FEF93E002C01F
:1038300085E094E00E94CF0D80919D01882309F4DA
:1038400083C08DE194E00E94CF0D8BEF93E00E9446
:10385000CF0D8091A201811101C084E0805D0E94A2
:103860004A0D83E294E00E94CF0D61E070E07A831C
:10387000698380914D03882309F469C090E0098031
:1038800002C0959587950A94E2F780FF60C0898110
:103890000E946B0C0E944A0D89819A8101969A833D
:1038A0008983089731F780E20E944A0D80E294E014
:1038B0000E94CF0D80917001882309F44AC08DE1E8
:1038C00094E00E94CF0D80917201909173016AE0A3
:1038D00070E00E94B233CB010E94720C01960E94EC
:1038E000D81180E30E944A0D809183049091840452
:1038F000892B09F04DC0809174038823F1F00E9458
:10390000E70669837A838B839C838091700390910F
:103910007103A0917203B091730329813A814B81A5
:103920005C81281B390B4A0B5B0BDA01C9018F3F05
:103930009F4FAF4FBF4708F4EBD82596EEE00C94AD
:10394000E63382E094E076CF8AE194E07CCF80EBAE
:10395000A1CF8AE194E0B5CF90E99983A981A051E4
:10396000AD8389E294E00E94CF0D8D81B82FBF5FB7
:10397000BD830E944A0D6D8029816212F6CF80E0DE
:103980000E94DC0D3981305F3983303C39F7ACCF90
:1039900080917703882309F4AECF80916F03811162
:1039A000AACFD0D820918304309184042115310509
:1039B00009F4A1CF80E041E050E0082F10E0BA0107
:1039C000082E02C0660F771F0A94E2F77A83698394
:1039D00062237323672B11F48F5FEFCF90916E03F7
:1039E00090FF97C0880F880F880F809382011092F4
:1039F0008501895F8093830183E08093860124E6BB
:103A000030E047E050E060E871E088E70E94343140
:103A1000892B09F070CFA80125E0440F551F2A9586
:103A2000E1F780916E0380FF86C0EEE4F3E080E270
:103A3000DF011D928A95E9F702E112E08EE0E82E9F
:103A400082E0F82E97E0992E88248394D801ED9196
:103A50008D01D7016D917D01640F752F711D6B571D
:103A60007B4FF0E0E25BFC4F30E020E0792C721AF3
:103A7000A82C022E01C0AA0C0A94EAF76B0190E070
:103A8000D6018D916D018A21A72DA91BA770BA2E91
:103A90000A2E000CBB0B682E01C0660CBA94EAF724
:103AA000B62CB195A195B109A770BB2701C0869529
:103AB000AA95EAF7A62DA82B80818A2B80839F5F89
:103AC0009830F1F62F5F3F4F31962830310571F66F
:103AD00022E00631120709F0B9CF04E610E020E237
:103AE00030E04EE453E060E488E70E94BC31892B6B
:103AF00009F001CF49815A81409550958091830406
:103B00009091840448235923509384044093830460
:103B1000F2CE8295880F8076809382019801369547
:103B200027953695279520938501815E80938301A3
:103B30002093860164CF4B575B4F04E610E020E2F0
:103B400030E0D1CFA4E3B0E0E8EAFDE10C94D23359
:103B500080913B03833009F074C140913D03509143
:103B60003E0360913F037091400380914103909127
:103B7000420333DB20933D0330933E0340933F03E6
:103B800050934003609341037093420386E0EDE35A
:103B9000F3E0DE01519601900D928A95E1F786E0FF
:103BA000FE017196DE015D9601900D928A95E1F716
:103BB00086E0FE017D96DE01119601900D928A95B8
:103BC000E1F786E0FE013196ADE3B3E001900D929E
:103BD0008A95E1F786E0EDE3F3E0DE01519601908E
:103BE0000D928A95E1F786E0FE017196DE019396CB
:103BF00001900D928A95E1F786E0FE01B396DE0111
:103C0000119601900D928A95E1F786E0FE013196BA
:103C1000ADE3B3E001900D928A95E1F786E0EDE324
:103C2000F3E0DE019F9601900D928A95E1F786E020
:103C3000FE01BF96DE01579601900D928A95E1F73D
:103C40001BA9FCA8012F0F2909F4AEC0CE010196D3
:103C5000E4D98B8184FD11950F2D85FD01951B8F76
:103C60000C8F86E0FE017796DE01519601900D9251
:103C70008A95E1F71D8B0E8B86E0FE017196DE01C1
:103C8000999601900D928A95E1F71DA70EA786E0FF
:103C9000FE01B996DE01579601900D928A95E1F7E3
:103CA0001B8F0C8F86E0FE017796ADE3B3E00190A9
:103CB0000D928A95E1F786E0EDE3F3E0DE01579699
:103CC00001900D928A95E1F780917001882309F4A3
:103CD00079C0E0907501F0907601FBDC20917401D1
:103CE0008E199F092817190608F06CC0E09077011B
:103CF000F0907801EEDC9C012E193F09790108DA79
:103D00008E159F0508F05EC0388D8A8D90917C01DC
:103D1000298D920F90937C0120917D01820F8093D9
:103D20007D0120917F01020F00937F0120917E0190
:103D3000120F10937E0120916E0197FD9195291726
:103D4000A8F187FD8195281788F107FD01952017B7
:103D500068F117FD119581E0211718F0311101C0AC
:103D600080E08170809379010E94A70810914D0333
:103D70008823A9F110927C0110927D0110927E019E
:103D800010927F01A6DC90937601809375011092CA
:103D900078011092770180917101111109C0882377
:103DA00089F00E9497140EC010E059CF81E0D9CF5E
:103DB000212F30E0082E02C0359527950A94E2F7AE
:103DC00020FFEFCF0E94D90C811138C080913C03B5
:103DD000817010923C03E496E6E00C94EE338091FF
:103DE0007101111121C08111EDCF00917501109168
:103DF00076016FDC801B910B209172013091730171
:103E000028173907F8F6809171010E9476141092F4
:103E100076011092750110927C0110927D01109232
:103E20007E0110927F01CECF212F30E002C0359568
:103E300027958A95E2F720FFC5CFD7CF81E090E0A4
:103E4000C7CF80E0C8CF80918004882309F041CC9F
:103E50000E942009CB0108956091760466956695CD
:103E600070E041E050E08FE691E00E94D334892B6E
:103E700019F481E080934B03E6DF90934503809330
:103E8000440380914C03846080934C030895909187
:103E9000760490FF2CC0937081112AC09460909397
:103EA000760480914C03816080934C03662321F05B
:103EB00086E794E00E94EF1160917604669566951E
:103EC00070E041E050E08FE691E00E94D334892B0E
:103ED000B9F00E948D0781E08093470320E0409174
:103EE000790460917804809177040C9410120895FD
:103EF000893010F09062D3CF880F880F982BCFCFE6
:103F0000ABDFE9CF90917604969596958FEF890F68
:103F1000913009F488E061E0BACF8091760486950B
:103F200086958F5F893008F081E061E0B0CFA7E12E
:103F3000B0E0EDE9FFE10C94CC331D861C86FE0158
:103F40003E9686E0DF011D928A95E9F78FEEE82E16
:103F500081E0F82E10E000E0CC24C394D12C29EFAE
:103F6000A22E21E0B22EF70181917F018F3F09F44B
:103F700045C0F894E82FE295EF70F0E021A18F7032
:103F8000A60102C0440F551F8A95E2F7CA01922F7D
:103F9000982B91A392A18095892382A3789400C045
:103FA000E3EFF1E031E0912C21912F3F09F4A7C01C
:103FB000A22FA295AF70B0E090968C9190E02F70F8
:103FC00002C0959587952A95E2F780FD98C0832FCA
:103FD000982A330FAE16BF0639F7F7013197808163
:103FE0008F3F11F00E94070950EA5A95F1F7ECE073
:103FF000F0E0EC0FFD1FE00FF11F90820F5F1F4FED
:104000000430110509F0AFCF48E050E0BE01645F15
:104010007F4F85EF92E00E94E0349C01892B49F0AC
:1040200088E0FE013C96A5EFB2E001900D928A95E2
:10403000E1F70091FE0210E0005F1C4F232B09F412
:1040400060C081E080937B0244DB90937A0280938E
:104050007902F12CE0908004EE2009F4ADC01A82C0
:1040600019821C821B828091F0028A3008F06EC097
:104070004AEC56E1BE016F5F7F4FC8010E942B15CD
:10408000882309F489C046E856E1BE016F5F7F4F7F
:10409000C8010E942B15882309F47EC040EE57E129
:1040A000BE016F5F7F4FC8010E942B15882309F462
:1040B00073C042EC57E1BE016F5F7F4FC8010E94A1
:1040C0002B15882309F468C01092F0028091FD023C
:1040D00090E044E050E0BE016F5F7F4F805F9C4FF7
:1040E0000E94E03421E020938202892B09F046C02F
:1040F000E12C8E2D8F296796ECE00C94E83380E05C
:1041000067CFF0907B02FF2009F4A3CFC090790223
:10411000D0907A02DEDA8C199D09059708F499CFC0
:1041200044E050E065EF72E0C8010E94E034892B62
:1041300059F084E0E5EFF2E0D80101900D928A9504
:10414000E1F710927B0286CFF12CFBCFC0907C026E
:10415000D0907D02BEDA8C199D09843F914008F011
:1041600087CF80918202882319F284E0FE01319684
:10417000DF011D928A95E9F710928202E091FD021B
:10418000F0E0E05FFC4F89819A81AB81BC81808344
:104190009183A283B383ADCF8091F0028F3F31F042
:1041A0008F5F8093F0028A3008F490CF92DA909378
:1041B0007D0280937C02D5CFF80180819181A2811C
:1041C000B3818093840290938502A0938602B0937A
:1041D000870264E070E084E892E00E946A078093BE
:1041E00083028090880290908902A0908A02B09009
:1041F0008B0280917E0290917F02A0918002B0910B
:10420000810288169906AA06BB06B1F080927E024A
:1042100090927F02A0928002B09281020E94E706F3
:10422000861A970AA80AB90A8092F1029092F202BD
:10423000A092F302B092F4028BE0ECE8F2E0DE012F
:10424000119601900D928A95E1F780918C028695E6
:104250008695D0908D02C0908E02B0908F02009112
:1042600095021091960210929602112321F110FFEF
:1042700010C029812370982F990F990F292B29831A
:104280009091760420FF1EC091609093760460E0C8
:10429000FEDD11FF06C020E04B2D6C2D8D2D0E9400
:1042A000101212FF03C00023D1F0D6DD13FF03C0AC
:1042B00081E08093470380919702882399F00E94C0
:1042C000A21517CF9E7F909376040E948D07809150
:1042D0004C03816080934C030E949407DACF0E94C4
:1042E0008D07E4CF0E94881504CFB0E0A0E0EBE793
:1042F000F1E20C94CD337C01DC0114968C9188237F
:1043000009F48CC161E0C7010E942414EC01809182
:104310007001882331F1F7011581C032F2E5DF0722
:1043200008F07EC0C11522E5D20708F0C2C0C11551
:1043300030E5D30708F069C0C11580E4D80708F05C
:10434000CCC0C11590E2D90708F0CEC0C83ED10557
:1043500090F5C03ED105A0F180917B0187FD1092C0
:104360007B01D093A501C093A401D7018D919C91AD
:1043700011979093A7018093A601FE013497E5332E
:10438000F10508F0CAC0E357FE4FE49115968C91F1
:1043900020EB811102C02E2FE0EBAEEAB1E090E0FD
:1043A00080E03D913213B3C080579E4FDC015E9692
:1043B000EC93FE01B9C0CE019A9581159F4160F240
:1043C000F7018481882341F2C730FEE7DF0709F453
:1043D0003EC0CE018D5C91094397C8F10E94A708A9
:1043E0008111BACF112359F08091710120914D03B1
:1043F000211181C0882309F487C00E94B40C69D9B7
:104400009093780180937701A7CFCE0125E0969510
:1044100087952A95E1F78F7099272091710113C034
:10442000C038B2E5DB07B8F4C036E2E5DE0708F0D5
:1044300040C0C034F2E5DF0708F08ECF2091710153
:10444000CE018F7199272817190609F085CF812F82
:104450000E94900881CFC03E22E5D20718F5C03CEB
:1044600032E5D30708F478CF20917101CE018F7126
:1044700099272817190609F06FCF812F0E949008FD
:10448000D70116968C911697807F803509F064CFFE
:1044900015968C918823D9F080917B01815080936F
:1044A0007B015ACFCE01805E9245809708F454CFAD
:1044B00087CF20917101CE018F7199272817190696
:1044C00009F04ACF111148CF0E949E0845CF0E94A3
:1044D0009E0880917B018F5FE2CFF7018681807F0C
:1044E00019F48D2F992797CFD70116968C91807F3D
:1044F00009F432CF65CF30E0082E02C035952795FC
:104500000A94E2F720FF79CF0E94761476CF0196C5
:104510008630910509F045CF4CCFCE019A95FE012A
:1045200081159F4108F4FF27D70115968C91E93D2D
:10453000F105D8F4E13DF105E0F0682F8E2F0E94DF
:10454000340DD70115969C91992309F4FBC08091F5
:1045500027048272FE01E052F847EB30F10508F0C3
:10456000F1C0E75AFA4C0C944734E730BEE7FB073A
:1045700051F0882331F3FE57E031F10510F7EC5983
:10458000FA4C0C9447340E94CB0ADBCF80E00E94A7
:10459000C1181092A20180E00E94D10C8AE892E03A
:1045A0000E94C30C2BC02091A20130917001809118
:1045B00072019091730162E370E00E94B2338FEF59
:1045C000860F9091A3016091290340919B0120FBEC
:1045D00047F9522F56955370330F330F532B282F13
:1045E000220F220F220F522B660F660F6C739370EF
:1045F000692B70E08FE090E00E942A3580914303A0
:10460000877061F0D70115968C91882339F08091DD
:10461000010382FF03C082E00E948114CDB7DEB7A0
:10462000EBE00C94E93381E00E94DB18E7CF8FEFD9
:10463000FBCF8AE0F9CF86EFF7CF90919D0181E023
:1046400089270E94CB0ADACF8091A201811101C093
:1046500084E08F5F18160CF081E0883008F087E066
:104660008093A201CBCF8091A201811101C084E08F
:104670008150F0CF81E08093A301C0CF1092A301BD
:10468000BDCF82E0F8CF9091700181E089270E9430
:10469000D10CB4CF8091720190917301C296893E82
:1046A000E3E09E0708F47CCF88EE93E079CF809119
:1046B000720190917301C2978436910508F070CF12
:1046C00084E690E06DCF8091760480FF03C00E9465
:1046D000B01294CF81608093760461E086958695D0
:1046E000D6DB8CCF882321F00DDC88CF8823E1F343
:1046F00014DC84CF882329F00E948C127FCF88237A
:10470000D9F30E9494127ACF882329F00E9476125E
:1047100075CF8823D9F30E94811270CF882329F0A6
:104720000E9460126BCF8823D9F30E946B1266CF70
:10473000882329F00E949C1261CF8823D9F30E941C
:10474000A6125CCF9E01205E324520323105A8F4CE
:10475000911127C0CF7181E090E0FC0102C0EE0F03
:10476000FF1FCA95E2F7EF016E2F83E090E00E94F1
:1047700018358C2F0E94B80A41CF9923D1F180E0DF
:10478000CB35FCE7DF0751F1CC352CE7D207F9F048
:1047900081E0CA353CE7D30709F1C1308CE7D8077F
:1047A00031F1C330ACE7DA07E1F0C115DC4709F5B8
:1047B000109227040E944B0EEFEFF4E32CE0E1503F
:1047C000F0402040E1F700C000000E94D606809132
:1047D000010382FB882780F991E089270E94D51583
:1047E0000DCF6FEF7FEF90E080E00E9432350E94A6
:1047F0006415F70100811181992309F44CC0C801A7
:104800000E94C713C82F682FC8010E94820AB801EE
:104810008C2F0E94BB130E945109D82FC92F982EAC
:10482000D7011596BC9015971696AC90A2948FE080
:10483000A82280914303877001F10B2DBB20F1F07A
:10484000892F807F803469F080E28D0F8830A8F056
:10485000892F807E803229F4B1E0BD1770F4AA2040
:1048600061F08091010382FF08C082E00E94811400
:1048700080914303877001E009F000E08C2F82955E
:104880008F70C82ED12C8C3008F065C0F601EC5822
:10489000FA4C0C944734C8010E944E0AC82FB7CF77
:1048A0001C2F1F70C07F11F01295107F8D2FBB2021
:1048B000B9F0112369F090E29D0F983010F0D111FA
:1048C00009C080912704182B109327040E940D0E15
:1048D0008D2F3FC080916E02182B10936E02F6CF81
:1048E0000E9430111123B9F1D05ED83010F0911030
:1048F00004C0812F0E943C0A06C0109580916E0270
:10490000182310936E020E940D0E25C01C2F1F70DD
:10491000C07FC03211F01295107F992051F0E1E074
:104920009E1609F45CC0BB2009F468C0AA2061F19E
:10493000CFCF8091010382FD23C0BB20D9F011238A
:1049400039F080912704182B109327040E940D0E34
:1049500080E00E946711B8E0CB1AD108E4E0CE16DF
:10496000D10408F076C10E94570760E0C7010E9499
:10497000241454CE80E00E943011112361F3B9CF8A
:10498000BB2099F0A11004C0812F0E942711E3CF12
:10499000F1E0AF12E0CF80916D02912F98231917AB
:1049A000D1F2182B10936D02D6CFA110D4CF812F46
:1049B0000E94221190916D02812F892329F0812F6D
:1049C0008095892380936D0280915302912F9823C3
:1049D00009F4C1CF1095182310935302BCCFBB200C
:1049E00029F025E02A1508F4B6CFCECF34E03A15E9
:1049F00008F4B1CF812F0E942211ADCFAA20D1F3AC
:104A0000D93369F48FEF97EEA3E081509040A04036
:104A1000E1F700C000008D2F0E9430119CCFEFE124
:104A2000FEE43197F1F7F5CF8C2F8695869583704C
:104A300069F0813009F08FCF8D2F9C2F9370B110CA
:104A400002C080E090E00E94070785CF8D2F9C2F49
:104A50009370B11002C080E090E00E942F077BCFDE
:104A60006B2D8D2F0E94340D76CF8C2F837091F596
:104A7000B11071CF4D2F429546954770440F440FAA
:104A80008D2F8F70042E01C0880F0A94EAF72D2F06
:104A90002071D4FF07C02FE030E001C0220F4A95FB
:104AA000EAF72095C695C695C370C23071F0C33041
:104AB00051F03091FF02C13029F0822B83230E94F4
:104AC000B80A49CF832B822BFACF282B8091FF0283
:104AD0008227F5CF8695BB2011F08C2F817088231B
:104AE00009F439CF4D2F429546954770440F440F36
:104AF0008D2F8F70042E01C0880F0A94EAF72D2F96
:104B00002071D4FF07C02FE030E001C0220F4A958A
:104B1000EAF72095C695C695C370C23071F0C330D0
:104B200051F030914D03C13029F0822B83230E9434
:104B3000641411CF832B822BFACF282B80914D0345
:104B40008227F5CFCF70BB2029F08C2F0E949714BD
:104B50008D2F1BCF8D2F0E9422118C2F0E94761437
:104B6000FACE8D2FF2EF9F16A9F1F91570F020EF14
:104B70009216D1F031EF931691F0BB2009F455C095
:104B8000A110A6CE8C2F8F7129C093EF991649F1F1
:104B9000A4EF9A12F2CF9091010392FD2DC08C2FB9
:104BA0008F71BB20D9F21AC0BB2079F0B4E0BA15DE
:104BB00008F4D1CECF7181E090E001C0880FCA9592
:104BC000EAF790914D038927B2CFE5E0EA1508F4A2
:104BD000C2CEF0CF8C2F8F71B110C0CF0E9497142E
:104BE000BACE80E0BB2009F4A2CFCF7181E001C032
:104BF000880FCA95EAF79BCFBB2061F08C2F8F718D
:104C000092FFECCFF8E08F9F900111242360209356
:104C10004303E4CF81E00E94811421E02A1508F0CB
:104C20009ACE82E00E94811496CEAA2079F0893330
:104C300041F43FEF87EE93E0315080409040E1F740
:104C4000E8CEAFE1BEE41197F1F7E3CE8C2F8F7180
:104C500085CF002309F489CE8091430380FD85CE62
:104C6000D70115961C928695869586950E94971475
:104C7000C7013BDB809143038695869586950E940C
:104C8000761473CEB0E0A0E0E8E4F6E20C94D13301
:104C900080916C02807F09F050C080916B02882364
:104CA00009F44BC0E091750487E0D82E80913C0454
:104CB0008E1709F442C00E2F10E0ED9DF001112473
:104CC000E35CFB4F84818823E9F1D09EE001D19E13
:104CD000D00D1124FE01E35CFB4F918180916702AE
:104CE000981330C090818091660298132BC0858103
:104CF000811128C0E280F38080916802909169025E
:104D0000E81AF90A60E086E692E00E9424140E9404
:104D10008818E816F906B0F480916C028F708061F3
:104D200080936C02CD5BDB4F88818F7080618883BC
:104D300086E692E0DADA0E94440ACDB7DEB7E7E011
:104D40000C94ED33F8013196E770B0CFA6E1B0E0F6
:104D5000ECEAF6E20C94C9338C0186E0F801DE013E
:104D6000519601900D928A95E1F7D8011496FC9026
:104D700014971596EC9086E6882E82E0982E809106
:104D80006A02811128C0F11003C0FF24F3941BC0F4
:104D9000EE20F1F0C8010E94FE13F82E8823C1F026
:104DA00087E0F801A6E6B2E001900D928A95E1F75E
:104DB00080916A02813031F480916602909167029D
:104DC0000E94F1135FDF8F2D6696EFE00C94E533C0
:104DD000C8018BDADACFF801A0805180C280D3807D
:104DE00060E086E692E00E942414B0906B0280910D
:104DF000680290916902BB2009F4C6C03601681AA6
:104E0000790A60E086E692E00E9424140E948818E5
:104E10006816790608F099C0FF2009F4B6CF809192
:104E20006C02382F307F20916702D80111969C9137
:104E3000119731114CC0FE2C291313C0209166022A
:104E40009C9129130EC0E1101CC18F70806180936A
:104E50006C0286E692E049DA80916C02F801868362
:104E6000B2CFE1100EC1652D8A2D0E946105882305
:104E700009F4E6C0CE0101960E940D188B8182FFD5
:104E8000DFC086E692E031DA87E0E6E6F2E0DF01B5
:104E90001D928A95E9F7F12C96CF2A5F2F70223068
:104EA00070F0C80122DAEB2CEAC0992319F08823AC
:104EB00009F4E5C0805E883008F4E1C0F2CF803F9D
:104EC00008F4DDC0815F833008F4D9C0EACF29132C
:104ED00015C0209166029C91291310C0E1100EC0EC
:104EE00016968C93C80101DA87E0F801A6E6B2E0D5
:104EF00001900D928A95E1F7FB2C65CFC8010E94C5
:104F0000FE13882309F464CFEE2009F461CF809169
:104F10006C02803280F020916602309167023A8301
:104F20002983DC82CB8290916A029D831E828F83CB
:104F3000CE010196DAD987E0F801A6E6B2E0019049
:104F40000D928A95E1F79EDE20CF80916C02982F1A
:104F5000907F09F496CFFF2009F417CF20916702C4
:104F6000F80191812913CACF2091660290812913FB
:104F7000C5CFE110C3CF8683C801B7D987E0D4017C
:104F80001D928A95E9F7B8CF5601A81AB90A60E0D0
:104F900086E692E00E9424140E948818A816B9069A
:104FA00008F048C0FF2009F4F0CEFE2CEE2009F4F2
:104FB0000FCF90916702F801818198132EC09091D4
:104FC00066028081981329C08091680290916902DD
:104FD000C81AD90AF8ECCF16D104B0F480916C024B
:104FE00080FD12C0982F907F79F0D80116968C938F
:104FF0001697903F39F0982F907F905F8F70892B94
:1050000016968C93C80171D987E0F801A6E6B2E044
:1050100001900D928A95E1F7D6CEC8010E94FE1349
:10502000811189CF80916C02816080936C02C801EC
:105030005CD9C9CE87E0F40111928A95E9F72BCFAC
:10504000652D8A2D0E946105E82E8111BCCEA98AAA
:105050005A8A89899A890E94F113292F22952F70E3
:10506000903408F01ACF9F70223008F41ECF992395
:1050700009F420CFF8019681907F09F01BCFFE2C18
:10508000A2CE80916C02816080936C0204CFABE170
:10509000B0E0EDE4F8E20C94D5334E8B5F8B688F73
:1050A000798F8A8F9B8F911110926E021D8A86E0F4
:1050B000FE017696DE011F9601900D928A95E1F72A
:1050C0008B89882351F061E0CE010F960E94241451
:1050D00061E0CE010F960E94241487E0FE013F9606
:1050E000DE01189601900D928A95E1F7CE0108969F
:1050F0002DDE81110CC087E0FE013896DE0111968D
:1051000001900D928A95E1F74C8541110BC017E093
:105110008091750490913C04891334C06B96E3E050
:105120000C94F13320913C0430E0C9010196877062
:1051300099275091750458171906A1F04D8397E0EF
:10514000929FD001939FB00D1124A35CBB4FFE0131
:10515000319601900D929A95E1F780933C040E945C
:10516000440AD5CF109227040E944B0E10923C04A3
:105170001092750487E0E6E6F2E0DF011D928A9561
:10518000E9F7C5CF819FC0011124835C9B4FDEDD11
:10519000882321F28091750490E001968770992709
:1051A00080937504B5CFA6E0B0E0E9EDF8E20C9489
:1051B000D4330E94691B8C01809177029091780210
:1051C0008017910779F019821A820E94691B682F53
:1051D00049815A81792F80E090E059DF109378025D
:1051E000009377022696E4E00C94F0331F921FB6EA
:1051F0001F9211248F939F93AF93BF9380912104AB
:10520000811113C08091220490912304A091240461
:10521000B09125044196A11DB11D80932204909365
:105220002304A0932404B0932504BF91AF919F91D0
:105230008F911F901FBE1F901895CF93DF93EC01A5
:105240000E94691B8C1B9D0BDF91CF910895CDB7F8
:10525000DEB7C855D1090FB6F894DEBF0FBECDBF7B
:1052600085B7806885BF85B7806885BF84B7877F2D
:1052700084BF0FB6F894A8958091600088618093F0
:105280006000109260000FBE80E890E00FB6F894C6
:1052900080936100909361000FBE81E080938A014A
:1052A0008AED98E090932702809326020E947F0562
:1052B0000E9420068091E20084608093E20078944E
:1052C000809132048823A1F01091E9001F70909121
:1052D000EC00892F817090FD80E8182B1092E90076
:1052E0008091E80083FD0E945B0E1F701093E9001F
:1052F00082E084BD93E095BD9AEF97BD80936E00E8
:105300001092F1021092F2021092F3021092F40243
:1053100088EC90E02091E300122F111F1127111F3C
:1053200027FD0CC0AFE3BCE91197F1F700C0000006
:10533000019781F70E947F05109232041093800438
:1053400025982D9A869A8E98B5E0BA95F1F70000C7
:1053500083B185FB882780F986988E9AE0EAEA95E2
:10536000F1F78093810480930001882309F45CC2E3
:1053700010928B018DE180938C01809180048111CA
:105380000E945E32809100018091000194E08111C1
:1053900090E09093FE0284E0891B8093FD0284EFED
:1053A0000E94070985EF0E94070986EF0E940709FE
:1053B00087EF0E94070903EF11E069EFE62E61E035
:1053C000F62ED8018D918D018F3F11F00E940709B3
:1053D000E016F106B1F788E0E0E1F3E0DF01082F25
:1053E0001D920A95E9F7E5EFF2E0DF011D928A953B
:1053F000E9F790E080E00E941335833E9E4F59F11B
:1054000063EE7EEF90E080E00E94323560E082E063
:1054100090E00E94183581E08093FF0261E083E014
:1054200090E00E94183560E074E184E090E00E9412
:1054300032350E94C0120E94FA1240E050E0BA01D8
:105440008FE090E00E942A3540E050E0BA0183E10D
:1054500090E00E942A3582E090E00E940635809319
:10546000030384E090E00E9413359093010380933E
:10547000000383E090E00E9406350E94B80A809104
:105480004D030E94BB0A182F0E944E14982F81E0F2
:10549000191380E00E94CB0A80918004882309F4CC
:1054A000C8C180E080936E0380E880938204A6D612
:1054B0006BE070E089ED91E00E947B15882309F490
:1054C00045C080916E0365E070E081FDB4C184ED5C
:1054D00091E00E947B158823C9F16DE070E082ECB9
:1054E00091E00E947B15882389F10E94E70665966A
:1054F0006CAF7DAF8EAF9FAF6597DC01CB01805A5B
:105500009541AF4FBF4F8093700390937103A09369
:105510007203B0937303E5E8F4E080E092E0DF010A
:105520008C011D9201501040E1F7F0938C06E0933E
:105530008B068FEF9FEF909384048093830481E028
:10554000809377038093740310926F03809102031A
:1055500081113AC086E794E00E94321380914C0397
:10556000836080934C03809176048C7F71F40E9459
:10557000C01286E794E00E94321380917604982F3F
:105580009C7F83708460992331F08091760484320B
:1055900020F083708062809376048091790487394B
:1055A00018F086E9809379040E948D070E948B078A
:1055B0008091760480FF05C060E0869586950E9404
:1055C000471F81E08093020380918004811101C014
:1055D00078D70E94E019882309F430C183E08093D2
:1055E0003B038091800481112EC081EC98E0909360
:1055F000500180934F0129E130E030934B0120931B
:105600004A0189E390E090934E0180934D0146EC6E
:1056100058E0509358014093570130935301209321
:105620005201909356018093550148ED58E15093F3
:10563000600140935F0130935B0120935A01909386
:105640005E0180935D0190E080E00E941335833E0F
:105650009E4FC9F58FE090E00E940E35F62E172F71
:10566000082F862F8F770E94C118FF1CFF24FF1C74
:10567000612F6370660FF62AF092A20112FB882751
:1056800080F90E94D10C812F887F09F4D9C016952A
:1056900016951695212F30E02F5F3F4F42E3429F32
:1056A000C001439F900D11240E94C30C802F837072
:1056B0008093A301802F869586958F708B3008F09C
:1056C0008AE0809329030E942C05CE0101960E9456
:1056D0000D188C8190917101891721F080937101CF
:1056E0000E94B40C8D819E810E94C30C8B8186FB2D
:1056F000882780F991E089270E94D10C8F818093BF
:105700006E0181E691E090937F0480937E0480E1B6
:1057100093E058E0252E280E2E0123E0420E511C66
:10572000EE24E394FF24F39477247394809132045D
:1057300010E400E142E1D42E853009F4BCC00E949F
:10574000971F04E013E030E1C32E33E0D32E89EF3E
:1057500091E063969FAF8EAF63979C01B601F8010D
:105760009191DB018D91BD01D9014D919D01842362
:105770004CE053E04E175F0709F4A9C0981781F376
:105780003090800489EF91E067969FAF8EAF679766
:10579000A0E1B3E06996BFAFAEAF6997A12C69965F
:1057A000EEADFFAD6997B1906996FFAFEEAF699727
:1057B0006796AEADBFAD67978D916796BFAFAEAF41
:1057C0006797B822F80161908F016B1421F16B2467
:1057D000912C88248394862D8821A9F0332099F078
:1057E0009982AA820E94691B9C838B837D8291E0AF
:1057F0008B2D882109F490E09E8349815A816B8129
:105800007C818D8144DC9394880CF6E09F12E3CF79
:10581000F8013197B082A39428E0A212C0CF0E9471
:1058200020096624639457C08DE180938B018AE13F
:10583000A2CD82E037CE8FEC91E04BCE81E0CFCE8F
:105840008AE892E031CF80913204843039F10E94AD
:1058500088150E94A21D1092210448E150E00FB665
:10586000F894A895409360000FBE1093600083B732
:10587000817F846083BF83B7816083BF789488957C
:1058800083B78E7F83BF0FB6F894A8958091600090
:10589000886180936000109260000FBE0E94971F85
:1058A000A9EFB1E0E0E1F3E081919D91892309F056
:1058B00035C32E12F9CF80913204853009F4C3CF5D
:1058C000109227040E944B0E0E94570738CF98135E
:1058D00057CF69DC612C80914B03882309F464C0A5
:1058E00080914A03E0917604E695E695E81BE09303
:1058F0004603823009F063C0F0E0E951FE4FE491C5
:105900000E2F10E02DE7A22E28E0B22E8091470343
:10591000882361F0109247030E94231F9093450350
:105920008093440310924903109248030E94231F5E
:105930009C01E0914403F09145038E1B9F0B8F3F28
:105940009F4790F580910E038823B1F010920E03CB
:1059500080910C0390910D03281B390B2F3F3F477B
:1059600058F4805D9A4890930D0380930C038091C6
:105970004C03886080934C038090480390904903C7
:105980000E0F1F1F109345030093440384E493E01C
:10599000F50109958091480390914903892B21F4E1
:1059A000892811F0F0920E030E94A21D8823D9F0DD
:1059B0000E9420090E94751B0E94A21518C0863003
:1059C00059F4F0E0EC51FE4FE4910E2F10E09EE60A
:1059D000A92E98E0B92E9ACF00ED17E084EDA82EFD
:1059E00086E0B82E93CF0E94751B6110E5CF0E9410
:1059F000570790910F03891721F080930F030E949E
:105A0000E70680913204843009F4B9C080918004A3
:105A1000882309F48BCE0E94E706462F572FBC013E
:105A200080913003811146C080912C0390912D0309
:105A3000A0912E03B0912F038A019B01081B190B23
:105A40002A0B3B0BD901C801843F9140A105B10548
:105A500088F140932C0350932D0360932E03709391
:105A60002F0380912A0390912B03019690932B038F
:105A700080932A0319828E010F5F1F4F21E050E0AF
:105A800040E060E089E00E943516811106C08091F7
:105A90002A0390912B030A976CF081E080933003E6
:105AA000809391019981911101C080E080939201CE
:105AB0000E942C0580919201882309F431CE0E9426
:105AC000E7066B017C018091310390913203A09134
:105AD0003303B0913403A7019601281B390B4A0BFD
