:100000000AC4000025C4000023C400000C949430EE
:100010001FC400001DC400001BC4000019C4000060
:1000200017C4000015C400000C94D3120C94EE16F3
:100030000C94E9260DC400000BC4000009C40000A4
:1000400007C4000005C4000003C4000001C4000090
:10005000FFC300000C94BB13FBC30000F9C30000F6
:10006000F7C30000F5C30000F3C30000F1C30000B4
:10007000EFC30000EDC30000EBC30000E9C30000C4
:10008000E7C30000E5C30000E3C30000E1C30000D4
:10009000DFC30000DDC30000DBC30000D9C30000E4
:1000A000D7C30000D5C30000D3C300000501090277
:1000B000A10185020901A1000509190129081500FE
:1000C0002501950875018102050109300931158165
:1000D000257F95027508810609381581257F9501D0
:1000E00075088106050C0A38021581257F95017572
:1000F000088106C0C005010980A101850319012AF4
:10010000B700150126B700950175108100C0050CD8
:100110000901A101850419012AA002150126A002E6
:10012000950175108100C00660FF0961A101096297
:10013000150026FF00952075088102096315002629
:10014000FF00952075089102C005010906A101056F
:100150000719E029E7150025019508750181029529
:1001600001750881010507190029FF150026FF0008
:100170009506750881000508190129051500250156
:10018000950575019102950175039101C061626346
:100190006465666768696A6B6C6D6E6F70717273A7
:1001A0007475767778797A31323334353637383931
:1001B00030524542545F2D3D5B5D5C233B27602CF4
:1001C0002E2F00DA0281FFD9F1DB20A4A62EAF008A
:1001D000A0C0D30000A1C8D30000AED580A81F40A6
:1001E0008D14200000AF00AE202000BABB004B658C
:1001F0007920B10020C0C100BEBF00484F00565456
:10020000003030200020202020B1BCBD0042616CB5
:100210006CB100B4B500B2B300C2C3004CB6B77243
:10022000B100202000290014001A00080015001752
:10023000002B0004001600070009000A00E1001D61
:10024000001B000600190005000000E200E3009119
:10025000212C4190434C00130012000C0018001C8C
:1002600000240233000F000E000D000B0087003841
:1002700000370036001000110000004600E6009133
:100280003128422A000F7E3A003B003C003D003EF0
:10029000000D7E01000100520028004C000E7E017E
:1002A00000500051004F002A000000010001000131
:1002B0000001000100440043004200410040003FB3
:1002C000004500D300D2005200D1004B00010001D4
:1002D000004F00510050004E0000000100010001DD
:1002E0000001000100010034022400250026002541
:1002F0000201003302210022002300300001002D02
:10030000021E001F002000300200002700370001FD
:100310000001000100010021022F0023021E02261D
:10032000021F02340020022E022D00320089023802
:10033000022F022E0087023202000001000100019C
:100340000001004C0001000A7E0B7E0C7E010001C2
:100350000001000100010001000100087E01000110
:1003600000010001000100097E0000007C007E0108
:10037000000100010001000F7E0D7E0E7E010001D4
:1003800000010001000100010001000100017E01E7
:1003900000047E027E037E057E0000007C007E015C
:1003A000000100010009025B00030100A0FA09043A
:1003B00000000103010100092111010F0122440085
:1003C0000705810308000109040100020300000081
:1003D00009211101000122220007058203200001EA
:1003E00007050303200001090402000103000000C7
:1003F000092111010001227B00070584032000016F
:100400001201000200000008575900040001010217
:10041000000114034B0065007900620061006C006C
:100420006C00340034000000100359006F007700A6
:100430006B00650065007300000004030904000000
:100440000000000000002F0000000007000700006F
:10045000123F123F1200242A7F2A120036091E245E
:100460001B00182629122800000007000000001EAB
:10047000214000000040211E000014083E08140026
:1004800008083E080800000030700000080808084E
:10049000080000003030000020100C0201001E296E
:1004A00025231E0000223F2000002231292926009A
:1004B000122125251A001814123F10001725252592
:1004C00018001E25252518000131090503001A25ED
:1004D00025251A00062929291E00000033330000B3
:1004E00000003373000008141422220014141414A2
:1004F00014002222141408000201290502003E59AA
:10050000555D3E003816111638003F2525251A0086
:100510001E21212112003F2121211E003F252525DA
:1005200021003F09090901001E2121291A003F0469
:1005300004043F0000213F210000102020201F0064
:100540003F040C1221003F20202020003F02040223
:100550003F003F020C103F001E2121211E003F09D9
:10056000090906001E2129112E003F09091926003C
:1005700012252529120001013F0101001F20202022
:100580001F000718201807000F300C300F00211231
:100590000C12210003043804030031292523210013
:1005A000007F4141000001020C1020000041417F0A
:1005B00000000402010204004040404040000001ED
:1005C00003040000102A2A2A3C003F2422221C0097
:1005D0001C22222224001C2222243F001C2A2A2A18
:1005E0000C0000043E0505000C5252543E003F082A
:1005F0000404380000003D0000002040403D0000A1
:100600003F080814220000013F2000003E023C0287
:100610003C003E0402023C001C2222221C007E14EC
:1006200022221C001C2222147E003E04020204002E
:10063000242A2A2A120000021F2200001E20201055
:100640003E000618201806000E300C300E00221452
:10065000081422000E5050483E0022322A26220062
:1006600008087741410000007F0000004141770801
:100670000800180408100C00000000000000000032
:1006800000000000000000000000C0F0F88C86C6EA
:10069000E7FFFFFFFFFFFFFEFCFCF8E0800000002B
:1006A000F0F0F00000C0E0F070700000000000000A
:1006B000000000000000000000000000000000003A
:1006C000F8F8F80000000000000000000000000042
:1006D000000000000000F8F8F80000F8F8F800004A
:1006E00000000080E07078686C64C7C7C7C7C7C7E0
:1006F000E73F1F0F3FFFFFFFFFFFFF3F0F0000001F
:10070000FFFFFF1E3FFFF3E1800000F8FCFE3636DE
:10071000363EBCB8000E3EFEF080F0FE3E0E0000FD
:10072000FFFFFF060606FEFEFC7000E6F6F6363614
:10073000FEFEFC000000FFFFFF0000FFFFFF0000C7
:1007400000003C7F6360E0C0C0C0C0C0C0C0C0FF4C
:10075000FFC06030180F0303030100000000000019
:100760000303030000000303030300010303030367
:1007700003030301007070393F1F070100000000F0
:100780000103030303030303010000010303030345
:100790000303010000000303030000030303001030
:1007A000101000000000550000003E635D5D637F97
:1007B000417B77413E00001C22221C003E0A003E85
:1007C0000A00322A3C0026281E001C2A2C000000A9
:1007D0003F09360000001E212100000000003F08F4
:1007E00037001E2121001E2121003F090600213F64
:1007F0002100222519001E2121003F0936003F213A
:100800001E00213F21000F300F003E093E003F0631
:100810003F003F20200011241FBECFEFDAE0DEBFF3
:10082000CDBF12E0A0E0B1E0E2E7F6E602C005903D
:100830000D92AA30B107D9F725E0AAE0B2E001C0D5
:100840001D92A43CB207E1F70E941A270C94FD32D6
:10085000D7CBE091B503F091B603309739F002841D
:10086000F385E02D309711F060E209950895982FF7
:10087000E091B40340917B0357E0E41302C080E0B1
:1008800008952E2F30E05E9FF0011124E458FC4FB4
:100890008181681306C08081981303C0858181110E
:1008A000EFCFF9013196E770E8CFE8EDF0E0808115
:1008B0008E7F80831092E2001092DA001092E100A5
:1008C000A0EEB0E08C9181608C9380818F778083E3
:1008D00019BCA7EDB0E08C918E7F8C9380818F7EC8
:1008E00080831092650308952091E4003091E50023
:1008F00095E6A9012091EC00822F817020FF06C0AF
:100900008091E80080FF06C080E008952091E80013
:1009100022FD1AC080917103882389F0853089F007
:100920008091EB0085FD0FC02091E4003091E5003F
:1009300042175307F9F29150E1F684E0089582E0FE
:10094000089583E0089581E008958091730387FFFF
:1009500013C08091E80082FF06C08091E8008B7789
:100960008093E80004C0809171038111F2CF089553
:10097000809171038823D9F38091E80080FFF8CF3C
:100980008091E8008E77ECCF982F9093E900242F88
:10099000762F50E0891731F07091EC002091ED0036
:1009A0005091F00021FD07C09F5F973071F7809351
:1009B000E90081E008953091EB003E7F3093EB0039
:1009C0003091ED003D7F3093ED003091EB003160D0
:1009D0003093EB007093EC002093ED005093F00007
:1009E0002091EE0027FDE0CF80E00895B0E0A0E088
:1009F000ECEFF4E00C94C331C8EDD0E088818F7E39
:100A00008883E7EDF0E080818160808384E082BFAD
:100A100081E08093650388818E7F888302EE10E0F9
:100A2000F80110821092DA0081EEC82ED12CF60166
:100A3000108288818F778883888180688883888105
:100A40008F7D888319BC10927103109272031092EB
:100A5000700310926F0390EEE92EF12CF701808164
:100A60008B7F808388818160888342E060E080E0C2
:100A70008BDFF60180818E7F8083F8018081816029
:100A80008083808188608083F70180818E7F80836E
:100A9000888180618883CDB7DEB7E8E00C94DF31D0
:100AA000FC01CB012091790330917A032617370797
:100AB00090F0009729F42091E8002E772093E80029
:100AC00040E0009751F4411108C08091E80082FF96
:100AD00031C080E00895C901F3CF20917103222332
:100AE000A9F12530A9F12091E80023FD2DC0209126
:100AF000E80022FDEACF2091E80020FFE2CF30910C
:100B0000F3002091F200009719F02830310558F0D9
:100B100041E02830310509F040E02091E8002E77CF
:100B20002093E800CECF41914093F10001972F5FD1
:100B30003F4FE9CF80917103882341F0853041F028
:100B40008091E80083FFC1CF81E0089582E008959D
:100B500083E00895089587E797E7909301088093CD
:100B6000000888E19AE00FB6F894A8958093600099
:100B70000FBE90936000FFCFA4E0B0E0E2ECF5E0A0
:100B80000C94C9318FB7F8942091610330916203BE
:100B9000409163035091640329833A834B835C83C0
:100BA0008FBF69817A818B819C812496E2E00C94CD
:100BB000E5318091A3010895DC01FB0111969C9120
:100BC00011978181981322C012968C9112978823D5
:100BD00019F0928189131AC013968C911397882368
:100BE00019F09381891312C015968C91159788235B
:100BF00019F0958189130AC014969C91992321F0CC
:100C000081E02481291303C080E001C081E081706C
:100C10000895A3E0B0E0EFE0F6E00C94C9319C0148
:100C200080915E0390915F0382179307B1F0309338
:100C30005F0320935E03E091B503F091B603309714
:100C400061F00084F185E02D309739F084E08983EC
:100C50003B832A83CE01019609952396E2E00C940A
:100C6000E531A3E0B0E0E7E3F6E00C94C9319C0184
:100C700080915C0390915D0382179307B1F03093EC
:100C80005D0320935C03E091B503F091B6033097C8
:100C900061F00084F185E02D309739F083E089839D
:100CA0003B832A83CE01019609952396E2E00C94BA
:100CB000E531DC01E091B503F091B603309759F0CE
:100CC00086819781892B39F082E08C930680F781A9
:100CD000E02DCD010995089580915A03882369F08C
:100CE000E091B503F091B603309739F00190F081AF
:100CF000E02D309711F00995089580E008958091D6
:100D00004F0380FD16C081FD16C082FD16C0809184
:100D10004E038823A1F0883280F428E0829FC0012E
:100D2000112468E270E00E940B32862F672B39F0A5
:100D3000089582E0089584E0089588E0089581E0B0
:100D4000089580914F0380FD14C081FD14C082FD81
:100D500016C080914D03882381F08E3180F420E508
:100D6000829FC00111246EE170E00E940B32862F39
:100D7000089584E1089588E2089588E0089580E563
:100D80000895282F35EB2303C001112497FF04C0D9
:100D900080589109892F089580589F4FFBCFFC01FF
:100DA000680F791F8FEF91E32191822728E030E0CF
:100DB00087FF09C0880F892721503109C9F7E61735
:100DC000F70791F70895880FF7CF90919601882340
:100DD00041F09F5F909396011092930110929201BF
:100DE00008959150F7CFEBE8F1E0828591E08927F3
:100DF000828710861782089580919401811114C012
:100E000080919601811110C08091950181110CC0D3
:100E10009091210396959695969581E020918C016D
:100E2000921380E08170089581E0FCCF809166018B
:100E3000F90180830895CF93DF93E6E6F1E08381A3
:100E40009481A581B681E90188839983AA83BB83B4
:100E50001482138216821582DF91CF91089580E06B
:100E6000089563E070E088E892E099DF909187024E
:100E7000891318C0E0918802EB30A4F488E0E802FE
:100E8000F0011124EF5FFE4F0680F781E02D3097CF
:100E900049F02BEA32E040918A026BE872E08091DF
:100EA000890209950895E1E0F1E0ADE7B2E01C9612
:100EB0008C911C9780A71D968C9183AF0895F89410
:100EC000E82FE295EF70F0E041A18F7021E030E073
:100ED000B90102C0660F771F8A95E2F7CB01962F02
:100EE0009095942391A392A1892B82A3789408953D
:100EF000A4E0B0E0EEE7F7E00C94C93180915A032A
:100F0000882369F039DE69837A838B839C836981C6
:100F10007A818B819C812496E2E00C94E5312CDE71
:100F200069837A838B839C838091DC029091DD02BC
:100F3000A091DE02B091DF0229813A814B815C8170
:100F4000280F391F4A1F5B1F29833A834B835C8319
:100F5000DECF811522E5920708F04AC0811530E501
:100F6000930708F0C5C0803E910540F58D3C910582
:100F700008F09AC0883A910580F4853A910508F006
:100F800090C08130910541F09C0124503109213AF3
:100F9000310510F090E080E008959C01285A310955
:100FA0002B313105B8F7885AE82FF0E0EE0FFF1F1C
:100FB000E855FE4F8081918194640895811540E445
:100FC000940798F4811550E2950708F0ABC0883E6D
:100FD000910510F39C013A9521153F41D8F620E088
:100FE000392FA901482BCA0108959F70906A08956E
:100FF000803852E59507B8F5803622E5920708F06B
:101000005CC0803432E59307C8F4803242E594072F
:1010100008F04CC0282F2695269550E2259F900178
:101020001124482F437081E090E002C0880F991F7F
:101030004A95E2F7822B932B9D680895282F2695D9
:101040002695277040E2249F90011124482F437079
:1010500081E090E002C0880F991F4A95E2F7822B49
:10106000932B9C680895803C52E5950760F4282FE7
:101070002F71803A9245B0F5822F90E0982F882703
:10108000846F906A08959C01205C324520323105BE
:1010900008F080CF982F882788279F71806F906AEB
:1010A0000895849790640895906508958F7190E0F5
:1010B000982F8827816F906A0895282F2695269566
:1010C000277050E2259F90011124482F437081E042
:1010D00090E002C0880F991F4A95E2F7822B932B6C
:1010E0009A680895822F90E0982F8827906208953B
:1010F0009C0195E0369527959A95E1F72F7030E0A1
:10110000322F2227482F4F7150E084FF06C084E021
:10111000440F551F8A95E1F75527C901842B952B5C
:10112000906908959F71E2CF982F90958091660302
:1011300089238093660308958091B40390917B0383
:10114000981301C008958F5F8770FACF292F9830C8
:1011500078F5863068F590E036E0239F800D911D8C
:101160001124682F677023E0969587952A95E1F7FB
:10117000FC01EE0FFF1FE80FF91FE25BFD4F50E08F
:1011800040E080E0219130E0062E02C036952795A0
:101190000A94E2F721703327042E01C0220F0A942B
:1011A000EAF7822B4F5F5F4F4330510559F708959F
:1011B00080E00895292F983090F5863080F590E0F2
:1011C00036E0239F800D911D1124282F277041E0C8
:1011D00001C0440F2A95EAF723E0969587952A9552
:1011E000E1F7FC01EE0FFF1FE80FF91FE25BFD4F77
:1011F00090E080E070E05191DF0111979B01082E93
:1012000002C0369527950A94E2F72170219525278B
:10121000242325272C9301968330910561F70895A7
:101220008093EA020895282F92959F70963091F04E
:1012300060F4925F9F70923030F481E0203F81F043
:1012400030F4283E30F080E008959A5FF3CF243FD9
:10125000D1F7089581E0283EE0F3213FA1F7F9CFCF
:101260000895982F82958F7011F0982F84E0292F80
:101270002695269511F08E5F922F969509F08F5F37
:1012800008959C019A9581159F4150F5D901AA278F
:10129000B170F901EE27F270B90166277470A901E7
:1012A0004427587034FF0EC080E1AB2B09F480E076
:1012B000EF2B09F08062672B09F08064452B89F0E1
:1012C0008068089581E0AB2B09F480E0EF2B09F0F2
:1012D0008260672B09F08460452B19F088600895BF
:1012E00080E00895CF93C82F809173018C1749F047
:1012F00043DC609374017093750180937601909341
:101300007701C0937301CF910895CF93C82FA9DFC0
:10131000982F81E0933009F080E0E4DFC09322034E
:10132000CF91089521E030E001C0220F8A95EAF7BD
:101330002095809122038223E8CF9091210380950C
:10134000892380932103282F277061F4891751F096
:101350009091EC0292FF06C0869586958695E2DF15
:1013600010922103089521E030E001C0220F8A95F8
:10137000EAF780912203822BC8CFACE0B0E0E3EC27
:10138000F9E00C94BB316C017B01DC011296ED910C
:10139000FC9113978D919C91222309F450C02091C8
:1013A0007801211101C024E02150330B32E0832E5B
:1013B000912C02C0880C991C2A95E2F7B4010E9476
:1013C0000B329B01D6018D939C93CF01B4010E94F7
:1013D0000B32F601938382836138FFEF7F0704F1BC
:1013E00060387105FCF4D70115966C932138BFEF76
:1013F0003B07D4F020383105CCF4822F8195F701DA
:101400008483442319F06195658324838091790155
:10141000882371F0813081F02C96E0E10C94D73173
:1014200061E8E1CF6FE7DFCF21E8E7CF2FE7E5CF36
:10143000D70115961C92F0CFF7011482EDCF21E071
:101440002427411106C0F195E195F1099195819507
:101450009109022F10E044E0249F90011124D9014A
:10146000A75DBD4F6D917C911197AB0177FF02C0D5
:101470004D5F5F4F55954795559547954F01841A98
:10148000950AA401460F571F4D935C93F901E75D40
:10149000FD4F42815381BA0157FF02C06D5F7F4FFC
:1014A00075956795759567955C01A61AB70AA40EA0
:1014B000B51EBA82A982F901E75DFD4FB382A2820F
:1014C0002081318137FF02C02D5F3F4F3595279531
:1014D0003595279549815A8157FF04C04D5F5F4F6D
:1014E0005A83498369807A80759467947594679468
:1014F0005090070353E0000F111F5A95E1F7552054
:10150000A9F0A90137FF04C044275527421B530BFC
:10151000C30177FE04C088279927861997094817C1
:1015200059070CF4AC0141155105B9F4F801E75E17
:10153000FD4F10821182128213821482158216824C
:101540001782D70112962C93129713966C92F6017C
:1015500011821082138212825FCF075E1D4FDA0163
:101560000E94403269837A838B839C83F801808157
:101570009181A281B38189809A80AB80BC80880EE2
:10158000991EAA1EBB1E89829A82AB82BC829A01D6
:10159000D3010E9440326D837E838F83988784813C
:1015A0009581A681B7812D813E814F815885280F75
:1015B000391F4A1F5B1F2D833E834F835887652D3C
:1015C00070E080E490E00E940B324B01770FAA0894
:1015D000BB0869817A818B819C81A50194010E945D
:1015E0001E3229013A01D8016D937D938D939C930E
:1015F00013976D817E818F819885A50194010E944A
:101600001E3229833A834B835C83A501940169814F
:101610007A818B819C810E94F0314B015C018D812C
:101620009E81AF81B88588199909AA09BB09F8017B
:1016300084839583A683B78321E83FEFF1E84F16B3
:10164000FFEF5F066F067F063CF020E8421651046C
:1016500061047104E4F4920149815A816B817C81B7
:1016600091E8692E77247A9441388FEF58076807FC
:1016700078070CF466CF69807A804038510561059F
:1016800071050CF45ECF8FE7682E712C5ACF2FE7CF
:1016900030E0E2CF8F708A3010F4805D0895895A6F
:1016A000089520E297FF04C09195819591092DE25C
:1016B000EAE0F0E0BF010E940B32805D80931702E8
:1016C0006115710559F42093160220E2209315024A
:1016D00020E22093140284E192E00895CB01BF013F
:1016E0000E940B32805D809316026115710571F3C3
:1016F000CB01BF010E940B32805D80931502E9CFC0
:10170000AC01860F971F57FD07C077FD04C097FFF8
:1017100002C08FEF9FE7089577FFFDCF97FDFBCFC6
:1017200080E090E80895E4E9F1E083E0DF011D92B4
:101730008A95E9F7E0E9F1E084E0DF011D928A95FE
:10174000E9F708959C0180918D0190918E01821797
:10175000930729F030938E0120938D01E4CF0895F3
:1017600090918B01981719F080938B01DCCF08952D
:10177000CF9363E173E08BE193E01EDAC82F8823F7
:1017800019F08BE193E095DA90911C0386E0EBE190
:10179000F3E0DF01282F1D922A95E9F790931C03AF
:1017A000A3E1B3E001900D928A95E1F781E0C111C8
:1017B00003C0911101C080E08170CF910895CF9353
:1017C000DF93282F81E02A3019F02D3029F480E0B2
:1017D00088D0DF91CF9108958091C0059091C10587
:1017E00036E0FC01AAEBB5E001900D923A95E1F7E5
:1017F00030EE320F343A08F458C026E0FC01119262
:101800002A95E9F7C091C005D091C10546E050E0A6
:10181000BE018AEB95E00E9490329E012A5B334024
:10182000892B41F1C90145E0969587954A95E1F7E5
:1018300041E050E0BA0102C0660F771F8A95E2F7D7
:10184000CB016091B8037091B903862B972BB90136
:101850006B5F7F4FE5E076956795EA95E1F702C00B
:10186000440F551F6A95E2F7842B952B9093B9038B
:101870008093B8032A5F3F4F4091B703642F70E015
:10188000C9010E94A531481B463010F4240F311DB8
:10189000211572E0370710F030E020E026543C4F6D
:1018A0003093C1052093C00594CF2052330B46E0FE
:1018B000429FB001439F700D1124625C7B4F46E054
:1018C00050E00E9487329ECFCF93DF93EC01FE0160
:1018D0008491811103C0DF91CF91089570DF21962B
:1018E000F6CFCF93382FE091C005F091C105EA5BA8
:1018F000F3402091B703622F70E0CF010E94A53121
:10190000281B822F332359F066E00E94FF31C82F35
:10191000C15010F4CF91089580E251DFF9CF9F01BB
:10192000280F311D2115324018F080E0F0E0E0E092
:101930008E0F9F2F911D86549C4F9093C1058093CD
:10194000C005E8CF8091660390916802892B909141
:101950006702992389F0892B90E02EE032E0F901AB
:1019600040812F5F3F4F41119F5F42E02431340798
:10197000B1F791111092670280930C0248E050E099
:1019800069E672E08CE092E00E949032892BB9F017
:1019900088E0ECE0F2E0A9E6B2E001900D928A95D1
:1019A000E1F7E091B503F091B603309741F0028082
:1019B000F381E02D309719F08CE092E009950895BD
:1019C000882339F08095909168028923809368027A
:1019D000B9CF0895882331F090916802892B8093C4
:1019E0006802B0CF0895882311F09EDBABCF089535
:1019F000882331F090916603892B80936603A2CFF0
:101A000008950F931F93CF93DF93EC01FC01019096
:101A10000020E9F78F0101501109C017D10728F004
:101A2000DF91CF911F910F9108958991C8DEF5CF75
:101A30000F931F93CF93DF938B01EA019091710372
:101A4000943061F58093E9008FEF9091E800815028
:101A500095FD06C095ED9A95F1F700008111F5CF3F
:101A60008091E80085FF1AC00E947404811111C0A2
:101A70008091E80085FD06C08091E8008E77809314
:101A8000E800F2CFF80181918F018093F100219756
:101A900079F78091E8008E778093E800DF91CF910D
:101AA0001F910F910895BC0143E050E084E0C0CF46
:101AB000BC0146E050E084E0BBCFCF93DF93D82F4A
:101AC000C92F48E050E0682F792F81E0B1DF88E02E
:101AD000ED2FFC2FA7E6B3E001900D928A95E1F778
:101AE000DF91CF910895792F603229F440E250E0E0
:101AF000682F82E09DCF0895B0E0A0E0E2E8FDE02D
:101B00000C94C131F82EE92ED62EC72E8A01809171
:101B1000DB02AA24A394B12C8A3018F48AE0A82E00
:101B2000B12CC1E0D0E06D2D7C2D8F2D9E2DF801C4
:101B30000995811104C02196AC16BD062CF4CDB7D1
:101B4000DEB7EAE00C94DD31CC9F9001CD9F300DE3
:101B5000300D112490E080E045E34A95F1F7000054
:101B6000019682179307C1F7DECF1F93CF93DF93C0
:101B7000962F122F632F8430D8F49830C8F4463053
:101B8000B8F4C42FD0E0CC0FDD1F2CE0929FC00D25
:101B9000D11D112490E6899FC00DD11D1124CE01C5
:101BA00085960E94C832612FCE0186960E94C83267
:101BB000DF91CF911F910895AF92BF92CF92DF92A4
:101BC000FF920F931F93CF93DF93B12CA12C00E0D2
:101BD000650110E012C0FE01259134914F2D612F57
:101BE000802FC3DF2296F39486E0F812F4CF86E0CC
:101BF000C80ED11C1F5F183039F0E601CC0FDD1F75
:101C0000CB5DDD4FF12CE7CF0F5F80E3A80EB11C59
:101C10000430F1F6DF91CF911F910F91FF90DF908B
:101C2000CF90BF90AF9008950F931F93CF93DF9302
:101C3000843030F5683020F5463010F5C42FD0E000
:101C4000CC0FDD1F2CE0629FC00DD11D112430E6AA
:101C5000839FC00DD11D1124CE0185960E94B632FE
:101C6000082F10E0102F0027CE0186960E94B63272
:101C70009801282BC901DF91CF911F910F910895F1
:101C800090E080E0F8CF462F672F783028F4463078
:101C900018F4843008F4C8CF80E090E00895B0E0F4
:101CA000A0E0E5E5FEE00C94C4317C010091220344
:101CB0008091EA02082BC3E0D0E010E0DC2EC801DE
:101CC0000C2E02C0959587950A94E2F780FD09C015
:101CD0002197A0F7D12C8D2DCDB7DEB7E7E00C947E
:101CE000E031B7018C2FCFDF34D9019789F3F3CFDF
:101CF000CF93DF93D82FC92FD2DF6D2F7C2FC3DF77
:101D000028D9DF91CF910895FC018481882321F0A7
:101D100080819181EDDF87CA80E00895A6E0B0E080
:101D2000E4E9FEE00C94C83149835A83392F898154
:101D30009A81332381F0222371F0B1DF182F682FAD
:101D400089819A8137DA69817A81812F9CDF269691
:101D5000E3E00C94E431FAD9182FF5CFFC01262FDB
:101D6000408151816281738184819581D7CFAB019C
:101D700024E630E0BC0188E70E946A2F9C0181E0E4
:101D8000232B09F080E008958091490390914C0342
:101D9000911103C091E089270895882361F062E0E2
:101DA00070E086EE91E0E3DF811103C0809149038A
:101DB00008951092490380914903ECCFA5E0B0E06B
:101DC000E4EEFEE00C94C931809149038D8380914B
:101DD0004C038823E9F00E94BC05DC01CB01805A4A
:101DE0009541AF4FBF4F8093450390934603A09317
:101DF0004703B09348038D81811107C062E070E012
:101E000084EE91E0B4DF811108C0809149038D8395
:101E10008D812596E2E00C94E53181E080934903C1
:101E2000F4CFA8E0B0E0E7E1FFE00C94C931809185
:101E3000360281113FC048E050E060E472E08FEF6D
:101E400092E00E94A6328091FF0290910003C29717
:101E5000873B934068F0E1E0F3E086E0DF011D920C
:101E60008A95E9F788EC90E0909300038093FF0255
:101E7000809102038150873018F081E08093020343
:101E80008091030390910403845691098532934114
:101E900030F08AE892E090930403809303038091EA
:101EA00005038150843618F08AE08093050381E0B1
:101EB0008093360288E0EFEFF2E0DE0111960190A8
:101EC0000D928A95E1F729813A814B815C816D8180
:101ED0007E818F8198852896E2E00C94E531A8E018
:101EE000B0E0E5E7FFE00C94C9319BDF29833A833A
:101EF00089819A819C0122533109273B334010F09C
:101F000088EC90E02896E2E00C94E5319091EC02A8
:101F100092FB222720F9281771F080FB92F9909309
:101F2000EC026091EB027091EC0284E090E00E9480
:101F3000E23282E002CA0895B0E0A0E0E2EAFFE007
:101F40000C94C331FA0169017801C82F880FDD0BA9
:101F50003097B1F0DE0193E0AA0FBB1F9A95E1F72D
:101F6000AF5FBE4F11968D919C91129783589D4FF4
:101F70004C9150E0E417F50708F4AF010E949D3240
:101F8000CE010E943531182F8823D1F0E114F104DD
:101F9000B9F083E0CC0FDD1F8A95E1F7FE01EF5F1A
:101FA000FE4F438150E0E416F50608F4A701CF5F29
:101FB000DE4F6C817D8163587D4FC6010E949D324A
:101FC000812FCDB7DEB7E8E00C94DF31A5E0B0E0BB
:101FD000ECEEFFE00C94C1318D83E62E5A01F22E17
:101FE00068018091DB028A3028F080E02596EAE0E3
:101FF0000C94DD318D818830C4F319828A836B8320
:102000002C8363E070E0CE0102960E94CF068983A4
:10201000E0922901F0923C0110E000E030E020E085
:1020200044E050E0BE016F5F7F4F84E085DF88238E
:10203000E1F24E2D50E030E020E0B50185E07CDF9C
:10204000882399F230E020E041E050E0BE016B5F70
:102050007F4F86E071DF882341F20F2D10E096015B
:1020600050E040E070E060E087E066DFBFCFA5E0D1
:10207000B0E0EDE3F0E10C94C33100914903098332
:1020800010918602C090D702D090D802E090D90279
:10209000F090DA020E94BC05DC01CB018C199D098D
:1020A000AE09BF0984369105A105B10530F4812F31
:1020B00090E011E008171906C1F010E000E030E0F0
:1020C00020E041E050E0BE016F5F7F4F83E034DFEE
:1020D000182F882351F00E94BC056093D70270939B
:1020E000D8028093D9029093DA02812F2596E8E0F6
:1020F0000C94DF31A8E0B0E0E0E8F0E10C94C331EB
:10210000C090D302D090D402E090D502F090D602D5
:102110000E94BC05DC01CB018C199D09AE09BF09E9
:1021200011E084369105A105B10518F10E947807E8
:10213000DC01CB010296A11DB11D89839A83AB837B
:10214000BC8310E000E030E020E044E050E0BE015D
:102150006F5F7F4F82E0F0DE182F882351F00E94DE
:10216000BC056093D3027093D4028093D502909300
:10217000D602812F2896E8E00C94DF318F929F924F
:10218000AF92BF92EF92FF920F931F93CF93DF9383
:10219000CDB7DEB729970FB6F894DEBF0FBECDBF1F
:1021A0007B0101E010E09E012B5F3F4F50E040E0DB
:1021B00070E060E080E0C0DE182F882309F44EC094
:1021C0008090CF029090D002A090D102B090D20225
:1021D0000E94BC05DC01CB0188199909AA09BB0939
:1021E00084369105A105B10548F464E070E08EE7FE
:1021F00092E00E94CF069D81891781F104E010E0F2
:102200009E012F5F3F4F50E040E070E060E081E0D2
:1022100093DE182F64E070E08EE792E00E94CF0614
:1022200091E02D81281390E0192331F10E94BC0523
:102230006093CF027093D0028093D1029093D20228
:1022400089819A81AB81BC818093CB029093CC022F
:10225000A093CD02B093CE0211E00EC080917E0219
:1022600090917F02A0918002B091810289839A832C
:10227000AB83BC831111E4CF8091CB029091CC024F
:10228000A091CD02B091CE02F70180839183A28309
:10229000B383812F29960FB6F894DEBF0FBECDBF52
:1022A000DF91CF911F910F91FF90EF90BF90AF9072
:1022B0009F908F90089528E030E043E060E086E34F
:1022C0000C942F2ECF93DF93D82FC62FF4DF8D2FB2
:1022D00080680E94412E8C2F0E94412E8AEB8A95A5
:1022E000F1F700C00E94712E83E492E00197F1F7AC
:1022F00000C00000DF91CF910895682F893708F062
:1023000068E76093710191E090937201909166018A
:10231000992349F06150811101C064E0683708F0E9
:1023200067E78FE0CFCF0895FB018081E6CF282FAC
:1023300080917101811101C085E0022E000C330BE8
:10234000820F932F911D1816190614F081E090E06A
:10235000D4CFACE0B0E0EFEAF1E10C94C5314F83AB
:10236000588769877A878B879C8780916601882345
:1023700009F442C080913102811106C060E080E51D
:10238000A1DF81E08093310296DF80E50E94412E3B
:102390000AEB0A95F1F700C00E94592E0E94592EAF
:1023A0000E94592E7C010E94592E60E0E62AF82AEC
:1023B0000E94592E8C010E94592E20E0022B182BCE
:1023C0000E94712E25E02A95F1F70000F894B701DC
:1023D0008091690190916A0193D990936A018093E9
:1023E0006901B80180916B0190916C0189D990933A
:1023F0006C0180936B01789480915A03882309F4CF
:1024000066C00E94BC05462F572FBC018091320246
:1024100090913302A0913402B09135028A019B0160
:10242000081B190B2A0B3B0BD901C8010897A10502
:10243000B10508F44CC040933202509333026093CC
:102440003402709335028091740190917501A091CE
:102450007601B0917701481B590B6A0B7B0B423315
:1024600051056105710580F410926A0110926901AD
:1024700010926C0110926B0110926E0110926D011E
:102480001092700110926F0110915B032091730103
:10249000412FBE01695F7F4F89E691E00E94BD092F
:1024A0002091730180916601282741E04127BE01F8
:1024B000695F7F4F8DE691E00E94BD0986E0FE01D5
:1024C0003796AEE7B1E001900D928A95E1F786E08C
:1024D000FE013796DE01119601900D928A95E1F783
:1024E00029813A814B815C816D817E8180E090E021
:1024F0002C96E6E00C94E131CF93C82FDCDE8C2FD4
:102500000E94412E8FE792E00197F1F700C0000092
:102510000E94592EC82F95E09A95F1F700000E946D
:10252000712E85E68A95F1F70000109231028C2F0A
:10253000CF910895CF93DF930E949E2D269ABBDE04
:102540006AE58AE3BFDE2FEF80E792E0215080400A
:102550009040E1F700C0000082E0CEDF83E0CCDFF6
:1025600084E0CADF85E0C8DF86E0C6DF60E080E1A6
:10257000A9DE80E0C1DFD82F81E0BEDFC82F0E9436
:10258000712ED23419F481E0C13009F080E08170FD
:1025900080936601882319F064E08FE093DE81E088
:1025A000DF91CF9108951F920F920FB60F921124D1
:1025B0002F933F934F935F936F937F938F939F934B
:1025C000AF93BF93EF93FF938091E10082FF09C027
:1025D0008091E20082FF05C08091E1008B7F8093B3
:1025E000E1008091DA0080FF24C08091D80080FF54
:1025F00020C08091DA008E7F8093DA008091D9002C
:1026000080FFA9C080E189BD82E189BD09B400FED7
:10261000FDCF81E08093710380916503811109C032
:102620000E9455040E94F6048091E2008460809329
:10263000E2008091E10080FF1AC08091E20080FFFB
:1026400016C08091E2008E7F8093E2008091E200CC
:1026500080618093E2008091D80080628093D800EE
:1026600019BC85E08093710383E08093A50180917C
:10267000E10084FF2FC08091E20084FF2BC080E145
:1026800089BD82E189BD09B400FEFDCF8091D800EB
:102690008F7D8093D8008091E1008F7E8093E10050
:1026A0008091E2008F7E8093E2008091E200816061
:1026B0008093E20080917203882309F452C084E081
:1026C0008093710380917103843009F452C081E0DA
:1026D0008093A5018091E10083FF2CC08091E200EE
:1026E00083FF28C08091E100877F8093E10082E032
:1026F00080937103109272038091E1008E7F80932A
:10270000E1008091E2008E7F8093E2008091E20000
:1027100080618093E20042E060E080E00E94C404B7
:102720008091F00088608093F00081E08093A501A3
:102730008093A401FF91EF91BF91AF919F918F91F1
:102740007F916F915F914F913F912F910F900FBEAD
:102750000F901F90189519BC109271031092650389
:1027600068CF8091E30087FD02C081E0A9CF83E0BC
:10277000A7CF82E0ADCF78941F921FB61F9211248D
:102780008F939F93AF93BF93809161039091620366
:10279000A0916303B09164030196A11DB11D8093C4
:1027A000610390936203A0936303B0936403BF91AA
:1027B000AF919F918F911F901FBE1F9018952FB7BB
:1027C000F8948091610390916203A0916303B091AA
:1027D00064032FBF0895F3DF209156033091570310
:1027E000232B21F08093520390935303209158039D
:1027F00030915903232B21F0809350039093510380
:1028000084E593E00C945906CF93C6E0EEE0F2E045
:10281000DF018C2F1D928A95E9F790E080E00E94FD
:10282000310690E080E00E940906109268028AD882
:10283000E4E5F3E0DF011D92CA95E9F710924D033C
:1028400010924E0310924F03C6DFCF910895AAE273
:10285000B0E0EDE2F4E10C94C83183E793E0FC01D1
:1028600001962091F100208323E08B379207B9F77E
:1028700080917403893009F45BC0C8F4823009F494
:10288000B8C0833009F487C0813099F18091E800A5
:1028900083FF3BC180917303909174039A3008F0D9
:1028A00034C1E92FF0E0E150FD4C0C943A328A300B
:1028B00009F48EC08B3051F780917303813231F768
:1028C0008091770390917803892B01F78091E8003C
:1028D000877F8093E8000E94A50481E090917503B2
:1028E000911101C080E08093A401109266038CDFF7
:1028F000CDCF80917303813A49F68091E800877FBC
:102900008093E8008091770390917803892B61F49C
:1029100068E087E693E070E00E9450058091E8004F
:102920008B778093E800B2CF60E090E080E0F3CF57
:1029300080917303813209F0A9CF80917703909140
:1029400078038D7F892B09F0A1CF8091E800877FE4
:102950008093E8008091E80082FF18C09091F30016
:102960008091F200029731F48091F100813011F0F2
:10297000863021F48091F1008093A3018091E800DA
:102980008B778093E8000E94A50480CF809171032B
:102990008111E0CF7BCF80917303813A09F076CF2C
:1029A0008091770390917803892B09F06FCF809104
:1029B000E800877F8093E8008091E80080FFFCCFEB
:1029C0008091A4018093F1008091E8008E77D9CFA7
:1029D00080917303813209F059CF8091E800877F9D
:1029E0008093E8000E94A504809176038093A20161
:1029F0004DCF80917303813A09F048CF8091E80070
:102A0000877F8093E8008091E80080FFFCCF809171
:102A1000A201D8CF803899F0823809F076C0809131
:102A200077038F70873008F070C08093E900809141
:102A3000EB0085FB882780F91092E90006C08091A1
:102A40006F0390917003911182609091E800977FDD
:102A50009093E8008093F1001092F1008091E800DB
:102A60008E77B7C1882309F4A4C1823009F04DC024
:102A7000809175038111A8C1809177038F702FEF2A
:102A8000280F263008F041C08093E9002091EB0028
:102A900020FF9AC1933031F48091EB0080628093E3
:102AA000EB0092C19091EB0090619093EB0021E0DC
:102AB00030E001C0220F8A95EAF72093EA001092D5
:102AC000EA008091EB008860EACF81111EC010916E
:102AD00075031F778091E3008078812B8093E3005A
:102AE0008091E800877F8093E8000E94A504809190
:102AF000E80080FFFCCF8091E30080688093E300D2
:102B000082E0111183E0809371038091E80083FFDC
:102B10000AC08091E800877F8093E8008091EB00F5
:102B200080628093EB00AA96E3E00C94E431805835
:102B3000823058F740917503509176034C3D83E005
:102B40005807A1F583E08A838AE289834FB7F89416
:102B5000DE01139620E03EE051E2E32FF0E05093D7
:102B60005700E49120FF03C0E295EF703F5FEF70E4
:102B70008E2F90E0EA30C0F0C7968D939D932F5F23
:102B8000243159F74FBF8091E800877F8093E80098
:102B90006AE270E0CE0101960E9450058091E80043
:102BA0008B778093E800B1CFC096E7CF8091770311
:102BB00090917803252F33272330310509F44AC03B
:102BC00078F52130310509F479C08BE590E0E5EA2C
:102BD000F3E02230310509F098CF2091E800277FFB
:102BE0002093E8002091790330917A0382179307AC
:102BF00008F49C0140E02115310509F064C0411141
:102C000062C08091E80082FDC9CF80917103882362
:102C100029F2853019F28091E80083FFF2CFBECF10
:102C20002132310509F43BC02232310509F06DCF64
:102C30008330910508F069CFFC01EE0FFF1FE350D0
:102C4000FE4F0190F081E02D86509E4FDC018C916B
:102C500090E011C0CA019927413089F08230910576
:102C6000B1F0892B09F051CFEAE3F4E0E4918E2F23
:102C700090E0EAE3F4E0009709F447CFAECFE8E252
:102C8000F4E0E4918E2F90E0E8E2F4E0F4CFE2E1AA
:102C9000F4E0E4918E2F90E0E2E1F4E0ECCF8330B9
:102CA000910508F032CF880F991FFC01ED5FFD4FB1
:102CB0000190F081E02D89E090E08FCF82E190E0FB
:102CC000E0E0F4E08ACF80917103882309F466CFB5
:102CD000853009F463CF8091E80083FD5FCF809158
:102CE000E80082FD8ECF8091E80080FF84CF909134
:102CF000F3008091F2002115310519F0883091051B
:102D000050F041E0089709F040E08091E8008E77AC
:102D10008093E80070CF44914093F10031962150A8
:102D200031090196E8CF803809F0EFCE8091E800B4
:102D3000877F8093E800809172038093F1008ECEAC
:102D40008111E3CE10917503123008F0DECE809130
:102D5000E800877F8093E800109372030E94A50427
:102D6000112311F084E005C08091E30087FDFACFC4
:102D700081E08093710342E061EC81E00E94C40431
:102D800042E261EC84E00E94C40442E261EC82E031
:102D90000E94C40442E260EC83E00E94C40480917B
:102DA0007103843021F081E08093A501AECE82E0F2
:102DB000FBCF80917503813009F0A7CE81E093307D
:102DC00009F080E0809370031092E9008091E800A0
:102DD000877F8093E8000E94A50497CE1F920F92F0
:102DE0000FB60F9211242F933F934F935F936F93DE
:102DF0007F938F939F93AF93BF93CF93DF93EF9383
:102E0000FF93D091E900DF708091EC00C82FC17072
:102E100080FDC0E81092E9008091F000877F8093E8
:102E2000F000789414DD1092E9008091F000886041
:102E30008093F000CD2BCF70C093E900FF91EF910C
:102E4000DF91CF91BF91AF919F918F917F916F91C2
:102E50005F914F913F912F910F900FBE0F901F9058
:102E6000189510926603D0DC2FEF84E39CE021508C
:102E700080409040E1F700C0000088E19AE00FB682
:102E8000F894A895809360000FBE90936000FFCFE8
:102E9000662309F46FC08D3C31F40E94A106819530
:102EA0008093570398CC8E3C19F40E94A106F8CF6A
:102EB0008F3C31F40E94A106819580935603F2CF96
:102EC000803D19F40E94A106F8CF893D29F40E94A3
:102ED0007F0680935803E6CF8A3D21F40E947F0647
:102EE0008195F7CF8B3D31F40E947F0681958093C9
:102EF0005903D8CF8C3D19F40E947F06F8CF9FE28A
:102F0000980F983018F5282F215D330BA90121E087
:102F100030E001C0220F4A95EAF790915503922BB9
:102F200090935503815D21E030E0A90102C0440F78
:102F3000551F8A95E2F7CA0120911C03662309F404
:102F400092C0822B80931C030C94B80B8D3D31F4FE
:102F500080914F03816080934F03A4CF8E3D21F475
:102F600080914F038260F7CF8F3D19F580914F0319
:102F70008460F1CF909156038D3C59F42091570312
:102F800027FF0DC01092570391110BC010924D03F3
:102F900008C08E3CB1F42091570312169CF399237C
:102FA000B1F09091580320915903922B11F4109293
:102FB0004E03482F415D550B4830510508F4B2CF00
:102FC00071CF8F3C39F497FFEACF1092560390915E
:102FD0005703DACF803D19F41916BCF3E0CF2091E6
:102FE0005803893D29F41216D4F610925803D7CF0E
:102FF0008A3D19F427FFD3CFF8CF209159038B3D99
:1030000029F427FFCCCF10925903C9CF8C3D19F476
:103010001216CCF3C4CF2FE2280F283088F4282FC3
:10302000215D330BA90121E030E001C0220F4A9558
:10303000EAF7209530915503232320935503AFCF12
:1030400020914F032E7F8D3D59F020914F032D7F0E
:103050008E3D31F08F3D09F0A2CF20914F032B7FA1
:1030600020934F039CCF809582236CCF8823B1F1AE
:103070009CEF980F913A70F4EEE0F2E09191891391
:1030800003C0DF0111971C9292E0E431F907B1F718
:103090000C94A20C90E2980F983050F4877091E055
:1030A00001C0990F8A95EAF7892F0E949408F0CF02
:1030B0009BE5980F933020F490E080E00C9431066B
:1030C00098E5980F9B3120F490E080E00C9409067D
:1030D00093E3980F933110F460E0DACE0895CF9324
:1030E000DF93EC01C3DFCE010E9441099E01205E07
:1030F00031092830310510F0CD2B29F40E94F30C52
:10310000DF91CF9108950E94E00CFACF0F931F93A7
:10311000CF93C82F882339F18CEF8C0F813AB0F50B
:103120000EE012E0F8018191C81709F122E0E431C4
:10313000F207C9F7EFEF80E0D8019D918D01C91723
:1031400081F0EF3F19F4911101C0E82F8F5F8630B5
:1031500099F7EF3F31F00E2E000CFF0BE45FFD4FAF
:10316000C2830E94A20CCF911F910F910895EEE0AF
:10317000F2E08191C81303C0DF0111971C9232E085
:10318000E431F307B1F70E94A20CD4CF80E28C0F98
:10319000883068F4C77021E030E001C0220FCA9582
:1031A000EAF780916603822B80936603DACF8BE582
:1031B0008C0F833038F42C2F2452330BC9010E941A
:1031C0003106D1CFE8E5EC0FEB3150F4F0E0EE0F33
:1031D000FF1FE855FE4F808191810E940906C3CFF1
:1031E00083E38C0F833108F0BECF61E08C2F50DE7B
:1031F000BACFCF93DF93EC010E9441099E01205E7C
:1032000031092830310510F0209739F40E94F80C6C
:103210008C2F7CDFDF91CF9108950E94EA0CF8CFCC
:10322000A5E0B0E0E6E1F9E10C94BD3180914C03FA
:10323000882309F41EC120914A0330914B033A833D
:103240002983BDDA49815A81841B950BC29708F402
:10325000E6C0B5DA90934B0380934A038AEB93E080
:103260009093C1058093C00580915A03882309F487
:103270000FC18EEE91E00E94640C88EB0E94DF0B80
:1032800080917D010E944A0B0E94DF0B89EB0E9416
:10329000DF0B80917C010E944A0B0E94DF0B8BEEBA
:1032A00091E00E94640C80917A0190917B0154E03E
:1032B000969587955A95E1F70E944A0B0E94DF0B7D
:1032C00080917A010E944A0B0E94DF0B88EE91E008
:1032D0000E94640C84E891E00E94010D8DE092E070
:1032E0000E94640C80918001082E000C990B0E94B2
:1032F000510B0E94010D80918101082E000C990B49
:103300000E94510B0E94010D80918301082E000C38
:10331000990B0E94510B0E94010D80918201082E91
:10332000000C990B0E94510B0E94010D85E092E068
:103330000E94640C80917101811101C085E090E0D0
:103340000E94510B01960E94010D81E092E00E94C3
:10335000640C80917901882331F0813009F48DC0AB
:1033600088EF91E002C08EEF91E00E94640C8091A2
:103370007301882309F484C086E192E00E94640C02
:1033800084EF91E00E94640C80917801811101C06A
:1033900084E0805D0E94DF0B8CE192E00E94640C6F
:1033A00061E070E07A83698380912203882309F4C5
:1033B0006AC090E0098002C0959587950A94E2F76B
:1033C00080FF61C089810E944A0B0E94DF0B8981C6
:1033D0009A8101969A838983089731F780E20E9447
:1033E000DF0B89E192E00E94640C80918B018823BD
:1033F00009F44BC086E192E00E94640C80918D013B
:1034000090918E016AE070E00E94A531CB010E948C
:10341000510B01960E94010D80E30E94DF0B809109
:10342000B8039091B903892B09F04EC080914903EC
:103430008823F9F00E94BC0569837A838B839C837F
:103440008091450390914603A0914703B0914803B2
:1034500029813A814B815C81281B390B4A0B5B0B1C
:10346000DA01C9018F3F9F4FAF4FBF4710F40E9451
:10347000C40E2596EEE00C94D9318BEF91E075CF18
:1034800083E192E07BCF80EBA0CF83E192E0B4CFE9
:1034900090E99983A981A051AD8382E292E00E94D4
:1034A000640C8D81B82FBF5FBD830E94DF0B6D80E0
:1034B00029816212F6CF80E00E94710C3981305F61
:1034C0003983303C39F7ABCF80914C03882309F422
:1034D000ADCF809144038111A9CF0E94DE0E2091CF
:1034E000B8033091B9032115310509F49FCF80E06D
:1034F00041E050E0082F10E0BA01082E02C0660F2C
:10350000771F0A94E2F77A83698362237323672B18
:1035100011F48F5FEFCF9091430390FF97C0880F16
:10352000880F880F80939D011092A001895F80937E
:103530009E0183E08093A10124E630E047E050E063
:103540006BE971E088E70E94272F892B09F06ECF85
:10355000A80125E0440F551F2A95E1F78091430308
:1035600080FF86C0E3E2F3E080E2DF011D928A95EE
:10357000E9F706EF11E082EFE82E81E0F82E97E000
:10358000992E88248394D801ED918D01D7016D91F6
:103590007D01640F752F711D66547C4FF0E0ED5D69
:1035A000FC4F30E020E0792C721AA82C022E01C0CA
:1035B000AA0C0A94EAF76B0190E0D6018D916D0197
:1035C0008A21A72DA91BA770BA2E0A2E000CBB0BAF
:1035D000682E01C0660CBA94EAF7B62CB195A19595
:1035E000B109A770BB2701C08695AA95EAF7A62D59
:1035F000A82B80818A2B80839F5F9830F1F62F5F04
:103600003F4F31962830310571F621E00A3F12070D
:1036100009F0B9CF04E610E020E230E043E253E0E5
:1036200060E488E70E94AF2F892B09F0FFCE498123
:103630005A81409550958091B8039091B9034823E1
:1036400059235093B9034093B803F0CE8295880F65
:10365000807680939D01980136952795369527951C
:103660002093A001815E80939E012093A10164CFED
:1036700046545C4F04E610E020E230E0D1CFACE2EB
:10368000B0E0E5E4FBE10C94C5318091190383308F
:1036900009F090C140911B0350911C0360911D03E0
:1036A00070911E0380911F03909120030E94A91125
:1036B00020931B0330931C0340931D0350931E0360
:1036C00060931F037093200386E0EBE1F3E0DE01DB
:1036D000199601900D928A95E1F786E0FE013996E0
:1036E000DE01559601900D928A95E1F786E0FE0184
:1036F0007596DE01119601900D928A95E1F786E0AC
:10370000FE013196ABE1B3E001900D928A95E1F7AD
:1037100086E0EBE1F3E0DE01199601900D928A95C7
:10372000E1F786E0FE013996DE015B9601900D928D
:103730008A95E1F786E0FE017B96DE011196019005
:103740000D928A95E1F786E0FE013196ABE1B3E098
:1037500001900D928A95E1F786E0EBE1F3E0DE015E
:10376000979601900D928A95E1F786E0FE01B79653
:10377000DE011F9601900D928A95E1F71BA5FCA42E
:10378000012F0F2909F4B9C00E94110F29833A8330
:103790004B835C836D837E838F83988744FD119573
:1037A0000F2D45FD01951B8B0C8B86E0FE013F968E
:1037B000DE01199601900D928A95E1F71D870E871B
:1037C00086E0FE013996DE01919601900D928A9570
:1037D000E1F71DA30EA386E0FE01B196DE011F9660
:1037E00001900D928A95E1F71B8B0C8B86E0FE0110
:1037F0003F96ABE1B3E001900D928A95E1F786E048
:10380000EBE1F3E0DE011F9601900D928A95E1F75E
:1038100080918B01882309F47EC0E0909001F090A4
:1038200091010E94DF1320918F018E199F092817A3
:10383000190608F070C0E0909201F09093010E9488
:10384000DF139C012E193F0979010E946F0F8E151D
:103850009F0508F060C038898A899091970129896D
:10386000920F9093970120919801820F8093980175
:1038700020919A01020F00939A0120919901120F51
:10388000109399012091650197FD91952917B8F141
:1038900087FD8195281798F107FD0195201778F18C
:1038A00017FD119581E0211718F0311101C080E05A
:1038B0008170809394010E94FC061091220388235A
:1038C00009F445C010929701109298011092990145
:1038D00010929A010E94DF139093910180939001BE
:1038E000109293011092920180918C01111109C0E4
:1038F000882389F00E94B3090EC010E054CF81E004
:10390000D7CF212F30E0082E02C0359527950A9495
:10391000E2F720FFEFCF86E0E4E5F3E0DE011F965B
:1039200001900D928A95E1F780911C039889892B6B
:1039300080931C030E94B80B811139C080911A0337
:10394000817010921A03AC96E6E00C94E1318091FC
:103950008C01111122C08111DECF009190011091D4
:1039600091010E94DF13801B910B20918D013091FA
:103970008E012817390778F680918C010E949209F0
:10398000109291011092900110929701109298015B
:103990001092990110929A01BECF212F30E002C0FF
:1039A000359527958A95E2F720FFB5CFD6CF81E0F0
:1039B00090E0C6CF80E0C7CFA0E1B0E0E2EEFCE14E
:1039C0000C94BF311A821982FE01339686E0DF0122
:1039D0001D928A95E9F780EEE82E81E0F82E10E03E
:1039E00000E0CC24C394D12C2AEEA22E21E0B22EEA
:1039F000F70181917F018F3F09F445C0F894E82FCA
:103A0000E295EF70F0E021A18F70A60102C0440F93
:103A1000551F8A95E2F7CA01922F982B91A392A184
:103A20008095892382A3789400C0E4EEF1E031E030
:103A3000912C21912F3F09F49DC0A22FA295AF7028
:103A4000B0E090968C9190E02F7002C0959587958C
:103A50002A95E2F780FD8EC0832F982A330FAE1689
:103A6000BF0639F7F701319780818F3F11F00E942F
:103A70005F0750EA5A95F1F7E1E0F0E0EC0FFD1F27
:103A8000E00FF11F90820F5F1F4F0430110509F006
:103A9000AFCF48E050E0BE016F5F7F4F80EE92E015
:103AA0000E9490329C01892B49F088E0FE013196FA
:103AB000A0EEB2E001900D928A95E1F70091E90243
:103AC00010E009501D4F232B09F456C081E080936C
:103AD00075020E94DF139093740280937302F12C9D
:103AE000E0905A03EE2009F4A5C01A8619861C86B8
:103AF0001B868091DB028A3008F064C04EEB50E1F7
:103B0000BE01675F7F4FC8010E947C0D882309F4C6
:103B100080C04AE750E1BE01675F7F4FC8010E9445
:103B20007C0D882309F475C047E350E1BE01675F4F
:103B30007F4FC8010E947C0D882309F46AC010924F
:103B4000DB028091E80290E044E050E0BE01675F54
:103B50007F4F89509D4F0E94903221E020937C023C
:103B6000892B09F048C0E12C8E2D8F296096ECE05E
:103B70000C94DB3180E071CFF0907502FF2009F4E6
:103B8000AECFC0907302D09074020E94DF138C19E4
:103B90009D09059708F4A3CF44E050E060EE72E081
:103BA000C8010E949032892B59F084E0E0EEF2E0E7
:103BB000D80101900D928A95E1F71092750290CF8D
:103BC000F12CFBCFC0907602D09077020E94DF13D9
:103BD0008C199D09843F914008F090CF80917C0220
:103BE000882309F2FE01399684E0DF011D928A954F
:103BF000E9F710927C02E091E802F0E0E950FD4F15
:103C000089859A85AB85BC8580839183A283B383A4
:103C1000ABCF8091DB028F3F31F08F5F8093DB026F
:103C20008A3008F48ECF0E94DF139093770280933E
:103C30007602D4CFF80180819181A281B3818093F3
:103C40007E0290937F02A0938002B093810264E091
:103C500070E08EE792E00E94CF0680937D02809014
:103C6000820290908302A0908402B090850280919D
:103C7000780290917902A0917A02B0917B02881625
:103C80009906AA06BB06B1F080927802909279025A
:103C9000A0927A02B0927B020E94BC05861A970A13
:103CA000A80AB90A8092DC029092DD02A092DE029C
:103CB000B092DF0280918602882319F00E94DE0E06
:103CC00053CF0E94C40E50CFAEE0B0E0EAE6FEE172
:103CD0000C94BE317C01DC0114968C91882309F48C
:103CE00064C161E0C7010E94AE0E8C0180918B011E
:103CF000882331F10032B2E51B0708F0B1C001158D
:103D0000E2E51E0708F0F5C00115F0E51F0708F011
:103D10009CC0011520E4120708F002C1011530E231
:103D2000130708F005C1083E110508F05EC0003E0B
:103D3000110508F460C08091960187FD10929601EC
:103D400010937B0100937A01D7018D919C9111977B
:103D500090937D0180937C01F8013497E533F10560
:103D600008F0FEC0E357FE4FE49115968C9120EBCE
:103D7000811102C02E2FE0EBA4E8B1E090E080E0DA
:103D80003D913213E7C08A599E4FDC015E96EC9359
:103D9000D70115968C9198013A9521153F4138F03D
:103DA0000730AEE71A0709F0A6C10E947209F701B1
:103DB00085819801205E32452032310508F031C2FC
:103DC000811141C20F7181E090E09C0102C0220F7D
:103DD000331F0A95E2F78901622F83E090E00E9489
:103DE000C832802F0E941009D0C0C8019A95811551
:103DF0009F4108F4A0CFD70114968C91882309F431
:103E00009ACF0730BEE71B0709F441C0C8018D5C9B
:103E100091094397E0F10E94FC0681118CCFF701D4
:103E20008581882359F080918C01209122032111F2
:103E300085C0882309F48BC00E94930B0E94DF1376
:103E4000909393018093920176CFC801A5E0969557
:103E50008795AA95E1F78F70992720918C0113C05F
:103E60000038B2E51B07C0F40036E2E51E0708F093
:103E700040C00034F2E51F0708F05DCF20918C01AF
:103E8000C8018F7199272817190609F054CFF70137
:103E900085810E94E5064FCF003E22E5120710F50E
:103EA000003C32E5130708F446CF20918C01C8018D
:103EB0008F7199272817190609F03DCFD70115965C
:103EC0008C910E94E506F7018681807F803509F09C
:103ED00032CF85818823F1F08091960181508093C3
:103EE000960129CFC801805E9245809708F423CFC0
:103EF00082CF20918C01C8018F719927281719064C
:103F000009F019CFD70115968C91811114CF0E9419
:103F1000F30611CF0E94F306809196018F5FDFCFE9
:103F2000D70116968C91807F19F4812F992793CF12
:103F3000F7018681807F09F4FECE5DCF30E0082E48
:103F400002C0359527950A94E2F720FF75CF0E94AD
:103F5000920972CF01968630910509F011CF18CFE2
:103F6000C80197578038910508F012CFF701858175
:103F7000882309F4BBC010E0D12CC12C0117B9F182
:103F800030E9C31631E0D306A0F080912103877099
:103F900061F0D70115968C91882339F08091EC025D
:103FA00082FF03C082E00E949D092E96EDE00C94F2
:103FB000DA31C601805B9D4F0E94B63296012F5FB9
:103FC0003F4F882391F09FEF980F923010F084308C
:103FD00051F4F3E0CF0ED11C20E9C21621E0D20645
:103FE00040F31F5FCBCF6901F7CF6901FACF80E9BA
:103FF000C81681E0D80648F6C601805B9D4F0E9436
:10400000B632843019F0833008F0BFCFC601805B30
:104010009D4F0E94B632B82E882309F4B6CF8FEF99
:104020008B0D823018F094E0B912AFCFC6018F5AD1
:104030009D4F0E94B632182FC6018E5A9D4F0E9486
:10404000B632A3E0CA0ED11C082FB1E0BB121EC0CD
:10405000E5E0AE2EB12C0933110519F470E5A72E59
:10406000B12CC801C6D8EFE9FFE03197F1F700C0E5
:104070000000F1E0AF1AB108B1F7C80130D890E9FB
:10408000C91691E0D90608F4C1CF7FCF22E0B21261
:1040900012C0C801AED8E0914702E83080F781E055
:1040A0008E0F80934702F0E0EE0FFF1FE95CFD4F9B
:1040B00011830083E4CF34E0B312E1CF0115110581
:1040C000F1F28FE99FE00197F1F700C00000015085
:1040D0001109F4CFE150E0934702F0E0EE0FFF1F2B
:1040E000E95CFD4F808191810E946F18E091470249
:1040F000E111F0CF4ACF882309F459CEF801FE57D9
:10410000E031F10508F053CEE75FFC4C0C943A32F5
:1041100080E00E947D111092780180E00E94B00B37
:104120008AE892E00E94A20B30CF20917801309172
:104130008B0180918D0190918E0162E370E00E946D
:10414000A5318FEF860F909179016091070340911F
:10415000710120FB47F9522F56955370330F330FDF
:10416000532B282F220F220F220F522B660F660F80
:104170006C739370692B70E08FE090E00E94DA32EC
:1041800004CF81E00E94971100CF8FEFFBCF8AE030
:10419000F9CF86EFF7CF9091730181E089270E94D4
:1041A0007209F3CE80917801811101C084E08F5FA4
:1041B00018160CF081E0883008F087E080937801D1
:1041C000E4CE80917801811101C084E08150F0CF6C
:1041D00081E080937901D9CE10927901D6CE82E028
:1041E000F8CF90918B0181E089270E94B00BCDCE52
:1041F00080918D0190918E01C296893EB3E09B071C
:1042000008F490CF88EE93E08DCF80918D0190914E
:104210008E01C2978436910508F084CF84E690E041
:1042200081CF8823E1F10B353CE7130771F10C35A1
:104230009CE71907F1F00A35ACE71A0721F10130C4
:10424000BCE71B0751F10330ECE71E0701F1011534
:104250001C4729F5109266030E9404142FEF34E3E3
:104260008CE0215030408040E1F700C000000E9407
:10427000AB058091EC0282FB882780F991E08927C9
:104280000E94860F82CE81E0FBCF80E0F9CF6FEFF6
:104290007FEF90E080E00E94E2320E943117F70148
:1042A000C080D180882309F455C0C6010E944F0EFA
:1042B000182F682FC6010E94DA08B601812F0E94CC
:1042C000430E0E94A907182F092F782E86E0F701C8
:1042D000DE01199601900D928A95E1F7D7011596A6
:1042E000CC9015971696BC90B2944FE0B422809172
:1042F0002103877009F1AC2CCC20F9F0892F807F45
:10430000803469F080E2810F8830B0F0892F807EA0
:10431000803229F4B1E0B11778F4BB2069F08091C4
:10432000EC0282FF09C082E00E949D098091210376
:104330008770AA24A3948111A12C802F82958F705D
:10434000882E912C8C3008F06EC0F401E75EFC4C96
:104350000C943A32C6010E94A608182FAECFE02F67
:10436000EF70DE2E802F807F19F0D29430EFD322B1
:10437000CC20B9F0DD2069F080E2810F883010F0A8
:10438000711009C080916603D82AD09266030E94FA
:10439000A20C812F46C080916802D82AD092680270
:1043A000F6CF812F0E943618DD20E9F180E2810FDF
:1043B000883010F0711004C08D2D0E94940806C042
:1043C000D09480916802D822D09268020E94A20CF8
:1043D0002AC0F02FFF70DF2E802F807F803219F0EF
:1043E000D29420EFD222772059F021E0721609F4FE
:1043F00083C0CC2009F48FC0BB2009F451C0C9CFC1
:104400008091EC0282FD48C0CC2009F43FC0DD2041
:1044100039F080916603D82AD09266030E94A20CDC
:1044200080E00E94861898E0891A9108A4E08A1614
:10443000910418F40E946C06A12C812F902F0E94E9
:104440001309882341F0CC2009F494C1BB2009F45E
:1044500088C110924D02AA20A1F08091210380FD15
:1044600010C0F70115828695869586950E94B3093E
:10447000C7012ADC809121038695869586950E9446
:10448000920960E0C7010E94AE0E8FCD80E00E94CD
:104490003618DD2041F290CFCC20A1F0B11004C03D
:1044A0008D2D0E94F80CBFCF31E0B312BCCF8091AC
:1044B00067029D2D9823D91609F4B5CFD82AD0923A
:1044C0006702B1CFB110AFCF8D2D0E94F30C909148
:1044D00067028D2D892329F08D2D80958923809366
:1044E0006702809148029D2D982309F49CCFD094B7
:1044F000D822D092480297CFCC2029F085E08B15A6
:1045000008F491CFCDCF94E09B1508F48CCF8D2D7E
:104510000E94F30C88CFBB20D1F3A9E37A1219C112
:10452000BFEFE7EEF3E0B150E040F040E1F700C04C
:104530000000812F0E94361876CF802F86958695B1
:10454000837069F0813009F06ECF812F902F9370C6
:10455000C11002C080E090E00E94090664CF812F64
:10456000902F9370C11002C080E090E00E9431064D
:104570005ACF6C2D812F0E94481755CF802F837002
:1045800099F5C11050CF412F429546954770440F81
:10459000440F812F8F70042E01C0880F0A94EAF710
:1045A000212F207114FF07C02FE030E001C0220F3F
:1045B0004A95EAF72095302F36953695337032308C
:1045C00071F0333051F04091EA02313029F0822B02
:1045D00084230E94100927CF842B822BFACF282B0B
:1045E0008091EA028227F5CF8695CC2011F0802FAA
:1045F0008170882309F417CF412F42954695477063
:10460000440F440F812F8F70042E01C0880F0A942D
:10461000EAF7212F207114FF07C02FE030E001C01E
:10462000220F4A95EAF72095302F3695369533704C
:10463000323071F0333051F040912203313029F0A3
:10464000822B84230E948509EECE842B822BFACF05
:10465000282B809122038227F5CF902F9F70D92E8F
:10466000CC2029F0892F0E94B309812F1ACF812FE6
:104670000E94F30C8D2D0E949209D5CE812FA2EFBE
:104680007A16B1F1A71570F0B0EF7B16D1F0E1EF1B
:104690007E1691F0CC2009F457C0B1107ACE802F4D
:1046A0008F712AC0F3EF7F1651F124EF7212F2CF0F
:1046B0009091EC0292FD2FC0802F8F71CC20D9F207
:1046C0001BC0CC2081F034E03B1508F4ACCE202F89
:1046D0002F7181E090E001C0880F2A95EAF7909150
:1046E00022038927AFCF85E08B1508F49CCEEFCF4E
:1046F000802F8F71C110BFCF0E94B30994CE80E08C
:10470000CC2009F49FCF81E0902F9F7101C0880FCA
:104710009A95EAF797CFCC2061F0802F8F7192FFA6
:10472000EBCF98E0899F900111242360209321030F
:10473000E3CF81E00E949D09A1E0AB1508F073CEA4
:1047400082E00E949D096FCEBB2041F0893309F4BD
:10475000E7CE8FE19EE40197F1F7E9CE802F8F71CC
:104760008ACF80914C0280934B02809166038093A4
:104770004C0271CE1E8620E049855A856B857C856A
:104780008D8590E00E948E0E9C0100916603BB20F7
:1047900029F010924D0200934C025DCE80914902A7
:1047A00090914A0228173907B1F70E94110F298307
:1047B0003A834B835C836D837E838F83988743FF2B
:1047C000E8CF80914D02882321F380914B020E9413
:1047D000F80CEFE1FEE43197F1F700C0000095E03E
:1047E000C92ED12C193319F480E5C82ED12C812F74
:1047F0000E9486188FE99FE00197F1F700C0000042
:1048000091E0C91AD108B1F7812F0E943618AFE1A3
:10481000BEE41197F1F700C0000080914B020E94A6
:10482000F30CB7CFB0E0A0E0E8E1F4E20C94C431BF
:1048300080916602807F09F050C0809165028823D4
:1048400009F44BC0E091B40387E0D82E80917B033C
:104850008E1709F442C00E2F10E0ED9DF0011124D7
:10486000E458FC4F84818823E9F1D09EE001D19E79
:10487000D00D1124FE01E458FC4F9181809161021A
:10488000981330C090818091600298132BC085816D
:10489000811128C0E280F3808091620290916302CE
:1048A000E81AF90A60E080E692E00E94AE0E0E94EB
:1048B0006F0FE816F906B0F4809166028F70806180
:1048C00080936602CE57DC4F88818F708061888329
:1048D00080E692E0F9D90E949C08CDB7DEB7E7E008
:1048E0000C94E031F8013196E770B0CFAEE0B0E063
:1048F000ECE7F4E20C94BC318C0186E0F801DE01B7
:10490000199601900D928A95E1F7D8011496FC90C2
:1049100014971596EC9080E6882E82E0982E809170
:104920006402811128C0F11003C0FF24F3941BC05E
:10493000EE20F1F0C8010E94840EF82E8823C1F009
:1049400087E0F801A0E6B2E001900D928A95E1F7C8
:1049500080916402813031F4809160029091610213
:104960000E94780E5FDF8F2D2E96EFE00C94D831E9
:10497000C801AAD9DACFF801A0805180C280D380C3
:1049800060E080E692E00E94AE0EB09065028091F9
:10499000620290916302BB2009F4CBC03601681A11
:1049A000790A60E080E692E00E94AE0E0E946F0FEE
:1049B0006816790608F09EC0FF2009F4B6CF8091F2
:1049C0006602382F307F20916102D80111969C91A8
:1049D0001197311151C0FE2C291313C02091600290
:1049E0009C9129130EC0E11021C18F7080618093CA
:1049F000660280E692E068D980916602F8018683BB
:104A0000B2CFE11013C1652D8A2D0E94370488238F
:104A100009F4EBC00E94110F29833A834B835C8316
:104A20006D837E838F83988742FFDFC080E692E0AC
:104A30004BD987E0E0E6F2E0DF011D928A95E9F7C5
:104A4000F12C91CF2A5F2F70223070F0C8013CD931
:104A5000EB2CEAC0992319F0882309F4E5C0805EA5
:104A6000883008F4E1C0F2CF803F08F4DDC0815FF8
:104A7000833008F4D9C0EACF291315C02091600211
:104A80009C91291310C0E1100EC016968C93C8019A
:104A90001BD987E0F801A0E6B2E001900D928A955B
:104AA000E1F7FB2C60CFC8010E94840E882309F433
:104AB0005FCFEE2009F45CCF80916602803280F0F7
:104AC00020916002309161023A832983DC82CB829B
:104AD000909164029D831E828F83CE010196F4D84B
:104AE00087E0F801A0E6B2E001900D928A95E1F727
:104AF00099DE1BCF80916602982F907F09F496CFA4
:104B0000FF2009F412CF20916102F801918129134D
:104B1000CACF2091600290812913C5CFE110C3CF85
:104B20008683C801D1D887E0D4011D928A95E9F720
:104B3000B8CF5601A81AB90A60E080E692E00E9458
:104B4000AE0E0E946F0FA816B90608F048C0FF20ED
:104B500009F4EBCEFE2CEE2009F40ACF909161020D
:104B6000F801818198132EC0909160028081981382
:104B700029C08091620290916302C81AD90AF8ECA8
:104B8000CF16D104B0F48091660280FD12C0982F38
:104B9000907F79F0D80116968C931697903F39F054
:104BA000982F907F905F8F70892B16968C93C801F9
:104BB0008BD887E0F801A0E6B2E001900D928A95CB
:104BC000E1F7D1CEC8010E94840E811189CF809176
:104BD0006602816080936602C80176D8C4CE87E001
:104BE000F40111928A95E9F72BCF652D8A2D0E9449
:104BF0003704E82E8111B7CEA9865A8689859A8511
:104C00000E94780E292F22952F70903408F01ACF29
:104C10009F70223008F41ECF992309F420CFF801A9
:104C20009681907F09F01BCFFE2C9DCE809166026D
:104C300081608093660204CFABE1B0E0E2E2F6E28D
:104C40000C94C8314E8B5F8B688F798F8A8F192FA8
:104C50009B8F882309F455C020E00E948E0E9C0192
:104C6000112349F010924D0290934A028093490219
:104C7000109268020AC08091490290914A028217FC
:104C8000930719F481E080934D021D8A86E0FE01AE
:104C90007696DE011F9601900D928A95E1F78B8939
:104CA000882351F061E0CE010F960E94AE0E61E0C4
:104CB000CE010F960E94AE0E87E0FE013F96DE0108
:104CC000189601900D928A95E1F7CE0108960EDEB6
:104CD00081110CC087E0FE013896DE01119601902B
:104CE0000D928A95E1F74C8541110EC017E0809135
:104CF000B40390917B03891337C06B96E3E00C9467
:104D0000E431992311F2B4CF20917B0330E0C90143
:104D10000196877099275091B40358171906A1F08E
:104D20004D8397E0929FD001939FB00D1124A4581A
:104D3000BC4FFE01319601900D929A95E1F7809358
:104D40007B030E949C08D2CF109266030E94041439
:104D500010927B031092B40387E0E0E6F2E0DF01FB
:104D60001D928A95E9F7C2CF819FC0011124845812
:104D70009C4FBCDD882309F4C0CF8091B40390E040
:104D80000196877099278093B403B1CFA6E0B0E075
:104D9000ECECF6E20C94C7310E94DF138C01809199
:104DA0007102909172028017910779F019821A822C
:104DB0000E94DF13682F49815A81792F80E090E0AB
:104DC0003BDF10937202009371022696E4E00C948C
:104DD000E3311F921FB61F9211248F939F93AF93BD
:104DE000BF9380916003811113C080916103909102
:104DF0006203A0916303B09164034196A11DB11DAC
:104E00008093610390936203A0936303B093640360
:104E1000BF91AF919F918F911F901FBE1F901895CA
:104E2000CF93DF93EC010E94DF138C1B9D0BDF916E
:104E3000CF910895CDB7DEB7CE54D1090FB6F8940F
:104E4000DEBF0FBECDBF85B7806885BF85B78068E0
:104E500085BF84B7877F84BF0FB6F894A8958091EB
:104E60006000886180936000109260000FBE80E84F
:104E700090E00FB6F89480936100909361000FBEAC
:104E800081E08093A5018FE297E090930B028093DD
:104E90000A020E9455040E94F6048091E200846098
:104EA0008093E2007894809171038823A1F010919F
:104EB000E9001F709091EC00892F817090FD80E8CF
:104EC000182B1092E9008091E80083FD0E942714BE
:104ED0001F701093E90082E084BD93E095BD9AEFC6
:104EE00097BD80936E001092DC021092DD0210924A
:104EF000DE021092DF0288EC90E02091E300122F96
:104F0000111F1127111F27FD0CC0AFE3BCE911973A
:104F1000F1F700C00000019781F70E94550410923C
:104F2000710310935A0354985C9A879A8F98B5E04E
:104F3000BA95F1F7000089B18295817087988F9AB0
:104F4000E0EAEA95F1F780935B038093000180919A
:104F50005A0381110E94513080910001809100011B
:104F600094E0811190E09093E90284E0891B8093A2
:104F7000E80284EF0E945F0785EF0E945F0786EFDB
:104F80000E945F0787EF0E945F0704EE11E05AEE70
:104F9000E52E51E0F52ED8018D918D018F3F11F056
:104FA0000E945F07E016F106B1F788E0E7EFF2E054
:104FB000DF01082F1D920A95E9F7E0EEF2E0DF012C
:104FC0001D928A95E9F790E080E00E94C332833E0B
:104FD0009E4F49F163EE7EEF90E080E00E94E23266
:104FE00060E082E090E00E94C83281E08093EA02B3
:104FF00061E083E090E00E94C83260E074E184E008
:1050000090E00E94E2320E94DC0D40E050E0BA01E4
:105010008FE090E00E94DA3240E050E0BA0183E194
:1050200090E00E94DA3282E090E00E94B6328093F3
:10503000ED0284E090E00E94C3329093EC028093F2
:10504000EB0283E090E00E94B6320E94100980914A
:1050500022030E943109982F81E0933009F080E00B
:105060000E94720980915A03882309F47DC180E06F
:105070008093430380E88093B703B3D66BE070E07E
:1050800089ED91E00E94B70E882309F445C0809114
:10509000430365E070E081FD69C184ED91E00E9409
:1050A000B70E8823C9F16DE070E082EC91E00E94B8
:1050B000B70E882389F10E94BC052D966CAF7DAF99
:1050C0008EAF9FAF2D97DC01CB01805A9541AF4F3A
:1050D000BF4F8093450390934603A0934703B0933B
:1050E0004803EAEBF3E080E092E0DF018C011D92DF
:1050F00001501040E1F7F093C105E093C0058FEF38
:105100009FEF9093B9038093B80381E080934C03A1
:10511000809349031092440380915A03811101C086
:10512000C3D70E949A12882309F423C183E0809395
:10513000190380915A0381112EC086E197E0909364
:105140004801809347012EE030E0309343012093E3
:1051500042018EE290E090934601809345014BE13D
:1051600057E05093500140934F0130934B012093EF
:105170004A0190934E0180934D0144E951E15093CF
:10518000580140935701309353012093520190935B
:1051900056018093550190E080E00E94C332833E27
:1051A0009E4FC9F58FE090E00E94BE32F62E172F79
:1051B000082F862F8F770E947D11FF1CFF24FF1C74
:1051C000612F6370660FF62AF092780112FB882730
:1051D00080F90E94B00B812F887F09F4CCC016950E
:1051E00016951695212F30E02F5F3F4F42E3429FE7
:1051F000C001439F900D11240E94A20B802F837049
:1052000080937901802F869586958F708B3008F07A
:105210008AE0809307030E94110F29833A834B830E
:105220005C836D837E838F83988780918C01581770
:1052300021F050938C010E94930B8D819E810E94DE
:10524000A20B8B8186FB882780F991E089270E9439
:10525000B00B8F818093650189E591E09093B6034F
:105260008093B50387EF92E028E0280F2F962FAFA9
:105270002F976E0133E0C30ED11C77247394809175
:10528000710310E400E142E1F42E853009F4B1C06D
:105290000E94DC1C3EEEE32E32E0F32E07EF12E01C
:1052A0008AEE91E02B969FAF8EAF2B9726EF32E0E0
:1052B0005C01C801F7015191DC014D91CD01D5018F
:1052C0006D915D0146232E173F0709F49EC05417C8
:1052D00091F3B0915A032E96BFAF2E979AEEA92E56
:1052E00091E0B92E27EF822E22E0922E512CF4016C
:1052F00061904F01D5018D915D016822F7012190E8
:105300007F01261441F12624412C33243394832D2C
:105310008221C9F02E96FFAD2E97FF23A1F049827E
:105320005A820E94DF139C838B8321E02D8391E0BE
:10533000832D862109F490E09E8349815A816B81F7
:105340007C818D8179DC4394330C36E04312DFCFCE
:10535000F70131976082539448E05412C8CF0E94FD
:105360007807FF24F39455C082E082CE8FEC91E061
:1053700096CE81E0DCCE8AE892E03ECF8091710348
:10538000843039F10E94C40E0E943F1B10926003CA
:1053900048E150E00FB6F894A895409360000FBE26
:1053A0001093600083B7817F846083BF83B781607F
:1053B00083BF7894889583B78E7F83BF0FB6F894A8
:1053C000A8958091600088618093600010926000D1
:1053D0000FBE0E94DC1CAAEEB1E0E7EFF2E0819183
:1053E0009D91892309F083C32F965FAD2F975E139C
:1053F000F6CF80917103853009F4C0CF1092660317
:105400000E9404140E946C0643CF541362CFBEDC8A
:10541000F12C0E943F1B882339F00E9478070E94DC
:1054200010190E94DE0E04C00E941019F110F9CF6D
:1054300086E0E4E5F3E0DE01119601900D928A9595
:10544000E1F71092560310925703109258031092EE
:1054500059038B819C81892B09F449C0E090520348
:10546000F09053030E94DF139C012E193F09909185
:105470004D03992309F45DC325313105C0F19F3FE8
:1054800019F09F5F90934D03FB80FF2059F00E941D
:10549000A1069FEF1F140CF491E0899F802D112429
:1054A00080935603FC80FF2059F00E94A1069FEFD5
:1054B0001F140CF491E0899F802D112480935703D1
:1054C00080915603882399F0F0905703FF2079F0DC
:1054D0000E94C106882309F43EC1809356038F2D94
:1054E0000E94C106882309F439C1809357038D8136
:1054F0009E81892B09F449C0E0905003F09051033C
:105500000E94DF139C012E193F0990914E039923AD
:1055100009F40AC321353105C0F19F3F19F09F5F9F
:1055200090934E03FD80FF2059F00E947F069FEF6D
:105530001F140CF491E0899F802D1124809358034F
:10554000FE80FF2059F00E947F069FEF1F140CF48D
:1055500091E0899F802D11248093590380915803F5
:10556000882399F0F0905903FF2079F00E94C1063A
:10557000882309F4F6C0809358038F2D0E94C1063A
:10558000882309F4F1C080935903BE016F5F7F4FF8
:1055900084E593E00E94DC0581110CC080915603E4
:1055A00090915703892B90915803892B909159031F
:1055B000892B11F00E94EB1386E0FE013196A4E5E1
:1055C000B3E001900D928A95E1F70E946C069091EC
:1055D000F602891721F08093F6020E94BC058091A3
:1055E0007103843009F4C3C080915A03882309F4FD
:1055F00046CE0E94BC05462F572FBC0180910E035A
:10560000811144C080910A0390910B03A0910C0377
:10561000B0910D038A019B01081B190B2A0B3B0B50
:10562000D901C801843F9140A105B10578F14093AB
:105630000A0350930B0360930C0370930D03809146
:10564000080390910903019690930903809308033E
:1056500019828E010F5F1F4F21E050E040E060E0B3
:1056600088E00E94E60F811106C0809108039091A6
:1056700009030A975CF081E080930E038093670131
:105680009981911101C080E0809368018091680147
:10569000882309F4F2CD0E94BC054B015C01809186
:1056A0000F0390911003A0911103B0911203A50173
:1056B0009401281B390B4A0B5B0BDA01C9010497D3
:1056C000A105B10580F119821A821B821C828E010C
:1056D0000F5F1F4F24E050E040E060E089E00E944F
:1056E000E60F8823C1F069817A8180916D019091E4
:1056F0006E010E94800B90936E0180936D016B810F
:105700007C8180916F01909170010E94800B909339
:10571000700180936F0180920F0390921003A0920A
:105720001103B092120380917201882309F4A5CD70
:1057300080917101898310E000E020E0AE014F5FAD
:105740005F4F61E08AE00E94E60F882309F495CD5F
:105750001092720192CD70925603C1CE709257038F
:10576000C6CE7092580309CF709259030ECF83E0D2
:105770008093E9008091E80082FF36CF8091E800B5
:1057800090E085FF05C00E9474048823D1F091E069
:105790008091E8008B778093E800992309F424CF67
:1057A0001A8219828EE1F60111928A95E9F7E9A130
:1057B000E983E150E43108F096C1F0E0EB5DFC4C88
:1057C00059C680E2A82EB12C7E0151E2E50EF11CF3
:1057D0008091E80085FD0AC08091E8008B77809376
:1057E000E8000E947404882399F3D1CF8091F100DE
:1057F000D7018D937D01B1E0AB1AB10849F7C7CF4E
:105800008CE28A8384E08B8388E08C8386E08D83BE
:105810007E821F82CE0101960E942904E5CEFAA065
:105820000BA11CA1412F602F8F2D0E94140EFA8214
:105830000B831C839827892798279E838D83E9CF24
:105840002DA13EA13227232732274CA16BA18AA18B
:105850000E94B50D1A82DECF8FE090E08FD6862FA2
:105860008F778A83661F6627661F7370770F762B84
:105870007B83809179018C831D82CCCFFAA01BA100
:105880000CA18FE090E07AD6272FBC014F2D10FBA2
:1058900047F9812F86958370522F5C7F582B8FE0BC
:1058A00090E088D68F2D0E947D11183008F017E007
:1058B00010937801033070F600937901CBCF8FE01D
:1058C00090E05CD6AB01BC018FE090E073D6C2CF14
:1058D0000E94DC0DBFCF809107038A831B829ACF81
:1058E0001AA11B3008F01AE0109307038FE090E034
:1058F00045D6AB01792F212F2F70220F220F837CE9
:10590000682F622BE1CF0E94110F22962FAF2297B2
:1059100023963FAF239724964FAF249725965FAFEA
:10592000259726966FAF269727967FAF27972896BD
:105930008FAF289729969FAF299727962EAD3FAD19
:10594000279732272327322723966EAD7FAD2397E3
:105950007627672776277B836A834C835D833F8323
:105960002E838887198656CF8AA19BA198278927DD
:10597000982723969FAF8EAF23978CA124968FAF45
:1059800024978DA125968FAF25978EA19FA198274B
:105990008927982727969FAF8EAF279788A58111D3
:1059A00001C08AE028968FAF289729961FAE2997C5
:1059B00088E0FE01EF5BFF4FAFEFB2E001900D9288
:1059C0008A95E1F748E050E060E472E0CE018F5B39
:1059D0009F4FFCD525968FAD259790918C01891707
:1059E00021F080938C010E94930B27968EAD9FAD82
:1059F00027970E94A20B24968FAD249786FB8827B9
:105A000080F9F1E08F270E94B00B28968FAD289780
:105A1000809365011FCF1A82CE0101960E9429044E
:105A20000FEF19E628E1015010402040E1F700C0D7
:105A300000000E94AB0588E08A83F601D8018D91B1
:105A40008D012B96AEADBFAD2B979D912B96BFAF21
:105A5000AEAF2B9789238193B2E00F3F1B0771F7FD
:105A60001B86D8CE6AA17BA17627672776278BA1D4
:105A70009AA19A838B83CE0104966039E1E07E0778
:105A800038F02CE1DC011D922A95E9F718A2C2CE6C
:105A90009B01245E3F4F40E9461B2139314008F409
:105AA0004CE150E0605B7D4F51D5F0CF6AA17BA106
:105AB0007627672776276039E1E07E0708F0CACEAF
:105AC0004CA14D3108F04CE1CB01840F911D81397F
:105AD000914010F040E9461B50E0605B7D4FCE01E5
