:10000000F5C4000010C500000EC500000C94E033DC
:100010000AC5000008C5000006C5000004C50000B0
:1000200002C5000000C500000C9437150C944B1954
:100030000C942129F8C40000F6C40000F4C40000A8
:10004000F2C40000F0C40000EEC40000ECC40000E4
:10005000EAC400000C941F16E6C40000E4C40000CB
:10006000E2C40000E0C40000DEC40000DCC4000004
:10007000DAC40000D8C40000D6C40000D4C4000014
:10008000D2C40000D0C40000CEC40000CCC4000024
:10009000CAC40000C8C40000C6C40000C4C4000034
:1000A000C2C40000C0C40000BEC4000005010902B3
:1000B000A10185020901A1000509190129081500FE
:1000C0002501950875018102050109300931158165
:1000D000257F95027508810609381581257F9501D0
:1000E00075088106050C0A38021581257F95017572
:1000F000088106C0C00660FF0961A1010962150000
:1001000026FF009520750881020963150026FF006F
:10011000952075089102C005010906A1010507197E
:10012000E029E71500250195087501810295017503
:100130000881010507190029FF150026FF00950613
:100140007508810005081901290515002501950587
:1001500075019102950175039101C0616263646547
:10016000666768696A6B6C6D6E6F707172737475B7
:10017000767778797A3132333435363738393052C8
:100180004542545F2D3D5B5D5C233B27602C2E2F49
:1001900000DA0281FFD9F1DB20A4A62EAF00A0C0B7
:1001A000D30000A1C8D30000AED580A81F408D1495
:1001B0002000783C1E1E140A050001010101010106
:1001C000010101020202020202020202030303030E
:1001D00003030303040404040404040505050505DE
:1001E000060606060607070707070808080809099C
:1001F00009090A0A0A0B0B0B0C0C0C0D0D0D0E0E47
:100200000E0F0F0F101011111112121313141415D9
:100210001516161717181819191A1A1B1B1C1D1D4D
:100220001E1E1F20202122222324242526262728A3
:1002300029292A2B2C2D2D2E2F30313232333435D3
:10024000363738393A3B3C3D3E3F404142434445D6
:10025000464748494A4C4D4E4F50515354555658B5
:10026000595A5B5D5E5F616264656668696B6C6D5F
:100270006F7072737577787A7B7D7E8082838587D5
:10028000888A8C8E8F91939596989A9C9EA0A2A313
:10029000A5A7A9ABADAFB1B3B5B7BABCBEC0C2C418
:1002A000C6C9CBCDCFD1D4D6D8DBDDDFE2E4E7E9D8
:1002B000EBEEF0F3F5F8FAFDFF2223252628292A94
:1002C0002C2D2F3032333536383A3B3D3E404243B9
:1002D0004547494A4C4E5051535557595A5C5E60F8
:1002E00062646668696B6D6F71737577797B7D7F0A
:1002F00081838587898A8C8E90929496989A9C9E09
:100300009FA1A3A5A7A8AAACAEAFB1B3B4B6B8B924
:10031000BBBCBEBFC1C2C3C5C6C7C9CACBCCCDCE8C
:10032000D0D1D2D2D3D4D5D6D7D7D8D9D9DADADB6F
:10033000DBDBDCDCDCDCDCDDDDDDDDDCDCDCDCDCFB
:10034000DBDBDBDADAD9D9D8D7D7D6D5D4D3D2D23A
:10035000D1D0CECDCCCBCAC9C7C6C5C3C2C1BFBE22
:10036000BCBBB9B8B6B4B3B1AFAEACAAA8A7A5A38D
:10037000A19F9E9C9A98969492908E8C8A8987854C
:1003800083817F7D7B79777573716F6D6B6968662B
:100390006462605E5C5A5957555351504E4C4A49FD
:1003A00047454342403E3D3B3A3836353332302FA5
:1003B0002D2C2A29282625232200AF00AE2020003C
:1003C000BABB004B657920B10020C0C100BEBF00A0
:1003D000484F005654003030200020202020B1BC6F
:1003E000BD0042616C6CB100B4B500B2B300C2C3D1
:1003F000004CB6B772B100202000290014001A008A
:100400000800150017002B00040016000700090063
:100410000A00E1001D001B00060019000500000095
:10042000E200E30091212C4190434C0013001200A4
:100430000C0018001C00240233000F000E000D00F9
:100440000B00870038003700360010001100000054
:100450004600E600913128422A000F7E3A003B0018
:100460003C003D003E000D7E0100010052002800CE
:100470004C000E7E0100500051004F002A00000089
:10048000010001000100010001004400430042009E
:10049000410040003F004500D300D2005200D1008F
:1004A0004B00010001004F00510050004E000000C1
:1004B00001000100010001000100010034022400DC
:1004C000250026002502010033022100220023001E
:1004D000300001002D021E001F002000300200002D
:1004E00027003700010001000100010021022F0058
:1004F00023021E0226021F02340020022E022D00BB
:100500003200890238022F022E00870232020000D8
:1005100001000100010001004C0001000A7E0B7E79
:100520000C7E01000100010001000100010001003A
:10053000087E01000100010001000100097E0000A9
:10054000007C007E01000100010001000F7E0D7E95
:100550000E7E010001000100010001000100010008
:100560000100017E0100047E027E037E057E000004
:10057000007C007E01000100010009025B00030114
:1005800000A0FA0904000001030101000921110182
:100590000F0122440007058103080001090401003E
:1005A00002030000000921110100012222000705B9
:1005B0008203200001070503032000010904020053
:1005C0000103000000092111010001224900070573
:1005D00084032000011201000200000008575900A6
:1005E0000400010102000114034B00650079006260
:1005F0000061006C006C00340034000000100359EE
:10060000006F0077006B0065006500730000000458
:1006100003090400000000000000002F000000009B
:100620000700070000123F123F1200242A7F2A12FF
:100630000036091E241B0018262912280000000776
:10064000000000001E214000000040211E00001498
:10065000083E08140008083E08080000003070003A
:100660000008080808080000003030000020100CC6
:100670000201001E2925231E0000223F2000002227
:100680003129292600122125251A001814123F109D
:10069000001725252518001E2525251800013109DC
:1006A0000503001A2525251A00062929291E000000
:1006B00000333300000000337300000814142222BA
:1006C0000014141414140022221414080002012926
:1006D0000502003E59555D3E003816111638003FA0
:1006E0002525251A001E21212112003F2121211E2E
:1006F000003F25252521003F09090901001E212170
:10070000291A003F0404043F0000213F210000108B
:100710002020201F003F040C1221003F2020202019
:10072000003F0204023F003F020C103F001E212147
:10073000211E003F09090906001E2129112E003F34
:10074000090919260012252529120001013F01017E
:10075000001F2020201F000718201807000F300C52
:10076000300F0021120C1221000304380403003161
:100770002925232100007F4141000001020C1020A7
:10078000000041417F00000402010204004040409B
:10079000404000000103040000102A2A2A3C003FC8
:1007A0002422221C001C22222224001C2222243F5C
:1007B000001C2A2A2A0C0000043E0505000C525297
:1007C000543E003F080404380000003D00000020B3
:1007D00040403D00003F080814220000013F200077
:1007E000003E023C023C003E0402023C001C22226D
:1007F000221C007E1422221C001C2222147E003E99
:100800000402020400242A2A2A120000021F2200E5
:10081000001E2020103E000618201806000E300C86
:10082000300E002214081422000E5050483E0022C0
:10083000322A26220008087741410000007F00008C
:1008400000414177080800180408100C000000005F
:10085000000000000000000000000000000000C0D8
:10086000F0F88C86C6E7FFFFFFFFFFFFFEFCFCF8F9
:10087000E080000000F0F0F00000C0E0F0707000D8
:100880000000000000000000000000000000000068
:100890000000000000F8F8F8000000000000000070
:1008A0000000000000000000000000F8F8F8000060
:1008B000F8F8F8000000000080E07078686C64C709
:1008C000C7C7C7C7C7E73F1F0F3FFFFFFFFFFFFFB8
:1008D0003F0F000000FFFFFF1E3FFFF3E18000001D
:1008E000F8FCFE3636363EBCB8000E3EFEF080F018
:1008F000FE3E0E0000FFFFFF060606FEFEFC700037
:10090000E6F6F63636FEFEFC000000FFFFFF0000B4
:10091000FFFFFF000000003C7F6360E0C0C0C0C07C
:10092000C0C0C0C0FFFFC06030180F030303010048
:1009300000000000000303030000000303030300A2
:10094000010303030303030301007070393F1F0712
:10095000010000000001030303030303030100007F
:10096000010303030303030100000003030300006A
:100970000303030010101000000000550000003EAB
:10098000635D5D637F417B77413E00001C22221C3A
:10099000003E0A003E0A00322A3C0026281E001CA7
:1009A0002A2C0000003F09360000001E2121000013
:1009B0000000003F0837001E2121001E2121003FBA
:1009C000090600213F2100222519001E2121003F98
:1009D0000936003F211E00213F21000F300F003E4D
:1009E000093E003F063F003F2020000011241FBEAB
:1009F000CFEFDAE0DEBFCDBF11E0A0E0B1E0EAEA80
:100A0000FCE602C005900D92AE3EB107D9F726E094
:100A1000AEEEB1E001C01D92AF35B207E1F70E9422
:100A200052290C941A36ECCA80918F0181111BC097
:100A30008EE1909190019923C1F0909191019111D3
:100A400016C09EE120915104211113C0292F20933B
:100A50008A0180938B01890F10928C0180938D0104
:100A600080938E0108958DE1E4CF90E0EBCF9DE17E
:100A7000E9CF20E0ECCFE0914E04F0914F043097A5
:100A800039F00284F385E02D309711F060E209958A
:100A90000895982FE091450440910C0457E0E41329
:100AA00002C080E008952E2F30E05E9FF0011124F7
:100AB000E35FFB4F8181681306C08081981303C0F8
:100AC00085818111EFCFF9013196E770E8CFE8ED2C
:100AD000F0E080818E7F80831092E2001092DA0035
:100AE0001092E100A0EEB0E08C9181608C93808147
:100AF0008F77808319BCA7EDB0E08C918E7F8C93AB
:100B000080818F7E80831092F60308952091E40007
:100B10003091E50095E6A9012091EC00822F8170CB
:100B200020FF06C08091E80080FF06C080E00895A5
:100B30002091E80022FD1AC080910204882389F0E8
:100B4000853089F08091EB0085FD0FC02091E40095
:100B50003091E50042175307F9F29150E1F684E035
:100B6000089582E0089583E0089581E008958091DA
:100B7000040487FF13C08091E80082FF06C08091C3
:100B8000E8008B778093E80004C080910204811113
:100B9000F2CF0895809102048823D9F38091E80070
:100BA00080FFF8CF8091E8008E77ECCF982F90935C
:100BB000E900242F762F50E0891731F07091EC0076
:100BC0002091ED005091F00021FD07C09F5F97300C
:100BD00071F78093E90081E008953091EB003E7F4A
:100BE0003093EB003091ED003D7F3093ED0030917C
:100BF000EB0031603093EB007093EC002093ED003C
:100C00005093F0002091EE0027FDE0CF80E00895A2
:100C1000B0E0A0E0EEE0F6E00C940F35C8EDD0E0D7
:100C200088818F7E8883E7EDF0E08081816080831A
:100C300084E082BF81E08093F60388818E7F888381
:100C400002EE10E0F80110821092DA0081EEC82E58
:100C5000D12CF601108288818F7788838881806803
:100C6000888388818F7D888319BC1092020410923A
:100C70000304109201041092000490EEE92EF12C6E
:100C8000F70180818B7F808388818160888342E047
:100C900060E080E08BDFF60180818E7F8083F80149
:100CA000808181608083808188608083F70180817A
:100CB0008E7F8083888180618883CDB7DEB7E8E04E
:100CC0000C942B35FC01CB0120910A0430910B04CC
:100CD0002617370790F0009729F42091E8002E7727
:100CE0002093E80040E0009751F4411108C0809142
:100CF000E80082FF31C080E00895C901F3CF209160
:100D000002042223A9F12530A9F12091E80023FD56
:100D10002DC02091E80022FDEACF2091E80020FFBD
:100D2000E2CF3091F3002091F200009719F02830C3
:100D3000310558F041E02830310509F040E02091BC
:100D4000E8002E772093E800CECF41914093F10048
:100D500001972F5F3F4FE9CF80910204882341F034
:100D6000853041F08091E80083FFC1CF81E0089594
:100D700082E0089583E0089508950895089587E72F
:100D800097E7909301088093000888E19AE00FB6F6
:100D9000F894A895809360000FBE90936000FFCFF9
:100DA000A4E0B0E0E6EDF6E00C9415358FB7F894CA
:100DB0002091F2033091F3034091F4035091F50335
:100DC00029833A834B835C838FBF69817A818B81CE
:100DD0009C812496E2E00C9431358091870108953E
:100DE000DC01FB0111969C9111978181981322C01F
:100DF00012968C911297882319F0928189131AC048
:100E000013968C911397882319F09381891312C03C
:100E100015968C911597882319F0958189130AC02E
:100E200014969C91992321F081E02481291303C019
:100E300080E001C081E081700895DC01E0914E0402
:100E4000F0914F04309759F086819781892B39F0C2
:100E500082E08C930680F781E02DCD0109950895FD
:100E600080915004882369F0E0914E04F0914F0482
:100E7000309739F00190F081E02D309711F009950D
:100E8000089580E008958091E60380FD16C081FDFD
:100E900016C082FD16C08091E5038823A1F0883238
:100EA00080F428E0829FC001112468E270E00E9473
:100EB0004835862F672B39F0089582E0089584E045
:100EC000089588E0089581E008958091E60380FD0B
:100ED00014C081FD14C082FD16C08091E4038823F4
:100EE00081F08E3180F420E5829FC00111246EE1F3
:100EF00070E00E944835862F089584E1089588E2C5
:100F0000089588E0089580E50895282F35EB2303A0
:100F1000C001112497FF04C080589109892F0895BA
:100F200080589F4FFBCFFC01680F791F8FEF91E333
:100F30002191822728E030E087FF09C0880F8927A8
:100F400021503109C9F7E617F70791F70895880F7F
:100F5000F7CFFC01EE0FFF1FE80FF91FE05DFC4F1C
:100F60006183408322830895539A0895E2E0F3E079
:100F700011828281846082830895CF938091460498
:100F800080FF04C00E946110CF910895C0918C0130
:100F900080918D01C817B0F780918A019C2F981B12
:100FA000892F20E040E060E090E0D3DFCF5FF0CF1A
:100FB0000F931F93CF93DF93D82F162F042F809179
:100FC0004604C0918C0180FD10C0DF91CF911F912C
:100FD0000F91089580918A019C2F981B892F202FB3
:100FE000412F6D2F90E0B5DFCF5F80918D01C81745
:100FF00088F3C3DFEACFB0E0A0E0E1E0F8E00C94D2
:101000000D35262FD72EE82FF0E0E754FE4F711153
:101010000AC0E4918E2F9E2F6E2F792FCDB7DEB7A9
:10102000EAE00C942935072F10E0E4914E2F56E0AA
:10103000659F70011124CFEFD0E0C701BE010E946F
:10104000F134822F90E0880F991F55E5569F90014B
:10105000579F300D1124821B930B582F550F580F9B
:10106000CE01801B910BE89F9001E99F300D112468
:10107000932FD59ED0011124AB2FBB276E01CA1A26
:10108000DB0AEC9DD001ED9DB00D11248B2F5E018C
:10109000A51AB108A09E6001A19ED00CB09ED00CF4
:1010A0001124CD2CDD24CC19DD09EC9F8001ED9FAE
:1010B000100D112463307105D1F05CEFE51653E09B
:1010C000F50670F461307105B1F062307105B9F068
:1010D0004FEFE416F10408F09FCF832F912F9CCFA0
:1010E0006430710579F066307105B9F395CFE32F5F
:1010F0009B2F842F91CFEB2F832F942F8DCF812F78
:10110000E32FFBCF8E2FE12F87CF982F762F842FC1
:101110002091460420FF0AC0473908F086E9692F6C
:101120006ADF962F672F482F892F42CF0895CF93DC
:10113000DF93EC01E6E4F4E0438162818C81E5DF3A
:101140008C818F5F8C83DF91CF910895CF93DF9354
:10115000EC01EC81F0E0E754FD4F4491E6E4F4E06B
:1011600062818181D2DF8C818F5F8C83DF91CF910F
:10117000089590917A01882341F09F5F90937A01BE
:10118000109277011092760108959150F7CFEFE613
:10119000F1E0828591E08927828710861782089581
:1011A00080917801811114C080917A01811110C061
:1011B0008091790181110CC09091FB0296959695D2
:1011C000969581E020917001921380E081700895DE
:1011D00081E0FCCF80918F01F901808325CCCF93F2
:1011E000DF93EFE8F1E083819481A581B681E90185
:1011F00088839983AA83BB83148213821682158203
:10120000DF91CF91089580E0089563E070E08AE572
:1012100092E089DE90915902891318C0E0915A0238
:10122000EC30A4F488E0E802F0011124EF5FFE4FF7
:101230000680F781E02D309749F02DE732E04091AC
:101240005C026DE572E080915B0209950895E4E42B
:10125000F2E0878980933101808D80934401089565
:10126000F894E82FE295EF70F0E041A18F7021E053
:1012700030E0B90102C0660F771F8A95E2F7CB0113
:10128000962F9095942391A392A1892B82A3789471
:101290000895A4E0B0E0EFE4F9E00C9415358091F6
:1012A0005004882369F07CDD69837A838B839C8377
:1012B00069817A818B819C812496E2E00C9431359E
:1012C0006FDD69837A838B839C838091B2029091D6
:1012D000B302A091B402B091B50229813A814B8149
:1012E0005C81280F391F4A1F5B1F29833A834B8378
:1012F0005C83DECF811522E59207D0F5811530E5BC
:10130000930708F0B2C0883E9105D8F4803E91055D
:10131000B8F4853A910558F48430910588F431E0A9
:1013200020E0019709F030E0832F922F08959C016F
:101330002D5C31092331310508F473C090E080E061
:101340000895811540E4940780F4811550E29507D3
:1013500008F0A5C09C013A9521153F4178F720E09F
:10136000392FA901482BCA0108959F70906A0895EA
:10137000803852E59507B8F5803622E5920708F0E7
:1013800059C0803432E59307C8F4803242E59407AF
:1013900008F049C0282F2695269550E2259F9001F8
:1013A0001124482F437081E090E002C0880F991FFC
:1013B0004A95E2F7822B932B9D680895282F269556
:1013C0002695277040E2249F90011124482F4370F6
:1013D00081E090E002C0880F991F4A95E2F7822BC6
:1013E000932B9C680895803C52E5950760F4282F64
:1013F0002F71803A924598F5822F90E0982F882798
:10140000846F906A08959C01205C3245203231053A
:1014100008F094CF982F882788279F71806F906A53
:101420000895906508958F7190E0982F8827816FB7
:10143000906A0895282F26952695277050E2259FBB
:1014400090011124482F437081E090E002C0880F82
:10145000991F4A95E2F7822B932B9A680895822F61
:1014600090E0982F8827906208959C0195E036952A
:1014700027959A95E1F72F7030E0322F2227482FD9
:101480004F7150E084FF06C084E0440F551F8A95D9
:10149000E1F75527C901842B952B906908959F7119
:1014A000E2CF982F90958091F70389238093F703DB
:1014B00008958091450490910C04981301C00895FB
:1014C0008F5F8770FACF292F983078F5863068F5CE
:1014D00090E036E0239F800D911D1124682F6770E6
:1014E00023E0969587952A95E1F7FC01EE0FFF1F03
:1014F000E80FF91FEB5EFD4F50E040E080E02191E6
:1015000030E0062E02C0369527950A94E2F7217046
:101510003327042E01C0220F0A94EAF7822B4F5F73
:101520005F4F4330510559F7089580E00895292F02
:10153000983090F5863080F590E036E0239F800D5E
:10154000911D1124282F277041E001C0440F2A95D6
:10155000EAF723E0969587952A95E1F7FC01EE0FCF
:10156000FF1FE80FF91FEB5EFD4F90E080E070E099
:101570005191DF0111979B01082E02C036952795E6
:101580000A94E2F7217021952527242325272C93FF
:1015900001968330910561F708958093C002089504
:1015A000982F82958F7011F0982F84E0292F26951F
:1015B000269511F08E5F922F969509F08F5F089512
:1015C0009C019A9581159F4150F5D901AA27B170C8
:1015D000F901EE27F270B90166277470A90144275A
:1015E000587034FF0EC080E1AB2B09F480E0EF2B84
:1015F00009F08062672B09F08064452B89F08068D0
:10160000089581E0AB2B09F480E0EF2B09F08260B4
:10161000672B09F08460452B19F08860089580E0FD
:101620000895CF93C82F80919C018C1749F0B8DBA7
:1016300060939D0170939E0180939F019093A00100
:10164000C0939C01CF910895CF93C82FA9DF982F05
:1016500081E0933009F080E0E4DFC0930503CF918F
:10166000089521E030E001C0220F8A95EAF7209525
:10167000809105038223E8CF9091FB028095892316
:101680008093FB02282F277061F4891751F0909105
:10169000C20292FF06C0869586958695E2DF10927B
:1016A000FB02089521E030E001C0220F8A95EAF79D
:1016B00080910503822BC8CF0F931F93CF93DF93A5
:1016C000EC01FB018091A101811101C084E08150F6
:1016D000990B02E010E002C0000F111F8A95E2F79B
:1016E00088819981B8010E9448359B01998388833C
:1016F0008A819B81B8010E9448359B838A83613827
:101700008FEF7807F4F060387105ECF465832138C9
:101710008FEF3807D4F020383105CCF4822F819533
:101720008483442319F06195658324838091A20109
:10173000882379F0813079F0DF91CF911F910F915B
:10174000089561E8E3CF6FE7E1CF21E8E7CF2FE726
:10175000E5CF1582F1CF1482EFCFFC01DB012281AE
:10176000338121388FEF380704F120383105FCF43C
:1017700012962C9312978081918181383FEF9307C5
:10178000C4F080389105BCF413968C9313974423CE
:1017900039F0219512962C931297819513968C937C
:1017A0001182108213821282089521E8E1CF2FE77F
:1017B000DFCF81E8E9CF8FE7E7CF8F708A3010F471
:1017C000805D0895895A089520E297FF04C091959D
:1017D000819591092DE2EAE0F0E0BF010E944835D1
:1017E000805D8093FB016115710559F42093FA0126
:1017F00020E22093F90120E22093F80188EF91E0A4
:101800000895CB01BF010E944835805D8093FA01A5
:101810006115710571F3CB01BF010E944835805DF0
:101820008093F901E9CFAC01860F971F57FD07C0E0
:1018300077FD04C097FF02C08FEF9FE7089577FF01
:10184000FDCF97FDFBCF80E090E80895E8E7F1E059
:1018500083E0DF011D928A95E9F7E4E7F1E084E097
:10186000DF011D928A95E9F708959C01809171012D
:10187000909172018217930729F03093720120939F
:101880007101E4CF089590916F01981719F080933A
:101890006F01DCCF0895CF936DEE72E085EF92E09B
:1018A0009FDAC82F882319F085EF92E0C6DA90916D
:1018B000F60286E0E5EFF2E0DF01282F1D922A957F
:1018C000E9F79093F602ADEEB2E001900D928A95A1
:1018D000E1F781E0C11103C0911101C080E0817086
:1018E000CF910895CF93DF93282F81E02A3019F00C
:1018F0002D3029F480E088D0DF91CF910895809138
:101900005B0690915C0636E0FC01A5E5B6E001902F
:101910000D923A95E1F730EE320F343A08F458C0A0
:1019200026E0FC0111922A95E9F7C0915B06D0915F
:101930005C0646E050E0BE0185E596E00E94AD35CC
:101940009E0125553440892B41F1C90145E096950A
:1019500087954A95E1F741E050E0BA0102C0660F71
:10196000771F8A95E2F7CB0160915304709154047C
:10197000862B972BB9016B5F7F4FE5E076956795D6
:10198000EA95E1F702C0440F551F6A95E2F7842BF0
:10199000952B90935404809353042A5F3F4F4091BA
:1019A0005204642F70E0C9010E94F134481B463094
:1019B00010F4240F311D211572E0370710F030E0CC
:1019C00020E02B5A3B4F30935C0620935B0694CF6C
:1019D0002052330B46E0429FB001439F700D11240B
:1019E0006D5E794F46E050E00E9497359ECFCF93D1
:1019F000DF93EC01FE018491811103C0DF91CF914F
:101A0000089570DF2196F6CFCF93382FE0915B06D3
:101A1000F0915C06E555F44020915204622F70E08D
:101A2000CF010E94F134281B822F332359F066E046
:101A30000E943C35C82FC15010F4CF91089580E228
:101A400051DFF9CF9F01280F311D2115324018F0C9
:101A500080E0F0E0E0E08E0F9F2F911D8B5A9B4FAE
:101A600090935C0680935B06E8CF8091F70390919A
:101A70002F02892B90912E02992389F0892B90E0D7
:101A800022EF31E0F90140812F5F3F4F41119F5F0D
:101A900041E0283F3407B1F7911110922E02809354
:101AA000F00148E050E060E372E080EF91E00E94D6
:101AB000AD35892BB9F088E0E0EFF1E0A0E3B2E0CA
:101AC00001900D928A95E1F7E0914E04F0914F0458
:101AD000309741F00280F381E02D309719F080EFCC
:101AE00091E009950895882339F0809590912F020F
:101AF000892380932F02B9CF0895882331F09091E4
:101B00002F02892B80932F02B0CF0895882311F0E4
:101B1000C8DCABCF0895882331F09091F703892B6F
:101B20008093F703A2CF08950F931F93CF93DF9372
:101B3000EC01FC0101900020E9F78F01015011092F
:101B4000C017D10728F0DF91CF911F910F91089511
:101B50008991C8DEF5CF0F93CF93DF93C6E4D4E02D
:101B6000488159816A817B8188E090E00E94F73545
:101B7000288139814A815B816C817D818E819F8141
:101B800000E20E947C35622F83E290E00E94E535FE
:101B9000DF91CF910F9108950F931F93CF93DF9310
:101BA000D82F162FC42F022F8091460480FF34C0F7
:101BB000209147042D1308C090914804961304C047
:101BC00090914904941729F09091040392609093A6
:101BD0000403E82FE695E695F0E0E253FE4F90818E
:101BE000909302038C7F8430E1F48C2FC73908F086
:101BF00086E96D2F712FFFD9962F672F482F892FD8
:101C0000D7D9D093470410934804C09349040023C4
:101C100019F086E494E09FDFDF91CF911F910F913F
:101C20000895923019F4C0914904EBCF963049F7EA
:101C3000D22FE7CFE6E4F4E043812FE0421B08F423
:101C400040E021E062818181A7CFE6E4F4E04381B6
:101C50002FE0420F08F44FEF21E0628181819CCF99
:101C6000E6E4F4E0628121E1621B08F460E021E037
:101C70004381818191CFE6E4F4E0628121E1620F4A
:101C800008F46FEF21E04381818186CFE6E4F4E040
:101C9000818121E04381628181517ECFE6E4F4E0DD
:101CA000818121E0438162818F5E76CF80914A04F9
:101CB000882319F0815080934A0486E494E04BCF46
:101CC00080914A04833018F48F5F80934A0486E43D
:101CD00094E041CFE6E4F4E080818E7F8083CF0101
:101CE0003ADF44D9E2E0F3E082818160828345C932
:101CF000E6E4F4E089E080838AEA81838FEF8283DF
:101D000080E883838483E2E0F3E0828183608283DE
:101D100086E494E020CF1F93CF93DF93962F122F6A
:101D2000632F8430D8F49830C8F44630B8F4C42F08
:101D3000D0E0CC0FDD1F2CE0929FC00DD11D1124EF
:101D400090E6899FC00DD11D1124CE0185960E9479
:101D5000E535612FCE0186960E94E535DF91CF9162
:101D60001F910895AF92BF92CF92DF92FF920F938F
:101D70001F93CF93DF93B12CA12C00E0650110E0FD
:101D800012C0FE01259134914F2D612F802FC3DFAA
:101D90002296F39486E0F812F4CF86E0C80ED11CA8
:101DA0001F5F183039F0E601CC0FDD1FC650DC4F45
:101DB000F12CE7CF0F5F80E3A80EB11C0430F1F6E1
:101DC000DF91CF911F910F91FF90DF90CF90BF9047
:101DD000AF9008954F925F926F927F928F929F92F1
:101DE000AF92BF920F93CF93DF9300D000D0CDB7C7
:101DF000DEB788E090E00E94DB352B013C01A6E4D1
:101E0000B4E06C9350924704809348047092490464
:101E100010924A0410924B0410924C0410924D04FC
:101E200083E290E00E94D335282F30E040E050E07C
:101E300060E070E080E090E000E20E9461352429DB
:101E4000352946295729E6E4F4E0208330934704F6
:101E5000409348045093490460934A0470934B04A0
:101E600080934C0490934D040F900F900F900F901F
:101E7000DF91CF910F91BF90AF909F908F907F9007
:101E80006F905F904F9008950F931F93CF93DF93C0
:101E9000843030F5683020F5463010F5C42FD0E09E
:101EA000CC0FDD1F2CE0629FC00DD11D112430E648
:101EB000839FC00DD11D1124CE0185960E94D3357C
:101EC000082F10E0102F0027CE0186960E94D335F0
:101ED0009801282BC901DF91CF911F910F9108958F
:101EE00090E080E0F8CF462F672F783028F4463016
:101EF00018F4843008F4C8CF80E090E00895B0E092
:101F0000A0E0E5E8FFE00C9410357C0100910503AA
:101F10008091C002082BC3E0D0E010E0DC2EC801A5
:101F20000C2E02C0959587950A94E2F780FD09C0B2
:101F30002197A0F7D12C8D2DCDB7DEB7E7E00C941B
:101F40002C35B7018C2FCFDFD5D9019789F3F3CF8B
:101F5000CF93DF93D82FC92FD2DF6D2F7C2FC3DF14
:101F6000C9D9DF91CF910895FC018481882399F02C
:101F700080819181EDDF282F92959F70963091F0AE
:101F800060F4925F9F70923030F481E0203F81F0E6
:101F900030F4283E30F080E004C09A5FF3CF243F55
:101FA000D1F7089581E0283E20F0213FA1F7F9CF35
:101FB00008950895A6E0B0E0E0EEFFE00C9414353B
:101FC0009C0186E0F901DE01119601900D928A953F
:101FD000E1F7F901258189819A81222381F0662325
:101FE00071F08DDF182F682F89819A81A0DA6981BD
:101FF0007A81812F78DF2696E3E00C94303563DA1E
:10200000182FF5CF0F931F93CF93DF938B01EA0126
:1020100090910204943061F58093E9008FEF9091E4
:10202000E800815095FD06C095ED9A95F1F7000006
:102030008111F5CF8091E80085FF1AC00E948605C6
:10204000811111C08091E80085FD06C08091E800F3
:102050008E778093E800F2CFF80181918F01809311
:10206000F100219779F78091E8008E778093E8005E
:10207000DF91CF911F910F910895BC0146E050E090
:1020800084E0C0CFCF93DF93D82FC92F48E050E032
:10209000682F792F81E0B6DF88E0ED2FFC2FA8EFC5
:1020A000B3E001900D928A95E1F7DF91CF91089509
:1020B000792F603229F440E250E0682F82E0A2CF0D
:1020C00008953BB1377F2BB128604FB7F89480E378
:1020D00093E0FC010196508168E02BB9000000C03C
:1020E00057FF3BB9550F000000C000C000C03BB90E
:1020F00000C06A9591F753E0843E950751F74FBFB2
:102100008FE594E00197F1F700C000000895B0E07A
:10211000A0E0EDE8F0E10C940D35F82EE92ED62E76
:10212000C72E8A018091B102AA24A394B12C8A30CF
:1021300018F48AE0A82EB12CC1E0D0E06D2D7C2DE2
:102140008F2D9E2DF8010995811104C02196AC16A2
:10215000BD062CF4CDB7DEB7EAE00C942935CC9F50
:102160009001CD9F300D300D112490E080E045E3CB
:102170004A95F1F70000019682179307C1F7DECF69
:10218000AB0124E630E0BC0188E70E94B6329C0136
:1021900081E0232B09F080E0089580912C03909139
:1021A0002F03911103C091E089270895882361F0DE
:1021B00062E070E08BEB93E0E3DF811103C080917C
:1021C0002C03089510922C0380912C03ECCFA5E0F2
:1021D000B0E0EDEEF0E10C94153580912C038D8389
:1021E00080912F038823E9F00E94D006DC01CB0107
:1021F000805A9541AF4FBF4F809328039093290396
:10220000A0932A03B0932B038D81811107C062E054
:1022100070E089EB93E0B4DF811108C080912C035A
:102220008D838D812596E2E00C94313581E0809399
:102230002C03F4CFA8E0B0E0E0E2F1E10C94153516
:102240008091020281113FC048E050E060E472E0FA
:1022500089ED92E00E94C3358091D9029091DA0213
:10226000C297873B934068F0EBEDF2E086E0DF0138
:102270001D928A95E9F788EC90E09093DA028093BA
:10228000D9028091DC028150873018F081E0809380
:10229000DC028091DD029091DE0284569109853244
:1022A000934130F08AE892E09093DE028093DD0261
:1022B0008091DF028150843618F08AE08093DF023B
:1022C00081E08093020288E0E9EDF2E0DE01119600
:1022D00001900D928A95E1F729813A814B815C81C9
:1022E0006D817E818F8198852896E2E00C9431354E
:1022F0009091C20292FB222720F9281771F080FBEF
:1023000092F99093C2026091C1027091C20284E07E
:1023100090E00E94FF3582E0AFC90895B0E0A0E0F0
:10232000E4E9F1E10C940F35FA0169017801C82F55
:10233000880FDD0B3097B1F0DE0193E0AA0FBB1FD1
:102340009A95E1F7AF5FBE4F11968D919C911297D0
:102350008C5B9D4F4C9150E0E417F50708F4AF01FA
:102360000E94BA35CE010E948134182F8823D1F003
:10237000E114F104B9F083E0CC0FDD1F8A95E1F799
:10238000FE01EF5FFE4F438150E0E416F50608F4CE
:10239000A701CF5FDE4F6C817D816C5B7D4FC601F5
:1023A0000E94BA35812FCDB7DEB7E8E00C942B350B
:1023B000A5E0B0E0EEEDF1E10C940D358D83E62E55
:1023C0005A01F22E68018091B1028A3028F080E033
:1023D0002596EAE00C9429358D818930C4F3198261
:1023E0008A836B832C8363E070E0CE0102960E94A7
:1023F00093078983E0923101F092440110E000E0FC
:1024000030E020E044E050E0BE016F5F7F4F85E0A8
:1024100085DF8823E1F24E2D50E030E020E0B50169
:1024200086E07CDF882399F230E020E041E050E054
:10243000BE016B5F7F4F87E071DF882341F20F2D74
:1024400010E0960150E040E070E060E088E066DF78
:10245000BFCFA8E0B0E0EFE2F2E10C940F35C090FE
:10246000A502D090A602E090A702F090A8020E94D8
:10247000D006DC01CB018C199D09AE09BF0911E022
:1024800084369105A105B10518F10E944909DC01C6
:10249000CB010296A11DB11D89839A83AB83BC83B6
:1024A00010E000E030E020E044E050E0BE016F5F6B
:1024B0007F4F82E033DF182F882351F00E94D0062F
:1024C0006093A5027093A6028093A7029093A8023E
:1024D000812F2896E8E00C942B358F929F92AF9233
:1024E000BF92EF92FF920F931F93CF93DF93CDB7DD
:1024F000DEB729970FB6F894DEBF0FBECDBF7B01C4
:1025000001E010E09E012B5F3F4F50E040E070E0A3
:1025100060E080E003DF182F882309F44EC080902C
:10252000A1029090A202A090A302B090A4020E94E7
:10253000D006DC01CB0188199909AA09BB098436A8
:102540009105A105B10548F464E070E085E492E0EE
:102550000E9493079D81891781F104E010E09E019C
:102560002F5F3F4F50E040E070E060E081E0D6DE5A
:10257000182F64E070E085E492E00E94930791E0F8
:102580002D81281390E0192331F10E94D006609329
:10259000A1027093A2028093A3029093A402898166
:1025A0009A81AB81BC8180939D0290939E02A093FF
:1025B0009F02B093A00211E00EC08091450290915D
:1025C0004602A0914702B091480289839A83AB8367
:1025D000BC831111E4CF80919D0290919E02A09145
:1025E0009F02B091A002F70180839183A283B383FD
:1025F000812F29960FB6F894DEBF0FBECDBFDF91B5
:10260000CF911F910F91FF90EF90BF90AF909F904F
:102610008F9008954F925F926F927F92AF92BF9288
:10262000CF92DF92EF92FF920F931F93CF93DF939E
:1026300000D000D000D0CDB7DEB78D837B01A42EB3
:10264000D22E3E83B02EC12EDB014D905D906D9059
:102650007C900E94D006DC01CB0184199509A60963
:10266000B70984369105A105B10510F4AA2051F1EE
:1026700010E000E030E020E04B2D5C2D6D2D7E81E0
:102680008D814CDE8983882339F00E94D006F701C2
:102690006083718382839383898126960FB6F89431
:1026A000DEBF0FBECDBFDF91CF911F910F91FF9085
:1026B000EF90DF90CF90BF90AF907F906F905F9042
:1026C0004F900895F1E0F983E7CFA1E0B0E0EBE6A9
:1026D000F3E10C94133580912C03898320915802E7
:1026E00090E041E02817190609F440E001E010E00D
:1026F0009E012F5F3F4F6DEA72E084E08BDF2196F1
:10270000E4E00C942F35ABE0B0E0E9E8F3E10C94A1
:10271000133588E0E6E4F4E0DE01119601900D92B5
:102720008A95E1F78091020390910303A09104033D
:1027300089879A87AB8741E08B85811101C040E092
:102740000BE010E09E012F5F3F4F69EA72E083E0EB
:1027500061DF8111109204032B96E4E00C942F3575
:1027600028E030E043E060E086E30C947931CF93D9
:10277000DF93D82FC62FF4DF8D2F80680E948B3116
:102780008C2F0E948B318AEB8A95F1F700C00E9452
:10279000BB3183E492E00197F1F700C00000DF91C4
:1027A000CF910895682F893708F068E760939A0100
:1027B00091E090939B0190918F01992349F0615092
:1027C000811101C064E0683708F067E78FE0CFCF80
:1027D0000895FB018081E6CF282F80919A01811115
:1027E00001C085E0022E000C330B820F932F911D48
:1027F0001816190614F081E090E0D4CFACE0B0E0F8
:10280000E4E0F4E10C9411354F83588769877A87A7
:102810008B879C8780918F01882309F444C0809125
:10282000FD01811106C060E080E5A1DF81E08093B9
:10283000FD0196DF80E50E948B310AEB0A95F1F7E6
:1028400000C00E94A3310E94A3310E94A3317C01E9
:102850000E94A33160E0E62AF82A0E94A3318C018D
:102860000E94A33120E0022B182B0E94BB3125E0EF
:102870002A95F1F70000F894B701809192019091A8
:1028800093010E94130C9093930180939201B801DD
:1028900080919401909195010E94130C9093950161
:1028A00080939401789480915004882309F469C03E
:1028B0000E94D006462F572FBC018091FE019091B7
:1028C000FF01A0910002B09101028A019B01081B47
:1028D000190B2A0B3B0BD901C8010897A105B105BB
:1028E00008F44FC04093FE015093FF016093000233
:1028F0007093010280919D0190919E01A0919F0192
:10290000B091A001481B590B6A0B7B0B4233510558
:102910006105710580F4109293011092920110925A
:1029200095011092940110929701109296011092C5
:102930009901109298011091510480919C01412FAE
:10294000BE01695F7F4F882389F182E991E00E948F
:102950005C0B41E0412790919C0180918F01BE0169
:10296000695F7F4F981739F186E991E00E945C0B0F
:1029700086E0FE013796A7EAB1E001900D928A95B4
:10298000E1F786E0FE013796DE01119601900D9287
:102990008A95E1F729813A814B815C816D817E8145
:1029A00080E090E02C96E6E00C942D3582E991E0F1
:1029B0000E94AD0BCECF86E991E00E94AD0BD8CF3F
:1029C000CF93C82FCDDE8C2F0E948B318FE792E002
:1029D0000197F1F700C000000E94A331C82F95E0D5
:1029E0009A95F1F700000E94BB3185E68A95F1F7D0
:1029F00000001092FD018C2FCF910895CF93DF93AB
:102A00000E94E830269AACDE6AE58AE3B0DE2FEF5A
:102A100080E792E0215080409040E1F700C0000044
:102A200082E0CEDF83E0CCDF84E0CADF85E0C8DF70
:102A300086E0C6DF60E080E19ADE80E0C1DFD82F6B
:102A400081E0BEDFC82F0E94BB31D23419F481E08F
:102A5000C13009F080E0817080938F01882319F0E4
:102A600064E08FE084DE81E0DF91CF9108951F92D2
:102A70000F920FB60F9211242F933F934F935F93B2
:102A80006F937F938F939F93AF93BF93EF93FF9336
:102A90008091E10082FF09C08091E20082FF05C0C1
:102AA0008091E1008B7F8093E1008091DA0080FFCC
:102AB00024C08091D80080FF20C08091DA008E7FF2
:102AC0008093DA008091D90080FFA9C080E189BDA0
:102AD00082E189BD09B400FEFDCF81E0809302044C
:102AE0008091F603811109C00E9467050E940806C3
:102AF0008091E20084608093E2008091E10080FF99
:102B00001AC08091E20080FF16C08091E2008E7FA3
:102B10008093E2008091E20080618093E2008091E6
:102B2000D80080628093D80019BC85E080930204AD
:102B300083E0809389018091E10084FF2FC0809120
:102B4000E20084FF2BC080E189BD82E189BD09B428
:102B500000FEFDCF8091D8008F7D8093D8008091BA
:102B6000E1008F7E8093E1008091E2008F7E809370
:102B7000E2008091E20081608093E2008091030492
:102B8000882309F452C084E08093020480910204F7
:102B9000843009F452C081E0809389018091E10082
:102BA00083FF2CC08091E20083FF28C08091E10068
:102BB000877F8093E10082E08093020410920304F7
:102BC0008091E1008E7F8093E1008091E2008E7F12
:102BD0008093E2008091E20080618093E20042E015
:102BE00060E080E00E94D6058091F00088608093CC
:102BF000F00081E08093890180938801FF91EF913B
:102C0000BF91AF919F918F917F916F915F914F9104
:102C10003F912F910F900FBE0F901F90189519BCE8
:102C2000109202041092F60368CF8091E30087FDB2
:102C300002C081E0A9CF83E0A7CF82E0ADCF789436
:102C40001F921FB61F9211248F939F93AF93BF9330
:102C50008091F2039091F303A091F403B091F503F6
:102C60000196A11DB11D8093F2039093F303A093ED
:102C7000F403B093F503BF91AF919F918F911F9093
:102C80001FBE1F9018952FB7F8948091F203909172
:102C9000F303A091F403B091F5032FBF0895F3DF80
:102CA0002091ED033091EE03232B21F08093E90373
:102CB0009093EA032091EF033091F003232B21F04E
:102CC0008093E7039093E8038BEE93E00C941D0749
:102CD000CF93C6E0E2EFF1E0DF018C2F1D928A95E1
:102CE000E9F710922F020E94350DEBEEF3E0DF01C1
:102CF0001D92CA95E9F71092E4031092E503109231
:102D0000E603CDDFCF910895AAE2B0E0EAE8F6E16C
:102D10000C94143584E094E0FC0101962091F100BC
:102D2000208324E08C309207B9F780910504893024
:102D300009F45BC0C8F4823009F4B8C0833009F4E8
:102D400087C0813099F18091E80083FF3BC1809179
:102D50000404909105049A3008F034C1E92FF0E0A2
:102D6000E45EF94C0C945B358A3009F48EC08B30EC
:102D700051F780910404813231F7809108049091D9
:102D80000904892B01F78091E800877F8093E80090
:102D90000E94B70581E090910604911101C080E086
:102DA000809388011092F70393DFCDCF80910404C4
:102DB000813A49F68091E800877F8093E80080910E
:102DC000080490910904892B61F468E088EF93E08E
:102DD00070E00E9462068091E8008B778093E800A3
:102DE000B2CF60E090E080E0F3CF809104048132C4
:102DF00009F0A9CF80910804909109048D7F892B57
:102E000009F0A1CF8091E800877F8093E80080914E
:102E1000E80082FF18C09091F3008091F2000297C1
:102E200031F48091F100813011F0863021F48091ED
:102E3000F100809387018091E8008B778093E80010
:102E40000E94B70580CF809102048111E0CF7BCF33
:102E500080910404813A09F076CF80910804909122
:102E60000904892B09F06FCF8091E800877F809358
:102E7000E8008091E80080FFFCCF8091880180937A
:102E8000F1008091E8008E77D9CF809104048132DF
:102E900009F059CF8091E800877F8093E8000E9475
:102EA000B70580910704809386014DCF809104047B
:102EB000813A09F048CF8091E800877F8093E8004D
:102EC0008091E80080FFFCCF80918601D8CF8038C8
:102ED00099F0823809F076C0809108048F708730AD
:102EE00008F070C08093E9008091EB0085FB882793
:102EF00080F91092E90006C08091000490910104CD
:102F0000911182609091E800977F9093E800809300
:102F1000F1001092F1008091E8008E77B7C188230C
:102F200009F4A4C1823009F04DC0809106048111DA
:102F3000A8C1809108048F702FEF280F263008F069
:102F400041C08093E9002091EB0020FF9AC19330AB
:102F500031F48091EB0080628093EB0092C19091FC
:102F6000EB0090619093EB0021E030E001C0220F74
:102F70008A95EAF72093EA001092EA008091EB002C
:102F80008860EACF81111EC0109106041F778091DE
:102F9000E3008078812B8093E3008091E800877FB5
:102FA0008093E8000E94B7058091E80080FFFCCF85
:102FB0008091E30080688093E30082E0111183E058
:102FC000809302048091E80083FF0AC08091E800AA
:102FD000877F8093E8008091EB0080628093EB0014
:102FE000AA96E3E00C9430358058823058F740912F
:102FF0000604509107044C3D83E05807A1F583E097
:103000008A838AE289834FB7F894DE01139620E021
:103010003EE051E2E32FF0E050935700E49120FFAF
:1030200003C0E295EF703F5FEF708E2F90E0EA30C3
:10303000C0F0C7968D939D932F5F243159F74FBFF2
:103040008091E800877F8093E8006AE270E0CE011B
:1030500001960E9462068091E8008B778093E800D9
:10306000B1CFC096E7CF8091080490910904252F35
:1030700033272330310509F44AC078F52130310572
:1030800009F479C08BE590E0EAE7F5E022303105FC
:1030900009F098CF2091E800277F2093E800209145
:1030A0000A0430910B048217930708F49C0140E056
:1030B0002115310509F064C0411162C08091E8001A
:1030C00082FDC9CF80910204882329F2853019F24C
:1030D0008091E80083FFF2CFBECF2132310509F4A1
:1030E0003BC02232310509F06DCF8330910508F0E5
:1030F00069CFFC01EE0FFF1FEE51FE4F0190F081F2
:10310000E02D81529E4FDC018C9190E011C0CA01EC
:103110009927413089F082309105B1F0892B09F06F
:1031200051CFEFE0F6E0E4918E2F90E0EFE0F6E093
:10313000009709F447CFAECFEDEFF5E0E4918E2F85
:1031400090E0EDEFF5E0F4CFE7EEF5E0E4918E2FBF
:1031500090E0E7EEF5E0ECCF8330910508F032CF58
:10316000880F991FFC01E851FE4F0190F081E02D7E
:1031700089E090E08FCF82E190E0E5EDF5E08ACF45
:1031800080910204882309F466CF853009F463CF67
:103190008091E80083FD5FCF8091E80082FD8ECFB3
:1031A0008091E80080FF84CF9091F3008091F2003D
:1031B0002115310519F08830910550F041E008974C
:1031C00009F040E08091E8008E778093E80070CFAE
:1031D00044914093F1003196215031090196E8CF96
:1031E000803809F0EFCE8091E800877F8093E80077
:1031F000809103048093F1008ECE8111E3CE109173
:103200000604123008F0DECE8091E800877F8093BC
:10321000E800109303040E94B705112311F084E025
:1032200005C08091E30087FDFACF81E0809302041E
:1032300042E061EC81E00E94D60542E261EC84E06C
:103240000E94D60542E261EC82E00E94D60542E28D
:1032500060EC83E00E94D60580910204843021F066
:1032600081E080938901AECE82E0FBCF809106049D
:10327000813009F0A7CE81E0933009F080E080939F
:1032800001041092E9008091E800877F8093E800B4
:103290000E94B70597CE1F920F920FB60F9211247E
:1032A0002F933F934F935F936F937F938F939F934E
:1032B000AF93BF93CF93DF93EF93FF93D091E90048
:1032C000DF708091EC00C82FC17080FDC0E81092C3
:1032D000E9008091F000877F8093F000789414DDFE
:1032E0001092E9008091F00088608093F000CD2B6F
:1032F000CF70C093E900FF91EF91DF91CF91BF9123
:10330000AF919F918F917F916F915F914F913F917D
:103310002F910F900FBE0F901F9018951092F703EA
:10332000D7DC2FEF84E39CE0215080409040E1F710
:1033300000C0000088E19AE00FB6F894A895809349
:1033400060000FBE90936000FFCF662309F46FC04A
:103350008D3C31F40E94650781958093EE039FCCEC
:103360008E3C19F40E946507F8CF8F3C31F40E941F
:10337000650781958093ED03F2CF803D19F40E949B
:103380006507F8CF893D29F40E9443078093EF0336
:10339000E6CF8A3D21F40E9443078195F7CF8B3D0C
:1033A00031F40E94430781958093F003D8CF8C3D80
:1033B00019F40E944307F8CF9FE2980F983018F550
:1033C000282F215D330BA90121E030E001C0220F3D
:1033D0004A95EAF79091EC03922B9093EC03815D70
:1033E00021E030E0A90102C0440F551F8A95E2F7A1
:1033F000CA012091F602662309F492C0822B8093C1
:10340000F6020C944B0C8D3D31F48091E603816003
:103410008093E603A4CF8E3D21F48091E603826081
:10342000F7CF8F3D19F58091E6038460F1CF90913D
:10343000ED038D3C59F42091EE0327FF0DC010924F
:10344000EE0391110BC01092E40308C08E3CB1F45E
:103450002091EE0312169CF39923B1F09091EF03A3
:103460002091F003922B11F41092E503482F415D57
:10347000550B4830510508F4B2CF71CF8F3C39F469
:1034800097FFEACF1092ED039091EE03DACF803DE3
:1034900019F41916BCF3E0CF2091EF03893D29F40C
:1034A0001216D4F61092EF03D7CF8A3D19F427FFF6
:1034B000D3CFF8CF2091F0038B3D29F427FFCCCF59
:1034C0001092F003C9CF8C3D19F41216CCF3C4CF7F
:1034D0002FE2280F283088F4282F215D330BA90113
:1034E00021E030E001C0220F4A95EAF720953091A3
:1034F000EC0323232093EC03AFCF2091E6032E7F30
:103500008D3D59F02091E6032D7F8E3D31F08F3DAA
:1035100009F0A2CF2091E6032B7F2093E6039CCFF6
:10352000809582236CCF882339F19CEF980F913AD4
:1035300078F4E2EFF1E028EF31E09191891303C0D4
:10354000DF0111971C922E173F07B9F70C94350D28
:1035500090E2980F983050F4877091E001C0990F75
:103560008A95EAF7892F0E94510AF0CF93E3980FCA
:10357000933110F460E0E9CE0895CF93DF93EC012E
:10358000D2DFCE010E94E00A9E01205E3109283080
:10359000310510F0CD2B29F40E94860DDF91CF91DB
:1035A00008950E94730DFACF0F931F93CF93C82FE6
:1035B000882341F18CEF8C0F813AB0F502EF11E0D6
:1035C00088EF91E0F8012191C21701F18E179F0752
:1035D000D1F7EFEF80E0D8019D918D01C91781F0FF
:1035E000EF3F19F4911101C0E82F8F5F863099F7F2
:1035F000EF3F31F00E2E000CFF0BE051FE4FC28367
:103600000E94350DCF911F910F910895E2EFF1E0E7
:103610002191C21303C0DF0111971C928E179F07DF
:10362000B9F70E94350DD5CF80E28C0F883068F451
:10363000C77021E030E001C0220FCA95EAF78091FF
:10364000F703822B8093F703DBCF83E38C0F833167
:10365000C8F661E08C2F79DED5CFCF93DF93EC01F4
:103660000E94E00A9E01205E31092830310510F0E9
:10367000209739F40E948B0D8C2F96DFDF91CF912C
:1036800008950E947D0DF8CFA5E0B0E0EAE4FBE1EB
:103690000C94093580912F03882309F41EC12091D1
:1036A0002D0330912E033A832983EDDA49815A8123
:1036B000841B950BC29708F4E6C0E5DA90932E03BD
:1036C00080932D0385E594E090935C0680935B06E0
:1036D00080915004882309F40FC183EC93E00E9489
:1036E000F70C88EB0E94720C8091A6010E94DD0B02
:1036F0000E94720C89EB0E94720C8091A5010E94BD
:10370000DD0B0E94720C80EC93E00E94F70C80911C
:10371000A3019091A40154E0969587955A95E1F7FD
:103720000E94DD0B0E94720C8091A3010E94DD0BB0
:103730000E94720C8DEB93E00E94F70C8DEA91E0F1
:103740000E94940D82EE93E00E94F70C8091A901F3
:10375000082E000C990B0E94E40B0E94940D80919E
:10376000AA01082E000C990B0E94E40B0E94940DF4
:103770008091AC01082E000C990B0E94E40B0E9472
:10378000940D8091AB01082E000C990B0E94E40B64
:103790000E94940D8AED93E00E94F70C80919A01AB
:1037A000811101C085E090E00E94E40B01960E9427
:1037B000940D86ED93E00E94F70C8091A20188237E
:1037C00031F0813009F48DC08DEC93E002C083EDBF
:1037D00093E00E94F70C80919C01882309F484C037
:1037E0008BEE93E00E94F70C89EC93E00E94F70CBB
:1037F0008091A101811101C084E0805D0E94720C62
:1038000081EF93E00E94F70C61E070E07A836983B6
:1038100080910503882309F46AC090E0098002C002
:10382000959587950A94E2F780FF61C089810E948F
:10383000DD0B0E94720C89819A8101969A8389839B
:10384000089731F780E20E94720C8EEE93E00E949E
:10385000F70C80916F01882309F44BC08BEE93E045
:103860000E94F70C80917101909172016AE070E002
:103870000E94F134CB010E94E40B01960E94940D4A
:1038800080E30E94720C8091530490915404892B20
:1038900009F04EC080912C038823F9F00E94D006D5
:1038A00069837A838B839C83809128039091290379
:1038B000A0912A03B0912B0329813A814B815C812D
:1038C000281B390B4A0B5B0BDA01C9018F3F9F4F55
:1038D000AF4FBF4710F40E94CD102596EEE00C9438
:1038E000253580ED93E075CF88EE93E07BCF80EBBC
:1038F000A0CF88EE93E0B4CF90E99983A981A0513D
:10390000AD8387EF93E00E94F70C8D81B82FBF5FE6
:10391000BD830E94720C6D8029816212F6CF80E017
:103920000E94040D3981305F3983303C39F7ABCFC9
:1039300080912F03882309F4ADCF80912703811153
:10394000A9CF0E94E710209153043091540421150F
:10395000310509F49FCF80E041E050E0082F10E0EE
:10396000BA01082E02C0660F771F0A94E2F77A8325
:10397000698362237323672B11F48F5FEFCF9091DC
:10398000260390FF97C0880F880F880F80938101CE
:1039900010928401895F8093820183E08093850186
:1039A00024E630E047E050E06FE771E088E70E94EE
:1039B0007332892B09F06ECFA80125E0440F551F03
:1039C0002A95E1F78091260380FF86C0E6E0F3E0C8
:1039D00080E2DF011D928A95E9F70BED11E087ED9A
:1039E000E82E81E0F82E97E0992E88248394D80160
:1039F000ED918D01D7016D917D01640F752F711DC2
:103A00006B5A7B4FF0E0EA5FFC4F30E020E0792C0E
:103A1000721AA82C022E01C0AA0C0A94EAF76B01B4
:103A200090E0D6018D916D018A21A72DA91BA77069
:103A3000BA2E0A2E000CBB0B682E01C0660CBA947D
:103A4000EAF7B62CB195A195B109A770BB2701C0C3
:103A50008695AA95EAF7A62DA82B80818A2B8083CC
:103A60009F5F9830F1F62F5F3F4F31962830310538
:103A700071F621E00F3D120709F0B9CF04E610E01E
:103A800020E230E046E053E060E488E70E94FB3249
:103A9000892B09F0FFCE49815A814095509580913C
:103AA0005304909154044823592350935404409351
:103AB0005304F0CE8295880F80768093810198011F
:103AC000369527953695279520938401815E8093BE
:103AD00082012093850164CF4B5A5B4F04E610E0CE
:103AE00020E230E0D1CFACE2B0E0E9E7FDE10C94B8
:103AF00011358091F302833009F08CC14091F502B9
:103B00005091F6026091F7027091F8028091F902EB
:103B10009091FA020E94FE132093F5023093F60270
:103B20004093F7025093F8026093F9027093FA02FF
:103B300086E0E5EFF2E0DE01199601900D928A959C
:103B4000E1F786E0FE013996DE01559601900D926F
:103B50008A95E1F786E0FE017596DE0111960190E7
:103B60000D928A95E1F786E0FE013196A5EFB2E06D
:103B700001900D928A95E1F786E0E5EFF2E0DE0133
:103B8000199601900D928A95E1F786E0FE0139962B
:103B9000DE015B9601900D928A95E1F786E0FE01C9
:103BA0007B96DE01119601900D928A95E1F786E0F1
:103BB000FE013196A5EFB2E001900D928A95E1F7F2
:103BC00086E0E5EFF2E0DE01979601900D928A958E
:103BD000E1F786E0FE01B796DE011F9601900D9297
:103BE0008A95E1F71BA5FCA40F2D012B09F4B5C0A4
:103BF0000E941A1129833A834B835C836D837E83F1
:103C00008F83988744FD11950F2D45FD01951B8BE2
:103C10000C8B86E0FE013F96DE01199601900D9215
:103C20008A95E1F71D870E8786E0FE013996DE0151
:103C3000919601900D928A95E1F71DA30EA386E05F
:103C4000FE01B196DE011F9601900D928A95E1F773
:103C50001B8B0C8B86E0FE013F96A5EFB2E0019036
:103C60000D928A95E1F786E0E5EFF2E0DE011F961E
:103C700001900D928A95E1F780916F01882309F4F4
:103C80007AC0E0907401F09075010E944316209173
:103C900073018E199F092817190608F06CC0E0906F
:103CA0007601F09077010E9443168E199F09893C96
:103CB000910508F460C038898A8990917B0129892F
:103CC000920F90937B0120917C01820F80937C0165
:103CD00020917E01020F00937E0120917D01120F41
:103CE00010937D0120916D0197FD91952917B8F1F1
:103CF00087FD8195281798F107FD0195201778F128
:103D000017FD119581E0211718F0311101C080E0F5
:103D10008170809378010E94D00810910503882358
:103D200009F445C010927B0110927C0110927D0134
:103D300010927E010E944316909375018093740146
:103D4000109277011092760180917001111109C0D3
:103D5000882389F00E94520B0EC010E058CF81E0FA
:103D6000D7CF212F30E0082E02C0359527950A9431
:103D7000E2F720FFEFCF86E0EBEEF3E0DE011F96E7
:103D800001900D928A95E1F78091F6029889892B2E
:103D90008093F6020E944B0C811139C08091F4028D
:103DA00081701092F402AC96E6E00C942D3580916F
:103DB0007001111122C08111DECF009174011091A8
:103DC00075010E944316801B910B20917101309167
:103DD00072012817390778F6809170010E94310B23
:103DE000109275011092740110927B0110927C0167
:103DF00010927D0110927E01BECF212F30E002C0D3
:103E0000359527958A95E2F720FFB5CFD6CF81E08B
:103E100090E0C6CF80E0C7CF80915004882311F096
:103E20000C9443160E944909CB0108956091460401
:103E30006695669570E041E050E08EE691E00E9464
:103E4000A035892B19F481E080930303E5DF90937B
:103E5000FD028093FC02809104038460809304033C
:103E600008959091460490FF2CC0937081112AC050
:103E700094609093460480910403816080930403CE
:103E8000662321F086E494E00E94AB0D6091460425
:103E90006695669570E041E050E08EE691E00E9404
:103EA000A035892BB9F00E94B60781E08093FF020C
:103EB00020E04091490460914804809147040C94AB
:103EC000CC0D0895893010F09062D3CF880F880F01
:103ED000982BCFCFABDFE9CF90914604969596957E
:103EE0008FEF890F913009F488E061E0BACF8091BB
:103EF0004604869586958F5F893008F081E061E001
:103F0000B0CFA7E1B0E0E7E8FFE10C940B351D86E8
:103F10001C86FE013E9686E0DF011D928A95E9F738
:103F200088EBE82E81E0F82E10E000E0CC24C3946A
:103F3000D12C22ECA22E21E0B22EF70181917F013B
:103F40008F3F09F445C0F894E82FE295EF70F0E058
:103F500021A18F70A60102C0440F551F8A95E2F778
:103F6000CA01922F982B91A392A18095892382A3B5
:103F7000789400C0ECEBF1E031E0912C21912F3FDF
:103F800009F4A8C0A22FA295AF70B0E090968C91D2
:103F900090E02F7002C0959587952A95E2F780FDF5
:103FA00099C0832F982A330FAE16BF0639F7F70151
:103FB000319780818F3F11F00E94300950EA5A9565
:103FC000F1F7ECE0F0E0EC0FFD1FE00FF11F908245
:103FD0000F5F1F4F0430110509F0AFCF48E050E0EC
:103FE000BE01645F7F4F86EB92E00E94AD359C017D
:103FF000892B49F088E0FE013C96A6EBB2E00190E7
:104000000D928A95E1F70091BF0210E00F521D4F0B
:10401000232B09F461C081E080933C020E94431687
:1040200090933B0280933A02F12CE0905004EE20F2
:1040300009F4B0C01A8219821C821B828091B102DD
:104040008A3008F06FC04DE652E1BE016F5F7F4FCE
:10405000C8010E948710882309F48BC049E252E10D
:10406000BE016F5F7F4FC8010E948710882309F44B
:1040700080C043E853E1BE016F5F7F4FC8010E94DB
:104080008710882309F475C045E653E1BE016F5FD0
:104090007F4FC8010E948710882309F46AC01092DC
:1040A000B1028091BE0290E044E050E0BE016F5F3B
:1040B0007F4F8F529D4F0E94AD3521E020934302E8
:1040C000892B09F048C0E12C8E2D8F296796ECE0F2
:1040D0000C94273580E066CFF0903C02FF2009F475
:1040E000A3CFC0903A02D0903B020E9443168C1995
:1040F0009D09059708F498CF44E050E066EB72E024
:10410000C8010E94AD35892B59F084E0E6EBF2E05E
:10411000D80101900D928A95E1F710923C0285CF6B
:10412000F12CFBCFC0903D02D0903E020E9443167E
:104130008C199D09843F914008F085CF80914302FE
:10414000882309F284E0FE013196DF011D928A95F1
:10415000E9F710924302E091BE02F0E0EF52FD4F0A
:1041600089819A81AB81BC8180839183A283B3834F
:10417000ABCF8091B1028F3F31F08F5F8093B1025E
:104180008A3008F48ECF0E94431690933E028093AB
:104190003D02D4CFF80180819181A281B3818093C7
:1041A000450290934602A0934702B093480264E010
:1041B00070E085E492E00E9493078093440280902F
:1041C000490290904A02A0904B02B0904C0280911C
:1041D0003F0290914002A0914102B09142028816A4
:1041E0009906AA06BB06B1F080923F029092400267
:1041F000A0924102B09242020E94D006861A970A0B
:10420000A80AB90A8092B2029092B302A092B402B4
:10421000B092B5028BE0EDE4F2E0DE011196019080
:104220000D928A95E1F780914D0286958695D09002
:104230004E02C0904F02B090500200915602109171
:10424000570210925702112321F110FF10C029814B
:104250002370982F990F990F292B29839091460449
:1042600020FF1EC091609093460460E0FADD11FFCC
:1042700006C020E04B2D6C2D8D2D0E94CC0D12FF21
:1042800003C00023D1F0D2DD13FF03C081E080938F
:10429000FF0280915802882399F00E94E71014CF02
:1042A0009E7F909346040E94B6078091040381602C
:1042B000809304030E94BD07DACF0E94B607E4CFC3
:1042C0000E94CD1001CFB0E0A0E0E9E6F1E20C944D
:1042D0000E358C01DC0114968C91882309F455C1AC
:1042E00061E0C8010E94DA0FEC0180916F01882320
:1042F00041F1F801F580C032F2E5DF0708F0A3C014
:10430000C11522E5D20708F0E7C0C11530E5D30793
:1043100008F08EC0C11580E4D80708F0F1C0C115BF
:1043200090E2D90708F0F3C0C83ED10508F053C0A9
:10433000C03ED10508F455C080917A0187FD1092E6
:104340007A01D093A401C093A301D8018D919C91CF
:1043500011979093A6018093A501FE013497E53350
:10436000F10508F0EDC0E55AFE4FE49115968C91E9
:1043700020EB811102C02E2FE0EBADEAB1E090E01E
:1043800080E03D913213D6C081579E4FDC015E968E
:10439000EC93D80115968C919E013A9521153F41D9
:1043A00038F0C730AEE7DA0709F096C10E94110B6A
:1043B000F8019581992309F464C28091F703827210
:1043C000FE01E052F847EB30F10508F05AC2EA5D11
:1043D000F94C0C945B35CE019A9581159F4108F4F8
:1043E000ABCFF8018481882309F4A6CFC730FEE75C
:1043F000DF0709F43FC0CE018D5C91094397D0F1EE
:104400000E94D008811198CFFF2059F0809170014F
:1044100020910503211182C0882309F488C00E94DD
:10442000260C0E944316909377018093760184CFE7
:10443000CE0175E0969587957A95E1F78F7099276B
:104440002091700113C0C038B2E5DB07B8F4C03664
:10445000E2E5DE0708F040C0C034F2E5DF0708F00F
:104460006BCF20917001CE018F7199272817190603
:1044700009F062CF8F2D0E94B9085ECFC03E22E5C1
:10448000D20718F5C03C32E5D30708F455CF209188
:104490007001CE018F7199272817190609F04CCFAA
:1044A0008F2D0E94B908D80116968C911697807F9F
:1044B000803509F041CF15968C918823D9F08091F1
:1044C0007A01815080937A0137CFCE01805E924588
:1044D000809708F431CF85CF20917001CE018F7184
:1044E00099272817190609F027CFF11025CF0E9428
:1044F000C70822CF0E94C70880917A018F5FE2CF60
:10450000F8018681807F19F48D2F992797CFD801E4
:1045100016968C91807F09F40FCF63CF30E0082E80
:1045200002C0359527950A94E2F720FF78CF0E94C4
:10453000310B75CF01968630910509F022CF29CF36
:10454000CE0197578038910508F023CFF801858177
:10455000882309F4BCC0D0E0F12CE12CCD17C1F1C7
:1045600030E9E31631E0F306A8F08091FB02877092
:1045700061F0D80115968C91882339F08091C202A0
:1045800082FF03C082E00E943C0BCDB7DEB7E9E0BA
:104590000C942A35C701805B9D4F0E94D33597014B
:1045A0002F5F3F4F882391F09FEF980F923010F0CC
:1045B000843051F4F3E0EF0EF11C20E9E21621E023
:1045C000F20640F3DF5FCACF7901F7CF7901FACF66
:1045D00080E9E81681E0F80640F6C701805B9D4F50
:1045E0000E94D335843019F0833008F0BECFC70164
:1045F000805B9D4F0E94D335D82E882309F4B5CF18
:104600008FEF8D0D823018F094E0D912AECFC70134
:104610008F5A9D4F0E94D335D82FC7018E5A9D4F78
:104620000E94D335A3E0EA0EF11CC82FB1E0DB12E3
:104630001FC055E0C52ED12CC933D10519F440E572
:10464000C42ED12CCE0109D8EFE9FFE03197F1F764
:1046500000C00000F1E0CF1AD108B1F7CE010E94EE
:10466000BD1A90E9E91691E0F90608F4C0CF7DCFB4
:1046700022E0D21213C0CE010E942D1BE091130242
:10468000E83078F781E08E0F80931302F0E0EE0FB0
:10469000FF1FED5FFD4FD183C083E3CF34E0D31222
:1046A000E0CF2097F1F28FE99FE00197F1F700C08A
:1046B00000002197F6CFE150E0931302F0E0EE0FF7
:1046C000FF1FED5FFD4F808191810E94BD1AE09137
:1046D0001302E111F0CF49CF882309F469CEFE011E
:1046E000FE57E031F10508F063CEEF5CF94C0C9415
:1046F0005B3580E00E94D2131092A10180E00E94FD
:10470000430C8AE892E00E94350C2FCF2091A10142
:1047100030916F01809171019091720162E370E0BC
:104720000E94F1348FEF860F9091A2016091E10217
:1047300040919A0120FB47F9522F56955370330F41
:10474000330F532B282F220F220F220F522B660FCD
:10475000660F6C739370692B70E08FE090E00E949D
:10476000F73503CF81E00E94EC13FFCE8FEFFBCF34
:104770008AE0F9CF86EFF7CF90919C0181E08927FD
:104780000E94110BF2CE8091A101811101C084E041
:104790008F5F18160CF081E0883008F087E0809376
:1047A000A101E3CE8091A101811101C084E081507B
:1047B000F0CF81E08093A201D8CE1092A201D5CE95
:1047C00082E0F8CF90916F0181E089270E94430C2D
:1047D000CCCE8091710190917201C296893EB3E076
:1047E0009B0708F490CF88EE93E08DCF8091710104
:1047F00090917201C2978436910508F084CF84E6C7
:1048000090E081CF8091460480FF03C00E946A0E31
:10481000ACCE81608093460461E08695869521DB6D
:10482000A4CE882321F058DBA0CE8823E1F35FDB00
:104830009CCE882329F00E94460E97CE8823D9F378
:104840000E944E0E92CE882329F00E94300E8DCE0B
:104850008823D9F30E943B0E88CE882329F00E943A
:104860001A0E83CE8823D9F30E94250E7ECE88238C
:1048700029F00E94560E79CE8823D9F30E94600E4B
:1048800074CE9E01205E324520323105A8F491118C
:1048900027C0CF7181E090E09C0102C0220F331F3E
:1048A000CA95E2F7E901622F83E090E00E94E535C6
:1048B0008C2F0E94CD0A59CE9923D1F180E0CB35BF
:1048C0003CE7D30751F1CC358CE7D807F9F081E00C
:1048D000CA35ACE7DA0709F1C130BCE7DB0731F1D3
:1048E000C330ECE7DE07E1F0C115DC4709F51092B3
:1048F000F7030E9468162FEF34E38CE0215030401C
:104900008040E1F700C000000E94BF068091C20213
:1049100082FB882780F991E089270E94781125CEB3
:104920006FEF7FEF90E080E00E94FF350E948E19CC
:10493000F801E080F180992309F465C0C7010E9465
:104940007F0FC82F682FC7010E94970AB7018C2FCD
:104950000E94730F0E947A09D82FC92FB82ED80150
:104960001596DC9015971696CC90C2949FE0C922BC
:104970008091FB02877009F1FD2CDD20F9F08C2F6E
:10498000807F803469F080E28D0F8830B0F08C2F0A
:10499000807E803229F4B1E0BD1778F4CC2069F034
:1049A0008091C20282FF09C082E00E943C0B80918C
:1049B000FB028770FF24F3948111F12CEC2EE2941A
:1049C0008FE0E822E8E0EE1609F4F0C0EE1588F179
:1049D000F3E0FE15E8F08C2F807FCF7021E02E15DC
:1049E000E0F5803211F0C295C07FBB2009F46AC0A7
:1049F000A1E0BA1609F4B0C0DD2009F4BCC0CC2097
:104A000009F47EC040C0C7010E94630AC82F9ECF30
:104A100035E0E31609F4C5C0AE2DA850BB0B1497C2
:104A200008F0AEC10E94300760E0C8010E94DA0FB2
:104A3000ACCD89E0E81609F426C186E08E0D8F70B2
:104A4000823050F78D2F92EFB9122CC18C2F8F71BD
:104A5000D11025C10E94520BDFCF882311F0C295DF
:104A6000C07F8D2FDD20B9F0CC2369F090E29D0F3F
:104A7000983010F0D11109C08091F703C82BC09372
:104A8000F7030E94350D8D2F2DC080912F02C82B6A
:104A9000C0932F02F6CF0E94931ACC2309F4BCCF07
:104AA000D05ED83010F0B11004C08C2F0E94510A93
:104AB00006C0C09580912F02C823C0932F020E9488
:104AC000350DAACF8091C20282FD16C0DD2069F0AB
:104AD000CC2339F08091F703C82BC093F7030E94D1
:104AE000350D80E00E94D41A97CF80E00E94931A7F
:104AF000CC2309F491CFD9CFDD20A1F0C11004C09F
:104B00008C2F0E948B0D88CFB1E0CB1285CF909176
:104B10002E028C2F8923C81709F47ECFC92BC0938E
:104B20002E027ACFC11078CF8C2F0E94860D9091E3
:104B30002E028C2F892329F08C2F80958923809336
:104B40002E02809114029C2F982309F465CFC09502
:104B5000C823C093140260CFDD2029F0E5E0EC15F6
:104B600008F45ACFCDCFF4E0FC1508F455CF8C2FC4
:104B70000E94860D51CFCC20D1F3D93369F42FEFA9
:104B800037EE83E0215030408040E1F700C0000064
:104B90008D2F0E94931A40CFAFE1BEE41197F1F739
:104BA000F5CF6D2D8D2F0E94A51936CF8C2F8370D8
:104BB00091F5D11031CF4D2F429546954770440F56
:104BC000440F8D2F8F70042E01C0880F0A94EAF7CE
:104BD0002D2F2071D4FF07C02FE030E001C0220F3D
:104BE0004A95EAF72095C695C695C370C23071F014
:104BF000C33051F03091C002C13029F0822B8323A1
:104C00000E94CD0A09CF832B822BFACF282B8091CB
:104C1000C0028227F5CF8695DD2011F08C2F8170A0
:104C2000882309F4F9CE4D2F429546954770440FDD
:104C3000440F8D2F8F70042E01C0880F0A94EAF75D
:104C40002D2F2071D4FF07C02FE030E001C0220FCC
:104C50004A95EAF72095C695C695C370C23071F0A3
:104C6000C33051F030910503C13029F0822B8323EA
:104C70000E94240BD1CE832B822BFACF282B80913C
:104C800005038227F5CFCF70DD2029F08C2F0E94FD
:104C9000520B8D2F36CF8D2F0E94860D8C2F0E94A8
:104CA000310BBACEB2EFBB1570F0E0EFBE16D1F00B
:104CB000F1EFBF1691F0DD2009F44EC0C110E3CE34
:104CC0008C2F8F71C7CE23EFB21611F134EFB312D0
:104CD000F2CF9091C20292FD26C08C2F8F71DD2001
:104CE000F1F2B8CEDD2079F084E08C1508F494CE92
:104CF000CF7181E090E001C0880FCA95EAF79091EA
:104D000005038927B5CF95E09C1508F485CEF0CF33
:104D100080E0DD2009F4ACCFCF7181E001C0880FC5
:104D2000CA95EAF7A5CFDD2061F08C2F8F7192FF35
:104D300091CEA8E08A9F9001112423602093FB026A
:104D400089CE81E00E943C0BB1E0BC1508F064CE36
:104D500082E00E943C0B60CECC2079F0893341F494
:104D6000EFEFF7EE23E0E150F0402040E1F70ECF07
:104D70008FE19EE40197F1F709CF8C2F8F718FCFD0
:104D8000FF2009F451CE8091FB0280FD4DCEF80149
:104D900015828695869586950E94520BC80193DAF6
:104DA0008091FB028695869586950E94310B3CCEBC
:104DB000CF93DF9380912D02807F09F04CC08091CA
:104DC0002C02882309F447C0E091450450910C045B
:104DD000C0912802D09127026091290270912A0285
:104DE00047E05E17C1F18E2F90E0E49FF00111249F
:104DF000E35FFB4F2481222389F1489FF001499F03
:104E0000F00D1124DF01A35FBB4F11962C91119778
:104E10002C1324C02C912D1321C015962C9115977D
:104E200021111CC012962D913C91261B370B283C5A
:104E30003105A0F480912D028F70806180932D0246
:104E4000ED5EFB4F80818F708061808387E292E00E
:104E50003ADA0E94590ADF91CF910895FC01319608
:104E6000E770BFCFADE0B0E0E8E3F7E20C940B35BC
:104E70008C0186E0F801DE01189601900D928A956A
:104E8000E1F7F8018481E58097E2A92E92E0B92E3E
:104E900090912B02911126C0882309F1EE20E9F0B0
:104EA000C8010E94B40FF82E8823B9F087E0F801FA
:104EB000D50101900D928A95E1F780912B02813006
:104EC00031F480912702909128020E94A80F70DF90
:104ED0008F2D2D96ECE00C942735C801F4D9FF24D2
:104EE000F394F6CFD080C18082809380F0902C0222
:104EF0002091290230912A02A401421B530BFF206A
:104F000009F4B6C0483C510508F08EC0882301F36F
:104F10009091280280912D02282F207F09F054C003
:104F2000C91213C090912702D9120FC0E11046C0D8
:104F30008F70806180932D0287E292E0C4D98091C6
:104F40002D02F8018683F12CC3CFE11037C06C2D00
:104F50008D2D0E9449056C2D8D2D0E944905E82E4E
:104F60008111F1CFD886C986888599850E94A80FBE
:104F7000292F22952F70903458F49F70223080F0A2
:104F8000992391F0F8019681907F71F4FE2CA0CFC7
:104F90002A5F2F70223060F0C80195D9EF2CF6CF30
:104FA000992311F0882391F3805E883078F3F4CF51
:104FB000803F60F3815F833048F3EECF80912D0214
:104FC000816080932D02BFCFC91207C09091270244
:104FD000D91203C0EE2009F46CC0C8010E94B40FBE
:104FE000882309F47ACFEE2009F477CF80912D023F
:104FF000803280F020912702309128023A83298361
:105000009C828B8290912B029D831E828F83CE0186
:10501000019659D987E0F801A7E2B2E001900D921C
:105020008A95E1F7C5DE5BCF90912D02292F207F75
:1050300049F487E292E047D987E0F50111928A9519
:10504000E9F781CF882309F443CF809128028C119E
:10505000C4CF80912702D812C0CFE110BECF968373
:10506000C80131D987E0F50111928A95E9F730CF6F
:10507000483C5105B8F7882309F431CFFE2CEE20C7
:1050800009F42BCF809128028C111FC08091270238
:10509000D8121BC080912D0280FD0EC0982F907FEA
:1050A00059F08683903F31F0982F907F905F8F70FA
:1050B000892B8683C80107D987E0F801A7E2B2E00F
:1050C00001900D928A95E1F703CFC8010E94B40FB9
:1050D0008111A0CF80912D02816080932D02C801A3
:1050E000F2D8F6CEABE1B0E0E8E7F8E20C94143584
:1050F0004E8B5F8B688F798F8A8F9B8F9111109267
:105100002F021D8A86E0FE017696DE011F96019031
:105110000D928A95E1F78B89882351F061E0CE01E9
:105120000F960E94DA0F61E0CE010F960E94DA0F0F
:1051300087E0FE013F96DE01189601900D928A9558
:10514000E1F7CE0108968EDE81110CC087E0FE01EA
:105150003896DE01119601900D928A95E1F74C8503
:1051600041110BC017E08091450490910C04891304
:1051700034C06B96E3E00C94303520910C0430E0A1
:10518000C90101968770992750914504581719064F
:10519000A1F04D8397E0929FD001939FB00D112411
:1051A000A35FBB4FFE01319601900D929A95E1F7F6
:1051B00080930C040E94590AD5CF1092F7030E94E5
:1051C000681610920C041092450487E0E7E2F2E0C2
:1051D000DF011D928A95E9F7C5CF819FC001112497
:1051E000835F9B4F3FDE882321F28091450490E04E
:1051F00001968770992780934504B5CFA6E0B0E06B
:10520000E4E0F9E20C9413350E9443168C0180917E
:105210003802909139028017910779F019821A8229
:105220000E944316682F49815A81792F80E090E0CF
:1052300059DF10933902009338022696E4E00C946B
:105240002F351F921FB61F9211248F939F93AF93F8
:10525000BF938091F103811113C08091F20390916B
:10526000F303A091F403B091F5034196A11DB11D84
:105270008093F2039093F303A093F403B093F503A8
:10528000BF91AF919F918F911F901FBE1F90189556
:10529000CF93DF93EC010E9443168C1B9D0BDF9193
:1052A000CF910895CDB7DEB7CE54D1090FB6F8949B
:1052B000DEBF0FBECDBF85B7806885BF85B780686C
:1052C00085BF84B7877F84BF0FB6F894A895809177
:1052D0006000886180936000109260000FBE80E8DB
:1052E00090E00FB6F89480936100909361000FBE38
:1052F00081E08093890183E099E09093EF018093AE
:10530000EE010E9467050E9408068091E200846019
:105310008093E2007894809102048823A1F0109198
:10532000E9001F709091EC00892F817090FD80E85A
:10533000182B1092E9008091E80083FD0E948416EA
:105340001F701093E90082E084BD93E095BD9AEF51
:1053500097BD80936E001092B2021092B302109229
:10536000B4021092B50288EC90E02091E300122F75
:10537000111F1127111F27FD0CC0AFE3BCE91197C6
:10538000F1F700C00000019781F70E9467051092B5
:1053900002041093500454985C9A879A8F98B5E051
:1053A000BA95F1F7000089B18295817087988F9A3C
:1053B000E0EAEA95F1F78093510480930001882395
:1053C00009F454C210928A018EE180938B0180917E
:1053D000500481110E949D33809100018091000151
:1053E00094E0811190E09093BF0284E0891B809348
:1053F000BE0284EF0E94300985EF0E94300986EFDB
:105400000E94300987EF0E9430090CEB11E0E2ECBA
:10541000EE2EE1E0FE2ED8018D918D018F3F11F02F
:105420000E943009E016F106B1F788E0E1EDF2E004
:10543000DF01082F1D920A95E9F7E6EBF2E0DF01A4
:105440001D928A95E9F790E080E00E94E035833E66
:105450009E4F59F163EE7EEF90E080E00E94FF35B1
:1054600060E082E090E00E94E53581E08093C00238
:1054700061E083E090E00E94E53560E074E184E063
:1054800090E00E94FF350E94780E0E94B20E40E02C
:1054900050E0BA018FE090E00E94F73540E050E024
:1054A000BA0183E190E00E94F73582E090E00E942B
:1054B000D3358093C40284E090E00E94E03590935D
:1054C000C2028093C10283E090E00E94D3350E9423
:1054D000CD0A809105030E94D00A982F81E0933075
:1054E00009F080E00E94110B80915004882309F498
:1054F000C1C180E08093260380E880935204BDD729
:105500006BE070E087EA91E00E94C010882309F404
:1055100045C08091260365E070E081FDADC182EA5F
:1055200091E00E94C0108823C9F16DE070E080E92D
:1055300091E00E94C010882389F10E94D0062D9628
:105540006CAF7DAF8EAF9FAF2D97DC01CB01805A42
:105550009541AF4FBF4F8093280390932903A093A9
:105560002A03B0932B03E5E5F4E080E092E0DF014D
:105570008C011D9201501040E1F7F0935C06E0931E
:105580005B068FEF9FEF909354048093530481E068
:1055900080932F0380932C03109227038091C302E2
:1055A00081113AC086E494E00E94EA0E80910403DF
:1055B000836080930403809146048C7F71F40E9481
:1055C000780E86E494E00E94EA0E80914604982FBB
:1055D0009C7F83708460992331F0809146048432EB
:1055E00020F083708062809346048091490487395B
:1055F00018F086E9809349040E94B6070E94B40718
:105600008091460480FF05C060E0869586950E94E3
:10561000311F81E08093C30280915004811102C048
:105620000E94A0330E94FE14882309F428C183E05D
:105630008093F3028091500481112EC08AEE98E08D
:105640009093500180934F0129E130E030934B015A
:1056500020934A0189E390E090934E0180934D019D
:105660004FEE58E050935801409357013093530147
:1056700020935201909356018093550149EE53E1D6
:105680005093600140935F0130935B0120935A0176
:1056900090935E0180935D0190E080E00E94E03590
:1056A000833E9E4FC9F58FE090E00E94DB35F62ED9
:1056B000172F082F862F8F770E94D213FF1CFF24ED
:1056C000FF1C612F6370660FF62AF092A10112FB96
:1056D000882780F90E94430C812F887F09F4D1C06C
:1056E000169516951695212F30E02F5F3F4F42E318
:1056F000429FC001439F900D11240E94350C802FC2
:1057000083708093A201802F869586958F708B3051
:1057100008F08AE08093E1020E9414050E941A11A9
:1057200029833A834B835C836D837E838F83988741
:1057300080917001581721F0509370010E94260C3F
:105740008D819E810E94350C8B8186FB882780F994
:1057500091E089270E94430C8F8180936D0181E63F
:1057600091E090934F0480934E0481ED92E028E005
:10577000280F2F962FAF2F975E0133E0A30EB11C99
:10578000772473948091020410E400E172E1F72E13
:10579000853009F4B4C00E94811F05EC12E061ED70
:1057A000E62E62E0F62E82EC91E02B969FAF8EAF54
:1057B0002B97BC019701F8019191D9018D919D0121
:1057C000DB014D91BD018423B2E0ED3CFB0709F400
:1057D000A2C0981789F3E09150042E96EFAF2E9750
:1057E00042ECC42E41E0D42E51ED852E52E0952E90
:1057F000512CD4016D904D01F60181916F01682209
:10580000D8012D908D01261441F12624412C3324FA
:105810003394822D8321C9F02E96BFAD2E97BB23E2
:10582000A1F049825A820E9443169C838B83E1E057
:10583000ED8391E0862D832109F490E09E834981D8
:105840005A816B817C818D814DDC4394330CF6E071
:105850004F12DFCFF80131976082539428E0521243
:10586000C8CF0E9449096624639459C08EE1809391
:105870008A01ABCD82E03ECE8DE991E052CE81E04F
:10588000D7CE8AE892E039CF80910204843039F192
:105890000E94CD100E94731D1092F10348E150E068
:1058A0000FB6F894A895409360000FBE1093600067
:1058B00083B7817F846083BF83B7816083BF78941F
:1058C000889583B78E7F83BF0FB6F894A895809193
:1058D0006000886180936000109260000FBE0E949B
:1058E000811FA2ECB1E0E1EDF2E081919D9189236D
:1058F00009F047C42F965FAD2F975E13F6CF8091C6
:105900000204853009F4C0CF1092F7030E94681694
:105910000E94300740CF98135ECF70DC612C8091DD
:105920000303882309F464C080910203E0914604D4
:10593000E695E695E81BE093FE02823009F063C02D
:10594000F0E0EB54FE4FE4910E2F10E036EAC32E48
:1059500038E0D32E8091FF02882361F01092FF027D
:105960000E940C1F9093FD028093FC021092010391
:10597000109200030E940C1F9C01E091FC02F09128
:10598000FD028E1B9F0B8F3F9F4790F58091CF02AA
:105990008823B1F01092CF028091CD029091CE0277
:1059A000281B390B2F3F3F4758F4805D9A4890934E
:1059B000CE028093CD02809104038860809304031B
:1059C00080900003909001030E0F1F1F1093FD02A3
:1059D0000093FC028CEF92E0F601099580910003A0
:1059E00090910103892B21F4892811F07092CF0244
:1059F0000E94731D8823D9F00E9449090E94441B0C
:105A00000E94E71018C000ED17E09CEBC92E96E04D
:105A1000D92E863009F09ECFF0E0EE54FE4FE4918F
:105A20000E2F10E027E9C22E28E0D22E93CF0E943D
:105A3000441B6110E5CF86E0EBEEF3E0DE0111964A
:105A400001900D928A95E1F71092ED031092EE030A
:105A50001092EF031092F0038B819C81892B09F443
:105A600049C00091E9031091EA030E9443169C018A
:105A7000201B310B9091E403992309F4A4C3253131
:105A80003105C0F19F3F19F09F5F9093E4031B81A4
:105A9000112359F00E9465079FEF11160CF491E055
:105AA000899F802D11248093ED031C81112359F0CF
:105AB0000E9465079FEF11160CF491E0899F802DDD
:105AC00011248093EE038091ED03882399F01091C7
:105AD000EE03112379F00E948507882309F440C161
