:10000000F5C4000010C500000EC500000C94983324
:100010000AC5000008C5000006C5000004C50000B0
:1000200002C5000000C500000C949D150C94B11988
:100030000C941729F8C40000F6C40000F4C40000B2
:10004000F2C40000F0C40000EEC40000ECC40000E4
:10005000EAC400000C948516E6C40000E4C4000065
:10006000E2C40000E0C40000DEC40000DCC4000004
:10007000DAC40000D8C40000D6C40000D4C4000014
:10008000D2C40000D0C40000CEC40000CCC4000024
:10009000CAC40000C8C40000C6C40000C4C4000034
:1000A000C2C40000C0C40000BEC4000005010902B3
:1000B000A10185020901A1000509190129081500FE
:1000C0002501950875018102050109300931158165
:1000D000257F95027508810609381581257F9501D0
:1000E00075088106050C0A38021581257F95017572
:1000F000088106C0C00660FF0961A1010962150000
:1001000026FF009520750881020963150026FF006F
:10011000952075089102C005010906A1010507197E
:10012000E029E71500250195087501810295017503
:100130000881010507190029FF150026FF00950613
:100140007508810005081901290515002501950587
:1001500075019102950175039101C0616263646547
:10016000666768696A6B6C6D6E6F707172737475B7
:10017000767778797A3132333435363738393052C8
:100180004542545F2D3D5B5D5C233B27602C2E2F49
:1001900000DA0281FFD9F1DB20A4A62EAF00A0C0B7
:1001A000D30000A1C8D30000AED580A81F408D1495
:1001B0002000783C1E1E140A050001010101010106
:1001C000010101020202020202020202030303030E
:1001D00003030303040404040404040505050505DE
:1001E000060606060607070707070808080809099C
:1001F00009090A0A0A0B0B0B0C0C0C0D0D0D0E0E47
:100200000E0F0F0F101011111112121313141415D9
:100210001516161717181819191A1A1B1B1C1D1D4D
:100220001E1E1F20202122222324242526262728A3
:1002300029292A2B2C2D2D2E2F30313232333435D3
:10024000363738393A3B3C3D3E3F404142434445D6
:10025000464748494A4C4D4E4F50515354555658B5
:10026000595A5B5D5E5F616264656668696B6C6D5F
:100270006F7072737577787A7B7D7E8082838587D5
:10028000888A8C8E8F91939596989A9C9EA0A2A313
:10029000A5A7A9ABADAFB1B3B5B7BABCBEC0C2C418
:1002A000C6C9CBCDCFD1D4D6D8DBDDDFE2E4E7E9D8
:1002B000EBEEF0F3F5F8FAFDFF2223252628292A94
:1002C0002C2D2F3032333536383A3B3D3E404243B9
:1002D0004547494A4C4E5051535557595A5C5E60F8
:1002E00062646668696B6D6F71737577797B7D7F0A
:1002F00081838587898A8C8E90929496989A9C9E09
:100300009FA1A3A5A7A8AAACAEAFB1B3B4B6B8B924
:10031000BBBCBEBFC1C2C3C5C6C7C9CACBCCCDCE8C
:10032000D0D1D2D2D3D4D5D6D7D7D8D9D9DADADB6F
:10033000DBDBDCDCDCDCDCDDDDDDDDDCDCDCDCDCFB
:10034000DBDBDBDADAD9D9D8D7D7D6D5D4D3D2D23A
:10035000D1D0CECDCCCBCAC9C7C6C5C3C2C1BFBE22
:10036000BCBBB9B8B6B4B3B1AFAEACAAA8A7A5A38D
:10037000A19F9E9C9A98969492908E8C8A8987854C
:1003800083817F7D7B79777573716F6D6B6968662B
:100390006462605E5C5A5957555351504E4C4A49FD
:1003A00047454342403E3D3B3A3836353332302FA5
:1003B0002D2C2A29282625232200AF00AE2020003C
:1003C000BABB004B657920B10020C0C100BEBF00A0
:1003D000484F005654003030200020202020B1BC6F
:1003E000BD0042616C6CB100B4B500B2B300C2C3D1
:1003F000004CB6B772B100202000290014001A008A
:100400000800150017002B00040016000700090063
:100410000A00E1001D001B00060019000500000095
:10042000E200E30091212C4190434C0013001200A4
:100430000C0018001C00240233000F000E000D00F9
:100440000B00870038003700360010001100000054
:100450004600E600913128422A000F7E3A003B0018
:100460003C003D003E000D7E0100010052002800CE
:100470004C000E7E0100500051004F002A00000089
:10048000010001000100010001004400430042009E
:10049000410040003F004500D300D2005200D1008F
:1004A0004B00010001004F00510050004E000000C1
:1004B00001000100010001000100010034022400DC
:1004C000250026002502010033022100220023001E
:1004D000300001002D021E001F002000300200002D
:1004E00027003700010001000100010021022F0058
:1004F00023021E0226021F02340020022E022D00BB
:100500003200890238022F022E00870232020000D8
:1005100001000100010001004C0001000A7E0B7E79
:100520000C7E01000100010001000100010001003A
:10053000087E01000100010001000100097E0000A9
:10054000007C007E01000100010001000F7E0D7E95
:100550000E7E010001000100010001000100010008
:100560000100017E0100047E027E037E057E000004
:10057000007C007E01000100010009025B00030114
:1005800000A0FA0904000001030101000921110182
:10059000000122440007058103080001090401004D
:1005A00002030000000921110100012222000705B9
:1005B0008203200001070503032000010904020053
:1005C0000103000000092111010001224900070573
:1005D00084032000011201000200000008575900A6
:1005E0000400010102000114034B00650079006260
:1005F0000061006C006C00340034000000100359EE
:10060000006F0077006B0065006500730000000458
:1006100003090400000000000000002F000000009B
:100620000700070000123F123F1200242A7F2A12FF
:100630000036091E241B0018262912280000000776
:10064000000000001E214000000040211E00001498
:10065000083E08140008083E08080000003070003A
:100660000008080808080000003030000020100CC6
:100670000201001E2925231E0000223F2000002227
:100680003129292600122125251A001814123F109D
:10069000001725252518001E2525251800013109DC
:1006A0000503001A2525251A00062929291E000000
:1006B00000333300000000337300000814142222BA
:1006C0000014141414140022221414080002012926
:1006D0000502003E59555D3E003816111638003FA0
:1006E0002525251A001E21212112003F2121211E2E
:1006F000003F25252521003F09090901001E212170
:10070000291A003F0404043F0000213F210000108B
:100710002020201F003F040C1221003F2020202019
:10072000003F0204023F003F020C103F001E212147
:10073000211E003F09090906001E2129112E003F34
:10074000090919260012252529120001013F01017E
:10075000001F2020201F000718201807000F300C52
:10076000300F0021120C1221000304380403003161
:100770002925232100007F4141000001020C1020A7
:10078000000041417F00000402010204004040409B
:10079000404000000103040000102A2A2A3C003FC8
:1007A0002422221C001C22222224001C2222243F5C
:1007B000001C2A2A2A0C0000043E0505000C525297
:1007C000543E003F080404380000003D00000020B3
:1007D00040403D00003F080814220000013F200077
:1007E000003E023C023C003E0402023C001C22226D
:1007F000221C007E1422221C001C2222147E003E99
:100800000402020400242A2A2A120000021F2200E5
:10081000001E2020103E000618201806000E300C86
:10082000300E002214081422000E5050483E0022C0
:10083000322A26220008087741410000007F00008C
:1008400000414177080800180408100C000000005F
:10085000000000000000000000000000000000C0D8
:10086000F0F88C86C6E7FFFFFFFFFFFFFEFCFCF8F9
:10087000E080000000F0F0F00000C0E0F0707000D8
:100880000000000000000000000000000000000068
:100890000000000000F8F8F8000000000000000070
:1008A0000000000000000000000000F8F8F8000060
:1008B000F8F8F8000000000080E07078686C64C709
:1008C000C7C7C7C7C7E73F1F0F3FFFFFFFFFFFFFB8
:1008D0003F0F000000FFFFFF1E3FFFF3E18000001D
:1008E000F8FCFE3636363EBCB8000E3EFEF080F018
:1008F000FE3E0E0000FFFFFF060606FEFEFC700037
:10090000E6F6F63636FEFEFC000000FFFFFF0000B4
:10091000FFFFFF000000003C7F6360E0C0C0C0C07C
:10092000C0C0C0C0FFFFC06030180F030303010048
:1009300000000000000303030000000303030300A2
:10094000010303030303030301007070393F1F0712
:10095000010000000001030303030303030100007F
:10096000010303030303030100000003030300006A
:100970000303030010101000000000550000003EAB
:10098000635D5D637F417B77413E00001C22221C3A
:10099000003E0A003E0A00322A3C0026281E001CA7
:1009A0002A2C0000003F09360000001E2121000013
:1009B0000000003F0837001E2121001E2121003FBA
:1009C000090600213F2100222519001E2121003F98
:1009D0000936003F211E00213F21000F300F003E4D
:1009E000093E003F063F003F2020000011241FBEAB
:1009F000CFEFDAE0DEBFCDBF11E0A0E0B1E0E0E193
:100A0000FDE602C005900D92AE3EB107D9F726E093
:100A1000AEEEB1E001C01D92AB36B207E1F70E9425
:100A200048290C945136ECCA80918E0181111BC06B
:100A30008EE190918F019923C1F0909190019111D5
:100A400016C09EE120915D04211113C0292F20932F
:100A5000890180938A01890F10928B0180938C0108
:100A600080938D0108958DE1E4CF90E0EBCF9DE17F
:100A7000E9CF20E0ECCFE0915A04F0915B0430978D
:100A800039F00284F385E02D309711F060E209958A
:100A90000895982FE09151044091180457E0E41311
:100AA00002C080E008952E2F30E05E9FF0011124F7
:100AB000E75EFB4F8181681306C08081981303C0F5
:100AC00085818111EFCFF9013196E770E8CFE8ED2C
:100AD000F0E080818E7F80831092E2001092DA0035
:100AE0001092E100A0EEB0E08C9181608C93808147
:100AF0008F77808319BCA7EDB0E08C918E7F8C93AB
:100B000080818F7E80831092020408952091E400FA
:100B10003091E50095E6A9012091EC00822F8170CB
:100B200020FF06C08091E80080FF06C080E00895A5
:100B30002091E80022FD1AC080910E04882389F0DC
:100B4000853089F08091EB0085FD0FC02091E40095
:100B50003091E50042175307F9F29150E1F684E035
:100B6000089582E0089583E0089581E008958091DA
:100B7000100487FF13C08091E80082FF06C08091B7
:100B8000E8008B778093E80004C080910E04811107
:100B9000F2CF089580910E048823D9F38091E80064
:100BA00080FFF8CF8091E8008E77ECCF982F90935C
:100BB000E900242F762F50E0891731F07091EC0076
:100BC0002091ED005091F00021FD07C09F5F97300C
:100BD00071F78093E90081E008953091EB003E7F4A
:100BE0003093EB003091ED003D7F3093ED0030917C
:100BF000EB0031603093EB007093EC002093ED003C
:100C00005093F0002091EE0027FDE0CF80E00895A2
:100C1000B0E0A0E0EEE0F6E00C94C734C8EDD0E020
:100C200088818F7E8883E7EDF0E08081816080831A
:100C300084E082BF81E08093020488818E7F888374
:100C400002EE10E0F80110821092DA0081EEC82E58
:100C5000D12CF601108288818F7788838881806803
:100C6000888388818F7D888319BC10920E0410922E
:100C70000F0410920D0410920C0490EEE92EF12C4A
:100C8000F70180818B7F808388818160888342E047
:100C900060E080E08BDFF60180818E7F8083F80149
:100CA000808181608083808188608083F70180817A
:100CB0008E7F8083888180618883CDB7DEB7E8E04E
:100CC0000C94E334FC01CB012091160430911704FD
:100CD0002617370790F0009729F42091E8002E7727
:100CE0002093E80040E0009751F4411108C0809142
:100CF000E80082FF31C080E00895C901F3CF209160
:100D00000E042223A9F12530A9F12091E80023FD4A
:100D10002DC02091E80022FDEACF2091E80020FFBD
:100D2000E2CF3091F3002091F200009719F02830C3
:100D3000310558F041E02830310509F040E02091BC
:100D4000E8002E772093E800CECF41914093F10048
:100D500001972F5F3F4FE9CF80910E04882341F028
:100D6000853041F08091E80083FFC1CF81E0089594
:100D700082E0089583E0089508950895089587E72F
:100D800097E7909301088093000888E19AE00FB6F6
:100D9000F894A895809360000FBE90936000FFCFF9
:100DA000A4E0B0E0E6EDF6E00C94CD348FB7F89413
:100DB0002091FE033091FF03409100045091010403
:100DC00029833A834B835C838FBF69817A818B81CE
:100DD0009C812496E2E00C94E93480918601089588
:100DE000DC01FB0111969C9111978181981322C01F
:100DF00012968C911297882319F0928189131AC048
:100E000013968C911397882319F09381891312C03C
:100E100015968C911597882319F0958189130AC02E
:100E200014969C91992321F081E02481291303C019
:100E300080E001C081E081700895DC01E0915A04F6
:100E4000F0915B04309759F086819781892B39F0B6
:100E500082E08C930680F781E02DCD0109950895FD
:100E600080915C04882369F0E0915A04F0915B045E
:100E7000309739F00190F081E02D309711F009950D
:100E8000089580E008958091F20380FD16C081FDF1
:100E900016C082FD16C08091F1038823A1F088322C
:100EA00080F428E0829FC001112468E270E00E9473
:100EB0001C35862F672B39F0089582E0089584E071
:100EC000089588E0089581E008958091F20380FDFF
:100ED00014C081FD14C082FD16C08091F0038823E8
:100EE00081F08E3180F420E5829FC00111246EE1F3
:100EF00070E00E941C35862F089584E1089588E2F1
:100F0000089588E0089580E50895282F35EB2303A0
:100F1000C001112497FF04C080589109892F0895BA
:100F200080589F4FFBCFFC01680F791F8FEF91E333
:100F30002191822728E030E087FF09C0880F8927A8
:100F400021503109C9F7E617F70791F70895880F7F
:100F5000F7CFFC01EE0FFF1FE80FF91FE45CFC4F19
:100F60006183408322830895539A0895EEE0F3E06D
:100F700011828281846082830895CF93809152048C
:100F800080FF04C00E943411CF910895C0918B015D
:100F900080918C01C817B0F7809189019C2F981B14
:100FA000892F20E040E060E090E0D3DFCF5FF0CF1A
:100FB0000F931F93CF93DF93D82F162F042F809179
:100FC0005204C0918B0180FD10C0DF91CF911F9121
:100FD0000F910895809189019C2F981B892F202FB4
:100FE000412F6D2F90E0B5DFCF5F80918C01C81746
:100FF00088F3C3DFEACFB0E0A0E0E1E0F8E00C94D2
:10100000C534262FD72EE82FF0E0E754FE4F71119C
:101010000AC0E4918E2F9E2F6E2F792FCDB7DEB7A9
:10102000EAE00C94E134072F10E0E4914E2F56E0F3
:10103000659F70011124CFEFD0E0C701BE010E946F
:10104000A934822F90E0880F991F55E5569F900193
:10105000579F300D1124821B930B582F550F580F9B
:10106000CE01801B910BE89F9001E99F300D112468
:10107000932FD59ED0011124AB2FBB276E01CA1A26
:10108000DB0AEC9DD001ED9DB00D11248B2F5E018C
:10109000A51AB108A09E6001A19ED00CB09ED00CF4
:1010A0001124CD2CDD24CC19DD09EC9F8001ED9FAE
:1010B000100D112463307105D1F05CEFE51653E09B
:1010C000F50670F461307105B1F062307105B9F068
:1010D0004FEFE416F10408F09FCF832F912F9CCFA0
:1010E0006430710579F066307105B9F395CFE32F5F
:1010F0009B2F842F91CFEB2F832F942F8DCF812F78
:10110000E32FFBCF8E2FE12F87CF982F762F842FC1
:101110002091520420FF0AC0473908F086E9692F60
:101120006ADF962F672F482F892F42CF0895CF93DC
:10113000DF93EC01E2E5F4E0438162818C81E5DF3D
:101140008C818F5F8C83DF91CF910895CF93DF9354
:10115000EC01EC81F0E0E754FD4F4491E2E5F4E06E
:1011600062818181D2DF8C818F5F8C83DF91CF910F
:10117000089590917901882341F09F5F90937901C0
:10118000109276011092750108959150F7CFEEE616
:10119000F1E0828591E08927828710861782089581
:1011A00080917701811114C080917901811110C063
:1011B0008091780181110CC09091070396959695C6
:1011C000969581E020916F01921380E081700895DF
:1011D00081E0FCCF80918E01F901808325CCCF93F3
:1011E000DF93EEE8F1E083819481A581B681E90186
:1011F00088839983AA83BB83148213821682158203
:10120000DF91CF91089580E0089563E070E085E676
:1012100092E089DE90916402891318C0E091650222
:10122000EC30A4F488E0E802F0011124EF5FFE4FF7
:101230000680F781E02D309749F028E832E04091B0
:10124000670268E672E08091660209950895EFE40E
:10125000F2E0878980933101808D80934401089565
:10126000F894E82FE295EF70F0E041A18F7021E053
:1012700030E0B90102C0660F771F8A95E2F7CB0113
:10128000962F9095942391A392A1892B82A3789471
:101290000895A4E0B0E0EFE4F9E00C94CD3480913F
:1012A0005C04882369F07CDD69837A838B839C836B
:1012B00069817A818B819C812496E2E00C94E934E7
:1012C0006FDD69837A838B839C838091BD029091CB
:1012D000BE02A091BF02B091C00229813A814B8128
:1012E0005C81280F391F4A1F5B1F29833A834B8378
:1012F0005C83DECF811522E59207D0F5811530E5BC
:10130000930708F0B2C0883E9105D8F4803E91055D
:10131000B8F4853A910558F48430910588F431E0A9
:1013200020E0019709F030E0832F922F08959C016F
:101330002D5C31092331310508F473C090E080E061
:101340000895811540E4940780F4811550E29507D3
:1013500008F0A5C09C013A9521153F4178F720E09F
:10136000392FA901482BCA0108959F70906A0895EA
:10137000803852E59507B8F5803622E5920708F0E7
:1013800059C0803432E59307C8F4803242E59407AF
:1013900008F049C0282F2695269550E2259F9001F8
:1013A0001124482F437081E090E002C0880F991FFC
:1013B0004A95E2F7822B932B9D680895282F269556
:1013C0002695277040E2249F90011124482F4370F6
:1013D00081E090E002C0880F991F4A95E2F7822BC6
:1013E000932B9C680895803C52E5950760F4282F64
:1013F0002F71803A924598F5822F90E0982F882798
:10140000846F906A08959C01205C3245203231053A
:1014100008F094CF982F882788279F71806F906A53
:101420000895906508958F7190E0982F8827816FB7
:10143000906A0895282F26952695277050E2259FBB
:1014400090011124482F437081E090E002C0880F82
:10145000991F4A95E2F7822B932B9A680895822F61
:1014600090E0982F8827906208959C0195E036952A
:1014700027959A95E1F72F7030E0322F2227482FD9
:101480004F7150E084FF06C084E0440F551F8A95D9
:10149000E1F75527C901842B952B906908959F7119
:1014A000E2CF982F909580910304892380930304C1
:1014B00008958091510490911804981301C00895E3
:1014C0008F5F8770FACF292F983078F5863068F5CE
:1014D00090E036E0239F800D911D1124682F6770E6
:1014E00023E0969587952A95E1F7FC01EE0FFF1F03
:1014F000E80FF91FE05EFD4F50E040E080E02191F1
:1015000030E0062E02C0369527950A94E2F7217046
:101510003327042E01C0220F0A94EAF7822B4F5F73
:101520005F4F4330510559F7089580E00895292F02
:10153000983090F5863080F590E036E0239F800D5E
:10154000911D1124282F277041E001C0440F2A95D6
:10155000EAF723E0969587952A95E1F7FC01EE0FCF
:10156000FF1FE80FF91FE05EFD4F90E080E070E0A4
:101570005191DF0111979B01082E02C036952795E6
:101580000A94E2F7217021952527242325272C93FF
:1015900001968330910561F708958093CB020895F9
:1015A000282F92959F70963091F060F4925F9F7013
:1015B000923030F481E0203F81F030F4283E30F06A
:1015C00080E008959A5FF3CF243FD1F7089581E03A
:1015D000283EE0F3213FA1F7F9CF0895982F829597
:1015E0008F7011F0982F84E0292F2695269511F001
:1015F0008E5F922F969509F08F5F0895CF93C82F35
:1016000080919B018C1749F0CBDB60939C01709318
:101610009D0180939E0190939F01C0939B01CF9168
:101620000895CF93C82FDADF982F81E0933009F027
:1016300080E0E4DFC0931103CF91089521E030E012
:1016400001C0220F8A95EAF7209580911103822329
:10165000E8CF909107038095892380930703282F73
:10166000277061F4891751F09091CD0292FF06C066
:10167000869586958695E2DF10920703089521E00E
:1016800030E001C0220F8A95EAF780911103822B86
:10169000C8CFACE0B0E0EFE4FBE00C94BF346C01E9
:1016A0007B01DC011296AD90BC901397ED91FC91FB
:1016B000222309F464C00091A001011101C004E0DB
:1016C0000150110B81E090E04C01002E02C0880C0B
:1016D000991C0A94E2F7CF01B4010E941C359B01CA
:1016E000CB01002E02C0880F991F0A94E2F7E81B75
:1016F000F90BD601ED93FC93C501B4010E941C3592
:10170000CB01002E02C0880F991F0A94E2F7A81A95
:10171000B90AF601B382A2826138FFEF7F0704F1B4
:1017200060387105FCF4D70115966C932138BFEF32
:101730003B07D4F020383105CCF4822F8195F70196
:101740008483442319F06195658324838091A101EA
:10175000882371F0813081F02C96E0E10C94DB3429
:1017600061E8E1CF6FE7DFCF21E8E7CF2FE7E5CFF3
:10177000D70115961C92F0CFF7011482EDCF21E02E
:101780002427411106C0B194A194B108F195E195C7
:10179000F109022F10E044E0249F90011124D901A7
:1017A000A35FBD4F8D919C911197AC0197FF02C033
:1017B0004D5F5F4F5595479555954795A41AB50AC6
:1017C000A80EB91EAD92BC92D901A35FBD4F12966F
:1017D0008D919C91AC0197FF02C04D5F5F4F559575
:1017E000479555954795BF01641B750B680F791F89
:1017F0007A836983F901E35FFD4F738362832081FC
:10180000318137FF02C02D5F3F4F359527953595C4
:10181000279589819A8197FF03C003969A838983CC
:1018200069807A8075946794759467945090ED02FE
:1018300053E0000F111F5A95E1F75520A9F0A901B7
:1018400037FF04C044275527421B530BC30177FEC3
:1018500004C08827992786199709481759070CF457
:10186000AC0141155105B9F4F801E350FE4F108267
:101870001182128213821482158216821782D70176
:1018800012962C93129713966C92F6011182108285
:101890001382128261CF03501E4FDA010E9451352C
:1018A00069837A838B839C83F80180819181A281F3
:1018B000B38189809A80AB80BC80880E991EAA1E55
:1018C000BB1E89829A82AB82BC829A01D3010E949C
:1018D00051356D837E838F83988784819581A6811E
:1018E000B7812D813E814F815885280F391F4A1FAE
:1018F0005B1F2D833E834F835887652D70E080E406
:1019000090E00E941C354B01770FAA08BB08698143
:101910007A818B819C81A50194010E942F35290138
:101920003A01D8016D937D938D939C9313976D81AC
:101930007E818F819885A50194010E942F3529838E
:101940003A834B835C83A501940169817A818B8101
:101950009C810E94F4344B015C018D819E81AF819A
:10196000B88588199909AA09BB09F8018483958368
:10197000A683B78321E83FEFF1E84F16FFEF5F063C
:101980006F067F063CF020E84216510461047104A2
:10199000E4F4920149815A816B817C8191E8692E3E
:1019A00077247A9441388FEF5807680778070CF44A
:1019B00066CF69807A8040385105610571050CF465
:1019C0005ECF8FE7682E712C5ACF2FE730E0E2CF41
:1019D0008F708A3010F4805D0895895A089520E24E
:1019E00087FF02C081952DE23AE0632F0E940F35F8
:1019F000905D9093FB0181110BC02093FA0120E2CE
:101A00002093F90120E22093F80188EF91E00895F6
:101A1000632F0E940F35905D9093FA01882381F324
:101A2000805D8093F901EFCFAC01860F971F57FDC2
:101A300007C077FD04C097FF02C08FEF9FE70895AE
:101A400077FFFDCF97FDFBCF80E090E80895E7E7B3
:101A5000F1E083E0DF011D928A95E9F7E3E7F1E029
:101A600084E0DF011D928A95E9F708959C01809139
:101A70007001909171018217930729F030937101E1
:101A800020937001E4CF089590916E01981719F09A
:101A900080936E01DCCF0895CF9369EF72E081E00F
:101AA00093E09ED9C82F882319F081E093E0C5D92F
:101AB0009091020386E0E1E0F3E0DF01282F1D9220
:101AC0002A95E9F790930203A9EFB2E001900D92F5
:101AD0008A95E1F781E0C11103C0911101C080E056
:101AE0008170CF910895CF93DF93282F81E02A3022
:101AF00019F02D3029F480E088D0DF91CF9108953E
:101B0000809167069091680636E0FC01A1E6B6E098
:101B100001900D923A95E1F730EE320F343A08F425
:101B200058C026E0FC0111922A95E9F7C09167069A
:101B3000D091680646E050E0BE0181E696E00E9442
:101B4000E4359E0121563440892B41F1C90145E01D
:101B5000969587954A95E1F741E050E0BA0102C0B9
:101B6000660F771F8A95E2F7CB0160915F04709151
:101B70006004862B972BB9016B5F7F4FE5E076956C
:101B80006795EA95E1F702C0440F551F6A95E2F7A1
:101B9000842B952B9093600480935F042A5F3F4FC2
:101BA00040915E04642F70E0C9010E94A934481B73
:101BB000463010F4240F311D211572E0370710F064
:101BC00030E020E02F593B4F3093680620936706A2
:101BD00094CF2052330B46E0429FB001439F700DDB
:101BE00011246D5E794F46E050E00E94CE359ECFC5
:101BF000CF93DF93EC01FE018491811103C0DF914B
:101C0000CF91089570DF2196F6CFCF93382FE091D2
:101C10006706F0916806E156F44020915E04622F59
:101C200070E0CF010E94A934281B822F332359F082
:101C300066E00E940335C82FC15010F4CF9108957B
:101C400080E251DFF9CF9F01280F311D211532406D
:101C500018F080E0F0E0E0E08E0F9F2F911D8F598B
:101C60009B4F9093680680936706E8CF80910304AA
:101C700090913A02892B90913902992389F0892B0E
:101C800090E022EF31E0F90140812F5F3F4F411199
:101C90009F5F41E0283F3407B1F79111109239025C
:101CA0008093F00148E050E06BE372E080EF91E058
:101CB0000E94E435892BB9F088E0E0EFF1E0ABE376
:101CC000B2E001900D928A95E1F7E0915A04F0910B
:101CD0005B04309741F00280F381E02D309719F0DA
:101CE00080EF91E009950895882311F0DADBBECFEB
:101CF0000895882331F090910304892B8093030485
:101D0000B5CF08950F931F93CF93DF93EC01FC01A0
:101D100001900020E9F78F0101501109C017D10788
:101D200028F0DF91CF911F910F9108958991DBDE0B
:101D3000F5CF0F93CF93DF93C2E5D4E0488159816B
:101D40006A817B8188E090E00E942E36288139816B
:101D50004A815B816C817D818E819F8100E20E943E
:101D60009135622F83E290E00E941C36DF91CF9183
:101D70000F9108950F931F93CF93DF93D82F162FB2
:101D8000C42F022F8091520480FF34C0209153044D
:101D90002D1308C090915404961304C090915504DB
:101DA000941729F090911003926090931003E82FFC
:101DB000E695E695F0E0E353FE4F908190930E0395
:101DC0008C7F8430E1F48C2FC73908F086E96D2FC1
:101DD000712F11D9962F672F482F892FE9D8D093CB
:101DE000530410935404C0935504002319F082E562
:101DF00094E09FDFDF91CF911F910F910895923072
:101E000019F4C0915504EBCF963049F7D22FE7CFA4
:101E1000E2E5F4E043812FE0421B08F440E021E0DA
:101E200062818181A7CFE2E5F4E043812FE0420F98
:101E300008F44FEF21E0628181819CCFE2E5F4E07C
:101E4000628121E1621B08F460E021E0438181812D
:101E500091CFE2E5F4E0628121E1620F08F46FEFD7
:101E600021E04381818186CFE2E5F4E0818121E0B8
:101E70004381628181517ECFE2E5F4E0818121E0FE
:101E8000438162818F5E76CF80915604882319F05A
:101E900081508093560482E594E04BCF80915604A4
:101EA000833018F48F5F8093560482E594E041CF2D
:101EB000E2E5F4E080818E7F8083CF013ADF56D85F
:101EC000EEE0F3E082818160828357C8E2E5F4E0CE
:101ED00089E080838AEA81838FEF828380E883832D
:101EE0008483EEE0F3E082818360828382E594E084
:101EF00020CF1F93CF93DF93962F122F632F843021
:101F0000D8F49830C8F44630B8F4C42FD0E0CC0FE1
:101F1000DD1F2CE0929FC00DD11D112490E6899FFA
:101F2000C00DD11D1124CE0185960E941C36612F53
:101F3000CE0186960E941C36DF91CF911F910895A5
:101F4000AF92BF92CF92DF92FF920F931F93CF93E6
:101F5000DF93B12CA12C00E0650110E012C0FE015E
:101F6000259134914F2D612F802FC3DF2296F3945A
:101F700086E0F812F4CF86E0C80ED11C1F5F18303F
:101F800039F0E601CC0FDD1FC650DC4FF12CE7CF56
:101F90000F5F80E3A80EB11C0430F1F6DF91CF9102
:101FA0001F910F91FF90DF90CF90BF90AF90089559
:101FB0004F925F926F927F928F929F92AF92BF9259
:101FC0000F93CF93DF9300D000D0CDB7DEB788E07A
:101FD00090E00E9412362B013C01A2E5B4E06C9324
:101FE00050925304809354047092550410925604F6
:101FF00010925704109258041092590483E290E012
:102000000E940A36282F30E040E050E060E070E0A7
:1020100080E090E000E20E947635242935294629A7
:102020005729E2E5F4E020833093530440935404AD
:10203000509355046093560470935704809358044A
:10204000909359040F900F900F900F90DF91CF91C4
:102050000F91BF90AF909F908F907F906F905F9007
:102060004F9008950F931F93CF93DF93843030F5F3
:10207000683020F5463010F5C42FD0E0CC0FDD1FBE
:102080002CE0629FC00DD11D112430E6839FC00D4E
:10209000D11D1124CE0185960E940A36082F10E02A
:1020A000102F0027CE0186960E940A369801282B11
:1020B000C901DF91CF911F910F91089590E080E0C9
:1020C000F8CF462F672F783028F4463018F4843044
:1020D00008F4C8CF80E090E00895B0E0A0E0E3E726
:1020E000F0E10C94C8347C01009111038091CB0283
:1020F000082BC3E0D0E010E0DC2EC8010C2E02C09B
:10210000959587950A94E2F780FD09C02197A0F77D
:10211000D12C8D2DCDB7DEB7E7E00C94E434B701B8
:102120008C2FCFDFE7D8019789F3F3CFCF93DF93DD
:10213000D82FC92FD2DF6D2F7C2FC3DFDBD8DF91E3
:10214000CF910895FC018481882321F080819181C1
:10215000EDDF26CA80E00895A6E0B0E0E2EBF0E112
:102160000C94CC3449835A83392F89819A81332343
:1021700081F0222371F0B1DF182F682F89819A81B5
:10218000D6D969817A81812F9CDF2696E3E00C9471
:10219000E83499D9182FF5CFFC01262F40815181C1
:1021A0006281738184819581D7CF0F931F93CF93E1
:1021B000DF938B01EA0190910E04943061F58093D6
:1021C000E9008FEF9091E800815095FD06C095EDF4
:1021D0009A95F1F700008111F5CF8091E80085FF15
:1021E0001AC00E948605811111C08091E80085FD0A
:1021F00006C08091E8008E778093E800F2CFF80166
:1022000081918F018093F100219779F78091E80007
:102210008E778093E800DF91CF911F910F91089501
:10222000BC0146E050E084E0C0CFCF93DF93D82FCD
:10223000C92F48E050E0682F792F81E0B6DF88E0B1
:10224000ED2FFC2FA4E0B4E001900D928A95E1F708
:10225000DF91CF910895792F603229F440E250E068
:10226000682F82E0A2CF08953BB1377F2BB1286061
:102270004FB7F8948CE393E0FC010196508168E03D
:102280002BB9000000C057FF3BB9550F000000C03C
:1022900000C000C03BB900C06A9591F753E0803F91
:1022A000950751F74FBF8FE594E00197F1F700C014
:1022B00000000895B0E0A0E0E0E6F1E10C94C53440
:1022C000F82EE92ED62EC72E8A018091BC02AA24B0
:1022D000A394B12C8A3018F48AE0A82EB12CC1E066
:1022E000D0E06D2D7C2D8F2D9E2DF801099581114B
:1022F00004C02196AC16BD062CF4CDB7DEB7EAE0DB
:102300000C94E134CC9F9001CD9F300D300D112401
:1023100090E080E045E34A95F1F7000001968217CE
:102320009307C1F7DECFAB0124E630E0BC0188E7BC
:102330000E946E329C0181E0232B09F080E0089519
:102340008091380390913B03911103C091E089275C
:102350000895882361F062E070E08BEB93E0E3DFA7
:10236000811103C080913803089510923803809141
:102370003803ECCFA5E0B0E0E0ECF1E10C94CD3413
:10238000809138038D8380913B038823E9F00E947C
:10239000D006DC01CB01805A9541AF4FBF4F8093EF
:1023A000340390933503A0933603B09337038D81A4
:1023B000811107C062E070E089EB93E0B4DF811126
:1023C00008C0809138038D838D812596E2E00C94BE
:1023D000E93481E080933803F4CF9091CD0292FBF1
:1023E000222720F9281771F080FB92F99093CD02F3
:1023F0006091CC027091CD0284E090E00E9436366C
:1024000082E027C90895B0E0A0E0E9E0F2E10C9491
:10241000C734FA0169017801C82F880FDD0B3097A6
:10242000B1F0DE0193E0AA0FBB1F9A95E1F7AF5F11
:10243000BE4F11968D919C911297815B9D4F4C914F
:1024400050E0E417F50708F4AF010E94F135CE0122
:102450000E943934182F8823D1F0E114F104B9F027
:1024600083E0CC0FDD1F8A95E1F7FE01EF5FFE4FA1
:10247000438150E0E416F50608F4A701CF5FDE4F74
:102480006C817D81615B7D4FC6010E94F135812F9A
:10249000CDB7DEB7E8E00C94E334A5E0B0E0E3E5C7
:1024A000F2E10C94C5348D83E62E5A01F22E6801B8
:1024B0008091BC028A3028F080E02596EAE00C94F6
:1024C000E1348D818930C4F319828A836B832C8334
:1024D00063E070E0CE0102960E9493078983E09248
:1024E0003101F092440110E000E030E020E044E0EF
:1024F00050E0BE016F5F7F4F85E085DF8823E1F20A
:102500004E2D50E030E020E0B50186E07CDF8823EE
:1025100099F230E020E041E050E0BE016B5F7F4F78
:1025200087E071DF882341F20F2D10E0960150E023
:1025300040E070E060E088E066DFBFCFA8E0B0E098
:10254000E4EAF2E10C94C734C090B002D090B1023A
:10255000E090B202F090B3020E94D006DC01CB0101
:102560008C199D09AE09BF0911E084369105A105BA
:10257000B10518F10E944909DC01CB010296A11DA9
:10258000B11D89839A83AB83BC8310E000E030E007
:1025900020E044E050E0BE016F5F7F4F82E033DF18
:1025A000182F882351F00E94D0066093B0027093D8
:1025B000B1028093B2029093B302812F2896E8E093
:1025C0000C94E3348F929F92AF92BF92EF92FF925E
:1025D0000F931F93CF93DF93CDB7DEB729970FB635
:1025E000F894DEBF0FBECDBF7B0101E010E09E017D
:1025F0002B5F3F4F50E040E070E060E080E003DFA1
:10260000182F882309F44EC08090AC029090AD0240
:10261000A090AE02B090AF020E94D006DC01CB01C8
:1026200088199909AA09BB0984369105A105B10544
:1026300048F464E070E080E592E00E9493079D8199
:10264000891781F104E010E09E012F5F3F4F50E0B9
:1026500040E070E060E081E0D6DE182F64E070E0DA
:1026600080E592E00E94930791E02D81281390E08D
:10267000192331F10E94D0066093AC027093AD0231
:102680008093AE029093AF0289819A81AB81BC8125
:102690008093A8029093A902A093AA02B093AB02E0
:1026A00011E00EC08091500290915102A09152020F
:1026B000B091530289839A83AB83BC831111E4CF19
:1026C0008091A8029091A902A091AA02B091AB02B8
:1026D000F70180839183A283B383812F29960FB65C
:1026E000F894DEBF0FBECDBFDF91CF911F910F9148
:1026F000FF90EF90BF90AF909F908F9008954F9272
:102700005F926F927F92AF92BF92CF92DF92EF92E1
:10271000FF920F931F93CF93DF9300D000D000D090
:10272000CDB7DEB78D837B01A42ED22E3E83B02E93
:10273000C12EDB014D905D906D907C900E94D00683
:10274000DC01CB0184199509A609B70984369105E6
:10275000A105B10510F4AA2051F110E000E030E02D
:1027600020E04B2D5C2D6D2D7E818D814CDE89838B
:10277000882339F00E94D006F70160837183828339
:102780009383898126960FB6F894DEBF0FBECDBF26
:10279000DF91CF911F910F91FF90EF90DF90CF903D
:1027A000BF90AF907F906F905F904F900895F1E051
:1027B000F983E7CFA1E0B0E0E0EEF3E10C94CB3495
:1027C0008091380389832091630290E041E02817CB
:1027D000190609F440E001E010E09E012F5F3F4F31
:1027E00068EB72E084E08BDF2196E4E00C94E73440
:1027F000ABE0B0E0EEEFF3E10C94CB3488E0E2E53F
:10280000F4E0DE01119601900D928A95E1F7809136
:102810000E0390910F03A091100389879A87AB87CD
:1028200041E08B85811101C040E00BE010E09E018A
:102830002F5F3F4F64EB72E083E061DF8111109204
:1028400010032B96E4E00C94E73428E030E043E0FA
:1028500060E086E30C943131CF93DF93D82FC62FFD
:10286000F4DF8D2F80680E9443318C2F0E9443310A
:102870008AEB8A95F1F700C00E94733183E492E0FD
:102880000197F1F700C00000DF91CF910895682F04
:10289000893708F068E76093990191E090939A0175
:1028A00090918E01992349F06150811101C064E03B
:1028B000683708F067E78FE0CFCF0895FB0180818C
:1028C000E6CF282F80919901811101C085E0022E69
:1028D000000C330B820F932F911D1816190614F05C
:1028E00081E090E0D4CFACE0B0E0E9E7F4E10C9413
:1028F000C9344F83588769877A878B879C878091F3
:102900008E01882309F442C080911502811106C00E
:1029100060E080E5A1DF81E08093150296DF80E52D
:102920000E9443310AEB0A95F1F700C00E945B3127
:102930000E945B310E945B317C010E945B3160E050
:10294000E62AF82A0E945B318C010E945B3120E06C
:10295000022B182B0E94733125E02A95F1F7000015
:10296000F894B70180919101909192015DD8909374
:10297000920180939101B80180919301909194010B
:1029800053D89093940180939301789480915C0440
:10299000882309F466C00E94D006462F572FBC0139
:1029A0008091160290911702A0911802B09119021D
:1029B0008A019B01081B190B2A0B3B0BD901C8018B
:1029C0000897A105B10508F44CC040931602509336
:1029D0001702609318027093190280919C019091E4
:1029E0009D01A0919E01B0919F01481B590B6A0B5C
:1029F0007B0B423351056105710580F41092920101
:102A000010929101109294011092930110929601EC
:102A100010929501109298011092970110915D0407
:102A200020919B01412FBE01695F7F4F81E991E0B9
:102A30000E94490B20919B0180918E01282741E043
:102A40004127BE01695F7F4F85E991E00E94490BF4
:102A500086E0FE013796A6EAB1E001900D928A95D4
:102A6000E1F786E0FE013796DE01119601900D92A6
:102A70008A95E1F729813A814B815C816D817E8164
:102A800080E090E02C96E6E00C94E534CF93C82FDC
:102A9000DCDE8C2F0E9443318FE792E00197F1F743
:102AA00000C000000E945B31C82F95E09A95F1F7B5
:102AB00000000E94733185E68A95F1F700001092BC
:102AC00015028C2FCF910895CF93DF930E94A030F1
:102AD000269ABBDE6AE58AE3BFDE2FEF80E792E04D
:102AE000215080409040E1F700C0000082E0CEDF3E
:102AF00083E0CCDF84E0CADF85E0C8DF86E0C6DFA4
:102B000060E080E1A9DE80E0C1DFD82F81E0BEDF98
:102B1000C82F0E947331D23419F481E0C13009F01A
:102B200080E0817080938E01882319F064E08FE04B
:102B300093DE81E0DF91CF9108951F920F920FB63F
:102B40000F9211242F933F934F935F936F937F9333
:102B50008F939F93AF93BF93EF93FF938091E10087
:102B600082FF09C08091E20082FF05C08091E100F0
:102B70008B7F8093E1008091DA0080FF24C08091F8
:102B8000D80080FF20C08091DA008E7F8093DA0029
:102B90008091D90080FFA9C080E189BD82E189BD13
:102BA00009B400FEFDCF81E080930E048091020401
:102BB000811109C00E9467050E9408068091E20009
:102BC00084608093E2008091E10080FF1AC08091D0
:102BD000E20080FF16C08091E2008E7F8093E200C9
:102BE0008091E20080618093E2008091D800806251
:102BF0008093D80019BC85E080930E0483E0809315
:102C000088018091E10084FF2FC08091E20084FF61
:102C10002BC080E189BD82E189BD09B400FEFDCFF2
:102C20008091D8008F7D8093D8008091E1008F7EC5
:102C30008093E1008091E2008F7E8093E20080919A
:102C4000E20081608093E20080910F04882309F400
:102C500052C084E080930E0480910E04843009F405
:102C600052C081E0809388018091E10083FF2CC0F5
:102C70008091E20083FF28C08091E100877F8093EC
:102C8000E10082E080930E0410920F048091E10035
:102C90008E7F8093E1008091E2008E7F8093E2003E
:102CA0008091E20080618093E20042E060E080E099
:102CB0000E94D6058091F00088608093F00081E04A
:102CC0008093880180938701FF91EF91BF91AF912D
:102CD0009F918F917F916F915F914F913F912F9134
:102CE0000F900FBE0F901F90189519BC10920E04F4
:102CF0001092020468CF8091E30087FD02C081E05A
:102D0000A9CF83E0A7CF82E0ADCF78941F921FB602
:102D10001F9211248F939F93AF93BF938091FE03D3
:102D20009091FF03A0910004B09101040196A11DB0
:102D3000B11D8093FE039093FF03A0930004B09312
:102D40000104BF91AF919F918F911F901FBE1F9063
:102D500018952FB7F8948091FE039091FF03A091EE
:102D60000004B09101042FBF0895F3DF2091F9030F
:102D70003091FA03232B21F08093F5039093F6030F
:102D80002091FB033091FC03232B21F08093F3036C
:102D90009093F40387EF93E00C941D07CF93C6E064
:102DA000E2EFF1E0DF018C2F1D928A95E9F7109296
:102DB0003A020E94360EE7EFF3E0DF011D92CA955A
:102DC000E9F71092F0031092F1031092F203CDDFB5
:102DD000CF910895AAE2B0E0E0EFF6E10C94CC3494
:102DE00080E194E0FC0101962091F100208324E031
:102DF00088319207B9F780911104893009F45BC0DA
:102E0000C8F4823009F4B8C0833009F487C0813037
:102E100099F18091E80083FF3BC18091100490916B
:102E200011049A3008F034C1E92FF0E0ED5AF94C62
:102E30000C944B358A3009F48EC08B3051F7809159
:102E40001004813231F78091140490911504892B7C
:102E500001F78091E800877F8093E8000E94B70522
:102E600081E090911204911101C080E0809387016C
:102E70001092030493DFCDCF80911004813A49F67C
:102E80008091E800877F8093E800809114049091FE
:102E90001504892B61F468E084E094E070E00E94FE
:102EA00062068091E8008B778093E800B2CF60E003
:102EB00090E080E0F3CF80911004813209F0A9CF37
:102EC00080911404909115048D7F892B09F0A1CF76
:102ED0008091E800877F8093E8008091E80082FF7E
:102EE00018C09091F3008091F200029731F4809124
:102EF000F100813011F0863021F48091F10080934F
:102F000086018091E8008B778093E8000E94B705E6
:102F100080CF80910E048111E0CF7BCF809110048F
:102F2000813A09F076CF8091140490911504892B91
:102F300009F06FCF8091E800877F8093E80080914F
:102F4000E80080FFFCCF809187018093F1008091A1
:102F5000E8008E77D9CF80911004813209F059CFE3
:102F60008091E800877F8093E8000E94B7058091F8
:102F70001304809385014DCF80911004813A09F0AC
:102F800048CF8091E800877F8093E8008091E80037
:102F900080FFFCCF80918501D8CF803899F08238AE
:102FA00009F076C0809114048F70873008F070C0EB
:102FB0008093E9008091EB0085FB882780F91092CF
:102FC000E90006C080910C0490910D04911182607B
:102FD0009091E800977F9093E8008093F100109221
:102FE000F1008091E8008E77B7C1882309F4A4C16D
:102FF000823009F04DC0809112048111A8C18091E6
:1030000014048F702FEF280F263008F041C08093F2
:10301000E9002091EB0020FF9AC1933031F48091B8
:10302000EB0080628093EB0092C19091EB00906185
:103030009093EB0021E030E001C0220F8A95EAF77F
:103040002093EA001092EA008091EB008860EACFBA
:1030500081111EC0109112041F778091E3008078C7
:10306000812B8093E3008091E800877F8093E800C4
:103070000E94B7058091E80080FFFCCF8091E300BB
:1030800080688093E30082E0111183E080930E0456
:103090008091E80083FF0AC08091E800877F8093D9
:1030A000E8008091EB0080628093EB00AA96E3E059
:1030B0000C94E8348058823058F7409112045091B3
:1030C00013044C3D83E05807A1F583E08A838AE22C
:1030D00089834FB7F894DE01139620E03EE051E279
:1030E000E32FF0E050935700E49120FF03C0E295F6
:1030F000EF703F5FEF708E2F90E0EA30C0F0C79620
:103100008D939D932F5F243159F74FBF8091E80035
:10311000877F8093E8006AE270E0CE0101960E940A
:1031200062068091E8008B778093E800B1CFC0966B
:10313000E7CF8091140490911504252F3327233075
:10314000310509F44AC078F52130310509F479C018
:103150008BE590E0EAE7F5E02230310509F098CF01
:103160002091E800277F2093E800209116043091F9
:1031700017048217930708F49C0140E021153105DC
:1031800009F064C0411162C08091E80082FDC9CF9E
:1031900080910E04882329F2853019F28091E8008D
:1031A00083FFF2CFBECF2132310509F43BC022327A
:1031B000310509F06DCF8330910508F069CFFC012E
:1031C000EE0FFF1FEF51FE4F0190F081E02D825274
:1031D0009E4FDC018C9190E011C0CA0199274130CB
:1031E00089F082309105B1F0892B09F051CFEFE0E1
:1031F000F6E0E4918E2F90E0EFE0F6E0009709F41E
:1032000047CFAECFEDEFF5E0E4918E2F90E0EDEFFC
:10321000F5E0F4CFE7EEF5E0E4918E2F90E0E7EEF5
:10322000F5E0ECCF8330910508F032CF880F991F7D
:10323000FC01E951FE4F0190F081E02D89E090E022
:103240008FCF82E190E0E5EDF5E08ACF80910E042A
:10325000882309F466CF853009F463CF8091E800B4
:1032600083FD5FCF8091E80082FD8ECF8091E800E2
:1032700080FF84CF9091F3008091F20021153105F9
:1032800019F08830910550F041E0089709F040E0CE
:103290008091E8008E778093E80070CF449140934E
:1032A000F1003196215031090196E8CF803809F0BC
:1032B000EFCE8091E800877F8093E80080910F0433
:1032C0008093F1008ECE8111E3CE10911204123062
:1032D00008F0DECE8091E800877F8093E8001093AD
:1032E0000F040E94B705112311F084E005C08091FE
:1032F000E30087FDFACF81E080930E0442E061ECA9
:1033000081E00E94D60542E261EC84E00E94D6058D
:1033100042E261EC82E00E94D60542E260EC83E08A
:103320000E94D60580910E04843021F081E08093C4
:103330008801AECE82E0FBCF80911204813009F08B
:10334000A7CE81E0933009F080E080930D041092C5
:10335000E9008091E800877F8093E8000E94B7052C
:1033600097CE1F920F920FB60F9211242F933F9377
:103370004F935F936F937F938F939F93AF93BF937D
:10338000CF93DF93EF93FF93D091E900DF708091AB
:10339000EC00C82FC17080FDC0E81092E900809158
:1033A000F000877F8093F000789414DD1092E9009C
:1033B0008091F00088608093F000CD2BCF70C09397
:1033C000E900FF91EF91DF91CF91BF91AF919F9174
:1033D0008F917F916F915F914F913F912F910F90BE
:1033E0000FBE0F901F90189510920304D7DC2FEF9B
:1033F00084E39CE0215080409040E1F700C0000051
:1034000088E19AE00FB6F894A895809360000FBE0B
:1034100090936000FFCF662309F46FC08D3C31F4B8
:103420000E94650781958093FA039FCC8E3C19F426
:103430000E946507F8CF8F3C31F40E9465078195A3
:103440008093F903F2CF803D19F40E946507F8CF0D
:10345000893D29F40E9443078093FB03E6CF8A3D10
:1034600021F40E9443078195F7CF8B3D31F40E94F0
:10347000430781958093FC03D8CF8C3D19F40E94BB
:103480004307F8CF9FE2980F983018F5282F215D59
:10349000330BA90121E030E001C0220F4A95EAF781
:1034A0009091F803922B9093F803815D21E030E036
:1034B000A90102C0440F551F8A95E2F7CA01209165
:1034C0000203662309F492C0822B809302030C94BA
:1034D0004C0D8D3D31F48091F20381608093F203B5
:1034E000A4CF8E3D21F48091F2038260F7CF8F3D0F
:1034F00019F58091F2038460F1CF9091F9038D3C2E
:1035000059F42091FA0327FF0DC01092FA0391118C
:103510000BC01092F00308C08E3CB1F42091FA0366
:1035200012169CF39923B1F09091FB032091FC03B8
:10353000922B11F41092F103482F415D550B483046
:10354000510508F4B2CF71CF8F3C39F497FFEACF21
:103550001092F9039091FA03DACF803D19F419160D
:10356000BCF3E0CF2091FB03893D29F41216D4F679
:103570001092FB03D7CF8A3D19F427FFD3CFF8CFA2
:103580002091FC038B3D29F427FFCCCF1092FC0344
:10359000C9CF8C3D19F41216CCF3C4CF2FE2280FFB
:1035A000283088F4282F215D330BA90121E030E079
:1035B00001C0220F4A95EAF720953091F8032323A2
:1035C0002093F803AFCF2091F2032E7F8D3D59F069
:1035D0002091F2032D7F8E3D31F08F3D09F0A2CF77
:1035E0002091F2032B7F2093F2039CCF80958223BE
:1035F0006CCF882339F19CEF980F913A78F4E2EF81
:10360000F1E028EF31E09191891303C0DF011197B8
:103610001C922E173F07B9F70C94360E90E2980FC4
:10362000983050F4877091E001C0990F8A95EAF7BD
:10363000892F0E94510AF0CF93E3980F933110F431
:1036400060E0E9CE08950F931F93CF93C82F88238E
:1036500041F18CEF8C0F813AB0F502EF11E088EF69
:1036600091E0F8012191C21701F18E179F07D1F760
:10367000EFEF80E0D8019D918D01C91781F0EF3FF8
:1036800019F4911101C0E82F8F5F863099F7EF3F51
:1036900031F00E2E000CFF0BE051FE4FC2830E9452
:1036A000360ECF911F910F910895E2EFF1E0219135
:1036B000C21303C0DF0111971C928E179F07B9F741
:1036C0000E94360ED5CF80E28C0F883068F4C77028
:1036D00021E030E001C0220FCA95EAF7809103048F
:1036E000822B80930304DBCF83E38C0F8331C8F6F6
:1036F00061E08C2F90DED5CFA5E0B0E0E2E8FBE101
:103700000C94C13480913B03882309F411C12091AA
:10371000390330913A033A8329831BDB49815A816B
:10372000841B950BC29708F4D9C013DB90933A031E
:103730008093390381E694E090936806809367064E
:1037400080915C04882309F402C183EC93E00E9419
:10375000F80D88EB0E94730D8091A5010E94E80C82
:103760000E94730D89EB0E94730D8091A4010E9449
:10377000E80C0E94730D80EC93E00E94F80D80919C
:10378000A2019091A30154E0969587955A95E1F78F
:103790000E94E80C0E94730D8091A2010E94E80C27
:1037A0000E94730D8DEB93E00E94F80D8CEA91E07E
:1037B0000E94820E82EE93E00E94F80D8091A80193
:1037C0000E94EF0C0E94820E8091A9010E94EF0CD2
:1037D0000E94820E8091AB010E94EF0C0E94820E2B
:1037E0008091AA010E94EF0C0E94820E8AED93E064
:1037F0000E94F80D80919901811101C085E00E941D
:10380000EF0C01960E94820E86ED93E00E94F80D67
:103810008091A101882331F0813009F48DC08DECB5
:1038200093E002C083ED93E00E94F80D80919B012C
:10383000882309F484C08BEE93E00E94F80D89EC94
:1038400093E00E94F80D8091A001811101C084E0F5
:10385000805D0E94730D81EF93E00E94F80D61E09E
:1038600070E07A83698380911103882309F46AC028
:1038700090E0098002C0959587950A94E2F780FF51
:1038800061C089810E94E80C0E94730D89819A8130
:1038900001969A838983089731F780E20E94730D1D
:1038A0008EEE93E00E94F80D80916E01882309F45A
:1038B0004BC08BEE93E00E94F80D809170019091C7
:1038C00071016AE070E00E94A934862F0E94EF0C1B
:1038D00001960E94820E80E30E94730D80915F0426
:1038E00090916004892B09F04EC0809138038823A1
:1038F000F9F00E94D00669837A838B839C83809140
:10390000340390913503A0913603B0913703298198
:103910003A814B815C81281B390B4A0B5B0BDA0126
:10392000C9018F3F9F4FAF4FBF4710F40E94A011B6
:103930002596EEE00C94DD3480ED93E075CF88EEB3
:1039400093E07BCF80EBA0CF88EE93E0B4CF90E9FB
:103950009983A981A051AD8387EF93E00E94F80D70
:103960008D81B82FBF5FBD830E94730D6D8029814B
:103970006212F6CF80E00E94050E3981305F3983F4
:10398000303C39F7ABCF80913B03882309F4ADCFAE
:10399000809133038111A9CF0E94BA1120915F0455
:1039A000309160042115310509F49FCF80E041E09A
:1039B00050E0082F10E0BA01082E02C0660F771FF2
:1039C0000A94E2F77A83698362237323672B11F4E5
:1039D0008F5FEFCF9091320390FF97C0880F880FD1
:1039E000880F8093800110928301895F8093810109
:1039F00083E08093840124E630E047E050E06EE706
:103A000071E088E70E942B32892B09F06ECFA80164
:103A100025E0440F551F2A95E1F78091320380FF7E
:103A200086C0E2E1F3E080E2DF011D928A95E9F7CA
:103A30000AED11E086EDE82E81E0F82E97E0992E50
:103A400088248394D801ED918D01D7016D917D017A
:103A5000640F752F711D6F597B4FF0E0EE5EFC4FC8
:103A600030E020E0792C721AA82C022E01C0AA0C9A
:103A70000A94EAF76B0190E0D6018D916D018A21DD
:103A8000A72DA91BA770BA2E0A2E000CBB0B682EFF
:103A900001C0660CBA94EAF7B62CB195A195B109AC
:103AA000A770BB2701C08695AA95EAF7A62DA82B7B
:103AB00080818A2B80839F5F9830F1F62F5F3F4F84
:103AC00031962830310571F621E00E3D120709F0DC
:103AD000B9CF04E610E020E230E042E153E060E4D8
:103AE00088E70E94B332892B09F0FFCE49815A81C1
:103AF0004095509580915F0490916004482359232C
:103B00005093600440935F04F0CE8295880F8076D6
:103B100080938001980136952795369527952093B7
:103B20008301815E809381012093840164CF4F598A
:103B30005B4F04E610E020E230E0D1CFA4E2B0E039
:103B4000E4EAFDE10C94CB348091FF02833009F06C
:103B50006AC1409101035091020360910303709187
:103B6000040380910503909106030E94731420932F
:103B700001033093020340930303509304036093C3
:103B800005037093060386E0E1E0F3E0DE0117969B
:103B900001900D928A95E1F786E0FE013796DE01ED
:103BA0001D9601900D928A95E1F786E0FE013D9603
:103BB000DE01119601900D928A95E1F786E0FE01F3
:103BC0003196A1E0B3E001900D928A95E1F786E08D
:103BD000E1E0F3E0DE01179601900D928A95E1F79E
:103BE00086E0FE013796DE01539601900D928A958C
:103BF000E1F786E0FE017396DE01119601900D92C9
:103C00008A95E1F786E0FE013196A1E0B3E00190EC
:103C10000D928A95E1F786E0E1E0F3E0DE015F9640
:103C200001900D928A95E1F786E0FE017F96DE0114
:103C3000179601900D928A95E1F786E0FE0137967E
:103C4000DE01119601900D928A95E1F786E0FE0162
:103C50003196DE01599601900D928A95E1F786E042
:103C6000FE017996DE01179601900D928A95E1F793
:103C700086E0FE013796A1E0B3E001900D928A95AF
:103C8000E1F786E0E1E0F3E0DE01179601900D92A6
:103C90008A95E1F780916E01882309F475C000913F
:103CA00073011091740155D820917201801B910B02
:103CB0002817190608F068C0009175011091760167
:103CC00048D8801B910B893C910508F45DC048855C
:103CD0002A858B859C8530917A015985350F3093E3
:103CE0007A0150917B01250F20937B0150917D013A
:103CF000950F90937D0150917C01850F80937C01FD
:103D000037FD31953B30A0F527FD21952B3080F50F
:103D100097FD91959B3060F587FD81958B3040F53F
:103D200081E0411101C080E08170809377010E94A1
:103D3000D00810911103882309F442C010927A012F
:103D400010927B0110927C0110927D0102D8909319
:103D50007401809373011092760110927501809125
:103D60006F01111107C0882379F00E943F0B0CC02E
:103D700081E0DACF212F30E0082E02C0359527955B
:103D80000A94E2F720FFF1CF86E0E7EFF3E0DE01EF
:103D9000179601900D928A95E1F78091020398851C
:103DA000892B809302030E944C0D811139C08091B0
:103DB0000003817010920003A496E4E00C94E734B1
:103DC00080916F01111122C08111DECF009173012A
:103DD000109174010E94A916801B910B2091700113
:103DE000309171012817390778F680916F010E9490
:103DF0001E0B109274011092730110927A011092AE
:103E00007B0110927C0110927D01BECF212F30E00A
:103E100002C0359527958A95E2F720FFB5CFD6CF1A
:103E200081E090E0C6CF80E0C7CF80915C0488231A
:103E300011F00C94A9160E944909CB0108956091D4
:103E400052046695669570E041E050E08DE691E0A1
:103E50000E94D735892B19F481E080930F03E5DFA9
:103E600090930903809308038091100384608093EA
:103E7000100308959091520490FF2CC0937081110B
:103E80002AC09460909352048091100381608093C3
:103E90001003662321F082E594E00E94990E609160
:103EA00052046695669570E041E050E08DE691E041
:103EB0000E94D735892BB9F00E94B60781E0809324
:103EC0000B0320E040915504609154048091530409
:103ED0000C94BA0E0895893010F09062D3CF880FF9
:103EE000880F982BCFCFABDFE9CF909152049695F6
:103EF00096958FEF890F913009F488E061E0BACF91
:103F000080915204869586958F5F893008F081E014
:103F100061E0B0CFA7E1B0E0E0E9FFE10C94C33489
:103F20001D861C86FE013E9686E0DF011D928A9565
:103F3000E9F787EBE82E81E0F82E10E000E0CC24D2
:103F4000C394D12C21ECA22E21E0B22EF701819155
:103F50007F018F3F09F445C0F894E82FE295EF7098
:103F6000F0E021A18F70A60102C0440F551F8A9571
:103F7000E2F7CA01922F982B91A392A180958923F1
:103F800082A3789400C0EBEBF1E031E0912C219119
:103F90002F3F09F4A8C0A22FA295AF70B0E0909671
:103FA0008C9190E02F7002C0959587952A95E2F745
:103FB00080FD99C0832F982A330FAE16BF0639F7BC
:103FC000F701319780818F3F11F00E94300950EA4C
:103FD0005A95F1F7ECE0F0E0EC0FFD1FE00FF11F58
:103FE00090820F5F1F4F0430110509F0AFCF48E0FA
:103FF00050E0BE01645F7F4F81EC92E00E94E435A7
:104000009C01892B49F088E0FE013C96A1ECB2E0CE
:1040100001900D928A95E1F70091CA0210E00153D8
:104020001D4F232B09F461C081E0809347020E9459
:10403000A9169093460280934502F12CE0905C040F
:10404000EE2009F4B0C01A8219821C821B82809172
:10405000BC028A3008F06FC042EE52E1BE016F5FD1
:104060007F4FC8010E945A11882309F48BC04EE982
:1040700052E1BE016F5F7F4FC8010E945A11882331
:1040800009F480C048EF53E1BE016F5F7F4FC80164
:104090000E945A11882309F475C04AED53E1BE010C
:1040A0006F5F7F4FC8010E945A11882309F46AC0CC
:1040B0001092BC028091C90290E044E050E0BE0141
:1040C0006F5F7F4F81539D4F0E94E43521E0209325
:1040D0004E02892B09F048C0E12C8E2D8F2967965E
:1040E000ECE00C94DF3480E066CFF0904702FF20D4
:1040F00009F4A3CFC0904502D09046020E94A916B1
:104100008C199D09059708F498CF44E050E061ECC4
:1041100072E0C8010E94E435892B59F084E0E1EC9B
:10412000F2E0D80101900D928A95E1F710924702D2
:1041300085CFF12CFBCFC0904802D09049020E945D
:10414000A9168C199D09843F914008F085CF809174
:104150004E02882309F284E0FE013196DF011D92B0
:104160008A95E9F710924E02E091C902F0E0E1531E
:10417000FD4F89819A81AB81BC8180839183A28329
:10418000B383ABCF8091BC028F3F31F08F5F8093C0
:10419000BC028A3008F48ECF0E94A916909349027F
:1041A00080934802D4CFF80180819181A281B381AC
:1041B0008093500290935102A0935202B093530205
:1041C00064E070E080E592E00E94930780934F02E4
:1041D0008090540290905502A0905602B0905702E1
:1041E00080914A0290914B02A0914C02B0914D02F5
:1041F00088169906AA06BB06B1F080924A029092F0
:104200004B02A0924C02B0924D020E94D006861A38
:10421000970AA80AB90A8092BD029092BE02A092A3
:10422000BF02B092C0028BE0E8E5F2E0DE01119639
:1042300001900D928A95E1F78091580286958695B6
:10424000D0905902C0905A02B0905B020091610276
:104250001091620210926202112321F110FF10C02E
:1042600029812370982F990F990F292B29839091D9
:10427000520420FF1EC091609093520460E0FADD6A
:1042800011FF06C020E04B2D6C2D8D2D0E94BA0E23
:1042900012FF03C00023D1F0D2DD13FF03C081E081
:1042A00080930B0380916302882399F00E94BA11D6
:1042B00014CF9E7F909352040E94B6078091100302
:1042C0008160809310030E94BD07DACF0E94B60779
:1042D000E4CF0E94A01101CFA6E0B0E0E2E7F1E256
:1042E0000C94C3347C01DC0114968C91882309F46E
:1042F0008BC161E0C7010E94CC108C0180916E01DE
:10430000882341F1F701D5800032F2E51F0708F05C
:1043100091C0011522E5120708F0D5C0011530E55E
:10432000130708F07CC0011580E4180708F0DFC00F
:10433000011590E2190708F0E1C0083E110508F0E8
:1043400041C0003E110508F443C08091790187FD0A
:10435000109279011093A3010093A201D7018D91CE
:104360009C9111979093A5018093A401F801349733
:10437000E533F10508F0DBC0E55AFE4FE4911596F0
:104380008C9120EB811102C02E2FE0EBACEAB1E062
:1043900090E080E03D913213C4C082579E4FDC0113
:1043A0005E96EC93F801D70115968C91882309F459
:1043B000D0C0FE57E031F10508F0CBC0E35AF94C0C
:1043C0000C944B35C8019A9581159F4108F4BDCFD7
:1043D000F7018481882309F4B8CF0730FEE71F076F
:1043E00009F43FC0C8018D5C91094397D0F10E9448
:1043F000D0088111AACFDD2059F080916F01209162
:104400001103211182C0882309F488C00E94270D5E
:104410000E94A916909376018093750196CFC801EA
:1044200035E0969587953A95E1F78F709927209119
:104430006F0113C00038B2E51B07B8F40036E2E59F
:104440001E0708F040C00034F2E51F0708F07DCFDA
:1044500020916F01C8018F7199272817190609F05B
:1044600074CF8D2D0E94B90870CF003E22E512074F
:1044700018F5003C32E5130708F467CF20916F016F
:10448000C8018F7199272817190609F05ECF8D2D65
:104490000E94B908D70116968C911697807F8035B7
:1044A00009F053CF15968C918823D9F0809179012A
:1044B00081508093790149CFC801805E92458097F1
:1044C00008F443CF85CF20916F01C8018F719927E0
:1044D0002817190609F039CFD11037CF0E94C70825
:1044E00034CF0E94C708809179018F5FE2CFF70136
:1044F0008681807F19F4812F992797CFD70116964F
:104500008C91807F09F421CF63CF30E0082E02C068
:10451000359527950A94E2F720FF78CF0E941E0B6D
:1045200075CF01968630910509F034CF3BCFC80195
:104530009A95F801FF2781159F4108F434CF073081
:10454000EEE71E0709F02ECFD70115968C910E9439
:10455000FE0AF7019581992309F4E9C080910304CB
:104560008272F801E052F847EB30F10508F0DFC045
:10457000E359F94C0C944B3580E00E94471410929B
:10458000A00180E00E94440D8AE892E00E94360D6E
:104590002BC02091A00130916E018091700190910B
:1045A000710162E370E00E94A9348FEF860F909151
:1045B000A1016091ED024091990120FB47F9522F32
:1045C00056955370330F330F532B282F220F220F82
:1045D000220F522B660F660F6C739370692B70E07D
:1045E0008FE090E00E942E3680910703877061F083
:1045F000D70115968C91882339F08091CD0282FFE6
:1046000003C082E00E94290B2696ECE00C94DF3474
:1046100081E00E946114E8CF8FEFFBCF8AE0F9CFF1
:1046200086EFF7CF90919B0181E089270E94FE0AD7
:10463000DBCF8091A001811101C084E08F5F18164B
:104640000CF081E0883008F087E08093A001CCCFA7
:104650008091A001811101C084E08150F0CF81E000
:104660008093A101C1CF1092A101BECF82E0F8CF0B
:1046700090916E0181E089270E94440DB5CF809111
:10468000700190917101C296893EB3E09B0708F4D6
:104690007DCF88EE93E07ACF809170019091710187
:1046A000C2978436910508F071CF84E690E06ECF12
:1046B0008091520480FF03C00E94580F95CF816003
:1046C0008093520461E086958695D4DB8DCF882354
:1046D00021F00BDC89CF8823E1F312DC85CF88231E
:1046E00029F00E94340F80CF8823D9F30E943C0F19
:1046F0007BCF882329F00E941E0F76CF8823D9F321
:104700000E94290F71CF882329F00E94080F6CCFD7
:104710008823D9F30E94130F67CF882329F00E94C2
:10472000440F62CF8823D9F30E944E0F5DCF9801CA
:10473000205E324520323105A8F4911127C00F7157
:1047400081E090E09C0102C0220F331F0A95E2F73E
:104750008901622F83E090E00E941C36802F0E9426
:10476000CD0A42CF9923D1F180E00B353CE7130706
:1047700051F10C358CE71807F9F081E00A35ACE708
:104780001A0709F10130BCE71B0731F10330ECE7F0
:104790001E07E1F001151C4709F5109203040E9461
:1047A000CE162FEF34E38CE0215030408040E1F70B
:1047B00000C000000E94BF068091CD0282FB8827C6
:1047C00080F991E089270E94ED110ECF6FEF7FEF06
:1047D00090E080E00E9436360E94F419F701C08014
:1047E000D180992309F470C0C6010E946D10182F62
:1047F000682FC6010E94970AB601812F0E9461109E
:104800000E947A09082FD92E882E86E0F701DE0152
:10481000119601900D928A95E1F7D7011596CC90EB
:1048200015971696BC90B2949FE0B9228091070329
:10483000877009F19C2CCC20F9F08D2D807F80347D
:1048400069F080E2800F8830B0F08D2D807E80325C
:1048500029F4B1E0B01778F4BB2069F08091CD0263
:1048600082FF09C082E00E94290B809107038770B4
:10487000992493948111912CAD2CA2948FE0A822BD
:10488000E8E0AE1609F419C1EA1508F457C0F3E0E0
:10489000FA15F8F08D2D807F1D2D1F7021E02A154F
:1048A00008F060C0803211F01295107F882009F462
:1048B0008FC0A1E08A1609F4D5C0CC2009F4E1C06C
:1048C000BB2009F4A3C063C0C6010E94630A182F6D
:1048D00093CF35E0A31609F4EBC0AA2DA850BB0B6B
:1048E000149718F40E943007912C802F9D2D0E9460
:1048F000D00A882341F0CC2009F4D7C1BB2009F4A9
:10490000CBC110921F029920A1F08091070380FD76
:1049100010C0F70115828695869586950E943F0BFB
:10492000C701DADC809107038695869586950E94FB
:104930001E0B60E0C7010E94CC1066CE89E0A8166D
:1049400009F42AC186E08A0D8F70823030F6802FFC
:1049500092EF891231C18D2D8F71C1102AC10E9431
:104960003F0BBBCF882311F01295107FCC20B9F0FC
:10497000112369F080E2800F883010F0811009C0A7
:1049800080910304182B109303040E94360E802F8D
:104990002FC080913A02182B10933A02F6CF802F45
:1049A0000E94F91A112309F498CF80E2800F883011
:1049B00010F0811004C0812F0E94510A06C010958A
:1049C00080913A02182310933A020E94360E85CF46
:1049D0008091CD0282FD16C0CC2069F0112339F000
:1049E00080910304182B109303040E94360E80E07C
:1049F0000E94231B72CF80E00E94F91A112309F450
:104A00006CCFD9CFCC20A1F0B11004C0812F0E946F
:104A1000790E63CFB1E0BB1260CF80913902912F44
:104A20009823191709F459CF182B1093390255CF31
:104A3000B11053CF812F0E94740E90913902812FB3
:104A4000892329F0812F80958923809339028091D1
:104A50001A02912F982309F440CF10951823109330
:104A60001A023BCFCC2029F0E5E0EB1508F435CF56
:104A7000CDCFF4E0FB1508F430CF812F0E94740EE7
:104A80002CCFBB20D1F329E382120DC03FEF87EE7C
:104A900093E0315080409040E1F700C00000802F4B
:104AA0000E94F91A1ACFAFE1BEE41197F1F7F5CFE2
:104AB0006C2D802F0E940B1A10CF8D2D837099F5CD
:104AC000C1100BCF402F429546954770440F440FBD
:104AD000802F8F70042E01C0880F0A94EAF7202FD0
:104AE000207104FF07C02FE030E001C0220F4A957B
:104AF000EAF720953D2D369536953370323071F0BA
:104B0000333051F04091CB02313029F0822B842395
:104B10000E94CD0AE2CE842B822BFACF282B8091E3
:104B2000CB028227F5CF8695CC2011F08D2D817098
:104B3000882309F4D2CE402F429546954770440F02
:104B4000440F802F8F70042E01C0880F0A94EAF75B
:104B5000202F207104FF07C02FE030E001C0220F9A
:104B60004A95EAF720953D2D3695369533703230CB
:104B700071F0333051F040911103313029F0822B24
:104B800084230E94110BA9CE842B822BFACF282BD1
:104B9000809111038227F5CF1D2D1F70CC2029F0A5
:104BA000812F0E943F0B802F32CF802F0E94740EE6
:104BB000812F0E941E0B91CEB2EFB81570F0E0EF7E
:104BC0008E16D1F0F1EF8F1691F0CC2009F450C081
:104BD000B110DDCE8D2D8F71C2CE23EF821619F16B
:104BE00034EF8312F2CF9091CD0292FD28C08D2D2B
:104BF0008F71CC20F1F2B3CECC2081F084E08B1504
:104C000008F46BCE2D2D2F7181E090E001C0880F4C
:104C10002A95EAF7909111038927B3CF95E09B1568
:104C200008F45BCEEFCF80E0CC2009F4AACF81E07E
:104C30009D2D9F7101C0880F9A95EAF7A2CFCC20D5
:104C400061F08D2D8F7192FF8ACEA8E08A9F90012E
:104C5000112423602093070382CE81E00E94290B58
:104C6000B1E0BB1508F039CE82E00E94290B35CEA9
:104C7000BB2079F0893341F4EFEFF7EE23E0E15008
:104C8000F0402040E1F709CF8FE19EE40197F1F772
:104C900004CF8D2D8F718DCF80911E0280931D02C8
:104CA0008091030480931E022ECE20E049815A8118
:104CB0006B817C818D8190E00E94AC109C01809181
:104CC0000304BB2019F010921F02ECCF40911B028D
:104CD00050911C022417350729F7F5CFB0E0A0E06A
:104CE000E4E7F6E20C94C83480913802807F09F042
:104CF0004FC080913702882309F44AC0E0915104E3
:104D000087E0D82E809118048E1709F441C00E2F29
:104D100010E0ED9DF0011124E75EFB4F84818823B4
:104D2000E1F1D09EE001D19ED00D1124FE01E75E9D
:104D3000FB4F91818091330298132FC09081809115
:104D4000320298132AC08581811127C0E280F38046
:104D50008091340290913502E81AF90A60E082E30A
:104D600092E00E94CC1088ECE816F104B0F4809137
:104D700038028F70806180933802C15EDB4F88817A
:104D80008F708061888382E392E0A6DA0E94590ADC
:104D9000CDB7DEB7E7E00C94E434F8013196E77064
:104DA000B1CFADE0B0E0E7EDF6E20C94C0348C0199
:104DB00086E0F801DE01189601900D928A95E1F7E0
:104DC000F801F480E58082E3882E82E0982E8091BD
:104DD0003602811128C0F11003C0FF24F3941BC0D8
:104DE000EE20F1F0C8010E94A210F82E8823C1F035
:104DF00087E0F801A2E3B2E001900D928A95E1F715
:104E000080913602813031F48091320290913302E8
:104E10000E94961063DF8F2D2D96EFE00C94DC340A
:104E2000C8015ADADACF5080A180C280D38060E016
:104E300082E392E00E94CC10B0903702809134025D
:104E400090913502BB2009F4CEC03601681A790A68
:104E500060E082E392E00E94CC10F8EC6F167104DF
:104E600008F099C0FF2009F4B8CF80913802382F9C
:104E7000307F20913302F801918131114FC0FE2C17
:104E8000291313C020913202908129130EC0E11022
:104E9000FBC08F7080618093380282E392E01CDA5D
:104EA00080913802F8018683B6CFE110EDC06A2DFB
:104EB000852D0E9449056A2D852D0E944905E82E01
:104EC0008111A9CF5886A986888599850E94961058
:104ED000292F22952F70903458F49F70223080F043
:104EE000992391F0F8019681907F71F4FE2C93CF75
:104EF0002A5F2F70223060F0C801EED9EB2CF6CF7C
:104F0000992311F0882391F3805E883078F3F4CFF1
:104F1000803F60F3815F833048F3EECF291314C0E4
:104F200020913202908129130FC0E1100DC08683B9
:104F3000C801D2D987E0F801A2E3B2E001900D9256
:104F40008A95E1F7FB2C67CFC8010E94A210882345
:104F500009F466CFEE2009F463CF809138028032E5
:104F600080F020913202309133023A832983DC822F
:104F7000CB82909136029D831E828F83CE01019653
:104F8000ABD987E0F801A2E3B2E001900D928A95D7
:104F9000E1F7A4DE22CF80913802982F907F51F460
:104FA00082E392E099D987E0F40111928A95E9F7BA
:104FB000F12C31CFFF2009F410CF20913302F801FA
:104FC00091812913C1CF2091320290812913BCCF46
:104FD000E110BACF8683C8017FD987E0F40111922E
:104FE0008A95E9F7AFCF5601A81AB90A60E082E3C3
:104FF00092E00E94CC10F8ECAF16B104A0F6FF20AE
:1050000009F4EBCEFE2CEE2009F40ACF9091330286
:10501000F801818198132BC09091320280819813FE
:1050200026C08091340290913502C81AD90AF8EC52
:10503000CF16D10498F48091380280FD0FC0982FCC
:10504000907F61F0F8018683903F31F0982F907F38
:10505000905F8F70892B8683C8013ED987E0F80165
:10506000A2E3B2E001900D928A95E1F7D4CEC80197
:105070000E94A210811185CF8091380281608093B7
:105080003802C80129D9C7CE809138028160809347
:1050900038028ECFABE1B0E0E0E5F8E20C94CC341E
:1050A0004E8B5F8B688F798F8A8F192F9B8F882308
:1050B00009F455C020E00E94AC109C01112349F076
:1050C00010921F0290931C0280931B0210923A02CE
:1050D0000AC080911B0290911C028217930719F459
:1050E00081E080931F021D8A86E0FE017696DE0134
:1050F0001F9601900D928A95E1F78B89882351F0D4
:1051000061E0CE010F960E94CC1061E0CE010F96B7
:105110000E94CC1087E0FE013F96DE0118960190B8
:105120000D928A95E1F7CE0108963BDE81110CC005
:1051300087E0FE013896DE01119601900D928A9566
:10514000E1F74C8541110EC017E080915104909118
:105150001804891337C06B96E3E00C94E834992364
:1051600011F2B4CF2091180430E0C9010196877084
:1051700099275091510458171906A1F04D8397E0D3
:10518000929FD001939FB00D1124A75EBB4FFE01EB
:10519000319601900D929A95E1F7809318040E9440
:1051A000590AD2CF109203040E94CE16109218040E
:1051B0001092510487E0E2E3F2E0DF011D928A954C
:1051C000E9F7C2CF819FC0011124875E9B4FE9DDC3
:1051D000882309F4C0CF8091510490E00196877034
:1051E000992780935104B1CFA6E0B0E0EAEFF8E24E
:1051F0000C94CB340E94A9168C01809143029091AB
:1052000044028017910779F019821A820E94A91628
:10521000682F49815A81792F80E090E03BDF10931D
:105220004402009343022696E4E00C94E7341F9274
:105230001FB61F9211248F939F93AF93BF938091BA
:10524000FD03811113C08091FE039091FF03A09193
:105250000004B09101044196A11DB11D8093FE038D
:105260009093FF03A0930004B0930104BF91AF910A
:105270009F918F911F901FBE1F901895CF93DF9322
:10528000EC010E94A9168C1B9D0BDF91CF91089514
:10529000CDB7DEB7CD55D1090FB6F894DEBF0FBE3E
:1052A000CDBF85B7806885BF85B7806885BF84B767
:1052B000877F84BF0FB6F894A895809160008861BD
:1052C00080936000109260000FBE80E890E00FB6FF
:1052D000F89480936100909361000FBE81E0809309
:1052E000880183E099E09093EF018093EE010E94A2
:1052F00067050E9408068091E20084608093E200C6
:10530000789480910E048823A1F01091E9001F7019
:105310009091EC00892F817090FD80E8182B1092FD
:10532000E9008091E80083FD0E94EA161F70109347
:10533000E90082E084BD93E095BD9AEF97BD80932C
:105340006E001092BD021092BE021092BF02109227
:10535000C00288EC90E02091E300122F111F11276A
:10536000111F27FD0CC0AFE3BCE91197F1F700C096
:105370000000019781F70E94670510920E041093B8
:105380005C0454985C9A879A8F98B5E0BA95F1F7C7
:10539000000089B18295817087988F9AE0EAEA953A
:1053A000F1F780935D0480930001882309F431C2F2
:1053B000109289018EE180938A0180915C048111B1
:1053C0000E945533809100018091000194E0811189
:1053D00090E09093CA0284E0891B8093C90284EF15
:1053E0000E94300985EF0E94300986EF0E94300943
:1053F00087EF0E9430090BEB11E0A1ECEA2EA1E04F
:10540000FA2ED8018D918D018F3F11F00E94300945
:10541000E016F106B1F788E0EFECF2E0DF01082FCB
:105420001D920A95E9F7E1ECF2E0DF011D928A9501
:10543000E9F790E080E00E941736833E9E4F59F1D5
:1054400063EE7EEF90E080E00E94363660E082E01E
:1054500090E00E941C3681E08093CB0261E083E003
:1054600090E00E941C3660E074E184E090E00E94CD
:1054700036360E94660F0E94A00F40E050E0BA014D
:105480008FE090E00E942E3640E050E0BA0183E1C8
:1054900090E00E942E3682E090E00E940A368093CF
:1054A000D70284E090E00E9417369093CD0280935B
:1054B000CC0283E090E00E940A360E94CD0A8091DF
:1054C00011030E94EE0A982F81E0933009F080E0EA
:1054D0000E94FE0A80915C04882309F49EC180E04A
:1054E0008093320380E880935E047FD76BE070E0A6
:1054F00087EA91E00E949311882309F445C08091C6
:10550000320365E070E081FD8AC182EA91E00E9489
:1055100093118823C9F16DE070E080E991E00E9469
:105520009311882389F10E94D0066D966CAF7DAFF0
:105530008EAF9FAF6D97DC01CB01805A9541AF4F85
:10554000BF4F8093340390933503A0933603B093F9
:105550003703E1E6F4E080E092E0DF018C011D9288
:1055600001501040E1F7F0936806E09367068FEF73
:105570009FEF9093600480935F0481E080933B03EE
:1055800080933803109233038091CE0281113AC088
:1055900082E594E00E94D80F80911003836080938D
:1055A0001003809152048C7F71F40E94660F82E593
:1055B00094E00E94D80F80915204982F9C7F8370B2
:1055C0008460992331F080915204843220F08370FA
:1055D00080628093520480915504873918F086E9DF
:1055E000809355040E94B6070E94B407809152042C
:1055F00080FF05C060E0869586950E943A1F81E095
:105600008093CE0280915C04811102C00E945833C5
:105610000E946415882309F405C183E08093FF028A
:1056200080915C0481112EC08AEE98E09093500125
:1056300080934F0129E130E030934B0120934A01E0
:1056400089E390E090934E0180934D014FEE58E036
:1056500050935801409357013093530120935201C6
:1056600090935601809355014EE554E150936001AB
:1056700040935F0130935B0120935A0190935E0148
:1056800080935D0190E080E00E941736833E9E4F3C
:10569000C9F58FE090E00E941236F62E172F082FE2
:1056A000862F8F770E944714FF1CFF24FF1C612F59
:1056B0006370660FF62AF092A00112FB882780F92A
:1056C0000E94440D812F887F09F4AEC0169516956F
:1056D0001695212F30E02F5F3F4F42E3429FC001DC
:1056E000439F900D11240E94360D802F837080936C
:1056F000A101802F869586958F708B3008F08AE007
:105700008093ED020E94140581E691E090935B0482
:1057100080935A04E8E1CE2ED12C8FEC92E028E061
:10572000280F6E962FAF6E97F1E5AF2EB12CAC0E11
:10573000BD1E33E0A30EB11C7724739480910E0438
:1057400010E400E172E1F72E853009F4A9C00E944F
:105750008A1F08ED12E05FECE52E52E0F52E61ECB9
:10576000862E61E0962E20EE32E02401C701F8017A
:105770005191DC014D91CD01D2016D912D01462356
:105780002E173F0709F498C0541791F3B0915C04A9
:105790006A96BFAF6A97512CF70161907F01D401DF
:1057A0008D914D016822F80121908F01261441F15D
:1057B0002624412C33243394832D8221C9F06A9608
:1057C000FFAD6A97FF23A1F049825A820E94A91671
:1057D0009C838B8321E02D8391E0832D862109F426
:1057E00090E09E8349815A816B817C818D8152DC5E
:1057F0004394330C36E04312DFCFF80131976082D7
:10580000539448E05412C8CF0E9449096624639417
:1058100057C08EE180938901CECD82E061CE8DE9C3
:1058200091E075CE81E0FACE8AE892E05CCF80917B
:105830000E04843029F10E94A0110E949E1D109236
:10584000FD030FB6F894A895C09260000FBE1093A8
:10585000600083B7817F846083BF83B7816083BF2B
:105860007894889583B78E7F83BF0FB6F894A895F8
:1058700080916000886180936000109260000FBE8C
:105880000E948A1FA1ECB1E0EFECF2E081919D91C2
:10589000892309F02EC46E964FAD6E974E13F6CF46
:1058A00080910E04853009F4C2CF109203040E9447
:1058B000CE160E9430074BCF541368CF95DC612C75
:1058C00080910F03882309F464C080910E03E09156
:1058D0005204E695E695E81BE0930A03823009F04E
:1058E00063C0F0E0EB54FE4FE4910E2F10E046EA67
:1058F000E42E48E0F42E80910B03882361F010928F
:105900000B030E94151F90930903809308031092C4
:105910000D0310920C030E94151F9C01E0910803D7
:10592000F09109038E1B9F0B8F3F9F4790F580914D
:10593000E2028823B1F01092E2028091E00290919D
:10594000E102281B390B2F3F3F4758F4805D9A48EE
:105950009093E1028093E00280911003886080932D
:10596000100380900C0390900D030E0F1F1F1093D7
:1059700009030093080388E093E0F70109958091FB
:105980000C0390910D03892B21F4892811F070925A
:10599000E2020E949E1D8823D9F00E9449090E94BC
:1059A0007C1B0E94BA1118C000ED17E02CEBE22E10
:1059B00026E0F22E863009F09ECFF0E0EE54FE4F46
:1059C000E4910E2F10E037E9E32E38E0F32E93CF69
:1059D0000E947C1B6110E5CF86E0E7EFF3E0DE017B
:1059E000119601900D928A95E1F71092F9031092A9
:1059F000FA031092FB031092FC038B819C81892B8C
:105A000009F449C00091F5031091F6030E94A9160C
:105A10009C01201B310B9091F003992309F48BC357
:105A200025313105C0F19F3F19F09F5F9093F0033E
:105A30001B81112359F00E9465079FEF11160CF48A
:105A400091E0899F802D11248093F9031C811123FB
:105A500059F00E9465079FEF11160CF491E0899FA1
:105A6000802D11248093FA038091F903882399F003
:105A70001091FA03112379F00E948507882309F415
:105A800040C18093F903812F0E948507882309F480
:105A90003BC18093FA038D819E81892B09F449C013
:105AA0000091F3031091F4030E94A9169C01201B9E
:105AB000310B9091F103992309F438C32135310555
:105AC000C0F19F3F19F09F5F9093F1031D81112357
:105AD00059F00E9443079FEF11160CF491E0899F43
