:1000000075C5000090C500008EC500000C947134C9
:100010008AC5000088C5000086C5000084C50000B0
:1000200082C5000080C500000C94FF150C94121AC4
:100030000C94F62978C5000076C5000074C5000050
:1000400072C5000070C500006EC500006CC50000E0
:100050006AC500000C94E71666C5000064C5000080
:1000600062C5000060C500005EC500005CC5000000
:100070005AC5000058C5000056C5000054C5000010
:1000800052C5000050C500004EC500004CC5000020
:100090004AC5000048C5000046C5000044C5000030
:1000A00042C5000040C500003EC500000501090230
:1000B000A10185020901A1000509190129081500FE
:1000C0002501950875018102050109300931158165
:1000D000257F95027508810609381581257F9501D0
:1000E00075088106050C0A38021581257F95017572
:1000F000088106C0C00660FF0961A1010962150000
:1001000026FF009520750881020963150026FF006F
:10011000952075089102C005010906A1010507197E
:10012000E029E71500250195087501810295017503
:100130000881010507190029FF150026FF00950613
:100140007508810005081901290515002501950587
:1001500075019102950175039101C0616263646547
:10016000666768696A6B6C6D6E6F707172737475B7
:10017000767778797A3132333435363738393052C8
:100180004542545F2D3D5B5D5C233B27602C2E2F49
:1001900000DA0281FFD9F1DB20A4A62EAF00A0C0B7
:1001A000D30000A1C8D30000AED580A81F408D1495
:1001B0002000783C1E1E140A050001010101010106
:1001C000010101020202020202020202030303030E
:1001D00003030303040404040404040505050505DE
:1001E000060606060607070707070808080809099C
:1001F00009090A0A0A0B0B0B0C0C0C0D0D0D0E0E47
:100200000E0F0F0F101011111112121313141415D9
:100210001516161717181819191A1A1B1B1C1D1D4D
:100220001E1E1F20202122222324242526262728A3
:1002300029292A2B2C2D2D2E2F30313232333435D3
:10024000363738393A3B3C3D3E3F404142434445D6
:10025000464748494A4C4D4E4F50515354555658B5
:10026000595A5B5D5E5F616264656668696B6C6D5F
:100270006F7072737577787A7B7D7E8082838587D5
:10028000888A8C8E8F91939596989A9C9EA0A2A313
:10029000A5A7A9ABADAFB1B3B5B7BABCBEC0C2C418
:1002A000C6C9CBCDCFD1D4D6D8DBDDDFE2E4E7E9D8
:1002B000EBEEF0F3F5F8FAFDFF2223252628292A94
:1002C0002C2D2F3032333536383A3B3D3E404243B9
:1002D0004547494A4C4E5051535557595A5C5E60F8
:1002E00062646668696B6D6F71737577797B7D7F0A
:1002F00081838587898A8C8E90929496989A9C9E09
:100300009FA1A3A5A7A8AAACAEAFB1B3B4B6B8B924
:10031000BBBCBEBFC1C2C3C5C6C7C9CACBCCCDCE8C
:10032000D0D1D2D2D3D4D5D6D7D7D8D9D9DADADB6F
:10033000DBDBDCDCDCDCDCDDDDDDDDDCDCDCDCDCFB
:10034000DBDBDBDADAD9D9D8D7D7D6D5D4D3D2D23A
:10035000D1D0CECDCCCBCAC9C7C6C5C3C2C1BFBE22
:10036000BCBBB9B8B6B4B3B1AFAEACAAA8A7A5A38D
:10037000A19F9E9C9A98969492908E8C8A8987854C
:1003800083817F7D7B79777573716F6D6B6968662B
:100390006462605E5C5A5957555351504E4C4A49FD
:1003A00047454342403E3D3B3A3836353332302FA5
:1003B0002D2C2A29282625232200AF00AE2020003C
:1003C000BABB004B657920B10020C0C100BEBF00A0
:1003D000484F005654003030200020202020B1BC6F
:1003E000BD0042616C6CB100B4B500B2B300C2C3D1
:1003F000004CB6B772B10020200029001E001F007B
:10040000000020002100220000004C0014001A000F
:10041000000008001500170000002B000400160063
:100420000000070009000A00000021521D001B0007
:10043000000006001900050030000100E000E200A5
:100440000000E30091412C4290432D00270026003C
:100450000000250024002300000089001300120082
:1004600000000C0018001C000000240233000F00E4
:1004700000000E000D000B000000E5003800370002
:10048000000036001000110032004600E6000100B6
:100490000000E700914128422A000F7E3A003B000D
:1004A00000003C003D003E0000000D7E01002400E5
:1004B000000025002600010000000E7E0100210042
:1004C00000002200230033020000010001001E0092
:1004D00000001F0020002D0225020100010027005E
:1004E0000000370001000100010044004300420009
:1004F0000000410040003F000000450001004F00A7
:10050000000052005000010000000100D300D200A2
:1005100000005100D1004B0000000100010001006B
:100520000000010001004E00260201000100010050
:1005300000000100010001004C0001000100010069
:1005400000000100010001000000010001000100A5
:100550000000010001000100000001000100010095
:100560000000010001000100000001000100010085
:100570000000010001000100010001000100010074
:100580000000010001000100010001000100010064
:100590000000010001000100000001000100010055
:1005A0000000010001000100000001000100010045
:1005B0000000010001000100000001000100010035
:1005C0000000010001000100010001000100010024
:1005D0000000010001000100010001000A7E0B7E05
:1005E00000000C7E0100010000000100010001007C
:1005F000000001000100087E000001000100010070
:10060000000001000100097E00000100010001005E
:1006100000000100010001000100007C007E0100DB
:100620000000010001000100010001000F7E0D7EAD
:1006300000000E7E01000100000001000100010029
:1006400000000100010001000000017E0100047EA5
:100650000000027E037E057E000001000100010013
:1006600000000100010001000100007C007E01008B
:100670000000010001000100010009025B0003010C
:1006800000A0FA0904000001030101000921110181
:100690000F0122440007058103080001090401003D
:1006A00002030000000921110100012222000705B8
:1006B0008203200001070503032000010904020052
:1006C0000103000000092111010001224900070572
:1006D00084032000011201000200000008575900A5
:1006E0000100010102000114034B00650079006262
:1006F0000061006C006C00360031000000100359EE
:10070000006F0077006B0065006500730000000457
:1007100003090400000000000000002F000000009A
:100720000700070000123F123F1200242A7F2A12FE
:100730000036091E241B0018262912280000000775
:10074000000000001E214000000040211E00001497
:10075000083E08140008083E080800000030700039
:100760000008080808080000003030000020100CC5
:100770000201001E2925231E0000223F2000002226
:100780003129292600122125251A001814123F109C
:10079000001725252518001E2525251800013109DB
:1007A0000503001A2525251A00062929291E0000FF
:1007B00000333300000000337300000814142222B9
:1007C0000014141414140022221414080002012925
:1007D0000502003E59555D3E003816111638003F9F
:1007E0002525251A001E21212112003F2121211E2D
:1007F000003F25252521003F09090901001E21216F
:10080000291A003F0404043F0000213F210000108A
:100810002020201F003F040C1221003F2020202018
:10082000003F0204023F003F020C103F001E212146
:10083000211E003F09090906001E2129112E003F33
:10084000090919260012252529120001013F01017D
:10085000001F2020201F000718201807000F300C51
:10086000300F0021120C1221000304380403003160
:100870002925232100007F4141000001020C1020A6
:10088000000041417F00000402010204004040409A
:10089000404000000103040000102A2A2A3C003FC7
:1008A0002422221C001C22222224001C2222243F5B
:1008B000001C2A2A2A0C0000043E0505000C525296
:1008C000543E003F080404380000003D00000020B2
:1008D00040403D00003F080814220000013F200076
:1008E000003E023C023C003E0402023C001C22226C
:1008F000221C007E1422221C001C2222147E003E98
:100900000402020400242A2A2A120000021F2200E4
:10091000001E2020103E000618201806000E300C85
:10092000300E002214081422000E5050483E0022BF
:10093000322A26220008087741410000007F00008B
:1009400000414177080800180408100C000000005E
:10095000000000000000000000000000000000C0D7
:10096000F0F88C86C6E7FFFFFFFFFFFFFEFCFCF8F8
:10097000E080000000F0F0F00000C0E0F0707000D7
:100980000000000000000000000000000000000067
:100990000000000000F8F8F800000000000000006F
:1009A0000000000000000000000000F8F8F800005F
:1009B000F8F8F8000000000080E07078686C64C708
:1009C000C7C7C7C7C7E73F1F0F3FFFFFFFFFFFFFB7
:1009D0003F0F000000FFFFFF1E3FFFF3E18000001C
:1009E000F8FCFE3636363EBCB8000E3EFEF080F017
:1009F000FE3E0E0000FFFFFF060606FEFEFC700036
:100A0000E6F6F63636FEFEFC000000FFFFFF0000B3
:100A1000FFFFFF000000003C7F6360E0C0C0C0C07B
:100A2000C0C0C0C0FFFFC06030180F030303010047
:100A300000000000000303030000000303030300A1
:100A4000010303030303030301007070393F1F0711
:100A5000010000000001030303030303030100007E
:100A60000103030303030301000000030303000069
:100A70000303030010101000000000550000003EAA
:100A8000635D5D637F417B77413E00001C22221C39
:100A9000003E0A003E0A00322A3C0026281E001CA6
:100AA0002A2C0000003F09360000001E2121000012
:100AB0000000003F0837001E2121001E2121003FB9
:100AC000090600213F2100222519001E2121003F97
:100AD0000936003F211E00213F21000F300F003E4C
:100AE000093E003F063F003F2020000011241FBEAA
:100AF000CFEFDAE0DEBFCDBF11E0A0E0B1E0ECEC7B
:100B0000FDE602C005900D92A03FB107D9F726E09F
:100B1000A0EFB1E001C01D92AF39B207E1F70E942A
:100B2000272A0C94AB366CCA8091980181111BC0A6
:100B300085E2909199019923C1F090919A019111C8
:100B400016C095E220917E04211113C0292F209315
:100B5000930180939401890F1092950180939601DF
:100B600080939701089582E2E4CF90E0EBCF92E288
:100B7000E9CF20E0ECCFE0917B04F0917C0430974A
:100B800039F00284F385E02D309711F060E2099589
:100B90000895982FE0917A044091410457E0E413BE
:100BA00002C080E008952E2F30E05E9FF0011124F6
:100BB000EE5BFB4F8181681306C08081981303C0F0
:100BC00085818111EFCFF9013196E770E8CFE8ED2B
:100BD000F0E080818E7F80831092E2001092DA0034
:100BE0001092E100A0EEB0E08C9181608C93808146
:100BF0008F77808319BCA7EDB0E08C918E7F8C93AA
:100C000080818F7E808310922B0408952091E400D0
:100C10003091E50095E6A9012091EC00822F8170CA
:100C200020FF06C08091E80080FF06C080E00895A4
:100C30002091E80022FD1AC080913704882389F0B2
:100C4000853089F08091EB0085FD0FC02091E40094
:100C50003091E50042175307F9F29150E1F684E034
:100C6000089582E0089583E0089581E008958091D9
:100C7000390487FF13C08091E80082FF06C080918D
:100C8000E8008B778093E80004C0809137048111DD
:100C9000F2CF0895809137048823D9F38091E8003A
:100CA00080FFF8CF8091E8008E77ECCF982F90935B
:100CB000E900242F762F50E0891731F07091EC0075
:100CC0002091ED005091F00021FD07C09F5F97300B
:100CD00071F78093E90081E008953091EB003E7F49
:100CE0003093EB003091ED003D7F3093ED0030917B
:100CF000EB0031603093EB007093EC002093ED003B
:100D00005093F0002091EE0027FDE0CF80E00895A1
:100D1000B0E0A0E0EEE8F6E00C94A035C8EDD0E03D
:100D200088818F7E8883E7EDF0E080818160808319
:100D300084E082BF81E080932B0488818E7F88834A
:100D400002EE10E0F80110821092DA0081EEC82E57
:100D5000D12CF601108288818F7788838881806802
:100D6000888388818F7D888319BC10923704109204
:100D70003804109236041092350490EEE92EF12CCE
:100D8000F70180818B7F808388818160888342E046
:100D900060E080E08BDFF60180818E7F8083F80148
:100DA000808181608083808188608083F701808179
:100DB0008E7F8083888180618883CDB7DEB7E8E04D
:100DC0000C94BC35FC01CB0120913F0430914004D0
:100DD0002617370790F0009729F42091E8002E7726
:100DE0002093E80040E0009751F4411108C0809141
:100DF000E80082FF31C080E00895C901F3CF20915F
:100E000037042223A9F12530A9F12091E80023FD20
:100E10002DC02091E80022FDEACF2091E80020FFBC
:100E2000E2CF3091F3002091F200009719F02830C2
:100E3000310558F041E02830310509F040E02091BB
:100E4000E8002E772093E800CECF41914093F10047
:100E500001972F5F3F4FE9CF80913704882341F0FE
:100E6000853041F08091E80083FFC1CF81E0089593
:100E700082E0089583E0089508950895089587E72E
:100E800097E7909301088093000888E19AE00FB6F5
:100E9000F894A895809360000FBE90936000FFCFF8
:100EA000A4E0B0E0E6E5F7E00C94A6358FB7F8943F
:100EB00020912704309128044091290450912A045C
:100EC00029833A834B835C838FBF69817A818B81CD
:100ED0009C812496E2E00C94C235809190010895A3
:100EE000DC01FB0111969C9111978181981322C01E
:100EF00012968C911297882319F0928189131AC047
:100F000013968C911397882319F09381891312C03B
:100F100015968C911597882319F0958189130AC02D
:100F200014969C91992321F081E02481291303C018
:100F300080E001C081E081700895DC01E0917B04D4
:100F4000F0917C04309759F086819781892B39F094
:100F500082E08C930680F781E02DCD0109950895FC
:100F600080917D04882369F0E0917B04F0917C04FA
:100F7000309739F00190F081E02D309711F009950C
:100F8000089580E0089580911B0480FD16C081FDC6
:100F900016C082FD16C080911A048823A1F0883201
:100FA00080F428E0829FC001112468E270E00E9472
:100FB000D935862F672B39F0089582E0089584E0B3
:100FC000089588E0089581E0089580911B0480FDD4
:100FD00014C081FD14C082FD16C0809119048823BD
:100FE00081F08E3180F420E5829FC00111246EE1F2
:100FF00070E00E94D935862F089584E1089588E233
:10100000089588E0089580E50895282F35EB23039F
:10101000C001112497FF04C080589109892F0895B9
:1010200080589F4FFBCFFC01680F791F8FEF91E332
:101030002191822728E030E087FF09C0880F8927A7
:1010400021503109C9F7E617F70791F70895880F7E
:10105000F7CFFC01EE0FFF1FE80FF91FE55CFC4F17
:101060006183408322830895539A0895EDE0F3E06D
:1010700011828281846082830895CF9380918A0651
:1010800080FF03C009D5CF910895C091950180914B
:101090009601C817B8F7809193019C2F981B892F50
:1010A00020E040E060E090E0D4DFCF5FF0CF0F932E
:1010B0001F93CF93DF93D82F162F042F80918A068A
:1010C000C091950180FD10C0DF91CF911F910F91CC
:1010D0000895809193019C2F981B892F202F412FD9
:1010E0006D2F90E0B6DFCF5F80919601C81788F32F
:1010F000C4DFEACFB0E0A0E0E0E8F8E00C949E3571
:10110000262FD72EE82FF0E0E754FE4F71110AC0CA
:10111000E4918E2F9E2F6E2F792FCDB7DEB7EAE0A8
:101120000C94BA35072F10E0E4914E2F56E0659FDE
:1011300070011124CFEFD0E0C701BE010E948235BB
:10114000822F90E0880F991F55E5569F9001579F79
:10115000300D1124821B930B582F550F580FCE01C1
:10116000801B910BE89F9001E99F300D1124932F74
:10117000D59ED0011124AB2FBB276E01CA1ADB0A02
:10118000EC9DD001ED9DB00D11248B2F5E01A51AB1
:10119000B108A09E6001A19ED00CB09ED00C11247D
:1011A000CD2CDD24CC19DD09EC9F8001ED9F100DC5
:1011B000112463307105D1F05CEFE51653E0F506BC
:1011C00070F461307105B1F062307105B9F04FEF24
:1011D000E416F10408F09FCF832F912F9CCF643049
:1011E000710579F066307105B9F395CFE32F9B2F28
:1011F000842F91CFEB2F832F942F8DCF812FE32F2F
:10120000FBCF8E2FE12F87CF982F762F842F209121
:101210008A0620FF0AC0493708F088E7692F6ADF8D
:10122000962F672F482F892F42CF0895CF93DF93B2
:10123000EC01EAE8F6E0438162818C81E5DF8C8194
:101240008F5F8C83DF91CF910895CF93DF93EC0173
:10125000EC81F0E0E754FD4F4491EAE8F6E062816A
:101260008181D2DF8C818F5F8C83DF91CF91089554
:1012700090918301882341F09F5F909383011092A6
:10128000800110927F0108959150F7CFE8E7F1E0D7
:10129000828591E089278287108617820895809140
:1012A0008101811114C080918301811110C080914E
:1012B000820181110CC090910603969596959695A2
:1012C00081E020917901921380E08170089581E09E
:1012D000FCCF80919801F901808326CCCF93DF93D6
:1012E000E8E9F1E083819481A581B681E9018883F1
:1012F0009983AA83BB831482138216821582DF919D
:10130000CF91089580E0089563E070E089E692E06F
:101310008ADE90916802891318C0E0916902EC306E
:10132000A4F488E0E802F0011124E65FFE4F068095
:10133000F781E02D309749F02CE832E040916B02C4
:101340006CE672E080916A0209950895E2E5F2E0A8
:10135000808D80933A01818D80934D010895A4E0A2
:10136000B0E0E5EBF9E00C94A63580917D0488238C
:1013700069F096DD69837A838B839C8369817A81A6
:101380008B819C812496E2E00C94C23589DD6983CF
:101390007A838B839C838091C1029091C202A09139
:1013A000C302B091C40229813A814B815C81280F2C
:1013B000391F4A1F5B1F29833A834B835C83DECF2F
:1013C000811522E59207D0F5811530E5930708F0E5
:1013D000B2C0883E9105D8F4803E9105B8F4853AB4
:1013E000910558F48430910588F431E020E00197AC
:1013F00009F030E0832F922F08959C012D5C310974
:101400002331310508F473C090E080E00895811520
:1014100040E4940780F4811550E2950708F0A5C0D8
:101420009C013A9521153F4178F720E0392FA90119
:10143000482BCA0108959F70906A0895803852E53C
:101440009507B8F5803622E5920708F059C0803438
:1014500032E59307C8F4803242E5940708F049C0AA
:10146000282F2695269550E2259F90011124482F7C
:10147000437081E090E002C0880F991F4A95E2F71F
:10148000822B932B9D680895282F269526952770EB
:1014900040E2249F90011124482F437081E090E0A6
:1014A00002C0880F991F4A95E2F7822B932B9C6804
:1014B0000895803C52E5950760F4282F2F71803AFB
:1014C000924598F5822F90E0982F8827846F906A34
:1014D00008959C01205C32452032310508F094CFFC
:1014E000982F882788279F71806F906A089590654C
:1014F00008958F7190E0982F8827816F906A0895E2
:10150000282F26952695277050E2259F90011124BB
:10151000482F437081E090E002C0880F991F4A95E0
:10152000E2F7822B932B9A680895822F90E0982FF0
:101530008827906208959C0195E0369527959A95A5
:10154000E1F72F7030E0322F2227482F4F7150E003
:1015500084FF06C084E0440F551F8A95E1F75527A4
:10156000C901842B952B906908959F71E2CF982F24
:10157000909580912C04892380932C040895809168
:101580007A0490914104981301C008958F5F877089
:10159000FACF9A3078F5883068F548E0949F90014A
:1015A0001124280F311D682F677083E03695279529
:1015B0008A95E1F7F901EE0FFF1FE20FF31FEF5DD0
:1015C000FD4F30E020E080E0419150E0062E02C067
:1015D000569547950A94E2F741705527022E01C0AF
:1015E000440F0A94EAF7842B2F5F3F4F23303105D5
:1015F00059F7089580E00895282F9A3090F58830A3
:1016000080F538E0939FC0011124820F911D27704F
:1016100041E001C0440F2A95EAF723E096958795AB
:101620002A95E1F7FC01EE0FFF1FE80FF91FEF5DB0
:10163000FD4F30E020E070E05191DF011197CB01C8
:10164000022E02C0969587950A94E2F781708195E3
:101650008527842385278C932F5F3F4F23303105C7
:1016600059F708958093C7020895982F82958F7037
:1016700011F0982F84E0292F2695269511F08E5F82
:10168000922F969509F08F5F08959C019A95811588
:101690009F4150F5D901AA27B170F901EE27F270E8
:1016A000B90166277470A9014427587034FF0EC031
:1016B00080E1AB2B09F480E0EF2B09F08062672B0F
:1016C00009F08064452B89F08068089581E0AB2B98
:1016D00009F480E0EF2B09F08260672B09F0846049
:1016E000452B19F08860089580E00895CF93C82FA6
:1016F0008091A5018C1749F0D3DB6093A60170930C
:10170000A7018093A8019093A901C093A501CF914F
:101710000895CF93C82FA9DF982F81E0933009F067
:1017200080E0E4DFC0931003CF91089521E030E022
:1017300001C0220F8A95EAF7209580911003822339
:10174000E8CF909106038095892380930603282F84
:10175000277061F4891751F09091C90292FF06C079
:10176000869586958695E2DF10920603089521E01E
:1017700030E001C0220F8A95EAF780911003822B96
:10178000C8CF0F931F93CF93DF93EC01FB018091A0
:10179000AA01811101C084E08150990B02E010E0A0
:1017A00002C0000F111F8A95E2F788819981B80164
:1017B0000E94D9359B01998388838A819B81B801D6
:1017C0000E94D9359B838A8361388FEF7807F4F0C4
:1017D00060387105ECF4658321388FEF3807D4F059
:1017E00020383105CCF4822F81958483442319F06D
:1017F0006195658324838091AB01882379F08130E2
:1018000079F0DF91CF911F910F91089561E8E3CFB7
:101810006FE7E1CF21E8E7CF2FE7E5CF1582F1CFE2
:101820001482EFCFFC01DB012281338121388FEF5D
:10183000380704F120383105FCF412962C931297E6
:101840008081918181383FEF9307C4F08038910502
:10185000BCF413968C931397442339F02195129678
:101860002C931297819513968C9311821082138278
:101870001282089521E8E1CF2FE7DFCF81E8E9CF99
:101880008FE7E7CF8F708A3010F4805D0895895A12
:10189000089520E297FF04C09195819591092DE26A
:1018A000EAE0F0E0BF010E94D935805D8093070235
:1018B0006115710559F42093060220E22093050278
:1018C00020E22093040284E092E00895CB01BF015E
:1018D0000E94D935805D809306026115710571F310
:1018E000CB01BF010E94D935805D80930502E9CF0D
:1018F000AC01860F971F57FD07C077FD04C097FF07
:1019000002C08FEF9FE7089577FFFDCF97FDFBCFD4
:1019100080E090E80895E82FE295EF70F0E031A1C3
:10192000282F2F7081E090E001C0880F2A95EAF7F8
:10193000932F982B91A392A18095892382A3089538
:10194000E82FE295EF70F0E041A18F7021E030E0E8
:10195000B90102C0660F771F8A95E2F7CB01962F77
:101960009095942391A392A1892B82A30895B0E02E
:10197000A0E0EDEBFCE00C94A035F82EE92E8B01F5
:1019800080919206CC24C394D12C8A3018F48AE03A
:10199000C82ED12CC1E0D0E068E976E08F2D9E2DD5
:1019A000F8010995811104C02196CC16DD062CF4AE
:1019B000CDB7DEB7E8E00C94BC35CC9F9001CD9F4D
:1019C000300D300D112490E080E045E34A95F1F7A9
:1019D0000000019682179307C1F7DECF0F931F9384
:1019E000CF93DF938B01EA0190913704943059F53E
:1019F0008093E9008FEF9091E800815095FD06C03B
:101A000095ED9A95F1F700008111F5CF8091E800EE
:101A100085FF19C0FBD8811111C08091E80085FDB8
:101A200006C08091E8008E778093E800F3CFF8013C
:101A300081918F018093F100219779F78091E800DF
:101A40008E778093E800DF91CF911F910F910895D9
:101A5000BC0146E050E084E0C1CFCF93DF93D82FA4
:101A6000C92F48E050E0682F792F81E0B7DF88E088
:101A7000ED2FFC2FADE2B4E001900D928A95E1F7D5
:101A8000DF91CF910895792F603229F440E250E040
:101A9000682F82E0A3CF08953BB1377F2BB1286038
:101AA0004FB7F8948BE393E0FC010196508168E016
:101AB0002BB9000000C057FF3BB9550F000000C014
:101AC00000C000C03BB900C06A9591F754E089316D
:101AD000950751F74FBF8FE594E00197F1F700C0EC
:101AE000000008950F93CF93DF93CAE8D6E04881B2
:101AF00059816A817B8188E090E00E948836288144
:101B000039814A815B816C817D818E819F8100E278
:101B10000E940D36622F83E290E00E947636DF91BC
:101B2000CF910F9108950F931F93CF93DF93D82FE9
:101B3000162FC42F022F80918A0680FF34C0209177
:101B40008B062D1308C090918C06961304C09091BB
:101B50008D06941729F090910F03926090930F03D4
:101B6000E82FE695E695F0E0E153FE4F90819093E3
:101B70000D038C7F8430E1F48C2FC93708F088E79F
:101B80006D2F712FB7DA962F672F482F892F8FDA95
:101B9000D0938B0610938C06C0938D06002319F00A
:101BA0008AE896E09FDFDF91CF911F910F91089512
:101BB000923019F4C0918D06EBCF963049F7D22FB1
:101BC000E7CFEAE8F6E043812CE0421B08F440E06E
:101BD00021E062818181A7CFEAE8F6E043812CE031
:101BE000420F08F44FEF21E0628181819CCFEAE847
:101BF000F6E0628121E1621B08F460E021E04381AC
:101C0000818191CFEAE8F6E0628121E1620F08F478
:101C10006FEF21E04381818186CFEAE8F6E08181A0
:101C200021E04381628181517ECFEAE8F6E0818143
:101C300021E0438162818F5E76CF80918E0688237A
:101C400019F0815080938E068AE896E04BCF809100
:101C50008E06833018F48F5F80938E068AE896E0B4
:101C600041CFEAE8F6E080818E7F8083CF013ADFC2
:101C7000FDD9EDE0F3E0828181608283FEC9EAE86C
:101C8000F6E089E080838AEA81838FEF828380E8AF
:101C900083838483EDE0F3E08281836082838AE83A
:101CA00096E020CF1F93CF93DF93C62F122F632F81
:101CB0008430D8F4CA30C8F44830B8F490E1C99FF1
:101CC000E001112450E0440F551FC40FD51F90EAC6
:101CD000899FC00DD11D1124CE0185960E947636B4
:101CE000612FCE0186960E947636DF91CF911F91AB
:101CF0000895AF92BF92CF92DF92FF920F931F93FE
:101D0000CF93DF93B12CA12C00E0650110E012C04D
:101D1000FE01259134914F2D612F802FC3DF229634
:101D2000F39488E0F812F4CF88E0C80ED11C1F5F4E
:101D30001A3039F0E601CC0FDD1FC650DC4FF12C14
:101D4000E7CF0F5F80E5A80EB11C0430F1F6DF91FC
:101D5000CF911F910F91FF90DF90CF90BF90AF90E8
:101D60000895E1E8F1E083E0DF011D928A95E9F74B
:101D7000EDE7F1E084E0DF011D928A95E9F708952F
:101D80009C0180917A0190917B018217930729F041
:101D900030937B0120937A01E4CF089590917801EC
:101DA000981719F080937801DCCF0895CF9368EFEE
:101DB00072E080E093E094D8C82F882319F080E087
:101DC00093E0BBD89091010386E0E0E0F3E0DF010F
:101DD000282F1D922A95E9F790930103A8EFB2E00E
:101DE00001900D928A95E1F781E0C11103C0911134
:101DF00001C080E08170CF910895CF93DF93282FA9
:101E000081E02A3019F02D3029F480E088D0DF916C
:101E1000CF910895809188069091890636E0FC0163
:101E2000A2E8B6E001900D923A95E1F730EE320F5C
:101E3000343A08F458C026E0FC0111922A95E9F7DB
:101E4000C0918806D091890646E050E0BE0182E844
:101E500096E00E943E369E0122583440892B41F183
:101E6000C90145E0969587954A95E1F741E050E034
:101E7000BA0102C0660F771F8A95E2F7CB01609125
:101E8000800470918104862B972BB9016B5F7F4F83
:101E9000E5E076956795EA95E1F702C0440F551F96
:101EA0006A95E2F7842B952B9093810480938004AC
:101EB0002A5F3F4F40917F04642F70E0C9010E9468
:101EC0008235481B463010F4240F311D211572E075
:101ED000370710F030E020E02E573B4F3093890653
:101EE0002093880694CF2052330B46E0429FB001E6
:101EF000439F700D11246D5E784F46E050E00E94C4
:101F000028369ECFCF93DF93EC01FE01849181119F
:101F100003C0DF91CF91089570DF2196F6CFCF9364
:101F2000382FE0918806F0918906E258F44020911C
:101F30007F04622F70E0CF010E948235281B822F20
:101F4000332359F066E00E94CD35C82FC15010F4FC
:101F5000CF91089580E251DFF9CF9F01280F311D05
:101F60002115324018F080E0F0E0E0E08E0F9F2F66
:101F7000911D8E579B4F9093890680938806E8CFDA
:101F800080912C0490914702892B909146029923CD
:101F900089F0892B90E024EF31E0F90140812F5F37
:101FA0003F4F41119F5F41E02A3F3407B1F7911144
:101FB000109246028093F20148E050E068E472E03B
:101FC00082EF91E00E943E36892BB9F088E0E2EF83
:101FD000F1E0A8E4B2E001900D928A95E1F7E0917A
:101FE0007B04F0917C04309741F00280F381E02D76
:101FF000309719F082EF91E009950895882339F020
:10200000809590914702892380934702B9CF089524
:10201000882331F090914702892B80934702B0CFFB
:102020000895882311F0A3DAABCF0895882331F007
:1020300090912C04892B80932C04A2CF08950F93A8
:102040001F93CF93DF93EC01FC0101900020E9F78F
:102050008F0101501109C017D10728F0DF91CF91EE
:102060001F910F9108958991C8DEF5CF4F925F922D
:102070006F927F928F929F92AF92BF920F93CF9366
:10208000DF9300D000D0CDB7DEB788E090E00E94AB
:102090006C362B013C01AAE8B6E06C9350928B069B
:1020A00080938C0670928D0610928E0610928F0689
:1020B000109290061092910683E290E00E9464369E
:1020C000282F30E040E050E060E070E080E090E0F9
:1020D00000E20E94F2352429352946295729EAE8E9
:1020E000F6E0208330938B0640938C0650938D0648
:1020F00060938E0670938F0680939006909391065E
:102100000F900F900F900F90DF91CF910F91BF9094
:10211000AF909F908F907F906F905F904F900895B9
:102120000F931F93CF93DF93843038F56A3028F5EF
:10213000483018F520E1629FE0011124642F70E01F
:10214000660F771FC60FD71F30EA839FC00DD11DC2
:102150001124CE0185960E946436082F10E0102FBE
:102160000027CE0186960E9464369801282BC9016B
:10217000DF91CF911F910F91089590E080E0F8CF0B
:10218000462F672F7A3028F4483018F4843008F44A
:10219000C7CF80E090E00895B0E0A0E0E2EDF0E18C
:1021A0000C94A1357C01009110038091C702082B8B
:1021B000C3E0D0E010E0DC2EC8010C2E02C09595E3
:1021C00087950A94E2F780FD09C02197A0F7D12CEA
:1021D0008D2DCDB7DEB7E7E00C94BD35B7018C2F60
:1021E000CFDFEED8019789F3F3CFCF93DF93D82FCA
:1021F000C92FD2DF6D2F7C2FC3DFE2D8DF91CF91C3
:102200000895FC018481882399F080819181EDDF1C
:10221000282F92959F70963091F060F4925F9F7096
:10222000923030F481E0203F81F030F4283E30F0ED
:1022300080E004C09A5FF3CF243FD1F7089581E096
:10224000283E20F0213FA1F7F9CF08950895A6E098
:10225000B0E0EDE2F1E10C94A5359C0186E0F901D6
:10226000DE01119601900D928A95E1F7F901258121
:1022700089819A81222381F0662371F08DDF182FE6
:10228000682F89819A81B8D969817A81812F78DF15
:102290002696E3E00C94C1357CD9182FF5CFAB011D
:1022A00024E630E0BC0188E70E9447339C0181E0CE
:1022B000232B09F080E008958091370390913A0331
:1022C000911103C091E089270895882361F062E0AD
:1022D00070E08BEB93E0E3DF811103C08091370363
:1022E00008951092370380913703ECCFA5E0B0E05A
:1022F000ECE7F1E10C94A635809137038D83809152
:102300003A038823E9F00E945007DC01CB01805A90
:102310009541AF4FBF4F8093330390933403A09305
:102320003503B09336038D81811107C062E070E000
:1023300089EB93E0B4DF811108C0809137038D836E
:102340008D812596E2E00C94C23581E080933703BD
:10235000F4CFA8E0B0E0EFEAF1E10C94A63580916B
:102360000E0281113FC048E050E060E472E084EE6C
:1023700092E00E9454368091E4029091E502C29767
:10238000873B934068F0E6EEF2E086E0DF011D92C5
:102390008A95E9F788EC90E09093E5028093E40257
:1023A0008091E7028150873018F081E08093E70246
:1023B0008091E8029091E902845691098532934117
:1023C00030F08AE892E09093E9028093E8028091ED
:1023D000EA028150843618F08AE08093EA0281E0B4
:1023E00080930E0288E0E4EEF2E0DE0111960190A7
:1023F0000D928A95E1F729813A814B815C816D814B
:102400007E818F8198852896E2E00C94C235909168
:10241000C90292FB222720F9281771F080FB92F95C
:102420009093C9026091C8027091C90284E090E063
:102430000E94903682E085C90895B0E0A0E0E3E212
:10244000F2E10C94A035FA0169017801C82F880FD8
:10245000DD0B3097B1F0DE0193E0AA0FBB1F9A9518
:10246000E1F7A65FBE4F11968D919C9112978E5AFF
:102470009D4F4C9150E0E417F50708F4AF010E941E
:102480004B36CE010E941235182F8823D1F0E1146B
:10249000F104B9F083E0CC0FDD1F8A95E1F7FE016E
:1024A000E65FFE4F438150E0E416F50608F4A7010D
:1024B000C65FDE4F6C817D816E5A7D4FC6010E94E2
:1024C0004B36812FCDB7DEB7E8E00C94BC35A5E0E4
:1024D000B0E0EDE6F2E10C949E358D83E62E5A01D4
:1024E000F22E6801809192068A3028F080E02596CD
:1024F000EAE00C94BA358D818930C4F319828A835D
:102500006B832C8363E070E0CE0102960E94130877
:102510008983E0923A01F0924D0110E000E030E052
:1025200020E044E050E0BE016F5F7F4F85E085DF33
:102530008823E1F24E2D50E030E020E0B50186E046
:102540007CDF882399F230E020E041E050E0BE01DA
:102550006B5F7F4F87E071DF882341F20F2D10E022
:10256000960150E040E070E060E088E066DFBFCFB9
:10257000A8E0B0E0EEEBF2E10C94A035C090B5021B
:10258000D090B602E090B702F090B8020E945007D7
:10259000DC01CB018C199D09AE09BF0911E084361D
:1025A0009105A105B10518F10E94AF09DC01CB012D
:1025B0000296A11DB11D89839A83AB83BC8310E071
:1025C00000E030E020E044E050E0BE016F5F7F4F6C
:1025D00082E033DF182F882351F00E945007609368
:1025E000B5027093B6028093B7029093B802812F20
:1025F0002896E8E00C94BC358F929F92AF92BF92E0
:10260000EF92FF920F931F93CF93DF93CDB7DEB777
:102610002A970FB6F894DEBF0FBECDBF7B0101E055
:1026200010E09E012A5F3F4F50E040E070E060E024
:1026300080E003DF182F882309F44FC08090B10297
:102640009090B202A090B302B090B4020E945007E2
:102650006F83788789879A87DC01CB01881999096C
:10266000AA09BB0984369105A105B10548F465E0C6
:1026700070E083E592E00E9413089E81891769F15A
:1026800005E010E09E012F5F3F4F50E040E070E01A
:1026900060E081E0D2DE082F65E070E083E592E043
:1026A0000E94130811E09E81981310E0102301F19D
:1026B0000E9450076093B1027093B2028093B302FC
:1026C0009093B40285E0FE013196ACEAB2E001904D
:1026D0000D928A95E1F711E00BC085E0E3E5F2E0A9
:1026E000DE01119601900D928A95E1F71111EACF62
:1026F00085E0ECEAF2E0D70101900D928A95E1F7CE
:10270000812F2A960FB6F894DEBF0FBECDBFDF91A2
:10271000CF911F910F91FF90EF90BF90AF909F903E
:102720008F9008954F925F926F927F92AF92BF9277
:10273000CF92DF92EF92FF920F931F93CF93DF938D
:1027400000D000D000D0CDB7DEB78D837B01A42EA2
:10275000D22E3E83B02EC12EDB014D905D906D9048
:102760007C900E945007DC01CB0184199509A609D1
:10277000B70984369105A105B10510F4AA2051F1DD
:1027800010E000E030E020E04B2D5C2D6D2D7E81CF
:102790008D8153DE8983882339F00E945007F70129
:1027A0006083718382839383898126960FB6F89420
:1027B000DEBF0FBECDBFDF91CF911F910F91FF9074
:1027C000EF90DF90CF90BF90AF907F906F905F9031
:1027D0004F900895F1E0F983E7CFA1E0B0E0E3EF97
:1027E000F3E10C94A435809137038983209167022B
:1027F00090E041E02817190609F440E001E010E0FC
:102800009E012F5F3F4F6DEB72E084E08BDF2196DE
:10281000E4E00C94C035ABE0B0E0E1E1F4E10C940D
:10282000A43588E0EAE8F6E0DE01119601900D9209
:102830008A95E1F780910D0390910E03A0910F030B
:1028400089879A87AB8741E08B85811101C040E081
:102850000BE010E09E012F5F3F4F69EB72E083E0D9
:1028600061DF811110920F032B96E4E00C94C035C8
:10287000CF9388EC90E02091E300C22FCC1FCC27AF
:10288000CC1F27FD0CC0EFE3FCE93197F1F700C046
:102890000000019781F70E94E70510923704C0936A
:1028A0007D0457985F9A879A8F98F5E0FA95F1F72B
:1028B000000089B187FB882780F987988F9A90EA72
:1028C0009A95F1F780937E0480930901882361F043
:1028D0001092930185E28093940180917D0481118F
:1028E0000E942E34CF91089585E280939301F3CF17
:1028F00028E030E043E060E086E30C940A32CF93B6
:10290000DF93D82FC62FF4DF8D2F80680E941C32F2
:102910008C2F0E941C328AEB8A95F1F700C00E942E
:102920004C3283E492E00197F1F700C00000DF91A0
:10293000CF910895682F893708F068E76093A30165
:1029400091E09093A40190919801992349F06150EE
:10295000811101C064E0683708F067E78FE0CFCFEE
:102960000895FB018081E6CF282F8091A30181117A
:1029700001C085E0022E000C330B820F932F911DB6
:102980001816190614F081E090E0D4CFACE0B0E066
:10299000ECECF4E10C94A2354F83588769877A8771
:1029A0008B879C8780919801882309F444C080918B
:1029B0000902811106C060E080E5A1DF81E080931B
:1029C000090296DF80E50E941C320AEB0A95F1F7B6
:1029D00000C00E9434320E9434320E9434327C01A2
:1029E0000E94343260E0E62AF82A0E9434328C01D8
:1029F0000E94343220E0022B182B0E944C3225E03A
:102A00002A95F1F70000F894B70180919B0190910D
:102A10009C010E94780C90939C0180939B01B801CB
:102A200080919D0190919E010E94780C90939E014F
:102A300080939D01789480917D04882309F469C076
:102A40000E945007462F572FBC0180910A02909197
:102A50000B02A0910C02B0910D028A019B01081B90
:102A6000190B2A0B3B0BD901C8010897A105B10529
:102A700008F44FC040930A0250930B0260930C027B
:102A800070930D028091A6019091A701A091A801D9
:102A9000B091A901481B590B6A0B7B0B42335105BE
:102AA0006105710580F410929C0110929B011092B7
:102AB0009E0110929D011092A00110929F01109210
:102AC000A2011092A10110917E048091A501412FD5
:102AD000BE01695F7F4F882389F18BE991E00E94F5
:102AE000C10B41E041279091A50180919801BE0161
:102AF000695F7F4F981739F18FE991E00E94C10B10
:102B000086E0FE013796A0EBB1E001900D928A9528
:102B1000E1F786E0FE013796DE01119601900D92F5
:102B20008A95E1F729813A814B815C816D817E81B3
:102B300080E090E02C96E6E00C94BE358BE991E0C5
:102B40000E94120CCECF8FE991E00E94120CD8CFD8
:102B5000CF93C82FCDDE8C2F0E941C328FE792E0DE
:102B60000197F1F700C000000E943432C82F95E0B1
:102B70009A95F1F700000E944C3285E68A95F1F7AC
:102B80000000109209028C2FCF910895CF93DF930C
:102B90000E947931269AACDE6AE58AE3B0DE2FEF37
:102BA00080E792E0215080409040E1F700C00000B3
:102BB00082E0CEDF83E0CCDF84E0CADF85E0C8DFDF
:102BC00086E0C6DF60E080E19ADE80E0C1DFD82FDA
:102BD00081E0BEDFC82F0E944C32D23419F481E06C
:102BE000C13009F080E0817080939801882319F04A
:102BF00064E08FE084DE81E0DF91CF9108951F9241
:102C00000F920FB60F9211242F933F934F935F9320
:102C10006F937F938F939F93AF93BF93EF93FF93A4
:102C20008091E10082FF09C08091E20082FF05C02F
:102C30008091E1008B7F8093E1008091DA0080FF3A
:102C400024C08091D80080FF20C08091DA008E7F60
:102C50008093DA008091D90080FFA9C080E189BD0E
:102C600082E189BD09B400FEFDCF81E08093370485
:102C700080912B04811109C00E94E7050E948806FB
:102C80008091E20084608093E2008091E10080FF07
:102C90001AC08091E20080FF16C08091E2008E7F12
:102CA0008093E2008091E20080618093E200809155
:102CB000D80080628093D80019BC85E080933704E7
:102CC00083E0809392018091E10084FF2FC0809186
:102CD000E20084FF2BC080E189BD82E189BD09B497
:102CE00000FEFDCF8091D8008F7D8093D800809129
:102CF000E1008F7E8093E1008091E2008F7E8093DF
:102D0000E2008091E20081608093E20080913804CB
:102D1000882309F452C084E08093370480913704FB
:102D2000843009F452C081E0809392018091E100E7
:102D300083FF2CC08091E20083FF28C08091E100D6
:102D4000877F8093E10082E08093370410923804FB
:102D50008091E1008E7F8093E1008091E2008E7F80
:102D60008093E2008091E20080618093E20042E083
:102D700060E080E00E9456068091F00088608093B9
:102D8000F00081E08093920180939101FF91EF9197
:102D9000BF91AF919F918F917F916F915F914F9173
:102DA0003F912F910F900FBE0F901F90189519BC57
:102DB0001092370410922B0468CF8091E30087FDB6
:102DC00002C081E0A9CF83E0A7CF82E0ADCF7894A5
:102DD0001F921FB61F9211248F939F93AF93BF939F
:102DE0008091270490912804A0912904B0912A048D
:102DF0000196A11DB11D8093270490932804A093F0
:102E00002904B0932A04BF91AF919F918F911F9095
:102E10001FBE1F9018952FB7F894809127049091AA
:102E20002804A0912904B0912A042FBF0895F3DF4C
:102E30002091220430912304232B21F080931E043F
:102E400090931F042091240430912504232B21F01A
:102E500080931C0490931D0480E294E00C949D07E1
:102E6000CF93C6E0E4EFF1E0DF018C2F1D928A954D
:102E7000E9F71092470284D8E0E2F4E0DF011D9206
:102E8000CA95E9F71092190410921A0410921B04C3
:102E9000CEDFCF910895AAE2B0E0E1E5F7E10C942E
:102EA000A53589E394E0FC0101962091F10020838F
:102EB00024E081349207B9F780913A04893009F40B
:102EC0005BC0C8F4823009F4B8C0833009F487C00D
:102ED000813099F18091E80083FF3BC180913904F2
:102EE00090913A049A3008F034C1E92FF0E0E355AC
:102EF000F94C0C94EC358A3009F48EC08B3051F7C4
:102F000080913904813231F780913D0490913E04E3
:102F1000892B01F78091E800877F8093E8000E9469
:102F2000370681E090913B04911101C080E08093CD
:102F3000910110922C0494DFCDCF80913904813A15
:102F400049F68091E800877F8093E80080913D04F6
:102F500090913E04892B61F468E08DE294E070E08A
:102F60000E94E2068091E8008B778093E800B2CF60
:102F700060E090E080E0F3CF80913904813209F085
:102F8000A9CF80913D0490913E048D7F892B09F05B
:102F9000A1CF8091E800877F8093E8008091E800CE
:102FA00082FF18C09091F3008091F200029731F4F3
:102FB0008091F100813011F0863021F48091F10090
:102FC000809390018091E8008B778093E8000E94C5
:102FD000370680CF809137048111E0CF7BCF80917D
:102FE0003904813A09F076CF80913D0490913E04F6
:102FF000892B09F06FCF8091E800877F8093E800EC
:103000008091E80080FFFCCF809191018093F100D6
:103010008091E8008E77D9CF80913904813209F010
:1030200059CF8091E800877F8093E8000E9437069F
:1030300080913C0480938F014DCF80913904813A77
:1030400009F048CF8091E800877F8093E800809165
:10305000E80080FFFCCF80918F01D8CF803899F0B5
:10306000823809F076C080913D048F70873008F077
:1030700070C08093E9008091EB0085FB882780F980
:103080001092E90006C080913504909136049111A8
:1030900082609091E800977F9093E8008093F10020
:1030A0001092F1008091E8008E77B7C1882309F46F
:1030B000A4C1823009F04DC080913B048111A8C1A8
:1030C00080913D048F702FEF280F263008F041C00B
:1030D0008093E9002091EB0020FF9AC1933031F4F6
:1030E0008091EB0080628093EB0092C19091EB00A5
:1030F00090619093EB0021E030E001C0220F8A95AF
:10310000EAF72093EA001092EA008091EB008860D1
:10311000EACF81111EC010913B041F778091E3001C
:103120008078812B8093E3008091E800877F8093F3
:10313000E8000E9437068091E80080FFFCCF809174
:10314000E30080688093E30082E0111183E08093C4
:1031500037048091E80083FF0AC08091E800877FF0
:103160008093E8008091EB0080628093EB00AA9648
:10317000E3E00C94C1358058823058F740913B040D
:1031800050913C044C3D83E05807A1F583E08A83CD
:103190008AE289834FB7F894DE01139620E03EE07F
:1031A00051E2E32FF0E050935700E49120FF03C079
:1031B000E295EF703F5FEF708E2F90E0EA30C0F045
:1031C000C7968D939D932F5F243159F74FBF809100
:1031D000E800877F8093E8006AE270E0CE01019604
:1031E0000E94E2068091E8008B778093E800B1CFDF
:1031F000C096E7CF80913D0490913E04252F332760
:103200002330310509F44AC078F52130310509F43D
:1032100079C08BE590E0EAE7F6E02230310509F06D
:1032200098CF2091E800277F2093E80020913F0469
:10323000309140048217930708F49C0140E0211567
:10324000310509F064C0411162C08091E80082FD3F
:10325000C9CF80913704882329F2853019F28091F3
:10326000E80083FFF2CFBECF2132310509F43BC025
:103270002232310509F06DCF8330910508F069CF16
:10328000FC01EE0FFF1FED51FE4F0190F081E02D8C
:1032900080529E4FDC018C9190E011C0CA019927A9
:1032A000413089F082309105B1F0892B09F051CF7E
:1032B000EFE0F7E0E4918E2F90E0EFE0F7E0009789
:1032C00009F447CFAECFEDEFF6E0E4918E2F90E01A
:1032D000EDEFF6E0F4CFE7EEF6E0E4918E2F90E02C
:1032E000E7EEF6E0ECCF8330910508F032CF880F9F
:1032F000991FFC01E751FE4F0190F081E02D89E01C
:1033000090E08FCF82E190E0E5EDF6E08ACF80910A
:103310003704882309F466CF853009F463CF8091A0
:10332000E80083FD5FCF8091E80082FD8ECF809121
:10333000E80080FF84CF9091F3008091F200211586
:10334000310519F08830910550F041E0089709F0F7
:1033500040E08091E8008E778093E80070CF449140
:103360004093F1003196215031090196E8CF803821
:1033700009F0EFCE8091E800877F8093E80080918C
:1033800038048093F1008ECE8111E3CE10913B047E
:10339000123008F0DECE8091E800877F8093E8004D
:1033A000109338040E943706112311F084E005C001
:1033B0008091E30087FDFACF81E08093370442E0FB
:1033C00061EC81E00E94560642E261EC84E00E94DA
:1033D000560642E261EC82E00E94560642E260EC50
:1033E00083E00E94560680913704843021F081E00A
:1033F00080939201AECE82E0FBCF80913B0481307E
:1034000009F0A7CE81E0933009F080E08093360484
:103410001092E9008091E800877F8093E8000E9485
:10342000370697CE1F920F920FB60F9211242F934B
:103430003F934F935F936F937F938F939F93AF933C
:10344000BF93CF93DF93EF93FF93D091E900DF70A9
:103450008091EC00C82FC17080FDC0E81092E90097
:103460008091F000877F8093F000789414DD1092B3
:10347000E9008091F00088608093F000CD2BCF7040
:10348000C093E900FF91EF91DF91CF91BF91AF9190
:103490009F918F917F916F915F914F913F912F916C
:1034A0000F900FBE0F901F90189510922C04D8DC2F
:1034B0002FEF84E39CE0215080409040E1F700C072
:1034C000000088E19AE00FB6F894A8958093600018
:1034D0000FBE90936000FFCF662309F46FC08D3C50
:1034E00031F40E94E507819580932304A0CC8E3CA3
:1034F00019F40E94E507F8CF8F3C31F40E94E507EC
:10350000819580932204F2CF803D19F40E94E50753
:10351000F8CF893D29F40E94C30780932404E6CFA5
:103520008A3D21F40E94C3078195F7CF8B3D31F48A
:103530000E94C307819580932504D8CF8C3D19F450
:103540000E94C307F8CF9FE2980F983018F5282FF4
:10355000215D330BA90121E030E001C0220F4A9523
:10356000EAF790912104922B90932104815D21E050
:1035700030E0A90102C0440F551F8A95E2F7CA0145
:1035800020910103662309F492C0822B80930103EA
:103590000C94D60E8D3D31F480911B048160809394
:1035A0001B04A4CF8E3D21F480911B048260F7CFD1
:1035B0008F3D19F580911B048460F1CF9091220416
:1035C0008D3C59F42091230427FF0DC01092230451
:1035D00091110BC01092190408C08E3CB1F42091D7
:1035E000230412169CF39923B1F0909124042091A6
:1035F0002504922B11F410921A04482F415D550BAB
:103600004830510508F4B2CF71CF8F3C39F497FFA1
:10361000EACF1092220490912304DACF803D19F46E
:103620001916BCF3E0CF20912404893D29F4121629
:10363000D4F610922404D7CF8A3D19F427FFD3CFB4
:10364000F8CF209125048B3D29F427FFCCCF109291
:103650002504C9CF8C3D19F41216CCF3C4CF2FE248
:10366000280F283088F4282F215D330BA90121E091
:1036700030E001C0220F4A95EAF7209530912104ED
:10368000232320932104AFCF20911B042E7F8D3D57
:1036900059F020911B042D7F8E3D31F08F3D09F0B4
:1036A000A2CF20911B042B7F20931B049CCF8095DD
:1036B00082236CCF882339F19CEF980F913A78F4EC
:1036C000E4EFF1E02AEF31E09191891303C0DF01CB
:1036D00011971C922E173F07B9F70C94C00F90E278
:1036E000980F983050F4877091E001C0990F8A9537
:1036F000EAF7892F0E94B70AF0CF93E3980F93312E
:1037000010F460E0E9CE0895CF93DF93EC01D2DFAF
:10371000CE010E94450B9E01205E31092830310503
:1037200010F0CD2B29F40E941110DF91CF91089554
:103730000E94FE0FFACF0F931F93CF93C82F8823B9
:1037400041F18CEF8C0F813AB0F504EF11E08AEF74
:1037500091E0F8012191C21701F18E179F07D1F76F
:10376000EFEF80E0D8019D918D01C91781F0EF3F07
:1037700019F4911101C0E82F8F5F863099F7EF3F60
:1037800031F00E2E000CFF0BEE50FE4FC2830E9454
:10379000C00FCF911F910F910895E4EFF1E02191B7
:1037A000C21303C0DF0111971C928E179F07B9F750
:1037B0000E94C00FD5CF80E28C0F883068F4C770AC
:1037C00021E030E001C0220FCA95EAF780912C0475
:1037D000822B80932C04DBCF83E38C0F8331C8F6DC
:1037E00061E08C2F79DED5CFCF93DF93EC010E947F
:1037F000450B9E01205E31092830310510F02097DD
:1038000039F40E9416108C2F96DFDF91CF91089526
:103810000E940810F8CFA5E0B0E0E1E1FCE10C94D3
:103820009A3580913A03882309F41EC12091380308
:10383000309139033A832983EEDA49815A81841B16
:10384000950BC29708F4E6C0E6DA909339038093AB
:10385000380382E894E090938906809388068091EB
:103860007D04882309F40FC183EC93E00E94820F4A
:1038700088EB0E94FD0E8091AF010E94420C0E94D5
:10388000FD0E89EB0E94FD0E8091AE010E94420C5C
:103890000E94FD0E80EC93E00E94820F8091AC01AB
:1038A0009091AD0154E0969587955A95E1F70E9465
:1038B000420C0E94FD0E8091AC010E94420C0E94BD
:1038C000FD0E8DEB93E00E94820F86EB91E00E944B
:1038D0001F1082EE93E00E94820F8091B201082EA9
:1038E000000C990B0E94490C0E941F108091B3019B
:1038F000082E000C990B0E94490C0E941F10809109
:10390000B501082E000C990B0E94490C0E941F1053
:103910008091B401082E000C990B0E94490C0E9462
:103920001F108AED93E00E94820F8091A301811104
:1039300001C085E090E00E94490C01960E941F1092
:1039400086ED93E00E94820F8091AB01882331F0D5
:10395000813009F48DC08DEC93E002C083ED93E0DB
:103960000E94820F8091A501882309F484C08BEE08
:1039700093E00E94820F89EC93E00E94820F809175
:10398000AA01811101C084E0805D0E94FD0E81EFDB
:1039900093E00E94820F61E070E07A8369838091F6
:1039A0001003882309F46AC090E0098002C095954D
:1039B00087950A94E2F780FF61C089810E94420CDA
:1039C0000E94FD0E89819A8101969A8389830897C6
:1039D00031F780E20E94FD0E8EEE93E00E94820F8E
:1039E00080917801882309F44BC08BEE93E00E940C
:1039F000820F80917A0190917B016AE070E00E94D1
:103A00008235CB010E94490C01960E941F1080E371
:103A10000E94FD0E8091800490918104892B09F011
:103A20004EC0809137038823F9F00E9450076983C4
:103A30007A838B839C838091330390913403A0918C
:103A40003503B091360329813A814B815C81281B73
:103A5000390B4A0B5B0BDA01C9018F3F9F4FAF4F08
:103A6000BF4710F40E945C112596EEE00C94B63529
:103A700080ED93E075CF88EE93E07BCF80EBA0CF15
:103A800088EE93E0B4CF90E99983A981A051AD83EA
:103A900087EF93E00E94820F8D81B82FBF5FBD83B7
:103AA0000E94FD0E6D8029816212F6CF80E00E9497
:103AB0008F0F3981305F3983303C39F7ABCF80913C
:103AC0003A03882309F4ADCF809132038111A9CF45
:103AD0000E947611209180043091810421153105D6
:103AE00009F49FCF80E041E050E0082F10E0BA01D8
:103AF000082E02C0660F771F0A94E2F77A83698363
:103B000062237323672B11F48F5FEFCF9091310302
:103B100090FF97C0880F880F880F80938A011092BA
:103B20008D01895F80938B0183E080938E0124E671
:103B300030E047E050E068E871E088E70E94043335
:103B4000892B09F06ECFA80125E0440F551F2A9557
:103B5000E1F78091310380FF86C0E1E1F3E080E28C
:103B6000DF011D928A95E9F70CED11E088EDE82E52
:103B700081E0F82E97E0992E88248394D801ED9166
:103B80008D01D7016D917D01640F752F711D6E57E9
:103B90007B4FF0E0EF5EFC4F30E020E0792C721AB2
:103BA000A82C022E01C0AA0C0A94EAF76B0190E03F
:103BB000D6018D916D018A21A72DA91BA770BA2E60
:103BC0000A2E000CBB0B682E01C0660CBA94EAF7F3
:103BD000B62CB195A195B109A770BB2701C08695F8
:103BE000AA95EAF7A62DA82B80818A2B80839F5F58
:103BF0009830F1F62F5F3F4F31962830310571F63E
:103C000021E0003E120709F0B9CF04E610E020E2FF
:103C100030E041E153E060E488E70E948C33892B77
:103C200009F0FFCE49815A814095509580918004DA
:103C30009091810448235923509381044093800438
:103C4000F0CE8295880F807680938A019801369510
:103C500027953695279520938D01815E80938B0162
:103C600020938E0164CF4E575B4F04E610E020E2B4
:103C700030E0D1CFACE2B0E0E0E4FEE10C94A2355C
:103C80008091FE02833009F08CC140910003509175
:103C900001036091020370910303809104039091EA
:103CA00005030E94C6142093000330930103409340
:103CB000020350930303609304037093050386E0AB
:103CC000E0E0F3E0DE01199601900D928A95E1F7AC
:103CD00086E0FE013996DE01559601900D928A9597
:103CE000E1F786E0FE017596DE01119601900D92D6
:103CF0008A95E1F786E0FE013196A0E0B3E00190FD
:103D00000D928A95E1F786E0E0E0F3E0DE01199696
:103D100001900D928A95E1F786E0FE013996DE0169
:103D20005B9601900D928A95E1F786E0FE017B9605
:103D3000DE01119601900D928A95E1F786E0FE0171
:103D40003196A0E0B3E001900D928A95E1F786E00C
:103D5000E0E0F3E0DE01979601900D928A95E1F79D
:103D600086E0FE01B796DE011F9601900D928A95BE
:103D7000E1F71BA5FCA40F2D012B09F4B5C00E948F
:103D8000A91129833A834B835C836D837E838F8360
:103D9000988744FD11950F2D45FD01951B8B0C8BCC
:103DA00086E0FE013F96DE01199601900D928A95FC
:103DB000E1F71D870E8786E0FE013996DE019196B8
:103DC00001900D928A95E1F71DA30EA386E0FE01F6
:103DD000B196DE011F9601900D928A95E1F71B8B3B
:103DE0000C8B86E0FE013F96A0E0B3E001900D92BF
:103DF0008A95E1F786E0E0E0F3E0DE011F960190AE
:103E00000D928A95E1F780917801882309F47AC0B0
:103E1000E0907D01F0907E010E940B1720917C01C3
:103E20008E199F092817190608F06CC0E0907F01D1
:103E3000F09080010E940B178E199F09893C910513
:103E400008F460C038898A89909184012989920F89
:103E50009093840120918501820F809385012091A8
:103E60008701020F0093870120918601120F1093A2
:103E700086012091760197FD91952917B8F187FD6C
:103E80008195281798F107FD0195201778F117FD06
:103E9000119581E0211718F0311101C080E0817087
:103EA000809381010E944F0910911003882309F427
:103EB00045C01092840110928501109286011092E3
:103EC00087010E940B1790937E0180937D011092D1
:103ED000800110927F0180917901111109C088231E
:103EE00089F00E94B70B0EC010E058CF81E0D7CF09
:103EF000212F30E0082E02C0359527950A94E2F76D
:103F000020FFEFCF86E0E0E2F4E0DE011F960190B3
:103F10000D928A95E1F7809101039889892B80930E
:103F200001030E94D60E811139C08091FF02817079
:103F30001092FF02AC96E6E00C94BE3580917901B8
:103F4000111122C08111DECF00917D0110917E01FF
:103F50000E940B17801B910B20917A0130917B01FD
:103F60002817390778F6809179010E94960B1092F4
:103F70007E0110927D0110928401109285011092B1
:103F8000860110928701BECF212F30E002C0359507
:103F900027958A95E2F720FFB5CFD6CF81E090E054
:103FA000C6CF80E0C7CF80917D04882311F00C94A8
:103FB0000B170E94AF09CB01089560918A066695A0
:103FC000669570E041E050E087E791E00E9431366D
:103FD000892B19F481E080930E03E5DF90930803A9
:103FE0008093070380910F03846080930F030895EB
:103FF00090918A0690FF2CC0937081112AC0946022
:1040000090938A0680910F03816080930F0366234B
:1040100021F08AE896E00E94720D60918A0666950A
:10402000669570E041E050E087E791E00E9431360C
:10403000892BB9F00E94360881E080930A0320E0C2
:1040400040918D0660918C0680918B060C94930DA7
:104050000895893010F09062D3CF880F880F982B85
:10406000CFCFABDFE9CF90918A06969596958FEFEB
:10407000890F913009F488E061E0BACF80918A0617
:10408000869586958F5F893008F081E061E0B0CF3A
:10409000B0E0A0E0EEE4F0E20C949F358C01DC018E
:1040A00014968C91882309F455C161E0C8010E94DF
:1040B0002711EC0180917801882341F1F801F58006
:1040C000C032F2E5DF0708F0A3C0C11522E5D20730
:1040D00008F0E7C0C11530E5D30708F08EC0C11560
:1040E00080E4D80708F0F1C0C11590E2D90708F0C4
:1040F000F3C0C83ED10508F053C0C03ED10508F456
:1041000055C08091830187FD10928301D093AD014A
:10411000C093AC01D8018D919C9111979093AF0100
:104120008093AE01FE013497E533F10508F0EDC050
:10413000E55AFE4FE49115968C9120EB811102C057
:104140002E2FE0EBA6EBB1E090E080E03D91321342
:10415000D6C088569E4FDC015E96EC93D80115962A
:104160008C919E013A9521153F4138F0C730AEE75A
:10417000DA0709F093C10E94760BF8019581992323
:1041800009F461C280912C048272FE01E052F8476A
:10419000EB30F10508F057C2E954F94C0C94EC35BA
:1041A000CE019A9581159F4108F4ABCFF801848127
:1041B000882309F4A6CFC730FEE7DF0709F43FC024
:1041C000CE018D5C91094397D0F10E944F09811176
:1041D00098CFFF2059F0809179012091100321118F
:1041E00082C0882309F488C00E94B10E0E940B1778
:1041F0009093800180937F0184CFCE0175E09695E6
:1042000087957A95E1F78F7099272091790113C0EE
:10421000C038B2E5DB07B8F4C036E2E5DE0708F0E7
:1042200040C0C034F2E5DF0708F06BCF2091790180
:10423000CE018F7199272817190609F062CF8F2DAB
:104240000E9438095ECFC03E22E5D20718F5C03C77
:1042500032E5D30708F455CF20917901CE018F7153
:1042600099272817190609F04CCF8F2D0E9438097D
:10427000D80116968C911697807F803509F041CF32
:1042800015968C918823D9F0809183018150809379
:10429000830137CFCE01805E9245809708F431CFFD
:1042A00085CF20917901CE018F71992728171906A2
:1042B00009F027CFF11025CF0E94460922CF0E9496
:1042C0004609809183018F5FE2CFF8018681807F6C
:1042D00019F48D2F992797CFD80116968C91807F4E
:1042E00009F40FCF63CF30E0082E02C03595279533
:1042F0000A94E2F720FF78CF0E94960B75CF0196C3
:104300008630910509F022CF29CFCE01975780380A
:10431000910508F023CFF8018581882309F4B9C0FD
:10432000D0E0F12CE12CCD17C1F130E9E31631E0FA
:10433000F306A8F080910603877061F0D801159606
:104340008C91882339F08091C90282FF03C082E0FA
:104350000E94A10BCDB7DEB7E9E00C94BB35C701D5
:10436000805B9D4F0E94643697012F5F3F4F8823EB
:1043700091F09FEF980F923010F0843051F4F3E0F9
:10438000EF0EF11C20E9E21621E0F20640F3DF5FB8
:10439000CACF7901F7CF7901FACF80E9E81681E039
:1043A000F80640F6C701805B9D4F0E94643684305A
:1043B00019F0833008F0BECFC701805B9D4F0E948B
:1043C0006436D82E882309F4B5CF8FEF8D0D823057
:1043D00018F094E0D912AECFC7018F5A9D4F0E94BA
:1043E0006436D82FC7018E5A9D4F0E946436A3E0D1
:1043F000EA0EF11CC82FB1E0DB121EC055E0C52E3D
:10440000D12CC933D10519F440E5C42ED12CCE01ED
:10441000EBD9EFE9FFE03197F1F700C00000F1E0E0
:10442000CF1AD108B1F7CE016FD990E9E91691E022
:10443000F90608F4C1CF7ECF22E0D21212C0CE011D
:10444000D3D9E0911F02E83080F781E08E0F80938E
:104450001F02F0E0EE0FFF1FE15FFD4FD183C0832D
:10446000E4CF34E0D312E1CF2097F9F28FE99FE057
:104470000197F1F700C000002197F6CFE150E093DB
:104480001F02F0E0EE0FFF1FE15FFD4F8081918181
:104490003BD9E0911F02E111F1CF4CCF882309F401
:1044A0006CCEFE01FE57E031F10508F066CEEE530A
:1044B000F94C0C94EC3580E00E949A141092AA01F9
:1044C00080E00E94CE0E8AE892E00E94C00E32CFB9
:1044D0002091AA013091780180917A0190917B011D
:1044E00062E370E00E9482358FEF860F9091AB01FE
:1044F0006091EC024091A30120FB47F9522F5695A1
:104500005370330F330F532B282F220F220F220FFC
:10451000522B660F660F6C739370692B70E08FE0FF
:1045200090E00E94883606CF81E00E94B41402CF4A
:104530008FEFFBCF8AE0F9CF86EFF7CF9091A501FF
:1045400081E089270E94760BF5CE8091AA01811126
:1045500001C084E08F5F18160CF081E0883008F00D
:1045600087E08093AA01E6CE8091AA01811101C063
:1045700084E08150F0CF81E08093AB01DBCE1092DC
:10458000AB01D8CE82E0F8CF9091780181E0892705
:104590000E94CE0ECFCE80917A0190917B01C2967F
:1045A000893EB3E09B0708F490CF88EE93E08DCF6F
:1045B00080917A0190917B01C2978436910508F031
:1045C00084CF84E690E081CF80918A0680FF03C08B
:1045D0000E94310EAFCE816080938A0661E086959D
:1045E000869506DDA7CE882321F03DDDA3CE882366
:1045F000E1F344DD9FCE882329F00E940D0E9ACE70
:104600008823D9F30E94150E95CE882329F00E94A5
:10461000F70D90CE8823D9F30E94020E8BCE88230B
:1046200029F00E94E10D86CE8823D9F30E94EC0D7B
:1046300081CE882329F00E941D0E7CCE8823D9F3D9
:104640000E94270E77CE9E01205E32452032310532
:10465000A8F4911127C0CF7181E090E09C0102C0C5
:10466000220F331FCA95E2F7E901622F83E090E041
:104670000E9476368C2F0E94320B5CCE9923D1F1AA
:1046800080E0CB353CE7D30751F1CC358CE7D80738
:10469000F9F081E0CA35ACE7DA0709F1C130BCE7CF
:1046A000DB0731F1C330ECE7DE07E1F0C115DC4791
:1046B00009F510922C040E9430172FEF34E38CE0A0
:1046C000215030408040E1F700C000000E943F07C9
:1046D0008091C90282FB882780F991E089270E9496
:1046E000071228CE6FEF7FEF90E080E00E949036B7
:1046F0000E94551AF801E080F180992309F465C001
:10470000C7010E94CC10C82F682FC7010E94FC0A65
:10471000B7018C2F0E94C0100E94E009D82FC92F2A
:10472000B82ED8011596DC9015971696CC90C294A9
:104730009FE0C92280910603877009F1FD2CDD20DE
:10474000F9F08C2F807F803469F080E28D0F883003
:10475000B0F08C2F807E803229F4B1E0BD1778F460
:10476000CC2069F08091C90282FF09C082E00E94DA
:10477000A10B809106038770FF24F3948111F12C23
:10478000EC2EE2948FE0E822E8E0EE1609F4F0C0A7
:10479000EE1588F1F3E0FE15E8F08C2F807FCF70E6
:1047A00021E02E15E0F5803211F0C295C07FBB20CC
:1047B00009F46AC0A1E0BA1609F4B0C0DD2009F41A
:1047C000BCC0CC2009F47EC040C0C7010E94C90A09
:1047D000C82F9ECF35E0E31609F4C5C0AE2DA85012
:1047E000BB0B149708F0AEC10E94B00760E0C8018F
:1047F0000E942711AFCD89E0E81609F426C186E0B2
:104800008E0D8F70823050F78D2F92EFB9122CC120
:104810008C2F8F71D11025C10E94B70BDFCF882359
:1048200011F0C295C07F8D2FDD20B9F0CC2369F047
:1048300090E29D0F983010F0D11109C080912C04A6
:10484000C82BC0932C040E94C00F8D2F2DC08091C7
:104850004702C82BC0934702F6CF0E945A1BCC23B5
:1048600009F4BCCFD05ED83010F0B11004C08C2F4A
:104870000E94B70A06C0C09580914702C823C09322
:1048800047020E94C00FAACF8091C90282FD16C0C4
:10489000DD2069F0CC2339F080912C04C82BC09323
:1048A0002C040E94C00F80E00E949B1B97CF80E0E9
:1048B0000E945A1BCC2309F491CFD9CFDD20A1F05F
:1048C000C11004C08C2F0E94161088CFB1E0CB120B
:1048D00085CF909146028C2F8923C81709F47ECF8B
:1048E000C92BC09346027ACFC11078CF8C2F0E947B
:1048F0001110909146028C2F892329F08C2F8095DE
:10490000892380934602809120029C2F982309F4EA
:1049100065CFC095C823C093200260CFDD2029F069
:10492000E5E0EC1508F45ACFCDCFF4E0FC1508F41F
:1049300055CF8C2F0E94111051CFCC20D1F3D933F9
:1049400069F42FEF37EE83E0215030408040E1F7EB
:1049500000C000008D2F0E945A1B40CFAFE1BEE483
:104960001197F1F7F5CF6D2D8D2F0E946C1A36CF70
:104970008C2F837091F5D11031CF4D2F42954695F4
:104980004770440F440F8D2F8F70042E01C0880F85
:104990000A94EAF72D2F2071D4FF07C02FE030E0F2
:1049A00001C0220F4A95EAF72095C695C695C370B7
:1049B000C23071F0C33051F03091C702C13029F0DC
:1049C000822B83230E94320B09CF832B822BFACFB9
:1049D000282B8091C7028227F5CF8695DD2011F024
:1049E0008C2F8170882309F4F9CE4D2F429546957E
:1049F0004770440F440F8D2F8F70042E01C0880F15
:104A00000A94EAF72D2F2071D4FF07C02FE030E081
:104A100001C0220F4A95EAF72095C695C695C37046
:104A2000C23071F0C33051F030911003C13029F021
:104A3000822B83230E94890BD1CE832B822BFACF2A
:104A4000282B809110038227F5CFCF70DD2029F02D
:104A50008C2F0E94B70B8D2F36CF8D2F0E941110F7
:104A60008C2F0E94960BBACEB2EFBB1570F0E0EF20
:104A7000BE16D1F0F1EFBF1691F0DD2009F44EC063
:104A8000C110E3CE8C2F8F71C7CE23EFB21611F178
:104A900034EFB312F2CF9091C90292FD26C08C2F51
:104AA0008F71DD20F1F2B8CEDD2079F084E08C1535
:104AB00008F494CECF7181E090E001C0880FCA95D0
:104AC000EAF7909110038927B5CF95E09C1508F47B
:104AD00085CEF0CF80E0DD2009F4ACCFCF7181E04E
:104AE00001C0880FCA95EAF7A5CFDD2061F08C2FB1
:104AF0008F7192FF91CEA8E08A9F900111242360CC
:104B00002093060389CE81E00E94A10BB1E0BC1581
:104B100008F064CE82E00E94A10B60CECC2079F038
:104B2000893341F4EFEFF7EE23E0E150F04020400D
:104B3000E1F70ECF8FE19EE40197F1F709CF8C2FBB
:104B40008F718FCFFF2009F451CE8091060380FD35
:104B50004DCEF80115828695869586950E94B70BF5
:104B6000C80196DA809106038695869586950E94FF
:104B7000960B3CCECF93DF9380914502807F09F066
:104B80004CC080914402882309F447C0E0917A0424
:104B900050914104C0914002D0913F026091410286
:104BA0007091420247E05E17C1F18E2F90E0E49FC2
:104BB000F0011124EE5BFB4F2481222389F1489FF1
:104BC000F001499FF00D1124DF01AE5BBB4F119640
:104BD0002C9111972C1324C02C912D1321C01596C4
:104BE0002C91159721111CC012962D913C91261BDA
:104BF000370B283C3105A0F4809145028F7080610D
:104C000080934502E85BFB4F80818F7080618083D9
:104C10008FE392E03DDA0E94BF0ADF91CF910895C1
:104C2000FC013196E770BFCFADE0B0E0EAE1F6E21B
:104C30000C949C358C0186E0F801DE0118960190F9
:104C40000D928A95E1F7F8018481E5809FE3A92E12
:104C500092E0B92E90914302911126C0882309F168
:104C6000EE20E9F0C8010E940111F82E8823B9F066
:104C700087E0F801D50101900D928A95E1F78091C6
:104C80004302813031F480913F02909140020E94B2
:104C9000F51070DF8F2D2D96ECE00C94B835C8011F
:104CA000F7D9FF24F394F6CFD080C180828093801F
:104CB000F09044022091410230914202A401421B33
:104CC000530BFF2009F4B6C0483C510508F08EC0D4
:104CD000882301F39091400280914502282F207F84
:104CE00009F054C0C91213C090913F02D9120FC0ED
:104CF000E11046C08F708061809345028FE392E09F
:104D0000C7D980914502F8018683F12CC3CFE11009
:104D100037C06C2D8D2D0E94C9056C2D8D2D0E94E4
:104D2000C905E82E8111F1CFD886C9868885998575
:104D30000E94F510292F22952F70903458F49F70FF
:104D4000223080F0992391F0F8019681907F71F4E0
:104D5000FE2CA0CF2A5F2F70223060F0C80198D9B6
:104D6000EF2CF6CF992311F0882391F3805E8830E1
:104D700078F3F4CF803F60F3815F833048F3EECF68
:104D800080914502816080934502BFCFC91207C060
:104D900090913F02D91203C0EE2009F46CC0C80103
:104DA0000E940111882309F47ACFEE2009F477CF0D
:104DB00080914502803280F020913F023091400284
:104DC0003A8329839C828B82909143029D831E8229
:104DD0008F83CE0101965CD987E0F801AFE3B2E0A2
:104DE00001900D928A95E1F7C5DE5BCF9091450267
:104DF000292F207F49F48FE392E04AD987E0F5011B
:104E000011928A95E9F781CF882309F443CF8091E5
:104E100040028C11C4CF80913F02D812C0CFE11064
:104E2000BECF9683C80134D987E0F50111928A95E7
:104E3000E9F730CF483C5105B8F7882309F431CF62
:104E4000FE2CEE2009F42BCF809140028C111FC064
:104E500080913F02D8121BC08091450280FD0EC098
:104E6000982F907F59F08683903F31F0982F907F54
:104E7000905F8F70892B8683C8010AD987E0F8017B
:104E8000AFE3B2E001900D928A95E1F703CFC8013C
:104E90000E9401118111A0CF809145028160809311
:104EA0004502C801F5D8F6CEABE1B0E0EAE5F7E29D
:104EB0000C94A5354E8B5F8B688F798F8A8F9B8F73
:104EC0009111109247021D8A86E0FE017696DE015E
:104ED0001F9601900D928A95E1F78B89882351F0F6
:104EE00061E0CE010F960E94271161E0CE010F967E
:104EF0000E94271187E0FE013F96DE01189601907F
:104F00000D928A95E1F7CE0108968EDE81110CC0D4
:104F100087E0FE013896DE01119601900D928A9588
:104F2000E1F74C8541110BC017E080917A04909114
:104F30004104891334C06B96E3E00C94C135209191
:104F4000410430E0C90101968770992750917A0495
:104F500058171906A1F04D8397E0929FD001939FB7
:104F6000B00D1124AE5BBB4FFE01319601900D9246
:104F70009A95E1F7809341040E94BF0AD5CF109221
:104F80002C040E9430171092410410927A0487E09A
:104F9000EFE3F2E0DF011D928A95E9F7C5CF819F2B
:104FA000C00111248E5B9B4F3FDE882321F280914C
:104FB0007A0490E001968770992780937A04B5CFA0
:104FC000A6E0B0E0E6EEF7E20C94A4350E940B17E1
:104FD0008C0180915002909151028017910779F0D5
:104FE00019821A820E940B17682F49815A81792FE2
:104FF00080E090E059DF1093510200935002269612
:10500000E4E00C94C035AFE0B0E0E9E0F8E20C94E5
:1050100098351A821982FE01339688E0DF011D92CD
:105020008A95E9F78E010F5F1F4F580190E0C92E56
:1050300091E0D92E280166246394712CF6018191A8
:105040006F010E948B0C00C085E0882E81E0982EB5
:10505000F401F12CE12C2191A22FA295AF70B0E0C8
:1050600090968C9190E02F7002C0959587952A9527
:10507000E2F780FD0AC0D5018C9193010E2C01C08E
:10508000220F0A94EAF7822B8C93BFEFEB1AFB0AEC
:1050900024E0E216F104F9F6F601319780810E94CE
:1050A000A00C80EA8A95F1F79FEFA91AB90AA5E04A
:1050B000CA16A1E0DA0611F6DD24D394F401819139
:1050C0004F010E948B0C00C03D2D0E2C01C0330FF0
:1050D0000A94EAF7F80140E051E0DA012D91AD01C0
:1050E000822F82958F7090E0DC0190968C9190E0F9
:1050F0002F7002C0959587952A95E2F780FD03C031
:105100008081832B80833196B1E045305B0729F79E
:10511000F401319780810E94A00CE0EAEA95F1F752
:10512000FFEFEF1AFF0A28E0E216F10439F6E3E98F
:10513000F6E098012B5F3F4FF12CD8018D918D0146
:105140009191891729F0DF0111978C93FF24F39433
:105150002017310791F70091C60210E006521D4F4B
:10516000FF2009F494C081E08093FC010E940B179A
:105170009093FB018093FA01E0907D04E110BEC0A2
:1051800085E0F801A3E5B2E001900D928A95E1F780
:1051900065E070E083E592E00E941308809352027C
:1051A0008090580290905902A0905A02B0905B02F1
:1051B0008091FD019091FE01A091FF01B09100024C
:1051C00088169906AA06BB06B1F08092FD0190925E
:1051D000FE01A092FF01B09200020E945007861AC1
:1051E000970AA80AB90A8092C1029092C202A092BC
:1051F000C302B092C4028BE0ECE5F2E0D201019070
:105200000D928A95E1F780915C0286958695E090F3
:105210005D02D0905E02C0905F0200916502109125
:10522000660210926602112339F110FF11C0298124
:105230002370982F990F990F292B298390918A0613
:1052400020FF49C0916090938A0660E00E94F81F99
:1052500011FF06C020E04C2D6D2D8E2D0E94930D68
:1052600012FF05C0002309F443C00E94DD1F13FF95
:1052700003C081E080930A03809167028823D9F1FB
:105280000E9476118F2D2F96E0E10C94B435809119
:10529000FC01882309F470CFC090FA01D090FB0183
:1052A0000E940B178C199D09059708F465CF45E0FE
:1052B00050E063E976E0C8010E943E36892B41F058
:1052C00085E0E3E9F6E0D80101900D928A95E1F7D7
:1052D0001092FC0151CF9E7F90938A060E9436085F
:1052E00080910F03816080930F030E943D08B0CF2F
:1052F0000E943608BCCF0E945C11C4CFE8E9F6E0FA
:1053000085E0DF011D928A95E9F7809192068A3047
:10531000E8F56CEF72E1C8010E94B70C882309F42C
:1053200054C068EB72E1C8010E94B70C882309F4ED
:105330004CC06BE074E1C8010E94B70C882309F4EB
:1053400044C06DEE73E1C8010E94B70C8823E9F1F7
:105350001092920681E0809303020091C50210E052
:1053600006521D4F45E050E068E976E0C8010E9412
:105370003E36892B09F486CF85E0E8E9F6E0D801CE
:1053800001900D928A95E1F7FE2C7CCFC09001022E
:10539000D09002020E940B178C199D09843F914006
:1053A00008F0B7CF80910302882309F46BCF1092E5
:1053B0000302E091C502F0E0E652FD4F95E0DF0107
:1053C0001D929A95E9F7F82E5DCF809192068F3F56
:1053D00031F08F5F809392068A3008F4BBCF0E9431
:1053E0000B179093020280930102DCCF1F921FB62D
:1053F0001F9211248F939F93AF93BF9380912604A4
:10540000811113C08091270490912804A091290450
:10541000B0912A044196A11DB11D80932704909359
:105420002804A0932904B0932A04BF91AF919F91BF
:105430008F911F901FBE1F901895CF93DF93EC01A3
:105440000E940B178C1B9D0BDF91CF910895CDB758
:10545000DEB7CD54D1090FB6F894DEBF0FBECDBF75
:1054600085B7806885BF85B7806885BF84B7877F2B
:1054700084BF0FB6F894A8958091600088618093EE
:105480006000109260000FBE80E890E00FB6F894C4
:1054900080936100909361000FBE81E08093920140
:1054A00082E899E09093F1018093F0010E94E70572
:1054B0000E9488068091E20084608093E2007894E4
:1054C000809137048823A1F01091E9001F7090911A
:1054D000EC00892F817090FD80E8182B1092E90074
:1054E0008091E80083FD0E944B171F701093E90024
:1054F00082E084BD93E095BD9AEF97BD80936E00E6
:105500001092C1021092C2021092C3021092C40201
:105510000E943814809109010E943814809105017D
:105520000E94A00C809106010E94A00C80910701AE
:105530000E94A00C809108010E94A00C00E011E0E4
:10554000D8018D918D010E94A00CB1E005301B07A0
:10555000B9F78091090195E0811190E09093C6021E
:1055600085E0891B8093C50280917D04811102C072
:105570000E943134E3E9F6E0AAEDB2E011921D9207
:1055800006E0ED39F007D1F790E080E00E94713637
:10559000833E9E4F59F163EE7EEF90E080E00E94E3
:1055A000903660E082E090E00E94763681E0809361
:1055B000C70261E083E090E00E94763660E074E12B
:1055C00084E090E00E9490360E943F0E0E94790E87
:1055D00040E050E0BA018FE090E00E94883640E061
:1055E00050E0BA0183E190E00E94883682E090E0CA
:1055F0000E9464368093CB0284E090E00E94713672
:105600009093C9028093C80283E090E00E946436C0
:105610000E94320B809110030E94350B982F81E07D
:10562000933009F080E00E94760B80917D048823FE
:1056300009F4B7C180E08093310380E880937F0450
:10564000ADD76BE070E087EA91E00E944F118823AC
:1056500009F445C08091310365E070E081FDA3C18C
:1056600082EA91E00E944F118823C9F16DE070E059
:1056700080E991E00E944F11882389F10E94500730
:105680002D966CAF7DAF8EAF9FAF2D97DC01CB0118
:10569000805A9541AF4FBF4F8093330390933403AB
:1056A000A0933503B0933603E2E8F4E080E092E0A3
:1056B000DF018C011D9201501040E1F7F093890643
:1056C000E09388068FEF9FEF90938104809380048E
:1056D00081E080933A0380933703109232038091E4
:1056E000CA0281113AC08AE896E00E943610809181
:1056F0000F03836080930F0380918A068C7F71F47F
:105700000E943F0E8AE896E00E94361080918A0639
:10571000982F9C7F83708460992331F080918A0652
:10572000843220F08370806280938A0680918D0697
:10573000893718F088E780938D060E9436080E940A
:10574000340880918A0680FF05C060E086958695C2
:105750000E94F81F81E08093CA0280917D0481112C
:1057600002C00E9431340E94C615882309F41EC16C
:1057700083E08093FE0280917D0481112EC089E632
:1057800099E090935901809358012AE130E03093D9
:105790005401209353018AE390E090935701809342
:1057A00056014EE659E050936101409360013093F9
:1057B0005C0120935B0190935F0180935E0141EB5C
:1057C00054E1509369014093680130936401209340
:1057D0006301909367018093660190E080E00E94EE
:1057E0007136833E9E4FC9F58FE090E00E946C3683
:1057F000F62E172F082F862F8F770E949A14FF1CE2
:10580000FF24FF1C612F6370660FF62AF092AA0135
:1058100012FB882780F90E94CE0E812F887F09F421
:10582000C7C0169516951695212F30E02F5F3F4F74
:1058300042E3429FC001439F900D11240E94C00E7D
:10584000802F83708093AB01802F869586958F7013
:105850008B3008F08AE08093EC020E9494050E944D
:10586000A91129833A834B835C836D837E838F8365
:10587000988780917901581721F0509379010E94FF
:10588000B10E8D819E810E94C00E8B8186FB882780
:1058900080F991E089270E94CE0E8F818093760156
:1058A0008AE691E090937C0480937B045E0123E080
:1058B000A20EB11C4AED52E0465F2E964FAF2E97D6
:1058C000772473948091370410E400E172E1F72E9D
:1058D000853009F4AAC097DB0CEC12E061ECC62E0F
:1058E00061E0D62E26ED32E076018AED92E0F801F5
:1058F0005191DC014D91CD01D7016D917D01462380
:105900002E173F0709F49DC0541791F3B0917D0401
:105910002A96BFAF2A9741ECE42E41E0F42E5AEDCF
:10592000852E52E0952E512CF40161904F01D70144
:105930008D917D016822F80121908F01261441F19B
:105940002624412C33243394822D8321C9F02A96B6
:10595000FFAD2A97FF23A1F049825A820E940B17BC
:105960009C838B8321E02D8391E0862D832109F494
:1059700090E09E8349815A816B817C818D8194DA8C
:105980004394330C38E04312DFCFF8013197608243
:1059900053944AE05412C8CF0E94AF09662463941E
:1059A00054C082E048CE8DE991E05CCE81E0E1CE4A
:1059B0008AE892E043CF80913704843039F10E9425
:1059C0005C110E943A1E1092260488E190E00FB606
:1059D000F894A895809360000FBE1093600083B781
:1059E000817F846083BF83B7816083BF789488950B
:1059F00083B78E7F83BF0FB6F894A895809160001F
:105A0000886180936000109260000FBEFCDAA1EC08
:105A1000B1E0EAEDF2E081919D91892309F042C461
:105A20002E969FAD2E979E13F6CF8091370485302A
:105A300009F4C1CF10922C040E9430170E94B007C5
:105A40004ACF541363CFBCDA612C80910E038823B4
:105A500009F464C080910D03E0918A06E695E6950D
:105A6000E81BE0930903823009F063C0F0E0EB54D7
:105A7000FE4FE4910E2F10E035E2E32E39E0F32ED5
:105A800080910A03882361F010920A030E94D31FB9
:105A9000909308038093070310920C0310920B035A
:105AA0000E94D31F9C01E0910703F09108038E1B15
:105AB0009F0B8F3F9F4790F58091D8028823B1F0CC
:105AC0001092D8028091D6029091D702281B390BF0
:105AD0002F3F3F4758F4805D9A489093D7028093B8
