:100000008EC50000A9C50000A7C500000C948A3465
:10001000A3C50000A1C500009FC500009DC500004C
:100020009BC5000099C500000C9489160C94A41A75
:100030000C94442A91C500008FC500008DC50000B6
:100040008BC5000089C5000087C5000085C500007C
:1000500083C500000C9471177FC500007DC50000AA
:100060007BC5000079C5000077C5000075C500009C
:1000700073C5000071C500006FC500006DC50000AC
:100080006BC5000069C5000067C5000065C50000BC
:1000900063C5000061C500005FC500005DC50000CC
:1000A0005BC5000059C5000057C5000005010902E5
:1000B000A10185020901A1000509190129081500FE
:1000C0002501950875018102050109300931158165
:1000D000257F95027508810609381581257F9501D0
:1000E00075088106050C0A38021581257F95017572
:1000F000088106C0C005010980A101850319012AF4
:10010000B700150126B700950175108100C0050CD8
:100110000901A101850419012AA002150126A002E6
:10012000950175108100C00660FF0961A101096297
:10013000150026FF00952075088102096315002629
:10014000FF00952075089102C005010906A101056F
:100150000719E029E7150025019508750181029529
:1001600001750881010507190029FF150026FF0008
:100170009506750881000508190129051500250156
:10018000950575019102950175039101C061626346
:100190006465666768696A6B6C6D6E6F70717273A7
:1001A0007475767778797A31323334353637383931
:1001B00030524542545F2D3D5B5D5C233B27602CF4
:1001C0002E2F00DA0281FFD9F1DB20A4A62EAF008A
:1001D000A0C0D30000A1C8D30000AED580A81F40A6
:1001E0008D142000783C1E1E140A05000101010137
:1001F00001010101010202020202020202020303E2
:1002000003030303030304040404040404050505B1
:100210000505060606060607070707070808080873
:10022000090909090A0A0A0B0B0B0C0C0C0D0D0D20
:100230000E0E0E0F0F0F10101111111212131314B6
:1002400014151516161717181819191A1A1B1B1C2E
:100250001D1D1E1E1F202021222223242425262688
:10026000272829292A2B2C2D2D2E2F3031323233BD
:100270003435363738393A3B3C3D3E3F40414243C6
:100280004445464748494A4C4D4E4F5051535455AA
:100290005658595A5B5D5E5F616264656668696B5A
:1002A0006C6D6F7072737577787A7B7D7E808283D8
:1002B0008587888A8C8E8F91939596989A9C9EA01C
:1002C000A2A3A5A7A9ABADAFB1B3B5B7BABCBEC029
:1002D000C2C4C6C9CBCDCFD1D4D6D8DBDDDFE2E4F2
:1002E000E7E9EBEEF0F3F5F8FAFDFF2223252628E7
:1002F000292A2C2D2F3032333536383A3B3D3E40BB
:1003000042434547494A4C4E5051535557595A5C00
:100310005E6062646668696B6D6F71737577797B17
:100320007D7F81838587898A8C8E90929496989A16
:100330009C9E9FA1A3A5A7A8AAACAEAFB1B3B4B62B
:10034000B8B9BBBCBEBFC1C2C3C5C6C7C9CACBCC86
:10035000CDCED0D1D2D2D3D4D5D6D7D7D8D9D9DA59
:10036000DADBDBDBDCDCDCDCDCDDDDDDDDDCDCDCCE
:10037000DCDCDBDBDBDADAD9D9D8D7D7D6D5D4D3F6
:10038000D2D2D1D0CECDCCCBCAC9C7C6C5C3C2C1CB
:10039000BFBEBCBBB9B8B6B4B3B1AFAEACAAA8A728
:1003A000A5A3A19F9E9C9A98969492908E8C8A89E0
:1003B000878583817F7D7B79777573716F6D6B69BD
:1003C00068666462605E5C5A5957555351504E4C92
:1003D0004A4947454342403E3D3B3A383635333241
:1003E000302F2D2C2A29282625232200AF00AE20CD
:1003F0002000BABB004B657920B10020C0C100BE0F
:10040000BF00484F005654003030200020202020EC
:10041000B1BCBD0042616C6CB100B4B500B2B300B8
:10042000C2C3004CB6B772B1002020002D002700D7
:100430002600000025002400230000002F001300E8
:10044000120000000C0018001C00000034003343B0
:100450000F0000000E000D000B00000087023800A6
:100460003700000036001000110031008943E5001C
:10047000E2000000E30091412A42284129001E00C9
:100480001F00000020002100220000002B001400AB
:100490001A0000000800150017000000E00004002A
:1004A00016000000070009000A00000039001D00C6
:1004B0001B00000006001900050030004A00E100A2
:1004C000E2000000E30091432C009042450044000C
:1004D0004300000042004100400000000000000016
:1004E00000000000D30000000000000000002352C4
:1004F000D20000005200D100000000000000000007
:100500004F000000510050000000000000000000FB
:100510002700000037000100010001003A003B0005
:100520003C0000003D003E003F00000000000000D5
:1005300000000000000000000000000000000000BB
:1005400000000000000000000000000000000000AB
:10055000000000000000000000000000000000009B
:100560000000000000000100010001000000540034
:100570006100000060005F00000000000000550006
:100580005E0000005D005C000000000000005600FE
:100590005B0000005A0059000000000000005700F6
:1005A000580000006300620000000000000000002E
:1005B0000100000001000100010001000100000035
:1005C000000000000000000000000000010000002A
:1005D000000000000000000000000000010000001A
:1005E000000000000000000000000000010000000A
:1005F00000000000000000000000000001000100F9
:1006000001000000010001000100010000000000E5
:1006100000000000000000000000000000000000DA
:1006200000000000000000000000000000000000CA
:1006300000000000000000000000000000000000BA
:1006400000000000000000000000000000000000AA
:10065000300A2F0A300801080000000000000000E6
:10066000000000000000000000000000000000008A
:10067000000000000000000000000000000000007A
:10068000000000000000000000000000000000006A
:10069000000000000000000000000000000000005A
:1006A00000000000000000000000000009025B00E4
:1006B000030100A0FA09040000010301010009215F
:1006C00011010F01224400070581030800010904FC
:1006D0000100020300000009211101000122220093
:1006E0000705820320000107050303200001090418
:1006F00002000103000000092111010F01227B000B
:1007000007058403200001120100020000000857C1
:1007100059000100010102000114034B006500793A
:1007200000620061006C006C0036003100000010B7
:100730000359006F0077006B0065006500730000CF
:10074000000403090400000000000000002F000066
:1007500000000700070000123F123F1200242A7F0A
:100760002A120036091E241B001826291228000010
:100770000007000000001E214000000040211E0074
:100780000014083E08140008083E08080000003065
:100790007000000808080808000000303000002041
:1007A000100C0201001E2925231E0000223F2000FC
:1007B00000223129292600122125251A0018141299
:1007C0003F10001725252518001E25252518000196
:1007D00031090503001A2525251A00062929291E95
:1007E00000000033330000000033730000081414CD
:1007F00022220014141414140022221414080002DB
:1008000001290502003E59555D3E00381611163883
:10081000003F2525251A001E21212112003F2121FC
:10082000211E003F25252521003F09090901001E41
:100830002121291A003F0404043F0000213F210028
:1008400000102020201F003F040C1221003F202018
:100850002020003F0204023F003F020C103F001E18
:100860002121211E003F09090906001E2129112E00
:10087000003F090919260012252529120001013F10
:100880000101001F2020201F000718201807000F5B
:10089000300C300F0021120C122100030438040325
:1008A00000312925232100007F4141000001020C75
:1008B0001020000041417F000004020102040040BA
:1008C0004040404000000103040000102A2A2A3C56
:1008D000003F2422221C001C22222224001C22224F
:1008E000243F001C2A2A2A0C0000043E0505000CA7
:1008F0005252543E003F080404380000003D0000FE
:10090000002040403D00003F080814220000013F45
:100910002000003E023C023C003E0402023C001C5F
:100920002222221C007E1422221C001C2222147E61
:10093000003E0402020400242A2A2A120000021F98
:100940002200001E2020103E000618201806000E6F
:10095000300C300E002214081422000E5050483E75
:100960000022322A26220008087741410000007F39
:10097000000000414177080800180408100C00002E
:100980000000000000000000000000000000000067
:1009900000C0F0F88C86C6E7FFFFFFFFFFFFFEFCFC
:1009A000FCF8E080000000F0F0F00000C0E0F07023
:1009B00070000000000000000000000000000000C7
:1009C00000000000000000F8F8F80000000000003F
:1009D00000000000000000000000000000F8F8F82F
:1009E0000000F8F8F8000000000080E07078686C03
:1009F00064C7C7C7C7C7C7E73F1F0F3FFFFFFFFF5A
:100A0000FFFF3F0F000000FFFFFF1E3FFFF3E180ED
:100A10000000F8FCFE3636363EBCB8000E3EFEF056
:100A200080F0FE3E0E0000FFFFFF060606FEFEFC05
:100A30007000E6F6F63636FEFEFC000000FFFFFF13
:100A40000000FFFFFF000000003C7F6360E0C0C0CB
:100A5000C0C0C0C0C0C0FFFFC06030180F03030398
:100A60000100000000000003030300000003030373
:100A70000300010303030303030301007070393F04
:100A80001F07010000000001030303030303030128
:100A90000000010303030303030100000003030339
:100AA00000000303030010101000000000550000B8
:100AB000003E635D5D637F417B77413E00001C2209
:100AC000221C003E0A003E0A00322A3C0026281E54
:100AD000001C2A2C0000003F09360000001E2121C6
:100AE00000000000003F0837001E2121001E2121C8
:100AF000003F090600213F2100222519001E212167
:100B0000003F0936003F211E00213F21000F300F1A
:100B1000003E093E003F063F003F20200000112418
:100B20001FBECFEFDAE0DEBFCDBF12E0A0E0B1E044
:100B3000ECE1FEE602C005900D92A632B107D9F7AE
:100B400026E0A6E2B2E001C01D92A13DB207E1F7A6
:100B50000E94752A0C94C43653CA80919901811160
:100B60001BC085E290919A019923C1F090919B015D
:100B7000911116C095E22091B004211113C0292FC4
:100B80002093940180939501890F10929601809390
:100B9000970180939801089582E2E4CF90E0EBCF33
:100BA00092E2E9CF20E0ECCFE091AD04F091AE0409
:100BB000309739F00284F385E02D309711F060E230
:100BC00009950895982FE091AC044091730457E083
:100BD000E41302C080E008952E2F30E05E9FF00104
:100BE0001124EC58FB4F8181681306C08081981353
:100BF00003C085818111EFCFF9013196E770E8CF0D
:100C0000E8EDF0E080818E7F80831092E200109208
:100C1000DA001092E100A0EEB0E08C9181608C933C
:100C200080818F77808319BCA7EDB0E08C918E7F97
:100C30008C9380818F7E808310925D040895209133
:100C4000E4003091E50095E6A9012091EC00822FA7
:100C5000817020FF06C08091E80080FF06C080E020
:100C600008952091E80022FD1AC08091690488232C
:100C700089F0853089F08091EB0085FD0FC02091CF
:100C8000E4003091E50042175307F9F29150E1F684
:100C900084E0089582E0089583E0089581E0089556
:100CA00080916B0487FF13C08091E80082FF06C02B
:100CB0008091E8008B778093E80004C080916904FC
:100CC0008111F2CF0895809169048823D9F380912E
:100CD000E80080FFF8CF8091E8008E77ECCF982F66
:100CE0009093E900242F762F50E0891731F070910E
:100CF000EC002091ED005091F00021FD07C09F5FB6
:100D0000973071F78093E90081E008953091EB000E
:100D10003E7F3093EB003091ED003D7F3093ED004E
:100D20003091EB0031603093EB007093EC00209336
:100D3000ED005093F0002091EE0027FDE0CF80E021
:100D40000895B0E0A0E0E7EAF6E00C94B935C8ED0C
:100D5000D0E088818F7E8883E7EDF0E0808181603C
:100D6000808384E082BF81E080935D0488818E7FF0
:100D7000888302EE10E0F80110821092DA0081EE12
:100D8000C82ED12CF601108288818F7788838881C4
:100D90008068888388818F7D888319BC109269045C
:100DA00010926A04109268041092670490EEE92E83
:100DB000F12CF70180818B7F80838881816088831B
:100DC00042E060E080E08BDFF60180818E7F8083EF
:100DD000F801808181608083808188608083F70151
:100DE00080818E7F8083888180618883CDB7DEB7E4
:100DF000E8E00C94D535FC01CB01209171043091D1
:100E000072042617370790F0009729F42091E80024
:100E10002E772093E80040E0009751F4411108C07C
:100E20008091E80082FF31C080E00895C901F3CFCE
:100E3000209169042223A9F12530A9F12091E8002D
:100E400023FD2DC02091E80022FDEACF2091E8008B
:100E500020FFE2CF3091F3002091F200009719F0CB
:100E60002830310558F041E02830310509F040E0E4
:100E70002091E8002E772093E800CECF4191409357
:100E8000F10001972F5F3F4FE9CF809169048823DC
:100E900041F0853041F08091E80083FFC1CF81E0CF
:100EA000089582E0089583E008950895089587E7FE
:100EB00097E7909301088093000888E19AE00FB6C5
:100EC000F894A895809360000FBE90936000FFCFC8
:100ED000A4E0B0E0EEE6F7E00C94BF358FB7F894ED
:100EE0002091590430915A0440915B0450915C0464
:100EF00029833A834B835C838FBF69817A818B819D
:100F00009C812496E2E00C94DB3580919101089558
:100F1000DC01FB0111969C9111978181981322C0ED
:100F200012968C911297882319F0928189131AC016
:100F300013968C911397882319F09381891312C00B
:100F400015968C911597882319F0958189130AC0FD
:100F500014969C91992321F081E02481291303C0E8
:100F600080E001C081E081700895A3E0B0E0EBEB88
:100F7000F7E00C94BF359C01809156049091570482
:100F800082179307B1F03093570420935604E091F1
:100F9000AD04F091AE04309761F00084F185E02D4E
:100FA000309739F084E089833B832A83CE01019610
:100FB00009952396E2E00C94DB35A3E0B0E0E3EE84
:100FC000F7E00C94BF359C01809154049091550436
:100FD00082179307B1F03093550420935404E091A5
:100FE000AD04F091AE04309761F00084F185E02DFE
:100FF000309739F083E089833B832A83CE010196C1
:1010000009952396E2E00C94DB35DC01E091AD0418
:10101000F091AE04309759F086819781892B39F091
:1010200082E08C930680F781E02DCD01099508952B
:101030008091AF04882369F0E091AD04F091AE0493
:10104000309739F00190F081E02D309711F009953B
:10105000089580E008958091490480FD16C081FDC7
:1010600016C082FD16C0809148048823A1F0883202
:1010700080F428E0829FC001112468E270E00E94A1
:10108000F235862F672B39F0089582E0089584E0C9
:10109000089588E0089581E008958091490480FDD5
:1010A00014C081FD14C082FD16C0809147048823BE
:1010B00081F08E3180F420E5829FC00111246EE121
:1010C00070E00E94F235862F089584E1089588E249
:1010D000089588E0089580E50895282F35EB2303CF
:1010E000C001112497FF04C080589109892F0895E9
:1010F00080589F4FFBCFFC01680F791F8FEF91E362
:101100002191822728E030E087FF09C0880F8927D6
:1011100021503109C9F7E617F70791F70895880FAD
:10112000F7CFFC01EE0FFF1FE80FF91FE759FC4F47
:101130006183408322830895539A0895EBE3F3E09B
:1011400011828281846082830895CF938091BC064E
:1011500080FF03C0B9D4CF910895C09196018091CA
:101160009701C817B8F7809194019C2F981B892F7D
:1011700020E040E060E090E0D4DFCF5FF0CF0F935D
:101180001F93CF93DF93D82F162F042F8091BC0687
:10119000C091960180FD10C0DF91CF911F910F91FA
:1011A0000895809194019C2F981B892F202F412F07
:1011B0006D2F90E0B6DFCF5F80919701C81788F35D
:1011C000C4DFEACFB0E0A0E0E8EEF8E00C94B73579
:1011D000262FD72EE82FF0E0E551FE4F71110AC0FF
:1011E000E4918E2F9E2F6E2F792FCDB7DEB7EAE0D8
:1011F0000C94D335072F10E0E4914E2F56E0659FF5
:1012000070011124CFEFD0E0C701BE010E949B35D1
:10121000822F90E0880F991F55E5569F9001579FA8
:10122000300D1124821B930B582F550F580FCE01F0
:10123000801B910BE89F9001E99F300D1124932FA3
:10124000D59ED0011124AB2FBB276E01CA1ADB0A31
:10125000EC9DD001ED9DB00D11248B2F5E01A51AE0
:10126000B108A09E6001A19ED00CB09ED00C1124AC
:10127000CD2CDD24CC19DD09EC9F8001ED9F100DF4
:10128000112463307105D1F05CEFE51653E0F506EB
:1012900070F461307105B1F062307105B9F04FEF53
:1012A000E416F10408F09FCF832F912F9CCF643078
:1012B000710579F066307105B9F395CFE32F9B2F57
:1012C000842F91CFEB2F832F942F8DCF812FE32F5E
:1012D000FBCF8E2FE12F87CF982F762F842F209151
:1012E000BC0620FF0AC0493708F088E7692F6ADF8B
:1012F000962F672F482F892F42CF0895CF93DF93E2
:10130000EC01ECEBF6E0438162818C81E5DF8C81BE
:101310008F5F8C83DF91CF910895CF93DF93EC01A2
:10132000EC81F0E0E551FD4F4491ECEBF6E0628199
:101330008181D2DF8C818F5F8C83DF91CF91089583
:1013400090918401882341F09F5F909384011092D3
:1013500081011092800108959150F7CFE9E7F1E003
:10136000828591E08927828710861782089580916F
:101370008201811114C080918401811110C080917B
:10138000830181110CC090913403969596959695A2
:1013900081E020917A01921380E08170089581E0CC
:1013A000FCCF80919901F9018083D7CBCF93DF9354
:1013B000E9E9F1E083819481A581B681E90188831F
:1013C0009983AA83BB831482138216821582DF91CC
:1013D000CF91089580E0089563E070E08EE892E098
:1013E0008ADE90918D02891318C0E0918E02EC3054
:1013F000A4F488E0E802F0011124E65FFE4F0680C5
:10140000F781E02D309749F021EB32E040919002D6
:1014100061E972E080918F0209950895E7E7F2E0B3
:10142000808D80933A01818D80934D010895A4E0D1
:10143000B0E0EDE1FAE00C94BF358091AF04882371
:1014400069F046DD69837A838B839C8369817A8125
:101450008B819C812496E2E00C94DB3539DD698335
:101460007A838B839C838091E6029091E702A0911E
:10147000E802B091E90229813A814B815C81280F11
:10148000391F4A1F5B1F29833A834B835C83DECF5E
:10149000811522E5920708F04AC0811530E59307CF
:1014A00008F0C5C0803E910540F58D3C910508F0DF
:1014B0009AC0883A910580F4853A910508F090C069
:1014C0008130910541F09C0124503109213A3105C8
:1014D00010F090E080E008959C01285A31092B31EA
:1014E0003105B8F7885AE82FF0E0EE0FFF1FE054FF
:1014F000FE4F8081918194640895811540E49407A2
:1015000098F4811550E2950708F0ABC0883E91052C
:1015100010F39C013A9521153F41D8F620E0392F70
:10152000A901482BCA0108959F70906A08958038D8
:1015300052E59507B8F5803622E5920708F05CC0C1
:10154000803432E59307C8F4803242E5940708F00E
:101550004CC0282F2695269550E2259F90011124F6
:10156000482F437081E090E002C0880F991F4A9590
:10157000E2F7822B932B9D680895282F26952695B8
:10158000277040E2249F90011124482F437081E08E
:1015900090E002C0880F991F4A95E2F7822B932BA7
:1015A0009C680895803C52E5950760F4282F2F71C0
:1015B000803A9245B0F5822F90E0982F8827846F6B
:1015C000906A08959C01205C32452032310508F074
:1015D00080CF982F882788279F71806F906A089501
:1015E000849790640895906508958F7190E0982F86
:1015F0008827816F906A0895282F26952695277051
:1016000050E2259F90011124482F437081E090E023
:1016100002C0880F991F4A95E2F7822B932B9A6894
:101620000895822F90E0982F8827906208959C015A
:1016300095E0369527959A95E1F72F7030E0322F97
:101640002227482F4F7150E084FF06C084E0440FEA
:10165000551F8A95E1F75527C901842B952B906971
:1016600008959F71E2CF982F909580915E04892311
:1016700080935E0408958091AC0490917304981354
:1016800001C008958F5F8770FACF9A3078F588305F
:1016900068F548E0949F90011124280F311D682FB0
:1016A000677083E0369527958A95E1F7F901EE0F8B
:1016B000FF1FE20FF31FEA5BFD4F30E020E080E008
:1016C000419150E0062E02C0569547950A94E2F7E4
:1016D00041705527022E01C0440F0A94EAF7842B6B
:1016E0002F5F3F4F2330310559F7089580E008956B
:1016F000282F9A3090F5883080F538E0939FC0010C
:101700001124820F911D277041E001C0440F2A95DA
:10171000EAF723E0969587952A95E1F7FC01EE0F0D
:10172000FF1FE80FF91FEA5BFD4F30E020E070E09B
:101730005191DF011197CB01022E02C0969587953A
:101740000A94E2F7817081958527842385278C93FD
:101750002F5F3F4F2330310559F708958093EC02F6
:101760000895982F82958F7011F0982F84E0292F7B
:101770002695269511F08E5F922F969509F08F5F32
:101780000895CF93C82F8091A6018C1749F0A0DB54
:101790006093A7017093A8018093A9019093AA0177
:1017A000C093A601CF9108950F931F93CF93DF931A
:1017B000EC01FB018091AB01811101C084E08150FB
:1017C000990B02E010E002C0000F111F8A95E2F7AA
:1017D00088819981B8010E94F2359B0199838883A1
:1017E0008A819B81B8010E94F2359B838A8361388C
:1017F0008FEF7807F4F060387105ECF465832138D9
:101800008FEF3807D4F020383105CCF4822F819542
:101810008483442319F06195658324838091AC010E
:10182000882379F0813079F0DF91CF911F910F916A
:10183000089561E8E3CF6FE7E1CF21E8E7CF2FE735
:10184000E5CF1582F1CF1482EFCFFC01DB012281BD
:10185000338121388FEF380704F120383105FCF44B
:1018600012962C9312978081918181383FEF9307D4
:10187000C4F080389105BCF413968C9313974423DD
:1018800039F0219512962C931297819513968C938B
:101890001182108213821282089521E8E1CF2FE78E
:1018A000DFCF81E8E9CF8FE7E7CF8F708A3010F480
:1018B000805D0895895A089520E297FF04C09195AC
:1018C000819591092DE2EAE0F0E0BF010E94F23536
:1018D000805D80933D026115710559F420933C02AF
:1018E00020E220933B0220E220933A028AE392E036
:1018F0000895CB01BF010E94F235805D80933C02C8
:101900006115710571F3CB01BF010E94F235805D55
:1019100080933B02E9CFAC01860F971F57FD07C0AC
:1019200077FD04C097FF02C08FEF9FE7089577FF10
:10193000FDCF97FDFBCF80E090E80895E82FE2957A
:10194000EF70F0E031A1282F2F7081E090E001C00E
:10195000880F2A95EAF7932F982B91A392A180954F
:10196000892382A30895E82FE295EF70F0E041A16A
:101970008F7021E030E0B90102C0660F771F8A95B1
:10198000E2F7CB01962F9095942391A392A1892BF6
:1019900082A30895B0E0A0E0E0EDFCE00C94B9353E
:1019A000F82EE92E8B018091C406CC24C394D12C4F
:1019B0008A3018F48AE0C82ED12CC1E0D0E06AEC5D
:1019C00076E08F2D9E2DF8010995811104C0219696
:1019D000CC16DD062CF4CDB7DEB7E8E00C94D53597
:1019E000CC9F9001CD9F300D300D112490E080E010
:1019F00045E34A95F1F70000019682179307C1F776
:101A0000DECF0F931F93CF93DF938B01EA01909169
:101A10006904943059F58093E9008FEF9091E800C4
:101A2000815095FD06C095ED9A95F1F70000811162
:101A3000F5CF8091E80085FF19C001D9811111C04F
:101A40008091E80085FD06C08091E8008E77809344
:101A5000E800F3CFF80181918F018093F100219785
:101A600079F78091E8008E778093E800DF91CF913D
:101A70001F910F910895BC0143E050E084E0C1CF75
:101A8000BC0146E050E084E0BCCFCF93DF93D82F79
:101A9000C92F48E050E0682F792F81E0B2DF88E05D
:101AA000ED2FFC2FAFE5B4E001900D928A95E1F7A0
:101AB000DF91CF910895792F603229F440E250E010
:101AC000682F82E09ECF08953BB1377F2BB128600D
:101AD0004FB7F89489E693E0FC010196508168E0E5
:101AE0002BB9000000C057FF3BB9550F000000C0E4
:101AF00000C000C03BB900C06A9591F754E087343C
:101B0000950751F74FBF8FE594E00197F1F700C0BB
:101B1000000008950F93CF93DF93CCEBD6E048817C
:101B200059816A817B8188E090E00E94A1362881FA
:101B300039814A815B816C817D818E819F8100E248
:101B40000E942636622F83E290E00E948F36DF915A
:101B5000CF910F9108950F931F93CF93DF93D82FB9
:101B6000162FC42F022F8091BC0680FF34C0209115
:101B7000BD062D1308C09091BE06961304C0909127
:101B8000BF06941729F090913D03926090933D0316
:101B9000E82FE695E695F0E0EA5FFD4F908190939F
:101BA0003B038C7F8430E1F48C2FC93708F088E741
:101BB0006D2F712F07DB962F672F482F892FDFDAC4
:101BC000D093BD061093BE06C093BF06002319F044
:101BD0008CEB96E09FDFDF91CF911F910F910895DD
:101BE000923019F4C091BF06EBCF963049F7D22F4F
:101BF000E7CFECEBF6E043812CE0421B08F440E039
:101C000021E062818181A7CFECEBF6E043812CE0FB
:101C1000420F08F44FEF21E0628181819CCFECEB11
:101C2000F6E0628121E1621B08F460E021E043817B
:101C3000818191CFECEBF6E0628121E1620F08F443
:101C40006FEF21E04381818186CFECEBF6E081816B
:101C500021E04381628181517ECFECEBF6E081810E
:101C600021E0438162818F5E76CF8091C006882318
:101C700019F081508093C0068CEB96E04BCF809199
:101C8000C006833018F48F5F8093C0068CEB96E01B
:101C900041CFECEBF6E080818E7F8083CF013ADF8D
:101CA0004DDAEBE3F3E08281816082834ECAECEB94
:101CB000F6E089E080838AEA81838FEF828380E87F
:101CC00083838483EBE3F3E08281836082838CEB04
:101CD00096E020CF1F93CF93DF93C62F122F632F51
:101CE0008430D8F4CA30C8F44830B8F490E1C99FC1
:101CF000E001112450E0440F551FC40FD51F90EA96
:101D0000899FC00DD11D1124CE0185960E948F366A
:101D1000612FCE0186960E948F36DF91CF911F9161
:101D20000895AF92BF92CF92DF92FF920F931F93CD
:101D3000CF93DF93B12CA12C00E0650110E012C01D
:101D4000FE01259134914F2D612F802FC3DF229604
:101D5000F39488E0F812F4CF88E0C80ED11C1F5F1E
:101D60001A3039F0E601CC0FDD1FC45DDB4FF12CDA
:101D7000E7CF0F5F80E5A80EB11C0430F1F6DF91CC
:101D8000CF911F910F91FF90DF90CF90BF90AF90B8
:101D90000895E2E8F1E083E0DF011D928A95E9F71A
:101DA000EEE7F1E084E0DF011D928A95E9F70895FE
:101DB0009C0180917B0190917C018217930729F00F
:101DC00030937C0120937B01E4CF089590917901B9
:101DD000981719F080937901DCCF0895CF9366E2CC
:101DE00073E08EE293E094D8C82F882319F08EE236
:101DF00093E00BD990912F0386E0EEE2F3E0DF0150
:101E0000282F1D922A95E9F790932F03A6E2B3E0BD
:101E100001900D928A95E1F781E0C11103C0911103
:101E200001C080E08170CF910895CF93DF93282F78
:101E300081E02A3019F02D3029F480E088D0DF913C
:101E4000CF9108958091BA069091BB0636E0FC01CF
:101E5000A4EBB6E001900D923A95E1F730EE320F27
:101E6000343A08F458C026E0FC0111922A95E9F7AB
:101E7000C091BA06D091BB0646E050E0BE0184EBAB
:101E800096E00E9457369E01245B3440892B41F135
:101E9000C90145E0969587954A95E1F741E050E004
:101EA000BA0102C0660F771F8A95E2F7CB016091F5
:101EB000B2047091B304862B972BB9016B5F7F4FEF
:101EC000E5E076956795EA95E1F702C0440F551F66
:101ED0006A95E2F7842B952B9093B3048093B20418
:101EE0002A5F3F4F4091B104642F70E0C9010E9406
:101EF0009B35481B463010F4240F311D211572E02C
:101F0000370710F030E020E02C543B4F3093BB06F5
:101F10002093BA0694CF2052330B46E0429FB00183
:101F2000439F700D11246B5B784F46E050E00E9498
:101F300041369ECFCF93DF93EC01FE018491811156
:101F400003C0DF91CF91089570DF2196F6CFCF9334
:101F5000382FE091BA06F091BB06E45BF440209183
:101F6000B104622F70E0CF010E949B35281B822FA5
:101F7000332359F066E00E94E635C82FC15010F4B3
:101F8000CF91089580E251DFF9CF9F01280F311DD5
:101F90002115324018F080E0F0E0E0E08E0F9F2F36
:101FA000911D8C549B4F9093BB068093BA06E8CF4B
:101FB00080915E0490916C02892B90916B02992321
:101FC00089F0892B90E02AE232E0F90140812F5F0D
:101FD0003F4F41119F5F42E020333407B1F7911129
:101FE00010926B028093280248E050E06DE672E0A8
:101FF00088E292E00E945736892BB9F088E0E8E247
:10200000F2E0ADE6B2E001900D928A95E1F7E09141
:10201000AD04F091AE04309741F00280F381E02DE1
:10202000309719F088E292E009950895882311F01D
:102030001ADBBECF0895882331F090915E04892B7E
:1020400080935E04B5CF08950F931F93CF93DF93D2
:10205000EC01FC0101900020E9F78F01015011090A
:10206000C017D10728F0DF91CF911F910F910895EC
:102070008991DBDEF5CF4F925F926F927F928F92C4
:102080009F92AF92BF920F93CF93DF9300D000D077
:10209000CDB7DEB788E090E00E9485362B013C0189
:1020A000ACEBB6E06C935092BD068093BE06709286
:1020B000BF061092C0061092C1061092C20610927E
:1020C000C30683E290E00E947D36282F30E040E096
:1020D00050E060E070E080E090E000E20E940B36AB
:1020E0002429352946295729ECEBF6E02083309343
:1020F000BD064093BE065093BF066093C006709322
:10210000C1068093C2069093C3060F900F900F9064
:102110000F90DF91CF910F91BF90AF909F908F90D4
:102120007F906F905F904F9008950F931F93CF9380
:10213000DF93843038F56A3028F5483018F520E10F
:10214000629FE0011124642F70E0660F771FC60FB5
:10215000D71F30EA839FC00DD11D1124CE01859673
:102160000E947D36082F10E0102F0027CE018696A2
:102170000E947D369801282BC901DF91CF911F91D4
:102180000F91089590E080E0F8CF462F672F7A30C6
:1021900028F4483018F4843008F4C7CF80E090E089
:1021A0000895B0E0A0E0E7EDF0E10C94BA357C01D1
:1021B00000913E038091EC02082BC3E0D0E010E0D8
:1021C000DC2EC8010C2E02C0959587950A94E2F783
:1021D00080FD09C02197A0F7D12C8D2DCDB7DEB79A
:1021E000E7E00C94D635B7018C2FCFDF51D901979A
:1021F00089F3F3CFCF93DF93D82FC92FD2DF6D2F81
:102200007C2FC3DF45D9DF91CF910895FC018481F4
:10221000882399F080819181EDDF282F92959F701E
:10222000963091F060F4925F9F70923030F481E0CC
:10223000203F81F030F4283E30F080E004C09A5F07
:10224000F3CF243FD1F7089581E0283E20F0213FCD
:10225000A1F7F9CF08950895A6E0B0E0E2E3F1E137
:102260000C94BE359C0186E0F901DE0111960190C7
:102270000D928A95E1F7F901258189819A812223BE
:1022800081F0662371F08DDF182F682F89819A8184
:102290002FDA69817A81812F78DF2696E3E00C942A
:1022A000DA35F3D9182FF5CF8091090381110BC0CE
:1022B00080EE93E00E947D36883040F48093760172
:1022C00081E0809309038091760108958E3FB1F3F8
:1022D00083E0F4CFCF93DF93C82F43DAD82FE4DF26
:1022E000982F81E0D91380E04CDAC0933E03DF9150
:1022F000CF91089521E030E001C0220F8A95EAF7DE
:10230000209580913E038223E5CF90913403809500
:10231000892380933403282F277061F4891751F0A3
:102320009091EE0292FF06C0869586958695E2DF33
:1023300010923403089521E030E001C0220F8A9505
:10234000EAF780913E03822BC5CFAB0124E630E053
:10235000BC0188E70E9460339C0181E0232B09F0D7
:1023600080E008958091650390916803911103C006
:1023700091E089270895882361F062E070E08DEE96
:1023800093E0E3DF811103C080916503089510920B
:10239000650380916503ECCFA5E0B0E0E2EDF1E1EB
:1023A0000C94BF35809165038D83809168038823E9
:1023B000E9F00E946807DC01CB01805A9541AF4FDC
:1023C000BF4F8093610390936203A0936303B09324
:1023D00064038D81811107C062E070E08BEE93E0B1
:1023E000B4DF811108C0809165038D838D812596AE
:1023F000E2E00C94DB3581E080936503F4CF9091AB
:10240000EE0292FB222720F9281771F080FB92F947
:102410009093EE026091ED027091EE0284E090E004
:102420000E94A93682E071CF0895B0E0A0E0EBE110
:10243000F2E10C94B935FA0169017801C82F880FCF
:10244000DD0B3097B1F0DE0193E0AA0FBB1F9A9528
:10245000E1F7A65FBE4F11968D919C911297895816
:102460009D4F4C9150E0E417F50708F4AF010E942E
:102470006436CE010E942B35182F8823D1F0E11449
:10248000F104B9F083E0CC0FDD1F8A95E1F7FE017E
:10249000E65FFE4F438150E0E416F50608F4A7011D
:1024A000C65FDE4F6C817D8169587D4FC6010E94F9
:1024B0006436812FCDB7DEB7E8E00C94D535A5E0C2
:1024C000B0E0E5E6F2E10C94B7358D83E62E5A01D3
:1024D000F22E68018091C4068A3028F080E02596AB
:1024E000EAE00C94D3358D818930C4F319828A8354
:1024F0006B832C8363E070E0CE0102960E947B0820
:102500008983E0923A01F0924D0110E000E030E062
:1025100020E044E050E0BE016F5F7F4F85E085DF43
:102520008823E1F24E2D50E030E020E0B50186E056
:102530007CDF882399F230E020E041E050E0BE01EA
:102540006B5F7F4F87E071DF882341F20F2D10E032
:10255000960150E040E070E060E088E066DFBFCFC9
:10256000A8E0B0E0E6EBF2E10C94B935C090DA02F5
:10257000D090DB02E090DC02F090DD020E94680760
:10258000DC01CB018C199D09AE09BF0911E084362D
:102590009105A105B10518F10E94170ADC01CB01D4
:1025A0000296A11DB11D89839A83AB83BC8310E081
:1025B00000E030E020E044E050E0BE016F5F7F4F7C
:1025C00082E033DF182F882351F00E946807609360
:1025D000DA027093DB028093DC029093DD02812F9C
:1025E0002896E8E00C94D5358F929F92AF92BF92D7
:1025F000EF92FF920F931F93CF93DF93CDB7DEB788
:102600002A970FB6F894DEBF0FBECDBF7B0101E065
:1026100010E09E012A5F3F4F50E040E070E060E034
:1026200080E003DF182F882309F44FC08090D60282
:102630009090D702A090D802B090D9020E9468076B
:102640006F83788789879A87DC01CB01881999097C
:10265000AA09BB0984369105A105B10548F465E0D6
:1026600070E088E792E00E947B089E81891769F1FB
:1026700005E010E09E012F5F3F4F50E040E070E02A
:1026800060E081E0D2DE082F65E070E088E792E04C
:102690000E947B0811E09E81981310E0102301F145
:1026A0000E9468076093D6027093D7028093D80285
:1026B0009093D90285E0FE013196A1EDB2E0019040
:1026C0000D928A95E1F711E00BC085E0E8E7F2E0B2
:1026D000DE01119601900D928A95E1F71111EACF72
:1026E00085E0E1EDF2E0D70101900D928A95E1F7E6
:1026F000812F2A960FB6F894DEBF0FBECDBFDF91B3
:10270000CF911F910F91FF90EF90BF90AF909F904E
:102710008F9008954F925F926F927F92AF92BF9287
:10272000CF92DF92EF92FF920F931F93CF93DF939D
:1027300000D000D000D0CDB7DEB78D837B01A42EB2
:10274000D22E3E83B02EC12EDB014D905D906D9058
:102750007C900E946807DC01CB0184199509A609C9
:10276000B70984369105A105B10510F4AA2051F1ED
:1027700010E000E030E020E04B2D5C2D6D2D7E81DF
:102780008D8153DE8983882339F00E946807F70121
:102790006083718382839383898126960FB6F89430
:1027A000DEBF0FBECDBFDF91CF911F910F91FF9084
:1027B000EF90DF90CF90BF90AF907F906F905F9041
:1027C0004F900895F1E0F983E7CFA1E0B0E0EBEEA0
:1027D000F3E10C94BD3580916503898320918C02CF
:1027E00090E041E02817190609F440E001E010E00C
:1027F0009E012F5F3F4F62EE72E084E08BDF2196F7
:10280000E4E00C94D935ABE0B0E0E9E0F4E10C94FD
:10281000BD3588E0ECEBF6E0DE01119601900D92FB
:102820008A95E1F780913B0390913C03A0913D0391
:1028300089879A87AB8741E08B85811101C040E091
:102840000BE010E09E012F5F3F4F6EED72E083E0E2
:1028500061DF811110923D032B96E4E00C94D93591
:10286000CF9388EC90E02091E300C22FCC1FCC27BF
:10287000CC1F27FD0CC0EFE3FCE93197F1F700C056
:102880000000019781F70E94000610926904C0932E
:10289000AF0457985F9A879A8F98F5E0FA95F1F709
:1028A000000089B187FB882780F987988F9A90EA82
:1028B0009A95F1F78093B00480930901882361F021
:1028C0001092940185E2809395018091AF0481116B
:1028D0000E944734CF91089585E280939401F3CF0D
:1028E000CF93DF93D82FC92F80914402811165C007
:1028F00040E150E060E472E08AE093E00E946D36CF
:1029000080910A0390910B03C297873B934068F034
:10291000ECE0F3E08EE0DF011D928A95E9F788ECA8
:1029200090E090930B0380930A0380910D038150F4
:10293000873018F081E080930D0380910E03909111
:102940000F03845691098532934130F08AE892E072
:1029500090930F0380930E0380911003815084366F
:1029600018F08AE080931003809112039091130372
:1029700001978E3F9F4FC0F08FE29AE09093130330
:102980008093120380E39AE09093150380931403DD
:102990008FE298E0909317038093160380E398E00A
:1029A0009093190380931803809111038F3F11F4C2
:1029B0001092110381E08093440280E1EAE0F3E0A9
:1029C000AD2FBC2F01900D928A95E1F78D2F9C2F92
:1029D000DF91CF910895A0E1B0E0E1EFF4E10C9434
:1029E000BF35CE0101967CDF89819A819C012253FB
:1029F0003109273B334010F088EC90E06096E2E02C
:102A00000C94DB3528E030E043E060E086E30C9492
:102A10002332CF93DF93D82FC62FF4DF8D2F80681A
:102A20000E9435328C2F0E9435328AEB8A95F1F75D
:102A300000C00E94653283E492E00197F1F700C084
:102A40000000DF91CF910895682F893708F068E77B
:102A50006093A40191E09093A5019091990199232D
:102A600049F06150811101C064E0683708F067E700
:102A70008FE0CFCF0895FB018081E6CF282F809192
:102A8000A401811101C085E0022E000C330B820FDE
:102A9000932F911D1816190614F081E090E0D4CF01
:102AA000ACE0B0E0E6E5F5E10C94BB354F83588728
:102AB00069877A878B879C8780919901882309F49D
:102AC00044C080913F02811106C060E080E5A1DF33
:102AD00081E080933F0296DF80E50E9435320AEB69
:102AE0000A95F1F700C00E944D320E944D320E94BB
:102AF0004D327C010E944D3260E0E62AF82A0E94A5
:102B00004D328C010E944D3220E0022B182B0E9486
:102B1000653225E02A95F1F70000F894B70180911D
:102B20009C0190919D010E948B0C90939D0180933C
:102B30009C01B80180919E0190919F010E948B0C95
:102B400090939F0180939E0178948091AF04882395
:102B500009F469C00E946807462F572FBC01809175
:102B6000400290914102A0914202B09143028A0139
:102B70009B01081B190B2A0B3B0BD901C8010897B5
:102B8000A105B10508F44FC04093400250934102A3
:102B900060934202709343028091A7019091A80133
:102BA000A091A901B091AA01481B590B6A0B7B0B9C
:102BB000423351056105710580F410929D01109218
:102BC0009C0110929F0110929E011092A1011092FF
:102BD000A0011092A3011092A2011091B004809163
:102BE000A601412FBE01695F7F4F882389F18CE9DF
:102BF00091E00E94D40B41E041279091A601809181
:102C00009901BE01695F7F4F981739F180EA91E021
:102C10000E94D40B86E0FE013796A1EBB1E0019053
:102C20000D928A95E1F786E0FE013796DE01119656
:102C300001900D928A95E1F729813A814B815C815F
:102C40006D817E8180E090E02C96E6E00C94D73593
:102C50008CE991E00E94250CCECF80EA91E00E94A1
:102C6000250CD8CFCF93C82FCDDE8C2F0E943532C4
:102C70008FE792E00197F1F700C000000E944D320B
:102C8000C82F95E09A95F1F700000E94653285E61D
:102C90008A95F1F7000010923F028C2FCF91089592
:102CA000CF93DF930E949231269AACDE6AE58AE3E5
:102CB000B0DE2FEF80E792E0215080409040E1F7B6
:102CC00000C0000082E0CEDF83E0CCDF84E0CADF1A
:102CD00085E0C8DF86E0C6DF60E080E19ADE80E064
:102CE000C1DFD82F81E0BEDFC82F0E946532D23409
:102CF00019F481E0C13009F080E08170809399017E
:102D0000882319F064E08FE084DE81E0DF91CF91C9
:102D100008951F920F920FB60F9211242F933F9395
:102D20004F935F936F937F938F939F93AF93BF93D3
:102D3000EF93FF938091E10082FF09C08091E20050
:102D400082FF05C08091E1008B7F8093E10080913C
:102D5000DA0080FF24C08091D80080FF20C08091DD
:102D6000DA008E7F8093DA008091D90080FFA9C0BD
:102D700080E189BD82E189BD09B400FEFDCF81E01B
:102D80008093690480915D04811109C00E9400064E
:102D90000E94A1068091E20084608093E20080910D
:102DA000E10080FF1AC08091E20080FF16C0809190
:102DB000E2008E7F8093E2008091E2008061809348
:102DC000E2008091D80080628093D80019BC85E031
:102DD0008093690483E0809393018091E10084FFF4
:102DE0002FC08091E20084FF2BC080E189BD82E189
:102DF00089BD09B400FEFDCF8091D8008F7D8093FE
:102E0000D8008091E1008F7E8093E1008091E20004
:102E10008F7E8093E2008091E20081608093E200E7
:102E200080916A04882309F452C084E08093690485
:102E300080916904843009F452C081E08093930149
:102E40008091E10083FF2CC08091E20083FF28C0C5
:102E50008091E100877F8093E10082E080936904A4
:102E600010926A048091E1008E7F8093E10080914E
:102E7000E2008E7F8093E2008091E2008061809387
:102E8000E20042E060E080E00E946F068091F00086
:102E900088608093F00081E0809393018093920199
:102EA000FF91EF91BF91AF919F918F917F916F9122
:102EB0005F914F913F912F910F900FBE0F901F90F8
:102EC000189519BC1092690410925D0468CF809126
:102ED000E30087FD02C081E0A9CF83E0A7CF82E0B5
:102EE000ADCF78941F921FB61F9211248F939F939A
:102EF000AF93BF938091590490915A04A0915B04C1
:102F0000B0915C040196A11DB11D8093590490936A
:102F10005A04A0935B04B0935C04BF91AF919F915E
:102F20008F911F901FBE1F9018952FB7F894809116
:102F3000590490915A04A0915B04B0915C042FBF96
:102F40000895F3DF2091500430915104232B21F098
:102F500080934C0490934D0420915204309153047B
:102F6000232B21F080934A0490934B048EE494E049
:102F70000C940508CF93C6E0EAE2F2E0DF018C2F63
:102F80001D928A95E9F790E080E00E94DD0790E0CD
:102F900080E00E94B50710926C020AD8EEE4F4E0DB
:102FA000DF011D92CA95E9F7109247041092480478
:102FB00010924904C6DFCF910895AAE2B0E0E3EE93
:102FC000F7E10C94BE358BE694E0FC01019620916C
:102FD000F100208324E083379207B9F780916C04D5
:102FE000893009F45BC0C8F4823009F4B8C083307A
:102FF00009F487C0813099F18091E80083FF3BC1DB
:1030000080916B0490916C049A3008F034C1E92FE0
:10301000F0E0EA53F94C0C9405368A3009F48EC07E
:103020008B3051F780916B04813231F780916F04BE
:1030300090917004892B01F78091E800877F80933D
:10304000E8000E94500681E090916D04911101C04A
:1030500080E08093920110925E048CDFCDCF80914E
:103060006B04813A49F68091E800877F8093E800FD
:1030700080916F0490917004892B61F468E08FE572
:1030800094E070E00E94FB068091E8008B778093CB
:10309000E800B2CF60E090E080E0F3CF80916B0475
:1030A000813209F0A9CF80916F04909170048D7FD7
:1030B000892B09F0A1CF8091E800877F8093E800F9
:1030C0008091E80082FF18C09091F3008091F20097
:1030D000029731F48091F100813011F0863021F4B3
:1030E0008091F100809391018091E8008B7780932B
:1030F000E8000E94500680CF809169048111E0CFE2
:103100007BCF80916B04813A09F076CF80916F0478
:1031100090917004892B09F06FCF8091E800877F30
:103120008093E8008091E80080FFFCCF80919201BD
:103130008093F1008091E8008E77D9CF80916B0465
:10314000813209F059CF8091E800877F8093E800B1
:103150000E94500680916E04809390014DCF809123
:103160006B04813A09F048CF8091E800877F809313
:10317000E8008091E80080FFFCCF80919001D8CFDB
:10318000803899F0823809F076C080916F048F7092
:10319000873008F070C08093E9008091EB0085FBD8
:1031A000882780F91092E90006C080916704909109
:1031B0006804911182609091E800977F9093E800F5
:1031C0008093F1001092F1008091E8008E77B7C1F2
:1031D000882309F4A4C1823009F04DC080916D04A8
:1031E0008111A8C180916F048F702FEF280F2630B6
:1031F00008F041C08093E9002091EB0020FF9AC1C4
:10320000933031F48091EB0080628093EB0092C1A7
:103210009091EB0090619093EB0021E030E001C0D1
:10322000220F8A95EAF72093EA001092EA00809133
:10323000EB008860EACF81111EC010916D041F77EA
:103240008091E3008078812B8093E3008091E800F7
:10325000877F8093E8000E9450068091E80080FFFD
:10326000FCCF8091E30080688093E30082E011113D
:1032700083E0809369048091E80083FF0AC0809115
:10328000E800877F8093E8008091EB008062809364
:10329000EB00AA96E3E00C94DA358058823058F7B8
:1032A00040916D0450916E044C3D83E05807A1F5A8
:1032B00083E08A838AE289834FB7F894DE0113960C
:1032C00020E03EE051E2E32FF0E050935700E4911C
:1032D00020FF03C0E295EF703F5FEF708E2F90E00C
:1032E000EA30C0F0C7968D939D932F5F243159F734
:1032F0004FBF8091E800877F8093E8006AE270E02A
:10330000CE0101960E94FB068091E8008B778093A6
:10331000E800B1CFC096E7CF80916F049091700420
:10332000252F33272330310509F44AC078F52130A1
:10333000310509F479C08BE590E0ECEAF6E0223043
:10334000310509F098CF2091E800277F2093E8000D
:1033500020917104309172048217930708F49C0144
:1033600040E02115310509F064C0411162C080912F
:10337000E80082FDC9CF80916904882329F2853055
:1033800019F28091E80083FFF2CFBECF21323105E0
:1033900009F43BC02232310509F06DCF833091052D
:1033A00008F069CFFC01EE0FFF1FE65EFD4F0190B4
:1033B000F081E02D895E9D4FDC018C9190E011C081
:1033C000CA019927413089F082309105B1F0892BEB
:1033D00009F051CFE1E4F7E0E4918E2F90E0E1E4D1
:1033E000F7E0009709F447CFAECFEFE2F7E0E491C2
:1033F0008E2F90E0EFE2F7E0F4CFE9E1F7E0E4911F
:103400008E2F90E0E9E1F7E0ECCF8330910508F0F2
:1034100032CF880F991FFC01E05EFD4F0190F081D3
:10342000E02D89E090E08FCF82E190E0E7E0F7E0E7
:103430008ACF80916904882309F466CF853009F426
:1034400063CF8091E80083FD5FCF8091E80082FD2B
:103450008ECF8091E80080FF84CF9091F30080911F
:10346000F2002115310519F08830910550F041E046
:10347000089709F040E08091E8008E778093E8009B
:1034800070CF44914093F10031962150310901965B
:10349000E8CF803809F0EFCE8091E800877F8093F5
:1034A000E80080916A048093F1008ECE8111E3CE12
:1034B00010916D04123008F0DECE8091E800877F15
:1034C0008093E80010936A040E945006112311F0C3
:1034D00084E005C08091E30087FDFACF81E080930E
:1034E000690442E061EC81E00E946F0642E261EC17
:1034F00084E00E946F0642E261EC82E00E946F0667
:1035000042E260EC83E00E946F068091690484309F
:1035100021F081E080939301AECE82E0FBCF8091D9
:103520006D04813009F0A7CE81E0933009F080E08E
:10353000809368041092E9008091E800877F80936F
:10354000E8000E94500697CE1F920F920FB60F927E
:1035500011242F933F934F935F936F937F938F9398
:103560009F93AF93BF93CF93DF93EF93FF93D0914C
:10357000E900DF708091EC00C82FC17080FDC0E8C9
:103580001092E9008091F000877F8093F00078949A
:1035900014DD1092E9008091F00088608093F000C3
:1035A000CD2BCF70C093E900FF91EF91DF91CF91C8
:1035B000BF91AF919F918F917F916F915F914F914B
:1035C0003F912F910F900FBE0F901F901895109262
:1035D0005E04D0DC2FEF84E39CE0215080409040DB
:1035E000E1F700C0000088E19AE00FB6F894A895D2
:1035F000809360000FBE90936000FFCF662309F4B4
:103600006FC08D3C31F40E944D0881958093510428
:1036100098CC8E3C19F40E944D08F8CF8F3C31F4C1
:103620000E944D08819580935004F2CF803D19F49B
:103630000E944D08F8CF893D29F40E942B08809301
:103640005204E6CF8A3D21F40E942B088195F7CFE2
:103650008B3D31F40E942B08819580935304D8CF81
:103660008C3D19F40E942B08F8CF9FE2980F9830F8
:1036700018F5282F215D330BA90121E030E001C0AE
:10368000220F4A95EAF790914F04922B90934F04A2
:10369000815D21E030E0A90102C0440F551F8A95E9
:1036A000E2F7CA0120912F03662309F492C0822B0E
:1036B00080932F030C94EE0E8D3D31F480914904DC
:1036C000816080934904A4CF8E3D21F48091490408
:1036D0008260F7CF8F3D19F5809149048460F1CF66
:1036E000909150048D3C59F42091510427FF0DC056
:1036F0001092510491110BC01092470408C08E3CE7
:10370000B1F42091510412169CF39923B1F09091D9
:10371000520420915304922B11F410924804482F24
:10372000415D550B4830510508F4B2CF71CF8F3C45
:1037300039F497FFEACF1092500490915104DACFF8
:10374000803D19F41916BCF3E0CF20915204893D55
:1037500029F41216D4F610925204D7CF8A3D19F4E8
:1037600027FFD3CFF8CF209153048B3D29F427FFB7
:10377000CCCF10925304C9CF8C3D19F41216CCF360
:10378000C4CF2FE2280F283088F4282F215D330B77
:10379000A90121E030E001C0220F4A95EAF7209507
:1037A00030914F04232320934F04AFCF209149043D
:1037B0002E7F8D3D59F0209149042D7F8E3D31F0B3
:1037C0008F3D09F0A2CF209149042B7F209349041B
:1037D0009CCF809582236CCF8823B1F19CEF980F0A
:1037E000913A70F4EAE2F2E09191891303C0DF01AB
:1037F00011971C9292E0E033F907B1F70C94D80FBF
:1038000090E2980F983050F4877091E001C0990FC2
:103810008A95EAF7892F0E94330BF0CF9BE5980F2A
:10382000933020F490E080E00C94DD0798E5980F49
:103830009B3120F490E080E00C94B50793E3980F5F
:10384000933110F460E0DACE08950F931F93CF9375
:10385000C82F882339F18CEF8C0F813AB0F50AE23A
:1038600012E0F8018191C81709F122E0E033F20774
:10387000C9F7EFEF80E0D8019D918D01C91781F064
:10388000EF3F19F4911101C0E82F8F5F863099F74F
:10389000EF3F31F00E2E000CFF0BE85DFD4FC283B1
:1038A0000E94D80FCF911F910F910895EAE2F2E0A4
:1038B0008191C81303C0DF0111971C9232E0E033FD
:1038C000F307B1F70E94D80FD4CF80E28C0F883075
:1038D00068F4C77021E030E001C0220FCA95EAF712
:1038E00080915E04822B80935E04DACF8BE58C0F8F
:1038F000833038F42C2F2452330BC9010E94DD078A
:10390000D1CFE8E5EC0FEB3150F4F0E0EE0FFF1F04
:10391000E054FE4F808191810E94B507C3CF83E3BD
:103920008C0F833108F0BECF61E08C2F67DEBACFF9
:10393000A5E0B0E0EEE9FCE10C94B33580916803BA
:10394000882309F41EC120916603309167033A83EE
:103950002983EBDA49815A81841B950BC29708F4BD
:10396000E6C0E3DA909367038093660384EB94E008
:103970009093BB068093BA068091AF04882309F424
:103980000FC185EF93E00E949A0F88EB0E94150FFC
:103990008091B0010E94550C0E94150F89EB0E9486
:1039A000150F8091AF010E94550C0E94150F82EFF8
:1039B00093E00E949A0F8091AD019091AE0154E086
:1039C000969587955A95E1F70E94550C0E94150F20
:1039D0008091AD010E94550C0E94150F8FEE93E06F
:1039E0000E949A0F87EB91E00E94241084E194E0FA
:1039F0000E949A0F8091B301082E000C990B0E942F
:103A00005C0C0E9424108091B401082E000C990BCC
:103A10000E945C0C0E9424108091B601082E000CBC
:103A2000990B0E945C0C0E9424108091B501082E15
:103A3000000C990B0E945C0C0E9424108CE094E016
:103A40000E949A0F8091A401811101C085E090E04D
:103A50000E945C0C01960E94241088E094E00E9471
:103A60009A0F8091AC01882331F0813009F48DC028
:103A70008FEF93E002C085E094E00E949A0F80915E
:103A8000A601882309F484C08DE194E00E949A0F76
:103A90008BEF93E00E949A0F8091AB01811101C0DE
:103AA00084E0805D0E94150F83E294E00E949A0FEB
:103AB00061E070E07A83698380913E03882309F492
:103AC0006AC090E0098002C0959587950A94E2F754
:103AD00080FF61C089810E94550C0E94150F898169
:103AE0009A8101969A838983089731F780E20E9430
:103AF000150F80E294E00E949A0F8091790188234B
:103B000009F44BC08DE194E00E949A0F80917B01F3
:103B100090917C016AE070E00E949B35CB010E948D
:103B20005C0C01960E94241080E30E94150F809186
:103B3000B2049091B304892B09F04EC080916503C3
:103B40008823F9F00E94680769837A838B839C83BA
:103B50008091610390916203A0916303B09164032B
:103B600029813A814B815C81281B390B4A0B5B0B05
:103B7000DA01C9018F3F9F4FAF4FBF4710F40E943A
:103B8000B2112596EEE00C94CF3582E094E075CF2B
:103B90008AE194E07BCF80EBA0CF8AE194E0B4CFC0
:103BA00090E99983A981A051AD8389E294E00E94B4
:103BB0009A0F8D81B82FBF5FBD830E94150F6D8056
:103BC00029816212F6CF80E00E94A70F3981305F11
:103BD0003983303C39F7ABCF80916803882309F4EF
:103BE000ADCF809160038111A9CF0E94CC112091AB
:103BF000B2043091B3042115310509F49FCF80E060
:103C000041E050E0082F10E0BA01082E02C0660F14
:103C1000771F0A94E2F77A83698362237323672B01
:103C200011F48F5FEFCF90915F0390FF97C0880FE3
:103C3000880F880F80938B0110928E01895F80938B
:103C40008C0183E080938F0124E630E047E050E070
:103C500069E871E088E70E941D33892B09F06ECF77
:103C6000A80125E0440F551F2A95E1F780915F03D5
:103C700080FF86C0EFE3F3E080E2DF011D928A95CA
:103C8000E9F703E112E08FE0E82E82E0F82E97E0FA
:103C9000992E88248394D801ED918D01D7016D91DF
:103CA0007D01640F752F711D6C547B4FF0E0E15C5A
:103CB000FC4F30E020E0792C721AA82C022E01C0B3
:103CC000AA0C0A94EAF76B0190E0D6018D916D0180
:103CD0008A21A72DA91BA770BA2E0A2E000CBB0B98
:103CE000682E01C0660CBA94EAF7B62CB195A1957E
:103CF000B109A770BB2701C08695AA95EAF7A62D42
:103D0000A82B80818A2B80839F5F9830F1F62F5FEC
:103D10003F4F31962830310571F622E00731120706
:103D200009F0B9CF04E610E020E230E04FE353E0C1
:103D300060E488E70E94A533892B09F0FFCE498112
:103D40005A81409550958091B2049091B3044823D4
:103D500059235093B3044093B204F0CE8295880F58
:103D6000807680938B019801369527953695279517
:103D700020938E01815E80938C0120938F0164CF0C
:103D80004C545B4F04E610E020E230E0D1CFA4E3D6
:103D9000B0E0EDECFEE10C94BB3580912C03833058
:103DA00009F08AC140912E0350912F036091300396
:103DB0007091310380913203909133030E9450152A
:103DC00020932E0330932F034093300350933103FD
:103DD000609332037093330386E0EEE2F3E0DE019A
:103DE000519601900D928A95E1F786E0FE01719659
:103DF000DE015D9601900D928A95E1F786E0FE0165
:103E00007D96DE01119601900D928A95E1F786E08C
:103E1000FE013196AEE2B3E001900D928A95E1F792
:103E200086E0EEE2F3E0DE01519601900D928A9574
:103E3000E1F786E0FE017196DE01939601900D9206
:103E40008A95E1F786E0FE01B396DE0111960190B6
:103E50000D928A95E1F786E0FE013196AEE2B3E07D
:103E600001900D928A95E1F786E0EEE2F3E0DE0143
:103E70009F9601900D928A95E1F786E0FE01BF962C
:103E8000DE01579601900D928A95E1F71BA9FCA8D7
:103E9000012F0F2909F4B3C0CE0101960E947014BE
:103EA0008B8184FD11950F2D85FD01951B8F0C8F46
:103EB00086E0FE017796DE01519601900D928A957B
:103EC000E1F71D8B0E8B86E0FE017196DE0199965F
:103ED00001900D928A95E1F71DA70EA786E0FE01DD
:103EE000B996DE01579601900D928A95E1F71B8FE6
:103EF0000C8F86E0FE017796AEE2B3E001900D9262
:103F00008A95E1F786E0EEE2F3E0DE015796019054
:103F10000D928A95E1F780917901882309F47DC09B
:103F2000E0907E01F0907F0100D820917D018E19F4
:103F30009F092817190608F070C0E0908001F090E2
:103F400081010E9495179C012E193F0979010E9459
:103F5000EB148E159F0508F060C0388D8A8D909106
:103F60008501298D920F9093850120918601820F02
:103F70008093860120918801020F0093880120918F
:103F80008701120F109387012091770197FD91957A
:103F90002917B8F187FD8195281798F107FD01953C
:103FA000201778F117FD119581E0211718F03111D4
:103FB00001C080E08170809382010E94B709109156
:103FC0003E03882309F445C01092850110928601B2
:103FD00010928701109288010E94951790937F019B
:103FE00080937E01109281011092800180917A016C
:103FF000111109C0882389F00E949B110EC010E0A6
:1040000055CF81E0D7CF212F30E0082E02C0359563
:1040100027950A94E2F720FFEFCF86E0EEE4F4E084
:10402000DE01579601900D928A95E1F780912F035A
:10403000988D892B80932F030E94EE0E811139C039
:1040400080912D03817010922D03E496E6E00C948C
:10405000D73580917A01111122C08111DECF0091F4
:104060007E0110917F010E949517801B910B20917A
:104070007B0130917C012817390778F680917A010D
:104080000E947A1110927F0110927E011092850198
:10409000109286011092870110928801BECF212FC5
:1040A00030E002C0359527958A95E2F720FFB5CF1D
:1040B000D6CF81E090E0C6CF80E0C7CF8091AF043B
:1040C000882311F00C9495170E94170ACB010895CC
:1040D0006091BC066695669570E041E050E088E727
:1040E00091E00E944A36892B19F481E080933C03C9
:1040F000E5DF909336038093350380913D03846020
:1041000080933D0308959091BC0690FF2CC093705E
:1041100081112AC094609093BC0680913D03816018
:1041200080933D03662321F08CEB96E00E948A0D7C
:104130006091BC066695669570E041E050E088E7C6
:1041400091E00E944A36892BB9F00E949E0881E0D6
:104150008093380320E04091BF066091BE068091B5
:10416000BD060C94AB0D0895893010F09062D3CF4A
:10417000880F880F982BCFCFABDFE9CF9091BC068B
:10418000969596958FEF890F913009F488E061E05C
:10419000BACF8091BC06869586958F5F893008F0EE
:1041A00081E061E0B0CFB0E0A0E0E9EDF0E20C9496
:1041B000B6357C01DC0114968C91882309F48BC1FF
:1041C00061E0C7010E942C11EC01809179018823E4
:1041D00041F1F7011581C032F2E5DF0708F091C027
:1041E000C11522E5D20708F0D5C0C11530E5D307C7
:1041F00008F07CC0C11580E4D80708F0DFC0C11505
:1042000090E2D90708F0E1C0C83ED10508F041C0EE
:10421000C03ED10508F443C08091840187FD10920F
:104220008401D093AE01C093AD01D7018D919C91D3
:1042300011979093B0018093AF01FE013497E5335D
:10424000F10508F0DBC0E357FE4FE49115968C9121
:1042500020EB811102C02E2FE0EBA7EBB1E090E044
:1042600080E03D913213C4C087569E4FDC015E96BC
:10427000EC93FE01D70115968C91882309F4D0C0E8
:10428000FE57E031F10508F0CBC0E053F94C0C9437
:104290000536CE019A9581159F4108F4BDCFF701EF
:1042A0008481882309F4B8CFC730FEE7DF0709F41B
:1042B0003FC0CE018D5C91094397D0F10E94B709B0
:1042C0008111AACF112359F080917A0120913E03E8
:1042D000211182C0882309F488C00E94C90E0E945F
:1042E0009517909381018093800196CFCE0125E0B0
:1042F000969587952A95E1F78F70992720917A01F5
:1043000013C0C038B2E5DB07B8F4C036E2E5DE071B
:1043100008F040C0C034F2E5DF0708F07DCF2091FF
:104320007A01CE018F7199272817190609F074CFE9
:10433000812F0E94A00970CFC03E22E5D20718F558
:10434000C03C32E5D30708F467CF20917A01CE0153
:104350008F7199272817190609F05ECF812F0E94C7
:10436000A009D70116968C911697807F803509F0A9
:1043700053CF15968C918823D9F080918401815078
:104380008093840149CFCE01805E9245809708F4E6
:1043900043CF85CF20917A01CE018F7199272817BD
:1043A000190609F039CF111137CF0E94AE0934CF69
:1043B0000E94AE09809184018F5FE2CFF701868170
:1043C000807F19F48D2F992797CFD70116968C915E
:1043D000807F09F421CF63CF30E0082E02C03595ED
:1043E00027950A94E2F720FF78CF0E947A1175CFC3
:1043F00001968630910509F034CF3BCFCE019A95D6
:10440000FE01FF2781159F4108F434CFC730EEE746
:10441000DE0709F02ECFD70115968C910E94C10BB3
:10442000F7019581992309F4EAC080915E048272B4
:10443000FE01E052F847EB30F10508F0E0C0E05231
:10444000F94C0C94053680E00E9424151092AB01C3
:1044500080E00E94E60E8AE892E00E94D80E2BC00F
:104460002091AB013091790180917B0190917C0189
:1044700062E370E00E949B358FEF860F9091AC0154
:1044800060911A034091A40120FB47F9522F5695E1
:104490005370330F330F532B282F220F220F220F6D
:1044A000522B660F660F6C739370692B70E08FE070
:1044B00090E00E94A13680913403877061F0D701AB
:1044C00015968C91882339F08091EE0282FF03C00B
:1044D00082E00E948511CDB7DEB7EBE00C94D235B7
:1044E00081E00E943E15E7CF8FEFFBCF8AE0F9CF46
:1044F00086EFF7CF9091A60181E089270E94C10B3A
:10450000DACF8091AB01811101C084E08F5F181672
:104510000CF081E0883008F087E08093AB01CBCFCE
:104520008091AB01811101C084E08150F0CF81E026
:104530008093AC01C0CF1092AC01BDCF82E0F8CF28
:104540009091790181E089270E94E60EB4CF809195
:104550007B0190917C01C296893EB3E09B0708F4F1
:104560007CCF88EE93E079CF80917B0190917C01A4
:10457000C2978436910508F070CF84E690E06DCF45
:104580008091BC0680FF03C00E94490E94CF8160D9
:104590008093BC0661E086958695B5DD8CCF882337
:1045A00021F0ECDD88CF8823E1F3F3DD84CF88238D
:1045B00029F00E94250E7FCF8823D9F30E942D0E6B
:1045C0007ACF882329F00E940F0E75CF8823D9F364
:1045D0000E941A0E70CF882329F00E94F90D6BCF2C
:1045E0008823D9F30E94040E66CF882329F00E9405
:1045F000350E61CF8823D9F30E943F0E5CCF9E0118
:10460000205E324520323105A8F4911127C0CF71C8
:1046100081E090E09C0102C0220F331FCA95E2F7AF
:10462000E901622F83E090E00E948F368C2F0E9478
:10463000AE0B41CF9923D1F180E0CB353CE7D307D6
:1046400051F1CC358CE7D807F9F081E0CA35ACE7F9
:10465000DA0709F1C130BCE7DB0731F1C330ECE721
:10466000DE07E1F0C115DC4709F510925E040E94F7
:10467000BA172FEF34E38CE0215030408040E1F74F
:1046800000C000000E9457078091EE0282FB88273D
:1046900080F991E089270E94FF110DCF6FEF7FEF26
:1046A00090E080E00E94A9360E94E71AF70100819D
:1046B0001181992309F44CC0C8010E94D110C82F60
:1046C000682FC8010E94780BB8018C2F0E94C5107A
:1046D0000E94480AD82FC92F982ED7011596BC9052
:1046E00015971696AC90A2948FE0A822809134037F
:1046F000877001F10B2DBB20F1F0892F807F803472
:1047000069F080E28D0F8830A8F0892F807E80329A
:1047100029F4B1E0BD1770F4AA2061F08091EE0297
:1047200082FF08C082E00E94851180913403877067
:1047300001E009F000E08C2F82958F70C82ED12CFB
:104740008C3008F063C0F601E551F94C0C94053645
:10475000C8010E94450BC82FB7CF1C2F1F70C07F08
:1047600011F01295107F8D2FBB20B9F0112369F045
:1047700090E29D0F983010F0D11109C080915E0435
:10478000182B10935E040E94D80F8D2F3EC080918D
:104790006C02182B10936C02F6CF1ED81123B1F1C6
:1047A000D05ED83010F0911004C0812F0E94330BDE
:1047B00006C0109580916C02182310936C020E9421
:1047C000D80F24C01C2F1F70C07FC03211F012956B
:1047D000107F992051F0E1E09E1609F45BC0BB20E8
:1047E00009F467C0AA2059F1D0CF8091EE0282FD72
:1047F00022C0BB20D1F0112339F080915E04182B28
:1048000010935E040E94D80F80E01FD8B8E0CB1A46
:10481000D108E4E0CE16D10408F076C10E94180851
:1048200060E0C7010E942C1156CE80E00E94EC1B74
:10483000112361F3BACFBB2099F0A11004C0812FDE
:104840000E941B10E3CFF1E0AF12E0CF80916B022A
:10485000912F98231917D1F2182B10936B02D6CFF2
:10486000A110D4CF812F0E94161090916B02812F3E
:10487000892329F0812F8095892380936B02809171
:104880004502912F982309F4C1CF10951823109356
:104890004502BCCFBB2029F025E02A1508F4B6CF8D
:1048A000CECF34E03A1508F4B1CF812F0E94161014
:1048B000ADCFAA20D1F3D93369F48FEF97EEA3E0FF
:1048C00081509040A040E1F700C000008D2F0E9471
:1048D000EC1B9CCFEFE1FEE43197F1F7F5CF8C2F85
:1048E00086958695837069F0813009F08FCF8D2F82
:1048F0009C2F9370B11002C080E090E00E94B50739
:1049000085CF8D2F9C2F9370B11002C080E090E076
:104910000E94DD077BCF6B2D8D2F0E94FE1A76CF74
:104920008C2F837091F5B11071CF4D2F4295469524
:104930004770440F440F8D2F8F70042E01C0880FD5
:104940000A94EAF72D2F2071D4FF07C02FE030E042
:1049500001C0220F4A95EAF72095C695C695C37007
:10496000C23071F0C33051F03091EC02C13029F007
:10497000822B83230E94AE0B49CF832B822BFACF4D
:10498000282B8091EC028227F5CF8695BB2011F071
:104990008C2F8170882309F439CF4D2F429546958D
:1049A0004770440F440F8D2F8F70042E01C0880F65
:1049B0000A94EAF72D2F2071D4FF07C02FE030E0D2
:1049C00001C0220F4A95EAF72095C695C695C37097
:1049D000C23071F0C33051F030913E03C13029F044
:1049E000822B83230E946A1111CF832B822BFACF53
:1049F000282B80913E038227F5CFCF70BB2029F072
:104A00008C2F0E949B118D2F1BCF8D2F0E94161073
:104A10008C2F0E947A11FACE8D2FF2EF9F16A9F1FA
:104A2000F91570F020EF9216D1F031EF931691F056
:104A3000BB2009F455C0A110A8CE8C2F8F7129C0BE
:104A400093EF991649F1A4EF9A12F2CF9091EE02EA
:104A500092FD2DC08C2F8F71BB20D9F21AC0BB20C4
:104A600079F0B4E0BA1508F4D1CECF7181E090E0CE
:104A700001C0880FCA95EAF790913E038927B2CF0B
:104A8000E5E0EA1508F4C2CEF0CF8C2F8F71B1109B
:104A9000C0CF0E949B11BACE80E0BB2009F4A2CF08
:104AA000CF7181E001C0880FCA95EAF79BCFBB2088
:104AB00061F08C2F8F7192FFECCFF8E08F9F900107
:104AC0001124236020933403E4CF81E00E948511F8
:104AD00021E02A1508F09ACE82E00E94851196CE38
:104AE000AA2079F0893341F43FEF87EE93E031500B
:104AF00080409040E1F7E8CEAFE1BEE41197F1F7D6
:104B0000E3CE8C2F8F7185CF002309F489CE80915D
:104B1000340380FD85CED70115961C928695869527
:104B200086950E949B11C7013EDB809134038695D8
:104B3000869586950E947A1173CEB0E0A0E0E3EAF4
:104B4000F5E20C94BA3580916A02807F09F050C07A
:104B500080916902882309F44BC0E091AC0487E09E
:104B6000D82E809173048E1709F442C00E2F10E0E6
:104B7000ED9DF0011124EC58FB4F84818823E9F16D
:104B8000D09EE001D19ED00D1124FE01EC58FB4FC8
:104B9000918180916502981330C090818091640268
:104BA00098132BC08581811128C0E280F380809109
:104BB000660290916702E81AF90A60E084E692E0E2
:104BC0000E942C110E94EB14E816F906B0F48091B3
:104BD0006A028F70806180936A02C658DB4F8881B9
:104BE0008F708061888384E692E0DDDA0E943B0B5F
:104BF000CDB7DEB7E7E00C94D635F8013196E77013
:104C0000B0CFA6E1B0E0E7E0F6E20C94B2358C015B
:104C100086E0F801DE01519601900D928A95E1F748
:104C2000D8011496FC9014971596EC9084E6882E83
:104C300082E0982E80916802811128C0F11003C093
:104C4000FF24F3941BC0EE20F1F0C8010E9406116E
:104C5000F82E8823C1F087E0F801A4E6B2E00190C5
:104C60000D928A95E1F780916802813031F480914C
:104C70006402909165020E94FA105FDF8F2D6696A4
:104C8000EFE00C94CE35C8018EDADACFF801A080BF
:104C90005180C280D38060E084E692E00E942C11B3
:104CA000B09069028091660290916702BB2009F47E
:104CB000C6C03601681A790A60E084E692E00E9474
:104CC0002C110E94EB146816790608F099C0FF2099
:104CD00009F4B6CF80916A02382F307F20916502A7
:104CE000D80111969C91119731114CC0FE2C2913BB
:104CF00013C0209164029C9129130EC0E1101CC1C5
:104D00008F70806180936A0284E692E04CDA809131
:104D10006A02F8018683B2CFE1100EC1652D8A2D9B
:104D20000E94E205882309F4E6C0CE0101960E94A4
:104D300070148B8182FFDFC084E692E034DA87E072
:104D4000E4E6F2E0DF011D928A95E9F7F12C96CFB7
:104D50002A5F2F70223070F0C80125DAEB2CEAC0F0
:104D6000992319F0882309F4E5C0805E883008F49F
:104D7000E1C0F2CF803F08F4DDC0815F833008F4EA
:104D8000D9C0EACF291315C0209164029C91291340
:104D900010C0E1100EC016968C93C80104DA87E0AB
:104DA000F801A4E6B2E001900D928A95E1F7FB2CA0
:104DB00065CFC8010E940611882309F464CFEE2054
:104DC00009F461CF80916A02803280F02091640200
:104DD000309165023A832983DC82CB82909168020C
:104DE0009D831E828F83CE010196DDD987E0F80175
:104DF000A4E6B2E001900D928A95E1F79EDE20CF05
:104E000080916A02982F907F09F496CFFF2009F4D1
:104E100017CF20916502F80191812913CACF209103
:104E2000640290812913C5CFE110C3CF8683C801E6
:104E3000BAD987E0D4011D928A95E9F7B8CF560117
:104E4000A81AB90A60E084E692E00E942C110E9440
:104E5000EB14A816B90608F048C0FF2009F4F0CEFC
:104E6000FE2CEE2009F40FCF90916502F8018181AC
:104E700098132EC0909164028081981329C080916C
:104E8000660290916702C81AD90AF8ECCF16D104CD
:104E9000B0F480916A0280FD12C0982F907F79F063
:104EA000D80116968C931697903F39F0982F907FE3
:104EB000905F8F70892B16968C93C80174D987E008
:104EC000F801A4E6B2E001900D928A95E1F7D6CE02
:104ED000C8010E940611811189CF80916A02816008
:104EE00080936A02C8015FD9C9CE87E0F4011192AC
:104EF0008A95E9F72BCF652D8A2D0E94E205E82ED1
:104F00008111BCCEA98A5A8A89899A890E94FA108D
:104F1000292F22952F70903408F01ACF9F702230DD
:104F200008F41ECF992309F420CFF8019681907FD1
:104F300009F01BCFFE2CA2CE80916A028160809383
:104F40006A0204CFABE1B0E0E8EAF7E20C94BE35C8
:104F50004E8B5F8B688F798F8A8F9B8F9111109208
:104F60006C021D8A86E0FE017696DE011F96019096
:104F70000D928A95E1F78B89882351F061E0CE018B
:104F80000F960E942C1161E0CE010F960E942C1109
:104F900087E0FE013F96DE01189601900D928A95FA
:104FA000E1F7CE0108962DDE81110CC087E0FE01ED
:104FB0003896DE01119601900D928A95E1F74C85A5
:104FC00041110BC017E08091AC04909173048913D8
:104FD00034C06B96E3E00C94DA352091730430E032
:104FE000C9010196877099275091AC04581719068A
:104FF000A1F04D8397E0929FD001939FB00D1124B3
:10500000AC58BB4FFE01319601900D929A95E1F795
:10501000809373040E943B0BD5CF10925E040E94D4
:10502000BA17109273041092AC0487E0E4E6F2E041
:10503000DF011D928A95E9F7C5CF819FC001112438
:105040008C589B4FDEDD882321F28091AC0490E0E8
:105050000196877099278093AC04B5CFA6E0B0E0A5
:10506000E4E3F8E20C94BD350E9495178C01809121
:105070007502909176028017910779F019821A8251
:105080000E949517682F49815A81792F80E090E01E
:1050900059DF10937602009375022696E4E00C9493
:1050A000D935AFE0B0E0E7E5F8E20C94B1351A820B
:1050B0001982FE01339688E0DF011D928A95E9F797
:1050C0008E010F5F1F4F580190E0C92E91E0D92E3D
:1050D000280166246394712CF60181916F010E946E
:1050E0009E0C00C085E0882E81E0982EF401F12C02
:1050F000E12C2191A22FA295AF70B0E090968C91F7
:1051000090E02F7002C0959587952A95E2F780FD73
:105110000AC0D5018C9193010E2C01C0220F0A9474
:10512000EAF7822B8C93BFEFEB1AFB0A24E0E2161E
:10513000F104F9F6F601319780810E94B30C80EA00
:105140008A95F1F79FEFA91AB90AA5E0CA16A1E05E
:10515000DA0611F6DD24D394F40181914F010E9407
:105160009E0C00C03D2D0E2C01C0330F0A94EAF7AF
:10517000F80140E051E0DA012D91AD01822F8295D6
:105180008F7090E0DC0190968C9190E02F7002C0BF
:10519000959587952A95E2F780FD03C08081832B42
:1051A00080833196B1E045305B0729F7F4013197F0
:1051B00080810E94B30CE0EAEA95F1F7FFEFEF1A65
:1051C000FF0A28E0E216F10439F6E5ECF6E0980172
:1051D0002B5F3F4FF12CD8018D918D019191891753
:1051E00029F0DF0111978C93FF24F39420173107E6
:1051F00091F70091EB0210E001501D4FFF2009F4E0
:1052000094C081E0809332020E94951790933102FE
:1052100080933002E090AF04E110BEC085E0F80159
:10522000A8E7B2E001900D928A95E1F765E070E0A1
:1052300088E792E00E947B088093770280907D024D
:1052400090907E02A0907F02B09080028091330205
:1052500090913402A0913502B091360288169906D9
:10526000AA06BB06B1F08092330290923402A0925B
:105270003502B09236020E946807861A970AA80A79
:10528000B90A8092E6029092E702A092E802B092F8
:10529000E9028BE0E1E8F2E0D20101900D928A95FB
:1052A000E1F78091810286958695E0908202D09008
:1052B0008302C090840200918A0210918B021092A6
:1052C0008B02112339F110FF11C029812370982F0F
:1052D000990F990F292B29839091BC0620FF49C073
:1052E00091609093BC0660E00E94832011FF06C08D
:1052F00020E04C2D6D2D8E2D0E94AB0D12FF05C0B0
:10530000002309F443C00E94682013FF03C081E01A
:105310008093380380918C028823D9F10E94CC11AC
:105320008F2D2F96E0E10C94CD35809132028823A9
:1053300009F470CFC0903002D09031020E949517CE
:105340008C199D09059708F465CF45E050E065ECA0
:1053500076E0C8010E945736892B41F085E0E5ECE4
:10536000F6E0D80101900D928A95E1F71092320291
:1053700051CF9E7F9093BC060E949E0880913D0372
:10538000816080933D030E94A508B0CF0E949E08D3
:10539000BCCF0E94B211C4CFEAECF6E085E0DF0199
:1053A0001D928A95E9F78091C4068A30E8F564EF8A
:1053B00072E1C8010E94CA0C882309F454C060EB52
:1053C00072E1C8010E94CA0C882309F44CC063E052
:1053D00074E1C8010E94CA0C882309F444C065EE38
:1053E00073E1C8010E94CA0C8823E9F11092C40637
:1053F00081E0809339020091EA0210E001501D4FD4
:1054000045E050E06AEC76E0C8010E945736892BEF
:1054100009F486CF85E0EAECF6E0D80101900D9220
:105420008A95E1F7FE2C7CCFC0903702D0903802ED
:105430000E9495178C199D09843F914008F0B7CFC1
:1054400080913902882309F46BCF10923902E091E0
:10545000EA02F0E0E150FD4F95E0DF011D929A95E0
:10546000E9F7F82E5DCF8091C4068F3F31F08F5F52
:105470008093C4068A3008F4BBCF0E94951790939E
:10548000380280933702DCCF1F921FB61F9211247F
:105490008F939F93AF93BF9380915804811113C052
:1054A0008091590490915A04A0915B04B0915C04DE
:1054B0004196A11DB11D8093590490935A04A09365
:1054C0005B04B0935C04BF91AF919F918F911F904B
:1054D0001FBE1F901895CF93DF93EC010E94951784
:1054E0008C1B9D0BDF91CF910895CDB7DEB7C555CD
:1054F000D1090FB6F894DEBF0FBECDBF85B7806867
:1055000085BF85B7806885BF84B7877F84BF0FB6A6
:10551000F894A89580916000886180936000109253
:1055200060000FBE80E890E00FB6F89480936100B1
:10553000909361000FBE81E0809393018AEE99E021
:1055400090932702809326020E9400060E94A106E3
:105550008091E20084608093E200789480916904F5
:105560008823A1F01091E9001F709091EC00892F21
:10557000817090FD80E8182B1092E9008091E8007E
:1055800083FD0E94DD171F701093E90082E084BD47
:1055900093E095BD9AEF97BD80936E001092E6025E
:1055A0001092E7021092E8021092E9020E94301471
:1055B000809109010E943014809105010E94B30C72
:1055C000809106010E94B30C809107010E94B30CE8
:1055D000809108010E94B30C00E011E0D8018D9188
:1055E0008D010E94B30CB1E005301B07B9F7809123
:1055F000090195E0811190E09093EB0285E0891B11
:105600008093EA028091AF04811102C00E944A3463
:10561000E5ECF6E08FEC96E0AFEFB2E011921D9270
:105620008E179F07D9F790E080E00E948A36833E6C
:105630009E4F59F163EE7EEF90E080E00E94A93624
:1056400060E082E090E00E948F3681E08093EC027F
:1056500061E083E090E00E948F3660E074E184E0D6
:1056600090E00E94A9360E94570E0E94910E40E0E1
:1056700050E0BA018FE090E00E94A13640E050E097
:10568000BA0183E190E00E94A13682E090E00E949E
:105690007D368093F00284E090E00E948A369093F9
:1056A000EE028093ED0283E090E00E947D360E943E
:1056B000AE0B80913E030E94B10B182F0E94541133
:1056C000982F81E0191380E00E94C10B8091AF04F4
:1056D000882309F4AFC180E080935F0380E8809362
:1056E000B10475D76BE070E089ED91E00E94A511DF
:1056F000882309F445C080915F0365E070E081FD77
:105700009BC184ED91E00E94A5118823C9F16DE051
:1057100070E082EC91E00E94A511882389F10E943B
:10572000680765966CAF7DAF8EAF9FAF6597DC0164
:10573000CB01805A9541AF4FBF4F80936103909347
:105740006203A0936303B0936403E4EBF4E080E0AE
:1057500092E0DF018C011D9201501040E1F7F093BF
:10576000BB06E093BA068FEF9FEF9093B30480934C
:10577000B20481E080936803809365031092600314
:105780008091EF0281113AC08CEB96E00E943B10B1
:1057900080913D03836080933D038091BC068C7FA4
:1057A00071F40E94570E8CEB96E00E943B108091A2
:1057B000BC06982F9C7F83708460992331F0809180
:1057C000BC06843220F0837080628093BC06809196
:1057D000BF06893718F088E78093BF060E949E08AD
:1057E0000E949C088091BC0680FF05C060E0869501
:1057F00086950E94832081E08093EF028091AF0420
:10580000811102C00E944A340E945016882309F474
:1058100016C183E080932C038091AF0481112EC0C8
:1058200081ED99E090935901809358012AE130E08D
:1058300030935401209353018AE390E090935701F1
:105840008093560146ED59E0509361014093600109
:1058500030935C0120935B0190935F0180935E0124
:105860004BE355E150936901409368013093640123
:1058700020936301909367018093660190E080E03C
:105880000E948A36833E9E4FC9F58FE090E00E94C9
:105890008536F62E172F082F862F8F770E94241516
:1058A000FF1CFF24FF1C612F6370660FF62AF09225
:1058B000AB0112FB882780F90E94E60E812F887FBA
:1058C00009F4BFC0169516951695212F30E02F5F6D
:1058D0003F4F42E3429FC001439F900D11240E941D
:1058E000D80E802F83708093AC01802F869586958B
:1058F0008F708B3008F08AE080931A030E94AD0508
:10590000CE0101960E9470148C8190917A018917C2
:1059100021F080937A010E94C90E8D819E810E94A0
:10592000D80E8B8186FB882780F991E089270E9419
:10593000E60E8F81809377018AE691E09093AE0422
:105940008093AD048FEF92E02AE0280F66962FAF88
:1059500066975E0133E0A30EB11CFF24F39480919F
:10596000690410E402E1853009F4A8C09ADB01EF74
:1059700012E068EF662E61E0762EB3012FEF32E081
:10598000F8019191D9018D919D01DB014D91BD01EE
:105990008423B2E0EB3FFB0709F49CC0981789F31E
:1059A000E091AF046296EFAF629748EFC42E41E0FA
:1059B000D42E5FEF852E52E0952E512CD401ED9020
:1059C0004D01F60181916F01E822D8012D908D01E2
:1059D0002E1439F12E24412C33243394822D83212B
:1059E000C1F06296BFAD6297BB2399F049825A829B
:1059F0000E9495179C838B83FD8291E08E2D8321DD
:105A000009F490E09E8349815A816B817C818D816C
:105A100099DA4394330CE8E04E12E0CFF801319765
:105A2000E0825394FAE05F12C9CF0E94170AEE2475
:105A3000E39454C082E050CE8FEC91E064CE81E0DC
:105A4000E9CE8AE892E04BCF80916904843039F145
:105A50000E94B2110E94C71E1092580448E150E003
:105A60000FB6F894A895409360000FBE10936000A5
:105A700083B7817F846083BF83B7816083BF78945D
:105A8000889583B78E7F83BF0FB6F894A8958091D1
:105A90006000886180936000109260000FBE01DB9F
:105AA000A8EFB1E0EFEFF2E081919D91892309F039
:105AB00011C466965FAD66975E13F6CF8091690458
:105AC000853009F4C1CF10925E040E94BA170E947B
:105AD00018084CCF981364CFC1DAE12C80913C03B5
