:100000000AC4000025C4000023C400000C94EC3294
:100010001FC400001DC400001BC4000019C4000060
:1000200017C4000015C400000C94A7130C94C31748
:100030000C94A5280DC400000BC4000009C40000E6
:1000400007C4000005C4000003C4000001C4000090
:10005000FFC300000C948F14FBC30000F9C3000021
:10006000F7C30000F5C30000F3C30000F1C30000B4
:10007000EFC30000EDC30000EBC30000E9C30000C4
:10008000E7C30000E5C30000E3C30000E1C30000D4
:10009000DFC30000DDC30000DBC30000D9C30000E4
:1000A000D7C30000D5C30000D3C300000501090277
:1000B000A10185020901A1000509190129081500FE
:1000C0002501950875018102050109300931158165
:1000D000257F95027508810609381581257F9501D0
:1000E00075088106050C0A38021581257F95017572
:1000F000088106C0C005010980A101850319012AF4
:10010000B700150126B700950175108100C0050CD8
:100110000901A101850419012AA002150126A002E6
:10012000950175108100C00660FF0961A101096297
:10013000150026FF00952075088102096315002629
:10014000FF00952075089102C005010906A101056F
:100150000719E029E7150025019508750181029529
:1001600001750881010507190029FF150026FF0008
:100170009506750881000508190129051500250156
:10018000950575019102950175039101C061626346
:100190006465666768696A6B6C6D6E6F70717273A7
:1001A0007475767778797A31323334353637383931
:1001B00030524542545F2D3D5B5D5C233B27602CF4
:1001C0002E2F00DA0281FFD9F1DB20A4A62EAF008A
:1001D000A0C0D30000A1C8D30000AED580A81F40A6
:1001E0008D14200000AF00AE202000BABB004B658C
:1001F0007920B10020C0C100BEBF00484F00565456
:10020000003030200020202020B1BCBD0042616CB5
:100210006CB100B4B500B2B300C2C3004CB6B77243
:10022000B1002020004C00130012000C0018001C2C
:100230000087022D000F000E000D000B0035023864
:1002400000370036001000110000002F43E300913A
:10025000212A422841290014001A0008001500171D
:10026000002B0004001600070009000A00E1001D31
:10027000411B000600190005000000E300E20091A8
:10028000432C009042010027002600250024002373
:1002900000000043004200410040003F0000000019
:1002A000008900310231003300000000000100012C
:1002B000000100010001001E001F0020002100229B
:1002C0000001003A003B003C003D003E0001000000
:1002D0000000003002300034000000010001000185
:1002E0000001000100000000000000D30000000039
:1002F0000000002352D2005200D100000000000094
:10030000004F0051005000000000000000370001C5
:100310000001000100010054005F00600061005610
:1003200000010055005C005D005E005700010062A6
:100330000059005A005B0063000000010001000149
:10034000000100010001005600610060005F0054E0
:1003500000000057005E005D005C00550000006377
:10036000005B005A005900620000000000007E019E
:10037000000100010001000000000000000000007A
:10038000000100000000000000000000000100006B
:10039000000000000000000000000001000100015A
:1003A000000100010009025B00030100A0FA09043A
:1003B00000000103010100092111010F0122440085
:1003C0000705810308000109040100020300000081
:1003D00009211101000122220007058203200001EA
:1003E00007050303200001090402000103000000C7
:1003F000092111010F01227B000705840320000160
:100400001201000200000008575900040001010217
:10041000000114034B0065007900620061006C006C
:100420006C00340034000000100359006F007700A6
:100430006B00650065007300000004030904000000
:100440000000000000002F0000000007000700006F
:10045000123F123F1200242A7F2A120036091E245E
:100460001B00182629122800000007000000001EAB
:10047000214000000040211E000014083E08140026
:1004800008083E080800000030700000080808084E
:10049000080000003030000020100C0201001E296E
:1004A00025231E0000223F2000002231292926009A
:1004B000122125251A001814123F10001725252592
:1004C00018001E25252518000131090503001A25ED
:1004D00025251A00062929291E00000033330000B3
:1004E00000003373000008141422220014141414A2
:1004F00014002222141408000201290502003E59AA
:10050000555D3E003816111638003F2525251A0086
:100510001E21212112003F2121211E003F252525DA
:1005200021003F09090901001E2121291A003F0469
:1005300004043F0000213F210000102020201F0064
:100540003F040C1221003F20202020003F02040223
:100550003F003F020C103F001E2121211E003F09D9
:10056000090906001E2129112E003F09091926003C
:1005700012252529120001013F0101001F20202022
:100580001F000718201807000F300C300F00211231
:100590000C12210003043804030031292523210013
:1005A000007F4141000001020C1020000041417F0A
:1005B00000000402010204004040404040000001ED
:1005C00003040000102A2A2A3C003F2422221C0097
:1005D0001C22222224001C2222243F001C2A2A2A18
:1005E0000C0000043E0505000C5252543E003F082A
:1005F0000404380000003D0000002040403D0000A1
:100600003F080814220000013F2000003E023C0287
:100610003C003E0402023C001C2222221C007E14EC
:1006200022221C001C2222147E003E04020204002E
:10063000242A2A2A120000021F2200001E20201055
:100640003E000618201806000E300C300E00221452
:10065000081422000E5050483E0022322A26220062
:1006600008087741410000007F0000004141770801
:100670000800180408100C00000000000000000032
:1006800000000000000000000000C0F0F88C86C6EA
:10069000E7FFFFFFFFFFFFFEFCFCF8E0800000002B
:1006A000F0F0F00000C0E0F070700000000000000A
:1006B000000000000000000000000000000000003A
:1006C000F8F8F80000000000000000000000000042
:1006D000000000000000F8F8F80000F8F8F800004A
:1006E00000000080E07078686C64C7C7C7C7C7C7E0
:1006F000E73F1F0F3FFFFFFFFFFFFF3F0F0000001F
:10070000FFFFFF1E3FFFF3E1800000F8FCFE3636DE
:10071000363EBCB8000E3EFEF080F0FE3E0E0000FD
:10072000FFFFFF060606FEFEFC7000E6F6F6363614
:10073000FEFEFC000000FFFFFF0000FFFFFF0000C7
:1007400000003C7F6360E0C0C0C0C0C0C0C0C0FF4C
:10075000FFC06030180F0303030100000000000019
:100760000303030000000303030300010303030367
:1007700003030301007070393F1F070100000000F0
:100780000103030303030303010000010303030345
:100790000303010000000303030000030303001030
:1007A000101000000000550000003E635D5D637F97
:1007B000417B77413E00001C22221C003E0A003E85
:1007C0000A00322A3C0026281E001C2A2C000000A9
:1007D0003F09360000001E212100000000003F08F4
:1007E00037001E2121001E2121003F090600213F64
:1007F0002100222519001E2121003F0936003F213A
:100800001E00213F21000F300F003E093E003F0631
:100810003F003F20200011241FBECFEFDAE0DEBFF3
:10082000CDBF12E0A0E0B1E0E8E2FBE602C0059037
:100830000D92AA30B107D9F725E0AAE0B2E001C0D5
:100840001D92AD3DB207E1F70E94D6280C945535B4
:10085000D7CBE091CE03F091CF03309739F00284EB
:10086000F385E02D309711F060E209950895982FF7
:10087000E091CD034091940357E0E41302C080E07F
:1008800008952E2F30E05E9FF0011124EB56FC4FAF
:100890008181681306C08081981303C0858181110E
:1008A000EFCFF9013196E770E8CFE8EDF0E0808115
:1008B0008E7F80831092E2001092DA001092E100A5
:1008C000A0EEB0E08C9181608C9380818F778083E3
:1008D00019BCA7EDB0E08C918E7F8C9380818F7EC8
:1008E000808310927E0308952091E4003091E5000A
:1008F00095E6A9012091EC00822F817020FF06C0AF
:100900008091E80080FF06C080E008952091E80013
:1009100022FD1AC080918A03882389F0853089F0EE
:100920008091EB0085FD0FC02091E4003091E5003F
:1009300042175307F9F29150E1F684E0089582E0FE
:10094000089583E0089581E0089580918C0387FFE6
:1009500013C08091E80082FF06C08091E8008B7789
:100960008093E80004C080918A038111F2CF08953A
:1009700080918A038823D9F38091E80080FFF8CF23
:100980008091E8008E77ECCF982F9093E900242F88
:10099000762F50E0891731F07091EC002091ED0036
:1009A0005091F00021FD07C09F5F973071F7809351
:1009B000E90081E008953091EB003E7F3093EB0039
:1009C0003091ED003D7F3093ED003091EB003160D0
:1009D0003093EB007093EC002093ED005093F00007
:1009E0002091EE0027FDE0CF80E00895B0E0A0E088
:1009F000ECEFF4E00C941B34C8EDD0E088818F7EDE
:100A00008883E7EDF0E080818160808384E082BFAD
:100A100081E080937E0388818E7F888302EE10E0E0
:100A2000F80110821092DA0081EEC82ED12CF60166
:100A3000108288818F778883888180688883888105
:100A40008F7D888319BC10928A0310928B031092B9
:100A500089031092880390EEE92EF12CF701808132
:100A60008B7F808388818160888342E060E080E0C2
:100A70008BDFF60180818E7F8083F8018081816029
:100A80008083808188608083F70180818E7F80836E
:100A9000888180618883CDB7DEB7E8E00C94373475
:100AA000FC01CB0120919203309193032617370765
:100AB00090F0009729F42091E8002E772093E80029
:100AC00040E0009751F4411108C08091E80082FF96
:100AD00031C080E00895C901F3CF20918A03222319
:100AE000A9F12530A9F12091E80023FD2DC0209126
:100AF000E80022FDEACF2091E80020FFE2CF30910C
:100B0000F3002091F200009719F02830310558F0D9
:100B100041E02830310509F040E02091E8002E77CF
:100B20002093E800CECF41914093F10001972F5FD1
:100B30003F4FE9CF80918A03882341F0853041F00F
:100B40008091E80083FFC1CF81E0089582E008959D
:100B500083E00895089587E797E7909301088093CD
:100B6000000888E19AE00FB6F894A8958093600099
:100B70000FBE90936000FFCFA4E0B0E0E2ECF5E0A0
:100B80000C9421348FB7F89420917A0330917B0331
:100B900040917C0350917D0329833A834B835C838E
:100BA0008FBF69817A818B819C812496E2E00C94CD
:100BB0003D348091A3010895DC01FB0111969C91C5
:100BC00011978181981322C012968C9112978823D5
:100BD00019F0928189131AC013968C911397882368
:100BE00019F09381891312C015968C91159788235B
:100BF00019F0958189130AC014969C91992321F0CC
:100C000081E02481291303C080E001C081E081706C
:100C10000895A3E0B0E0EFE0F6E00C9421349C01ED
:100C2000809177039091780382179307B1F0309306
:100C3000780320937703E091CE03F091CF033097B0
:100C400061F00084F185E02D309739F084E08983EC
:100C50003B832A83CE01019609952396E2E00C940A
:100C60003D34A3E0B0E0E7E3F6E00C9421349C01CE
:100C7000809175039091760382179307B1F03093BA
:100C8000760320937503E091CE03F091CF03309764
:100C900061F00084F185E02D309739F083E089839D
:100CA0003B832A83CE01019609952396E2E00C94BA
:100CB0003D34DC01E091CE03F091CF03309759F041
:100CC00086819781892B39F082E08C930680F781A9
:100CD000E02DCD010995089580917303882369F073
:100CE000E091CE03F091CF03309739F00190F0817D
:100CF000E02D309711F00995089580E008958091D6
:100D0000680380FD16C081FD16C082FD16C080916B
:100D100067038823A1F0883280F428E0829FC00115
:100D2000112468E270E00E946334862F672B39F04B
:100D3000089582E0089584E0089588E0089581E0B0
:100D400008958091680380FD14C081FD14C082FD68
:100D500016C080916603882381F08E3180F420E5EF
:100D6000829FC00111246EE170E00E946334862FDF
:100D7000089584E1089588E2089588E0089580E563
:100D80000895282F35EB2303C001112497FF04C0D9
:100D900080589109892F089580589F4FFBCFFC01FF
:100DA000680F791F8FEF91E32191822728E030E0CF
:100DB00087FF09C0880F892721503109C9F7E61735
:100DC000F70791F70895880FF7CF90919601882340
:100DD00041F09F5F909396011092930110929201BF
:100DE00008959150F7CFEBE8F1E0828591E08927F3
:100DF000828710861782089580919401811114C012
:100E000080919601811110C08091950181110CC0D3
:100E100090913A0396959695969581E020918C0154
:100E2000921380E08170089581E0FCCF809166018B
:100E3000F90180830895CF93DF93E6E6F1E08381A3
:100E40009481A581B681E90188839983AA83BB83B4
:100E50001482138216821582DF91CF91089580E06B
:100E6000089563E070E087E992E099DF909196023F
:100E7000891318C0E0919702EB30A4F488E0E802EF
:100E8000F0011124EF5FFE4F0680F781E02D3097CF
:100E900049F02AEB32E0409199026AE972E08091D0
:100EA000980209950895E1E0F1E0ACE8B2E01C9603
:100EB0008C911C9780A71D968C9183AF0895F89410
:100EC000E82FE295EF70F0E041A18F7021E030E073
:100ED000B90102C0660F771F8A95E2F7CB01962F02
:100EE0009095942391A392A1892B82A3789408953D
:100EF000A4E0B0E0EEE7F7E00C94213480917303B6
:100F0000882369F039DE69837A838B839C836981C6
:100F10007A818B819C812496E2E00C943D342CDE16
:100F200069837A838B839C838091EB029091EC029E
:100F3000A091ED02B091EE0229813A814B815C8152
:100F4000280F391F4A1F5B1F29833A834B835C8319
:100F5000DECF811522E5920708F04AC0811530E501
:100F6000930708F0C5C0803E910540F58D3C910582
:100F700008F09AC0883A910580F4853A910508F006
:100F800090C08130910541F09C0124503109213AF3
:100F9000310510F090E080E008959C01285A310955
:100FA0002B313105B8F7885AE82FF0E0EE0FFF1F1C
:100FB000E855FE4F8081918194640895811540E445
:100FC000940798F4811550E2950708F0ABC0883E6D
:100FD000910510F39C013A9521153F41D8F620E088
:100FE000392FA901482BCA0108959F70906A08956E
:100FF000803852E59507B8F5803622E5920708F06B
:101000005CC0803432E59307C8F4803242E594072F
:1010100008F04CC0282F2695269550E2259F900178
:101020001124482F437081E090E002C0880F991F7F
:101030004A95E2F7822B932B9D680895282F2695D9
:101040002695277040E2249F90011124482F437079
:1010500081E090E002C0880F991F4A95E2F7822B49
:10106000932B9C680895803C52E5950760F4282FE7
:101070002F71803A9245B0F5822F90E0982F882703
:10108000846F906A08959C01205C324520323105BE
:1010900008F080CF982F882788279F71806F906AEB
:1010A0000895849790640895906508958F7190E0F5
:1010B000982F8827816F906A0895282F2695269566
:1010C000277050E2259F90011124482F437081E042
:1010D00090E002C0880F991F4A95E2F7822B932B6C
:1010E0009A680895822F90E0982F8827906208953B
:1010F0009C0195E0369527959A95E1F72F7030E0A1
:10110000322F2227482F4F7150E084FF06C084E021
:10111000440F551F8A95E1F75527C901842B952B5C
:10112000906908959F71E2CF982F909580917F03E9
:10113000892380937F0308958091CD039091940338
:10114000981301C008958F5F8770FACF292F9830C8
:1011500078F5863068F590E036E0239F800D911D8C
:101160001124682F677023E0969587952A95E1F7FB
:10117000FC01EE0FFF1FE80FF91FE55AFD4F50E08D
:1011800040E080E0219130E0062E02C036952795A0
:101190000A94E2F721703327042E01C0220F0A942B
:1011A000EAF7822B4F5F5F4F4330510559F708959F
:1011B00080E00895292F983090F5863080F590E0F2
:1011C00036E0239F800D911D1124282F277041E0C8
:1011D00001C0440F2A95EAF723E0969587952A9552
:1011E000E1F7FC01EE0FFF1FE80FF91FE55AFD4F75
:1011F00090E080E070E05191DF0111979B01082E93
:1012000002C0369527950A94E2F72170219525278B
:10121000242325272C9301968330910561F70895A7
:101220008093F9020895982F82958F7011F0982F6E
:1012300084E0292F2695269511F08E5F922F9695A2
:1012400009F08F5F08959C019A9581159F4150F593
:10125000D901AA27B170F901EE27F270B90166270A
:101260007470A9014427587034FF0EC080E1AB2B85
:1012700009F480E0EF2B09F08062672B09F08064AD
:10128000452B89F08068089581E0AB2B09F480E05C
:10129000EF2B09F08260672B09F08460452B19F071
:1012A0008860089580E00895CF93C82F80917301DE
:1012B0008C1749F061DC6093740170937501809321
:1012C000760190937701C0937301CF910895ACE0BC
:1012D000B0E0EDE6F9E00C9413346C017B01DC0125
:1012E0001296ED91FC9113978D919C91222309F414
:1012F00050C020917801211101C024E02150330B0E
:1013000032E0832E912C02C0880C991C2A95E2F7BA
:10131000B4010E9463349B01D6018D939C93CF014D
:10132000B4010E946334F601938382836138FFEF36
:101330007F0704F160387105FCF4D70115966C93B2
:101340002138BFEF3B07D4F020383105CCF4822F91
:101350008195F7018483442319F061956583248383
:1013600080917901882371F0813081F02C96E0E141
:101370000C942F3461E8E1CF6FE7DFCF21E8E7CFAE
:101380002FE7E5CFD70115961C92F0CFF701148215
:10139000EDCF21E02427411106C0F195E195F10937
:1013A000919581959109022F10E044E0249F9001CE
:1013B0001124D901A75DBD4F6D917C911197AB01AF
:1013C00077FF02C04D5F5F4F5595479555954795FF
:1013D0004F01841A950AA401460F571F4D935C9341
:1013E000F901E75DFD4F42815381BA0157FF02C009
:1013F0006D5F7F4F75956795759567955C01A61A2A
:10140000B70AA40EB51EBA82A982F901E75DFD4FA5
:10141000B382A2822081318137FF02C02D5F3F4F0E
:10142000359527953595279549815A8157FF04C0F1
:101430004D5F5F4F5A83498369807A8075946794C2
:10144000759467945090160353E0000F111F5A953E
:10145000E1F75520A9F0A90137FF04C0442755271B
:10146000421B530BC30177FE04C0882799278619B6
:101470009709481759070CF4AC0141155105B9F407
:10148000F801E75EFD4F10821182128213821482EE
:10149000158216821782D70112962C9312971396F3
:1014A0006C92F60111821082138212825FCF075E66
:1014B0001D4FDA010E94983469837A838B839C8361
:1014C000F80180819181A281B38189809A80AB806B
:1014D000BC80880E991EAA1EBB1E89829A82AB828E
:1014E000BC829A01D3010E9498346D837E838F83DE
:1014F000988784819581A681B7812D813E814F8116
:101500005885280F391F4A1F5B1F2D833E834F8349
:101510005887652D70E080E490E00E9463344B01B1
:10152000770FAA08BB0869817A818B819C81A5010C
:1015300094010E94763429013A01D8016D937D937C
:101540008D939C9313976D817E818F819885A501E2
:1015500094010E94763429833A834B835C83A501EE
:10156000940169817A818B819C810E9448344B016E
:101570005C018D819E81AF81B88588199909AA097E
:10158000BB09F80184839583A683B78321E83FEFE5
:10159000F1E84F16FFEF5F066F067F063CF020E88C
:1015A0004216510461047104E4F4920149815A81A4
:1015B0006B817C8191E8692E77247A9441388FEF92
:1015C0005807680778070CF466CF69807A8040383E
:1015D0005105610571050CF45ECF8FE7682E712C03
:1015E0005ACF2FE730E0E2CF8F708A3010F4805D61
:1015F0000895895A089520E297FF04C09195819536
:1016000091092DE2EAE0F0E0BF010E946334805DC1
:10161000809317026115710559F42093160220E298
:101620002093150220E22093140284E192E00895B1
:10163000CB01BF010E946334805D80931602611567
:10164000710571F3CB01BF010E946334805D80930B
:101650001502E9CFAC01860F971F57FD07C077FD34
:1016600004C097FF02C08FEF9FE7089577FFFDCF7B
:1016700097FDFBCF80E090E80895E4E9F1E083E096
:10168000DF011D928A95E9F7E0E9F1E084E0DF01EE
:101690001D928A95E9F708959C0180918D019091A2
:1016A0008E018217930729F030938E0120938D01CC
:1016B000E4CF089590918B01981719F080938B01D6
:1016C000DCCF0895CF9362E273E084E393E074DAB1
:1016D000C82F882319F084E393E0EBDA9091350367
:1016E00086E0E4E3F3E0DF01282F1D922A95E9F775
:1016F00090933503A2E2B3E001900D928A95E1F751
:1017000081E0C11103C0911101C080E08170CF91CF
:101710000895CF93DF93282F81E02A3019F02D30E0
:1017200029F480E088D0DF91CF9108958091D90588
:101730009091DA0536E0FC01A3EDB5E001900D9241
:101740003A95E1F730EE320F343A08F458C026E00B
:10175000FC0111922A95E9F7C091D905D091DA05DB
:1017600046E050E0BE0183ED95E00E94E8349E0122
:10177000235D3340892B41F1C90145E0969587955A
:101780004A95E1F741E050E0BA0102C0660F771FC9
:101790008A95E2F7CB016091D1037091D203862B39
:1017A000972BB9016B5F7F4FE5E076956795EA95DA
:1017B000E1F702C0440F551F6A95E2F7842B952B81
:1017C0009093D2038093D1032A5F3F4F4091D0037F
:1017D000642F70E0C9010E94FD33481B463010F4AD
:1017E000240F311D211572E0370710F030E020E0A2
:1017F0002D523C4F3093DA052093D90594CF2052D7
:10180000330B46E0429FB001439F700D1124625C90
:101810007B4F46E050E00E94DF349ECFCF93DF93B2
:10182000EC01FE018491811103C0DF91CF910895F5
:1018300070DF2196F6CFCF93382FE091D905F09144
:10184000DA05E35DF3402091D003622F70E0CF0111
:101850000E94FD33281B822F332359F066E00E943B
:101860005734C82FC15010F4CF91089580E251DF52
:10187000F9CF9F01280F311D2115324018F080E06B
:10188000F0E0E0E08E0F9F2F911D8D529C4F9093C2
:10189000DA058093D905E8CF80917F039091750296
:1018A000892B90917402992389F0892B90E02EE086
:1018B00032E0F90140812F5F3F4F41119F5F42E0CD
:1018C00024313407B1F791111092740280930C0205
:1018D00048E050E066E772E08CE092E00E94E83475
:1018E000892BB9F088E0ECE0F2E0A6E7B2E00190E5
:1018F0000D928A95E1F7E091CE03F091CF033097F6
:1019000041F00280F381E02D309719F08CE092E0F5
:1019100009950895882339F080959091750289235F
:1019200080937502B9CF0895882331F090917502A4
:10193000892B80937502B0CF0895882311F0F4DBD2
:10194000ABCF0895882331F090917F03892B80934A
:101950007F03A2CF08950F931F93CF93DF93EC01E2
:10196000FC0101900020E9F78F0101501109C01717
:10197000D10728F0DF91CF911F910F9108958991A0
:10198000C8DEF5CF0F931F93CF93DF938B01EA014E
:1019900090918A03943061F58093E9008FEF9091E4
:1019A000E800815095FD06C095ED9A95F1F700008D
:1019B0008111F5CF8091E80085FF1AC00E94740460
:1019C000811111C08091E80085FD06C08091E8007A
:1019D0008E778093E800F2CFF80181918F01809398
:1019E000F100219779F78091E8008E778093E800E5
:1019F000DF91CF911F910F910895BC0143E050E01A
:101A000084E0C0CFBC0146E050E084E0BBCFCF9380
:101A1000DF93D82FC92F48E050E0682F792F81E05D
:101A2000B1DF88E0ED2FFC2FA0E8B3E001900D922C
:101A30008A95E1F7DF91CF910895792F603229F4EB
:101A400040E250E0682F82E09DCF0895B0E0A0E032
:101A5000ECE2FDE00C941934F82EE92ED62EC72EB8
:101A60008A018091EA02AA24A394B12C8A3018F446
:101A70008AE0A82EB12CC1E0D0E06D2D7C2D8F2DF9
:101A80009E2DF8010995811104C02196AC16BD0662
:101A90002CF4CDB7DEB7EAE00C943534CC9F90013E
:101AA000CD9F300D300D112490E080E045E34A9544
:101AB000F1F70000019682179307C1F7DECF1F935D
:101AC000CF93DF93962F122F632F8430D8F4983062
:101AD000C8F44630B8F4C42FD0E0CC0FDD1F2CE0A2
:101AE000929FC00DD11D112490E6899FC00DD11D7C
:101AF0001124CE0185960E942035612FCE01869655
:101B00000E942035DF91CF911F910895AF92BF922F
:101B1000CF92DF92FF920F931F93CF93DF93B12C5D
:101B2000A12C00E0650110E012C0FE012591349166
:101B30004F2D612F802FC3DF2296F39486E0F81299
:101B4000F4CF86E0C80ED11C1F5F183039F0E601D3
:101B5000CC0FDD1FCB5DDD4FF12CE7CF0F5F80E3B6
:101B6000A80EB11C0430F1F6DF91CF911F910F91B7
:101B7000FF90DF90CF90BF90AF9008950F931F9389
:101B8000CF93DF93843030F5683020F5463010F580
:101B9000C42FD0E0CC0FDD1F2CE0629FC00DD11D03
:101BA000112430E6839FC00DD11D1124CE018596EE
:101BB0000E940E35082F10E0102F0027CE018696C8
:101BC0000E940E359801282BC901DF91CF911F91FA
:101BD0000F91089590E080E0F8CF462F672F78307E
:101BE00028F4463018F4843008F4C8CF80E090E040
:101BF0000895B0E0A0E0EFEFFDE00C941C347C0110
:101C000000913B038091F902082BC3E0D0E010E083
:101C1000DC2EC8010C2E02C0959587950A94E2F738
:101C200080FD09C02197A0F7D12C8D2DCDB7DEB74F
:101C3000E7E00C943834B7018C2FCFDF8AD90197B5
:101C400089F3F3CFCF93DF93D82FC92FD2DF6D2F36
:101C50007C2FC3DF7ED9DF91CF910895FC01848171
:101C6000882399F080819181EDDF282F92959F70D4
:101C7000963091F060F4925F9F70923030F481E082
:101C8000203F81F030F4283E30F080E004C09A5FBD
:101C9000F3CF243FD1F7089581E0283E20F0213F83
:101CA000A1F7F9CF08950895A6E0B0E0EAE5FEE0D7
:101CB0000C9420349C0186E0F901DE01119601901C
:101CC0000D928A95E1F7F901258189819A81222374
:101CD00081F0662371F08DDF182F682F89819A813A
:101CE00069DA69817A81812F78DF2696E3E00C94A6
:101CF0003C342CDA182FF5CFAB0124E630E0BC01E0
:101D000088E70E94C2319C0181E0232B09F080E02A
:101D100008958091620390916503911103C091E051
:101D200089270895882361F062E070E086EE91E0F3
:101D3000E3DF811103C08091620308951092620372
:101D400080916203ECCFA5E0B0E0E9EAFEE00C94FC
:101D50002134809162038D83809165038823E9F0AB
:101D60000E94BC05DC01CB01805A9541AF4FBF4FAB
:101D700080935E0390935F03A0936003B09361032D
:101D80008D81811107C062E070E084EE91E0B4DFE4
:101D9000811108C0809162038D838D812596E2E0D8
:101DA0000C943D3481E080936203F4CF20E1FC0188
:101DB000A8E3B2E001900D922A95E1F740E150E0EE
:101DC00060E472E00C943E35CF93DF93EAE3F2E0F7
:101DD00086E0DF011D928A95E9F7E8E3F2E088ECFE
:101DE00090E091838083C1E0C3838AE892E0958389
:101DF00084838AE086838FE29AE09187808780E3FC
:101E00009AE0938782878FE298E09587848780E3C2
:101E100098E09787868740E150E060E472E0CF0168
:101E20000E943E35C093370283E08093150363E040
:101E300080EE93E00E944735C09314038EEF8093A9
:101E400013036EEF81EE93E00E944735C0931203B7
:101E5000D2E3D093110362E382EE93E00E94473510
:101E6000C0931003D0930F0362E383EE93E00E94CC
:101E70004735C0930E036BE48EEF93E00E94473525
:101E800065EA8FEF93E00E944735DF91CF91089587
:101E900080913602811110C081E0809336028EEF6E
:101EA00093E00E940E358B3431F48FEF93E00E9463
:101EB0000E35853A09F088CF0895EADF80910E0348
:101EC00081110EC083EE93E00E940E3596EF980FBD
:101ED0009F3B08F082E380930F0381E080930E0321
:101EE00080910F030895D4DF8091100381110EC0FB
:101EF00082EE93E00E940E3596EF980F9F3B08F01C
:101F000082E38093110381E0809310038091110399
:101F10000895BEDF8091120381110CC081EE93E021
:101F20000E940E35883008F08EEF8093130381E015
:101F300080931203809113030895AADF8091140304
:101F400081110BC080EE93E00E940E35883040F482
:101F50008093150381E08093140380911503089505
:101F60008E3FB1F383E0F4CFCF93DF93D82F5BD9CB
:101F7000C82FE3DF982F81E09C1380E095D9C9DF5B
:101F800091E08C1390E090932C038C1791F080914A
:101F90002D0381110EC08091320381110AC010926D
:101FA00031031092300310922F0310922E031092DF
:101FB0002B038D2FDF91CF910895D6DF80933B03C4
:101FC000089521E030E001C0220F8A95EAF72095BC
:101FD00080913B038223F1CF90913A03809589232E
:101FE00080933A03282F277061F4891751F090915C
:101FF000FB0292FF06C0869586958695E2DF1092D9
:102000003A03089521E030E001C0220F8A95EAF7F3
:1020100080913B03822BD1CFCF93DF93D82FC92F51
:1020200037DF80913702811120C040E150E060E449
:1020300072E088E392E00E94FE3480913802909131
:102040003902C297873B934068F0EAE3F2E08EE002
:10205000DF011D928A95E9F788EC90E090933902B0
:102060008093380281E08093370280E1E8E3F2E078
:10207000AD2FBC2F01900D928A95E1F78D2F9C2FEB
:10208000DF91CF910895A0E1B0E0E9E4F0E10C9494
:102090002134CE010196C0DF89819A819C012253AF
:1020A0003109273B334010F088EC90E06096E2E085
:1020B0000C943D349091FB0292FB222720F92817C3
:1020C00071F080FB92F99093FB026091FA0270919B
:1020D000FB0284E090E00E943A3582E07DCF0895D3
:1020E000B0E0A0E0E6E7F0E10C941B34FA016901EE
:1020F0007801C82F880FDD0B3097B1F0DE0193E037
:10210000AA0FBB1F9A95E1F7AF5FBE4F11968D9155
:102110009C91129784579D4F4C9150E0E417F5071E
:1021200008F4AF010E94F534CE010E948D33182FC0
:102130008823D1F0E114F104B9F083E0CC0FDD1F66
:102140008A95E1F7FE01EF5FFE4F438150E0E41610
:10215000F50608F4A701CF5FDE4F6C817D816457DF
:102160007D4FC6010E94F534812FCDB7DEB7E8E080
:102170000C943734A5E0B0E0E0ECF0E10C941934B5
:102180008D83E62E5A01F22E68018091EA028A3090
:1021900028F080E02596EAE00C9435348D81883073
:1021A000C4F319828A836B832C8363E070E0CE01D1
:1021B00002960E94CF068983E0922901F0923C01A9
:1021C00010E000E030E020E044E050E0BE016F5F4E
:1021D0007F4F84E085DF8823E1F24E2D50E030E030
:1021E00020E0B50185E07CDF882399F230E020E033
:1021F00041E050E0BE016B5F7F4F86E071DF8823D6
:1022000041F20F2D10E0960150E040E070E060E0F8
:1022100087E066DFBFCFA5E0B0E0E1E1F1E10C943B
:102220001B3400916203098310919502C090E6026D
:10223000D090E702E090E802F090E9020E94BC052D
:10224000DC01CB018C199D09AE09BF0984369105CB
:10225000A105B10530F4812F90E011E008171906AF
:10226000C1F010E000E030E020E041E050E0BE01CD
:102270006F5F7F4F83E034DF182F882351F00E9477
:10228000BC056093E6027093E7028093E8029093A6
:10229000E902812F2596E8E00C943734A8E0B0E0FD
:1022A000E4E5F1E10C941B34C090E202D090E3022B
:1022B000E090E402F090E5020E94BC05DC01CB0155
:1022C0008C199D09AE09BF0911E084369105A1055D
:1022D000B10518F10E947807DC01CB010296A11D1F
:1022E000B11D89839A83AB83BC8310E000E030E0AA
:1022F00020E044E050E0BE016F5F7F4F82E0F0DEFF
:10230000182F882351F00E94BC056093E20270935D
:10231000E3028093E4029093E502812F2896E8E09F
:102320000C9437348F929F92AF92BF92EF92FF92AC
:102330000F931F93CF93DF93CDB7DEB729970FB6D7
:10234000F894DEBF0FBECDBF7B0101E010E09E011F
:102350002B5F3F4F50E040E070E060E080E0C0DE87
:10236000182F882309F44EC08090DE029090DF027F
:10237000A090E002B090E1020E94BC05DC01CB011C
:1023800088199909AA09BB0984369105A105B105E7
:1023900048F464E070E08DE892E00E94CF069D81F1
:1023A000891781F104E010E09E012F5F3F4F50E05C
:1023B00040E070E060E081E093DE182F64E070E0C0
:1023C0008DE892E00E94CF0691E02D81281390E0E5
:1023D000192331F10E94BC056093DE027093DF0285
:1023E0008093E0029093E10289819A81AB81BC8164
:1023F0008093DA029093DB02A093DC02B093DD02BB
:1024000011E00EC080918D0290918E02A0918F02FA
:10241000B091900289839A83AB83BC831111E4CF7E
:102420008091DA029091DB02A091DC02B091DD0292
:10243000F70180839183A283B383812F29960FB6FE
:10244000F894DEBF0FBECDBFDF91CF911F910F91EA
:10245000FF90EF90BF90AF909F908F90089528E0ED
:1024600030E043E060E086E30C948530CF93DF9367
:10247000D82FC62FF4DF8D2F80680E9497308C2FC5
:102480000E9497308AEB8A95F1F700C00E94C7300E
:1024900083E492E00197F1F700C00000DF91CF9153
:1024A0000895682F893708F068E76093710191E01B
:1024B0009093720190916601992349F061508111C6
:1024C00001C064E0683708F067E78FE0CFCF089578
:1024D000FB018081E6CF282F80917101811101C01D
:1024E00085E0022E000C330B820F932F911D1816DE
:1024F000190614F081E090E0D4CFACE0B0E0E3E85E
:10250000F2E10C941D344F83588769877A878B8753
:102510009C8780916601882309F442C08091310232
:10252000811106C060E080E5A1DF81E08093310287
:1025300096DF80E50E9497300AEB0A95F1F700C01C
:102540000E94AF300E94AF300E94AF307C010E94E9
:10255000AF3060E0E62AF82A0E94AF308C010E947A
:10256000AF3020E0022B182B0E94C73025E02A95BF
:10257000F1F70000F894B7018091690190916A0128
:1025800069D890936A0180936901B80180916B01C9
:1025900090916C015FD890936C0180936B0178945B
:1025A00080917303882309F466C00E94BC05462FFE
:1025B000572FBC018091320290913302A0913402D6
:1025C000B09135028A019B01081B190B2A0B3B0BAA
:1025D000D901C8010897A105B10508F44CC0409382
:1025E000320250933302609334027093350280912B
:1025F000740190917501A0917601B0917701481B0B
:10260000590B6A0B7B0B423351056105710580F450
:1026100010926A011092690110926C0110926B0184
:1026200010926E0110926D011092700110926F0164
:102630001091740320917301412FBE01695F7F4F98
:1026400089E691E00E9467092091730180916601FB
:10265000282741E04127BE01695F7F4F8DE691E069
:102660000E94670986E0FE013796AEE7B1E001906F
:102670000D928A95E1F786E0FE013796DE0111960C
:1026800001900D928A95E1F729813A814B815C8115
:102690006D817E8180E090E02C96E6E00C943934E8
:1026A000CF93C82FDCDE8C2F0E9497308FE792E00B
:1026B0000197F1F700C000000E94AF30C82F95E0ED
:1026C0009A95F1F700000E94C73085E68A95F1F7E8
:1026D0000000109231028C2FCF910895CF93DF9399
:1026E0000E94F42F269ABBDE6AE58AE3BFDE2FEF55
:1026F00080E792E0215080409040E1F700C0000068
:1027000082E0CEDF83E0CCDF84E0CADF85E0C8DF93
:1027100086E0C6DF60E080E1A9DE80E0C1DFD82F7F
:1027200081E0BEDFC82F0E94C730D23419F481E0A7
:10273000C13009F080E0817080936601882319F030
:1027400064E08FE093DE81E0DF91CF9108951F92E6
:102750000F920FB60F9211242F933F934F935F93D5
:102760006F937F938F939F93AF93BF93EF93FF9359
:102770008091E10082FF09C08091E20082FF05C0E4
:102780008091E1008B7F8093E1008091DA0080FFEF
:1027900024C08091D80080FF20C08091DA008E7F15
:1027A0008093DA008091D90080FFA9C080E189BDC3
:1027B00082E189BD09B400FEFDCF81E080938A03E8
:1027C00080917E03811109C00E9455040E94F60485
:1027D0008091E20084608093E2008091E10080FFBC
:1027E0001AC08091E20080FF16C08091E2008E7FC7
:1027F0008093E2008091E20080618093E20080910A
:10280000D80080628093D80019BC85E080938A0349
:1028100083E08093A5018091E10084FF2FC0809127
:10282000E20084FF2BC080E189BD82E189BD09B44B
:1028300000FEFDCF8091D8008F7D8093D8008091DD
:10284000E1008F7E8093E1008091E2008F7E809393
:10285000E2008091E20081608093E20080918B032E
:10286000882309F452C084E080938A0380918A030C
:10287000843009F452C081E08093A5018091E10089
:1028800083FF2CC08091E20083FF28C08091E1008B
:10289000877F8093E10082E080938A0310928B030C
:1028A0008091E1008E7F8093E1008091E2008E7F35
:1028B0008093E2008091E20080618093E20042E038
:1028C00060E080E00E94C4048091F0008860809302
:1028D000F00081E08093A5018093A401FF91EF9126
:1028E000BF91AF919F918F917F916F915F914F9128
:1028F0003F912F910F900FBE0F901F90189519BC0C
:1029000010928A0310927E0368CF8091E30087FDC6
:1029100002C081E0A9CF83E0A7CF82E0ADCF789459
:102920001F921FB61F9211248F939F93AF93BF9353
:1029300080917A0390917B03A0917C03B0917D03F9
:102940000196A11DB11D80937A0390937B03A09300
:102950007C03B0937D03BF91AF919F918F911F90A6
:102960001FBE1F9018952FB7F89480917A0390910D
:102970007B03A0917C03B0917D032FBF0895F3DF0B
:1029800020916F0330917003232B21F080936B0310
:1029900090936C032091710330917203232B21F0EB
:1029A0008093690390936A038DE693E00C94590633
:1029B000CF93C6E0EEE0F2E0DF018C2F1D928A9506
:1029C000E9F790E080E00E94310690E080E00E940C
:1029D0000906109275020E944C0CEDE6F3E0DF014F
:1029E0001D92CA95E9F71092660310926703109240
:1029F0006803C5DFCF910895AAE2B0E0E2E0F5E117
:102A00000C9420348CE893E0FC0101962091F100B5
:102A1000208323E084399207B9F780918D038930B0
:102A200009F45BC0C8F4823009F4B8C0833009F4FB
:102A300087C0813099F18091E80083FF3BC180918C
:102A40008C0390918D039A3008F034C1E92FF0E0A7
:102A5000E95AFA4C0C9492348A3009F48EC08B30C7
:102A600051F780918C03813231F7809190039091DE
:102A70009103892B01F78091E800877F8093E8001C
:102A80000E94A50481E090918E03911101C080E025
:102A90008093A40110927F038BDFCDCF80918C03B4
:102AA000813A49F68091E800877F8093E800809121
:102AB000900390919103892B61F468E080E893E0A2
:102AC00070E00E9450058091E8008B778093E800C9
:102AD000B2CF60E090E080E0F3CF80918C03813250
:102AE00009F0A9CF80919003909191038D7F892B5C
:102AF00009F0A1CF8091E800877F8093E800809162
:102B0000E80082FF18C09091F3008091F2000297D4
:102B100031F48091F100813011F0863021F4809100
:102B2000F1008093A3018091E8008B778093E80007
:102B30000E94A50480CF80918A038111E0CF7BCFD2
:102B400080918C03813A09F076CF80919003909127
:102B50009103892B09F06FCF8091E800877F8093E4
:102B6000E8008091E80080FFFCCF8091A401809371
:102B7000F1008091E8008E77D9CF80918C0381326B
:102B800009F059CF8091E800877F8093E8000E9488
:102B9000A50480918F038093A2014DCF80918C0377
:102BA000813A09F048CF8091E800877F8093E80060
:102BB0008091E80080FFFCCF8091A201D8CF8038BF
:102BC00099F0823809F076C0809190038F70873039
:102BD00008F070C08093E9008091EB0085FB8827A6
:102BE00080F91092E90006C08091880390918903D2
:102BF000911182609091E800977F9093E800809314
:102C0000F1001092F1008091E8008E77B7C188231F
:102C100009F4A4C1823009F04DC080918E03811166
:102C2000A8C1809190038F702FEF280F263008F0F5
:102C300041C08093E9002091EB0020FF9AC19330BE
:102C400031F48091EB0080628093EB0092C190910F
:102C5000EB0090619093EB0021E030E001C0220F87
:102C60008A95EAF72093EA001092EA008091EB003F
:102C70008860EACF81111EC010918E031F7780916A
:102C8000E3008078812B8093E3008091E800877FC8
:102C90008093E8000E94A5048091E80080FFFCCFAB
:102CA0008091E30080688093E30082E0111183E06B
:102CB00080938A038091E80083FF0AC08091E80036
:102CC000877F8093E8008091EB0080628093EB0027
:102CD000AA96E3E00C943C348058823058F7409137
:102CE0008E0350918F034C3D83E05807A1F583E09C
:102CF0008A838AE289834FB7F894DE01139620E035
:102D00003EE051E2E32FF0E050935700E49120FFC2
:102D100003C0E295EF703F5FEF708E2F90E0EA30D6
:102D2000C0F0C7968D939D932F5F243159F74FBF05
:102D30008091E800877F8093E8006AE270E0CE012E
:102D400001960E9450058091E8008B778093E800FF
:102D5000B1CFC096E7CF8091900390919103252F3A
:102D600033272330310509F44AC078F52130310585
:102D700009F479C08BE590E0E5EAF3E02230310513
:102D800009F098CF2091E800277F2093E800209158
:102D90009203309193038217930708F49C0140E05B
:102DA0002115310509F064C0411162C08091E8002D
:102DB00082FDC9CF80918A03882329F2853019F2D8
:102DC0008091E80083FFF2CFBECF2132310509F4B4
:102DD0003BC02232310509F06DCF8330910508F0F8
:102DE00069CFFC01EE0FFF1FE350FE4F0190F08111
:102DF000E02D86509E4FDC018C9190E011C0CA01FD
:102E00009927413089F082309105B1F0892B09F082
:102E100051CFEAE3F4E0E4918E2F90E0EAE3F4E0AE
:102E2000009709F447CFAECFE8E2F4E0E4918E2FAB
:102E300090E0E8E2F4E0F4CFE2E1F4E0E4918E2FF8
:102E400090E0E2E1F4E0ECCF8330910508F032CF7E
:102E5000880F991FFC01ED5FFD4F0190F081E02D7F
:102E600089E090E08FCF82E190E0E0E0F4E08ACF6B
:102E700080918A03882309F466CF853009F463CFF3
:102E80008091E80083FD5FCF8091E80082FD8ECFC6
:102E90008091E80080FF84CF9091F3008091F20050
:102EA0002115310519F08830910550F041E008975F
:102EB00009F040E08091E8008E778093E80070CFC1
:102EC00044914093F1003196215031090196E8CFA9
:102ED000803809F0EFCE8091E800877F8093E8008A
:102EE00080918B038093F1008ECE8111E3CE1091FF
:102EF0008E03123008F0DECE8091E800877F809349
:102F0000E80010938B030E94A504112311F084E0C4
:102F100005C08091E30087FDFACF81E080938A03AA
:102F200042E061EC81E00E94C40442E261EC84E092
:102F30000E94C40442E261EC82E00E94C40442E2C6
:102F400060EC83E00E94C40480918A03843021F005
:102F500081E08093A501AECE82E0FBCF80918E030D
:102F6000813009F0A7CE81E0933009F080E08093B2
:102F700089031092E9008091E800877F8093E80040
:102F80000E94A50497CE1F920F920FB60F921124A4
:102F90002F933F934F935F936F937F938F939F9361
:102FA000AF93BF93CF93DF93EF93FF93D091E9005B
:102FB000DF708091EC00C82FC17080FDC0E81092D6
:102FC000E9008091F000877F8093F000789414DD11
:102FD0001092E9008091F00088608093F000CD2B82
:102FE000CF70C093E900FF91EF91DF91CF91BF9136
:102FF000AF919F918F917F916F915F914F913F9191
:103000002F910F900FBE0F901F90189510927F0375
:10301000CFDC2FEF84E39CE0215080409040E1F72B
:1030200000C0000088E19AE00FB6F894A89580935C
:1030300060000FBE90936000FFCF662309F46FC05D
:103040008D3C31F40E94A10681958093700397CC4A
:103050008E3C19F40E94A106F8CF8F3C31F40E94F7
:10306000A106819580936F03F2CF803D19F40E94F1
:10307000A106F8CF893D29F40E947F068093710351
:10308000E6CF8A3D21F40E947F068195F7CF8B3DE4
:1030900031F40E947F06819580937203D8CF8C3DD6
:1030A00019F40E947F06F8CF9FE2980F983018F528
:1030B000282F215D330BA90121E030E001C0220F50
:1030C0004A95EAF790916E03922B90936E03815D7F
:1030D00021E030E0A90102C0440F551F8A95E2F7B4
:1030E000CA0120913503662309F492C0822B809394
:1030F00035030C94620B8D3D31F48091680381603F
:1031000080936803A4CF8E3D21F480916803826090
:10311000F7CF8F3D19F5809168038460F1CF9091CE
:103120006F038D3C59F42091700327FF0DC010925E
:10313000700391110BC01092660308C08E3CB1F46D
:103140002091700312169CF39923B1F090917103B2
:1031500020917203922B11F410926703482F415D66
:10316000550B4830510508F4B2CF71CF8F3C39F47C
:1031700097FFEACF10926F0390917003DACF803DF2
:1031800019F41916BCF3E0CF20917103893D29F49D
:103190001216D4F610927103D7CF8A3D19F427FF87
:1031A000D3CFF8CF209172038B3D29F427FFCCCFEA
:1031B00010927203C9CF8C3D19F41216CCF3C4CF10
:1031C0002FE2280F283088F4282F215D330BA90126
:1031D00021E030E001C0220F4A95EAF720953091B6
:1031E0006E03232320936E03AFCF209168032E7FBD
:1031F0008D3D59F0209168032D7F8E3D31F08F3D3C
:1032000009F0A2CF209168032B7F209368039CCF05
:10321000809582236CCF8823B1F19CEF980F913A6F
:1032200070F4EEE0F2E09191891303C0DF01119791
:103230001C9292E0E431F907B1F70C944C0C90E247
:10324000980F983050F4877091E001C0990F8A95DB
:10325000EAF7892F0E949408F0CF9BE5980F9330EE
:1032600020F490E080E00C94310698E5980F9B31B3
:1032700020F490E080E00C94090693E3980F9331DA
:1032800010F460E0DACE0895CF93DF93EC01C3DF52
:10329000CE010E9423099E01205E310928303105AC
:1032A00010F0CD2B29F40E949D0CDF91CF91089551
:1032B0000E948A0CFACF0F931F93CF93C82F8823B5
:1032C00039F18CEF8C0F813AB0F50EE012E0F80185
:1032D0008191C81709F122E0E431F207C9F7EFEF55
:1032E00080E0D8019D918D01C91781F0EF3F19F45D
:1032F000911101C0E82F8F5F863099F7EF3F31F0D1
:103300000E2E000CFF0BE45FFD4FC2830E944C0C9D
:10331000CF911F910F910895EEE0F2E08191C813D3
:1033200003C0DF0111971C9232E0E431F307B1F7DB
:103330000E944C0CD4CF80E28C0F883068F4C770A8
:1033400021E030E001C0220FCA95EAF780917F03A7
:10335000822B80937F03DACF8BE58C0F833038F498
:103360002C2F2452330BC9010E943106D1CFE8E53E
:10337000EC0FEB3150F4F0E0EE0FFF1FE855FE4F7D
:10338000808191810E940906C3CF83E38C0F833132
:1033900008F0BECF61E08C2F50DEBACFCF93DF9321
:1033A000EC010E9423099E01205E3109283031057D
:1033B00010F0209739F40E94A20C8C2F7CDFDF9153
:1033C000CF9108950E94940CF8CFA5E0B0E0EBEE09
:1033D000F9E10C94153480916503882309F41EC12A
:1033E00020916303309164033A832983BCDA4981D5
:1033F0005A81841B950BC29708F4E6C0B4DA909307
:1034000064038093630383ED93E09093DA058093E4
:10341000D90580917303882309F40FC18EEE91E0E2
:103420000E940E0C88EB0E94890B80917D010E9406
:10343000F40A0E94890B89EB0E94890B80917C0120
:103440000E94F40A0E94890B8BEE91E00E940E0C00
:1034500080917A0190917B0154E0969587955A95D9
:10346000E1F70E94F40A0E94890B80917A010E9480
:10347000F40A0E94890B88EE91E00E940E0C84E809
:1034800091E00E94AB0C8DE092E00E940E0C8091C6
:103490008001082E000C990B0E94FB0A0E94AB0CC5
:1034A00080918101082E000C990B0E94FB0A0E945A
:1034B000AB0C80918301082E000C990B0E94FB0A33
:1034C0000E94AB0C80918201082E000C990B0E9487
:1034D000FB0A0E94AB0C85E092E00E940E0C8091EA
:1034E0007101811101C085E090E00E94FB0A019604
:1034F0000E94AB0C81E092E00E940E0C8091790159
:10350000882331F0813009F48DC088EF91E002C04A
:103510008EEF91E00E940E0C80917301882309F4D4
:1035200084C086E192E00E940E0C84EF91E00E943C
:103530000E0C80917801811101C084E0805D0E94B1
:10354000890B8CE192E00E940E0C61E070E07A83BE
:10355000698380913B03882309F46AC090E0098065
:1035600002C0959587950A94E2F780FF61C0898132
:103570000E94F40A0E94890B89819A8101969A839C
:103580008983089731F780E20E94890B89E192E0F4
:103590000E940E0C80918B01882309F44BC086E1B8
:1035A00092E00E940E0C80918D0190918E016AE054
:1035B00070E00E94FD33CB010E94FB0A01960E943D
:1035C000AB0C80E30E94890B8091D1039091D203D0
:1035D000892B09F04EC0809162038823F9F00E9484
:1035E000BC0569837A838B839C8380915E03909171
:1035F0005F03A0916003B091610329813A814B81FF
:103600005C81281B390B4A0B5B0BDA01C9018F3F28
:103610009F4FAF4FBF4710F40E94890E2596EEE0F2
:103620000C9431348BEF91E075CF83E192E07BCF46
:1036300080EBA0CF83E192E0B4CF90E99983A98198
:10364000A051AD8382E292E00E940E0C8D81B82FD2
:10365000BF5FBD830E94890B6D8029816212F6CF06
:1036600080E00E941B0C3981305F3983303C39F790
:10367000ABCF80916503882309F4ADCF80915D03C2
:103680008111A9CF0E94A30E2091D1033091D203C2
:103690002115310509F49FCF80E041E050E0082F6B
:1036A00010E0BA01082E02C0660F771F0A94E2F7F5
:1036B0007A83698362237323672B11F48F5FEFCFC3
:1036C00090915C0390FF97C0880F880F880F8093BC
:1036D0009D011092A001895F80939E0183E08093F9
:1036E000A10124E630E047E050E06BE971E088E7B3
:1036F0000E947F31892B09F06ECFA80125E0440F8D
:10370000551F2A95E1F780915C0380FF86C0ECE3AA
:10371000F3E080E2DF011D928A95E9F706EF11E000
:1037200082EFE82E81E0F82E97E0992E882483948A
:10373000D801ED918D01D7016D917D01640F752F39
:10374000711D6D527C4FF0E0E45CFC4F30E020E0F6
:10375000792C721AA82C022E01C0AA0C0A94EAF73E
:103760006B0190E0D6018D916D018A21A72DA91BD7
:10377000A770BA2E0A2E000CBB0B682E01C0660C77
:10378000BA94EAF7B62CB195A195B109A770BB27F9
:1037900001C08695AA95EAF7A62DA82B80818A2BD1
:1037A00080839F5F9830F1F62F5F3F4F319628302E
:1037B000310571F621E00A3F120709F0B9CF04E69E
:1037C00010E020E230E04CE353E060E488E70E9440
:1037D0000732892B09F0FFCE49815A8140955095D7
:1037E0008091D1039091D203482359235093D2035F
:1037F0004093D103F0CE8295880F807680939D010F
:10380000980136952795369527952093A001815EDE
:1038100080939E012093A10164CF4D525C4F04E63A
:1038200010E020E230E0D1CFA4E3B0E0EAE1FCE137
:103830000C941B3480912803833009F097C2409187
:1038400034035091350360913603709137038091B2
:103850003803909139030E947D12209334033093F2
:1038600035034093360350933703609338037093C6
:10387000390386E0E4E3F3E0DE01519601900D9216
:103880008A95E1F786E0FE017196DE015D96019072
:103890000D928A95E1F786E0FE017D96DE01119694
:1038A00001900D928A95E1F786E0FE013196A4E33E
:1038B000B3E001900D928A95E1F786E0E4E3F3E04E
:1038C000DE01519601900D928A95E1F786E0FE01A6
:1038D0007196DE01939601900D928A95E1F786E04C
:1038E000FE01B396DE01119601900D928A95E1F7E3
:1038F00086E0FE013196A4E3B3E001900D928A9533
:10390000E1F786E0E4E3F3E0DE019F9601900D929B
:103910008A95E1F786E0FE01BF96DE015796019099
:103920000D928A95E1F7E9A8FAA81BA90CA9809144
:103930003203882309F4E7C020913003309131032A
:103940002E0D311DE7FC3A9530933103209330035F
:1039500080912E0390912F038F0D911DF7FC9A9566
:1039600090932F0380932E0337FF03C03195219549
:1039700031092D3031053CF497FF03C091958195B5
:1039800091090D972CF081E080932D031092320362
:10399000198E1A8E1B8F0C8F86E0FE017796DE0142
:1039A000519601900D928A95E1F7F12CE12CEB8A6A
:1039B000FC8A1D8B0E8B86E0FE017196DE019996C6
:1039C00001900D928A95E1F7EBA6FCA61DA70EA724
:1039D00086E0FE01B996DE01579601900D928A9518
:1039E000E1F7E98EFA8E1B8F0C8F86E0FE01779649
:1039F000A4E3B3E001900D928A95E1F786E0E4E359
:103A0000F3E0DE01579601900D928A95E1F78091DF
:103A10008B01882309F45BC1009190011091910101
:103A20000E94B31420918F01801B910B2817190657
:103A300008F04DC100919201109193010E94B314BE
:103A40009C01201B310B89010E94431080179107B4
:103A500008F03DC1588D2A8D8B8D9C8D309197013A
:103A6000498D340F3093970140919801240F209392
:103A7000980140919A01940F90939A014091990175
:103A8000840F809399014091650137FD319543176B
:103A900008F411C127FD2195421708F40CC197FDC8
:103AA0009195491708F407C187FD8195481708F4D7
:103AB00002C181E0511101C080E0817080939401C6
:103AC0000E94FC0610913B03882309F41CC110924C
:103AD0009701109298011092990110929A010E94F8
:103AE000B3149093910180939001109293011092DE
:103AF000920180918C011111E0C0882309F4E7C084
:103B00000E940210E4C080912D03811105C08091B4
:103B10002C03882309F4AEC080912B03882371F015
:103B2000C0902903D0902A030E94B3148C199D09D8
:103B30008F35914008F488C010922B038091300398
:103B4000909131038E0D911DE7FC9A95909331036E
:103B50008093300380912E0390912F038F0D911D40
:103B6000F7FC9A9590932F0380932E030E94730F76
:103B7000F82E0E945D0F2F2D30E0C0903003D090C2
:103B80003103E0902E03F0902F032C153D0594F0A7
:103B9000319521953109C216D30664F0282F30E003
:103BA0008E151F043CF0319521953109E216F3067C
:103BB0000CF0EECEF7FE03C0F194E194F108CE01D3
:103BC00001960E940C10D7FE03C0D194C194D10875
:103BD000EC14FD040CF041C080913003909131034E
:103BE000EF84F8881816190614F0ED84FE84E114A9
:103BF000F104C1F095E0C92ED12C39E3E316F104AC
:103C000019F480E5C82ED12CC701C8DB8FE99FE0ED
:103C10000197F1F700C0000091E0C91AD108B1F78F
:103C2000C70132DB109231031092300310922F0340
:103C300010922E0381E080932B030E94B314909383
:103C40002A0380932903A4CE1092310310923003EB
:103C500010922F0310922E039BCE80912E039091F1
:103C60002F03EB84FC84181619060CF4C0CFE984EA
:103C7000FA84BDCF802F812BD1F0CE0101960E9416
:103C80000C108B8184FD119585FF13C0802F8195C9
:103C9000E98EFA8E1B8F8C8F96E0FE017796DE01FF
:103CA000519601900D929A95E1F7082F80CE10E081
:103CB000EFCF802FEDCF81E000CF212F30E0082E15
:103CC00002C0359527950A94E2F720FF19CF86E0C8
:103CD000EDE6F3E0DE01579601900D928A95E1F74B
:103CE00080913503988D892B809335030E94620B58
:103CF000811139C080913303817010923303E496AF
:103D0000E8E00C94373480918C01111122C08111AC
:103D1000DECF00919001109191010E94B314801B9D
:103D2000910B20918D0130918E012817390778F67B
:103D300080918C010E94E10F1092910110929001EC
:103D400010929701109298011092990110929A0185
:103D5000BECF212F30E002C0359527958A95E2F736
:103D600020FFB5CFD6CF81E090E0C6CF80E0C7CFAF
:103D7000A0E2B0E0EEEBFEE10C9417341A8A198A47
:103D8000FE01739686E0DF011D928A95E9F780EEC9
:103D9000E82E81E0F82E10E000E0CC24C394D12C72
:103DA0002AEEA22E21E0B22EF70181917F018F3FF2
:103DB00009F445C0F894E82FE295EF70F0E021A1F6
:103DC0008F70A60102C0440F551F8A95E2F7CA0101
:103DD000922F982B91A392A18095892382A3789406
:103DE00000C0E4EEF1E031E0912C21912F3F09F485
:103DF000BEC0A22FA295AF70B0E090968C9190E0DB
:103E00002F7002C0959587952A95E2F780FDAFC087
:103E1000832F982A330FAE16BF0639F7F701319773
:103E200080818F3F11F00E945F0750EA5A95F1F7A9
:103E3000E1E1F0E0EC0FFD1FE00FF11F90820F5F5A
:103E40001F4F0430110509F0AFCF48E050E0BE012C
:103E50006F5E7F4F8FEE92E00E94E8349C01892BC9
:103E600049F088E0FE017196AFEEB2E001900D924C
:103E70008A95E1F70091F80210E00A5F1C4F232BAE
:103E800009F477C081E0809382020E94B31490937A
:103E9000810280938002F12CE0907303EE2009F4FC
:103EA000C7C01A8E198E1C8E1B8E8091EA028A3032
:103EB00008F085C042E951E1BE01675E7F4FC8014D
:103EC0000E94260D882309F4A2C04EE451E1BE01F0
:103ED000675E7F4FC8010E94260D882309F497C0B2
:103EE0004BE051E1BE01675E7F4FC8010E94260D85
:103EF000882309F48CC01092EA028091F70290E0C6
:103F000044E050E0BE01675E7F4F8A5F9C4F0E9495
:103F1000E83421E020938B02892B09F06AC0E12C60
:103F2000809132038823E9F0CE0101960E940C10A3
:103F300009811A81C801C297873B934010F008ECB1
:103F400010E0C0908502D09086020E94B3148C19B4
:103F50009D090817190728F481E080932D0310921A
:103F600032038E2D8F29A096ECE00C94333480E040
:103F700050CFF0908202FF2009F48DCFC0908002D4
:103F8000D09081020E94B3148C199D09059708F402
:103F900082CF44E050E06FEE72E0C8010E94E83446
:103FA000892B59F084E0EFEEF2E0D80101900D92F8
:103FB0008A95E1F7109282026FCFF12CFBCFC0906F
:103FC0008302D09084020E94B3148C199D09843F0F
:103FD000914008F06FCF80918B02882309F49FCF26
:103FE000FE01799684E0DF011D928A95E9F710922F
:103FF0008B02E091F702F0E0EA5FFC4F898D9A8D29
:10400000AB8DBC8D80839183A283B38389CF809154
:10401000EA028F3F31F08F5F8093EA028A3008F422
:104020006CCF0E94B3149093840280938302D3CF09
:10403000F80180819181A281B38180938D02909358
:104040008E02A0938F02B093900264E070E08DE83E
:1040500092E00E94CF0680938C0280909102909013
:104060009202A0909302B090940280918702909166
:104070008802A0918902B0918A0288169906AA0640
:10408000BB06B1F08092870290928802A0928902CA
:10409000B0928A020E94BC05861A970AA80AB90A39
:1040A0008092EB029092EC02A092ED02B092EE02AE
:1040B00080919502882319F00E94A30E52CF0E948E
:1040C000890E4FCFA0E1B0E0E8E6F0E20C941634A0
:1040D0007C01DC0114968C91882309F46FC161E0A6
:1040E000C7010E94540E8C0180918B01882331F10D
:1040F0000032B2E51B0708F0B2C00115E2E51E0769
:1041000008F0F6C00115F0E51F0708F09DC0011585
:1041100020E4120708F003C1011530E2130708F08C
:1041200006C1083E110508F05FC0003E110508F405
:1041300061C08091960187FD1092960110937B01DA
:1041400000937A01D7018D919C91119790937D01F5
:1041500080937C01F8013497E533F10508F0FFC046
:10416000E357FE4FE49115968C9120EB811102C02C
:104170002E2FE0EBA4E8B1E090E080E03D91321317
:10418000E8C08A599E4FDC015E96EC93D7011596E4
:104190008C9198013A9521153F4138F007302EE770
:1041A000120709F002C20E945409D70115968C919A
:1041B0009801205E32452032310508F08CC2811111
:1041C0009CC20F7181E090E0FC0102C0EE0FFF1F66
:1041D0000A95E2F78F016E2F83E090E00E94203570
:1041E000802F0E941009DAC0C8019A9581159F415D
:1041F00008F49FCFD70114968C91882309F499CFA6
:104200000730BEE71B0709F441C0C8018D5C910966
:104210004397E0F10E94FC0681118BCFF701858165
:10422000882359F080918C0120913B03211185C096
:10423000882309F48BC00E943D0B0E94B314909315
:1042400093018093920175CFC801E5E0969587951B
:10425000EA95E1F78F70992720918C0113C00038FF
:10426000B2E51B07C0F40036E2E51E0708F040C0C7
:104270000034F2E51F0708F05CCF20918C01C801E3
:104280008F7199272817190609F053CFF7018581F7
:104290000E94E5064ECF003E22E5120710F5003CD5
:1042A00032E5130708F445CF20918C01C8018F71C6
:1042B00099272817190609F03CCFD70115968C913C
:1042C0000E94E506F7018681807F803509F031CFB5
:1042D00085818823F1F08091960181508093960129
:1042E00028CFC801805E9245809708F422CF82CF04
:1042F00020918C01C8018F7199272817190609F0A0
:1043000018CFD70115968C91811113CF0E94F30617
:1043100010CF0E94F306809196018F5FDFCFD70107
:1043200016968C91807F19F4812F992793CFF701EE
:104330008681807F09F4FDCE5DCF30E0082E02C07B
:10434000359527950A94E2F720FF75CF0E94E10F7B
:1043500072CF01968630910509F010CF17CFF70183
:1043600085810031FEE71F0709F065C08823C1F190
:10437000CE0101960E940C10888510923103109294
:10438000300310922F0310922E0310922B038111F1
:1043900019C081E080932D031092320380913A037B
:1043A000877061F0D70115968C91882339F0809140
:1043B000FB0282FF03C082E00E94EC0F6096EDE0FA
:1043C0000C943234809359020E94B3149093860265
:1043D0008093850281E08093320310922D03DECF1B
:1043E000809132038823C1F0D090590229E305E07F
:1043F00010E0D21202C000E510E08D2D0E945B1982
:104400008FE99FE00197F1F700C00000015011090A
:10441000B9F78D2D0E940B1910922D0310923203C3
:10442000109231031092300310922F0310922E033A
:1044300010922B03B3CF980137572038310508F07D
:10444000A5CE882309F4ACC010E0D12CC12C0117F3
:1044500021F1B0E9CB16B1E0DB0608F09FCFC60131
:10446000805B9D4F0E940E3596012F5F3F4F882342
:1044700091F09FEF980F923010F0843051F493E058
:10448000C90ED11CA0E9CA16A1E0DA0640F31F5FED
:10449000DECF6901F7CF6901FACFE0E9CE16E1E09E
:1044A000DE0608F07BCFC601805B9D4F0E940E3573
:1044B000843019F0833008F071CFC601805B9D4FC6
:1044C0000E940E35B82E882309F468CF8FEF8B0D2C
:1044D000823018F0F4E0BF1261CFC6018F5A9D4FB1
:1044E0000E940E35182FC6018E5A9D4F0E940E3520
:1044F00023E0C20ED11C082F31E0B31220C065E0CA
:10450000A62EB12C0933110519F450E5A52EB12CB6
:10451000C8010E94CE198FE99FE00197F1F700C012
:10452000000091E0A91AB108B1F7C8010E9444192E
:10453000F0E9CF16F1E0DF0608F4BFCF2FCFA2E0FD
:10454000BA1213C0C8010E94CE19E0915802E83097
:1045500078F781E08E0F80935802F0E0EE0FFF1F96
:10456000E85BFD4F11830083E3CFB4E0BB12E0CFE3
:1045700001151105E9F2EFE9FFE03197F1F700C00D
:10458000000001501109F4CFE150E0935802F0E02F
:10459000EE0FFF1FE85BFD4F808191810E9444195F
:1045A000E0915802E111F0CFF9CE882309F4FDCD56
:1045B000F801FE57E031F10508F0F7CDEF59FA4C5C
:1045C0000C94923480E00E9451121092780180E0A5
:1045D0000E945A0B8AE892E00E944C0BDFCE209199
:1045E000780130918B0180918D0190918E0162E371
:1045F00070E00E94FD338FEF860F909179016091FA
:1046000016034091710120FB47F9522F56955370C4
:10461000330F330F532B282F220F220F220F522B31
:10462000660F660F6C739370692B70E08FE090E0FB
:104630000E943235B3CE81E00E946B12AFCE8FEF75
:10464000FBCF8AE0F9CF86EFF7CF9091730181E03D
:1046500089270E945409A2CE80917801811101C05E
:1046600084E08F5F18160CF081E0883008F087E056
:104670008093780193CE80917801811101C084E00C
:104680008150F0CF81E08093790188CE109279013A
:1046900085CE82E0F8CF90918B0181E089270E943E
:1046A0005A0B7CCE80918D0190918E01C296893EED
:1046B00033E0930708F490CF88EE93E08DCF80919C
:1046C0008D0190918E01C2978436910508F084CFB8
:1046D00084E690E081CF8823E1F10B35FCE71F07EA
:1046E00071F10C352CE71207F1F00A353CE713079E
:1046F00021F101309CE7190751F10330ACE71A07AB
:1047000001F101151C4729F510927F030E94D8146E
:10471000EFEFF4E32CE0E150F0402040E1F700C07F
:1047200000000E94AB058091FB0282FB882780F984
:1047300091E089270E945A1031CE81E0FBCF80E0C2
:10474000F9CF6FEF7FEF90E080E00E943A350E9452
:104750000618F701C080D180882309F44CC0C60137
:104760000E94F90D182F682FC6010E94DA08B601C1
:10477000812F0E94ED0D0E94A9078C01882ED70180
:1047800015967C9015971696CC90C2942FE0C22275
:1047900080913A03877009F1972C7720F9F0812FE7
:1047A000807F803469F080E2800F8830B0F0812F04
:1047B000807E803229F4B1E0B01778F4CC2069F023
:1047C0008091FB0282FF09C082E00E94EC0F809181
:1047D0003A038770992493948111912C812F8295AB
:1047E0008F70A82EB12C8C3008F069C0F501EF58FD
:1047F000FA4C0C949234C6010E94A608182FB7CF29
:10480000E12FEF70DE2E107F19F0D29490EFD922B5
:10481000802F7720B9F0DD2069F090E2900F98307A
:1048200010F0011109C080917F03D82AD0927F0334
:104830000E944C0C802F41C080917502D82AD092E2
:104840007502F6CF0E940B19DD20C9F1005E083019
:1048500010F0811004C08D2D0E94940806C0D094E1
:1048600080917502D822D09275020E944C0C27C00C
:10487000F12FFF70DF2E107F103219F0D29480EFED
:10488000D822882051F021E0821609F45CC07720FC
:1048900009F468C0CC2061F1CDCF8091FB0282FD8C
:1048A00023C07720D9F0DD2039F080917F03D82A0A
:1048B000D0927F030E944C0C80E00E945B1998E02C
:1048C000A91AB108A4E0AA16B10408F072C10E94A6
:1048D0006C0660E0C7010E94540E70CD80E00E941B
:1048E0000B19DD2061F3B7CF772099F0C11004C018
:1048F0008D2D0E94A20CE3CF31E0C312E0CF809156
:1049000074029D2D9823D916D1F2D82AD092740220
:10491000D6CFC110D4CF8D2D0E949D0C90917402E2
:104920008D2D892329F08D2D809589238093740204
:1049300080915A029D2D982309F4C1CFD094D8229A
:10494000D0925A02BCCF772029F085E08C1508F46C
:10495000B6CFCECF94E09C1508F4B1CF8D2D0E9438
:104960009D0CADCFCC20D1F3093309F01AC1AFEFC4
:10497000B7EEE3E0A150B040E040E1F700C0000036
:10498000802F0E940B199BCF812F8695869583706F
:1049900061F0813009F093CFC8019370711002C0AB
:1049A00080E090E00E9409068ACFC80193707110E0
:1049B00002C080E090E00E94310681CF672D802FF9
:1049C0000E941D187CCF812F837091F5711077CFD5
:1049D000402F429546954770440F440F802F8F70AB
:1049E000042E01C0880F0A94EAF7202F207104FFDB
:1049F00007C02FE030E001C0220F4A95EAF720956A
:104A0000169516951370123071F0133051F03091E5
:104A1000F902113029F0822B83230E9410094FCF15
:104A2000832B822BFACF282B8091F9028227F5CF96
:104A30008695772011F0812F8170882309F43FCF6C
:104A4000402F429546954770440F440F802F8F703A
:104A5000042E01C0880F0A94EAF7202F207104FF6A
:104A600007C02FE030E001C0220F4A95EAF72095F9
:104A7000169516951370123071F0133051F0309175
:104A80003B03113029F0822B83230E94DD0F17CFC7
:104A9000832B822BFACF282B80913B038227F5CFE3
:104AA0001F70772029F0812F0E940210802F21CFC4
:104AB000802F0E949D0C812F0E94E10F00CF802F3C
:104AC00092EF8916B1F1981570F0A0EF8A16D1F027
:104AD000B1EF8B1691F0772009F457C0C110AACE20
:104AE000812F8F712AC0E3EF8E1651F1F4EF8F12F0
:104AF000F2CF9091FB0292FD2FC0812F8F71772012
:104B0000D9F21BC0772081F024E02C1508F4D7CE11
:104B10001F7181E090E0012E01C0880F0A94EAF72E
:104B200090913B038927B1CF35E03C1508F4C7CEFF
:104B3000EFCF812F8F717110BFCF0E940210BFCEB7
:104B400080E0772009F4A1CF1F7181E0012E01C020
:104B5000880F0A94EAF799CF772061F0812F8F713F
:104B600092FFEBCF98E0899F90011124236020935E
:104B70003A03E3CF81E00E94EC0FA1E0AC1508F00E
:104B80009ECE82E00E94EC0F9ACECC2079F0893341
:104B900041F4BFEFE7EEF3E0B150E040F040E1F761
:104BA000EDCE8FE19EE40197F1F7E8CE812F8F7172
:104BB00083CF992009F48DCE80913A0380FD89CE70
:104BC000F70115828695869586950E940210C70189
:104BD00079DA80913A038695869586950E94E10F51
:104BE00078CEB0E0A0E0E7EFF5E20C941C348091C1
:104BF0007302807F09F050C080917202882309F40B
:104C00004BC0E091CD0387E0D82E809194038E179E
:104C100009F442C00E2F10E0ED9DF0011124EB5677
:104C2000FC4F84818823E9F1D09EE001D19ED00D14
:104C30001124FE01EB56FC4F918180916E02981376
:104C400030C0908180916D0298132BC085818111B5
:104C500028C0E280F38080916F0290917002E81A80
:104C6000F90A60E08DE692E00E94540E0E94431023
:104C7000E816F906B0F4809173028F70806180931A
:104C80007302C556DC4F88818F70806188838DE602
:104C900092E018DA0E949C08CDB7DEB7E7E00C94EA
:104CA0003834F8013196E770B0CFA6E1B0E0EBE51B
:104CB000F6E20C9414348C0186E0F801DE01519682
:104CC00001900D928A95E1F7D8011496FC90149703
:104CD0001596EC908DE6882E82E0982E80917102D8
:104CE000811128C0F11003C0FF24F3941BC0EE20F3
:104CF000F1F0C8010E942E0EF82E8823C1F087E043
:104D0000F801ADE6B2E001900D928A95E1F780914D
:104D10007102813031F480916D0290916E020E9497
:104D2000220E5FDF8F2D6696EFE00C943034C801C1
:104D3000C9D9DACFF801A0805180C280D38060E069
:104D40008DE692E00E94540EB090720280916F0244
:104D500090917002BB2009F4C6C03601681A790A26
:104D600060E08DE692E00E94540E0E9443106816A7
:104D7000790608F099C0FF2009F4B6CF809173023C
:104D8000382F307F20916E02D80111969C91119797
:104D900031114CC0FE2C291313C020916D029C913F
:104DA00029130EC0E1101CC18F70806180937302C3
:104DB0008DE692E087D980917302F8018683B2CFA5
:104DC000E1100EC1652D8A2D0E943704882309F455
:104DD000E6C0CE0101960E940C108B8182FFDFC0DD
:104DE0008DE692E06FD987E0EDE6F2E0DF011D92FB
:104DF0008A95E9F7F12C96CF2A5F2F70223070F058
:104E0000C80160D9EB2CEAC0992319F0882309F472
:104E1000E5C0805E883008F4E1C0F2CF803F08F43E
:104E2000DDC0815F833008F4D9C0EACF291315C0F3
:104E300020916D029C91291310C0E1100EC01696AE
:104E40008C93C8013FD987E0F801ADE6B2E001904C
:104E50000D928A95E1F7FB2C65CFC8010E942E0EBA
:104E6000882309F464CFEE2009F461CF80917302A6
:104E7000803280F020916D0230916E023A83298356
:104E8000DC82CB82909171029D831E828F83CE0142
:104E9000019618D987E0F801ADE6B2E001900D92D5
:104EA0008A95E1F79EDE20CF80917302982F907F44
:104EB00009F496CFFF2009F417CF20916E02F80174
:104EC00091812913CACF20916D0290812913C5CFFA
:104ED000E110C3CF8683C801F5D887E0D4011D92C5
:104EE0008A95E9F7B8CF5601A81AB90A60E08DE6AD
:104EF00092E00E94540E0E944310A816B90608F0D2
:104F000048C0FF2009F4F0CEFE2CEE2009F40FCFAC
:104F100090916E02F801818198132EC090916D02DC
:104F20008081981329C080916F0290917002C81AF5
:104F3000D90AF8ECCF16D104B0F48091730280FD49
:104F400012C0982F907F79F0D80116968C931697FF
:104F5000903F39F0982F907F905F8F70892B169635
:104F60008C93C801AFD887E0F801ADE6B2E00190BC
:104F70000D928A95E1F7D6CEC8010E942E0E8111BE
:104F800089CF80917302816080937302C8019AD89F
:104F9000C9CE87E0F40111928A95E9F72BCF652DF0
:104FA0008A2D0E943704E82E8111BCCEA98A5A8A24
:104FB00089899A890E94220E292F22952F70903478
:104FC00008F01ACF9F70223008F41ECF992309F4FD
:104FD00020CFF8019681907F09F01BCFFE2CA2CE46
:104FE0008091730281608093730204CFABE1B0E0E3
:104FF000ECEFF7E20C9420344E8B5F8B688F798F47
:105000008A8F9B8F9111109275021D8A86E0FE0196
:105010007696DE011F9601900D928A95E1F78B89B5
:10502000882351F061E0CE010F960E94540E61E09A
:10503000CE010F960E94540E87E0FE013F96DE01DE
:10504000189601900D928A95E1F7CE0108962DDE13
:1050500081110CC087E0FE013896DE0111960190A7
:105060000D928A95E1F74C8541110BC017E08091B4
:10507000CD0390919403891334C06B96E3E00C94B4
:105080003C342091940330E0C90101968770992740
:105090005091CD0358171906A1F04D8397E0929FC8
:1050A000D001939FB00D1124AB56BC4FFE01319639
:1050B00001900D929A95E1F7809394030E949C08C9
:1050C000D5CF10927F030E94D814109294031092AF
:1050D000CD0387E0EDE6F2E0DF011D928A95E9F766
:1050E000C5CF819FC00111248B569C4FDEDD8823E4
:1050F00021F28091CD0390E00196877099278093EB
:10510000CD03B5CFA6E0B0E0E8E8F8E20C941F3498
:105110000E94B3148C0180917E0290917F028017CF
:10512000910779F019821A820E94B314682F49817D
:105130005A81792F80E090E059DF10937F0200932D
:105140007E022696E4E00C943B341F921FB61F9219
:1051500011248F939F93AF93BF9380917903811113
:1051600013C080917A0390917B03A0917C03B0914E
:105170007D034196A11DB11D80937A0390937B031B
:10518000A0937C03B0937D03BF91AF919F918F91CA
:105190001F901FBE1F901895CF93DF93EC010E94C4
:1051A000B3148C1B9D0BDF91CF910895CDB7DEB763
:1051B000C655D1090FB6F894DEBF0FBECDBF85B777
:1051C000806885BF85B7806885BF84B7877F84BFC7
:1051D0000FB6F894A8958091600088618093600074
:1051E000109260000FBE80E890E00FB6F8948093B4
:1051F0006100909361000FBE81E08093A5018FE272
:1052000097E090930B0280930A020E9455040E943B
:10521000F6048091E20084608093E20078948091AB
:105220008A038823A1F01091E9001F709091EC008F
:10523000892F817090FD80E8182B1092E9008091F1
:10524000E80083FD0E94FC141F701093E90082E0C7
:1052500084BD93E095BD9AEF97BD80936E00109248
:10526000EB021092EC021092ED021092EE0288EC2A
:1052700090E02091E300122F111F1127111F27FD2D
:105280000CC0AFE3BCE91197F1F700C00000019733
:1052900081F70E94550410928A0310937303549867
:1052A0005C9A879A8F98B5E0BA95F1F7000089B1BA
:1052B0008295817087988F9AE0EAEA95F1F780935A
:1052C0007403809300018091730381110E94A932BD
:1052D000809100018091000194E0811190E0909311
:1052E000F80284E0891B8093F70284EF0E945F0735
:1052F00085EF0E945F0786EF0E945F0787EF0E949D
:105300005F0704EE11E0D8018D918D018F3F11F000
:105310000E945F07B1E00A3E1B07A9F788E0E6E0BC
:10532000F3E0DF01082F1D920A95E9F7EFEEF2E0B6
:10533000DF011D928A95E9F790E080E00E941B351D
:10534000833E9E4F49F163EE7EEF90E080E00E9445
:105350003A3560E082E090E00E94203581E0809361
:10536000F90261E083E090E00E94203560E074E1A2
:1053700084E090E00E943A350E94860D40E050E0C3
:10538000BA018FE090E00E94323540E050E0BA016F
:1053900083E190E00E94323582E090E00E940E3579
:1053A0008093FC0284E090E00E941B359093FB0206
:1053B0008093FA0283E090E00E940E350E9410096B
:1053C00080913B030E94B40F80917303882309F4FA
:1053D0008FC180E080935C0380E88093D00359D72D
:1053E0006BE070E089ED91E00E947C0E882309F467
:1053F00045C080915C0365E070E081FD7BC184ED78
:1054000091E00E947C0E8823C9F16DE070E082EC8F
:1054100091E00E947C0E882389F10E94BC0565966C
:105420006CAF7DAF8EAF9FAF6597DC01CB01805A2B
:105430009541AF4FBF4F80935E0390935F03A0935E
:105440006003B0936103E3EDF3E080E092E0DF01FD
:105450008C011D9201501040E1F7F093DA05E093C2
:10546000D9058FEF9FEF9093D2038093D10381E012
:10547000809365038093620310925D0380917303B0
:10548000811102C00E94AC320E946E13882309F47D
:1054900034C183E080932803539A5B98809173030F
:1054A00081112EC086E197E09093480180934701D7
:1054B0002EE030E030934301209342018EE290E0F1
:1054C00090934601809345014BE157E05093500182
:1054D00040934F0130934B0120934A0190934E012A
:1054E00080934D0148E652E1509358014093570193
:1054F00030935301209352019093560180935501AC
:1055000090E080E00E941B35833E9E4F09F04CC026
:105510008FE090E00E941635F62E172F082F829507
:10552000869586958370990F990F982B9B3559F026
:10553000F12C10E000EC40E050E060EC76E18FE010
:1055400090E00E9432358F2D8F770E945112FF1C00
:10555000FF24FF1C612F6370660FF62AF09278011A
:1055600012FB882780F90E945A0B812F887F09F44B
:10557000C6C0169516951695212F30E02F5F3F4F28
:1055800042E3429FC001439F900D11240E944C0BA7
:10559000802F837080937901069506950F700B30EC
:1055A00008F00AE000931603CE0101960E940C1049
:1055B0008C8190918C01891721F080938C010E943D
:1055C0003D0B8D819E810E944C0B8B8186FB882731
:1055D00080F991E089270E945A0B8F8180936501A1
:1055E00089E591E09093CF038093CE0386E093E02A
:1055F00028E0280F67962FAF67976E0133E0C30E40
:10560000D11C7724739480918A0310E400E142E175
:10561000F42E853009F4B1C00E94B81E3DEFE32E90
:1056200032E0F32E06E013E08AEE91E063969FAF3E
:105630008EAF639725E033E05C01C801F70151911B
:10564000DC014D91CD01D5016D915D0146232E17F1
:105650003F0709F49EC0541791F3B0917303669607
:10566000BFAF66979AEEA92E91E0B92E26E0822E62
:1056700023E0922E512CF40161904F01D5018D91C0
:105680005D016822F70121907F01261441F1262453
:10569000412C33243394822D8321C9F06696FFADCB
:1056A0006697FF23A1F049825A820E94B3149C831B
:1056B0008B8321E02D8391E0862D832109F490E0F6
:1056C0009E8349815A816B817C818D818FDC4394DB
:1056D000330C36E04312DFCFF701319760825394E9
:1056E00048E05412C8CF0E947807FF24F39455C0B5
:1056F00082E070CE8FEC91E084CE81E0CBCE8AE860
:1057000092E044CF80918A03843039F10E94890E5F
:105710000E94141C1092790348E150E00FB6F894EF
:10572000A895409360000FBE1093600083B7817FFF
:10573000846083BF83B7816083BF7894889583B783
:105740008E7F83BF0FB6F894A89580916000886122
:1057500080936000109260000FBE0E94B81EAAEEF7
:10576000B1E0E6E0F3E081919D91892309F015C451
:1057700067965FAD67975E13F6CF80918A03853099
:1057800009F4C0CF10927F030E94D8140E946C06C7
:1057900043CF541362CFB6DCF12C0E94141C882333
:1057A00039F00E9478070E94E5190E94A30E04C0F8
:1057B0000E94E519F110F9CF86E0EDE6F3E0DE0195
:1057C000119601900D928A95E1F710926F03109255
:1057D000700310927103109272038B819C81892B4C
:1057E00009F449C0E0906B03F0906C030E94B3147D
:1057F0009C012E193F0990916603992309F4EFC388
:1058000025313105C0F19F3F19F09F5F90936603EA
:10581000FB80FF2059F00E94A1069FEF1F140CF49B
:1058200091E0899F802D112480936F03FC80FF20DD
:1058300059F00E94A1069FEF1F140CF491E0899F7C
:10584000802D11248093700380916F03882399F039
:10585000F0907003FF2079F00E94C106882309F4BC
:1058600038C180936F038F2D0E94C106882309F4ED
:1058700033C1809370038D819E81892B09F449C0C7
:10588000E0906903F0906A030E94B3149C012E1902
:105890003F0990916703992309F49CC32135310591
:1058A000C0F19F3F19F09F5F90936703FD80FF2039
:1058B00059F00E947F069FEF1F140CF491E0899F1E
:1058C000802D112480937103FE80FF2059F00E94E7
:1058D0007F069FEF1F140CF491E0899F802D112407
:1058E0008093720380917103882399F0F090720382
:1058F000FF2079F00E94C106882309F4F0C080934C
:1059000071038F2D0E94C106882309F4EBC0809398
:105910007203BE016F5F7F4F8DE693E00E94DC054E
:1059200081110CC080916F0390917003892B90912D
:105930007103892B90917203892B11F00E94BF147F
:1059400086E0FE013196ADE6B3E001900D928A95B6
:10595000E1F70E946C0690910503891721F080936E
:1059600005030E94BC0580918A03843009F4BDC000
:1059700080917303882309F446CE0E94BC05462F0C
:10598000572FBC0180911D0381113EC080911903E6
:1059900090911A03A0911B03B0911C038A019B01F3
:1059A000081B190B2A0B3B0BD901C801843F9140FE
:1059B000A105B10548F14093190350931A03609370
:1059C0001B0370931C038091170390911803019699
:1059D000909318038093170319828E010F5F1F4F56
:1059E00021E050E040E060E088E00E94BA108823A7
:1059F00059F081E080931D03809367019981911193
:105A000001C080E08093680180916801882309F4D7
:105A1000F8CD0E94BC054B015C0180911E03909162
:105A20001F03A0912003B0912103A5019401281B1D
:105A3000390B4A0B5B0BDA01C9010497A105B105CB
:105A400080F119821A821B821C828E010F5F1F4F08
:105A500024E050E040E060E089E00E94BA10882332
:105A6000C1F069817A8180916D0190916E010E94EF
:105A70002A0B90936E0180936D016B817C818091E4
:105A80006F01909170010E942A0B90937001809396
:105A90006F0180921E0390921F03A0922003B09288
:105AA000210380917201882309F4ABCD80917101AB
:105AB000898310E000E020E0AE014F5F5F4F61E0BE
:105AC0008AE00E94BA10882309F49BCD10927201DB
:105AD00098CD70926F03C7CE70927003CCCE709247
