:10000000F5C4000010C500000EC500000C941233AA
:100010000AC5000008C5000006C5000004C50000B0
:1000200002C5000000C500000C94AA190C946619C2
:100030000C948929F8C40000F6C40000F4C4000040
:10004000F2C40000F0C40000EEC40000ECC40000E4
:10005000EAC400000C94921AE6C40000E4C4000054
:10006000E2C40000E0C40000DEC40000DCC4000004
:10007000DAC40000D8C40000D6C40000D4C4000014
:10008000D2C40000D0C40000CEC40000CCC4000024
:10009000CAC40000C8C40000C6C40000C4C4000034
:1000A000C2C40000C0C40000BEC4000005010902B3
:1000B000A10185020901A1000509190129081500FE
:1000C0002501950875018102050109300931158165
:1000D000257F95027508810609381581257F9501D0
:1000E00075088106050C0A38021581257F95017572
:1000F000088106C0C00660FF0961A1010962150000
:1001000026FF009520750881020963150026FF006F
:10011000952075089102C005010906A1010507197E
:10012000E029E71500250195087501810295017503
:100130000881010507190029FF150026FF00950613
:100140007508810005081901290515002501950587
:1001500075019102950175039101C0616263646547
:10016000666768696A6B6C6D6E6F707172737475B7
:10017000767778797A3132333435363738393052C8
:100180004542545F2D3D5B5D5C233B27602C2E2F49
:1001900000DA0281FFD9F1DB20A4A62EAF00A0C0B7
:1001A000D30000A1C8D30000AED580A81F408D1495
:1001B0002000783C1E1E140A050001010101010106
:1001C000010101020202020202020202030303030E
:1001D00003030303040404040404040505050505DE
:1001E000060606060607070707070808080809099C
:1001F00009090A0A0A0B0B0B0C0C0C0D0D0D0E0E47
:100200000E0F0F0F101011111112121313141415D9
:100210001516161717181819191A1A1B1B1C1D1D4D
:100220001E1E1F20202122222324242526262728A3
:1002300029292A2B2C2D2D2E2F30313232333435D3
:10024000363738393A3B3C3D3E3F404142434445D6
:10025000464748494A4C4D4E4F50515354555658B5
:10026000595A5B5D5E5F616264656668696B6C6D5F
:100270006F7072737577787A7B7D7E8082838587D5
:10028000888A8C8E8F91939596989A9C9EA0A2A313
:10029000A5A7A9ABADAFB1B3B5B7BABCBEC0C2C418
:1002A000C6C9CBCDCFD1D4D6D8DBDDDFE2E4E7E9D8
:1002B000EBEEF0F3F5F8FAFDFF2223252628292A94
:1002C0002C2D2F3032333536383A3B3D3E404243B9
:1002D0004547494A4C4E5051535557595A5C5E60F8
:1002E00062646668696B6D6F71737577797B7D7F0A
:1002F00081838587898A8C8E90929496989A9C9E09
:100300009FA1A3A5A7A8AAACAEAFB1B3B4B6B8B924
:10031000BBBCBEBFC1C2C3C5C6C7C9CACBCCCDCE8C
:10032000D0D1D2D2D3D4D5D6D7D7D8D9D9DADADB6F
:10033000DBDBDCDCDCDCDCDDDDDDDDDCDCDCDCDCFB
:10034000DBDBDBDADAD9D9D8D7D7D6D5D4D3D2D23A
:10035000D1D0CECDCCCBCAC9C7C6C5C3C2C1BFBE22
:10036000BCBBB9B8B6B4B3B1AFAEACAAA8A7A5A38D
:10037000A19F9E9C9A98969492908E8C8A8987854C
:1003800083817F7D7B79777573716F6D6B6968662B
:100390006462605E5C5A5957555351504E4C4A49FD
:1003A00047454342403E3D3B3A3836353332302FA5
:1003B0002D2C2A29282625232200AF00AE2020003C
:1003C000BABB004B657920B10020C0C100BEBF00A0
:1003D000484F005654003030200020202020B1BC6F
:1003E000BD0042616C6CB100B4B500B2B300C2C3D1
:1003F000004CB6B772B100202000130012000C00B0
:1004000018001C0000002D000F000E000D000B0056
:1004100000003800370036001000110000002352A1
:10042000E700E60091222A42284114001A00080041
:1004300015001700000004001600070009000A005C
:1004400000001D001B000600190005000000E1412E
:10045000E300E20091432C0090424300420041003F
:1004600040003F0000003300D2004B00D100870263
:1004700000004400D3004E0021022F000000450080
:10048000E700E6000100005202523A003B003C0047
:100490003D00300000003E001E02230289022502BA
:1004A00000002E022F0224021F02300200008700EB
:1004B0002E0020020100010001002A000100D300EB
:1004C0000100320000003400D2005200D1002602A8
:1004D000000001004F0051005000320200000100F6
:1004E000010001000100010001002B002400250093
:1004F00026002D00000034022100220023003302D8
:10050000000038001E001F0020002D0200002900FE
:10051000270037004C0028002A000F7E0D7E0E7E3B
:1005200001000100000001000100010001000100C4
:100530000000017E047E027E037E057E0000007CBA
:10054000007E010001000100010001000A7E0B7E17
:100550000C7E010000000100010001000100087E86
:1005600000000100010001000100097E0000007C84
:10057000007E010001000100010009025B0003018F
:1005800000A0FA0904000001030101000921110182
:100590000F0122440007058103080001090401003E
:1005A00002030000000921110100012222000705B9
:1005B0008203200001070503032000010904020053
:1005C0000103000000092111010001224900070573
:1005D00084032000011201000200000008575900A6
:1005E0000200010102000114034B00650079006262
:1005F0000061006C006C00330039000000100359EA
:10060000006F0077006B0065006500730000000458
:1006100003090400000000000000002F000000009B
:100620000700070000123F123F1200242A7F2A12FF
:100630000036091E241B0018262912280000000776
:10064000000000001E214000000040211E00001498
:10065000083E08140008083E08080000003070003A
:100660000008080808080000003030000020100CC6
:100670000201001E2925231E0000223F2000002227
:100680003129292600122125251A001814123F109D
:10069000001725252518001E2525251800013109DC
:1006A0000503001A2525251A00062929291E000000
:1006B00000333300000000337300000814142222BA
:1006C0000014141414140022221414080002012926
:1006D0000502003E59555D3E003816111638003FA0
:1006E0002525251A001E21212112003F2121211E2E
:1006F000003F25252521003F09090901001E212170
:10070000291A003F0404043F0000213F210000108B
:100710002020201F003F040C1221003F2020202019
:10072000003F0204023F003F020C103F001E212147
:10073000211E003F09090906001E2129112E003F34
:10074000090919260012252529120001013F01017E
:10075000001F2020201F000718201807000F300C52
:10076000300F0021120C1221000304380403003161
:100770002925232100007F4141000001020C1020A7
:10078000000041417F00000402010204004040409B
:10079000404000000103040000102A2A2A3C003FC8
:1007A0002422221C001C22222224001C2222243F5C
:1007B000001C2A2A2A0C0000043E0505000C525297
:1007C000543E003F080404380000003D00000020B3
:1007D00040403D00003F080814220000013F200077
:1007E000003E023C023C003E0402023C001C22226D
:1007F000221C007E1422221C001C2222147E003E99
:100800000402020400242A2A2A120000021F2200E5
:10081000001E2020103E000618201806000E300C86
:10082000300E002214081422000E5050483E0022C0
:10083000322A26220008087741410000007F00008C
:1008400000414177080800180408100C000000005F
:10085000000000000000000000000000000000C0D8
:10086000F0F88C86C6E7FFFFFFFFFFFFFEFCFCF8F9
:10087000E080000000F0F0F00000C0E0F0707000D8
:100880000000000000000000000000000000000068
:100890000000000000F8F8F8000000000000000070
:1008A0000000000000000000000000F8F8F8000060
:1008B000F8F8F8000000000080E07078686C64C709
:1008C000C7C7C7C7C7E73F1F0F3FFFFFFFFFFFFFB8
:1008D0003F0F000000FFFFFF1E3FFFF3E18000001D
:1008E000F8FCFE3636363EBCB8000E3EFEF080F018
:1008F000FE3E0E0000FFFFFF060606FEFEFC700037
:10090000E6F6F63636FEFEFC000000FFFFFF0000B4
:10091000FFFFFF000000003C7F6360E0C0C0C0C07C
:10092000C0C0C0C0FFFFC06030180F030303010048
:1009300000000000000303030000000303030300A2
:10094000010303030303030301007070393F1F0712
:10095000010000000001030303030303030100007F
:10096000010303030303030100000003030300006A
:100970000303030010101000000000550000003EAB
:10098000635D5D637F417B77413E00001C22221C3A
:10099000003E0A003E0A00322A3C0026281E001CA7
:1009A0002A2C0000003F09360000001E2121000013
:1009B0000000003F0837001E2121001E2121003FBA
:1009C000090600213F2100222519001E2121003F98
:1009D0000936003F211E00213F21000F300F003E4D
:1009E000093E003F063F003F2020000011241FBEAB
:1009F000CFEFDAE0DEBFCDBF11E0A0E0B1E0ECE088
:100A0000FCE602C005900D92AE3EB107D9F726E094
:100A1000AEEEB1E001C01D92A433B207E1F70E942F
:100A2000BA290C94CB35ECCA80918E0181111DC07E
:100A300088E190918F019923D1F0909190019111CB
:100A400018C098E120912604211115C0292F209368
:100A5000890180938A01890F8F3230F410928B01C3
:100A600080938C0180938D01089586E1E2CF90E020
:100A7000E9CF96E1E7CF20E0EACFE0912304F091BF
:100A80002404309739F00284F385E02D309711F07B
:100A900060E209950895982FE0911A044091E103CE
:100AA00057E0E41302C080E008952E2F30E05E9FEF
:100AB000F0011124EE51FC4F8181681306C0808142
:100AC000981303C085818111EFCFF9013196E7704A
:100AD000E8CFE8EDF0E080818E7F80831092E20025
:100AE0001092DA001092E100A0EEB0E08C918160EB
:100AF0008C9380818F77808319BCA7EDB0E08C91B7
:100B00008E7F8C9380818F7E80831092CB0308959B
:100B10002091E4003091E50095E6A9012091EC00D8
:100B2000822F817020FF06C08091E80080FF06C000
:100B300080E008952091E80022FD1AC08091D7033B
:100B4000882389F0853089F08091EB0085FD0FC006
:100B50002091E4003091E50042175307F9F29150DB
:100B6000E1F684E0089582E0089583E0089581E04D
:100B700008958091D90387FF13C08091E80082FF18
:100B800006C08091E8008B778093E80004C08091D4
:100B9000D7038111F2CF08958091D7038823D9F329
:100BA0008091E80080FFF8CF8091E8008E77ECCF4D
:100BB000982F9093E900242F762F50E0891731F079
:100BC0007091EC002091ED005091F00021FD07C0E4
:100BD0009F5F973071F78093E90081E0089530912D
:100BE000EB003E7F3093EB003091ED003D7F309382
:100BF000ED003091EB0031603093EB007093EC002E
:100C00002093ED005093F0002091EE0027FDE0CFFF
:100C100080E00895B0E0A0E0E0E1F6E00C9441341B
:100C2000C8EDD0E088818F7E8883E7EDF0E0808199
:100C30008160808384E082BF81E08093CB038881E0
:100C40008E7F888302EE10E0F80110821092DA00A5
:100C500081EEC82ED12CF601108288818F7788838F
:100C600088818068888388818F7D888319BC1092F1
:100C7000D7031092D8031092D6031092D50390EEAA
:100C8000E92EF12CF70180818B7F80838881816040
:100C9000888342E060E080E08BDFF60180818E7F18
:100CA0008083F80180818160808380818860808377
:100CB000F70180818E7F8083888180618883CDB7B2
:100CC000DEB7E8E00C945D34FC01CB012091DF033A
:100CD0003091E0032617370790F0009729F4209110
:100CE000E8002E772093E80040E0009751F441118E
:100CF00008C08091E80082FF31C080E00895C901FA
:100D0000F3CF2091D7032223A9F12530A9F1209117
:100D1000E80023FD2DC02091E80022FDEACF2091BC
:100D2000E80020FFE2CF3091F3002091F20000971D
:100D300019F02830310558F041E02830310509F02C
:100D400040E02091E8002E772093E800CECF41913B
:100D50004093F10001972F5F3F4FE9CF8091D70378
:100D6000882341F0853041F08091E80083FFC1CFB6
:100D700081E0089582E0089583E00895089508953C
:100D8000089587E797E7909301088093000888E12A
:100D90009AE00FB6F894A895809360000FBE9093E8
:100DA0006000FFCFA4E0B0E0E8EDF6E00C9447343B
:100DB0008FB7F8942091C7033091C8034091C903BD
:100DC0005091CA0329833A834B835C838FBF698127
:100DD0007A818B819C812496E2E00C94633480912B
:100DE0008601089580912504882369F0E091230409
:100DF000F0912404309739F00190F081E02D309784
:100E000011F00995089580E00895FC01680F791F9D
:100E10008FEF91E32191822728E030E087FF09C01E
:100E2000880F892721503109C9F7E617F70791F78D
:100E30000895880FF7CFFC01EE0FFF1FE80FF91F91
:100E4000E45CFC4F6183408322830895539A0895A4
:100E5000EEE0F3E011828281846082830895CF9373
:100E600080911B0480FF04C00E948D14CF910895CF
:100E7000C0918B0180918C01C817B0F780918901D6
:100E80009C2F981B892F20E040E060E090E0D3DFAA
:100E9000CF5FF0CF0F931F93CF93DF93D82F162FF1
:100EA000042F80911B04C0918B0180FD10C0DF9145
:100EB000CF911F910F910895809189019C2F981BCC
:100EC000892F202F412F6D2F90E0B5DFCF5F8091CC
:100ED0008C01C81788F3C3DFEACFB0E0A0E0E3E7F6
:100EE000F7E00C943F34262FD72EE82FF0E0E7549C
:100EF000FE4F71110AC0E4918E2F9E2F6E2F792F15
:100F0000CDB7DEB7EAE00C945B34072F10E0E49134
:100F10004E2F56E0659F70011124CFEFD0E0C7013E
:100F2000BE010E942334822F90E0880F991F55E55F
:100F3000569F9001579F300D1124821B930B582F01
:100F4000550F580FCE01801B910BE89F9001E99F30
:100F5000300D1124932FD59ED0011124AB2FBB2728
:100F60006E01CA1ADB0AEC9DD001ED9DB00D112473
:100F70008B2F5E01A51AB108A09E6001A19ED00C26
:100F8000B09ED00C1124CD2CDD24CC19DD09EC9FB2
:100F90008001ED9F100D112463307105D1F05CEFDD
:100FA000E51653E0F50670F461307105B1F062307A
:100FB0007105B9F04FEFE416F10408F09FCF832FCD
:100FC000912F9CCF6430710579F066307105B9F3CB
:100FD00095CFE32F9B2F842F91CFEB2F832F942F2F
:100FE0008DCF812FE32FFBCF8E2FE12F87CF982F2F
:100FF000762F842F20911B0420FF0AC0473908F068
:1010000086E9692F6ADF962F672F482F892F42CFF5
:101010000895CF93DF93EC01EBE1F4E0438162812B
:101020008C81E5DF8C818F5F8C83DF91CF91089578
:10103000CF93DF93EC01EC81F0E0E754FD4F449156
:10104000EBE1F4E062818181D2DF8C818F5F8C8360
:10105000DF91CF91089590917901882341F09F5FAE
:101060009093790110927601109275010895915034
:10107000F7CFEEE6F1E0828591E08927828710863E
:101080001782089580917701811114C080917901B0
:10109000811110C08091780181110CC090910703DB
:1010A00096959695969581E020916F01921380E038
:1010B0008170089581E0FCCF80918E01F9018083D9
:1010C000B3CCCF93DF93EEE8F1E083819481A581E7
:1010D000B681E90188839983AA83BB831482138232
:1010E00016821582DF91CF91089580E0089563E024
:1010F00070E086E692E089DE90916502891318C05F
:10110000E0916602EC30A4F488E0E802F0011124DA
:10111000EF5FFE4F0680F781E02D309749F029E818
:1011200032E04091680269E672E0809167020995B9
:101130000895E0E5F2E0878980933101808D809306
:1011400044010895F894E82FE295EF70F0E041A192
:101150008F7021E030E0B90102C0660F771F8A95D9
:10116000E2F7CB01962F9095942391A392A1892B1E
:1011700082A378940895A4E0B0E0E1ECF8E00C9448
:10118000473480912504882369F00CDE69837A83D3
:101190008B839C8369817A818B819C812496E2E098
:1011A0000C946334FFDD69837A838B839C83809105
:1011B000BE029091BF02A091C002B091C1022981EC
:1011C0003A814B815C81280F391F4A1F5B1F29839D
:1011D0003A834B835C83DECF811522E59207D0F5FD
:1011E000811530E5930708F0B2C0883E9105D8F428
:1011F000803E9105B8F4853A910558F48430910504
:1012000088F431E020E0019709F030E0832F922F3D
:1012100008959C012D5C31092331310508F473C018
:1012200090E080E00895811540E4940780F48115F2
:1012300050E2950708F0A5C09C013A9521153F4161
:1012400078F720E0392FA901482BCA0108959F7033
:10125000906A0895803852E59507B8F5803622E502
:10126000920708F059C0803432E59307C8F4803201
:1012700042E5940708F049C0282F2695269550E2AC
:10128000259F90011124482F437081E090E002C017
:10129000880F991F4A95E2F7822B932B9D6808953A
:1012A000282F26952695277040E2249F900111242F
:1012B000482F437081E090E002C0880F991F4A9543
:1012C000E2F7822B932B9C680895803C52E59507AA
:1012D00060F4282F2F71803A924598F5822F90E084
:1012E000982F8827846F906A08959C01205C32456E
:1012F0002032310508F094CF982F882788279F71D6
:10130000806F906A0895906508958F7190E0982F8E
:101310008827816F906A0895282F26952695277033
:1013200050E2259F90011124482F437081E090E006
:1013300002C0880F991F4A95E2F7822B932B9A6877
:101340000895822F90E0982F8827906208959C013D
:1013500095E0369527959A95E1F72F7030E0322F7A
:101360002227482F4F7150E084FF06C084E0440FCD
:10137000551F8A95E1F75527C901842B952B906954
:1013800008959F71E2CF982F90958091CC03892387
:101390008093CC03089580911A049091E1039813EF
:1013A00001C008958F5F8770FACF292F983078F5A4
:1013B000863068F590E036E0239F800D911D112462
:1013C000682F677023E0969587952A95E1F7FC01D1
:1013D000EE0FFF1FE80FF91FEF5DFD4F50E040E0FB
:1013E00080E0219130E0062E02C0369527950A94C0
:1013F000E2F721703327042E01C0220F0A94EAF786
:10140000822B4F5F5F4F4330510559F7089580E0BD
:101410000895292F983090F5863080F590E036E0D9
:10142000239F800D911D1124282F277041E001C0BA
:10143000440F2A95EAF723E0969587952A95E1F7D8
:10144000FC01EE0FFF1FE80FF91FEF5DFD4F90E06D
:1014500080E070E05191DF0111979B01082E02C0DE
:10146000369527950A94E2F72170219525272423A4
:1014700025272C9301968330910561F70895809379
:10148000CC020895282F92959F70963091F060F4C9
:10149000925F9F70923030F481E0203F81F030F411
:1014A000283E30F080E008959A5FF3CF243FD1F7D3
:1014B000089581E0283EE0F3213FA1F7F9CF089598
:1014C000982F82958F7011F0982F84E0292F269500
:1014D000269511F08E5F922F969509F08F5F0895F3
:1014E0009C019A9581159F4150F5D901AA27B170A9
:1014F000F901EE27F270B90166277470A90144273B
:10150000587034FF0EC080E1AB2B09F480E0EF2B64
:1015100009F08062672B09F08064452B89F08068B0
:10152000089581E0AB2B09F480E0EF2B09F0826095
:10153000672B09F08460452B19F08860089580E0DE
:101540000895CF93C82F80919B018C1749F02ADC16
:1015500060939C0170939D0180939E0190939F01E5
:10156000C0939B01CF910895CF93C82FA9DF982FE7
:1015700081E0933009F080E0E4DFC0931103CF9164
:10158000089521E030E001C0220F8A95EAF7209506
:10159000809111038223E8CF9091070380958923DE
:1015A00080930703282F277061F4891751F09091D9
:1015B000CE0292FF06C0869586958695E2DF109250
:1015C0000703089521E030E001C0220F8A95EAF771
:1015D00080911103822BC8CFACE0B0E0E2EFFAE0DB
:1015E0000C9439346C017B01DC011296AD90BC90F7
:1015F0001397ED91FC91222309F464C00091A0019E
:10160000011101C004E00150110B81E090E04C0198
:10161000002E02C0880C991C0A94E2F7CF01B40195
:101620000E9496349B01CB01002E02C0880F991FA7
:101630000A94E2F7E81BF90BD601ED93FC93C50180
:10164000B4010E949634CB01002E02C0880F991F6E
:101650000A94E2F7A81AB90AF601B382A2826138A5
:10166000FFEF7F0704F160387105FCF4D701159690
:101670006C932138BFEF3B07D4F020383105CCF410
:10168000822F8195F7018483442319F06195658346
:1016900024838091A101882371F0813081F02C9600
:1016A000E0E10C94553461E8E1CF6FE7DFCF21E84A
:1016B000E7CF2FE7E5CFD70115961C92F0CFF701C2
:1016C0001482EDCF21E02427411106C0B194A194EA
:1016D000B108F195E195F109022F10E044E0249F53
:1016E00090011124D901A35FBD4F8D919C91119759
:1016F000AC0197FF02C04D5F5F4F559547955595DB
:101700004795A41AB50AA80EB91EAD92BC92D9018C
:10171000A35FBD4F12968D919C91AC0197FF02C0C3
:101720004D5F5F4F5595479555954795BF01641B94
:10173000750B680F791F7A836983F901E35FFD4FA9
:10174000738362832081318137FF02C02D5F3F4F59
:10175000359527953595279589819A8197FF03C0FF
:1017600003969A83898369807A80759467947594C7
:1017700067945090ED0253E0000F111F5A95E1F766
:101780005520A9F0A90137FF04C044275527421B63
:10179000530BC30177FE04C0882799278619970940
:1017A000481759070CF4AC0141155105B9F4F8017B
:1017B000E350FE4F1082118212821382148215822E
:1017C00016821782D70112962C93129713966C9259
:1017D000F601118210821382128261CF03501E4FD4
:1017E000DA010E94CB3469837A838B839C83F8016E
:1017F00080819181A281B38189809A80AB80BC80F5
:10180000880E991EAA1EBB1E89829A82AB82BC8258
:101810009A01D3010E94CB346D837E838F83988796
:1018200084819581A681B7812D813E814F81588524
:10183000280F391F4A1F5B1F2D833E834F83588714
:10184000652D70E080E490E00E9496344B01770FA4
:10185000AA08BB0869817A818B819C81A5019401CA
:101860000E94A93429013A01D8016D937D938D938B
:101870009C9313976D817E818F819885A50194013A
:101880000E94A93429833A834B835C83A501940188
:1018900069817A818B819C810E946E344B015C014D
:1018A0008D819E81AF81B88588199909AA09BB09E4
:1018B000F80184839583A683B78321E83FEFF1E89D
:1018C0004F16FFEF5F066F067F063CF020E84216DA
:1018D000510461047104E4F4920149815A816B81DD
:1018E0007C8191E8692E77247A9441388FEF5807EC
:1018F000680778070CF466CF69807A804038510514
:10190000610571050CF45ECF8FE7682E712C5ACFFC
:101910002FE730E0E2CF8F708A3010F4805D0895B9
:10192000895A089520E287FF02C081952DE23AE0AE
:10193000632F0E948934905D9093FB0181110BC04D
:101940002093FA0120E22093F90120E22093F8018C
:1019500088EF91E00895632F0E948934905D909301
:10196000FA01882381F3805D8093F901EFCFAC0108
:10197000860F971F57FD07C077FD04C097FF02C071
:101980008FEF9FE7089577FFFDCF97FDFBCF80E0B6
:1019900090E80895E7E7F1E083E0DF011D928A9582
:1019A000E9F7E3E7F1E084E0DF011D928A95E9F7CA
:1019B00008959C01809170019091710182179307A5
:1019C00029F03093710120937001E4CF0895909134
:1019D0006E01981719F080936E01DCCF0895CF93B4
:1019E000909102038091FA02981323C0809103031F
:1019F000882321F09091FB0289131BC0809104037E
:101A0000882321F09091FC02891313C08091060372
:101A1000882321F09091FE0289130BC09091050359
:101A2000992329F081E02091FD02291303C080E071
:101A300001C081E0C82FC17080FF11C0E091230474
:101A4000F0912404309759F00680F781E02D30970B
:101A500031F082E08093010381E093E00995909159
:101A6000020386E0E1E0F3E0DF01282F1D922A95D2
:101A7000E9F790930203A9EFB2E001900D928A95E5
:101A8000E1F781E0C11103C0911101C080E08170D4
:101A9000CF9108952FE2280F283070F481E090E074
:101AA00001C0880F2A95EAF720910203662329F0E6
:101AB000822B8093020393CF089580958223F9CFE0
:101AC000CF93DF93282F81E02A3019F02D3029F4AD
:101AD00080E088D0DF91CF91089580913006909179
:101AE000310636E0FC01AAE2B6E001900D923A958B
:101AF000E1F730EE320F343A08F458C026E0FC012A
:101B000011922A95E9F7C0913006D091310646E04E
:101B100050E0BE018AE296E00E945E359E012A52A4
:101B20003440892B41F1C90145E0969587954A9546
:101B3000E1F741E050E0BA0102C0660F771F8A95D5
:101B4000E2F7CB016091280470912904862B972B32
:101B5000B9016B5F7F4FE5E076956795EA95E1F710
:101B600002C0440F551F6A95E2F7842B952B909382
:101B70002904809328042A5F3F4F40912704642F53
:101B800070E0C9010E942334481B463010F4240F32
:101B9000311D211572E0370710F030E020E0265D9E
:101BA0003B4F309331062093300694CF2052330BB5
:101BB00046E0429FB001439F700D11246D5E794F46
:101BC00046E050E00E9448359ECFCF93DF93EC0172
:101BD000FE018491811103C0DF91CF91089570DFE0
:101BE0002196F6CFCF93382FE0913006F091310651
:101BF000EA52F44020912704622F70E0CF010E9446
:101C00002334281B822F332359F066E00E947D3451
:101C1000C82FC15010F4CF91089580E251DFF9CF61
:101C20009F01280F311D2115324018F080E0F0E0AF
:101C3000E0E08E0F9F2F911D865D9B4F90933106A4
:101C400080933006E8CF8091CC0390913B02892BA2
:101C500090913A02992389F0892B90E022EF31E0AC
:101C6000F90140812F5F3F4F41119F5F41E0283FC5
:101C70003407B1F7911110923A028093F00148E0D5
:101C800050E06CE372E080EF91E00E945E35892BBA
:101C9000B9F088E0E0EFF1E0ACE3B2E001900D9242
:101CA0008A95E1F7E0912304F0912404309741F004
:101CB0000280F381E02D309719F080EF91E00995D3
:101CC0000895E2EFF1E086E0DF011D928A95E9F7E1
:101CD00010923B02B8CFAAE2B0E0E1E7FEE00C943C
:101CE000463489ED93E0FC0101962091F1002083B8
:101CF00023E0813E9207B9F78091DA03893009F435
:101D00005BC0C8F4823009F4B8C0833009F487C0DE
:101D1000813099F18091E80083FF3BC18091D90324
:101D20009091DA039A3008F034C1E92FF0E0E353E0
:101D3000FA4C0C94C5348A3009F48EC08B3051F7BC
:101D40008091D903813231F78091DD039091DE03D8
:101D5000892B01F78091E800877F8093E8000E943B
:101D6000B90581E09091DB03911101C080E080937F
:101D700087011092CC03A5DFCDCF8091D903813AA2
:101D800049F68091E800877F8093E8008091DD0329
:101D90009091DE03892B61F468E08DEC93E070E0B4
:101DA0000E9464068091E8008B778093E800B2CFB0
:101DB00060E090E080E0F3CF8091D903813209F0B8
:101DC000A9CF8091DD039091DE038D7F892B09F0EF
:101DD000A1CF8091E800877F8093E8008091E800A0
:101DE00082FF18C09091F3008091F200029731F4C5
:101DF0008091F100813011F0863021F48091F10062
:101E0000809386018091E8008B778093E8000E94A0
:101E1000B90580CF8091D7038111E0CF7BCF80912E
:101E2000D903813A09F076CF8091DD039091DE03EA
:101E3000892B09F06FCF8091E800877F8093E800BD
:101E40008091E80080FFFCCF809187018093F100B2
:101E50008091E8008E77D9CF8091D903813209F043
:101E600059CF8091E800877F8093E8000E94B905F0
:101E70008091DC03809385014DCF8091D903813A15
:101E800009F048CF8091E800877F8093E800809137
:101E9000E80080FFFCCF80918501D8CF803899F091
:101EA000823809F076C08091DD038F70873008F0AA
:101EB00070C08093E9008091EB0085FB882780F952
:101EC0001092E90006C08091D5039091D60391113C
:101ED00082609091E800977F9093E8008093F100F2
:101EE0001092F1008091E8008E77B7C1882309F441
:101EF000A4C1823009F04DC08091DB038111A8C1DB
:101F00008091DD038F702FEF280F263008F041C03D
:101F10008093E9002091EB0020FF9AC1933031F4C7
:101F20008091EB0080628093EB0092C19091EB0076
:101F300090619093EB0021E030E001C0220F8A9580
:101F4000EAF72093EA001092EA008091EB008860A3
:101F5000EACF81111EC01091DB031F778091E3004F
:101F60008078812B8093E3008091E800877F8093C5
:101F7000E8000E94B9058091E80080FFFCCF8091C5
:101F8000E30080688093E30082E0111183E0809396
:101F9000D7038091E80083FF0AC08091E800877F23
:101FA0008093E8008091EB0080628093EB00AA961A
:101FB000E3E00C9462348058823058F74091DB03A0
:101FC0005091DC034C3D83E05807A1F583E08A8300
:101FD0008AE289834FB7F894DE01139620E03EE051
:101FE00051E2E32FF0E050935700E49120FF03C04B
:101FF000E295EF703F5FEF708E2F90E0EA30C0F017
:10200000C7968D939D932F5F243159F74FBF8091D1
:10201000E800877F8093E8006AE270E0CE010196D5
:102020000E9464068091E8008B778093E800B1CF2E
:10203000C096E7CF8091DD039091DE03252F3327F3
:102040002330310509F44AC078F52130310509F40F
:1020500079C08BE590E0EAE7F5E02230310509F040
:1020600098CF2091E800277F2093E8002091DF039C
:102070003091E0038217930708F49C0140E021159A
:10208000310509F064C0411162C08091E80082FD11
:10209000C9CF8091D703882329F2853019F2809126
:1020A000E80083FFF2CFBECF2132310509F43BC0F7
:1020B0002232310509F06DCF8330910508F069CFE8
:1020C000FC01EE0FFF1FEF51FE4F0190F081E02D5C
:1020D00082529E4FDC018C9190E011C0CA01992779
:1020E000413089F082309105B1F0892B09F051CF50
:1020F000EFE0F6E0E4918E2F90E0EFE0F6E000975D
:1021000009F447CFAECFEDEFF5E0E4918E2F90E0EC
:10211000EDEFF5E0F4CFE7EEF5E0E4918E2F90E0FF
:10212000E7EEF5E0ECCF8330910508F032CF880F71
:10213000991FFC01E951FE4F0190F081E02D89E0EB
:1021400090E08FCF82E190E0E5EDF5E08ACF8091DD
:10215000D703882309F466CF853009F463CF8091D3
:10216000E80083FD5FCF8091E80082FD8ECF8091F3
:10217000E80080FF84CF9091F3008091F200211558
:10218000310519F08830910550F041E0089709F0C9
:1021900040E08091E8008E778093E80070CF449112
:1021A0004093F1003196215031090196E8CF8038F3
:1021B00009F0EFCE8091E800877F8093E80080915E
:1021C000D8038093F1008ECE8111E3CE1091DB0312
:1021D000123008F0DECE8091E800877F8093E8001F
:1021E0001093D8030E94B905112311F084E005C0B3
:1021F0008091E30087FDFACF81E08093D70342E02E
:1022000061EC81E00E94D80542E261EC84E00E942A
:10221000D80542E261EC82E00E94D80542E260EC1F
:1022200083E00E94D8058091D703843021F081E0BB
:1022300080938801AECE82E0FBCF8091DB038130BA
:1022400009F0A7CE81E0933009F080E08093D603B7
:102250001092E9008091E800877F8093E8000E9457
:10226000B90597CE882339F0809590913B02892358
:1022700080933B02E8CC0895882331F090913B0293
:10228000892B80933B02DFCC0895882311F07BD803
:10229000DACC0895882331F09091CC03892B809378
:1022A000CC03D1CC0895882329F19CEF980F913A63
:1022B00070F4E2EFF1E028EF31E09191891303C06F
:1022C000DF0111971C922E173F07B9F7BCCC90E2A3
:1022D000980F983048F4877091E001C0990F8A9563
:1022E000EAF7892F50D8F2CF93E3980F933110F487
:1022F00060E0D0CB08950F931F93CF93C82F88230E
:1023000039F18CEF8C0F813AA0F502EF11E088EFE4
:1023100091E0F8012191C217F9F08E179F07D1F7CC
:10232000EFEF80E0D8019D918D01C91781F0EF3F5B
:1023300019F4911101C0E82F8F5F863099F7EF3FB4
:1023400031F00E2E000CFF0BE051FE4FC2837BDC00
:10235000CF911F910F910895E2EFF1E02191C21307
:1023600003C0DF0111971C928E179F07B9F76BDC32
:10237000D7CF80E28C0F883068F4C77021E030E05E
:1023800001C0220FCA95EAF78091CC03822B80937B
:10239000CC03DDCF83E38C0F8331D0F661E08C2F4B
:1023A00079DBD6CF0F931F93CF93DF93EC01FC0122
:1023B00001900020E9F78F0101501109C017D107E2
:1023C00028F0DF91CF911F910F910895899178DBCB
:1023D000F5CF0F93CF93DF93CBE1D4E048815981C0
:1023E0006A817B8188E090E00E94A835288139814C
:1023F0004A815B816C817D818E819F8100E20E9498
:102400000B35622F83E290E00E949635DF91CF91E9
:102410000F9108950F931F93CF93DF93D82F162F0B
:10242000C42F022F80911B0480FF36C020911C0412
:102430002D1308C090911D04961304C090911E04A2
:10244000941729F090911003926090931003E82F55
:10245000E695E695F0E0E353FE4F908190930E03EE
:102460008C7F8430F1F48C2FC73908F086E96D2F0A
:10247000712F0E946D07962F672F482F892F0E947A
:102480004A07D0931C0410931D04C0931E0400231C
:1024900019F08BE194E09DDFDF91CF911F910F91B7
:1024A0000895923019F4C0911E04EBCF963049F78D
:1024B000D22FE7CFEBE1F4E043812FE0421B08F499
:1024C00040E021E062818181A5CFEBE1F4E043812E
:1024D0002FE0420F08F44FEF21E0628181819ACF13
:1024E000EBE1F4E0628121E1621B08F460E021E0AD
:1024F000438181818FCFEBE1F4E0628121E1620FC2
:1025000008F46FEF21E04381818184CFEBE1F4E0B7
:10251000818121E04381628181517CCFEBE1F4E054
:10252000818121E0438162818F5E74CF80911F049D
:10253000882319F0815080931F048BE194E049CFE8
:1025400080911F04833018F48F5F80931F048BE108
:1025500094E03FCFEBE1F4E080818E7F8083CF0178
:1025600038DF0E942807EEE0F3E0828181608283F9
:102570000C942F07EBE1F4E089E080838AEA818301
:102580008FEF828384E683831482EEE0F3E082811E
:10259000836082838BE194E01CCF1F93CF93DF9302
:1025A000962F122F632F8430D8F49830C8F4463019
:1025B000B8F4C42FD0E0CC0FDD1F2CE0929FC00DEB
:1025C000D11D112490E6899FC00DD11D1124CE018B
:1025D00085960E949635612FCE0186960E9496358B
:1025E000DF91CF911F910895AF92BF92CF92DF926A
:1025F000FF920F931F93CF93DF93B12CA12C00E098
:10260000650110E012C0FE01259134914F2D612F1C
:10261000802FC3DF2296F39486E0F812F4CF86E091
:10262000C80ED11C1F5F183039F0E601CC0FDD1F3A
:10263000C650DC4FF12CE7CF0F5F80E3A80EB11C32
:102640000430F1F6DF91CF911F910F91FF90DF9051
:10265000CF90BF90AF9008954F925F926F927F920C
:102660008F929F92AF92BF920F93CF93DF9300D040
:1026700000D0CDB7DEB788E090E00E948C352B010A
:102680003C01ABE1B4E06C9350921C0480931D04B8
:1026900070921E0410921F041092200410922104C4
:1026A0001092220483E290E00E948435282F30E0CB
:1026B00040E050E060E070E080E090E000E20E94E6
:1026C000F0342429352946295729EBE1F4E0208309
:1026D00030931C0440931D0450931E0460931F0408
:1026E0007093200480932104909322040F900F9004
:1026F0000F900F90DF91CF910F91BF90AF909F906F
:102700008F907F906F905F904F9008950F931F93DD
:10271000CF93DF93843030F5683020F5463010F5E4
:10272000C42FD0E0CC0FDD1F2CE0629FC00DD11D67
:10273000112430E6839FC00DD11D1124CE01859652
:102740000E948435082F10E0102F0027CE018696B6
:102750000E9484359801282BC901DF91CF911F91E8
:102760000F91089590E080E0F8CF462F672F7830E2
:1027700028F4463018F4843008F4C8CF80E090E0A4
:102780000895B0E0A0E0E7ECF3E10C9442347C0162
:10279000009111038091CC02082BC3E0D0E010E03F
:1027A000DC2EC8010C2E02C0959587950A94E2F79D
:1027B00080FD09C02197A0F7D12C8D2DCDB7DEB7B4
:1027C000E7E00C945E34B7018C2FCFDF0E94EC0859
:1027D000019781F3F2CFCF93DF93D82FC92FD1DFA9
:1027E0006D2F7C2FC2DF0E94EC08DF91CF910895FE
:1027F000FC018481882329F080819181ECDF0C9495
:10280000420A80E00895A6E0B0E0E9E0F4E10C942B
:10281000463449835A83392F89819A81332389F039
:10282000222379F0AEDF182F682F89819A810E94C8
:10283000090A69817A81812F98DF2696E3E00C945A
:1028400062340E94D509182FF4CFFC01262F408155
:1028500051816281738184819581D5CF0F931F93BC
:10286000CF93DF938B01EA019091D703943061F508
:102870008093E9008FEF9091E800815095FD06C0AC
:1028800095ED9A95F1F700008111F5CF8091E80060
:1028900085FF1AC00E948805811111C08091E8004F
:1028A00085FD06C08091E8008E778093E800F2CF26
:1028B000F80181918F018093F100219779F7809140
:1028C000E8008E778093E800DF91CF911F910F9100
:1028D0000895BC0146E050E084E0C0CFCF93DF9381
:1028E000D82FC92F48E050E0682F792F81E0B6DF5C
:1028F00088E0ED2FFC2FADECB3E001900D928A95AE
:10290000E1F7DF91CF910895792F603229F440E209
:1029100050E0682F82E0A2CF08953BB1377F2BB102
:1029200028604FB7F8948CE393E0FC010196508146
:1029300068E02BB9000000C057FF3BB9550F0000FD
:1029400000C000C000C03BB900C06A9591F753E0D9
:10295000863C950751F74FBF8FE594E00197F1F75B
:1029600000C000000895B0E0A0E0E9EBF4E10C94B1
:102970003F34F82EE92ED62EC72E8A018091BD0253
:10298000AA24A394B12C8A3018F48AE0A82EB12C82
:10299000C1E0D0E06D2D7C2D8F2D9E2DF801099585
:1029A000811104C02196AC16BD062CF4CDB7DEB75C
:1029B000EAE00C945B34CC9F9001CD9F300D300D3C
:1029C000112490E080E045E34A95F1F7000001967C
:1029D00082179307C1F7DECF1092CC0372D92FEF85
:1029E00084E39CE0215080409040E1F700C000006B
:1029F00088E19AE00FB6F894A895809360000FBE26
:102A000090936000FFCFAB0124E630E0BC0188E783
:102A10000E94E8319C0181E0232B09F080E00895B9
:102A20008091380390913B03911103C091E0892775
:102A30000895882361F062E070E08BEB93E0E3DFC0
:102A4000811103C08091380308951092380380915A
:102A50003803ECCFA5E0B0E0E0E3F5E10C944734B7
:102A6000809138038D8380913B038823E9F00E9495
:102A7000D206DC01CB01805A9541AF4FBF4F809306
:102A8000340390933503A0933603B09337038D81BD
:102A9000811107C062E070E089EB93E0B4DF81113F
:102AA00008C0809138038D838D812596E2E00C94D7
:102AB000633481E080933803F4CFA8E0B0E0E3E62C
:102AC000F5E10C94473480911A02811120C048E04E
:102AD00050E060E472E085EE92E00E9474358091EF
:102AE000E5029091E602C297873B934068F0E7EEDB
:102AF000F2E086E0DF011D928A95E9F788EC90E02C
:102B00009093E6028093E50281E080931A0288E0C8
:102B1000E5EEF2E0DE01119601900D928A95E1F763
:102B200029813A814B815C816D817E818F8198857D
:102B30002896E2E00C946334A8E0B0E0E2EAF5E124
:102B40000C944734BADF29833A8389819A819C01A6
:102B500022533109273B334010F088EC90E028964F
:102B6000E2E00C9463349091CE0292FB222720F98C
:102B7000281779F080FB92F99093CE026091CD02F4
:102B80007091CE0284E090E00E94B03582E00C9417
:102B9000CC0A0895B0E0A0E0E0EDF5E10C944134FA
:102BA000FA0169017801C82F880FDD0B3097B1F069
:102BB000DE0193E0AA0FBB1F9A95E1F7AF5FBE4F0E
:102BC00011968D919C911297805B9D4F4C9150E096
:102BD000E417F50708F4AF010E946B35CE010E949F
:102BE000B333182F8823D1F0E114F104B9F083E056
:102BF000CC0FDD1F8A95E1F7FE01EF5FFE4F4381A9
:102C000050E0E416F50608F4A701CF5FDE4F6C81B3
:102C10007D81605B7D4FC6010E946B35812FCDB7F2
:102C2000DEB7E8E00C945D34A5E0B0E0EAE1F6E15F
:102C30000C943F348D83E62E5A01F22E6801809168
:102C4000BD028A3028F080E02596EAE00C945B34DF
:102C50008D818930C4F319828A836B832C8363E06E
:102C600070E0CE0102960E9405078983E09231014F
:102C7000F092440110E000E030E020E044E050E059
:102C8000BE016F5F7F4F85E085DF8823E1F24E2D27
:102C900050E030E020E0B50186E07CDF882399F247
:102CA00030E020E041E050E0BE016B5F7F4F87E005
:102CB00071DF882341F20F2D10E0960150E040E0D3
:102CC00070E060E088E066DFBFCFA8E0B0E0EBE650
:102CD000F6E10C944134C090B102D090B202E09081
:102CE000B302F090B4020E94D206DC01CB018C1931
:102CF0009D09AE09BF0911E084369105A105B10512
:102D000018F10E94BB08DC01CB010296A11DB11D88
:102D100089839A83AB83BC8310E000E030E020E03D
:102D200044E050E0BE016F5F7F4F82E033DF182F39
:102D3000882351F00E94D2066093B1027093B202D0
:102D40008093B3029093B402812F2896E8E00C940C
:102D50005D348F929F92AF92BF92EF92FF920F934A
:102D60001F93CF93DF93CDB7DEB729970FB6F894B3
:102D7000DEBF0FBECDBF7B0101E010E09E012B5FE7
:102D80003F4F50E040E070E060E080E003DF182F4C
:102D9000882309F44EC08090AD029090AE02A090BE
:102DA000AF02B090B0020E94D206DC01CB018819BC
:102DB0009909AA09BB0984369105A105B10548F412
:102DC00064E070E081E592E00E9405079D8189172B
:102DD00081F104E010E09E012F5F3F4F50E040E0A2
:102DE00070E060E081E0D6DE182F64E070E081E5FD
:102DF00092E00E94050791E02D81281390E01923AD
:102E000031F10E94D2066093AD027093AE028093BE
:102E1000AF029093B00289819A81AB81BC8180938B
:102E2000A9029093AA02A093AB02B093AC0211E066
:102E30000EC08091510290915202A0915302B09124
:102E4000540289839A83AB83BC831111E4CF8091B0
:102E5000A9029091AA02A091AB02B091AC02F70135
:102E600080839183A283B383812F29960FB6F89430
:102E7000DEBF0FBECDBFDF91CF911F910F91FF90AD
:102E8000EF90BF90AF909F908F9008954F925F9278
:102E90006F927F92AF92BF92CF92DF92EF92FF92AA
:102EA0000F931F93CF93DF9300D000D000D0CDB706
:102EB000DEB78D837B01A42ED22E3E83B02EC12E91
:102EC000DB014D905D906D907C900E94D206DC01FC
:102ED000CB0184199509A609B70984369105A10586
:102EE000B10510F4AA2051F110E000E030E020E03C
:102EF0004B2D5C2D6D2D7E818D814CDE8983882349
:102F000039F00E94D206F701608371838283938334
:102F1000898126960FB6F894DEBF0FBECDBFDF9134
:102F2000CF911F910F91FF90EF90DF90CF90BF90C6
:102F3000AF907F906F905F904F900895F1E0F9838C
:102F4000E7CFA1E0B0E0E7EAF7E10C9445348091E7
:102F5000380389832091640290E041E02817190624
:102F600009F440E001E010E09E012F5F3F4F69EB64
:102F700072E084E08BDF2196E4E00C946134ABE0F6
:102F8000B0E0E5ECF7E10C94453488E0EBE1F4E0E7
:102F9000DE01119601900D928A95E1F780910E0362
:102FA00090910F03A091100389879A87AB8741E026
:102FB0008B85811101C040E00BE010E09E012F5F86
:102FC0003F4F65EB72E083E061DF811110921003E7
:102FD0002B96E4E00C94613428E030E043E060E0BC
:102FE00086E30C94AE30CF93DF93D82FC62FF4DF57
:102FF0008D2F80680E94C0308C2F0E94C0308AEBD9
:103000008A95F1F700C00E94F03083E492E00197C6
:10301000F1F700C00000DF91CF910895682F893744
:1030200008F068E76093990191E090939A0190917C
:103030008E01992349F06150811101C064E0683725
:1030400008F067E78FE0CFCF0895FB018081E6CFDE
:10305000282F80919901811101C085E0022E000C7A
:10306000330B820F932F911D1816190614F081E06F
:1030700090E0D4CFACE0B0E0E0E4F8E10C9443346D
:103080004F83588769877A878B879C8780918E01C9
:10309000882309F444C080911502811106C060E0C4
:1030A00080E5A1DF81E08093150296DF80E50E9434
:1030B000C0300AEB0A95F1F700C00E94D8300E9498
:1030C000D8300E94D8307C010E94D83060E0E62AD7
:1030D000F82A0E94D8308C010E94D83020E0022BC0
:1030E000182B0E94F03025E02A95F1F70000F894A3
:1030F000B70180919101909192010E94B70C909339
:10310000920180939101B801809193019091940173
:103110000E94B70C909394018093930178948091CE
:103120002504882309F466C00E94D206462F572F33
:10313000BC018091160290911702A0911802B091E3
:1031400019028A019B01081B190B2A0B3B0BD901A1
:10315000C8010897A105B10508F44CC040931602B8
:1031600050931702609318027093190280919C018A
:1031700090919D01A0919E01B0919F01481B590B18
:103180006A0B7B0B423351056105710580F4109287
:103190009201109291011092940110929301109259
:1031A000960110929501109298011092970110913A
:1031B000260420919B01412FBE01695F7F4F81E969
:1031C00091E00E94EC0A20919B0180918E012827BA
:1031D00041E04127BE01695F7F4F85E991E00E9490
:1031E000EC0A86E0FE013796A6EAB1E001900D9266
:1031F0008A95E1F786E0FE013796DE01119601908F
:103200000D928A95E1F729813A814B815C816D812C
:103210007E8180E090E02C96E6E00C945F34CF93C2
:10322000C82FDADE8C2F0E94C0308FE792E0019722
:10323000F1F700C000000E94D830C82F95E09A95A1
:10324000F1F700000E94F03085E68A95F1F7000062
:10325000109215028C2FCF910895CF93DF930E9487
:103260001D30269AB9DE6AE58AE3BDDE2FEF80E7DE
:1032700092E0215080409040E1F700C0000082E0E1
:10328000CEDF83E0CCDF84E0CADF85E0C8DF86E004
:10329000C6DF60E080E1A7DE80E0C1DFD82F81E0FB
:1032A000BEDFC82F0E94F030D23419F481E0C13063
:1032B00009F080E0817080938E01882319F064E02A
:1032C0008FE091DE81E0DF91CF9108951F920F9200
:1032D0000FB60F9211242F933F934F935F936F93E9
:1032E0007F938F939F93AF93BF93CF93DF93EF938E
:1032F000FF93D091E900DF708091EC00C82FC1707E
:1033000080FDC0E81092E9008091F000877F8093F3
:10331000F00078940E946B0E1092E9008091F0000A
:1033200088608093F000CD2BCF70C093E900FF91AF
:10333000EF91DF91CF91BF91AF919F918F917F914D
:103340006F915F914F913F912F910F900FBE0F9012
:103350001F9018951F920F920FB60F9211242F9362
:103360003F934F935F936F937F938F939F93AF930D
:10337000BF93EF93FF938091E10082FF09C080919A
:10338000E20082FF05C08091E1008B7F8093E10025
:103390008091DA0080FF24C08091D80080FF20C097
:1033A0008091DA008E7F8093DA008091D90080FFCF
:1033B000A9C080E189BD82E189BD09B400FEFDCFCD
:1033C00081E08093D7038091CB03811109C00E94D3
:1033D00069050E940A068091E20084608093E20001
:1033E0008091E10080FF1AC08091E20080FF16C04A
:1033F0008091E2008E7F8093E2008091E200806104
:103400008093E2008091D80080628093D80019BC3C
:1034100085E08093D70383E0809388018091E10069
:1034200084FF2FC08091E20084FF2BC080E189BD22
:1034300082E189BD09B400FEFDCF8091D8008F7D67
:103440008093D8008091E1008F7E8093E10080918D
:10345000E2008F7E8093E2008091E20081608093A1
:10346000E2008091D803882309F452C084E080935D
:10347000D7038091D703843009F452C081E0809350
:1034800088018091E10083FF2CC08091E20083FFDE
:1034900028C08091E100877F8093E10082E08093E3
:1034A000D7031092D8038091E1008E7F8093E100D2
:1034B0008091E2008E7F8093E2008091E200806143
:1034C0008093E20042E060E080E00E94D8058091B5
:1034D000F00088608093F00081E080938801809301
:1034E0008701FF91EF91BF91AF919F918F917F9154
:1034F0006F915F914F913F912F910F900FBE0F9061
:103500001F90189519BC1092D7031092CB0368CF67
:103510008091E30087FD02C081E0A9CF83E0A7CFBF
:1035200082E0ADCF78941F921FB61F9211248F9323
:103530009F93AF93BF938091C7039091C803A091CD
:10354000C903B091CA030196A11DB11D8093C703A1
:103550009093C803A093C903B093CA03BF91AF91DE
:103560009F918F911F901FBE1F9018952FB7F894B1
:103570008091C7039091C803A091C903B091CA0379
:103580002FBF0895A5E0B0E0E8ECFAE10C943B34DD
:1035900080913B03882309F410C1209139033091B5
:1035A0003A033A832983E2DF49815A81841B950BD0
:1035B000C29708F4D9C0DADF90933A0380933903B5
:1035C0008AE294E09093310680933006809125043E
:1035D000882309F401C183EC93E00E94E50D88EB98
:1035E0000E94600D8091A5010E948B0C0E94600DCD
:1035F00089EB0E94600D8091A4010E948B0C0E94B7
:10360000600D80EC93E00E94E50D8091A201909105
:10361000A30154E0969587955A95E1F70E948B0C8B
:103620000E94600D8091A2010E948B0C0E94600D8F
:103630008DEB93E00E94E50D8CEA91E00E94D2119F
:1036400082EE93E00E94E50D8091A8010E94920C09
:103650000E94D2118091A9010E94920C0E94D21165
:103660008091AB010E94920C0E94D2118091AA011C
:103670000E94920C0E94D2118AED93E00E94E50D07
:1036800080919901811101C085E00E94920C019600
:103690000E94D21186ED93E00E94E50D8091A10178
:1036A000882331F0813009F48CC08DEC93E002C0A6
:1036B00083ED93E00E94E50D80919B01882309F43E
:1036C00083C08BEE93E00E94E50D89EC93E00E94AD
:1036D000E50D8091A001811101C084E0805D0E9410
:1036E000600D81EF93E00E94E50D61E070E07A8368
:1036F000698380911103882309F469C090E00980EF
:1037000002C0959587950A94E2F780FF60C0898191
:103710000E948B0C0E94600D89819A8101969A8388
:103720008983089731F780E20E94600D8EEE93E066
:103730000E94E50D80916E01882309F44AC08BEE4A
:1037400093E00E94E50D80917001909171016AE013
:1037500070E00E942334862F0E94920C01960E94F2
:10376000D21180E30E94600D809128049091290479
:10377000892B09F04DC0809138038823F1F00E9415
:10378000D20669837A838B839C83809134039091E2
:103790003503A0913603B091370329813A814B81DB
:1037A0005C81281B390B4A0B5B0BDA01C9018F3F87
:1037B0009F4FAF4FBF4708F433D92596EEE00C94E6
:1037C000573480ED93E076CF88EE93E07CCF80EBAA
:1037D000A1CF88EE93E0B5CF90E99983A981A0515C
:1037E000AD8387EF93E00E94E50D8D81B82FBF5F19
:1037F000BD830E94600D6D8029816212F6CF80E04A
:103800000E94F20D3981305F3983303C39F7ACCFFB
:1038100080913B03882309F4AECF8091330381115B
:10382000AACF18D9209128043091290421153105F7
:1038300009F4A1CF80E041E050E0082F10E0BA0188
:10384000082E02C0660F771F0A94E2F77A83698315
:1038500062237323672B11F48F5FEFCF90913203B4
:1038600090FF97C0880F880F880F80938001109277
:103870008301895F8093810183E08093840124E642
:1038800030E047E050E06EE771E088E70E94A53144
:10389000892B09F070CFA80125E0440F551F2A9508
:1038A000E1F78091320380FF86C0E2E1F3E080E23D
:1038B000DF011D928A95E9F70AED11E086EDE82E09
:1038C00081E0F82E97E0992E88248394D801ED9119
:1038D0008D01D7016D917D01640F752F711D665D9E
:1038E0007B4FF0E0EE5EFC4F30E020E0792C721A66
:1038F000A82C022E01C0AA0C0A94EAF76B0190E0F2
:10390000D6018D916D018A21A72DA91BA770BA2E12
:103910000A2E000CBB0B682E01C0660CBA94EAF7A5
:10392000B62CB195A195B109A770BB2701C08695AA
:10393000AA95EAF7A62DA82B80818A2B80839F5F0A
:103940009830F1F62F5F3F4F31962830310571F6F0
:1039500021E00E3D120709F0B9CF04E610E020E2A5
:1039600030E042E153E060E488E70E942D32892B89
:1039700009F001CF49815A814095509580912804E2
:1039800090912904482359235093290440932804F3
:10399000F2CE8295880F80768093800198013695CB
:1039A00027953695279520938301815E8093810129
:1039B0002093840164CF465D5B4F04E610E020E273
:1039C00030E0D1CFACE2B0E0E8EEFCE10C9443345F
:1039D0008091FF02833009F079C140910103509139
:1039E0000203609103037091040380910503909199
:1039F000060340DB2093010330930203409303034B
:103A000050930403609305037093060386E0E1E09E
:103A1000F3E0DE01199601900D928A95E1F786E0B8
:103A2000FE013996DE01559601900D928A95E1F7D7
:103A300086E0FE017596DE01119601900D928A9541
:103A4000E1F786E0FE013196A1E0B3E001900D922E
:103A50008A95E1F786E0E1E0F3E0DE011996019056
:103A60000D928A95E1F786E0FE013996DE015B96BC
:103A700001900D928A95E1F786E0FE017B96DE01CA
:103A8000119601900D928A95E1F786E0FE0131963C
:103A9000A1E0B3E001900D928A95E1F786E0E1E0C4
:103AA000F3E0DE01979601900D928A95E1F786E0AA
:103AB000FE01B796DE011F9601900D928A95E1F7FF
:103AC0001BA5FCA4012F0F2909F4B3C00E945D15AA
:103AD00029833A834B835C836D837E838F839887AE
:103AE00044FD11950F2D45FD01951B8B0C8B86E038
:103AF000FE013F96DE01199601900D928A95E1F73D
:103B00001D870E8786E0FE013996DE0191960190B1
:103B10000D928A95E1F71DA30EA386E0FE01B196F2
:103B2000DE011F9601900D928A95E1F71B8B0C8B9D
:103B300086E0FE013F96A1E0B3E001900D928A95E8
:103B4000E1F786E0E1E0F3E0DE011F9601900D92DF
:103B50008A95E1F780916E01882309F478C0E0909E
:103B60007301F090740102DD209172018E199F099A
:103B70002817190608F06BC0E0907501F0907601E7
:103B8000F5DC9C012E193F0979010E949C158E15C8
:103B90009F0508F05CC028898A8990917A0139894B
:103BA000930F90937A0130917B01830F80937B0177
:103BB00030917D01030F00937D0130917C01130F43
:103BC00010937C0197FD91959B30A8F587FD819519
:103BD0008B3088F507FD01950B3068F517FD1195C1
:103BE00081E01B3018F4211101C080E081708093C6
:103BF00077010E944208109111038823A9F11092C5
:103C00007A0110927B0110927C0110927D01AEDC52
:103C10009093740180937301109276011092750154
:103C200080916F01111109C0882389F00E94E20A76
:103C30000EC010E05ACF81E0D9CF212F30E0082EFE
:103C400002C0359527950A94E2F720FFEFCF0E9436
:103C5000EF0C811138C08091000381701092000335
:103C6000AC96E6E00C945F3480916F01111121C095
:103C70008111EDCF009173011091740177DC801BED
:103C8000910B209170013091710128173907F8F6D6
:103C900080916F010E94C10A109274011092730109
:103CA00010927A0110927B0110927C0110927D019A
:103CB000CECF212F30E002C0359527958A95E2F7C7
:103CC00020FFC5CFD7CF81E090E0C7CF80E0C8CF3D
:103CD00080912504882309F049CC0E94BB08CB01C0
:103CE000089560911B046695669570E041E050E090
:103CF0008DE691E00E945135892B19F481E0809383
:103D00000F03E6DF9093090380930803809110036B
:103D1000846080931003089590911B0490FF2CC041
:103D2000937081112AC0946090931B0480911003BA
:103D3000816080931003662321F08BE194E00E9460
:103D4000E91160911B046695669570E041E050E0D2
:103D50008DE691E00E945135892BB9F00E94280729
:103D600081E080930B0320E040911E0460911D04CC
:103D700080911C040C940A120895893010F090620E
:103D8000D3CF880F880F982BCFCFABDFE9CF90919F
:103D90001B04969596958FEF890F913009F488E072
:103DA00061E0BACF80911B04869586958F5F89303C
:103DB00008F081E061E0B0CFA7E1B0E0E2EEFEE123
:103DC0000C943D341D861C86FE013E9686E0DF0184
:103DD0001D928A95E9F787EBE82E81E0F82E10E036
:103DE00000E0CC24C394D12C21ECA22E21E0B22EF1
:103DF000F70181917F018F3F09F445C0F894E82FC6
:103E0000E295EF70F0E021A18F70A60102C0440F8F
:103E1000551F8A95E2F7CA01922F982B91A392A180
:103E20008095892382A3789400C0EBEBF1E031E028
:103E3000912C21912F3F09F4A7C0A22FA295AF701A
:103E4000B0E090968C9190E02F7002C09595879588
:103E50002A95E2F780FD98C0832F982A330FAE167B
:103E6000BF0639F7F701319780818F3F11F00E942B
:103E7000A20850EA5A95F1F7ECE0F0E0EC0FFD1FD4
:103E8000E00FF11F90820F5F1F4F0430110509F002
:103E9000AFCF48E050E0BE01645F7F4F82EC92E01C
:103EA0000E945E359C01892B49F088E0FE013C961A
:103EB000A2ECB2E001900D928A95E1F70091CB025D
:103EC00010E003521D4F232B09F460C081E0809362
:103ED00048024CDB9093470280934602F12CE0901D
:103EE0002504EE2009F4ADC01A8219821C821B82BF
:103EF0008091BD028A3008F06EC049EA56E1BE01E9
:103F00006F5F7F4FC8010E94B314882309F489C0F2
:103F100045E656E1BE016F5F7F4FC8010E94B314B2
:103F2000882309F47EC04FEB57E1BE016F5F7F4FDE
:103F3000C8010E94B314882309F473C041EA57E111
:103F4000BE016F5F7F4FC8010E94B314882309F43C
:103F500068C01092BD028091CA0290E044E050E037
:103F6000BE016F5F7F4F83529D4F0E945E3521E0FF
:103F700020934F02892B09F046C0E12C8E2D8F290A
:103F80006796ECE00C94593480E067CFF0904802DB
:103F9000FF2009F4A3CFC0904602D0904702E6DA92
:103FA0008C199D09059708F499CF44E050E062EC24
:103FB00072E0C8010E945E35892B59F084E0E2EC82
:103FC000F2E0D80101900D928A95E1F71092480233
:103FD00086CFF12CFBCFC0904902D0904A02C6DABE
:103FE0008C199D09843F914008F087CF80914F0242
:103FF000882319F284E0FE013196DF011D928A9533
:10400000E9F710924F02E091CA02F0E0E352FD4F4F
:1040100089819A81AB81BC8180839183A283B383A0
:10402000ADCF8091BD028F3F31F08F5F8093BD0295
:104030008A3008F490CF9ADA90934A02809349022A
:10404000D5CFF80180819181A281B3818093510203
:1040500090935202A0935302B093540264E070E034
:1040600081E592E00E9405078093500280905502FE
:1040700090905602A0905702B090580280914B0247
:1040800090914C02A0914D02B0914E028816990673
:10409000AA06BB06B1F080924B0290924C02A0920D
:1040A0004D02B0924E020E94D206861A970AA80AC2
:1040B000B90A8092BE029092BF02A092C002B09252
:1040C000C1028BE0E9E5F2E0DE01119601900D926C
:1040D0008A95E1F78091590286958695D0905A028B
:1040E000C0905B02B0905C0200916202109163028A
:1040F00010926302112321F110FF10C02981237057
:10410000982F990F990F292B298390911B0420FF39
:104110001EC0916090931B0460E0FEDD11FF06C09D
:1041200020E04B2D6C2D8D2D0E940A1212FF03C032
:104130000023D1F0D6DD13FF03C081E080930B0391
:1041400080916402882399F00E942A1517CF9E7FE0
:1041500090931B040E942807809110038160809334
:1041600010030E942F07DACF0E942807E4CF0E9495
:10417000101504CFAEE0B0E0E0ECF0E20C943B347C
:104180007C01DC0114968C91882309F42FC161E035
:10419000C7010E9425148C0180916E01882331F1A2
:1041A000F701D5800032F2E51F0708F07EC0011547
:1041B00022E5120708F0C2C0011530E5130708F028
:1041C00069C0011580E4180708F0CCC0011590E221
:1041D000190708F0CEC0083E110590F5003E110504
:1041E000A0F18091790187FD109279011093A301CC
:1041F0000093A201D7018D919C9111979093A501F5
:104200008093A401F8013497E533F10508F0CAC0A2
:10421000E55AFE4FE49115968C9120EB811102C076
:104220002E2FE0EBACEAB1E090E080E03D9132135C
:10423000B3C082579E4FDC015E96EC93F8016FC5C8
:10424000C8019A9581159F4160F2F7018481882306
:1042500041F20730FEE71F0709F43EC0C8018D5C3C
:1042600091094397C8F10E9442088111BACFDD201D
:1042700059F080916F0120911103211181C0882391
:1042800009F487C00E94CA0C71D99093760180937B
:104290007501A7CFC80175E0969587957A95E1F7E6
:1042A0008F70992720916F0113C00038B2E51B076A
:1042B000B8F40036E2E51E0708F040C00034F2E52D
:1042C0001F0708F08ECF20916F01C8018F719927C9
:1042D0002817190609F085CF8D2D0E942B0881CF54
:1042E000003E22E5120718F5003C32E5130708F4FA
:1042F00078CF20916F01C8018F719927281719066F
:1043000009F06FCF8D2D0E942B08D70116968C9146
:104310001697807F803509F064CF15968C9188239D
:10432000D9F0809179018150809379015ACFC801E9
:10433000805E9245809708F454CF87CF20916F011B
:10434000C8018F7199272817190609F04ACFD11093
:1043500048CF0E94390845CF0E94390880917901E1
:104360008F5FE2CFF7018681807F19F4812F992733
:1043700097CFD70116968C91807F09F432CF65CF05
:1043800030E0082E02C0359527950A94E2F720FF09
:1043900079CF0E94C10A76CF01968630910509F047
:1043A00045CF4CCFC80197578038910508F0AFC46E
:1043B000F7018581882351F010E0D12CC12C011721
:1043C000A9F130E9C31631E0D306A0F080910703CC
:1043D000877061F0D70115968C91882339F0809110
:1043E000CE0282FF03C082E00E94CC0A2E96EEE04D
:1043F0000C945734C601805B9D4F0E948435960112
:104400002F5F3F4F882381F0813011F0843051F4C9
:10441000F3E0CF0ED11C20E9C21621E0D20650F302
:104420001F5FCDCF6901F7CF6901FACF80E9C816C8
:1044300081E0D80658F6C601805B9D4F0E94843506
:10444000843011F0823010F6C601805B9D4F0E94CF
:104450008435B82E882309F4B9CF91E0891719F073
:10446000A4E08A13B3CFC6018F5A9D4F0E948435B2
:10447000182FC6018E5A9D4F0E948435B3E0CB0E93
:10448000D11C082FE1E0BE1242C055E0A52EB12C90
:104490000933110519F440E5A42EB12C4801F0EEC2
:1044A0008F1A9108C8010E94700A782E28E082169F
:1044B000910418F00115110521F50E944A11602E92
:1044C000802F0E947B118FE99FE00197F1F700C0D8
:1044D000000091E0A91AB108B1F7862D0E9453118E
:1044E000872DA8E08A16910418F00115110561F4D2
:1044F0000E944511F0E9CF16F1E0DF0608F4A4CFE1
:1045000065CF0E943C11DBCF0E943211F3CFB4E0A3
:10451000BB12F0CF0115110569F3EFE9FFE0319708
:10452000F1F700C0000001501109F4CFE730BEE7F9
:10453000FB0761F0882309F401C4FE57E031F1055F
:1045400008F0FCC3E952FA4C0C94C5340E94A10A4D
:10455000F5C380E00E940E181092A00180E00E9436
:10456000E70C8AE892E00E94D90C30CF2091A0019C
:1045700030916E01809170019091710162E370E061
:104580000E9423348FEF860F9091A1016091ED027C
:104590004091990120FB47F9522F56955370330FE4
:1045A000330F532B282F220F220F220F522B660F6F
:1045B000660F6C739370692B70E08FE090E00E943F
:1045C000A83504CF81E00E94281800CF8FEFFBCFE1
:1045D0008AE0F9CF86EFF7CF90919B0181E08927A0
:1045E0000E94A10AF3CE8091A001811101C084E054
:1045F0008F5F18160CF081E0883008F087E0809318
:10460000A001E4CE8091A001811101C084E081501D
:10461000F0CF81E08093A101D9CE1092A101D6CE36
:1046200082E0F8CF90916E0181E089270E94E70C2B
:10463000CDCE8091700190917101C296893EE3E0E8
:104640009E0708F490CF88EE93E08DCF80917001A3
:1046500090917101C2978436910508F084CF84E669
:1046600090E081CF80911B0480FF03C00E94AA12BA
:10467000ADCE816080931B0461E0869586954CDB0E
:10468000A5CE882321F083DBA1CE8823E1F38ADB4A
:104690009DCE882329F00E94861298CE8823D9F3D4
:1046A0000E948E1293CE882329F00E9470128ECE23
:1046B0008823D9F30E947B1289CE882329F00E9497
:1046C0005A1284CE8823D9F30E9465127FCE8823A4
:1046D00029F00E9496127ACE8823D9F30E94A01264
:1046E00075CE9801205E324520323105A8F4911133
:1046F00027C00F7181E090E0FC0102C0EE0FFF1FA8
:104700000A95E2F78F016E2F83E090E00E949635C4
:10471000802F0E943F0A5ACE9923D1F180E00B35B9
:10472000FCE71F0751F10C352CE71207F9F081E087
:104730000A353CE7130709F101308CE7180731F11E
:104740000330ACE71A07E1F001151C4709F5109298
:10475000CC030E94610EEFEFF4E32CE0E150F04057
:104760002040E1F700C000000E94C1068091CE0207
:1047700082FB882780F991E089270E94B31526CE15
:104780006FEF7FEF90E080E00E94B0350E94EC1464
:10479000F701C080D180992309F470C0C6010E943E
:1047A000C113182F682FC6010E94090AB601812F74
:1047B0000E94B5130E94EC08082FD92E882E86E09F
:1047C000F701DE01199601900D928A95E1F7D70164
:1047D0001596CC9015971696BC90B2943FE0B322F4
:1047E00080910703877009F19C2CCC20F9F0892F68
:1047F000807F803469F080E2800F8830B0F0892FAC
:10480000807E803229F4B1E0B01778F4BB2069F0E3
:104810008091CE0282FF09C082E00E94CC0A809182
:1048200007038770992493948111912CAD2CA29445
:104830002FE0A222E8E0AE1609F419C1EA1508F447
:1048400057C0F3E0FA15F8F08D2D807F1D2D1F70F5
:1048500021E02A1508F060C0803211F01295107F17
:10486000882009F48FC0A1E08A1609F4D5C0CC20B5
:1048700009F4E1C0BB2009F4A3C063C0C6010E94D3
:10488000D509182F93CF35E0A31609F4EBC0AA2D54
:10489000A850BB0B149718F40E94F206912C802F9D
:1048A0009D2D0E94420A882341F0CC2009F4D7C1F3
:1048B000BB2009F4CBC1109220029920A1F0809175
:1048C000070380FD10C0F7011582869586958695B1
:1048D0000E94E20AC7014EDC809107038695869507
:1048E00086950E94C10A60E0C7010E9425147ECD12
:1048F00089E0A81609F42AC186E08A0D8F708230FB
:1049000030F6802F92EF891231C18D2D8F71C11039
:104910002AC10E94E20ABBCF882311F01295107FB2
:10492000CC20B9F0112369F080E2800F883010F0BC
:10493000811009C08091CC03182B1093CC030E94E6
:10494000230E802F2FC080913B02182B10933B0227
:10495000F6CF802F0E945311112309F498CF80E2E3
:10496000800F883010F0811004C0812F0E94C3098D
:1049700006C0109580913B02182310933B020E94C1
:10498000230E85CF8091CE0282FD16C0CC2069F027
:10499000112339F08091CC03182B1093CC030E9483
:1049A000230E80E00E947B1172CF80E00E945311A1
:1049B000112309F46CCFD9CFCC20A1F0B11004C0E1
:1049C000812F0E944A1163CFB1E0BB1260CF80916A
:1049D0003A02912F9823191709F459CF182B1093E5
:1049E0003A0255CFB11053CF812F0E9445119091BB
:1049F0003A02812F892329F0812F80958923809382
:104A00003A0280911B02912F982309F440CF109510
:104A1000182310931B023BCFCC2029F0E5E0EB15C7
:104A200008F435CFCDCFF4E0FB1508F430CF812F5B
:104A30000E9445112CCFBB20D1F329E382120DC077
:104A40003FEF87EE93E0315080409040E1F700C0A7
:104A50000000802F0E9453111ACFAFE1BEE41197DE
:104A6000F1F7F5CF6C2D802F0E944A0D10CF8D2DC0
:104A7000837099F5C1100BCF402F42954695477032
:104A8000440F440F802F8F70042E01C0880F0A94AA
:104A9000EAF7202F207104FF07C02FE030E001C0AB
:104AA000220F4A95EAF720953D2D369536953370BD
:104AB000323071F0333051F04091CC02313029F076
:104AC000822B84230E943F0AE2CE842B822BFACFD2
:104AD000282B8091CC028227F5CF8695CC2011F02F
:104AE0008D2D8170882309F4D2CE402F42954695B2
:104AF0004770440F440F802F8F70042E01C0880F21
:104B00000A94EAF7202F207104FF07C02FE030E05D
:104B100001C0220F4A95EAF720953D2D369536952E
:104B20003370323071F0333051F040911103313035
:104B300029F0822B84230E94B40AA9CE842B822BD5
:104B4000FACF282B809111038227F5CF1D2D1F70DE
:104B5000CC2029F0812F0E94E20A802F32CF802FB3
:104B60000E944511812F0E94C10A91CEB2EFB81563
:104B700070F0E0EF8E16D1F0F1EF8F1691F0CC20AF
:104B800009F450C0B110DDCE8D2D8F71C2CE23EF50
:104B9000821619F134EF8312F2CF9091CE0292FD7A
:104BA00028C08D2D8F71CC20F1F2B3CECC2081F0B6
:104BB00084E08B1508F46BCE2D2D2F7181E090E0F1
:104BC00001C0880F2A95EAF7909111038927B3CF86
:104BD00095E09B1508F45BCEEFCF80E0CC2009F484
:104BE000AACF81E09D2D9F7101C0880F9A95EAF7A9
:104BF000A2CFCC2061F08D2D8F7192FF8ACEA8E0DC
:104C00008A9F9001112423602093070382CE81E0C4
:104C10000E94CC0AB1E0BB1508F039CE82E00E94B8
:104C2000CC0A35CEBB2079F0893341F4EFEFF7EEB3
:104C300023E0E150F0402040E1F709CF8FE19EE40E
:104C40000197F1F704CF8D2D8F718DCF80911F02C9
:104C500080931E028091CC0380931F022ECE1E866D
:104C600020E049855A856B857C858D8590E00E9482
:104C700003149C011091CC03BB2029F01092200258
:104C800010931F021ACE80911C0290911D022817CA
:104C90003907B1F70E945D1529833A834B835C8302
:104CA0006D837E838F83988743FFE8CF80912002B6
:104CB000882321F380911E020E944A11EFE1FEE455
:104CC0003197F1F700C0000095E0C92ED12C0933CF
:104CD00019F480E5C82ED12C802F0E947B118FE91A
:104CE0009FE00197F1F700C0000091E0C91AD108D8
:104CF000B1F7802F0E945311AFE1BEE41197F1F795
:104D000000C0000080911E020E944511B7CFC8016B
:104D10009A9581159F4108F091CAF801FF27D701A4
:104D200015968C91E93DF10508F000CCE13DF105C7
:104D300008F400CC682F8E2F0E944A0DD7011596DB
:104D40009C91992309F4CDCC8091CC038272F80117
:104D5000E052F847EB30F10508F0C3CCE951FA4CCA
:104D60000C94C534B0E0A0E0E8EBF6E20C944234D9
:104D700080913902807F09F050C0809138028823E9
:104D800009F44BC0E0911A0487E0D82E8091E1032A
:104D90008E1709F442C00E2F10E0ED9DF001112492
:104DA000EE51FC4F84818823E9F1D09EE001D19E31
:104DB000D00D1124FE01EE51FC4F918180913402FF
:104DC000981330C090818091330298132BC0858155
:104DD000811128C0E280F3808091350290913602E3
:104DE000E81AF90A60E083E392E00E9425140E9429
:104DF0009C15E816F906B0F4809139028F70806135
:104E000080933902C851DC4F88818F70806188831C
:104E100083E392E0AFD90E94CB09CDB7DEB7E7E0DC
:104E20000C945E34F8013196E770B0CFAEE0B0E09C
:104E3000ECE1F7E20C943A348C0186E0F801DE01F3
:104E4000199601900D928A95E1F7D8011496FC907D
:104E500014971596EC9083E3882E82E0982E80912B
:104E60003702811128C0F11003C0FF24F3941BC046
:104E7000EE20F1F0C8010E94F813F82E8823C1F04B
:104E800087E0F801A3E3B2E001900D928A95E1F783
:104E900080913702813031F4809133029091340255
:104EA0000E94EB135FDF8F2D2E96EFE00C945634AB
:104EB000C80160D9DACFF801A0805180C280D380C8
:104EC00060E083E392E00E942514B0903802809164
:104ED000350290913602BB2009F4CBC03601681A26
:104EE000790A60E083E392E00E9425140E949C15F9
:104EF0006816790608F09EC0FF2009F4B6CF8091AD
:104F00003902382F307F20913402D80111969C91BC
:104F10001197311151C0FE2C291313C02091330277
:104F20009C9129130EC0E11021C18F708061809384
:104F3000390283E392E01ED980913902F801868319
:104F4000B2CFE11013C1652D8A2D0E944B05882335
:104F500009F4EBC00E945D1529833A834B835C837F
:104F60006D837E838F83988742FFDFC083E392E067
:104F700001D987E0E3E3F2E0DF011D928A95E9F7CA
:104F8000F12C91CF2A5F2F70223070F0C801F2D837
:104F9000EB2CEAC0992319F0882309F4E5C0805E60
:104FA000883008F4E1C0F2CF803F08F4DDC0815FB3
:104FB000833008F4D9C0EACF291315C020913302F9
:104FC0009C91291310C0E1100EC016968C93C80155
:104FD000D1D887E0F801A3E3B2E001900D928A9561
:104FE000E1F7FB2C60CFC8010E94F813882309F475
:104FF0005FCFEE2009F45CCF80913902803280F0DF
:1050000020913302309134023A832983DC82CB82AF
:10501000909137029D831E828F83CE010196AAD87C
:1050200087E0F801A3E3B2E001900D928A95E1F7E1
:1050300099DE1BCF80913902982F907F09F496CF8B
:10504000FF2009F412CF20913402F8019181291335
:10505000CACF2091330290812913C5CFE110C3CF6D
:105060008683C80187D887E0D4011D928A95E9F725
:10507000B8CF5601A81AB90A60E083E392E00E9413
:1050800025140E949C15A816B90608F048C0FF20F8
:1050900009F4EBCEFE2CEE2009F40ACF90913402F5
:1050A000F801818198132EC090913302808198136A
:1050B00029C08091350290913602C81AD90AF8ECBD
:1050C000CF16D104B0F48091390280FD12C0982F20
:1050D000907F79F0D80116968C931697903F39F00F
:1050E000982F907F905F8F70892B16968C93C801B4
:1050F00041D887E0F801A3E3B2E001900D928A95D0
:10510000E1F7D1CEC8010E94F813811189CF8091B7
:105110003902816080933902C8012CD8C4CE87E05F
:10512000F40111928A95E9F72BCF652D8A2D0E9403
:105130004B05E82E8111B7CEA9865A8689859A85B6
:105140000E94EB13292F22952F70903408F01ACF6C
:105150009F70223008F41ECF992309F420CFF80164
:105160009681907F09F01BCFFE2C9DCE8091390255
:1051700081608093390204CFABE1B0E0E2ECF8E269
:105180000C9446344E8B5F8B688F798F8A8F192FE2
:105190009B8F882309F455C020E00E9403149C01D2
:1051A000112349F01092200290931D0280931C025B
:1051B00010923B020AC080911C0290911D0282173E
:1051C000930719F481E0809320021D8A86E0FE0196
:1051D0007696DE011F9601900D928A95E1F78B89F4
:1051E000882351F061E0CE010F960E94251461E002
:1051F000CE010F960E94251487E0FE013F96DE0146
:10520000189601900D928A95E1F7CE0108960EDE70
:1052100081110CC087E0FE013896DE0111960190E5
:105220000D928A95E1F74C8541110EC017E08091EF
:105230001A049091E103891337C06B96E3E00C9454
:105240006234992311F2B4CF2091E10330E0C90117
:1052500001968770992750911A0458171906A1F0E2
:105260004D8397E0929FD001939FB00D1124AE51D2
:10527000BC4FFE01319601900D929A95E1F7809313
:10528000E1030E94CB09D2CF1092CC030E94610EA1
:105290001092E10310921A0487E0E3E3F2E0DF01E9
:1052A0001D928A95E9F7C2CF819FC00111248E51CA
:1052B0009C4FBCDD882309F4C0CF80911A0490E094
:1052C00001968770992780931A04B1CFA6E0B0E0C9
:1052D000ECE6F9E20C9445340E94B61A8C018091F8
:1052E0004402909145028017910779F019821A8241
:1052F0000E94B61A682F49815A81792F80E090E088
:105300003BDF10934502009344022696E4E00C94A0
:1053100061341F921FB61F9211248F939F93AF93F6
:10532000BF938091C603811113C08091C7039091F0
:10533000C803A091C903B091CA034196A11DB11D34
:105340008093C7039093C803A093C903B093CA0383
:10535000BF91AF919F918F911F901FBE1F90189585
:10536000CF93DF93EC010E94B61A8C1B9D0BDF914B
:10537000CF910895CDB7DEB7C155D1090FB6F894D6
:10538000DEBF0FBECDBF85B7806885BF85B780689B
:1053900085BF84B7877F84BF0FB6F894A8958091A6
:1053A0006000886180936000109260000FBE80E80A
:1053B00090E00FB6F89480936100909361000FBE67
:1053C00081E08093880185E798E09093EF018093D6
:1053D000EE010E9469050E940A068091E200846045
:1053E0008093E20078948091D7038823A1F01091F4
:1053F000E9001F709091EC00892F817090FD80E88A
:10540000182B1092E9008091E80083FD0E946B0E3A
:105410001F701093E90082E084BD93E095BD9AEF80
:1054200097BD80936E001092BE021092BF02109240
:10543000C0021092C10288EC90E02091E300122F8C
:10544000111F1127111F27FD0CC0AFE3BCE91197F5
:10545000F1F700C00000019781F70E9469051092E2
:10546000D7031093250425982D9A869A8E98B5E037
:10547000BA95F1F7000083B185FB882780F98698FB
:105480008E9AE0EAEA95F1F7809326048093000172
:10549000882309F440C21092890186E180938A0131
:1054A0008091250481110E94CF328091000180916A
:1054B000000194E0811190E09093CB0284E0891B7D
:1054C0008093CA0284EF0E94A20885EF0E94A2087E
:1054D00086EF0E94A20887EF0E94A2080BEB11E062
:1054E00061ECE62E61E0F62ED8018D918D018F3FA3
:1054F00011F00E94A208E016F106B1F788E0EDED88
:10550000F2E0DF01082F1D920A95E9F7E2ECF2E0E4
:10551000DF011D928A95E9F790E080E00E949135C5
:10552000833E9E4F59F163EE7EEF90E080E00E9453
:10553000B03560E082E090E00E94963581E0809393
:10554000CC0261E083E090E00E94963560E074E177
:1055500084E090E00E94B0350E94BA120E94F412DA
:1055600040E050E0BA018FE090E00E94A83540E0B2
:1055700050E0BA0183E190E00E94A83582E090E01B
:105580000E9484358093D00284E090E00E9491359F
:105590009093CE028093CD0283E090E00E94843508
:1055A0000E943F0A809111030E94600A982F81E0B7
:1055B000933009F080E00E94A10A8091250488239D
:1055C00009F4AEC180E08093320380E88093270421
:1055D00087D66BE070E087EA91E00E94031588238C
:1055E00009F445C08091320365E070E081FD9AC105
:1055F00082EA91E00E9403158823C9F16DE070E012
:1056000080E991E00E940315882389F10E94D20667
:105610002D966CAF7DAF8EAF9FAF2D97DC01CB0188
:10562000805A9541AF4FBF4F809334039093350319
:10563000A0933603B0933703EAE2F4E080E092E00F
:10564000DF018C011D9201501040E1F7F09331060B
:10565000E09330068FEF9FEF909329048093280406
:1056600081E080933B038093380310923303809151
:10567000CF0281113AC08BE194E00E942C138091FB
:10568000100383608093100380911B048C7F71F45E
:105690000E94BA128BE194E00E942C1380911B04AB
:1056A000982F9C7F83708460992331F080911B0434
:1056B000843220F08370806280931B0480911E04EA
:1056C000873918F086E980931E040E9428070E94FB
:1056D000260780911B0480FF05C060E086958695B3
:1056E0000E948C1E81E08093CF028091250481115D
:1056F00001C058D70E942D19882309F416C183E0F0
:105700008093FF028091250481112EC08CE598E0E2
:105710009093500180934F0129E130E030934B0189
:1057200020934A0189E390E090934E0180934D01CC
:1057300041E658E05093580140935701309353018C
:1057400020935201909356018093550145E258E110
:105750005093600140935F0130935B0120935A01A5
:1057600090935E0180935D0190E080E00E9491350E
:10577000833E9E4FC9F58FE090E00E948C35F62E57
:10578000172F082F862F8F770E940E18FF1CFF24DB
:10579000FF1C612F6370660FF62AF092A00112FBC6
:1057A000882780F90E94E70C812F887F09F4BFC009
:1057B000169516951695212F30E02F5F3F4F42E347
:1057C000429FC001439F900D11240E94D90C802F4D
:1057D00083708093A101802F869586958F708B3082
:1057E00008F08AE08093ED020E94140581E691E0C2
:1057F00090932404809323048DED92E028E0280FF9
:1058000060962FAF60975E0133E0A30EB11C41E4B8
:1058100050E04C0F5D1F4D5F5F4F62965FAF4EAF24
:10582000629777247394662463948091D70310E47D
:1058300000E152E1F52E853009F4B7C00E94DC1E6C
:1058400001ED12E04DEDE42E42E0F42EA1ECB1E0CA
:105850002F96BFAFAEAF2F9729ED32E06D01C70194
:10586000F8015191DC014D91CD01D6016D916D0191
:1058700046232E173F0709F4A4C0541791F3209034
:10588000250431ECC32E31E0D32EEDEDF2E02B9662
:10589000FFAFEEAF2B97812C2B96AEADBFAD2B9704
:1058A0009D902B96BFAFAEAF2B97F60181916F0104
:1058B0009822D8013D908D01391421F13924512CC1
:1058C00044244394832D8421A9F0222099F0598205
:1058D0008A820E94B61A9C838B836D8291E0892D07
:1058E000842109F490E09E8349815A816B817C81F7
:1058F0008D8142DC5394440CB6E05B12E3CFF80197
:10590000319790828394E8E08E12C6CF0E94BB0844
:10591000552453945AC086E18093890188E1BECD15
:1059200082E051CE8DE991E065CE81E0E9CE8AE852
:1059300092E04BCF8091D703843039F10E9410154B
:105940000E94E21C1092C60388E190E00FB6F89422
:10595000A895809360000FBE1093600083B7817F8D
:10596000846083BF83B7816083BF7894889583B751
:105970008E7F83BF0FB6F894A895809160008861F0
:1059800080936000109260000FBE0E94DC1EA1ECAC
:10599000B1E0EDEDF2E081919D91892309F030C3F2
:1059A00060969FAD60979E13F6CF8091D7038530A8
:1059B00009F4C0CF1092CC030E94610E0E94F2063F
:1059C0003DCF54135CCF82DC512C80910F03882390
:1059D00009F464C080910E03E0911B04E695E695FE
:1059E000E81BE0930A03823009F063C0F0E0EB5457
:1059F000FE4FE4910E2F10E028E1C22E28E0D22EB7
:105A000080910B03882361F010920B030E94681EA3
:105A1000909309038093080310920D0310920C03D6
:105A20000E94681E9C01E0910803F09109038E1BFF
:105A30009F0B8F3F9F4790F58091DB028823B1F049
:105A40001092DB028091D9029091DA02281B390B67
:105A50002F3F3F4758F4805D9A489093DA02809335
:105A6000D9028091100388608093100380900C030A
:105A700090900D030E0F1F1F10930903009308034E
:105A800088E093E0F601099580910C0390910D0355
:105A9000892B21F4892811F07092DB020E94E21C0C
:105AA0008823D9F00E94BB080E94C21A0E942A15BE
:105AB00018C0863059F4F0E0EE54FE4FE4910E2FFA
:105AC00010E099E0C92E98E0D92E9ACF00ED17E0AA
:105AD0008EEBC82E86E0D82E93CF0E94C21A5110AA
