:100000008AC40000A5C40000A3C400000C948F3370
:100010009FC400009DC400009BC4000099C4000060
:1000200097C4000095C400000C9465140C948118CA
:100030000C946F298DC400008BC4000089C400009B
:1000400087C4000085C4000083C4000081C4000090
:100050007FC400000C944D157BC4000079C40000DF
:1000600077C4000075C4000073C4000071C40000B0
:100070006FC400006DC400006BC4000069C40000C0
:1000800067C4000065C4000063C4000061C40000D0
:100090005FC400005DC400005BC4000059C40000E0
:1000A00057C4000055C4000053C4000005010902F4
:1000B000A10185020901A1000509190129081500FE
:1000C0002501950875018102050109300931158165
:1000D000257F95027508810609381581257F9501D0
:1000E00075088106050C0A38021581257F95017572
:1000F000088106C0C005010980A101850319012AF4
:10010000B700150126B700950175108100C0050CD8
:100110000901A101850419012AA002150126A002E6
:10012000950175108100C00660FF0961A101096297
:10013000150026FF00952075088102096315002629
:10014000FF00952075089102C005010906A101056F
:100150000719E029E7150025019508750181029529
:1001600001750881010507190029FF150026FF0008
:100170009506750881000508190129051500250156
:10018000950575019102950175039101C061626346
:100190006465666768696A6B6C6D6E6F70717273A7
:1001A0007475767778797A31323334353637383931
:1001B00030524542545F2D3D5B5D5C233B27602CF4
:1001C0002E2F00DA0281FFD9F1DB20A4A62EAF008A
:1001D000A0C0D30000A1C8D30000AED580A81F40A6
:1001E0008D14200000AF00AE202000BABB004B658C
:1001F0007920B10020C0C100BEBF00484F00565456
:10020000003030200020202020B1BCBD0042616CB5
:100210006CB100B4B500B2B300C2C3004CB6B77243
:10022000B1002020002D002700260000002500241A
:1002300000230000002F001300120000000C001823
:10024000001C000000340033430F0000000E000DBE
:10025000000B000000870238003700000036001055
:1002600000110031008943E500E2000000E3009145
:10027000412A42284129001E001F000000200021C1
:1002800000220000002B0014001A000000080015D6
:100290000017000000E0000400160000000700093D
:1002A000000A00000039001D001B000000060019B4
:1002B00000050030004A00E100E2000000E3009188
:1002C000432C00904245004400430000004200419E
:1002D00000400000000000000000000000D300000B
:1002E000000000000000002352D20000005200D1A4
:1002F0000000000000000000004F0000005100500E
:10030000000000000000000000270000003700018E
:1003100000010001003A003B003C0000003D003EAF
:10032000003F00000000000000000000000000008E
:1003300000000000000000000000000000000000BD
:1003400000000000000000000000000000000000AD
:10035000000000000000000000000000000000019C
:100360000001000100000054006100000060005F17
:100370000000000000000055005E0000005D005C11
:100380000000000000000056005B0000005A005909
:1003900000000000000000570058000000630062E9
:1003A000000000000000000000010000000100014A
:1003B000000100010001000000000000000000003A
:1003C000000000000001000000000000000000002C
:1003D000000000000001000000000000000000001C
:1003E000000000000001000000000000000000000C
:1003F00000000000000100010001000000010001F8
:1004000000010001000000000000000000000000EA
:1004100000000000000000000000000000000000DC
:1004200000000000000000000000000000000000CC
:1004300000000000000000000000000000000000BC
:10044000000000000000000000300A2F0A30080100
:100450000800000000000000000000000000000094
:10046000000000000000000000000000000000008C
:10047000000000000000000000000000000000007C
:10048000000000000000000000000000000000006C
:10049000000000000000000000000000000000005C
:1004A000000000000009025B00030100A0FA09043B
:1004B00000000103010100092111010F0122440084
:1004C0000705810308000109040100020300000080
:1004D00009211101000122220007058203200001E9
:1004E00007050303200001090402000103000000C6
:1004F000092111010F01227B00070584032000015F
:100500001201000200000008575900010001010219
:10051000000114034B0065007900620061006C006B
:100520006C00360031000000100359006F007700A6
:100530006B006500650073000000040309040000FF
:100540000000000000002F0000000007000700006E
:10055000123F123F1200242A7F2A120036091E245D
:100560001B00182629122800000007000000001EAA
:10057000214000000040211E000014083E08140025
:1005800008083E080800000030700000080808084D
:10059000080000003030000020100C0201001E296D
:1005A00025231E0000223F20000022312929260099
:1005B000122125251A001814123F10001725252591
:1005C00018001E25252518000131090503001A25EC
:1005D00025251A00062929291E00000033330000B2
:1005E00000003373000008141422220014141414A1
:1005F00014002222141408000201290502003E59A9
:10060000555D3E003816111638003F2525251A0085
:100610001E21212112003F2121211E003F252525D9
:1006200021003F09090901001E2121291A003F0468
:1006300004043F0000213F210000102020201F0063
:100640003F040C1221003F20202020003F02040222
:100650003F003F020C103F001E2121211E003F09D8
:10066000090906001E2129112E003F09091926003B
:1006700012252529120001013F0101001F20202021
:100680001F000718201807000F300C300F00211230
:100690000C12210003043804030031292523210012
:1006A000007F4141000001020C1020000041417F09
:1006B00000000402010204004040404040000001EC
:1006C00003040000102A2A2A3C003F2422221C0096
:1006D0001C22222224001C2222243F001C2A2A2A17
:1006E0000C0000043E0505000C5252543E003F0829
:1006F0000404380000003D0000002040403D0000A0
:100700003F080814220000013F2000003E023C0286
:100710003C003E0402023C001C2222221C007E14EB
:1007200022221C001C2222147E003E04020204002D
:10073000242A2A2A120000021F2200001E20201054
:100740003E000618201806000E300C300E00221451
:10075000081422000E5050483E0022322A26220061
:1007600008087741410000007F0000004141770800
:100770000800180408100C00000000000000000031
:1007800000000000000000000000C0F0F88C86C6E9
:10079000E7FFFFFFFFFFFFFEFCFCF8E0800000002A
:1007A000F0F0F00000C0E0F0707000000000000009
:1007B0000000000000000000000000000000000039
:1007C000F8F8F80000000000000000000000000041
:1007D000000000000000F8F8F80000F8F8F8000049
:1007E00000000080E07078686C64C7C7C7C7C7C7DF
:1007F000E73F1F0F3FFFFFFFFFFFFF3F0F0000001E
:10080000FFFFFF1E3FFFF3E1800000F8FCFE3636DD
:10081000363EBCB8000E3EFEF080F0FE3E0E0000FC
:10082000FFFFFF060606FEFEFC7000E6F6F6363613
:10083000FEFEFC000000FFFFFF0000FFFFFF0000C6
:1008400000003C7F6360E0C0C0C0C0C0C0C0C0FF4B
:10085000FFC06030180F0303030100000000000018
:100860000303030000000303030300010303030366
:1008700003030301007070393F1F070100000000EF
:100880000103030303030303010000010303030344
:10089000030301000000030303000003030300102F
:1008A000101000000000550000003E635D5D637F96
:1008B000417B77413E00001C22221C003E0A003E84
:1008C0000A00322A3C0026281E001C2A2C000000A8
:1008D0003F09360000001E212100000000003F08F3
:1008E00037001E2121001E2121003F090600213F63
:1008F0002100222519001E2121003F0936003F2139
:100900001E00213F21000F300F003E093E003F0630
:100910003F003F20200011241FBECFEFDAE0DEBFF2
:10092000CDBF12E0A0E0B1E0EEE6FCE602C005902B
:100930000D92AA30B107D9F725E0AAE0B2E001C0D4
:100940001D92A13FB207E1F70E94A0290C94F8354F
:1009500057CBE091D703F091D803309739F0028458
:10096000F385E02D309711F060E209950895982FF6
:10097000E091D60340919D0357E0E41302C080E06C
:1009800008952E2F30E05E9FF0011124E256FC4FB7
:100990008181681306C08081981303C0858181110D
:1009A000EFCFF9013196E770E8CFE8EDF0E0808114
:1009B0008E7F80831092E2001092DA001092E100A4
:1009C000A0EEB0E08C9181608C9380818F778083E2
:1009D00019BCA7EDB0E08C918E7F8C9380818F7EC7
:1009E00080831092870308952091E4003091E50000
:1009F00095E6A9012091EC00822F817020FF06C0AE
:100A00008091E80080FF06C080E008952091E80012
:100A100022FD1AC080919303882389F0853089F0E4
:100A20008091EB0085FD0FC02091E4003091E5003E
:100A300042175307F9F29150E1F684E0089582E0FD
:100A4000089583E0089581E008958091950387FFDC
:100A500013C08091E80082FF06C08091E8008B7788
:100A60008093E80004C0809193038111F2CF089530
:100A7000809193038823D9F38091E80080FFF8CF19
:100A80008091E8008E77ECCF982F9093E900242F87
:100A9000762F50E0891731F07091EC002091ED0035
:100AA0005091F00021FD07C09F5F973071F7809350
:100AB000E90081E008953091EB003E7F3093EB0038
:100AC0003091ED003D7F3093ED003091EB003160CF
:100AD0003093EB007093EC002093ED005093F00006
:100AE0002091EE0027FDE0CF80E00895B0E0A0E087
:100AF000ECE7F5E00C94BE34C8EDD0E088818F7E41
:100B00008883E7EDF0E080818160808384E082BFAC
:100B100081E08093870388818E7F888302EE10E0D6
:100B2000F80110821092DA0081EEC82ED12CF60165
:100B3000108288818F778883888180688883888104
:100B40008F7D888319BC10929303109294031092A6
:100B500092031092910390EEE92EF12CF70180811F
:100B60008B7F808388818160888342E060E080E0C1
:100B70008BDFF60180818E7F8083F8018081816028
:100B80008083808188608083F70180818E7F80836D
:100B9000888180618883CDB7DEB7E8E00C94DA34D1
:100BA000FC01CB0120919B0330919C032617370752
:100BB00090F0009729F42091E8002E772093E80028
:100BC00040E0009751F4411108C08091E80082FF95
:100BD00031C080E00895C901F3CF2091930322230F
:100BE000A9F12530A9F12091E80023FD2DC0209125
:100BF000E80022FDEACF2091E80020FFE2CF30910B
:100C0000F3002091F200009719F02830310558F0D8
:100C100041E02830310509F040E02091E8002E77CE
:100C20002093E800CECF41914093F10001972F5FD0
:100C30003F4FE9CF80919303882341F0853041F005
:100C40008091E80083FFC1CF81E0089582E008959C
:100C500083E00895089587E797E7909301088093CC
:100C6000000888E19AE00FB6F894A8958093600098
:100C70000FBE90936000FFCFA4E0B0E0E2E4F6E0A6
:100C80000C94C4348FB7F89420918303309184037B
:100C9000409185035091860329833A834B835C837B
:100CA0008FBF69817A818B819C812496E2E00C94CC
:100CB000E0348091AC010895DC01FB0111969C9118
:100CC00011978181981322C012968C9112978823D4
:100CD00019F0928189131AC013968C911397882367
:100CE00019F09381891312C015968C91159788235A
:100CF00019F0958189130AC014969C91992321F0CB
:100D000081E02481291303C080E001C081E081706B
:100D10000895A3E0B0E0EFE8F6E00C94C4349C0141
:100D2000809180039091810382179307B1F03093F3
:100D3000810320938003E091D703F091D80330978B
:100D400061F00084F185E02D309739F084E08983EB
:100D50003B832A83CE01019609952396E2E00C9409
:100D6000E034A3E0B0E0E7EBF6E00C94C4349C017F
:100D700080917E0390917F0382179307B1F03093A7
:100D80007F0320937E03E091D703F091D80330973F
:100D900061F00084F185E02D309739F083E089839C
:100DA0003B832A83CE01019609952396E2E00C94B9
:100DB000E034DC01E091D703F091D803309759F08B
:100DC00086819781892B39F082E08C930680F781A8
:100DD000E02DCD010995089580917C03882369F069
:100DE000E091D703F091D803309739F00190F0816A
:100DF000E02D309711F00995089580E008958091D5
:100E0000710380FD16C081FD16C082FD16C0809161
:100E100070038823A1F0883280F428E0829FC0010B
:100E2000112468E270E00E940635862F672B39F0A6
:100E3000089582E0089584E0089588E0089581E0AF
:100E400008958091710380FD14C081FD14C082FD5E
:100E500016C080916F03882381F08E3180F420E5E5
:100E6000829FC00111246EE170E00E940635862F3A
:100E7000089584E1089588E2089588E0089580E562
:100E80000895282F35EB2303C001112497FF04C0D8
:100E900080589109892F089580589F4FFBCFFC01FE
:100EA000680F791F8FEF91E32191822728E030E0CE
:100EB00087FF09C0880F892721503109C9F7E61734
:100EC000F70791F70895880FF7CF90919F01882336
:100ED00041F09F5F90939F0110929C0110929B01A3
:100EE00008959150F7CFE4E9F1E0828591E08927F8
:100EF000828710861782089580919D01811114C008
:100F000080919F01811110C080919E0181110CC0C0
:100F10009091430396959695969581E02091950141
:100F2000921380E08170089581E0FCCF80916F0181
:100F3000F90180830895CF93DF93EFE6F1E0838199
:100F40009481A581B681E90188839983AA83BB83B3
:100F50001482138216821582DF91CF91089580E06A
:100F6000089563E070E084EA92E099DF9091A30233
:100F7000891318C0E091A402EB30A4F488E0E802E1
:100F8000F0011124E65FFE4F0680F781E02D3097D7
:100F900049F027EC32E04091A60267EA72E08091C6
:100FA000A50209950895EAE0F1E0A8E9B2E01D96EE
:100FB0008C911D9780A71E968C9183AF0895A4E015
:100FC000B0E0E5EEF7E00C94C43480917C03882314
:100FD00069F052DE69837A838B839C8369817A818D
:100FE0008B819C812496E2E00C94E03445DE698399
:100FF0007A838B839C838091F8029091F902A0916F
:10100000FA02B091FB0229813A814B815C81280F61
:10101000391F4A1F5B1F29833A834B835C83DECFD2
:10102000811522E5920708F04AC0811530E5930743
:1010300008F0C5C0803E910540F58D3C910508F053
:101040009AC0883A910580F4853A910508F090C0DD
:101050008130910541F09C0124503109213A31053C
:1010600010F090E080E008959C01285A31092B315E
:101070003105B8F7885AE82FF0E0EE0FFF1FEF5464
:10108000FE4F8081918194640895811540E4940716
:1010900098F4811550E2950708F0ABC0883E9105A1
:1010A00010F39C013A9521153F41D8F620E0392FE5
:1010B000A901482BCA0108959F70906A089580384D
:1010C00052E59507B8F5803622E5920708F05CC036
:1010D000803432E59307C8F4803242E5940708F083
:1010E0004CC0282F2695269550E2259F900111246B
:1010F000482F437081E090E002C0880F991F4A9505
:10110000E2F7822B932B9D680895282F269526952C
:10111000277040E2249F90011124482F437081E002
:1011200090E002C0880F991F4A95E2F7822B932B1B
:101130009C680895803C52E5950760F4282F2F7134
:10114000803A9245B0F5822F90E0982F8827846FDF
:10115000906A08959C01205C32452032310508F0E8
:1011600080CF982F882788279F71806F906A089575
:10117000849790640895906508958F7190E0982FFA
:101180008827816F906A0895282F269526952770C5
:1011900050E2259F90011124482F437081E090E098
:1011A00002C0880F991F4A95E2F7822B932B9A6809
:1011B0000895822F90E0982F8827906208959C01CF
:1011C00095E0369527959A95E1F72F7030E0322F0C
:1011D0002227482F4F7150E084FF06C084E0440F5F
:1011E000551F8A95E1F75527C901842B952B9069E6
:1011F00008959F71E2CF982F90958091880389235D
:101200008093880308958091D60390919D0398134D
:1012100001C008958F5F8770FACF9A3078F58830D3
:1012200068F548E0949F90011124280F311D682F24
:10123000677083E0369527958A95E1F7F901EE0FFF
:10124000FF1FE20FF31FE959FD4F30E020E080E07F
:10125000419150E0062E02C0569547950A94E2F758
:1012600041705527022E01C0440F0A94EAF7842BDF
:101270002F5F3F4F2330310559F7089580E00895DF
:10128000282F9A3090F5883080F538E0939FC00180
:101290001124820F911D277041E001C0440F2A954F
:1012A000EAF723E0969587952A95E1F7FC01EE0F82
:1012B000FF1FE80FF91FE959FD4F30E020E070E013
:1012C0005191DF011197CB01022E02C096958795AF
:1012D0000A94E2F7817081958527842385278C9372
:1012E0002F5F3F4F2330310559F708958093FE0259
:1012F0000895982F82958F7011F0982F84E0292FF0
:101300002695269511F08E5F922F969509F08F5FA6
:1013100008959C019A9581159F4150F5D901AA27FE
:10132000B170F901EE27F270B90166277470A90156
:101330004427587034FF0EC080E1AB2B09F480E0E5
:10134000EF2B09F08062672B09F08064452B89F050
:101350008068089581E0AB2B09F480E0EF2B09F061
:101360008260672B09F08460452B19F0886008952E
:1013700080E00895CF93C82F80917C018C1749F0AD
:101380007BDC60937D0170937E0180937F0190935D
:101390008001C0937C01CF910895ACE0B0E0E3ED13
:1013A000F9E00C94B6346C017B01DC011296ED91EE
:1013B000FC9113978D919C91222309F450C02091A8
:1013C0008101211101C024E02150330B32E0832E32
:1013D000912C02C0880C991C2A95E2F7B4010E9456
:1013E00006359B01D6018D939C93CF01B4010E94D9
:1013F0000635F601938382836138FFEF7F0704F19E
:1014000060387105FCF4D70115966C932138BFEF55
:101410003B07D4F020383105CCF4822F8195F701B9
:101420008483442319F0619565832483809182012C
:10143000882371F0813081F02C96E0E10C94D23455
:1014400061E8E1CF6FE7DFCF21E8E7CF2FE7E5CF16
:10145000D70115961C92F0CFF7011482EDCF21E051
:101460002427411106C0F195E195F10991958195E7
:101470009109022F10E044E0249F90011124D9012A
:10148000AD5CBD4F6D917C911197AB0177FF02C0B0
:101490004D5F5F4F55954795559547954F01841A78
:1014A000950AA401460F571F4D935C93F901ED5C1B
:1014B000FD4F42815381BA0157FF02C06D5F7F4FDC
:1014C00075956795759567955C01A61AB70AA40E80
:1014D000B51EBA82A982F901ED5CFD4FB382A282EA
:1014E0002081318137FF02C02D5F3F4F3595279511
:1014F0003595279549815A8157FF04C04D5F5F4F4D
:101500005A83498369807A80759467947594679447
:1015100050901F0353E0000F111F5A95E1F755201B
:10152000A9F0A90137FF04C044275527421B530BDC
:10153000C30177FE04C088279927861997094817A1
:1015400059070CF4AC0141155105B9F4F801ED5DF2
:10155000FD4F10821182128213821482158216822C
:101560001782D70112962C93129713966C92F6015C
:1015700011821082138212825FCF0D5D1D4FDA013E
:101580000E943B3569837A838B839C83F801808139
:101590009181A281B38189809A80AB80BC80880EC2
:1015A000991EAA1EBB1E89829A82AB82BC829A01B6
:1015B000D3010E943B356D837E838F83988784811E
:1015C0009581A681B7812D813E814F815885280F55
:1015D000391F4A1F5B1F2D833E834F835887652D1C
:1015E00070E080E490E00E9406354B01770FAA0876
:1015F000BB0869817A818B819C81A50194010E943D
:10160000193529013A01D8016D937D938D939C93EF
:1016100013976D817E818F819885A50194010E9429
:10162000193529833A834B835C83A5019401698131
:101630007A818B819C810E94EB344B015C018D810E
:101640009E81AF81B88588199909AA09BB09F8015B
:1016500084839583A683B78321E83FEFF1E84F1693
:10166000FFEF5F066F067F063CF020E8421651044C
:1016700061047104E4F4920149815A816B817C8197
:1016800091E8692E77247A9441388FEF58076807DC
:1016900078070CF466CF69807A804038510561057F
:1016A00071050CF45ECF8FE7682E712C5ACF2FE7AF
:1016B00030E0E2CF8F708A3010F4805D0895895A4F
:1016C000089520E297FF04C09195819591092DE23C
:1016D000EAE0F0E0BF010E940635805D80932102C0
:1016E0006115710559F42093200220E220931F0216
:1016F00020E220931E028EE192E00895CB01BF010B
:101700000E940635805D809320026115710571F39A
:10171000CB01BF010E940635805D80931F02E9CF97
:10172000AC01860F971F57FD07C077FD04C097FFD8
:1017300002C08FEF9FE7089577FFFDCF97FDFBCFA6
:1017400080E090E80895E82FE295EF70F0E031A195
:10175000282F2F7081E090E001C0880F2A95EAF7CA
:10176000932F982B91A392A18095892382A308950A
:10177000E82FE295EF70F0E041A18F7021E030E0BA
:10178000B90102C0660F771F8A95E2F7CB01962F49
:101790009095942391A392A1892B82A30895B0E000
:1017A000A0E0E5EDFBE00C94BE34F82EE92E8B01B1
:1017B0008091E405CC24C394D12C8A3018F48AE0BB
:1017C000C82ED12CC1E0D0E06AEE75E08F2D9E2DA1
:1017D000F8010995811104C02196CC16DD062CF480
:1017E000CDB7DEB7E8E00C94DA34CC9F9001CD9F02
:1017F000300D300D112490E080E045E34A95F1F77B
:101800000000019682179307C1F7DECF0F931F9355
:10181000CF93DF938B01EA0190919303943059F5B4
:101820008093E9008FEF9091E800815095FD06C00C
:1018300095ED9A95F1F700008111F5CF8091E800C0
:1018400085FF19C0D1D8811111C08091E80085FDB4
:1018500006C08091E8008E778093E800F3CFF8010E
:1018600081918F018093F100219779F78091E800B1
:101870008E778093E800DF91CF911F910F910895AB
:10188000BC0143E050E084E0C1CFBC0146E050E041
:1018900084E0BCCFCF93DF93D82FC92F48E050E02E
:1018A000682F792F81E0B2DF88E0ED2FFC2FA9E8C7
:1018B000B3E001900D928A95E1F7DF91CF91089501
:1018C000792F603229F440E250E0682F82E09ECF09
:1018D0000895EDE9F1E083E0DF011D928A95E9F7D3
:1018E000E9E9F1E084E0DF011D928A95E9F70895C6
:1018F0009C0180919601909197018217930729F09E
:101900003093970120939601E4CF0895909194012C
:10191000981719F080939401DCCF0895CF936BE270
:1019200073E08DE393E0C8D9C82F882319F08DE3C5
:1019300093E03FDA90913E0386E0EDE3F3E0DF01D0
:10194000282F1D922A95E9F790933E03ABE2B3E06E
:1019500001900D928A95E1F781E0C11103C09111C8
:1019600001C080E08170CF910895CF93DF93282F3D
:1019700081E02A3019F02D3029F480E088D0DF9101
:10198000CF9108958091E2059091E30536E0FC0146
:10199000ACEDB5E001900D923A95E1F730EE320FE3
:1019A000343A08F458C026E0FC0111922A95E9F770
:1019B000C091E205D091E30546E050E0BE018CED18
:1019C00095E00E948B359E012C5D3340892B41F1BF
:1019D000C90145E0969587954A95E1F741E050E0C9
:1019E000BA0102C0660F771F8A95E2F7CB016091BA
:1019F000DA037091DB03862B972BB9016B5F7F4F66
:101A0000E5E076956795EA95E1F702C0440F551F2A
:101A10006A95E2F7842B952B9093DB038093DA038E
:101A20002A5F3F4F4091D903642F70E0C9010E94A3
:101A3000A034481B463010F4240F311D211572E0EC
:101A4000370710F030E020E024523C4F3093E3059C
:101A50002093E20594CF2052330B46E0429FB00121
:101A6000439F700D1124625C7A4F46E050E00E9463
:101A700082359ECFCF93DF93EC01FE0184918111DB
:101A800003C0DF91CF91089570DF2196F6CFCF93F9
:101A9000382FE091E205F091E305EC5DF3402091F1
:101AA000D903622F70E0CF010E94A034281B822F3F
:101AB000332359F066E00E94FA34C82FC15010F465
:101AC000CF91089580E251DFF9CF9F01280F311D9A
:101AD0002115324018F080E0F0E0E0E08E0F9F2FFB
:101AE000911D84529C4F9093E3058093E205E8CFCB
:101AF0008091880390918D02892B90918C0299237B
:101B000089F0892B90E02EE032E0F90140812F5FCF
:101B10003F4F41119F5F42E024313407B1F79111EB
:101B200010928C0280930C0248E050E06EE872E064
:101B30008CE092E00E948B35892BB9F088E0ECE0D4
:101B4000F2E0AEE8B2E001900D928A95E1F7E09103
:101B5000D703F091D803309741F00280F381E02D54
:101B6000309719F08CE092E009950895882339F0B8
:101B7000809590918D02892380938D02B9CF08952D
:101B8000882331F090918D02892B80938D02B0CF04
:101B90000895882311F02FDBABCF0895882331F00F
:101BA00090918803892B80938803A2CF08950F9387
:101BB0001F93CF93DF93EC01FC0101900020E9F724
:101BC0008F0101501109C017D10728F0DF91CF9183
:101BD0001F910F9108958991C8DEF5CF1F93CF9380
:101BE000DF93C62F122F632F8430D8F4CA30C8F485
:101BF0004830B8F490E1C99FE001112450E0440F4F
:101C0000551FC40FD51F90EA899FC00DD11D112407
:101C1000CE0185960E94C335612FCE0186960E9423
:101C2000C335DF91CF911F910895AF92BF92CF92AC
:101C3000DF92FF920F931F93CF93DF93B12CA12CD0
:101C400000E0650110E012C0FE01259134914F2D96
:101C5000612F802FC3DF2296F39488E0F812F4CF2F
:101C600088E0C80ED11C1F5F1A3039F0E601CC0F96
:101C7000DD1FCB5DDD4FF12CE7CF0F5F80E5A80EB8
:101C8000B11C0430F1F6DF91CF911F910F91FF90BD
:101C9000DF90CF90BF90AF9008950F931F93CF9395
:101CA000DF93843038F56A3028F5483018F520E1A4
:101CB000629FE0011124642F70E0660F771FC60F4A
:101CC000D71F30EA839FC00DD11D1124CE01859608
:101CD0000E94B135082F10E0102F0027CE01869604
:101CE0000E94B1359801282BC901DF91CF911F9136
:101CF0000F91089590E080E0F8CF462F672F7A305B
:101D000028F4483018F4843008F4C7CF80E090E01D
:101D10000895B0E0A0E0EFE8FEE00C94BF347C0151
:101D2000009144038091FE02082BC3E0D0E010E054
:101D3000DC2EC8010C2E02C0959587950A94E2F717
:101D400080FD09C02197A0F7D12C8D2DCDB7DEB72E
:101D5000E7E00C94DB34B7018C2FCFDF61D901971A
:101D600089F3F3CFCF93DF93D82FC92FD2DF6D2F15
:101D70007C2FC3DF55D9DF91CF910895FC01848179
:101D8000882399F080819181EDDF282F92959F70B3
:101D9000963091F060F4925F9F70923030F481E061
:101DA000203F81F030F4283E30F080E004C09A5F9C
:101DB000F3CF243FD1F7089581E0283E20F0213F62
:101DC000A1F7F9CF08950895A6E0B0E0EAEEFEE0AD
:101DD0000C94C3349C0186E0F901DE011196019058
:101DE0000D928A95E1F7F901258189819A81222353
:101DF00081F0662371F08DDF182F682F89819A8119
:101E00003FDA69817A81812F78DF2696E3E00C94AE
:101E1000DF3403DA182FF5CFAB0124E630E0BC0144
:101E200088E70E9465329C0181E0232B09F080E065
:101E3000089580916B0390916E03911103C091E01E
:101E400089270895882361F062E070E086EE91E0D2
:101E5000E3DF811103C080916B03089510926B033F
:101E600080916B03ECCFA5E0B0E0E9E3FFE00C94D8
:101E7000C43480916B038D8380916E038823E9F0D5
:101E80000E943C06DC01CB01805A9541AF4FBF4F09
:101E90008093670390936803A0936903B0936A03E8
:101EA0008D81811107C062E070E084EE91E0B4DFC3
:101EB000811108C080916B038D838D812596E2E0AE
:101EC0000C94E03481E080936B03F4CF20E1FC01BB
:101ED000A2E4B2E001900D922A95E1F740E150E0D2
:101EE00060E472E00C94E135CF93DF93E4E4F2E038
:101EF00086E0DF011D928A95E9F7E2E4F2E088ECE2
:101F000090E091838083C1E0C3838AE892E0958367
:101F100084838AE086838FE29AE09187808780E3DA
:101F20009AE0938782878FE298E09587848780E3A1
:101F300098E09787868740E150E060E472E0CF0147
:101F40000E94E135C093410283E080931E0363E069
:101F500080EE93E00E94EA35C0931D038EEF8093DC
:101F60001C036EEF81EE93E00E94EA35C0931B03E1
:101F7000D2E3D0931A0362E382EE93E00E94EA3543
:101F8000C0931903D093180362E383EE93E00E9499
:101F9000EA35C09317036BE48EEF93E00E94EA35B5
:101FA00065EA8FEF93E00E94EA35DF91CF910895C3
:101FB00080914002811110C081E0809340028EEF39
:101FC00093E00E94B1358B3431F48FEF93E00E949F
:101FD000B135853A09F088CF0895EADF809117037B
:101FE00081110EC083EE93E00E94B13596EF980FF9
:101FF0009F3B08F082E38093180381E080931703EE
:10200000809118030895D4DF8091190381110EC0C7
:1020100082EE93E00E94B13596EF980F9F3B08F057
:1020200082E380931A0381E08093190380911A035D
:102030000895BEDF80911B0381110CC081EE93E0F7
:102040000E94B135883008F08EEF80931C0381E048
:1020500080931B0380911C030895AADF80911D03C8
:1020600081110BC080EE93E00E94B135883040F4BE
:1020700080931E0381E080931D0380911E030895C9
:102080008E3FB1F383E0F4CFCF93DF93D82F31D9D4
:10209000C82FE3DF982F81E09C1380E06BD9C9DF64
:1020A00091E08C1390E0909335038C1791F0809120
:1020B000360381110EC080913B0381110AC010923A
:1020C0003A0310923903109238031092370310929A
:1020D00034038D2FDF91CF910895D6DF8093440391
:1020E000089521E030E001C0220F8A95EAF720959B
:1020F000809144038223F1CF9091430380958923FB
:1021000080934303282F277061F4891751F0909131
:10211000000392FF06C0869586958695E2DF1092B1
:102120004303089521E030E001C0220F8A95EAF7C9
:1021300080914403822BD1CFCF93DF93D82FC92F27
:1021400037DF80914102811120C040E150E060E41E
:1021500072E082E492E00E94A13580914202909167
:102160004302C297873B934068F0E4E4F2E08EE0DC
:10217000DF011D928A95E9F788EC90E09093430285
:102180008093420281E08093410280E1E2E4F2E048
:10219000AD2FBC2F01900D928A95E1F78D2F9C2FCA
:1021A000DF91CF910895A0E1B0E0E9EDF0E10C946A
:1021B000C434CE010196C0DF89819A819C012253EB
:1021C0003109273B334010F088EC90E06096E2E064
:1021D0000C94E0349091000392FB222720F92817F9
:1021E00071F080FB92F9909300036091FF0270916F
:1021F000000384E090E00E94DD3582E07DCF089509
:10220000B0E0A0E0E6E0F1E10C94BE34FA0169012F
:102210007801C82F880FDD0B3097B1F0DE0193E015
:10222000AA0FBB1F9A95E1F7A65FBE4F11968D913D
:102230009C91129788569D4F4C9150E0E417F507FA
:1022400008F4AF010E949835CE010E943034182F57
:102250008823D1F0E114F104B9F083E0CC0FDD1F45
:102260008A95E1F7FE01E65FFE4F438150E0E416F8
:10227000F50608F4A701C65FDE4F6C817D816856C4
:102280007D4FC6010E949835812FCDB7DEB7E8E0BB
:102290000C94DA34A5E0B0E0E0E5F1E10C94BC3454
:1022A0008D83E62E5A01F22E68018091E4058A3072
:1022B00028F080E02596EAE00C94D8348D818830AF
:1022C000C4F319828A836B832C8363E070E0CE01B0
:1022D00002960E944F078983E0923201F0924501F5
:1022E00010E000E030E020E044E050E0BE016F5F2D
:1022F0007F4F84E085DF8823E1F24E2D50E030E00F
:1023000020E0B50185E07CDF882399F230E020E011
:1023100041E050E0BE016B5F7F4F86E071DF8823B4
:1023200041F20F2D10E0960150E040E070E060E0D7
:1023300087E066DFBFCFA5E0B0E0E1EAF1E10C9411
:10234000BE3400916B0309831091A202C090F40285
:10235000D090F502E090F602F090F7020E943C0661
:10236000DC01CB018C199D09AE09BF0984369105AA
:10237000A105B10530F4812F90E011E0081719068E
:10238000C1F010E000E030E020E041E050E0BE01AC
:102390006F5F7F4F83E034DF182F882351F00E9456
:1023A0003C066093F4027093F5028093F6029093DA
:1023B000F702812F2596E8E00C94DA34A8E0B0E02B
:1023C000E4EEF1E10C94BE34C090F002D090F10242
:1023D000E090F202F090F3020E943C06DC01CB0197
:1023E0008C199D09AE09BF0911E084369105A1053C
:1023F000B10518F10E94DF07DC01CB010296A11D97
:10240000B11D89839A83AB83BC8310E000E030E088
:1024100020E044E050E0BE016F5F7F4F82E0F0DEDD
:10242000182F882351F00E943C066093F0027093AD
:10243000F1028093F2029093F302812F2896E8E054
:102440000C94DA348F929F92AF92BF92EF92FF92E8
:102450000F931F93CF93DF93CDB7DEB72A970FB6B5
:10246000F894DEBF0FBECDBF7B0101E010E09E01FE
:102470002A5F3F4F50E040E070E060E080E0C0DE67
:10248000182F882309F44FC08090EC029090ED0241
:10249000A090EE02B090EF020E943C066F83788716
:1024A00089879A87DC01CB0188199909AA09BB0998
:1024B00084369105A105B10548F465E070E089E92D
:1024C00092E00E944F079E81891769F105E010E0B4
:1024D0009E012F5F3F4F50E040E070E060E081E000
:1024E0008FDE082F65E070E089E992E00E944F07D7
:1024F00011E09E81981310E0102301F10E943C0628
:102500006093EC027093ED028093EE029093EF02E1
:1025100085E0FE013196A7EEB2E001900D928A951A
:10252000E1F711E00BC085E0E9E9F2E0DE01119688
:1025300001900D928A95E1F71111EACF85E0E7EE5F
:10254000F2E0D70101900D928A95E1F7812F2A964A
:102550000FB6F894DEBF0FBECDBFDF91CF911F91B4
:102560000F91FF90EF90BF90AF909F908F90089544
:10257000CF9388EC90E02091E300C22FCC1FCC27B2
:10258000CC1F27FD0CC0EFE3FCE93197F1F700C049
:102590000000019781F70E94D50410929303C09325
:1025A0007C0357985F9A879A8F98F5E0FA95F1F730
:1025B000000089B187FB882780F987988F9A90EA75
:1025C0009A95F1F780937D038093090180917C03B4
:1025D00081110E944C33CF91089528E030E043E010
:1025E00060E086E30C942831CF93DF93D82FC62F79
:1025F000F4DF8D2F80680E943A318C2F0E943A318F
:102600008AEB8A95F1F700C00E946A3183E492E078
:102610000197F1F700C00000DF91CF910895682F76
:10262000893708F068E760937A0191E090937B0125
:1026300090916F01992349F06150811101C064E0CC
:10264000683708F067E78FE0CFCF0895FB018081FE
:10265000E6CF282F80917A01811101C085E0022EFA
:10266000000C330B820F932F911D1816190614F0CE
:1026700081E090E0D4CFACE0B0E0E1E4F3E10C9491
:10268000C0344F83588769877A878B879C8780916E
:102690006F01882309F442C080913B02811106C07A
:1026A00060E080E5A1DF81E080933B0296DF80E57A
:1026B0000E943A310AEB0A95F1F700C00E945231AC
:1026C0000E9452310E9452317C010E94523160E0DE
:1026D000E62AF82A0E9452318C010E94523120E0F1
:1026E000022B182B0E946A3125E02A95F1F7000091
:1026F000F894B701809172019091730111D8909371
:10270000730180937201B8018091740190917501F9
:1027100007D89093750180937401789480917C031D
:10272000882309F466C00E943C06462F572FBC013F
:1027300080913C0290913D02A0913E02B0913F02F7
:102740008A019B01081B190B2A0B3B0BD901C801FD
:102750000897A105B10508F44CC040933C02509382
:102760003D0260933E0270933F0280917D01909103
:102770007E01A0917F01B0918001481B590B6A0B2B
:102780007B0B423351056105710580F41092730192
:1027900010927201109275011092740110927701DB
:1027A00010927601109279011092780110917D03B8
:1027B00020917C01412FBE01695F7F4F82E791E04C
:1027C0000E94CD0920917C0180916F01282741E072
:1027D0004127BE01695F7F4F86E791E00E94CD09E6
:1027E00086E0FE013796A7E8B1E001900D928A9548
:1027F000E1F786E0FE013796DE01119601900D9219
:102800008A95E1F729813A814B815C816D817E81D6
:1028100080E090E02C96E6E00C94DC34CF93C82F57
:10282000DCDE8C2F0E943A318FE792E00197F1F7BE
:1028300000C000000E945231C82F95E09A95F1F730
:1028400000000E946A3185E68A95F1F70000109237
:102850003B028C2FCF910895CF93DF930E94973046
:10286000269ABBDE6AE58AE3BFDE2FEF80E792E0BF
:10287000215080409040E1F700C0000082E0CEDFB0
:1028800083E0CCDF84E0CADF85E0C8DF86E0C6DF16
:1028900060E080E1A9DE80E0C1DFD82F81E0BEDF0B
:1028A000C82F0E946A31D23419F481E0C13009F096
:1028B00080E0817080936F01882319F064E08FE0DD
:1028C00093DE81E0DF91CF9108951F920F920FB6B2
:1028D0000F9211242F933F934F935F936F937F93A6
:1028E0008F939F93AF93BF93EF93FF938091E100FA
:1028F00082FF09C08091E20082FF05C08091E10063
:102900008B7F8093E1008091DA0080FF24C080916A
:10291000D80080FF20C08091DA008E7F8093DA009B
:102920008091D90080FFA9C080E189BD82E189BD85
:1029300009B400FEFDCF81E080939303809187036B
:10294000811109C00E94D5040E9476058091E200A1
:1029500084608093E2008091E10080FF1AC0809142
:10296000E20080FF16C08091E2008E7F8093E2003B
:102970008091E20080618093E2008091D8008062C3
:102980008093D80019BC85E08093930383E0809303
:10299000AE018091E10084FF2FC08091E20084FFAE
:1029A0002BC080E189BD82E189BD09B400FEFDCF65
:1029B0008091D8008F7D8093D8008091E1008F7E38
:1029C0008093E1008091E2008F7E8093E20080910D
:1029D000E20081608093E20080919403882309F4EF
:1029E00052C084E08093930380919303843009F470
:1029F00052C081E08093AE018091E10083FF2CC042
:102A00008091E20083FF28C08091E100877F80935E
:102A1000E10082E080939303109294038091E1009F
:102A20008E7F8093E1008091E2008E7F8093E200B0
:102A30008091E20080618093E20042E060E080E00B
:102A40000E9444058091F00088608093F00081E04E
:102A50008093AE018093AD01FF91EF91BF91AF9153
:102A60009F918F917F916F915F914F913F912F91A6
:102A70000F900FBE0F901F90189519BC10929303E2
:102A80001092870368CF8091E30087FD02C081E048
:102A9000A9CF83E0A7CF82E0ADCF78941F921FB675
:102AA0001F9211248F939F93AF93BF9380918303C1
:102AB00090918403A0918503B09186030196A11D96
:102AC000B11D8093830390938403A0938503B093F7
:102AD0008603BF91AF919F918F911F901FBE1F9052
:102AE00018952FB7F8948091830390918403A09157
:102AF0008503B09186032FBF0895F3DF20917803FB
:102B000030917903232B21F0809374039093750304
:102B100020917A0330917B03232B21F08093720361
:102B20009093730386E793E00C94D906CF93C6E0A5
:102B3000EEE0F2E0DF018C2F1D928A95E9F790E03C
:102B400080E00E94B10690E080E00E948906109229
:102B50008D020E94780DE6E7F3E0DF011D92CA9531
:102B6000E9F710926F031092700310927103C5DFA2
:102B7000CF910895AAE2B0E0E0ECF5E10C94C33403
:102B800085E993E0FC0101962091F100208323E088
:102B90008D399207B9F780919603893009F45BC0AB
:102BA000C8F4823009F4B8C0833009F487C081309A
:102BB00099F18091E80083FF3BC18091950390914A
:102BC00096039A3008F034C1E92FF0E0E650FA4C51
:102BD0000C9435358A3009F48EC08B3051F78091D2
:102BE0009503813231F78091990390919A03892B53
:102BF00001F78091E800877F8093E8000E94250517
:102C000081E090919703911101C080E08093AD0124
:102C1000109288038BDFCDCF80919503813A49F6DE
:102C20008091E800877F8093E800809199039091DC
:102C30009A03892B61F468E089E893E070E00E94D0
:102C4000D0058091E8008B778093E800B2CF60E0F8
:102C500090E080E0F3CF80919503813209F0A9CF15
:102C60008091990390919A038D7F892B09F0A1CFD0
:102C70008091E800877F8093E8008091E80082FFE0
:102C800018C09091F3008091F200029731F4809186
:102C9000F100813011F0863021F48091F1008093B1
:102CA000AC018091E8008B778093E8000E942505B5
:102CB00080CF809193038111E0CF7BCF80919503EA
:102CC000813A09F076CF8091990390919A03892BEC
:102CD00009F06FCF8091E800877F8093E8008091B2
:102CE000E80080FFFCCF8091AD018093F1008091DE
:102CF000E8008E77D9CF80919503813209F059CFC2
:102D00008091E800877F8093E8000E9425058091EC
:102D100098038093AB014DCF80919503813A09F0E0
:102D200048CF8091E800877F8093E8008091E80099
:102D300080FFFCCF8091AB01D8CF803899F08238EA
:102D400009F076C0809199038F70873008F070C0C9
:102D50008093E9008091EB0085FB882780F9109231
:102D6000E90006C0809191039091920391118260D5
:102D70009091E800977F9093E8008093F100109283
:102D8000F1008091E8008E77B7C1882309F4A4C1CF
:102D9000823009F04DC0809197038111A8C18091C4
:102DA00099038F702FEF280F263008F041C08093D1
:102DB000E9002091EB0020FF9AC1933031F480911B
:102DC000EB0080628093EB0092C19091EB009061E8
:102DD0009093EB0021E030E001C0220F8A95EAF7E2
:102DE0002093EA001092EA008091EB008860EACF1D
:102DF00081111EC0109197031F778091E3008078A6
:102E0000812B8093E3008091E800877F8093E80026
:102E10000E9425058091E80080FFFCCF8091E300AF
:102E200080688093E30082E0111183E08093930334
:102E30008091E80083FF0AC08091E800877F80933B
:102E4000E8008091EB0080628093EB00AA96E3E0BB
:102E50000C94DF348058823058F74091970350919A
:102E600098034C3D83E05807A1F583E08A838AE20A
:102E700089834FB7F894DE01139620E03EE051E2DB
:102E8000E32FF0E050935700E49120FF03C0E29558
:102E9000EF703F5FEF708E2F90E0EA30C0F0C79682
:102EA0008D939D932F5F243159F74FBF8091E80098
:102EB000877F8093E8006AE270E0CE0101960E946D
:102EC000D0058091E8008B778093E800B1CFC09661
:102ED000E7CF8091990390919A03252F33272330D0
:102EE000310509F44AC078F52130310509F479C07B
:102EF0008BE590E0E5EAF4E02230310509F098CF67
:102F00002091E800277F2093E80020919B033091D7
:102F10009C038217930708F49C0140E021153105BA
:102F200009F064C0411162C08091E80082FDC9CF00
:102F300080919303882329F2853019F28091E8006B
:102F400083FFF2CFBECF2132310509F43BC02232DC
:102F5000310509F06DCF8330910508F069CFFC0190
:102F6000EE0FFF1FE250FE4F0190F081E02D8550E3
:102F70009E4FDC018C9190E011C0CA01992741302D
:102F800089F082309105B1F0892B09F051CFEAE345
:102F9000F5E0E4918E2F90E0EAE3F5E0009709F484
:102FA00047CFAECFE8E2F5E0E4918E2F90E0E8E283
:102FB000F5E0F4CFE2E1F5E0E4918E2F90E0E2E17C
:102FC000F5E0ECCF8330910508F032CF880F991FE0
:102FD000FC01EC5FFD4F0190F081E02D89E090E075
:102FE0008FCF82E190E0E0E0F5E08ACF809193031B
:102FF000882309F466CF853009F463CF8091E80017
:1030000083FD5FCF8091E80082FD8ECF8091E80044
:1030100080FF84CF9091F3008091F200211531055B
:1030200019F08830910550F041E0089709F040E030
:103030008091E8008E778093E80070CF44914093B0
:10304000F1003196215031090196E8CF803809F01E
:10305000EFCE8091E800877F8093E8008091940311
:103060008093F1008ECE8111E3CE10919703123040
:1030700008F0DECE8091E800877F8093E80010930F
:1030800094030E942505112311F084E005C080916E
:10309000E30087FDFACF81E08093930342E061EC87
:1030A00081E00E94440542E261EC84E00E94440514
:1030B00042E261EC82E00E94440542E260EC83E07F
:1030C0000E94440580919303843021F081E0809335
:1030D000AE01AECE82E0FBCF80919703813009F044
:1030E000A7CE81E0933009F080E0809392031092A4
:1030F000E9008091E800877F8093E8000E94250521
:1031000097CE1F920F920FB60F9211242F933F93D9
:103110004F935F936F937F938F939F93AF93BF93DF
:10312000CF93DF93EF93FF93D091E900DF7080910D
:10313000EC00C82FC17080FDC0E81092E9008091BA
:10314000F000877F8093F000789414DD1092E900FE
:103150008091F00088608093F000CD2BCF70C093F9
:10316000E900FF91EF91DF91CF91BF91AF919F91D6
:103170008F917F916F915F914F913F912F910F9020
:103180000FBE0F901F90189510928803CFDC2FEF81
:1031900084E39CE0215080409040E1F700C00000B3
:1031A00088E19AE00FB6F894A895809360000FBE6E
:1031B00090936000FFCF662309F46FC08D3C31F41B
:1031C0000E94210781958093790397CC8E3C19F456
:1031D0000E942107F8CF8F3C31F40E94210781958E
:1031E00080937803F2CF803D19F40E942107F8CF35
:1031F000893D29F40E94FF0680937A03E6CF8A3D39
:1032000021F40E94FF068195F7CF8B3D31F40E9497
:10321000FF06819580937B03D8CF8C3D19F40E94E3
:10322000FF06F8CF9FE2980F983018F5282F215D00
:10323000330BA90121E030E001C0220F4A95EAF7E3
:1032400090917703922B90937703815D21E030E09A
:10325000A90102C0440F551F8A95E2F7CA012091C7
:103260003E03662309F492C0822B80933E030C94A4
:103270008E0C8D3D31F480917103816080937103D8
:10328000A4CF8E3D21F4809171038260F7CF8F3DF2
:1032900019F5809171038460F1CF909178038D3C92
:1032A00059F42091790327FF0DC0109279039111F1
:1032B0000BC010926F0308C08E3CB1F420917903CB
:1032C00012169CF39923B1F090917A0320917B031D
:1032D000922B11F410927003482F415D550B48302A
:1032E000510508F4B2CF71CF8F3C39F497FFEACF84
:1032F0001092780390917903DACF803D19F4191672
:10330000BCF3E0CF20917A03893D29F41216D4F65C
:1033100010927A03D7CF8A3D19F427FFD3CFF8CF85
:1033200020917B038B3D29F427FFCCCF10927B03A8
:10333000C9CF8C3D19F41216CCF3C4CF2FE2280F5D
:10334000283088F4282F215D330BA90121E030E0DB
:1033500001C0220F4A95EAF7209530917703232385
:1033600020937703AFCF209171032E7F8D3D59F0CD
:10337000209171032D7F8E3D31F08F3D09F0A2CF5A
:10338000209171032B7F209371039CCF8095822322
:103390006CCF8823B1F19CEF980F913A70F4EEE076
:1033A000F2E09191891303C0DF0111971C9292E022
:1033B000E431F907B1F70C94780D90E2980F98304A
:1033C00050F4877091E001C0990F8A95EAF7892F30
:1033D0000E94FB08F0CF9BE5980F933020F490E01B
:1033E00080E00C94B10698E5980F9B3120F490E0B2
:1033F00080E00C94890693E3980F933110F460E019
:10340000DACE0895CF93DF93EC01C3DFCE010E94A3
:1034100089099E01205E31092830310510F0CD2B3D
:1034200029F40E94C90DDF91CF9108950E94B60D35
:10343000FACF0F931F93CF93C82F882339F18CEFC6
:103440008C0F813AB0F50EE012E0F8018191C817B7
:1034500009F122E0E431F207C9F7EFEF80E0D8018B
:103460009D918D01C91781F0EF3F19F4911101C0B1
:10347000E82F8F5F863099F7EF3F31F00E2E000C6A
:10348000FF0BE45FFD4FC2830E94780DCF911F9127
:103490000F910895EEE0F2E08191C81303C0DF01BF
:1034A00011971C9232E0E431F307B1F70E94780DD6
:1034B000D4CF80E28C0F883068F4C77021E030E010
:1034C00001C0220FCA95EAF780918803822B80936E
:1034D0008803DACF8BE58C0F833038F42C2F2452FD
:1034E000330BC9010E94B106D1CFE8E5EC0FEB31F7
:1034F00050F4F0E0EE0FFF1FEF54FE4F80819181FA
:103500000E948906C3CF83E38C0F833108F0BECFBE
:1035100061E08C2F50DEBACFCF93DF93EC010E9495
:1035200089099E01205E31092830310510F020976D
:1035300039F40E94CE0D8C2F7CDFDF91CF9108955E
:103540000E94C00DF8CFA5E0B0E0E9EAFAE10C94E2
:10355000B83480916E03882309F41EC120916C0356
:1035600030916D033A832983BCDA49815A81841BE7
:10357000950BC29708F4E6C0B4DA90936D0380937C
:103580006C038CED93E09093E3058093E2058091CA
:103590007C03882309F40FC18EEE91E00E943A0D5E
:1035A00088EB0E94B50C809186010E945A0B0E9404
:1035B000B50C89EB0E94B50C809185010E945A0BD5
:1035C0000E94B50C8BEE91E00E943A0D8091830130
:1035D0009091840154E0969587955A95E1F70E9461
:1035E0005A0B0E94B50C809183010E945A0B0E94D5
:1035F000B50C88EE91E00E943A0D8DE891E00E94B2
:10360000D70D8DE092E00E943A0D80918901082E3D
:10361000000C990B0E94610B0E94D70D80918A01CA
:10362000082E000C990B0E94610B0E94D70D80910F
:103630008C01082E000C990B0E94610B0E94D70D83
:1036400080918B01082E000C990B0E94610B0E9447
:10365000D70D85E092E00E943A0D80917A018111A8
:1036600001C085E090E00E94610B01960E94D70D99
:1036700081E092E00E943A0D80918201882331F02E
:10368000813009F48DC088EF91E002C08EEF91E0A7
:103690000E943A0D80917C01882309F484C086E160
:1036A00092E00E943A0D84EF91E00E943A0D8091E1
:1036B0008101811101C084E0805D0E94B50C8CE124
:1036C00092E00E943A0D61E070E07A836983809114
:1036D0004403882309F46AC090E0098002C09595EC
:1036E00087950A94E2F780FF61C089810E945A0B96
:1036F0000E94B50C89819A8101969A8389830897E3
:1037000031F780E20E94B50C89E192E00E943A0D07
:1037100080919401882309F44BC086E192E00E94D5
:103720003A0D80919601909197016AE070E00E94B5
:10373000A034CB010E94610B01960E94D70D80E35B
:103740000E94B50C8091DA039091DB03892B09F07C
:103750004EC080916B038823F9F00E943C06698378
:103760007A838B839C838091670390916803A091F7
:103770006903B0916A0329813A814B815C81281BDE
:10378000390B4A0B5B0BDA01C9018F3F9F4FAF4FDB
:10379000BF4710F40E94190F2596EEE00C94D43424
:1037A0008BEF91E075CF83E192E07BCF80EBA0CFF0
:1037B00083E192E0B4CF90E99983A981A051AD83D0
:1037C00082E292E00E943A0D8D81B82FBF5FBD83E7
:1037D0000E94B50C6D8029816212F6CF80E00E94B4
:1037E000470D3981305F3983303C39F7ABCF809159
:1037F0006E03882309F4ADCF809166038111A9CFB0
:103800000E94330F2091DA033091DB03211531053B
:1038100009F49FCF80E041E050E0082F10E0BA01AA
:10382000082E02C0660F771F0A94E2F77A83698335
:1038300062237323672B11F48F5FEFCF90916503A1
:1038400090FF97C0880F880F880F8093A601109271
:10385000A901895F8093A70183E08093AA0124E6F0
:1038600030E047E050E064EA71E088E70E942232ED
:10387000892B09F06ECFA80125E0440F551F2A952A
:10388000E1F78091650380FF86C0E5E4F3E080E224
:10389000DF011D928A95E9F707EF11E083EFE82E2B
:1038A00081E0F82E97E0992E88248394D801ED9139
:1038B0008D01D7016D917D01640F752F711D6452CB
:1038C0007C4FF0E0EB5BFC4F30E020E0792C721A8B
:1038D000A82C022E01C0AA0C0A94EAF76B0190E012
:1038E000D6018D916D018A21A72DA91BA770BA2E33
:1038F0000A2E000CBB0B682E01C0660CBA94EAF7C6
:10390000B62CB195A195B109A770BB2701C08695CA
:10391000AA95EAF7A62DA82B80818A2B80839F5F2A
:103920009830F1F62F5F3F4F31962830310571F610
:1039300021E00B3F120709F0B9CF04E610E020E2C6
:1039400030E045E453E060E488E70E94AA32892B26
:1039500009F0FFCE49815A81409550958091DA0354
:103960009091DB03482359235093DB034093DA0300
:10397000F0CE8295880F80768093A60198013695C7
:103980002795369527952093A901815E8093A701FD
:103990002093AA0164CF44525C4F04E610E020E279
:1039A00030E0D1CFA4E3B0E0E8EDFCE10C94BE340C
:1039B00080913103833009F097C240913D035091CB
:1039C0003E0360913F0370914003809141039091C9
:1039D00042030E943B1320933D0330933E034093E8
:1039E0003F0350934003609341037093420386E08A
:1039F000EDE3F3E0DE01519601900D928A95E1F737
:103A000086E0FE017196DE015D9601900D928A9529
:103A1000E1F786E0FE017D96DE01119601900D92A0
:103A20008A95E1F786E0FE013196ADE3B3E00190BF
:103A30000D928A95E1F786E0EDE3F3E0DE01519621
:103A400001900D928A95E1F786E0FE017196DE0104
:103A5000939601900D928A95E1F786E0FE01B39668
:103A6000DE01119601900D928A95E1F786E0FE0144
:103A70003196ADE3B3E001900D928A95E1F786E0CF
:103A8000EDE3F3E0DE019F9601900D928A95E1F758
:103A900086E0FE01BF96DE01579601900D928A9551
:103AA000E1F7E9A8FAA81BA90CA980913B03882398
:103AB00009F4E7C02091390330913A032E0D311DEE
:103AC000E7FC3A9530933A0320933903809137030A
:103AD000909138038F0D911DF7FC9A9590933803C0
:103AE0008093370337FF03C03195219531092D307D
:103AF00031053CF497FF03C09195819591090D978D
:103B00002CF081E08093360310923B03198E1A8EBD
:103B10001B8F0C8F86E0FE017796DE015196019097
:103B20000D928A95E1F7F12CE12CEB8AFC8A1D8B32
:103B30000E8B86E0FE017196DE01999601900D9242
:103B40008A95E1F7EBA6FCA61DA70EA786E0FE016D
:103B5000B996DE01579601900D928A95E1F7E98EAC
:103B6000FA8E1B8F0C8F86E0FE017796ADE3B3E0F3
:103B700001900D928A95E1F786E0EDE3F3E0DE0136
:103B8000579601900D928A95E1F7809194018823D0
:103B900009F45BC10091990110919A010E9471157D
:103BA00020919801801B910B2817190608F04DC130
:103BB00000919B0110919C010E9471159C01201B9A
:103BC000310B89010E94D3108017910708F03DC185
:103BD000588D2A8D8B8D9C8D3091A001498D340F8D
:103BE0003093A0014091A101240F2093A1014091A5
:103BF000A301940F9093A3014091A201840F80939D
:103C0000A20140916E0137FD3195431708F411C1AF
:103C100027FD2195421708F40CC197FD919549178E
:103C200008F407C187FD8195481708F402C181E0B7
:103C3000511101C080E0817080939D010E947C073A
:103C400010914403882309F41CC11092A001109222
:103C5000A1011092A2011092A3010E9471159093EC
:103C60009A018093990110929C0110929B0180917E
:103C700095011111E0C0882309F4E7C00E94921059
:103C8000E4C080913603811105C0809135038823FB
:103C900009F4AEC080913403882371F0C0903203E0
:103CA000D09033030E9471158C199D098F35914076
:103CB00008F488C0109234038091390390913A033C
:103CC0008E0D911DE7FC9A9590933A0380933903EA
:103CD00080913703909138038F0D911DF7FC9A95D1
:103CE00090933803809337030E940310F82E0E94AC
:103CF000ED0F2F2D30E0C0903903D0903A03E090C3
:103D00003703F09038032C153D0594F0319521953B
:103D10003109C216D30664F0282F30E08E151F0437
:103D20003CF0319521953109E216F3060CF0EECE08
:103D3000F7FE03C0F194E194F108CE0101960E94D0
:103D40009C10D7FE03C0D194C194D108EC14FD049B
:103D50000CF041C08091390390913A03EF84F888C8
:103D60001816190614F0ED84FE84E114F104C1F074
:103D700095E0C92ED12C39E3E316F10419F480E55E
:103D8000C82ED12CC701C8DB8FE99FE00197F1F75E
:103D900000C0000091E0C91AD108B1F7C70132DBB9
:103DA00010923A031092390310923803109237039D
:103DB00081E0809334030E947115909333038093C4
:103DC0003203A4CE10923A031092390310923803B2
:103DD000109237039BCE8091370390913803EB8488
:103DE000FC84181619060CF4C0CFE984FA84BDCF00
:103DF000802F812BD1F0CE0101960E949C108B81E7
:103E000084FD119585FF13C0802F8195E98EFA8E70
:103E10001B8F8C8F96E0FE017796DE015196019004
:103E20000D929A95E1F7082F80CE10E0EFCF802F0A
:103E3000EDCF81E000CF212F30E0082E02C0359574
:103E400027950A94E2F720FF19CF86E0E6E7F3E032
:103E5000DE01579601900D928A95E1F780913E031D
:103E6000988D892B80933E030E948E0C811139C05E
:103E700080913C03817010923C03E496E8E00C943E
:103E8000DA3480919501111122C08111DECF0091A9
:103E9000990110919A010E947115801B910B20913C
:103EA0009601309197012817390778F6809195018E
:103EB0000E94711010929A01109299011092A00123
:103EC0001092A1011092A2011092A301BECF212F46
:103ED00030E002C0359527958A95E2F720FFB5CFEF
:103EE000D6CF81E090E0C6CF80E0C7CFA0E1B0E0C0
:103EF000ECE7FFE10C94B9347C01DC0114968C9161
:103F0000882309F46FC161E0C7010E94E40E8C01AF
:103F100080919401882331F10032B2E51B0708F04B
:103F2000B2C00115E2E51E0708F0F6C00115F0E584
:103F30001F0708F09DC0011520E4120708F003C117
:103F4000011530E2130708F006C1083E110508F01C
:103F50005FC0003E110508F461C080919F0187FD9C
:103F600010929F011093840100938301D7018D91DA
:103F70009C9111979093860180938501F801349765
:103F8000E533F10508F0FFC0E357FE4FE4911596C5
:103F90008C9120EB811102C02E2FE0EBADE8B1E057
:103FA00090E080E03D913213E8C081599E4FDC01E2
:103FB0005E96EC93D70115968C9198013A95211550
:103FC0003F4138F007302EE7120709F0FCC10E948C
:103FD000BA09D70115968C919801205E324520329E
:103FE000310508F086C2811196C20F7181E090E020
:103FF000FC0102C0EE0FFF1F0A95E2F78F016E2F42
:1040000083E090E00E94C335802F0E947609DAC0D9
:10401000C8019A9581159F4108F49FCFD701149646
:104020008C91882309F499CF0730BEE71B0709F468
:1040300041C0C8018D5C91094397E0F10E947C0763
:1040400081118BCFF7018581882359F080919501EB
:1040500020914403211185C0882309F48BC00E945C
:10406000690C0E94711590939C0180939B0175CF00
:10407000C801E5E096958795EA95E1F78F70992755
:104080002091950113C00038B2E51B07C0F400363B
:10409000E2E51E0708F040C00034F2E51F0708F013
:1040A0005CCF20919501C8018F71992728171906B7
:1040B00009F053CFF70185810E9465074ECF003E7E
:1040C00022E5120710F5003C32E5130708F445CF4E
:1040D00020919501C8018F7199272817190609F0B9
:1040E0003CCFD70115968C910E946507F701868118
:1040F000807F803509F031CF85818823F1F0809170
:104100009F01815080939F0128CFC801805E924516
:10411000809708F422CF82CF20919501C8018F713A
:1041200099272817190609F018CFD70115968C91F1
:10413000811113CF0E94730710CF0E9473078091E3
:104140009F018F5FDFCFD70116968C91807F19F486
:10415000812F992793CFF7018681807F09F4FDCEC7
:104160005DCF30E0082E02C0359527950A94E2F71E
:1041700020FF75CF0E94711072CF01968630910595
:1041800009F010CF17CFF70185810031FEE71F0737
:1041900009F063C08823C1F1CE0101960E949C10F2
:1041A000888510923A0310923903109238031092C6
:1041B000370310923403811119C081E080933603D4
:1041C00010923B0380914303877061F0D7011596ED
:1041D0008C91882339F08091000382FF03C082E034
:1041E0000E947C106096EDE00C94D53480936502BB
:1041F0000E947115909364028093630281E0809322
:104200003B0310923603DECF80913B038823B1F04D
:10421000D090650229E305E010E0D21202C000E56B
:1042200010E08D2D06D98FE99FE00197F1F700C0CE
:10423000000001501109B9F78D2DABD8109236034B
:1042400010923B0310923A031092390310923803F4
:104250001092370310923403B5CF980137572038A6
:10426000310508F0A7CE882309F4A8C010E0D12CAE
:10427000C12C011721F1B0E9CB16B1E0DB0608F043
:10428000A1CFC601805B9D4F0E94B13596012F5F83
:104290003F4F882391F09FEF980F923010F08430B9
:1042A00051F493E0C90ED11CA0E9CA16A1E0DA06C8
:1042B00040F31F5FDECF6901F7CF6901FACFE0E974
:1042C000CE16E1E0DE0608F07DCFC601805B9D4F93
:1042D0000E94B135843019F0833008F073CFC601E5
:1042E000805B9D4F0E94B135B82E882309F46ACFB8
:1042F0008FEF8B0D823018F0F4E0BF1263CFC60150
:104300008F5A9D4F0E94B135182FC6018E5A9D4F6E
:104310000E94B13523E0C20ED11C082F31E0B31248
:104320001EC065E0A62EB12C0933110519F450E525
:10433000A52EB12CC801F0D88FE99FE00197F1F7C5
:1043400000C0000091E0A91AB108B1F7C8015AD81D
:10435000F0E9CF16F1E0DF0608F4C1CF33CFA2E0D9
:10436000BA1212C0C801D8D8E0916202E83080F7D2
:1043700081E08E0F80936202F0E0EE0FFF1FEE5A95
:10438000FD4F11830083E4CFB4E0BB12E1CF0115F0
:104390001105F1F2EFE9FFE03197F1F700C00000FD
:1043A00001501109F4CFE150E0936202F0E0EE0F0A
:1043B000FF1FEE5AFD4F8081918124D8E091620267
:1043C000E111F1CFFFCE882309F403CEF801FE57A7
:1043D000E031F10508F0FDCDEC5FF94C0C9435357A
:1043E00080E00E940F131092810180E00E94860CF1
:1043F0008AE892E00E94780CE5CE2091810130910C
:104400009401809196019091970162E370E00E947F
:10441000A0348FEF860F9091820160911F0340912D
:104420007A0120FB47F9522F56955370330F330F03
:10443000532B282F220F220F220F522B660F660FAD
:104440006C739370692B70E08FE090E00E94D5351B
:10445000B9CE81E00E942913B5CE8FEFFBCF8AE061
:10446000F9CF86EFF7CF90917C0181E089270E94F8
:10447000BA09A8CE80918101811101C084E08F5FCB
:1044800018160CF081E0883008F087E080938101F5
:1044900099CE80918101811101C084E08150F0CFDB
:1044A00081E0809382018ECE109282018BCE82E0D9
:1044B000F8CF9091940181E089270E94860C82CEEA
:1044C0008091960190919701C296893E33E09307BF
:1044D00008F490CF88EE93E08DCF80919601909173
:1044E0009701C2978436910508F084CF84E690E066
:1044F00081CF8823E1F10B35FCE71F0771F10C3503
:104500002CE71207F1F00A353CE7130721F10130DF
:104510009CE7190751F10330ACE71A0701F10115C7
:104520001C4729F5109288030E949615EFEFF4E3DB
:104530002CE0E150F0402040E1F700C000000E9474
:104540002B068091000382FB882780F991E0892760
:104550000E94EA1037CE81E0FBCF80E0F9CF6FEF09
:104560007FEF90E080E00E94DD350E94C418F701E3
:10457000C080D180882309F44CC0C6010E94890EF6
:10458000182F682FC6010E944009B601812F0E9492
:104590007D0E0E9410088C01882ED70115967C9004
:1045A00015971696CC90C2942FE0C22280914303B7
:1045B000877009F1972C7720F9F0812F807F803464
:1045C00069F080E2800F8830B0F0812F807E8032E9
:1045D00029F4B1E0B01778F4CC2069F080910003A1
:1045E00082FF09C082E00E947C10809143038770A3
:1045F000992493948111912C812F82958F70A82EEC
:10460000B12C8C3008F069C0F501EC5EF94C0C94CB
:104610003535C6010E940D09182FB7CFE12FEF7075
:10462000DE2E107F19F0D29490EFD922802F7720C0
:10463000B9F0DD2069F090E2900F983010F0011190
:1046400009C080918803D82AD09288030E94780DEF
:10465000802F41C080918D02D82AD0928D02F6CF52
:104660000E94C919DD20C9F1005E083010F08110E8
:1046700004C08D2D0E94FB0806C0D09480918D024D
:10468000D822D0928D020E94780D27C0F12FFF70A2
:10469000DF2E107F103219F0D29480EFD8228820BC
:1046A00051F021E0821609F45CC0772009F468C05B
:1046B000CC2061F1CDCF8091000382FD23C0772013
:1046C000D9F0DD2039F080918803D82AD092880370
:1046D0000E94780D80E00E94191A98E0A91AB1088A
:1046E000A4E0AA16B10408F072C10E94EC0660E0D2
:1046F000C7010E94E40E76CD80E00E94C919DD203A
:1047000061F3B7CF772099F0C11004C08D2D0E94BE
:10471000CE0DE3CF31E0C312E0CF80918C029D2D0E
:104720009823D916D1F2D82AD0928C02D6CFC110B4
:10473000D4CF8D2D0E94C90D90918C028D2D89238F
:1047400029F08D2D8095892380938C0280916602BB
:104750009D2D982309F4C1CFD094D822D09266021F
:10476000BCCF772029F085E08C1508F4B6CFCECFEA
:1047700094E09C1508F4B1CF8D2D0E94C90DADCFEA
:10478000CC20D1F3093309F01AC1AFEFB7EEE3E063
:10479000A150B040E040E1F700C00000802F0E942F
:1047A000C9199BCF812F86958695837061F08130E2
:1047B00009F093CFC8019370711002C080E090E0BF
:1047C0000E9489068ACFC8019370711002C080E0F0
:1047D00090E00E94B10681CF672D802F0E94DB18E8
:1047E0007CCF812F837091F5711077CF402F429548
:1047F00046954770440F440F802F8F70042E01C0E0
:10480000880F0A94EAF7202F207104FF07C02FE0D9
:1048100030E001C0220F4A95EAF7209516951695CB
:104820001370123071F0133051F03091FE021130DC
:1048300029F0822B83230E9476094FCF832B822B72
:10484000FACF282B8091FE028227F5CF869577201C
:1048500011F0812F8170882309F43FCF402F4295BA
:1048600046954770440F440F802F8F70042E01C06F
:10487000880F0A94EAF7202F207104FF07C02FE069
:1048800030E001C0220F4A95EAF72095169516955B
:104890001370123071F0133051F030914403113025
:1048A00029F0822B83230E946D1017CF832B822B3C
:1048B000FACF282B809144038227F5CF1F707720F1
:1048C00029F0812F0E949210802F21CF802F0E94EB
:1048D000C90D812F0E94711000CF802F92EF891691
:1048E000B1F1981570F0A0EF8A16D1F0B1EF8B16E8
:1048F00091F0772009F457C0C110AACE812F8F7193
:104900002AC0E3EF8E1651F1F4EF8F12F2CF90919F
:10491000000392FD2FC0812F8F717720D9F21BC029
:10492000772081F024E02C1508F4D7CE1F7181E0A8
:1049300090E0012E01C0880F0A94EAF79091440399
:104940008927B1CF35E03C1508F4C7CEEFCF812FD2
:104950008F717110BFCF0E949210BFCE80E0772080
:1049600009F4A1CF1F7181E0012E01C0880F0A94C4
:10497000EAF799CF772061F0812F8F7192FFEBCF0B
:1049800098E0899F90011124236020934303E3CF93
:1049900081E00E947C10A1E0AC1508F09ECE82E080
:1049A0000E947C109ACECC2079F0893341F4BFEF7D
:1049B000E7EEF3E0B150E040F040E1F7EDCE8FE1FB
:1049C0009EE40197F1F7E8CE812F8F7183CF992074
:1049D00009F48DCE8091430380FD89CEF7011582C5
:1049E0008695869586950E949210C7017FDA809100
:1049F00043038695869586950E94711078CEB0E027
:104A0000A0E0E5E0F5E20C94BF3480918B02807F5A
:104A100009F050C080918A02882309F44BC0E091CC
:104A2000D60387E0D82E80919D038E1709F442C0EB
:104A30000E2F10E0ED9DF0011124E256FC4F848111
:104A40008823E9F1D09EE001D19ED00D1124FE0112
:104A5000E256FC4F918180918602981330C090817C
:104A60008091850298132BC08581811128C0E28036
:104A7000F3808091870290918802E81AF90A60E039
:104A800085E892E00E94E40E0E94D310E816F90631
:104A9000B0F480918B028F70806180938B02CC5533
:104AA000DC4F88818F708061888385E892E01EDA10
:104AB0000E940309CDB7DEB7E7E00C94DB34F801C0
:104AC0003196E770B0CFA6E1B0E0E9E6F5E20C94EC
:104AD000B7348C0186E0F801DE01519601900D9209
:104AE0008A95E1F7D8011496FC9014971596EC90EE
:104AF00085E8882E82E0982E80918902811128C055
:104B0000F11003C0FF24F3941BC0EE20F1F0C801A4
:104B10000E94BE0EF82E8823C1F087E0F801A5E8B8
:104B2000B2E001900D928A95E1F78091890281307F
:104B300031F480918502909186020E94B20E5FDF6F
:104B40008F2D6696EFE00C94D334C801CFD9DACF1D
:104B5000F801A0805180C280D38060E085E892E0B7
:104B60000E94E40EB0908A028091870290918802A0
:104B7000BB2009F4C6C03601681A790A60E085E8EE
:104B800092E00E94E40E0E94D3106816790608F0A5
:104B900099C0FF2009F4B6CF80918B02382F307F67
:104BA00020918602D80111969C91119731114CC029
:104BB000FE2C291313C0209185029C9129130EC04D
:104BC000E1101CC18F70806180938B0285E892E0B8
:104BD0008DD980918B02F8018683B2CFE1100EC18E
:104BE000652D8A2D0E94B704882309F4E6C0CE0102
:104BF00001960E949C108B8182FFDFC085E892E0C5
:104C000075D987E0E5E8F2E0DF011D928A95E9F7C2
:104C1000F12C96CF2A5F2F70223070F0C80166D930
:104C2000EB2CEAC0992319F0882309F4E5C0805ED3
:104C3000883008F4E1C0F2CF803F08F4DDC0815F26
:104C4000833008F4D9C0EACF291315C0209185021A
:104C50009C91291310C0E1100EC016968C93C801C8
:104C600045D987E0F801A5E8B2E001900D928A9558
:104C7000E1F7FB2C65CFC8010E94BE0E882309F422
:104C800064CFEE2009F461CF80918B02803280F0F6
:104C900020918502309186023A832983DC82CB827F
:104CA000909189029D831E828F83CE0101961ED929
:104CB00087E0F801A5E8B2E001900D928A95E1F74E
:104CC0009EDE20CF80918B02982F907F09F496CFA3
:104CD000FF2009F417CF20918602F8019181291352
:104CE000CACF2091850290812913C5CFE110C3CF8F
:104CF0008683C801FBD887E0D4011D928A95E9F725
:104D0000B8CF5601A81AB90A60E085E892E00E947F
:104D1000E40E0E94D310A816B90608F048C0FF2080
:104D200009F4F0CEFE2CEE2009F40FCF909186020C
:104D3000F801818198132EC090918502808198138B
:104D400029C08091870290918802C81AD90AF8EC8C
:104D5000CF16D104B0F480918B0280FD12C0982F41
:104D6000907F79F0D80116968C931697903F39F082
:104D7000982F907F905F8F70892B16968C93C80127
:104D8000B5D887E0F801A5E8B2E001900D928A95C8
:104D9000E1F7D6CEC8010E94BE0E811189CF809165
:104DA0008B02816080938B02C801A0D8C9CE87E0B6
:104DB000F40111928A95E9F72BCF652D8A2D0E9477
:104DC000B704E82E8111BCCEA98A5A8A89899A89AA
:104DD0000E94B20E292F22952F70903408F01ACF1E
:104DE0009F70223008F41ECF992309F420CFF801D8
:104DF0009681907F09F01BCFFE2CA2CE80918B0272
:104E0000816080938B0204CFABE1B0E0EAE0F7E28F
:104E10000C94C3344E8B5F8B688F798F8A8F9B8FF6
:104E2000911110928D021D8A86E0FE017696DE01B8
:104E30001F9601900D928A95E1F78B89882351F096
:104E400061E0CE010F960E94E40E61E0CE010F9664
:104E50000E94E40E87E0FE013F96DE011896019065
:104E60000D928A95E1F7CE0108962DDE81110CC0D6
:104E700087E0FE013896DE01119601900D928A9529
:104E8000E1F74C8541110BC017E08091D60390915A
:104E90009D03891334C06B96E3E00C94DF342091BA
:104EA0009D0330E0C9010196877099275091D60380
:104EB00058171906A1F04D8397E0929FD001939F58
:104EC000B00D1124A256BC4FFE01319601900D92F7
:104ED0009A95E1F780939D030E940309D5CF109224
:104EE00088030E94961510929D031092D60387E0C6
:104EF000E5E8F2E0DF011D928A95E9F7C5CF819FD1
:104F0000C001112482569C4FDEDD882321F280915E
:104F1000D60390E00196877099278093D603B5CF8A
:104F2000A6E0B0E0E6E9F7E20C94C2340E94711505
:104F30008C0180919602909197028017910779F0E9
:104F400019821A820E947115682F49815A81792F1E
:104F500080E090E059DF1093970200939602269626
:104F6000E4E00C94DE34A4E1B0E0E9EBF7E20C9469
:104F7000B6341A821982FE01339688E0DF011D9251
:104F80008A95E9F78E010F5F1F4F580190E0C92EF7
:104F900091E0D92E280166246394712CF601819149
:104FA0006F010E94A30B00C085E0882E81E0982E3F
:104FB000F401F12CE12C2191A22FA295AF70B0E069
:104FC00090968C9190E02F7002C0959587952A95C8
:104FD000E2F780FD0AC0D5018C9193010E2C01C02F
:104FE000220F0A94EAF7822B8C93BFEFEB1AFB0A8D
:104FF00024E0E216F104F9F6F601319780810E946F
:10500000B80B80EA8A95F1F79FEFA91AB90AA5E0D3
:10501000CA16A1E0DA0611F6DD24D394F4018191D9
:105020004F010E94A30B00C03D2D0E2C01C0330F79
:105030000A94EAF7F80140E051E0DA012D91AD0160
:10504000822F82958F7090E0DC0190968C9190E099
:105050002F7002C0959587952A95E2F780FD03C0D1
:105060008081832B80833196B1E045305B0729F73F
:10507000F401319780810E94B80BE0EAEA95F1F7DC
:10508000FFEFEF1AFF0A28E0E216F10439F6E5EE29
:10509000F5E098012B5F3F4FF12CD8018D918D01E8
:1050A0009191891729F0DF0111978C93FF24F394D4
:1050B0002017310791F70091FD0210E0035F1C4FAC
:1050C000FF2009F453C081E0809316020E947115FD
:1050D0009093150280931402E0907C03E1106DC060
:1050E00085E0F801A9E9B2E001900D928A95E1F717
:1050F00065E070E089E992E00E944F078093980292
:1051000080909E0290909F02A090A002B090A10279
:105110008091170290911802A0911902B0911A0281
:1051200088169906AA06BB06B1F0809217029092E3
:105130001802A0921902B0921A020E943C06861A26
:10514000970AA80AB90A8092F8029092F902A092EE
:10515000FA02B092FB028091A202882359F10E94C8
:10516000330F8F2D6496E0E10C94D23480911602B7
:10517000882309F4B1CFC0901402D09015020E9488
:1051800071158C199D09059708F4A6CF45E050E0EC
:1051900065EE75E0C8010E948B35892B41F085E0F2
:1051A000E5EEF5E0D80101900D928A95E1F71092B5
:1051B000160292CF0E94190FD4CFEAEEF5E085E0F7
:1051C000DF011D928A95E9F78091E4058A3008F0A5
:1051D00057C062E272E1C8010E94CF0B882309F434
:1051E0006DC06EED71E1C8010E94CF0B882309F4F8
:1051F00065C06BE971E1C8010E94CF0B882309F4F7
:105200005DC01092E40581E080931D020091FC02D4
:1052100010E0035F1C4F45E050E06AEE75E0C80106
:105220000E948B35892B49F085E0EAEEF5E0D80144
:1052300001900D928A95E1F7FE2C80913B03882323
:1052400009F48FCFC2010E949C1009811A81C80104
:10525000C297873B934010F008EC10E0C0906302C7
:10526000D09064020E9471158C199D0908171907C6
:1052700008F077CF81E08093360310923B0371CF23
:10528000C0901B02D0901C020E9471158C199D09C0
:10529000843F914008F09DCF80911D02882369F2E0
:1052A00010921D02E091FC02F0E0E35FFC4F95E0FC
:1052B000DF011D929A95E9F7F82EBFCF8091E405A2
:1052C0008F3F31F08F5F8093E4058A3008F49BCFE5
:1052D0000E94711590931C0280931B02DDCF1F92D8
:1052E0001FB61F9211248F939F93AF93BF9380910A
:1052F0008203811113C08091830390918403A09154
:105300008503B09186034196A11DB11D809383034F
:1053100090938403A0938503B0938603BF91AF91CC
:105320009F918F911F901FBE1F901895CF93DF9371
:10533000EC010E9471158C1B9D0BDF91CF9108959C
:10534000CDB7DEB7C655D1090FB6F894DEBF0FBE94
:10535000CDBF85B7806885BF85B7806885BF84B7B6
:10536000877F84BF0FB6F894A8958091600088610C
:1053700080936000109260000FBE80E890E00FB64E
:10538000F89480936100909361000FBE81E0809358
:10539000AE018FEA97E090930B0280930A020E947D
:1053A000D5040E9476058091E20084608093E2003B
:1053B0007894809193038823A1F01091E9001F70E5
:1053C0009091EC00892F817090FD80E8182B10924D
:1053D000E9008091E80083FD0E94BA151F701093C8
:1053E000E90082E084BD93E095BD9AEF97BD80937C
:1053F0006E001092F8021092F9021092FA021092C6
:10540000FB020E94B812809109010E94B81280919B
:1054100005010E94B80B809106010E94B80B809193
:1054200007010E94B80B809108010E94B80B00E0B0
:1054300011E055E0E52E51E0F52ED8018D918D015A
:105440000E94B80BE016F106C1F78091090195E0C2
:10545000811190E09093FD0285E0891B8093FC020E
:1054600080917C03811102C00E944F33E5EEF5E08C
:105470008FEE95E0ADE0B3E011921D928E179F077D
:10548000D9F790E080E00E94BE35833E9E4F49F1FF
:1054900063EE7EEF90E080E00E94DD3560E082E028
:1054A00090E00E94C33581E08093FE0261E083E0DA
:1054B00090E00E94C33560E074E184E090E00E94D7
:1054C000DD350E94150E40E050E0BA018FE090E01B
:1054D0000E94D53540E050E0BA0183E190E00E949F
:1054E000D53582E090E00E94B1358093010384E0DD
:1054F00090E00E94BE35909300038093FF0283E00A
:1055000090E00E94B1350E947609809144030E9488
:10551000441080917C03882309F495C180E0809336
:10552000650380E88093D90357D76BE070E089ED7D
:1055300091E00E940C0F882309F445C08091650317
:1055400065E070E081FD81C184ED91E00E940C0F67
:105550008823C9F16DE070E082EC91E00E940C0FAD
:10556000882389F10E943C0665966CAF7DAF8EAFB3
:105570009FAF6597DC01CB01805A9541AF4FBF4F7C
:105580008093670390936803A0936903B0936A03C1
:10559000ECEDF3E080E092E0DF018C011D92015020
:1055A0001040E1F7F093E305E093E2058FEF9FEF02
:1055B0009093DB038093DA0381E080936E03809302
:1055C0006B031092660380917C03811102C00E94DC
:1055D0004F330E942C14882309F43AC183E080934E
:1055E0003103539A5B9880917C0381112EC086E928
:1055F00097E090935101809350012FE030E0309379
:105600004C0120934B018FE290E090934F018093E7
:105610004E014BE957E050935901409358013093A4
:10562000540120935301909357018093560146E211
:1056300053E1509361014093600130935C012093EA
:105640005B0190935F0180935E0190E080E00E9497
:10565000BE35833E9E4F09F04CC08FE090E00E9423
:10566000B935F62E172F082F82958695869583706B
:10567000990F990F982B9B3559F0F12C10E000EC05
:1056800040E050E060EC76E18FE090E00E94D5359C
:105690008F2D8F770E940F13FF1CFF24FF1C612F9B
:1056A0006370660FF62AF092810112FB882780F959
:1056B0000E94860C812F887F09F4CCC01695169520
:1056C0001695212F30E02F5F3F4F42E3429FC001EC
:1056D000439F900D11240E94780C802F837080933B
:1056E0008201069506950F700B3008F00AE00093D2
:1056F0001F03CE0101960E949C108C819091950110
:10570000891721F0809395010E94690C8D819E81FB
:105710000E94780C8B8186FB882780F991E089278D
:105720000E94860C8F8180936E0182E691E09093B7
:10573000D8038093D7035E0123E0A20EB11CAE0113
:105740004C5F5F4F4A018DE093E0AAE08A0F282E5C
:1057500011E08091930300E430E1F32E42E1E42E66
:10576000853009F4B1C0FFDB92E0C92E93E0D92E59
:1057700029EE422E21E0522EB2012DE033E0F60157
:105780009191D9018D919D01DB014D91BD01842342
:10579000B3E0EC30FB0709F4A3C0981789F330900D
:1057A0007C03E9EEF1E06796FFAFEEAF67972DE07F
:1057B00033E063963FAF2EAF6397F12C6396AEADA7
:1057C000BFAD63970D916396BFAFAEAF639767961A
:1057D000EEADFFAD679781916796FFAFEEAF67972C
:1057E0000823D6016D906D01601629F16026E12C29
:1057F00077247394872D8621B1F03320A1F0E982BC
:10580000FA820E9471159C838B83B1E0BD8391E085
:10581000872D802309F490E09E8349815A816B8112
:105820007C818D81F1DAE394770CE8E0EE12E2CF2F
:10583000F60131970083F394FAE0FF12BFCF0E9484
:10584000DF0701E051C082E06ACE8FEC91E07ECEAE
:1058500081E0C5CE8AE892E03ECF80919303843008
:1058600039F10E94190F0E94D21C10928203E8E1C4
:10587000F0E00FB6F894A895E09360000FBE009397
:10588000600083B7817F846083BF83B7816083BFFB
:105890007894889583B78E7F83BF0FB6F894A895C8
:1058A00080916000886180936000109260000FBE5C
:1058B0005ADBA9EEB1E0EDE0F3E081919D918923FF
:1058C00009F00EC42E12F9CF80919303853009F4AC
:1058D000C4CF109288030E9496150E94EC0643CF15
:1058E00098135DCF1DDB00E00E94D21C882339F0A5
:1058F0000E94DF070E94A31A0E94330F04C00E9477
:10590000A31A0111F9CF86E0E6E7F3E0DE01119674
:1059100001900D928A95E1F7109278031092790325
:1059200010927A0310927B038B819C81892B09F45E
:1059300049C0E0907403F09075030E9471159C01BA
:105940002E193F0990916F03992309F4EBC3253178
:105950003105C0F19F3F19F09F5F90936F030B815A
:10596000002359F00E9421079FEF10160CF491E0DC
:10597000899F802D1124809378030C81002359F096
:105980000E9421079FEF10160CF491E0899F802D53
:1059900011248093790380917803882399F00091F2
:1059A0007903002379F00E944107882309F438C164
:1059B00080937803802F0E944107882309F433C124
:1059C000809379038D819E81892B09F449C0E090F1
:1059D0007203F09073030E9471159C012E193F0908
:1059E00090917003992309F498C321353105C0F1D2
:1059F0009F3F19F09F5F909370030D81002359F032
:105A00000E94FF069FEF10160CF491E0899F802DF5
:105A1000112480937A030E81002359F00E94FF061F
:105A20009FEF10160CF491E0899F802D1124809334
:105A30007B0380917A03882399F000917B030023F4
:105A400079F00E944107882309F4F0C080937A031B
:105A5000802F0E944107882309F4EBC080937B03C9
:105A6000BE016F5F7F4F86E793E00E945C06811165
:105A70000CC08091780390917903892B90917A03DF
:105A8000892B90917B03892B11F00E947D1586E074
:105A9000FE013196A6E7B3E001900D928A95E1F7F9
:105AA0000E94EC0690910C03891721F080930C035F
:105AB0000E943C0680919303843009F4BDC080911C
:105AC0007C03882309F445CE0E943C06462F572FBD
:105AD000BC018091260381113EC0809122039091E8
