:100000000EC5000029C5000027C500000C94CC32A5
:1000100023C5000021C500001FC500001DC500004C
:100020001BC5000019C500000C94741A0C94301AFA
:100030000C94F72811C500000FC500000DC5000085
:100040000BC5000009C5000007C5000005C500007C
:1000500003C500000C945C1BFFC40000FDC400003D
:10006000FBC40000F9C40000F7C40000F5C40000A0
:10007000F3C40000F1C40000EFC40000EDC40000B0
:10008000EBC40000E9C40000E7C40000E5C40000C0
:10009000E3C40000E1C40000DFC40000DDC40000D0
:1000A000DBC40000D9C40000D7C400000501090268
:1000B000A10185020901A1000509190129081500FE
:1000C0002501950875018102050109300931158165
:1000D000257F95027508810609381581257F9501D0
:1000E00075088106050C0A38021581257F95017572
:1000F000088106C0C005010980A101850319012AF4
:10010000B700150126B700950175108100C0050CD8
:100110000901A101850419012AA002150126A002E6
:10012000950175108100C00660FF0961A101096297
:10013000150026FF00952075088102096315002629
:10014000FF00952075089102C005010906A101056F
:100150000719E029E7150025019508750181029529
:1001600001750881010507190029FF150026FF0008
:100170009506750881000508190129051500250156
:10018000950575019102950175039101C061626346
:100190006465666768696A6B6C6D6E6F70717273A7
:1001A0007475767778797A31323334353637383931
:1001B00030524542545F2D3D5B5D5C233B27602CF4
:1001C0002E2F00DA0281FFD9F1DB20A4A62EAF008A
:1001D000A0C0D30000A1C8D30000AED580A81F40A6
:1001E0008D142000783C1E1E140A05000101010137
:1001F00001010101010202020202020202020303E2
:1002000003030303030304040404040404050505B1
:100210000505060606060607070707070808080873
:10022000090909090A0A0A0B0B0B0C0C0C0D0D0D20
:100230000E0E0E0F0F0F10101111111212131314B6
:1002400014151516161717181819191A1A1B1B1C2E
:100250001D1D1E1E1F202021222223242425262688
:10026000272829292A2B2C2D2D2E2F3031323233BD
:100270003435363738393A3B3C3D3E3F40414243C6
:100280004445464748494A4C4D4E4F5051535455AA
:100290005658595A5B5D5E5F616264656668696B5A
:1002A0006C6D6F7072737577787A7B7D7E808283D8
:1002B0008587888A8C8E8F91939596989A9C9EA01C
:1002C000A2A3A5A7A9ABADAFB1B3B5B7BABCBEC029
:1002D000C2C4C6C9CBCDCFD1D4D6D8DBDDDFE2E4F2
:1002E000E7E9EBEEF0F3F5F8FAFDFF2223252628E7
:1002F000292A2C2D2F3032333536383A3B3D3E40BB
:1003000042434547494A4C4E5051535557595A5C00
:100310005E6062646668696B6D6F71737577797B17
:100320007D7F81838587898A8C8E90929496989A16
:100330009C9E9FA1A3A5A7A8AAACAEAFB1B3B4B62B
:10034000B8B9BBBCBEBFC1C2C3C5C6C7C9CACBCC86
:10035000CDCED0D1D2D2D3D4D5D6D7D7D8D9D9DA59
:10036000DADBDBDBDCDCDCDCDCDDDDDDDDDCDCDCCE
:10037000DCDCDBDBDBDADAD9D9D8D7D7D6D5D4D3F6
:10038000D2D2D1D0CECDCCCBCAC9C7C6C5C3C2C1CB
:10039000BFBEBCBBB9B8B6B4B3B1AFAEACAAA8A728
:1003A000A5A3A19F9E9C9A98969492908E8C8A89E0
:1003B000878583817F7D7B79777573716F6D6B69BD
:1003C00068666462605E5C5A5957555351504E4C92
:1003D0004A4947454342403E3D3B3A383635333241
:1003E000302F2D2C2A29282625232200AF00AE20CD
:1003F0002000BABB004B657920B10020C0C100BE0F
:10040000BF00484F005654003030200020202020EC
:10041000B1BCBD0042616C6CB100B4B500B2B300B8
:10042000C2C3004CB6B772B1002020001300120006
:100430000C0018001C0000002D430F000E000D41A1
:100440000B00000038423700360010001100000099
:100450008702000000002A422A42284114001A00A4
:10046000080015001700000004001600070009002E
:100470000A0000001D411B000600190005000000D5
:10048000E100E300E20091432C00904227002600A7
:1004900025002400230000004300420041004000EA
:1004A0003F0000002E022F0031003000330000001A
:1004B000890000000000D100010001001E001F00A3
:1004C00020002100220000003A003B003C003D00DB
:1004D0003E0000002E0025023000310034000000F4
:1004E00001000100010029002B004C000000000069
:1004F000D3000000000000002352D2005200D100BF
:100500000000000000004F005100500000000000FB
:100510000000000000002A000100010054005F00FC
:10052000600061005600000055005C005D005E0048
:1005300057000000620059005A005B006300000091
:1005400001000100010001000100010056006100EE
:1005500060005F005400000057005E005D005C001A
:100560005500000063005B005A0059006200000063
:10057000000000000000D2000100010000000000A7
:10058000000000000000000004011601070109013D
:100590000A0100001D011B010601190105010000EF
:1005A00001000100010001000100010009025B00DF
:1005B000030100A0FA090400000103010100092160
:1005C00011010F01224400070581030800010904FD
:1005D0000100020300000009211101000122220094
:1005E0000705820320000107050303200001090419
:1005F00002000103000000092111010F01227B000C
:1006000007058403200001120100020000000857C2
:1006100059000200010102000114034B006500793A
:1006200000620061006C006C0033003900000010B3
:100630000359006F0077006B0065006500730000D0
:10064000000403090400000000000000002F000067
:1006500000000700070000123F123F1200242A7F0B
:100660002A120036091E241B001826291228000011
:100670000007000000001E214000000040211E0075
:100680000014083E08140008083E08080000003066
:100690007000000808080808000000303000002042
:1006A000100C0201001E2925231E0000223F2000FD
:1006B00000223129292600122125251A001814129A
:1006C0003F10001725252518001E25252518000197
:1006D00031090503001A2525251A00062929291E96
:1006E00000000033330000000033730000081414CE
:1006F00022220014141414140022221414080002DC
:1007000001290502003E59555D3E00381611163884
:10071000003F2525251A001E21212112003F2121FD
:10072000211E003F25252521003F09090901001E42
:100730002121291A003F0404043F0000213F210029
:1007400000102020201F003F040C1221003F202019
:100750002020003F0204023F003F020C103F001E19
:100760002121211E003F09090906001E2129112E01
:10077000003F090919260012252529120001013F11
:100780000101001F2020201F000718201807000F5C
:10079000300C300F0021120C122100030438040326
:1007A00000312925232100007F4141000001020C76
:1007B0001020000041417F000004020102040040BB
:1007C0004040404000000103040000102A2A2A3C57
:1007D000003F2422221C001C22222224001C222250
:1007E000243F001C2A2A2A0C0000043E0505000CA8
:1007F0005252543E003F080404380000003D0000FF
:10080000002040403D00003F080814220000013F46
:100810002000003E023C023C003E0402023C001C60
:100820002222221C007E1422221C001C2222147E62
:10083000003E0402020400242A2A2A120000021F99
:100840002200001E2020103E000618201806000E70
:10085000300C300E002214081422000E5050483E76
:100860000022322A26220008087741410000007F3A
:10087000000000414177080800180408100C00002F
:100880000000000000000000000000000000000068
:1008900000C0F0F88C86C6E7FFFFFFFFFFFFFEFCFD
:1008A000FCF8E080000000F0F0F00000C0E0F07024
:1008B00070000000000000000000000000000000C8
:1008C00000000000000000F8F8F800000000000040
:1008D00000000000000000000000000000F8F8F830
:1008E0000000F8F8F8000000000080E07078686C04
:1008F00064C7C7C7C7C7C7E73F1F0F3FFFFFFFFF5B
:10090000FFFF3F0F000000FFFFFF1E3FFFF3E180EE
:100910000000F8FCFE3636363EBCB8000E3EFEF057
:1009200080F0FE3E0E0000FFFFFF060606FEFEFC06
:100930007000E6F6F63636FEFEFC000000FFFFFF14
:100940000000FFFFFF000000003C7F6360E0C0C0CC
:10095000C0C0C0C0C0C0FFFFC06030180F03030399
:100960000100000000000003030300000003030374
:100970000300010303030303030301007070393F05
:100980001F07010000000001030303030303030129
:10099000000001030303030303010000000303033A
:1009A00000000303030010101000000000550000B9
:1009B000003E635D5D637F417B77413E00001C220A
:1009C000221C003E0A003E0A00322A3C0026281E55
:1009D000001C2A2C0000003F09360000001E2121C7
:1009E00000000000003F0837001E2121001E2121C9
:1009F000003F090600213F2100222519001E212168
:100A0000003F0936003F211E00213F21000F300F1B
:100A1000003E093E003F063F003F20200000112419
:100A20001FBECFEFDAE0DEBFCDBF12E0A0E0B1E045
:100A3000EAE8FBE602C005900D92A432B107D9F7AF
:100A400026E0A4E2B2E001C01D92A437B207E1F7AC
:100A50000E9428290C947835D3CAEFEAF1E010827D
:100A60008EE281831282838384830895E0915D0402
:100A7000F0915E04309739F00284F385E02D3097D1
:100A800011F060E209950895982FE0915C0440917F
:100A9000230457E0E41302C080E008952E2F30E0D5
:100AA0005E9FF0011124EC5DFB4F8181681306C04D
:100AB0008081981303C085818111EFCFF9013196B0
:100AC000E770E8CFE8EDF0E080818E7F80831092C0
:100AD000E2001092DA001092E100A0EEB0E08C91FA
:100AE00081608C9380818F77808319BCA7EDB0E003
:100AF0008C918E7F8C9380818F7E808310920D04E9
:100B000008952091E4003091E50095E6A901209137
:100B1000EC00822F817020FF06C08091E80080FFEA
:100B200006C080E008952091E80022FD1AC080915F
:100B30001904882389F0853089F08091EB0085FDC8
:100B40000FC02091E4003091E50042175307F9F2FD
:100B50009150E1F684E0089582E0089583E00895DD
:100B600081E0089580911B0487FF13C08091E80005
:100B700082FF06C08091E8008B778093E80004C074
:100B8000809119048111F2CF08958091190488236E
:100B9000D9F38091E80080FFF8CF8091E8008E774C
:100BA000ECCF982F9093E900242F762F50E08917EF
:100BB00031F07091EC002091ED005091F00021FD9A
:100BC00007C09F5F973071F78093E90081E0089537
:100BD0003091EB003E7F3093EB003091ED003D7F94
:100BE0003093ED003091EB0031603093EB00709367
:100BF000EC002093ED005093F0002091EE0027FDD3
:100C0000E0CF80E00895B0E0A0E0E9E0F6E00C94E9
:100C1000FB33C8EDD0E088818F7E8883E7EDF0E07C
:100C200080818160808384E082BF81E080930D04B5
:100C300088818E7F888302EE10E0F8011082109286
:100C4000DA0081EEC82ED12CF601108288818F77D0
:100C5000888388818068888388818F7D888319BC98
:100C60001092190410921A0410921804109217048A
:100C700090EEE92EF12CF70180818B7F80838881B3
:100C80008160888342E060E080E08BDFF601808154
:100C90008E7F8083F801808181608083808188607D
:100CA0008083F70180818E7F808388818061888343
:100CB000CDB7DEB7E8E00C941734FC01CB012091EE
:100CC0002104309122042617370790F0009729F469
:100CD0002091E8002E772093E80040E0009751F43F
:100CE000411108C08091E80082FF31C080E0089582
:100CF000C901F3CF209119042223A9F12530A9F1CC
:100D00002091E80023FD2DC02091E80022FDEACFCC
:100D10002091E80020FFE2CF3091F3002091F20013
:100D2000009719F02830310558F041E0283031059E
:100D300009F040E02091E8002E772093E800CECF24
:100D400041914093F10001972F5F3F4FE9CF809190
:100D50001904882341F0853041F08091E80083FF39
:100D6000C1CF81E0089582E0089583E00895089559
:100D7000089587E797E7909301088093000888E13A
:100D80009AE00FB6F894A895809360000FBE9093F8
:100D90006000FFCFA4E0B0E0E0EDF6E00C94013499
:100DA0008FB7F8942091090430910A0440910B0404
:100DB00050910C0429833A834B835C838FBF6981F4
:100DC0007A818B819C812496E2E00C941D34809181
:100DD000AC010895A3E0B0E0E0EFF6E00C9401343C
:100DE0009C01809106049091070482179307B1F04B
:100DF0003093070420930604E0915D04F0915E04B3
:100E0000309761F00084F185E02D309739F084E06F
:100E100089833B832A83CE01019609952396E2E0DC
:100E20000C941D34A3E0B0E0E8E1F7E00C94013449
:100E30009C01809104049091050482179307B1F0FE
:100E40003093050420930404E0915D04F0915E0466
:100E5000309761F00084F185E02D309739F083E020
:100E600089833B832A83CE01019609952396E2E08C
:100E70000C941D3480910204882369F0E0915D0494
:100E8000F0915E04309739F00190F081E02D3097B9
:100E900011F00995089580E00895FC01680F791F0D
:100EA0008FEF91E32191822728E030E087FF09C08E
:100EB000880F892721503109C9F7E617F70791F7FD
:100EC0000895880FF7CFFC01EE0FFF1FE80FF91F01
:100ED000E858FC4F6183408322830895539A089514
:100EE000EBE4F3E011828281846082830895CF93E2
:100EF00080915F0480FF04C00E94B214CF910895D6
:100F0000C091B1018091B201C817B0F78091AF01D3
:100F10009C2F981B892F20E040E060E090E0D3DF19
:100F2000CF5FF0CF0F931F93CF93DF93D82F162F60
:100F3000042F80915F04C091B10180FD10C0DF914A
:100F4000CF911F910F9108958091AF019C2F981B15
:100F5000892F202F412F6D2F90E0B5DFCF5F80913B
:100F6000B201C81788F3C3DFEACFB0E0A0E0EBEB33
:100F7000F7E00C94F933262FD72EE82FF0E0E55157
:100F8000FE4F71110AC0E4918E2F9E2F6E2F792F84
:100F9000CDB7DEB7EAE00C941534072F10E0E491EA
:100FA0004E2F56E0659F70011124CFEFD0E0C701AE
:100FB000BE010E94DD33822F90E0880F991F55E516
:100FC000569F9001579F300D1124821B930B582F71
:100FD000550F580FCE01801B910BE89F9001E99FA0
:100FE000300D1124932FD59ED0011124AB2FBB2798
:100FF0006E01CA1ADB0AEC9DD001ED9DB00D1124E3
:101000008B2F5E01A51AB108A09E6001A19ED00C95
:10101000B09ED00C1124CD2CDD24CC19DD09EC9F21
:101020008001ED9F100D112463307105D1F05CEF4C
:10103000E51653E0F50670F461307105B1F06230E9
:101040007105B9F04FEFE416F10408F09FCF832F3C
:10105000912F9CCF6430710579F066307105B9F33A
:1010600095CFE32F9B2F842F91CFEB2F832F942F9E
:101070008DCF812FE32FFBCF8E2FE12F87CF982F9E
:10108000762F842F20915F0420FF0AC0473908F093
:1010900086E9692F6ADF962F672F482F892F42CF65
:1010A0000895CF93DF93EC01EFE5F4E04381628193
:1010B0008C81E5DF8C818F5F8C83DF91CF910895E8
:1010C000CF93DF93EC01EC81F0E0E551FD4F94917B
:1010D000EFE5F4E08381989FC00111246FEF70E089
:1010E0000E94DD33462F62818181C9DF8C818F5F51
:1010F0008C83DF91CF91089590919F01882341F0D7
:101100009F5F90939F0110929C0110929B01089504
:101110009150F7CFE4E9F1E0828591E08927828759
:1011200010861782089580919E0181110CC09091C4
:10113000440396959695969581E02091950192139A
:1011400080E08170089581E0FCCF80919D01811144
:1011500007C080919F01811103C0E5DF8170089570
:1011600081E090E0FBCF80916F01F901808375CC25
:10117000CF93DF93EFE6F1E083819481A581B6817F
:10118000E90188839983AA83BB8314821382168220
:101190001582DF91CF91089580E0089563E070E0BB
:1011A00088E992E07ADE90919702891318C0E09165
:1011B0009802EC30A4F488E0E802F0011124EF5F1B
:1011C000FE4F0680F781E02D309749F02BEB32E09F
:1011D00040919A026BE972E0809199020995089515
:1011E000E2E8F2E0878980933101808D80934401A9
:1011F0000895F894E82FE295EF70F0E041A18F7028
:1012000021E030E0B90102C0660F771F8A95E2F74E
:10121000CB01962F9095942391A392A1892B82A321
:1012200078940895A4E0B0E0E8E1F9E00C9401348A
:1012300080910204882369F0ADDD69837A838B8312
:101240009C8369817A818B819C812496E2E00C9455
:101250001D34A0DD69837A838B839C838091F002A7
:101260009091F102A091F202B091F30229813A81AA
:101270004B815C81280F391F4A1F5B1F29833A83EA
:101280004B835C83DECF811522E5920708F04AC0CC
:10129000811530E5930708F0C5C0803E910540F503
:1012A0008D3C910508F09AC0883A910580F4853A02
:1012B000910508F090C08130910541F09C012450C7
:1012C0003109213A310510F090E080E008959C0149
:1012D000285A31092B313105B8F7885AE82FF0E048
:1012E000EE0FFF1FEA54FE4F8081918194640895B0
:1012F000811540E4940798F4811550E2950708F0B1
:10130000ABC0883E910510F39C013A9521153F41F1
:10131000D8F620E0392FA901482BCA0108959F7003
:10132000906A0895803852E59507B8F5803622E531
:10133000920708F05CC0803432E59307C8F480322D
:1013400042E5940708F04CC0282F2695269550E2D8
:10135000259F90011124482F437081E090E002C046
:10136000880F991F4A95E2F7822B932B9D68089569
:10137000282F26952695277040E2249F900111245E
:10138000482F437081E090E002C0880F991F4A9572
:10139000E2F7822B932B9C680895803C52E59507D9
:1013A00060F4282F2F71803A9245B0F5822F90E09B
:1013B000982F8827846F906A08959C01205C32459D
:1013C0002032310508F080CF982F882788279F7119
:1013D000806F906A08958497906408959065089549
:1013E0008F7190E0982F8827816F906A0895282F39
:1013F00026952695277050E2259F90011124482FAD
:10140000437081E090E002C0880F991F4A95E2F78F
:10141000822B932B9A680895822F90E0982F88272B
:10142000906208959C0195E0369527959A95E1F78D
:101430002F7030E0322F2227482F4F7150E084FF69
:1014400006C084E0440F551F8A95E1F75527C9016E
:10145000842B952B906908959F71E2CF982F9095DA
:1014600080910E04892380930E04089580915C047A
:1014700090912304981301C008958F5F8770FACF6D
:10148000292F983078F5863068F590E036E0239F74
:10149000800D911D1124682F677023E09695879524
:1014A0002A95E1F7FC01EE0FFF1FE80FF91FED5A37
:1014B000FD4F50E040E080E0219130E0062E02C078
:1014C000369527950A94E2F721703327042E01C040
:1014D000220F0A94EAF7822B4F5F5F4F433051058A
:1014E00059F7089580E00895292F983090F58630B7
:1014F00080F590E036E0239F800D911D1124282F68
:10150000277041E001C0440F2A95EAF723E0969541
:1015100087952A95E1F7FC01EE0FFF1FE80FF91FF1
:10152000ED5AFD4F90E080E070E05191DF0111979E
:101530009B01082E02C0369527950A94E2F7217088
:1015400021952527242325272C9301968330910567
:1015500061F70895282F9091FF02911105C081E055
:10156000222351F080E00895892F90E002C09595E4
:1015700087952A95E2F7817008958093FE02089579
:10158000982F82958F7011F0982F84E0292F26953F
:10159000269511F08E5F922F969509F08F5F089532
:1015A000CF93C82F80917C018C1749F0F3DB6093B7
:1015B0007D0170937E0180937F0190938001C093A1
:1015C0007C01CF910895ACE0B0E0E9EEFAE00C9434
:1015D000F3336C017B01DC011296ED91FC911397C2
:1015E0008D919C91222309F450C0209181012111F9
:1015F00001C024E02150330B32E0832E912C02C035
:10160000880C991C2A95E2F7B4010E9443349B018F
:10161000D6018D939C93CF01B4010E944334F6010F
:10162000938382836138FFEF7F0704F1603871058F
:10163000FCF4D70115966C932138BFEF3B07D4F02B
:1016400020383105CCF4822F8195F701848344231F
:1016500019F061956583248380918201882371F05C
:10166000813081F02C96E0E10C940F3461E8E1CFF9
:101670006FE7DFCF21E8E7CF2FE7E5CFD70115965A
:101680001C92F0CFF7011482EDCF21E02427411105
:1016900006C0F195E195F109919581959109022F87
:1016A00010E044E0249F90011124D901AD5BBD4FAF
:1016B0006D917C911197AB0177FF02C04D5F5F4F39
:1016C00055954795559547954F01841A950AA4015C
:1016D000460F571F4D935C93F901ED5BFD4F42811F
:1016E0005381BA0157FF02C06D5F7F4F75956795B3
:1016F000759567955C01A61AB70AA40EB51EBA8245
:10170000A982F901ED5BFD4FB382A2822081318174
:1017100037FF02C02D5F3F4F3595279535952795AB
:1017200049815A8157FF04C04D5F5F4F5A834983F7
:1017300069807A80759467947594679450902A03B1
:1017400053E0000F111F5A95E1F75520A9F0A901A8
:1017500037FF04C044275527421B530BC30177FEB4
:1017600004C08827992786199709481759070CF448
:10177000AC0141155105B9F4F801ED5CFD4F108243
:101780001182128213821482158216821782D70167
:1017900012962C93129713966C92F6011182108276
:1017A000138212825FCF0D5C1D4FDA010E947834E4
:1017B00069837A838B839C83F80180819181A281E4
:1017C000B38189809A80AB80BC80880E991EAA1E46
:1017D000BB1E89829A82AB82BC829A01D3010E948D
:1017E00078346D837E838F83988784819581A681E9
:1017F000B7812D813E814F815885280F391F4A1F9F
:101800005B1F2D833E834F835887652D70E080E4F6
:1018100090E00E9443344B01770FAA08BB0869810E
:101820007A818B819C81A50194010E945634290103
:101830003A01D8016D937D938D939C9313976D819D
:101840007E818F819885A50194010E945634298359
:101850003A834B835C83A501940169817A818B81F2
:101860009C810E9428344B015C018D819E81AF8157
:10187000B88588199909AA09BB09F8018483958359
:10188000A683B78321E83FEFF1E84F16FFEF5F062D
:101890006F067F063CF020E8421651046104710493
:1018A000E4F4920149815A816B817C8191E8692E2F
:1018B00077247A9441388FEF5807680778070CF43B
:1018C00066CF69807A8040385105610571050CF456
:1018D0005ECF8FE7682E712C5ACF2FE730E0E2CF32
:1018E0008F708A3010F4805D0895895A089520E23F
:1018F00097FF04C09195819591092DE2EAE0F0E00F
:10190000BF010E944334805D8093310261157105EF
:1019100059F42093300220E220932F0220E22093FA
:101920002E028EE292E00895CB01BF010E94433463
:10193000805D809330026115710571F3CB01BF01A9
:101940000E944334805D80932F02E9CFAC01860F63
:10195000971F57FD07C077FD04C097FF02C08FEFA8
:101960009FE7089577FFFDCF97FDFBCF80E090E8DC
:101970000895EDE9F1E083E0DF011D928A95E9F732
:10198000E9E9F1E084E0DF011D928A95E9F7089525
:101990009C0180919601909197018217930729F0FD
:1019A0003093970120939601E4CF0895909194018C
:1019B000981719F080939401DCCF0895CF939091FC
:1019C0003F0380913703981323C0809140038823FD
:1019D00021F09091380389131BC080914103882323
:1019E00021F090913903891313C080914303882318
:1019F00021F090913B0389130BC0909142039923EE
:101A000029F081E020913A03291303C080E001C04E
:101A100081E0C82FC17080FF11C0E0915D04F0919A
:101A20005E04309759F00680F781E02D309731F051
:101A300082E080933E038EE393E0099590913F030B
:101A400086E0EEE3F3E0DF01282F1D922A95E9F707
:101A500090933F03A6E3B3E001900D928A95E1F7DE
:101A600081E0C11103C0911101C080E08170CF916C
:101A700008952FE2280F283070F481E090E001C033
:101A8000880F2A95EAF720913F03662329F0822BDD
:101A900080933F0393CF089580958223F9CFCF930E
:101AA000DF93282F81E02A3019F02D3029F480E0CF
:101AB00088D0DF91CF910895809170069091710642
:101AC00036E0FC01AAE6B6E001900D923A95E1F706
:101AD00030EE320F343A08F458C026E0FC0111927F
:101AE0002A95E9F7C0917006D091710646E050E062
:101AF000BE018AE696E00E940B359E012A563440CC
:101B0000892B41F1C90145E0969587954A95E1F702
:101B100041E050E0BA0102C0660F771F8A95E2F7F4
:101B2000CB016091680470916904862B972BB901F1
:101B30006B5F7F4FE5E076956795EA95E1F702C028
:101B4000440F551F6A95E2F7842B952B90936904F7
:101B5000809368042A5F3F4F40916704642F70E0D0
:101B6000C9010E94DD33481B463010F4240F311D9B
:101B7000211572E0370710F030E020E026593B4F86
:101B8000309371062093700694CF2052330B46E0B9
:101B9000429FB001439F700D11246B5B794F46E06B
:101BA00050E00E94F5349ECFCF93DF93EC01FE010D
:101BB0008491811103C0DF91CF91089570DF219648
:101BC000F6CFCF93382FE0917006F0917106EA5668
:101BD000F44020916704622F70E0CF010E94DD3352
:101BE000281B822F332359F066E00E943734C82F18
:101BF000C15010F4CF91089580E251DFF9CF9F01D9
:101C0000280F311D2115324018F080E0F0E0E0E0AF
:101C10008E0F9F2F911D86599B4F90937106809335
:101C20007006E8CF80910E0490916D02892B9091FF
:101C30006C02992389F0892B90E028E232E0F901C7
:101C400040812F5F3F4F41119F5F42E02E323407AA
:101C5000B1F7911110926C028093260248E050E097
:101C60006EE672E086E292E00E940B35892BB9F0B5
:101C700088E0E6E2F2E0AEE6B2E001900D928A95ED
:101C8000E1F7E0915D04F0915E04309741F002804D
:101C9000F381E02D309719F086E292E009950895DE
:101CA000E8E2F2E086E0DF011D928A95E9F790E034
:101CB00080E0B8D890E080E08DD810926D02B2CF6D
:101CC000AAE2B0E0E6E6FEE00C9400348BE194E09A
:101CD000FC0101962091F100208324E083329207D9
:101CE000B9F780911C04893009F45BC0C8F48230D4
:101CF00009F4B8C0833009F487C0813099F180912C
:101D0000E80083FF3BC180911B0490911C049A3032
:101D100008F034C1E92FF0E0E658FA4C0C94723424
:101D20008A3009F48EC08B3051F780911B048132C8
:101D300031F780911F0490912004892B01F7809145
:101D4000E800877F8093E8000E94B20581E09091CF
:101D50001D04911101C080E08093AD0110920E042A
:101D60009FDFCDCF80911B04813A49F68091E80036
:101D7000877F8093E80080911F0490912004892B35
:101D800061F468E08FE094E070E00E945D0680916D
:101D9000E8008B778093E800B2CF60E090E080E0CD
:101DA000F3CF80911B04813209F0A9CF80911F04E9
:101DB000909120048D7F892B09F0A1CF8091E800BC
:101DC000877F8093E8008091E80082FF18C090919F
:101DD000F3008091F200029731F48091F10081309C
:101DE00011F0863021F48091F1008093AC01809154
:101DF000E8008B778093E8000E94B20580CF809145
:101E000019048111E0CF7BCF80911B04813A09F046
:101E100076CF80911F0490912004892B09F06FCF19
:101E20008091E800877F8093E8008091E80080FF40
:101E3000FCCF8091AD018093F1008091E8008E7716
:101E4000D9CF80911B04813209F059CF8091E800ED
:101E5000877F8093E8000E94B20580911E048093E2
:101E6000AB014DCF80911B04813A09F048CF80919E
:101E7000E800877F8093E8008091E80080FFFCCF36
:101E80008091AB01D8CF803899F0823809F076C0C4
:101E900080911F048F70873008F070C08093E90034
:101EA0008091EB0085FB882780F91092E90006C03D
:101EB0008091170490911804911182609091E8002C
:101EC000977F9093E8008093F1001092F100809149
:101ED000E8008E77B7C1882309F4A4C1823009F0E5
:101EE0004DC080911D048111A8C180911F048F7085
:101EF0002FEF280F263008F041C08093E900209191
:101F0000EB0020FF9AC1933031F48091EB008062A6
:101F10008093EB0092C19091EB0090619093EB0065
:101F200021E030E001C0220F8A95EAF72093EA0011
:101F30001092EA008091EB008860EACF81111EC008
:101F400010911D041F778091E3008078812B80938E
:101F5000E3008091E800877F8093E8000E94B2054B
:101F60008091E80080FFFCCF8091E300806880933F
:101F7000E30082E0111183E0809319048091E8006E
:101F800083FF0AC08091E800877F8093E8008091FA
:101F9000EB0080628093EB00AA96E3E00C941C3483
:101FA0008058823058F740911D0450911E044C3DDA
:101FB00083E05807A1F583E08A838AE289834FB7DB
:101FC000F894DE01139620E03EE051E2E32FF0E0CA
:101FD00050935700E49120FF03C0E295EF703F5FFC
:101FE000EF708E2F90E0EA30C0F0C7968D939D93EE
:101FF0002F5F243159F74FBF8091E800877F80938E
:10200000E8006AE270E0CE0101960E945D068091D0
:10201000E8008B778093E800B1CFC096E7CF80913E
:102020001F0490912004252F33272330310509F414
:102030004AC078F52130310509F479C08BE590E08C
:10204000ECEAF5E02230310509F098CF2091E80064
:10205000277F2093E80020912104309122048217E9
:10206000930708F49C0140E02115310509F064C094
:10207000411162C08091E80082FDC9CF80911904AE
:10208000882329F2853019F28091E80083FFF2CF8E
:10209000BECF2132310509F43BC02232310509F0AF
:1020A0006DCF8330910508F069CFFC01EE0FFF1F63
:1020B000E85EFD4F0190F081E02D8B5E9D4FDC01CD
:1020C0008C9190E011C0CA019927413089F082308B
:1020D0009105B1F0892B09F051CFE1E4F6E0E491EC
:1020E0008E2F90E0E1E4F6E0009709F447CFAECF01
:1020F000EFE2F6E0E4918E2F90E0EFE2F6E0F4CF2D
:10210000E9E1F6E0E4918E2F90E0E9E1F6E0ECCF32
:102110008330910508F032CF880F991FFC01E25EF1
:10212000FD4F0190F081E02D89E090E08FCF82E1BA
:1021300090E0E7E0F6E08ACF80911904882309F463
:1021400066CF853009F463CF8091E80083FD5FCFCF
:102150008091E80082FD8ECF8091E80080FF84CFDF
:102160009091F3008091F2002115310519F088302B
:10217000910550F041E0089709F040E08091E800B7
:102180008E778093E80070CF44914093F1003196B0
:10219000215031090196E8CF803809F0EFCE8091C7
:1021A000E800877F8093E80080911A048093F10013
:1021B0008ECE8111E3CE10911D04123008F0DECED8
:1021C0008091E800877F8093E80010931A040E94B2
:1021D000B205112311F084E005C08091E30087FD72
:1021E000FACF81E08093190442E061EC81E00E9423
:1021F000D10542E261EC84E00E94D10542E261EC4B
:1022000082E00E94D10542E260EC83E00E94D105A9
:1022100080911904843021F081E08093AE01AECE2C
:1022200082E0FBCF80911D04813009F0A7CE81E0D0
:10223000933009F080E0809318041092E9008091B7
:10224000E800877F8093E8000E94B20597CE88233C
:1022500011F004D9E7CC0895882331F090910E0451
:10226000892B80930E04DECC08958823A1F19CEF86
:10227000980F913A68F4E8E2F2E09191891303C073
:10228000DF0111971C9292E0EE32F907B1F7CACC48
:1022900090E2980F983048F4877091E001C0990F50
:1022A0008A95EAF7892FDAD8F2CF9BE5980F933019
:1022B00020F490E080E00C94120798E5980F9B3191
:1022C00020F490E080E00C94EA0693E3980F9331B9
:1022D00010F460E0CECB08950F931F93CF93C82FD7
:1022E000882331F18CEF8C0F813AA0F508E212E0DF
:1022F000F8018191C81701F122E0EE32F207C9F727
:10230000EFEF80E0D8019D918D01C91781F0EF3F7B
:1023100019F4911101C0E82F8F5F863099F7EF3FD4
:1023200031F00E2E000CFF0BEA5DFD4FC2837ADC0C
:10233000CF911F910F910895E8E2F2E08191C813C7
:1023400003C0DF0111971C9232E0EE32F307B1F7C0
:1023500069DCD6CF80E28C0F883068F4C77021E04A
:1023600030E001C0220FCA95EAF780910E04822B5B
:1023700080930E04DCCF8BE58C0F833038F42C2F48
:102380002452330BC9010E941207D2CFE8E5EC0FAB
:10239000EB3150F4F0E0EE0FFF1FEA54FE4F808166
:1023A00091810E94EA06C4CF83E38C0F833108F049
:1023B000BFCF61E08C2F5DDBBBCF0F931F93CF931B
:1023C000DF93EC01FC0101900020E9F78F0101503F
:1023D0001109C017D10728F0DF91CF911F910F91FC
:1023E000089589915CDBF5CF0F93CF93DF93CFE511
:1023F000D4E0488159816A817B8188E090E00E9425
:102400005535288139814A815B816C817D818E813E
:102410009F8100E20E94B834622F83E290E00E9424
:102420004335DF91CF910F9108950F931F93CF9371
:10243000DF93D82F162FC42F022F80915F0480FFC7
:1024400036C0209160042D1308C09091610496134A
:1024500004C090916204941729F090914D0392600A
:1024600090934D03E82FE695E695F0E0EC5FFD4F85
:10247000908190934B038C7F8430F1F48C2FC7397B
:1024800008F086E96D2F712F0E94B507962F672FF0
:10249000482F892F0E949207D09360041093610403
:1024A000C0936204002319F08FE594E09DDFDF9173
:1024B000CF911F910F910895963071F7D22FECCFE5
:1024C000EFE5F4E043812FE0421B08F440E021E017
:1024D00062818181AACFEFE5F4E043812FE0420FD2
:1024E00008F44FEF21E0628181819FCFEFE5F4E0B6
:1024F000628121E1621B08F460E021E04381818177
:1025000094CFEFE5F4E0628121E1620F08F46FEF10
:1025100021E04381818189CFEFE5F4E0818121E0F1
:1025200043816281815181CFEFE5F4E0818121E037
:10253000438162818F5E79CF80916304882319F093
:102540008150809363048FE594E04ECF80916304C3
:10255000833018F48F5F809363048FE594E044CF59
:10256000EFE5F4E080818E7F8083CF013DDF0E9424
:102570007007EBE4F3E08281816082830C9477073B
:10258000EFE5F4E089E080838AEA81838FEF82833C
:1025900084E683831482EBE4F3E0828183608283A8
:1025A0008FE594E021CF1F93CF93DF93962F122FC7
:1025B000632F8430D8F49830C8F44630B8F4C42F70
:1025C000D0E0CC0FDD1F2CE0929FC00DD11D112457
:1025D00090E6899FC00DD11D1124CE0185960E94E1
:1025E0004335612FCE0186960E944335DF91CF910E
:1025F0001F910895AF92BF92CF92DF92FF920F93F7
:102600001F93CF93DF93B12CA12C00E0650110E064
:1026100012C0FE01259134914F2D612F802FC3DF11
:102620002296F39486E0F812F4CF86E0C80ED11C0F
:102630001F5F183039F0E601CC0FDD1FC45DDB4FA2
:10264000F12CE7CF0F5F80E3A80EB11C0430F1F648
:10265000DF91CF911F910F91FF90DF90CF90BF90AE
:10266000AF9008954F925F926F927F928F929F9258
:10267000AF92BF920F93CF93DF9300D000D0CDB72E
:10268000DEB788E090E00E9439352B013C01AFE5D0
:10269000B4E06C9350926004809361047092620481
:1026A0001092630410926404109265041092660400
:1026B00083E290E00E943135282F30E040E050E086
:1026C00060E070E080E090E000E20E949D34242908
:1026D000352946295729EFE5F4E02083309360043B
:1026E00040936104509362046093630470936404A4
:1026F00080936504909366040F900F900F900F9055
:10270000DF91CF910F91BF90AF909F908F907F906E
:102710006F905F904F9008950F931F93CF93DF9327
:10272000843030F5683020F5463010F5C42FD0E005
:10273000CC0FDD1F2CE0629FC00DD11D112430E6AF
:10274000839FC00DD11D1124CE0185960E94313585
:10275000082F10E0102F0027CE0186960E943135F9
:102760009801282BC901DF91CF911F910F910895F6
:1027700090E080E0F8CF462F672F783028F446307D
:1027800018F4843008F4C8CF80E090E00895B0E0F9
:10279000A0E0EDECF3E10C94FC337C010091FF022E
:1027A0008091FE02082BC3E0D0E010E0DC2EC801CF
:1027B0000C2E02C0959587950A94E2F780FD09C01A
:1027C0002197A0F7D12C8D2DCDB7DEB7E7E00C9483
:1027D0001834B7018C2FCFDF0E944309019781F392
:1027E000F2CFCF93DF93D82FC92FD1DF6D2F7C2F5E
:1027F000C2DF0E944309DF91CF910895FC018481DB
:10280000882399F080819181ECDF282F92959F7029
:10281000963091F060F4925F9F70923030F481E0D6
:10282000203F81F030F4283E30F080E004C09A5F11
:10283000F3CF243FD1F7089581E0283E20F0213FD7
:10284000A1F7F9CF08950895A6E0B0E0EAE2F4E137
:102850000C9400349C0186E0F901DE011196019090
:102860000D928A95E1F7F901258189819A812223C8
:1028700089F0662379F08BDF182F682F89819A8180
:102880000E94740A69817A81812F75DF2696E3E0C0
:102890000C941C340E94400A182FF4CF0F931F93FE
:1028A000CF93DF938B01EA0190911904943061F585
:1028B0008093E9008FEF9091E800815095FD06C06C
:1028C00095ED9A95F1F700008111F5CF8091E80020
:1028D00085FF1AC00E948105811111C08091E80016
:1028E00085FD06C08091E8008E778093E800F2CFE6
:1028F000F80181918F018093F100219779F7809100
:10290000E8008E778093E800DF91CF911F910F91BF
:102910000895BC0143E050E084E0C0CFBC0146E034
:1029200050E084E0BBCFCF93DF93D82FC92F48E08E
:1029300050E0682F792F81E0B1DF88E0ED2FFC2F88
:10294000AFE0B4E001900D928A95E1F7DF91CF916D
:102950000895792F603229F440E250E0682F82E038
:102960009DCF08953BB1377F2BB128604FB7F894C6
:1029700088E793E0FC010196508168E02BB90000E4
:1029800000C057FF3BB9550F000000C000C000C099
:102990003BB900C06A9591F754E08230950751F732
:1029A0004FBF8FE594E00197F1F700C00000089554
:1029B000B0E0A0E0EEEDF4E10C94F933F82EE92E4E
:1029C000D62EC72E8A018091EF02AA24A394B12C9F
:1029D0008A3018F48AE0A82EB12CC1E0D0E06D2D29
:1029E0007C2D8F2D9E2DF8010995811104C0219613
:1029F000AC16BD062CF4CDB7DEB7EAE00C94153466
:102A0000CC9F9001CD9F300D300D112490E080E0DF
:102A100045E34A95F1F70000019682179307C1F745
:102A2000DECF10920E043CD92FEF84E39CE02150BE
:102A300080409040E1F700C0000088E19AE00FB6C6
:102A4000F894A895809360000FBE90936000FFCF2C
:102A5000AB0124E630E0BC0188E70E94A2319C0172
:102A600081E0232B09F080E0089580917403909118
:102A70007703911103C091E089270895882361F0BD
:102A800062E070E08DEE93E0E3DF811103C080919E
:102A9000740308951092740380917403ECCFA5E041
:102AA000B0E0E5E5F5E10C940134809174038D8389
:102AB000809177038823E9F00E94CA06DC01CB01EC
:102AC000805A9541AF4FBF4F80937003909371032D
:102AD000A0937203B09373038D81811107C062E0EC
:102AE00070E08BEE93E0B4DF811108C08091740335
:102AF0008D838D812596E2E00C941D3481E08093D6
:102B00007403F4CFCF93ECE1F3E086E0DF011D9294
:102B10008A95E9F7EAE1F3E088EC90E0918380831D
:102B2000C1E0C3838AE892E0958384838AE0868348
:102B30008FE29AE09187808780E39AE0938782878B
:102B40008FE298E09587848780E398E0978786876F
:102B500040E150E060E472E0CF010E946135C09333
:102B6000510283E08093190363E080EE93E00E94BA
:102B70006A35C09318036BE48EEF93E00E946A35C8
:102B800065EA8FEF93E00E946A35CF9108958091B6
:102B90005002811110C081E0809350028EEF93E0CB
:102BA0000E9431358B3431F48FEF93E00E94313540
:102BB000853A09F0A7CF0895EADF809118038111C3
:102BC0000BC080EE93E00E943135883040F4809352
:102BD000190381E0809318038091190308958E3FB3
:102BE000B1F383E0F4CFCF93DF93C82F0E94C00AE4
:102BF000D82FE2DF982F81E0D91380E00E94D00A1D
:102C0000C093FF02DF91CF91089521E030E001C031
:102C1000220F8A95EAF720958091FF028223E3CF65
:102C2000909144038095892380934403282F277033
:102C300061F4891751F09091010392FF06C08695C7
:102C400086958695E2DF10924403089521E030E0F6
:102C500001C0220F8A95EAF78091FF02822BC3CF31
:102C60009091010392FB222720F9281771F080FB35
:102C700092F990930103609100037091010384E045
:102C800090E00E945D3582E0CBCF0895B0E0A0E0F7
:102C9000ECE4F6E10C94FB33FA0169017801C82FEA
:102CA000880FDD0B3097B1F0DE0193E0AA0FBB1F58
:102CB0009A95E1F7AF5FBE4F11968D919C91129757
:102CC0008E579D4F4C9150E0E417F50708F4AF0183
:102CD0000E941835CE010E946D33182F8823D1F041
:102CE000E114F104B9F083E0CC0FDD1F8A95E1F720
:102CF000FE01EF5FFE4F438150E0E416F50608F455
:102D0000A701CF5FDE4F6C817D816E577D4FC6017D
:102D10000E941835812FCDB7DEB7E8E00C94173448
:102D2000A5E0B0E0E6E9F6E10C94F9338D83E62EF8
:102D30005A01F22E68018091EF028A3028F080E07B
:102D40002596EAE00C9415348D818930C4F31982FC
:102D50008A836B832C8363E070E0CE0102960E942D
:102D60004D078983E0923101F092440110E000E0C8
:102D700030E020E044E050E0BE016F5F7F4F85E02F
:102D800085DF8823E1F24E2D50E030E020E0B501F0
:102D900086E07CDF882399F230E020E041E050E0DB
:102DA000BE016B5F7F4F87E071DF882341F20F2DFB
:102DB00010E0960150E040E070E060E088E066DFFF
:102DC000BFCFA8E0B0E0E7EEF6E10C94FB33C09093
:102DD000E302D090E402E090E502F090E6020E9467
:102DE000CA06DC01CB018C199D09AE09BF0911E0AF
:102DF00084369105A105B10518F10E941209DC0184
:102E0000CB010296A11DB11D89839A83AB83BC833C
:102E100010E000E030E020E044E050E0BE016F5FF1
:102E20007F4F82E033DF182F882351F00E94CA06BB
:102E30006093E3027093E4028093E5029093E602CC
:102E4000812F2896E8E00C9417348F929F92AF92CE
:102E5000BF92EF92FF920F931F93CF93DF93CDB763
:102E6000DEB729970FB6F894DEBF0FBECDBF7B014A
:102E700001E010E09E012B5F3F4F50E040E070E02A
:102E800060E080E003DF182F882309F44EC08090B3
:102E9000DF029090E002A090E102B090E2020E9476
:102EA000CA06DC01CB0188199909AA09BB09843635
:102EB0009105A105B10548F464E070E083E892E073
:102EC0000E944D079D81891781F104E010E09E0169
:102ED0002F5F3F4F50E040E070E060E081E0D6DEE1
:102EE000182F64E070E083E892E00E944D0791E0C3
:102EF0002D81281390E0192331F10E94CA066093B6
:102F0000DF027093E0028093E1029093E2028981F4
:102F10009A81AB81BC818093DB029093DC02A09309
:102F2000DD02B093DE0211E00EC080918302909129
:102F30008402A0918502B091860289839A83AB8333
:102F4000BC831111E4CF8091DB029091DC02A0914F
:102F5000DD02B091DE02F70180839183A283B38307
:102F6000812F29960FB6F894DEBF0FBECDBFDF913B
:102F7000CF911F910F91FF90EF90BF90AF909F90D6
:102F80008F9008954F925F926F927F92AF92BF920F
:102F9000CF92DF92EF92FF920F931F93CF93DF9325
:102FA00000D000D000D0CDB7DEB78D837B01A42E3A
:102FB000D22E3E83B02EC12EDB014D905D906D90E0
:102FC0007C900E94CA06DC01CB0184199509A609F0
:102FD000B70984369105A105B10510F4AA2051F175
:102FE00010E000E030E020E04B2D5C2D6D2D7E8167
:102FF0008D814CDE8983882339F00E94CA06F7014F
:103000006083718382839383898126960FB6F894B7
:10301000DEBF0FBECDBFDF91CF911F910F91FF900B
:10302000EF90DF90CF90BF90AF907F906F905F90C8
:103030004F900895F1E0F983E7CFA1E0B0E0E3E23B
:10304000F8E10C94FF3380917403898320919602F8
:1030500090E041E02817190609F440E001E010E093
:103060009E012F5F3F4F6BEE72E084E08BDF219675
:10307000E4E00C941B34ABE0B0E0E1E4F8E10C9444
:10308000FF3388E0EFE5F4E0DE01119601900D9248
:103090008A95E1F780914B0390914C03A0914D03E9
:1030A00089879A87AB8741E08B85811101C040E019
:1030B0000BE010E09E012F5F3F4F67EE72E083E070
:1030C00061DF811110924D032B96E4E00C941B34C8
:1030D000CF93DF93D82FC92F5ADD809151028111F0
:1030E00020C040E150E060E472E08AE193E00E9499
:1030F000213580911A0390911B03C297873B93401F
:1031000068F0ECE1F3E08EE0DF011D928A95E9F7CB
:1031100088EC90E090931B0380931A0381E08093E6
:10312000510280E1EAE1F3E0AD2FBC2F01900D9256
:103130008A95E1F78D2F9C2FDF91CF910895A0E123
:10314000B0E0E5EAF8E10C940134CE010196C0DF6D
:1031500089819A819C0122533109273B334010F029
:1031600088EC90E06096E2E00C941D3428E030E0BA
:1031700043E060E086E30C946630CF93DF93D82F72
:10318000C62FF4DF8D2F80680E9478308C2F0E942C
:1031900078308AEB8A95F1F700C00E94A83083E46A
:1031A00092E00197F1F700C00000DF91CF91089500
:1031B000682F893708F068E760937A0191E090936F
:1031C0007B0190916F01992349F06150811101C0F9
:1031D00064E0683708F067E78FE0CFCF0895FB0120
:1031E0008081E6CF282F80917A01811101C085E08E
:1031F000022E000C330B820F932F911D1816190607
:1032000014F081E090E0D4CFACE0B0E0EAE0F9E186
:103210000C94FD334F83588769877A878B879C8707
:1032200080916F01882309F444C080914B02811181
:1032300006C060E080E5A1DF81E080934B0296DF6D
:1032400080E50E9478300AEB0A95F1F700C00E94F1
:1032500090300E9490300E9490307C010E9490300B
:1032600060E0E62AF82A0E9490308C010E9490309B
:1032700020E0022B182B0E94A83025E02A95F1F7B8
:103280000000F894B70180917201909173010E943F
:10329000A60C9093730180937201B8018091740120
:1032A000909175010E94A60C909375018093740112
:1032B000789480910204882309F466C00E94CA06AB
:1032C000462F572FBC0180914C0290914D02A09146
:1032D0004E02B0914F028A019B01081B190B2A0B69
:1032E0003B0BD901C8010897A105B10508F44CC0F2
:1032F00040934C0250934D0260934E0270934F02E4
:1033000080917D0190917E01A0917F01B09180011B
:10331000481B590B6A0B7B0B423351056105710544
:1033200080F4109273011092720110927501109244
:103330007401109277011092760110927901109227
:1033400078011091030420917C01412FBE01695F37
:103350007F4F82E791E00E94E30A20917C018091F7
:103360006F01282741E04127BE01695F7F4F86E753
:1033700091E00E94E30A86E0FE013796A7E8B1E0FB
:1033800001900D928A95E1F786E0FE013796DE0105
:10339000119601900D928A95E1F729813A814B812E
:1033A0005C816D817E8180E090E02C96E6E00C945B
:1033B0001934CF93C82FDADE8C2F0E9478308FE734
:1033C00092E00197F1F700C000000E949030C82FF2
:1033D00095E09A95F1F700000E94A83085E68A955D
:1033E000F1F7000010924B028C2FCF910895CF93EC
:1033F000DF930E94D52F269AB9DE6AE58AE3BDDE07
:103400002FEF80E792E0215080409040E1F700C02C
:10341000000082E0CEDF83E0CCDF84E0CADF85E01D
:10342000C8DF86E0C6DF60E080E1A7DE80E0C1DFC4
:10343000D82F81E0BEDFC82F0E94A830D23419F403
:1034400081E0C13009F080E0817080936F018823B2
:1034500019F064E08FE091DE81E0DF91CF91089573
:103460001F920F920FB60F9211242F933F934F93F9
:103470005F936F937F938F939F93AF93BF93CF93FC
:10348000DF93EF93FF93D091E900DF708091EC0020
:10349000C82FC17080FDC0E81092E9008091F00053
:1034A000877F8093F00078940E94600E1092E9006C
:1034B0008091F00088608093F000CD2BCF70C09396
:1034C000E900FF91EF91DF91CF91BF91AF919F9173
:1034D0008F917F916F915F914F913F912F910F90BD
:1034E0000FBE0F901F9018951F920F920FB60F925C
:1034F00011242F933F934F935F936F937F938F93F9
:103500009F93AF93BF93EF93FF938091E10082FF6E
:1035100009C08091E20082FF05C08091E1008B7FAD
:103520008093E1008091DA0080FF24C08091D80070
:1035300080FF20C08091DA008E7F8093DA00809136
:10354000D90080FFA9C080E189BD82E189BD09B4AD
:1035500000FEFDCF81E08093190480910D0481115C
:1035600009C00E9462050E9403068091E200846007
:103570008093E2008091E10080FF1AC08091E20018
:1035800080FF16C08091E2008E7F8093E2008091E0
:10359000E20080618093E2008091D8008062809395
:1035A000D80019BC85E08093190483E08093AE01B4
:1035B0008091E10084FF2FC08091E20084FF2BC046
:1035C00080E189BD82E189BD09B400FEFDCF809113
:1035D000D8008F7D8093D8008091E1008F7E80930A
:1035E000E1008091E2008F7E8093E2008091E20012
:1035F00081608093E20080911A04882309F452C00C
:1036000084E08093190480911904843009F452C035
:1036100081E08093AE018091E10083FF2CC0809116
:10362000E20083FF28C08091E100877F8093E10062
:1036300082E08093190410921A048091E1008E7F39
:103640008093E1008091E2008E7F8093E200809180
:10365000E20080618093E20042E060E080E00E944E
:10366000D1058091F00088608093F00081E0809324
:10367000AE018093AD01FF91EF91BF91AF919F910A
:103680008F917F916F915F914F913F912F910F900B
:103690000FBE0F901F90189519BC1092190410922C
:1036A0000D0468CF8091E30087FD02C081E0A9CFBF
:1036B00083E0A7CF82E0ADCF78941F921FB61F9210
:1036C00011248F939F93AF93BF938091090490919E
:1036D0000A04A0910B04B0910C040196A11DB11D28
:1036E0008093090490930A04A0930B04B0930C04F4
:1036F000BF91AF919F918F911F901FBE1F90189502
:103700002FB7F8948091090490910A04A0910B04BA
:10371000B0910C042FBF0895A5E0B0E0E2E9FBE111
:103720000C94F53380917703882309F411C120911B
:103730007503309176033A832983E2DF49815A8108
:10374000841B950BC29708F4DAC0DADF90937603F6
:10375000809375038AE694E09093710680937006D7
:1037600080910204882309F402C185EF93E00E944E
:10377000D40D88EB0E944F0D809186010E94700C41
:103780000E944F0D89EB0E944F0D809185010E9490
:10379000700C0E944F0D82EF93E00E94D40D809137
:1037A00083019091840154E0969587955A95E1F7AD
:1037B0000E94700C0E944F0D809183010E94700C3A
:1037C0000E944F0D8FEE93E00E94D40D8DE891E0A2
:1037D0000E94DD1184E194E00E94D40D8091890162
:1037E000082E000C990B0E94770C0E94DD1180912D
:1037F0008A01082E000C990B0E94770C0E94DD11A3
:1038000080918C01082E000C990B0E94770C0E946D
:10381000DD1180918B01082E000C990B0E94770C12
:103820000E94DD118CE094E00E94D40D80917A0119
:10383000811101C085E090E00E94770C01960E9402
:10384000DD1188E094E00E94D40D809182018823EC
:1038500031F0813009F480C08FEF93E002C085E041
:1038600094E00E94D40D80917C01882309F477C0F4
:103870008DE194E00E94D40D8BEF93E00E94D40D73
:1038800080918101811101C084E0805D0E944F0D13
:1038900083E294E00E94D40D51E0598389810E9413
:1038A000AA0A882309F45EC089810E94700C0E94D4
:1038B0004F0D69816F5F6983683081F780E20E94F4
:1038C0004F0D80E294E00E94D40D809194018823F2
:1038D00009F44AC08DE194E00E94D40D80919601D4
:1038E000909197016AE070E00E94DD33CB010E9465
:1038F000770C01960E94DD1180E30E944F0D8091AC
:10390000680490916904892B09F04DC0809174037B
:103910008823F1F00E94CA0669837A838B839C8393
:103920008091700390917103A0917203B091730321
:1039300029813A814B815C81281B390B4A0B5B0B37
:10394000DA01C9018F3F9F4FAF4FBF4708F48DD8B1
:103950002596EEE00C94113482E094E082CF8AE167
:1039600094E088CF80EBA3CF8AE194E0B5CF70E9F3
:103970007983898180518D8389E294E00E94D40DFE
:103980008D81982F9F5F9D830E944F0D6D802981AF
:103990006212F6CF80E00E94E10D3981305F3983F9
:1039A000303C39F7ACCF80917703882309F4AECF50
:1039B00080916F038111AACF72D820916804309151
:1039C00069042115310509F4A1CF80E041E050E000
:1039D000082F10E0BA01082E02C0660F771F0A9464
:1039E000E2F77A83698362237323672B11F48F5F75
:1039F000EFCF90916E0390FF97C0880F880F880FCC
:103A00008093A6011092A901895F8093A70183E0AA
:103A10008093AA0124E630E047E050E064EA71E0D8
:103A200088E70E945F31892B09F070CFA80125E05B
:103A3000440F551F2A95E1F780916E0380FF86C0E1
:103A4000EEE4F3E080E2DF011D928A95E9F701E1FF
:103A500012E08DE0E82E82E0F82E97E0992E88247F
:103A60008394D801ED918D01D7016D917D01640F93
:103A7000752F711D66597B4FF0E0E25BFC4F30E023
:103A800020E0792C721AA82C022E01C0AA0C0A94EC
:103A9000EAF76B0190E0D6018D916D018A21A72D87
:103AA000A91BA770BA2E0A2E000CBB0B682E01C0F2
:103AB000660CBA94EAF7B62CB195A195B109A77036
:103AC000BB2701C08695AA95EAF7A62DA82B808171
:103AD0008A2B80839F5F9830F1F62F5F3F4F31969E
:103AE0002830310571F622E00531120709F0B9CF0F
:103AF00004E610E020E230E04EE453E060E488E7C2
:103B00000E94E731892B09F001CF49815A81409504
:103B100050958091680490916904482359235093EB
:103B2000690440936804F2CE8295880F8076809372
:103B3000A601980136952795369527952093A901DA
:103B4000815E8093A7012093AA0164CF46595B4F01
:103B500004E610E020E230E0D1CFA4E3B0E0E3EBF4
:103B6000FDE10C94FD3380913C03833009F060C18A
:103B700040913E0350913F03609140037091410397
:103B800080914203909143033FDB20933E033093A7
:103B90003F0340934003509341036093420370936B
:103BA000430386E0EEE3F3E0DE01519601900D92CF
:103BB0008A95E1F786E0FE017196DE015D9601903F
:103BC0000D928A95E1F786E0FE017D96DE01119661
:103BD00001900D928A95E1F786E0FE013196AEE301
:103BE000B3E001900D928A95E1F786E0EEE3F3E011
:103BF000DE01519601900D928A95E1F786E0FE0173
:103C00007196DE01939601900D928A95E1F786E018
:103C1000FE01B396DE01119601900D928A95E1F7AF
:103C200086E0FE013196AEE3B3E001900D928A95F5
:103C3000E1F786E0EEE3F3E0DE019F9601900D925E
:103C40008A95E1F786E0FE01BF96DE015796019066
:103C50000D928A95E1F71BA9FCA80F2D012B09F401
:103C6000BBC0CE01019634DA8B8184FD11950F2DF6
:103C700085FD01951B8F0C8F86E0FE017796DE0196
:103C8000519601900D928A95E1F71D8B0E8B86E07F
:103C9000FE017196DE01999601900D928A95E1F7E9
:103CA0001DA70EA786E0FE01B996DE01579601908A
:103CB0000D928A95E1F71B8F0C8F86E0FE017796B7
:103CC000AEE3B3E001900D928A95E1F786E0EEE372
:103CD000F3E0DE01579601900D928A95E1F780910D
:103CE0009401882309F46BC0E0909901F0909A0147
:103CF00007DD209198018E199F092817190608F0F1
:103D00005EC0E0909B01F0909C01FADC9C012E19B2
:103D10003F09790114DA8E159F0508F050C0388DDF
:103D20008A8D9091A001298D920F9093A0012091EE
:103D3000A101820F8093A1012091A301020F0093A2
:103D4000A3012091A201120F1093A20120916D01F5
:103D500097FD9195291708F441C087FD8195281793
:103D6000E8F107FD01952017C8F117FD119581E0D5
:103D7000211718F0311101C080E0817080939D01FE
:103D80000E94A508882361F11092A0011092A10160
:103D90001092A2011092A301B3DC90939A01809338
:103DA000990110929C0110929B0110919501812F15
:103DB0000E94AA0A811103C0812F0E9426160E9428
:103DC000DE0C811132C080913D03817010923D0361
:103DD000E496E6E00C94193410E04CCF81E0CDCFAE
:103DE000809195010E94AA0A882349F300919901C4
:103DF00010919A0185DC801B910B209196013091E6
:103E0000970128173907D8F6809195010E94051669
:103E100010929A01109299011092A0011092A101A2
:103E20001092A2011092A301CACF81E090E0CDCF01
:103E300080E0CECF80910204882309F061CC0E94FB
:103E40001209CB01089560915F046695669570E054
:103E500041E050E08EE691E00E94FE34892B19F497
:103E600081E080934C03E6DF909346038093450303
:103E700080914D03846080934D03089590915F0479
:103E800090FF2CC0937081112AC0946090935F04BE
:103E900080914D03816080934D03662321F08FE56F
:103EA00094E00E94F41160915F046695669570E05D
:103EB00041E050E08EE691E00E94FE34892BB9F09B
:103EC0000E94700781E08093480320E040916204E3
:103ED00060916104809160040C94151208958930FA
:103EE00010F09062D3CF880F880F982BCFCFABDF25
:103EF000E9CF90915F04969596958FEF890F913059
:103F000009F488E061E0BACF80915F0486958695D8
:103F10008F5F893008F081E061E0B0CFA7E1B0E0C9
:103F2000E4E9FFE10C94F7331D861C86FE013E9602
:103F300086E0DF011D928A95E9F78EEEE82E81E09A
:103F4000F82E10E000E0CC24C394D12C28EFA22E50
:103F500021E0B22EF70181917F018F3F09F445C026
:103F6000F894E82FE295EF70F0E021A18F70A601A0
:103F700002C0440F551F8A95E2F7CA01922F982B71
:103F800091A392A18095892382A3789400C0E2EF47
:103F9000F1E031E0912C21912F3F09F4A7C0A22F2D
:103FA000A295AF70B0E090968C9190E02F7002C017
:103FB000959587952A95E2F780FD98C0832F982ADA
:103FC000330FAE16BF0639F7F701319780818F3F67
:103FD00011F00E94F90850EA5A95F1F7ECE0F0E090
:103FE000EC0FFD1FE00FF11F90820F5F1F4F043099
:103FF000110509F0AFCF48E050E0BE01645F7F4F8C
:1040000084EF92E00E940B359C01892B49F088E0F7
:10401000FE013C96A4EFB2E001900D928A95E1F783
:104020000091FD0210E0005F1C4F232B09F460C0DB
:1040300081E080937A0264DB909379028093780226
:10404000F12CE0900204EE2009F4ADC01A8219822E
:104050001C821B828091EF028A3008F06EC045E21C
:1040600057E1BE016F5F7F4FC8010E94D8148823BB
:1040700009F489C041EE56E1BE016F5F7F4FC80170
:104080000E94D814882309F47EC04BE358E1BE0196
:104090006F5F7F4FC8010E94D814882309F473C052
:1040A0004DE158E1BE016F5F7F4FC8010E94D814F7
:1040B000882309F468C01092EF028091FC0290E01E
:1040C00044E050E0BE016F5F7F4F805F9C4F0E94D5
:1040D0000B3521E020938102892B09F046C0E12CA9
:1040E0008E2D8F296796ECE00C94133480E067CF17
:1040F000F0907A02FF2009F4A3CFC0907802D0900C
:104100007902FEDA8C199D09059708F499CF44E0ED
:1041100050E064EF72E0C8010E940B35892B59F022
:1041200084E0E4EFF2E0D80101900D928A95E1F786
:1041300010927A0286CFF12CFBCFC0907B02D090F8
:104140007C02DEDA8C199D09843F914008F087CF0C
:1041500080918102882319F284E0FE013196DF010B
:104160001D928A95E9F710928102E091FC02F0E03D
:10417000E05FFC4F89819A81AB81BC818083918310
:10418000A283B383ADCF8091EF028F3F31F08F5F79
:104190008093EF028A3008F490CFB2DA90937C02D9
:1041A00080937B02D5CFF80180819181A281B38178
:1041B0008093830290938402A0938502B093860239
:1041C00064E070E083E892E00E944D0780938202F1
:1041D0008090870290908802A0908902B0908A0215
:1041E00080917D0290917E02A0917F02B091800229
:1041F00088169906AA06BB06B1F080927D029092BD
:104200007E02A0927F02B09280020E94CA06861AA5
:10421000970AA80AB90A8092F0029092F102A0923D
:10422000F202B092F3028BE0EBE8F2E0DE011196CD
:1042300001900D928A95E1F780918B028695869583
:10424000D0908C02C0908D02B0908E0200919402AA
:104250001091950210929502112321F110FF10C0C8
:1042600029812370982F990F990F292B29839091D9
:104270005F0420FF1EC0916090935F0460E0FEDD4C
:1042800011FF06C020E04B2D6C2D8D2D0E941512C4
:1042900012FF03C00023D1F0D6DD13FF03C081E07D
:1042A0008093480380919602882399F00E944F15CD
:1042B00017CF9E7F90935F040E94700780914D03FB
:1042C000816080934D030E947707DACF0E947007C8
:1042D000E4CF0E94351504CFB0E0A0E0E2E7F1E2C0
:1042E0000C94F8337C01DC0114968C91882309F43A
:1042F00081C161E0C7010E942414EC018091940106
:10430000882331F1F7011581C032F2E5DF0708F0AB
:104310007FC0C11522E5D20708F0C3C0C11530E542
:10432000D30708F06AC0C11580E4D80708F0CDC0F3
:10433000C11590E2D90708F0CFC0C83ED10590F56D
:10434000C03ED105A0F180919F0187FD10929F0191
:10435000D0938401C0938301D7018D919C911197D3
:104360009093860180938501FE013497E533F10532
:1043700008F0BFC0E357FE4FE49115968C9120EBF7
:10438000811102C02E2FE0EBADE8B1E090E080E0BB
:104390003D913213A8C081599E4FDC015E96EC938B
:1043A000FE01AEC0CE019A9581159F4160F2F701E2
:1043B0008481882341F2C730FEE7DF0709F43FC05C
:1043C000CE018D5C91094397D0F10E94A50881111F
:1043D000BACF112361F010919501812F0E94AA0A92
:1043E000882319F0812F0E9405160E94B90C88D9E4
:1043F00090939C0180939B01A6CFCE0125E09695DA
:1044000087952A95E1F78F7099272091950113C020
:10441000C038B2E5DB07B8F4C036E2E5DE0708F0E5
:1044200040C0C034F2E5DF0708F08DCF2091950140
:10443000CE018F7199272817190609F084CF812F93
:104440000E947C0880CFC03E22E5D20718F5C03C10
:1044500032E5D30708F477CF20919501CE018F7113
:1044600099272817190609F06ECF812F0E947C0822
:10447000D70116968C911697807F803509F063CF0F
:1044800015968C918823D9F080919F01815080935B
:104490009F0159CFCE01805E9245809708F453CF9B
:1044A00086CF20919501CE018F7199272817190683
:1044B00009F049CF111147CF0E948A0844CF0E94CA
:1044C0008A0880919F018F5FE2CFF7018681807F0C
:1044D00019F48D2F992797CFD70116968C91807F4D
:1044E00009F431CF64CF01968630910509F050CFA1
:1044F00057CFCE019A95FE0181159F4108F4FF2701
:10450000D70115968C91E93DF105D8F4E13DF1050F
:10451000E0F0682F8E2F0E94390DD70115969C91DF
:10452000992309F410C180910E048272FE01E052B9
:10453000F847EB30F10508F006C1EC57FA4C0C9443
:104540007234E730BEE7FB0751F0882331F3FE57A2
:10455000E331F10510F7E157FA4C0C9472340E94E4
:10456000D00ADBCF80E00E94D8181092810180E051
:104570000E94D60C8AE892E00E94C80C2BC02091C1
:10458000810130919401809196019091970162E3AD
:1045900070E00E94DD338FEF860F90918201609171
:1045A0002A0340917A0120FB47F9522F5695537008
:1045B000330F330F532B282F220F220F220F522B92
:1045C000660F660F6C739370692B70E08FE090E05C
:1045D0000E94553580914403877061F0D70115968C
:1045E0008C91882339F08091010382FF03C082E01F
:1045F0000E941016CDB7DEB7EBE00C94143481E0C6
:104600000E94F218E7CF8FEFFBCF8AE0F9CF86EF59
:10461000F7CF90917C0181E089270E94D00ADACF00
:1046200080918101811101C084E08F5F18160CF028
:1046300081E0883008F087E080938101CBCF8091C2
:104640008101811101C084E08150F0CF81E080932D
:104650008201C0CF10928201BDCF82E0F8CF90914D
:10466000940181E089270E94D60CB4CF80919601F5
:1046700090919701C296893EE3E09E0708F47CCFB3
:1046800088EE93E079CF8091960190919701C2973F
:104690008436910508F070CF84E690E06DCFC0912C
:1046A00095018C2F0E94AA0A882309F493CF809148
:1046B0009401882309F48ECF0E94930881118ACF38
:1046C0008C2F0E94051686CF80915F0480FF03C067
:1046D0000E94B0127FCF816080935F0461E0869575
:1046E0008695CCDB77CF882321F003DC73CF88233A
:1046F000E1F30ADC6FCF882329F00E948C126ACF85
:104700008823D9F30E94941265CF882329F00E9450
:10471000761260CF8823D9F30E9481125BCF882361
:1047200029F00E94601256CF8823D9F30E946B12A1
:1047300051CF882329F00E949C124CCF8823D9F3B3
:104740000E94A61247CF9E01205E324520323105DD
:10475000A8F4911127C0CF7181E090E0FC0102C064
:10476000EE0FFF1FCA95E2F7EF016E2F83E090E096
:104770000E9443358C2F0E94BD0A2CCF9923D1F182
:1047800080E0CB35FCE7DF0751F1CC352CE7D207D1
:10479000F9F081E0CA353CE7D30709F1C1308CE775
:1047A000D80731F1C330ACE7DA07E1F0C115DC47D7
:1047B00009F510920E040E94500EEFEFF4E32CE086
:1047C000E150F0402040E1F700C000000E94B9062F
:1047D0008091010382FB882780F991E089270E945C
:1047E0003016F8CE6FEF7FEF90E080E00E945D35ED
:1047F0000E941115F70100811181992309F44CC021
:10480000C8010E94C713C82F682FC8010E94740AEC
:10481000B8018C2F0E94BB130E944309D82FC92FC7
:10482000982ED7011596BC9015971696AC90A29429
:104830008FE0A82280914403877001F10B2DBB20EB
:10484000F1F0892F807F803469F080E28D0F88300D
:10485000A8F0892F807E803229F4B1E0BD1770F472
:10486000AA2061F08091010382FF08C082E00E94CB
:10487000101680914403877001E009F000E08C2F4E
:1048800082958F70C82ED12C8C3008F065C0F6014F
:10489000EE55FA4C0C947234C8010E94400AC82F9D
:1048A000B7CF1C2F1F70C07F11F01295107F8D2F76
:1048B000BB20B9F0112369F090E29D0F983010F001
:1048C000D11109C080910E04182B10930E040E9480
:1048D000120E8D2F3FC080916D02182B10936D0228
:1048E000F6CF0E9435111123B9F1D05ED83010F007
:1048F000911004C0812F0E942E0A06C0109580914D
:104900006D02182310936D020E94120E25C01C2FF9
:104910001F70C07FC03211F01295107F992051F0A6
:10492000E1E09E1609F45CC0BB2009F468C0AA202F
:1049300061F1CFCF8091010382FD23C0BB20D9F06C
:10494000112339F080910E04182B10930E040E944D
:10495000120E80E00E946C11B8E0CB1AD108E4E09E
:10496000CE16D10408F076C10E943A0760E0C70174
:104970000E9424143FCE80E00E943511112361F380
:10498000B9CFBB2099F0A11004C0812F0E942C1137
:10499000E3CFF1E0AF12E0CF80916C02912F98232A
:1049A0001917D1F2182B10936C02D6CFA110D4CFC7
:1049B000812F0E94271190916C02812F892329F069
:1049C000812F8095892380936C0280915202912FD0
:1049D000982309F4C1CF1095182310935202BCCF2D
:1049E000BB2029F025E02A1508F4B6CFCECF34E05D
:1049F0003A1508F4B1CF812F0E942711ADCFAA201C
:104A0000D1F3D93369F48FEF97EEA3E08150904052
:104A1000A040E1F700C000008D2F0E9435119CCF0F
:104A2000EFE1FEE43197F1F7F5CF8C2F869586956F
:104A3000837069F0813009F08FCF8D2F9C2F937098
:104A4000B11002C080E090E00E94EA0685CF8D2F71
:104A50009C2F9370B11002C080E090E00E9412077A
:104A60007BCF6B2D8D2F0E94390D76CF8C2F8370CD
:104A700091F5B11071CF4D2F429546954770440F77
:104A8000440F8D2F8F70042E01C0880F0A94EAF70F
:104A90002D2F2071D4FF07C02FE030E001C0220F7E
:104AA0004A95EAF72095C695C695C370C23071F055
:104AB000C33051F03091FE02C13029F0822B8323A4
:104AC0000E94BD0A49CF832B822BFACF282B8091DD
:104AD000FE028227F5CF8695BB2011F08C2F8170C6
:104AE000882309F439CF4D2F429546954770440FDE
:104AF000440F8D2F8F70042E01C0880F0A94EAF79F
:104B00002D2F2071D4FF07C02FE030E001C0220F0D
:104B10004A95EAF72095C695C695C370C23071F0E4
:104B2000C33051F03091FF02C13029F0822B832332
:104B30000E94F31511CF832B822BFACF282B809163
:104B4000FF028227F5CFCF70BB2029F08C2F0E9467
:104B500026168D2F1BCF8D2F0E9427118C2F0E9480
:104B60000516FACE8D2FF2EF9F16A9F1F91570F008
:104B700020EF9216D1F031EF931691F0BB2009F49B
:104B800055C0A110A6CE8C2F8F7129C093EF991616
:104B900049F1A4EF9A12F2CF9091010392FD2DC03A
:104BA0008C2F8F71BB20D9F21AC0BB2079F0B4E0F2
:104BB000BA1508F4D1CECF7181E090E001C0880F22
:104BC000CA95EAF79091FF028927B2CFE5E0EA158E
:104BD00008F4C2CEF0CF8C2F8F71B110C0CF0E94DD
:104BE0002616BACE80E0BB2009F4A2CFCF7181E0B7
:104BF00001C0880FCA95EAF79BCFBB2061F08C2FCC
:104C00008F7192FFECCFF8E08F9F90011124236009
:104C100020934403E4CF81E00E94101621E02A157E
:104C200008F09ACE82E00E94101696CEAA2079F063
:104C3000893341F43FEF87EE93E03150804090405C
:104C4000E1F7E8CEAFE1BEE41197F1F7E3CE8C2FA8
:104C50008F7185CF002309F489CE8091440380FDB4
:104C600085CED70115961C928695869586950E94CD
:104C70002616C70131DB809144038695869586957B
:104C80000E94051673CEB0E0A0E0E9E4F6E20C94D1
:104C9000FC3380916B02807F09F050C080916A02E2
:104CA000882309F44BC0E0915C0487E0D82E809102
:104CB00023048E1709F442C00E2F10E0ED9DF00181
:104CC0001124EC5DFB4F84818823E9F1D09EE00143
:104CD000D19ED00D1124FE01EC5DFB4F918180919E
:104CE0006602981330C090818091650298132BC0A2
:104CF0008581811128C0E280F380809167029091C4
:104D00006802E81AF90A60E085E692E00E9424143D
:104D10000E949F18E816F906B0F480916B028F701C
:104D2000806180936B02C65DDB4F88818F708061EC
:104D3000888385E692E0D0DA0E94360ACDB7DEB7E6
:104D4000E7E00C941834F8013196E770B0CFA6E193
:104D5000B0E0EDEAF6E20C94F4338C0186E0F80161
:104D6000DE01519601900D928A95E1F7D8011496D3
:104D7000FC9014971596EC9085E6882E82E0982E8C
:104D800080916902811128C0F11003C0FF24F394BF
:104D90001BC0EE20F1F0C8010E94FE13F82E8823FC
:104DA000C1F087E0F801A5E6B2E001900D928A9586
:104DB000E1F780916902813031F480916502909130
:104DC00066020E94F1135FDF8F2D6696EFE00C9470
:104DD0001034C80181DADACFF801A0805180C28096
:104DE000D38060E085E692E00E942414B0906A02CD
:104DF0008091670290916802BB2009F4C6C0360119
:104E0000681A790A60E085E692E00E9424140E9404
:104E10009F186816790608F099C0FF2009F4B6CFEC
:104E200080916B02382F307F20916602D801119655
:104E30009C91119731114CC0FE2C291313C0209165
:104E400065029C9129130EC0E1101CC18F70806116
:104E500080936B0285E692E03FDA80916B02F80165
:104E60008683B2CFE1100EC1652D8A2D0E944405C4
:104E7000882309F4E6C0CE0101960E9468188B8150
:104E800082FFDFC085E692E027DA87E0E5E6F2E020
:104E9000DF011D928A95E9F7F12C96CF2A5F2F70DA
:104EA000223070F0C80118DAEB2CEAC0992319F00F
:104EB000882309F4E5C0805E883008F4E1C0F2CFB1
:104EC000803F08F4DDC0815F833008F4D9C0EACFA9
:104ED000291315C0209165029C91291310C0E1107F
:104EE0000EC016968C93C801F7D987E0F801A5E6A5
:104EF000B2E001900D928A95E1F7FB2C65CFC801D5
:104F00000E94FE13882309F464CFEE2009F461CFD8
:104F100080916B02803280F02091650230916602B0
:104F20003A832983DC82CB82909169029D831E8221
:104F30008F83CE010196D0D987E0F801A5E6B2E0D3
:104F400001900D928A95E1F79EDE20CF80916B0251
:104F5000982F907F09F496CFFF2009F417CF209166
:104F60006602F80191812913CACF209165029081D0
:104F70002913C5CFE110C3CF8683C801ADD987E01F
:104F8000D4011D928A95E9F7B8CF5601A81AB90A3B
:104F900060E085E692E00E9424140E949F18A81603
:104FA000B90608F048C0FF2009F4F0CEFE2CEE2030
:104FB00009F40FCF90916602F801818198132EC0F9
:104FC000909165028081981329C080916702909129
:104FD0006802C81AD90AF8ECCF16D104B0F480914F
:104FE0006B0280FD12C0982F907F79F0D801169641
:104FF0008C931697903F39F0982F907F905F8F7029
:10500000892B16968C93C80167D987E0F801A5E62D
:10501000B2E001900D928A95E1F7D6CEC8010E94C8
:10502000FE13811189CF80916B02816080936B02A6
:10503000C80152D9C9CE87E0F40111928A95E9F7E7
:105040002BCF652D8A2D0E944405E82E8111BCCE00
:10505000A98A5A8A89899A890E94F113292F22954F
:105060002F70903408F01ACF9F70223008F41ECFB2
:10507000992309F420CFF8019681907F09F01BCF86
:10508000FE2CA2CE80916B02816080936B0204CFD4
:10509000ABE1B0E0EEE4F8E20C9400344E8B5F8BB1
:1050A000688F798F8A8F9B8F911110926D021D8A64
:1050B00086E0FE017696DE011F9601900D928A959C
:1050C000E1F78B89882351F061E0CE010F960E94B1
:1050D000241461E0CE010F960E94241487E0FE01A3
:1050E0003F96DE01189601900D928A95E1F7CE0168
:1050F00008962DDE81110CC087E0FE013896DE0196
:10510000119601900D928A95E1F74C8541110BC0E3
:1051100017E080915C0490912304891334C06B964E
:10512000E3E00C941C342091230430E0C901019683
:105130008770992750915C0458171906A1F04D8388
:1051400097E0929FD001939FB00D1124AC5DBB4FAF
:10515000FE01319601900D929A95E1F78093230418
:105160000E94360AD5CF10920E040E94500E109263
:10517000230410925C0487E0E5E6F2E0DF011D9273
:105180008A95E9F7C5CF819FC00111248C5D9B4FA3
:10519000DEDD882321F280915C0490E00196877027
:1051A000992780935C04B5CFA6E0B0E0EAEDF8E281
:1051B0000C94FF330E94801B8C01809176029091A9
:1051C00077028017910779F019821A820E94801B5A
:1051D000682F49815A81792F80E090E059DF109340
:1051E0007702009376022696E4E00C941B341F921B
:1051F0001FB61F9211248F939F93AF93BF938091FB
:105200000804811113C08091090490910A04A091AF
:105210000B04B0910C044196A11DB11D80930904AB
:1052200090930A04A0930B04B0930C04BF91AF9128
:105230009F918F911F901FBE1F901895CF93DF9362
:10524000EC010E94801B8C1B9D0BDF91CF91089578
:10525000CDB7DEB7C855D1090FB6F894DEBF0FBE83
:10526000CDBF85B7806885BF85B7806885BF84B7A7
:10527000877F84BF0FB6F894A895809160008861FD
:1052800080936000109260000FBE80E890E00FB63F
:10529000F89480936100909361000FBE81E0809349
:1052A000AE018CEC98E090932502809324020E943A
:1052B00062050E9403068091E20084608093E20010
:1052C0007894809119048823A1F01091E9001F704F
:1052D0009091EC00892F817090FD80E8182B10923E
:1052E000E9008091E80083FD0E94600E1F7010931A
:1052F000E90082E084BD93E095BD9AEF97BD80936D
:105300006E001092F0021092F1021092F2021092CE
:10531000F30288EC90E02091E300122F111F112777
:10532000111F27FD0CC0AFE3BCE91197F1F700C0D6
:105330000000019781F70E946205109219041093F2
:10534000020425982D9A869A8E98B5E0BA95F1F7C1
:10535000000083B185FB882780F986988E9AE0EA61
:10536000EA95F1F780930304809300018091020491
:1053700081110E948932809100018091000194E0A6
:10538000811190E09093FD0284E0891B8093FC02E0
:1053900084EF0E94F90885EF0E94F90886EF0E94C9
:1053A000F90887EF0E94F90802EF11E068EFE62E96
:1053B00061E0F62ED8018D918D018F3F11F00E9492
:1053C000F908E016F106B1F788E0E0E1F3E0DF016B
:1053D000082F1D920A95E9F7E4EFF2E0DF011D9234
:1053E0008A95E9F790E080E00E943E35833E9E4F2B
:1053F00059F163EE7EEF90E080E00E945D3560E061
:1054000082E090E00E94433581E08093FE0261E0FB
:1054100083E090E00E94433560E074E184E090E036
:105420000E945D350E94C0120E94FA1240E050E0D6
:10543000BA018FE090E00E94553540E050E0BA019B
:1054400083E190E00E94553582E090E00E94313582
:105450008093030384E090E00E943E359093010323
:105460008093000383E090E00E9431350E94BD0AE2
:105470008091FF020E94C00A182F0E94DC15982F0D
:1054800081E0191380E00E94D00A809102048823F1
:1054900009F4D7C180E080936E0380E880936704AD
:1054A000D8D66BE070E089ED91E00E942815882342
:1054B00009F445C080916E0365E070E081FDC3C1D1
:1054C00084ED91E00E9428158823C9F16DE070E019
:1054D00082EC91E00E942815882389F10E94CA0677
:1054E00065966CAF7DAF8EAF9FAF6597DC01CB014A
:1054F000805A9541AF4FBF4F8093700390937103D3
:10550000A0937203B0937303EAE6F4E080E092E0C4
:10551000DF018C011D9201501040E1F7F0937106FC
:10552000E09370068FEF9FEF909369048093680477
:1055300081E0809377038093740310926F038091CE
:10554000020381113AC08FE594E00E9432138091EA
:105550004D03836080934D0380915F048C7F71F4D1
:105560000E94C0128FE594E00E94321380915F0484
:10557000982F9C7F83708460992331F080915F0421
:10558000843220F08370806280935F048091620493
:10559000873918F086E9809362040E9470070E94A0
:1055A0006E0780915F0480FF05C060E08695869558
:1055B0000E943E1F81E080930203809102048111CA
:1055C00001C0AAD70E94F719882309F43FC183E0DC
:1055D00080933C038091020481112EC083EB98E0FC
:1055E0009093500180934F0129E130E030934B01BB
:1055F00020934A0189E390E090934E0180934D01FE
:1056000048EB58E0509358014093570130935301B1
:105610002093520190935601809355014FEE58E12B
:105620005093600140935F0130935B0120935A01D6
:1056300090935E0180935D0190E080E00E943E3592
:10564000833E9E4F09F04CC08FE090E00E943935B8
:10565000F62E172F082F8295869586958370990FC1
:10566000990F982B9B3559F0F12C10E000EC40E09D
:1056700050E060EC76E18FE090E00E9455358F2D90
:105680008F770E94D818FF1CFF24FF1C612F6370C6
:10569000660FF62AF092810112FB882780F90E949A
:1056A000D60C812F887F09F4D3C0169516951695D0
:1056B000212F30E02F5F3F4F42E3429FC001439FC5
:1056C000900D11240E94C80C802F8370809382015A
:1056D000069506950F700B3008F00AE000932A0338
:1056E0000E942D05CE0101960E9468188C81909130
:1056F0009501891721F0809395010E94B90C8D8145
:105700009E810E94C80C8B8186FB882780F991E0DE
:1057100089270E94D60C8F8180936D0181E691E0EC
:1057200090935E0480935D0480E193E058E0252E21
:10573000280E2E0123E0420E511CEE24E394FF2498
:10574000F394772473948091190410E400E142E10A
:10575000D42E853009F4B7C00E948E1F04E013E0F8
:1057600030E1C32E33E0D32E88EF91E069969FAFEE
:105770008EAF69979C01B601F8019191DB018D9183
:10578000BD01D9014D919D0184234CE053E04E179A
:105790005F0709F4A4C0981781F33090020488EFE2
:1057A00091E063969FAF8EAF6397A0E1B3E06796F9
:1057B000BFAFAEAF6797A12C6796EEADFFAD679711
:1057C000B1906796FFAFEEAF67976396AEADBFAD92
:1057D00063978D916396BFAFAEAF6397B822F80120
:1057E00061908F016B1421F16B24912C8824839498
:1057F000882D8621A9F0332099F09982AA820E94EF
:10580000801B9C838B837D8291E0882D8B2109F402
:1058100090E09E8349815A816B817C818D8138DC47
:105820009394880CF6E09F12E3CFF8013197B08291
:10583000A39428E0A212C0CF0E94120966246394A8
:1058400052C082E028CE8FEC91E03CCE81E0C0CE09
:105850008AE892E037CF80911904843039F10E94B0
:1058600035150E94AD1D1092080448E150E00FB6B6
:10587000F894A895409360000FBE1093600083B722
:10588000817F846083BF83B7816083BF789488956C
:1058900083B78E7F83BF0FB6F894A8958091600080
:1058A000886180936000109260000FBE0E948E1F7E
:1058B000A8EFB1E0E0E1F3E081919D91892309F047
:1058C00057C32E12F9CF80911904853009F4C3CF44
:1058D00010920E040E94500E0E943A073DCF98137A
:1058E0005CCF62DC612C80914C03882309F464C096
:1058F00080914B03E0915F04E695E695E81BE09309
:105900004703823009F063C0F0E0E951FE4FE491B3
:105910000E2F10E020E6A22E28E0B22E8091480340
:10592000882361F0109248030E941A1F9093460347
:105930008093450310924A03109249030E941A1F54
:10594000AC01E0914503F09146038E1B9F0B8F3F06
:105950009F4790F580910E038823B1F010920E03BB
:1059600020910C0330910D03421B530B4F3F5F47B7
:1059700058F4205D3A4830930D0320930C03809136
:105980004D03886080934D038090490390904A03B3
:105990000E0F1F1F109346030093450385E493E009
:1059A000F50109958091490390914A03892B21F4CF
:1059B000892811F0F0920E030E94AD1D8823D9F0C2
:1059C0000E9412090E948C1B0E944F1518C086303D
:1059D00059F4F0E0EC51FE4FE4910E2F10E091E508
:1059E000A92E98E0B92E9ACF00ED17E087EBA82EEC
:1059F00086E0B82E93CF0E948C1B6110E5CF0E94E9
:105A00003A0790910F03891721F080930F030E94AA
:105A1000CA0680911904843009F4BCC08091020444
:105A2000882309F490CE0E94CA06462F572FBC0146
:105A300080913103811149C080912D0390912E03F3
:105A4000A0912F03B09130038A019B01081B190B11
:105A50002A0B3B0BD901C801843F9140A105B10538
:105A6000A0F140932D0350932E0360932F03709366
:105A7000300380912B0390912C03019690932C037B
:105A800080932B0319828E010F5F1F4F21E050E09E
:105A900040E060E089E00E9490168823B1F081E048
:105AA00080933103809370019981911101C080E04E
:105AB000809371010E942D0580915F0480FF05C0D5
:105AC00060E0869586950E943E1F80917101882333
:105AD00009F433CE0E94CA066B017C018091320327
