:1000000009C4000024C4000022C400000C9438304D
:100010001EC400001CC400001AC4000018C4000064
:1000200016C4000014C400000C942F170C94EB1697
:100030000C94F0260CC400000AC4000008C40000A0
:1000400006C4000004C4000002C4000000C4000094
:10005000FEC300000C941718FAC30000F8C3000098
:10006000F6C30000F4C30000F2C30000F0C30000B8
:10007000EEC30000ECC30000EAC30000E8C30000C8
:10008000E6C30000E4C30000E2C30000E0C30000D8
:10009000DEC30000DCC30000DAC30000D8C30000E8
:1000A000D6C30000D4C30000D2C30000050109027A
:1000B000A10185020901A1000509190129081500FE
:1000C0002501950875018102050109300931158165
:1000D000257F95027508810609381581257F9501D0
:1000E00075088106050C0A38021581257F95017572
:1000F000088106C0C005010980A101850319012AF4
:10010000B700150126B700950175108100C0050CD8
:100110000901A101850419012AA002150126A002E6
:10012000950175108100C00660FF0961A101096297
:10013000150026FF00952075088102096315002629
:10014000FF00952075089102C005010906A101056F
:100150000719E029E7150025019508750181029529
:1001600001750881010507190029FF150026FF0008
:100170009506750881000508190129051500250156
:10018000950575019102950175039101C061626346
:100190006465666768696A6B6C6D6E6F70717273A7
:1001A0007475767778797A31323334353637383931
:1001B00030524542545F2D3D5B5D5C233B27602CF4
:1001C0002E2F00DA0281FFD9F1DB20A4A62EAF008A
:1001D000A0C0D30000A1C8D30000AED580A81F40A6
:1001E0008D14200000AF00AE202000BABB004B658C
:1001F0007920B10020C0C100BEBF00484F00565456
:10020000003030200020202020B1BCBD0042616CB5
:100210006CB100B4B500B2B300C2C3004CB6B77243
:10022000B100202000130012000C0018001C000078
:10023000002D430F000E000D410B00000038423727
:100240000036001000110000008702000000002AA4
:10025000422A42284114001A000800150017000025
:100260000004001600070009000A0000001D411BE1
:10027000000600190005000000E100E300E2009123
:10028000432C009042270026002500240023000074
:100290000043004200410040003F0000002E022FBA
:1002A000003100300033000000890000000000D160
:1002B00000010001001E001F00200021002200009C
:1002C000003A003B003C003D003E0000002E0025AF
:1002D000023000310034000000010001000100295B
:1002E000002B004C0000000000D3000000000000C4
:1002F000002352D2005200D1000000000000004F45
:100300000051005000000000000000000000002A22
:10031000000100010054005F006000610056000011
:100320000055005C005D005E00570000006200594F
:10033000005A005B006300000001000100010001A1
:1003400000010001005600610060005F00540000E1
:100350000057005E005D005C005500000063005B1C
:10036000005A00590062000000000000000000D2A6
:10037000000100010000000000000000000000007B
:100380000004011601070109010A0100001D011BFB
:100390000106011901050100000100010001000131
:1003A000000100010009025B00030100A0FA09043A
:1003B00000000103010100092111010F0122440085
:1003C0000705810308000109040100020300000081
:1003D00009211101000122220007058203200001EA
:1003E00007050303200001090402000103000000C7
:1003F000092111010F01227B000705840320000160
:100400001201000200000008575900050001010216
:10041000000112034B0065007900620061006C006E
:100420006C002B000000100359006F0077006B0078
:10043000650065007300000004030904000000006B
:10044000000000002F000000000700070000123F1E
:10045000123F1200242A7F2A120036091E241B0094
:10046000182629122800000007000000001E214065
:1004700000000040211E000014083E081400080877
:100480003E08080000003070000008080808080056
:1004900000003030000020100C0201001E2925232E
:1004A0001E0000223F2000002231292926001221AF
:1004B00025251A001814123F1000172525251800AD
:1004C0001E25252518000131090503001A252525BB
:1004D0001A00062929291E000000333300000000FD
:1004E000337300000814142222001414141414008E
:1004F0002222141408000201290502003E59555D0C
:100500003E003816111638003F2525251A001E21F9
:10051000212112003F2121211E003F2525252100F8
:100520003F09090901001E2121291A003F04040482
:100530003F0000213F210000102020201F003F0429
:100540000C1221003F20202020003F0204023F0027
:100550003F020C103F001E2121211E003F09090906
:1005600006001E2129112E003F0909192600122517
:100570002529120001013F0101001F2020201F003A
:100580000718201807000F300C300F0021120C1232
:100590002100030438040300312925232100007FB2
:1005A0004141000001020C1020000041417F000089
:1005B00004020102040040404040400000010304E6
:1005C0000000102A2A2A3C003F2422221C001C2260
:1005D000222224001C2222243F001C2A2A2A0C004A
:1005E00000043E0505000C5252543E003F0804042E
:1005F000380000003D0000002040403D00003F0862
:100600000814220000013F2000003E023C023C0092
:100610003E0402023C001C2222221C007E142222E4
:100620001C001C2222147E003E0402020400242A24
:100630002A2A120000021F2200001E2020103E0065
:100640000618201806000E300C300E002214081474
:1006500022000E5050483E0022322A26220008086E
:100660007741410000007F00000041417708080009
:10067000180408100C00000000000000000000003A
:100680000000000000000000C0F0F88C86C6E7FF04
:10069000FFFFFFFFFFFEFCFCF8E080000000F0F031
:1006A000F00000C0E0F070700000000000000000EA
:1006B0000000000000000000000000000000F8F84A
:1006C000F800000000000000000000000000000032
:1006D00000000000F8F8F80000F8F8F8000000004A
:1006E0000080E07078686C64C7C7C7C7C7C7E73FBA
:1006F0001F0F3FFFFFFFFFFFFF3F0F000000FFFF47
:10070000FF1E3FFFF3E1800000F8FCFE3636363E68
:10071000BCB8000E3EFEF080F0FE3E0E0000FFFF73
:10072000FF060606FEFEFC7000E6F6F63636FEFE16
:10073000FC000000FFFFFF0000FFFFFF00000000C3
:100740003C7F6360E0C0C0C0C0C0C0C0C0FFFFC08D
:100750006030180F030303010000000000000303D2
:100760000300000003030303000103030303030367
:100770000301007070393F1F0701000000000103F2
:100780000303030303030100000103030303030343
:100790000100000003030300000303030010101016
:1007A00000000000550000003E635D5D637F417BFB
:1007B00077413E00001C22221C003E0A003E0A0037
:1007C000322A3C0026281E001C2A2C0000003F096B
:1007D000360000001E212100000000003F08370005
:1007E0001E2121001E2121003F090600213F21007A
:1007F000222519001E2121003F0936003F211E003D
:10080000213F21000F300F003E093E003F063F0010
:100810003F20200011241FBECFEFDAE0DEBFCDBFA6
:1008200012E0A0E0B1E0E0ECF5E602C005900D9228
:10083000AE30B107D9F725E0AEE0B2E001C01D92BD
:10084000AF3CB207E1F70E9421270C94A132D8CB2C
:10085000E091C003F091C103309739F00284F38531
:10086000E02D309711F060E209950895982FE091FE
:10087000BF034091860357E0E41302C080E008956F
:100880002E2F30E05E9FF0011124E957FC4F81814B
:10089000681306C08081981303C085818111EFCF52
:1008A000F9013196E770E8CFE8EDF0E080818E7FC6
:1008B00080831092E2001092DA001092E100A0EE24
:1008C000B0E08C9181608C9380818F77808319BC9C
:1008D000A7EDB0E08C918E7F8C9380818F7E80839A
:1008E0001092700308952091E4003091E50095E6A0
:1008F000A9012091EC00822F817020FF06C0809119
:10090000E80080FF06C080E008952091E80022FD05
:100910001AC080917C03882389F0853089F080910A
:10092000EB0085FD0FC02091E4003091E5004217F7
:100930005307F9F29150E1F684E0089582E00895BA
:1009400083E0089581E0089580917E0387FF13C0BE
:100950008091E80082FF06C08091E8008B77809349
:10096000E80004C080917C038111F2CF089580914A
:100970007C038823D9F38091E80080FFF8CF809131
:10098000E8008E77ECCF982F9093E900242F762FF4
:1009900050E0891731F07091EC002091ED005091FA
:1009A000F00021FD07C09F5F973071F78093E90049
:1009B00081E008953091EB003E7F3093EB00309161
:1009C000ED003D7F3093ED003091EB0031603093CE
:1009D000EB007093EC002093ED005093F000209119
:1009E000EE0027FDE0CF80E00895B0E0A0E0EBEF5F
:1009F000F4E00C946731C8EDD0E088818F7E888365
:100A0000E7EDF0E080818160808384E082BF81E057
:100A10008093700388818E7F888302EE10E0F80156
:100A200010821092DA0081EEC82ED12CF6011082CD
:100A300088818F77888388818068888388818F7D8B
:100A4000888319BC10927C0310927D0310927B0363
:100A500010927A0390EEE92EF12CF70180818B7FC2
:100A6000808388818160888342E060E080E08BDF62
:100A7000F60180818E7F8083F80180818160808390
:100A8000808188608083F70180818E7F8083888168
:100A900080618883CDB7DEB7E8E00C948331FC0138
:100AA000CB0120918403309185032617370790F0FE
:100AB000009729F42091E8002E772093E80040E089
:100AC000009751F4411108C08091E80082FF31C0C5
:100AD00080E00895C901F3CF20917C032223A9F17E
:100AE0002530A9F12091E80023FD2DC02091E800D8
:100AF00022FDEACF2091E80020FFE2CF3091F30001
:100B00002091F200009719F02830310558F041E0AB
:100B10002830310509F040E02091E8002E7720933D
:100B2000E800CECF41914093F10001972F5F3F4FF6
:100B3000E9CF80917C03882341F0853041F080919A
:100B4000E80083FFC1CF81E0089582E0089583E04B
:100B50000895089587E797E7909301088093000828
:100B600088E19AE00FB6F894A895809360000FBED4
:100B700090936000FFCFA4E0B0E0E1ECF5E00C94CE
:100B80006D318FB7F89420916C0330916D034091D3
:100B90006E0350916F0329833A834B835C838FBF2D
:100BA00069817A818B819C812496E2E00C94893161
:100BB0008091A7010895A3E0B0E0E1EEF5E00C9488
:100BC0006D319C018091690390916A0382179307AC
:100BD000B1F030936A0320936903E091C003F09170
:100BE000C103309761F00084F185E02D309739F032
:100BF00084E089833B832A83CE010196099523965D
:100C0000E2E00C948931A3E0B0E0E9E0F6E00C9476
:100C10006D319C018091670390916803821793075F
:100C2000B1F03093680320936703E091C003F09123
:100C3000C103309761F00084F185E02D309739F0E1
:100C400083E089833B832A83CE010196099523960D
:100C5000E2E00C94893180916503882369F0E0918A
:100C6000C003F091C103309739F00190F081E02D7D
:100C7000309711F00995089580E00895FC01680F00
:100C8000791F8FEF91E32191822728E030E087FFE1
:100C900009C0880F892721503109C9F7E617F707DE
:100CA00091F70895880FF7CF90919A01882341F02A
:100CB0009F5F90939A011092970110929601089568
:100CC0009150F7CFEFE8F1E0828591E089278287A4
:100CD00010861782089580919801811114C0809127
:100CE0009A01811110C08091990181110CC09091DD
:100CF000390396959695969581E0209190019213EF
:100D000080E08170089581E0FCCF80916A01F90153
:100D100080830895CF93DF93EAE6F1E083819481A5
:100D2000A581B681E90188839983AA83BB83148254
:100D3000138216821582DF91CF91089580E0089585
:100D400063E070E08AE992E099DF9091990289135B
:100D500018C0E0919A02EB30A4F488E0E802F001B8
:100D60001124EF5FFE4F0680F781E02D309749F0A8
:100D70002DEB32E040919C026DE972E080919B0284
:100D800009950895E1E0F1E0AFE8B2E01C968C919E
:100D90001C9780A71D968C9183AF0895F894E82F37
:100DA000E295EF70F0E041A18F7021E030E0B901F1
:100DB00002C0660F771F8A95E2F7CB01962F9095B8
:100DC000942391A392A1892B82A378940895A4E0FF
:100DD000B0E0EDEEF6E00C946D3180916503882370
:100DE00069F0C9DE69837A838B839C8369817A8108
:100DF0008B819C812496E2E00C948931BCDE69836E
:100E00007A838B839C838091EE029091EF02A09174
:100E1000F002B091F10229813A814B815C81280F67
:100E2000391F4A1F5B1F29833A834B835C83DECFC4
:100E3000811522E5920708F04AC0811530E5930735
:100E400008F0C5C0803E910540F58D3C910508F045
:100E50009AC0883A910580F4853A910508F090C0CF
:100E60008130910541F09C0124503109213A31052E
:100E700010F090E080E008959C01285A31092B3150
:100E80003105B8F7885AE82FF0E0EE0FFF1FE45560
:100E9000FE4F8081918194640895811540E4940708
:100EA00098F4811550E2950708F0ABC0883E910593
:100EB00010F39C013A9521153F41D8F620E0392FD7
:100EC000A901482BCA0108959F70906A089580383F
:100ED00052E59507B8F5803622E5920708F05CC028
:100EE000803432E59307C8F4803242E5940708F075
:100EF0004CC0282F2695269550E2259F900111245D
:100F0000482F437081E090E002C0880F991F4A95F6
:100F1000E2F7822B932B9D680895282F269526951E
:100F2000277040E2249F90011124482F437081E0F4
:100F300090E002C0880F991F4A95E2F7822B932B0D
:100F40009C680895803C52E5950760F4282F2F7126
:100F5000803A9245B0F5822F90E0982F8827846FD1
:100F6000906A08959C01205C32452032310508F0DA
:100F700080CF982F882788279F71806F906A089567
:100F8000849790640895906508958F7190E0982FEC
:100F90008827816F906A0895282F269526952770B7
:100FA00050E2259F90011124482F437081E090E08A
:100FB00002C0880F991F4A95E2F7822B932B9A68FB
:100FC0000895822F90E0982F8827906208959C01C1
:100FD00095E0369527959A95E1F72F7030E0322FFE
:100FE0002227482F4F7150E084FF06C084E0440F51
:100FF000551F8A95E1F75527C901842B952B9069D8
:1010000008959F71E2CF982F909580917103892365
:101010008093710308958091BF0390918603981384
:1010200001C008958F5F8770FACF292F983078F527
:10103000863068F590E036E0239F800D911D1124E5
:10104000682F677023E0969587952A95E1F7FC0154
:10105000EE0FFF1FE80FF91FE25AFD4F50E040E08E
:1010600080E0219130E0062E02C0369527950A9443
:10107000E2F721703327042E01C0220F0A94EAF709
:10108000822B4F5F5F4F4330510559F7089580E041
:101090000895292F983090F5863080F590E036E05D
:1010A000239F800D911D1124282F277041E001C03E
:1010B000440F2A95EAF723E0969587952A95E1F75C
:1010C000FC01EE0FFF1FE80FF91FE25AFD4F90E001
:1010D00080E070E05191DF0111979B01082E02C062
:1010E000369527950A94E2F7217021952527242328
:1010F00025272C9301968330910561F708958093FD
:10110000FC020895982F82958F7011F0982F84E03B
:10111000292F2695269511F08E5F922F969509F02E
:101120008F5F08959C019A9581159F4150F5D901D3
:10113000AA27B170F901EE27F270B9016627747021
:10114000A9014427587034FF0EC080E1AB2B09F48D
:1011500080E0EF2B09F08062672B09F08064452B5B
:1011600089F08068089581E0AB2B09F480E0EF2BD3
:1011700009F08260672B09F08460452B19F08860C4
:10118000089580E00895CF93C82F809177018C1740
:1011900049F0F1DC609378017093790180937A01D2
:1011A00090937B01C0937701CF910895ACE0B0E0BC
:1011B000ECEDF8E00C945F316C017B01DC011296E0
:1011C000ED91FC9113978D919C91222309F450C0CD
:1011D00020917C01211101C024E02150330B32E029
:1011E000832E912C02C0880C991C2A95E2F7B40139
:1011F0000E94AF319B01D6018D939C93CF01B40126
:101200000E94AF31F601938382836138FFEF7F073D
:1012100004F160387105FCF4D70115966C93213800
:10122000BFEF3B07D4F020383105CCF4822F8195F5
:10123000F7018483442319F06195658324838091A9
:101240007D01882371F0813081F02C96E0E10C94CF
:101250007B3161E8E1CF6FE7DFCF21E8E7CF2FE710
:10126000E5CFD70115961C92F0CFF7011482EDCF90
:1012700021E02427411106C0F195E195F1099195EE
:1012800081959109022F10E044E0249F90011124E0
:10129000D901A35DBD4F6D917C911197AB0177FF93
:1012A00002C04D5F5F4F55954795559547954F0146
:1012B000841A950AA401460F571F4D935C93F901B8
:1012C000E35DFD4F42815381BA0157FF02C06D5F5C
:1012D0007F4F75956795759567955C01A61AB70A56
:1012E000A40EB51EBA82A982F901E35DFD4FB38257
:1012F000A2822081318137FF02C02D5F3F4F35959B
:1013000027953595279549815A8157FF04C04D5F30
:101310005F4F5A83498369807A8075946794759486
:1013200067945090150353E0000F111F5A95E1F791
:101330005520A9F0A90137FF04C044275527421BB7
:10134000530BC30177FE04C0882799278619970994
:10135000481759070CF4AC0141155105B9F4F801CF
:10136000E35EFD4F10821182128213821482158275
:1013700016821782D70112962C93129713966C92AD
:10138000F60111821082138212825FCF035E1D4F1D
:10139000DA010E94E43169837A838B839C83F801AC
:1013A00080819181A281B38189809A80AB80BC8049
:1013B000880E991EAA1EBB1E89829A82AB82BC82AD
:1013C0009A01D3010E94E4316D837E838F839887D5
:1013D00084819581A681B7812D813E814F81588579
:1013E000280F391F4A1F5B1F2D833E834F83588769
:1013F000652D70E080E490E00E94AF314B01770FE3
:10140000AA08BB0869817A818B819C81A50194011E
:101410000E94C23129013A01D8016D937D938D93C9
:101420009C9313976D817E818F819885A50194018E
:101430000E94C23129833A834B835C83A5019401C6
:1014400069817A818B819C810E9494314B015C017E
:101450008D819E81AF81B88588199909AA09BB0938
:10146000F80184839583A683B78321E83FEFF1E8F1
:101470004F16FFEF5F066F067F063CF020E842162E
:10148000510461047104E4F4920149815A816B8131
:101490007C8191E8692E77247A9441388FEF580740
:1014A000680778070CF466CF69807A804038510568
:1014B000610571050CF45ECF8FE7682E712C5ACF51
:1014C0002FE730E0E2CF8F708A3010F4805D08950E
:1014D000895A089520E297FF04C09195819591095A
:1014E0002DE2EAE0F0E0BF010E94AF31805D809321
:1014F0001B026115710559F420931A0220E2209312
:10150000190220E22093180288E192E00895CB01AD
:10151000BF010E94AF31805D80931A026115710591
:1015200071F3CB01BF010E94AF31805D809319023E
:10153000E9CFAC01860F971F57FD07C077FD04C0A8
:1015400097FF02C08FEF9FE7089577FFFDCF97FDCC
:10155000FBCF80E090E80895E8E9F1E083E0DF0167
:101560001D928A95E9F7E4E9F1E084E0DF011D923C
:101570008A95E9F708959C018091910190919201DB
:101580008217930729F03093920120939101E4CFC1
:10159000089590918F01981719F080938F01DCCFF7
:1015A0000895CF939091340380912203981323C020
:1015B00080913503882321F09091230389131BC068
:1015C00080913603882321F090912403891313C05E
:1015D00080913803882321F09091260389130BC052
:1015E00090913703992329F081E020912503291355
:1015F00003C080E001C081E0C82FC17080FF11C02E
:10160000E091C003F091C103309759F00680F78153
:10161000E02D309731F082E08093330383E393E051
:1016200009959091340386E0E3E3F3E0DF01282F8E
:101630001D922A95E9F790933403A1E2B3E001905B
:101640000D928A95E1F781E0C11103C0911101C0AB
:1016500080E08170CF9108952FE2280F283070F438
:1016600081E090E001C0880F2A95EAF720913403C9
:10167000662329F0822B8093340393CF08958095BD
:101680008223F9CFCF93DF93282F81E02A3019F0FE
:101690002D3029F480E088D0DF91CF91089580919A
:1016A000CB059091CC0536E0FC01A5ECB5E00190AE
:1016B0000D923A95E1F730EE320F343A08F458C003
:1016C00026E0FC0111922A95E9F7C091CB05D09153
:1016D000CC0546E050E0BE0185EC95E00E94343236
:1016E0009E01255C3340892B41F1C90145E0969567
:1016F00087954A95E1F741E050E0BA0102C0660FD4
:10170000771F8A95E2F7CB016091C3037091C40300
:10171000862B972BB9016B5F7F4FE5E07695679538
:10172000EA95E1F702C0440F551F6A95E2F7842B52
:10173000952B9093C4038093C3032A5F3F4F40913E
:10174000C203642F70E0C9010E944931481B463032
:1017500010F4240F311D211572E0370710F030E02E
:1017600020E02B533C4F3093CC052093CB0594CFF6
:101770002052330B46E0429FB001439F700D11246D
:10178000645C7B4F46E050E00E942B329ECFCF93AB
:10179000DF93EC01FE018491811103C0DF91CF91B1
:1017A000089570DF2196F6CFCF93382FE091CB05C7
:1017B000F091CC05E55CF3402091C203622F70E00C
:1017C000CF010E944931281B822F332359F066E054
:1017D0000E94A331C82FC15010F4CF91089580E228
:1017E00051DFF9CF9F01280F311D2115324018F02C
:1017F00080E0F0E0E0E08E0F9F2F911D8B539C4F17
:101800009093CC058093CB05E8CF809171039091A4
:101810007802892B90917702992389F0892B90E0A7
:1018200022E132E0F90140812F5F3F4F41119F5F7C
:1018300042E028313407B1F791111092770280937A
:10184000100248E050E069E772E080E192E00E9417
:101850003432892BB9F088E0E0E1F2E0A9E7B2E0A8
:1018600001900D928A95E1F7E091C003F091C103D8
:10187000309741F00280F381E02D309719F080E13C
:1018800092E009950895E2E1F2E086E0DF011D9221
:101890008A95E9F790E080E0B6D990E080E08BD9B6
:1018A00010927802B2CFAAE2B0E0E9E5FCE00C9435
:1018B0006C318EE793E0FC0101962091F1002083CA
:1018C00023E086389207B9F780917F03893009F4C5
:1018D00059C0C8F4823009F4B6C0833009F485C019
:1018E000813091F18091E80083FF39C180917E03BE
:1018F00090917F039A3008F032C1E92FF0E0ED5566
:10190000FD4C0C94DE318A3009F48CC08B3051F7D9
:1019100080917E03813231F780918203909183031D
:10192000892B01F78091E800877F8093E8000CD82D
:1019300081E090918003911101C080E08093A80123
:1019400010927103A0DFCECF80917E03813A51F6D1
:101950008091E800877F8093E800809182039091D6
:101960008303892B59F468E082E793E070E097D80D
:101970008091E8008B778093E800B4CF60E090E03E
:1019800080E0F4CF80917E03813209F0ABCF80916B
:101990008203909183038D7F892B09F0A3CF8091DF
:1019A000E800877F8093E8008091E80082FF18C0FC
:1019B0009091F3008091F200029731F48091F10050
:1019C000813011F0863021F48091F1008093A701DD
:1019D0008091E8008B778093E8000E94A40482CF76
:1019E00080917C038111E0CF7DCF80917E03813A8D
:1019F00009F078CF8091820390918303892B09F0BD
:101A000071CF8091E800877F8093E8008091E800A3
:101A100080FFFCCF8091A8018093F1008091E800C5
:101A20008E77D9CF80917E03813209F05BCF809190
:101A3000E800877F8093E8000E94A40480918103DE
:101A40008093A6014FCF80917E03813A09F04ACF5F
:101A50008091E800877F8093E8008091E80080FF14
:101A6000FCCF8091A601D8CF803899F0823809F058
:101A700076C0809182038F70873008F070C08093A9
:101A8000E9008091EB0085FB882780F91092E9003E
:101A900006C080917A0390917B03911182609091AE
:101AA000E800977F9093E8008093F1001092F10096
:101AB0008091E8008E77B7C1882309F4A4C18230F1
:101AC00009F04DC0809180038111A8C180918203EB
:101AD0008F702FEF280F263008F041C08093E90067
:101AE0002091EB0020FF9AC1933031F48091EB00FC
:101AF00080628093EB0092C19091EB009061909393
:101B0000EB0021E030E001C0220F8A95EAF7209334
:101B1000EA001092EA008091EB008860EACF811120
:101B20001EC0109180031F778091E3008078812B85
:101B30008093E3008091E800877F8093E8000E9413
:101B4000A4048091E80080FFFCCF8091E3008068CE
:101B50008093E30082E0111183E080937C03809105
:101B6000E80083FF0AC08091E800877F8093E80047
:101B70008091EB0080628093EB00AA96E3E00C94E6
:101B800088318058823058F740918003509181030A
:101B90004C3D83E05807A1F583E08A838AE289837C
:101BA0004FB7F894DE01139620E03EE051E2E32FB8
:101BB000F0E050935700E49120FF03C0E295EF70EE
:101BC0003F5FEF708E2F90E0EA30C0F0C7968D93A4
:101BD0009D932F5F243159F74FBF8091E800877F95
:101BE0008093E8006AE270E0CE0101960E944F0502
:101BF0008091E8008B778093E800B1CFC096E7CF63
:101C00008091820390918303252F33272330310560
:101C100009F44AC078F52130310509F479C08BE523
:101C200090E0E5EAF3E02230310509F098CF209109
:101C3000E800277F2093E8002091840330918503FA
:101C40008217930708F49C0140E02115310509F043
:101C500064C0411162C08091E80082FDC9CF8091CB
:101C60007C03882329F2853019F28091E80083FFF4
:101C7000F2CFBECF2132310509F43BC0223231050B
:101C800009F06DCF8330910508F069CFFC01EE0FAC
:101C9000FF1FEF5FFD4F0190F081E02D82509E4FBE
:101CA000DC018C9190E011C0CA019927413089F084
:101CB00082309105B1F0892B09F051CFE8E3F4E0CF
:101CC000E4918E2F90E0E8E3F4E0009709F447CF29
:101CD000AECFE6E2F4E0E4918E2F90E0E6E2F4E0AD
:101CE000F4CFE2E1F4E0E4918E2F90E0E2E1F4E061
:101CF000ECCF8330910508F032CF880F991FFC019B
:101D0000E95FFD4F0190F081E02D89E090E08FCFF9
:101D100082E190E0E0E0F4E08ACF80917C038823C8
:101D200009F466CF853009F463CF8091E80083FD24
:101D30005FCF8091E80082FD8ECF8091E80080FF28
:101D400084CF9091F3008091F2002115310519F0B4
:101D50008830910550F041E0089709F040E080910B
:101D6000E8008E778093E80070CF44914093F100B3
:101D70003196215031090196E8CF803809F0EFCE35
:101D80008091E800877F8093E80080917D038093B5
:101D9000F1008ECE8111E3CE10918003123008F055
:101DA000DECE8091E800877F8093E80010937D036A
:101DB0000E94A404112311F084E005C08091E30087
:101DC00087FDFACF81E080937C0342E061EC81E003
:101DD0000E94C30442E261EC84E00E94C30442E238
:101DE00061EC82E00E94C30442E260EC83E00E9466
:101DF000C30480917C03843021F081E08093A901A9
:101E0000AECE82E0FBCF80918003813009F0A7CE77
:101E100081E0933009F080E080937B031092E90029
:101E20008091E800877F8093E8000E94A40497CE09
:101E3000882339F0809590917802892380937802E5
:101E4000E4CC0895882331F090917802892B809317
:101E50007802DBCC0895882311F0D5D8D6CC08952C
:101E6000882331F090917103892B80937103CDCC3D
:101E700008958823A1F19CEF980F913A68F4E2E16C
:101E8000F2E09191891303C0DF0111971C9292E057
:101E9000E831F907B1F7B9CC90E2980F983048F4DF
:101EA000877091E001C0990F8A95EAF7892FABD826
:101EB000F2CF9BE5980F933020F490E080E00C94F3
:101EC000030698E5980F9B3120F490E080E00C9495
:101ED000DB0593E3980F933110F460E0BDCB0895D8
:101EE000CF93DF93EC01C5DFCE011CD99E01205EAC
:101EF00031092830310510F0CD2B21F4ACDFDF9112
:101F0000CF91089595DFFBCF0F931F93CF93C82FE9
:101F1000882331F18CEF8C0F813AA0F502E112E0B9
:101F2000F8018191C81701F122E0E831F207C9F701
:101F3000EFEF80E0D8019D918D01C91781F0EF3F4F
:101F400019F4911101C0E82F8F5F863099F7EF3FA8
:101F500031F00E2E000CFF0BE05FFD4FC28355DC0D
:101F6000CF911F910F910895E2E1F2E08191C813A2
:101F700003C0DF0111971C9232E0E831F307B1F79B
:101F800044DCD6CF80E28C0F883068F4C77021E043
:101F900030E001C0220FCA95EAF780917103822BCD
:101FA00080937103DCCF8BE58C0F833038F42C2FBA
:101FB0002452330BC9010E940306D2CFE8E5EC0F8F
:101FC000EB3150F4F0E0EE0FFF1FE455FE4F80813F
:101FD00091810E94DB05C4CF83E38C0F833108F02D
:101FE000BFCF61E08C2F38DBBBCFCF93DF93EC0109
:101FF00099D89E01205E31092830310510F02097D4
:1020000031F42EDF8C2F80DFDF91CF9108951ADF1E
:10201000F9CF0F931F93CF93DF93EC01FC01019055
:102020000020E9F78F0101501109C017D10728F0EE
:10203000DF91CF911F910F910895899123DBF5CF07
:102040000F931F93CF93DF938B01EA0190917C0351
:10205000943061F58093E9008FEF9091E800815012
:1020600095FD06C095ED9A95F1F700008111F5CF29
:102070008091E80085FF1AC00E947304811111C08D
:102080008091E80085FD06C08091E8008E778093FE
:10209000E800F2CFF80181918F018093F100219740
:1020A00079F78091E8008E778093E800DF91CF91F7
:1020B0001F910F910895BC0143E050E084E0C0CF30
:1020C000BC0146E050E084E0BBCFCF93DF93D82F34
:1020D000C92F48E050E0682F792F81E0B1DF88E018
:1020E000ED2FFC2FA2E7B3E001900D928A95E1F766
:1020F000DF91CF910895792F603229F440E250E0CA
:10210000682F82E09DCF0895B0E0A0E0EAE8F0E11A
:102110000C946531F82EE92ED62EC72E8A018091B7
:10212000ED02AA24A394B12C8A3018F48AE0A82ED8
:10213000B12CC1E0D0E06D2D7C2D8F2D9E2DF801AE
:102140000995811104C02196AC16BD062CF4CDB7BB
:10215000DEB7EAE00C948131CC9F9001CD9F300D29
:10216000300D112490E080E045E34A95F1F700003E
:10217000019682179307C1F7DECF1092710383DBBC
:102180002FEF84E39CE0215080409040E1F700C0B5
:10219000000088E19AE00FB6F894A895809360005B
:1021A0000FBE90936000FFCF1F93CF93DF93962FC6
:1021B000122F632F8430D8F49830C8F44630B8F426
:1021C000C42FD0E0CC0FDD1F2CE0929FC00DD11D9D
:1021D000112490E6899FC00DD11D1124CE01859652
:1021E0000E946C32612FCE0186960E946C32DF9184
:1021F000CF911F910895AF92BF92CF92DF92FF923D
:102200000F931F93CF93DF93B12CA12C00E06501B6
:1022100010E012C0FE01259134914F2D612F802FC7
:10222000C3DF2296F39486E0F812F4CF86E0C80E5E
:10223000D11C1F5F183039F0E601CC0FDD1FCB5DDC
:10224000DD4FF12CE7CF0F5F80E3A80EB11C043007
:10225000F1F6DF91CF911F910F91FF90DF90CF901A
:10226000BF90AF9008950F931F93CF93DF93843067
:1022700030F5683020F5463010F5C42FD0E0CC0F93
:10228000DD1F2CE0629FC00DD11D112430E6839F1D
:10229000C00DD11D1124CE0185960E945A32082FFF
:1022A00010E0102F0027CE0186960E945A32980126
:1022B000282BC901DF91CF911F910F91089590E0D4
:1022C00080E0F8CF462F672F783028F4463018F496
:1022D000843008F4C8CF80E090E00895B0E0A0E03A
:1022E000E4E7F1E10C9468317C0100913A038091BC
:1022F000FC02082BC3E0D0E010E0DC2EC8010C2E5D
:1023000002C0959587950A94E2F780FD09C0219750
:10231000A0F7D12C8D2DCDB7DEB7E7E00C9484313A
:10232000B7018C2FCFDF0E941807019781F3F2CFFE
:10233000CF93DF93D82FC92FD1DF6D2F7C2FC2DF32
:102340000E941807DF91CF910895FC0184818823B2
:1023500099F080819181ECDF282F92959F709630C3
:1023600091F060F4925F9F70923030F481E0203FF2
:1023700081F030F4283E30F080E004C09A5FF3CF63
:10238000243FD1F7089581E0283E20F0213FA1F7B6
:10239000F9CF08950895A6E0B0E0E1EDF1E10C94E5
:1023A0006C319C0186E0F901DE01119601900D92DD
:1023B0008A95E1F7F901258189819A81222389F0A3
:1023C000662379F08BDF182F682F89819A810E940C
:1023D000490869817A81812F75DF2696E3E00C94A4
:1023E00088310E941508182FF4CF809111038111B4
:1023F0000EC083EE93E00E945A3296EF980F9F3BF7
:1024000008F082E38093650181E08093110380915D
:10241000650108958091120381110EC082EE93E050
:102420000E945A3296EF980F9F3B08F082E3809308
:10243000660181E080931203809166010895809186
:10244000130381110CC081EE93E00E945A32883050
:1024500008F08EEF8093670181E0809313038091F1
:10246000670108958091140381110BC080EE93E001
:102470000E945A32883040F48093680181E0809352
:1024800014038091680108958E3FB1F383E0F4CF87
:10249000CF93DF93D82F0E948208C82FE3DF982FB5
:1024A00081E09C1380E00E94C308C9DF91E08C1397
:1024B00090E090932B038C1791F080912C03811165
:1024C0000EC08091310381110AC010923003109226
:1024D0002F0310922E0310922D0310922A038D2F9A
:1024E000DF91CF910895D4DF80933A03089521E0DE
:1024F00030E001C0220F8A95EAF7209580913A03D7
:102500008223F1CF909139038095892380933903F9
:10251000282F277061F4891751F09091FE0292FFE5
:1025200006C0869586958695E2DF10923903089558
:1025300021E030E001C0220F8A95EAF780913A034A
:10254000822BD1CFAB0124E630E0BC0188E70E94AA
:102550000E2F9C0181E0232B09F080E008958091EB
:10256000610390916403911103C091E0892708955C
:10257000882361F062E070E086EE91E0E3DF811194
:1025800003C08091610308951092610380916103FB
:10259000ECCFA5E0B0E0EFECF2E10C946D3180916E
:1025A00061038D83809164038823E9F00E94BB0559
:1025B000DC01CB01805A9541AF4FBF4F80935D0343
:1025C00090935E03A0935F03B09360038D818111AC
:1025D00007C062E070E084EE91E0B4DF811108C0D2
:1025E000809161038D838D812596E2E00C94893181
:1025F00081E080936103F4CFCF93DF93D82FC92F6D
:1026000080913A02811165C040E150E060E472E0DF
:102610008BE392E00E944A3280913B0290913C020F
:10262000C297873B934068F0EDE3F2E08EE0DF0174
:102630001D928A95E9F788EC90E090933C02809394
:102640003B0280913E028150873018F081E08093F8
:102650003E0280913F02909140028456910985325A
:10266000934130F08AE892E09093400280933F02D9
:10267000809141028150843618F08AE080934102B3
:10268000809143029091440201978E3F9F4FC0F08A
:102690008FE29AE0909344028093430280E39AE0B1
:1026A00090934602809345028FE298E0909348020F
:1026B0008093470280E398E090934A028093490216
:1026C000809142028F3F11F41092420281E0809388
:1026D0003A0280E1EBE3F2E0AD2FBC2F01900D92C6
:1026E0008A95E1F78D2F9C2FDF91CF910895A0E17E
:1026F000B0E0EDE7F3E10C946D31CE0101967CDFA3
:1027000089819A819C0122533109273B334010F083
:1027100088EC90E06096E2E00C94893120E1FC01C5
:10272000ABE3B2E001900D922A95E1F740E150E071
:1027300060E472E00C948A329091FE0292FB2227B0
:1027400020F9281771F080FB92F99093FE026091B6
:10275000FD027091FE0284E090E00E94863282E0E9
:10276000D1CE0895B0E0A0E0E8EBF3E10C9467313E
:10277000FA0169017801C82F880FDD0B3097B1F09D
:10278000DE0193E0AA0FBB1F9A95E1F7AF5FBE4F42
:1027900011968D919C91129781579D4F4C9150E0CD
:1027A000E417F50708F4AF010E944132CE010E9400
:1027B000D930182F8823D1F0E114F104B9F083E067
:1027C000CC0FDD1F8A95E1F7FE01EF5FFE4F4381DD
:1027D00050E0E416F50608F4A701CF5FDE4F6C81E8
:1027E0007D8161577D4FC6010E944132812FCDB757
:1027F000DEB7E8E00C948331A5E0B0E0E2E0F4E17C
:102800000C9465318D83E62E5A01F22E6801809179
:10281000ED028A3028F080E02596EAE00C948131C0
:102820008D818830C4F319828A836B832C8363E0A3
:1028300070E0CE0102960E943E068983E092290153
:10284000F0923C0110E000E030E020E044E050E095
:10285000BE016F5F7F4F84E085DF8823E1F24E2D5C
:1028600050E030E020E0B50185E07CDF882399F27C
:1028700030E020E041E050E0BE016B5F7F4F86E03A
:1028800071DF882341F20F2D10E0960150E040E007
:1028900070E060E087E066DFBFCFA5E0B0E0E3E591
:1028A000F4E10C946731009161030983109198025F
:1028B000C090E902D090EA02E090EB02F090EC02C6
:1028C0000E94BB05DC01CB018C199D09AE09BF0933
:1028D00084369105A105B10530F4812F90E011E017
:1028E00008171906C1F010E000E030E020E041E0F8
:1028F00050E0BE016F5F7F4F83E034DF182F8823E5
:1029000051F00E94BB056093E9027093EA02809344
:10291000EB029093EC02812F2596E8E00C94833132
:10292000A8E0B0E0E6E9F4E10C946731C090E5027C
:10293000D090E602E090E702F090E8020E94BB052A
:10294000DC01CB018C199D09AE09BF0911E0843669
:102950009105A105B10518F10E94E706DC01CB0144
:102960000296A11DB11D89839A83AB83BC8310E0BD
:1029700000E030E020E044E050E0BE016F5F7F4FB8
:1029800082E0F0DE182F882351F00E94BB0560938F
:10299000E5027093E6028093E7029093E802812FAC
:1029A0002896E8E00C9483318F929F92AF92BF9269
:1029B000EF92FF920F931F93CF93DF93CDB7DEB7C4
:1029C00029970FB6F894DEBF0FBECDBF7B0101E0A3
:1029D00010E09E012B5F3F4F50E040E070E060E070
:1029E00080E0C0DE182F882309F44EC08090E102F9
:1029F0009090E202A090E302B090E4020E94BB0536
:102A0000DC01CB0188199909AA09BB098436910513
:102A1000A105B10548F464E070E080E992E00E940D
:102A20003E069D81891781F104E010E09E012F5F31
:102A30003F4F50E040E070E060E081E093DE182F0F
:102A400064E070E080E992E00E943E0691E02D8112
:102A5000281390E0192331F10E94BB056093E10235
:102A60007093E2028093E3029093E40289819A8159
:102A7000AB81BC818093DD029093DE02A093DF02E4
:102A8000B093E00211E00EC080919002909191020B
:102A9000A0919202B091930289839A83AB83BC8305
:102AA0001111E4CF8091DD029091DE02A091DF024E
:102AB000B091E002F70180839183A283B383812FD9
:102AC00029960FB6F894DEBF0FBECDBFDF91CF9130
:102AD0001F910F91FF90EF90BF90AF909F908F90BC
:102AE000089528E030E043E060E086E30C94D52DC3
:102AF000CF93DF93D82FC62FF4DF8D2F80680E94ED
:102B0000E72D8C2F0E94E72D8AEB8A95F1F700C004
:102B10000E94172E83E492E00197F1F700C00000B5
:102B2000DF91CF910895682F893708F068E76093A7
:102B3000750191E09093760190916A01992349F093
:102B40006150811101C064E0683708F067E78FE0E9
:102B5000CFCF0895FB018081E6CF282F80917501AA
:102B6000811101C085E0022E000C330B820F932FE0
:102B7000911D1816190614F081E090E0D4CFACE056
:102B8000B0E0E5ECF5E10C9469314F835887698733
:102B90007A878B879C8780916A01882309F444C0D7
:102BA00080913502811106C060E080E5A1DF81E0FF
:102BB0008093350296DF80E50E94E72D0AEB0A95A7
:102BC000F1F700C00E94FF2D0E94FF2D0E94FF2DF3
:102BD0007C010E94FF2D60E0E62AF82A0E94FF2D6A
:102BE0008C010E94FF2D20E0022B182B0E94172E33
:102BF00025E02A95F1F70000F894B70180916D0166
:102C000090916E010E94990A90936E0180936D01DC
:102C1000B80180916F01909170010E94990A909380
:102C2000700180936F01789480916503882309F483
:102C300066C00E94BB05462F572FBC01809136020B
:102C400090913702A0913802B09139028A019B011C
:102C5000081B190B2A0B3B0BD901C8010897A105CA
:102C6000B10508F44CC0409336025093370260938C
:102C70003802709339028091780190917901A09186
:102C80007A01B0917B01481B590B6A0B7B0B4233D5
:102C900051056105710580F410926E0110926D016D
:102CA0001092700110926F011092720110927101D6
:102CB00010927401109273011091660320917701B4
:102CC000412FBE01695F7F4F8DE691E00E94D608DB
:102CD0002091770180916A01282741E04127BE01B8
:102CE000695F7F4F81E791E00E94D60886E0FE0190
:102CF0003796A2E8B1E001900D928A95E1F786E05F
:102D0000FE013796DE01119601900D928A95E1F74A
:102D100029813A814B815C816D817E8180E090E0E8
:102D20002C96E6E00C948531CF93C82FDADE8C2FF9
:102D30000E94E72D8FE792E00197F1F700C00000B5
:102D40000E94FF2DC82F95E09A95F1F700000E9490
:102D5000172E85E68A95F1F70000109235028C2F28
:102D6000CF910895CF93DF930E94442D269AB9DE28
:102D70006AE58AE3BDDE2FEF80E792E021508040D4
:102D80009040E1F700C0000082E0CEDF83E0CCDFBE
:102D900084E0CADF85E0C8DF86E0C6DF60E080E16E
:102DA000A7DE80E0C1DFD82F81E0BEDFC82F0E9400
:102DB000172ED23419F481E0C13009F080E081701F
:102DC00080936A01882319F064E08FE091DE81E04E
:102DD000DF91CF9108951F920F920FB60F92112499
:102DE0002F933F934F935F936F937F938F939F9313
:102DF000AF93BF93CF93DF93EF93FF93D091E9000D
:102E0000DF708091EC00C82FC17080FDC0E8109287
:102E1000E9008091F000877F8093F00078940E9411
:102E2000530C1092E9008091F00088608093F000CC
:102E3000CD2BCF70C093E900FF91EF91DF91CF913F
:102E4000BF91AF919F918F917F916F915F914F91C2
:102E50003F912F910F900FBE0F901F9018951F92CA
:102E60000F920FB60F9211242F933F934F935F93BE
:102E70006F937F938F939F93AF93BF93EF93FF9342
:102E80008091E10082FF09C08091E20082FF05C0CD
:102E90008091E1008B7F8093E1008091DA0080FFD8
:102EA00024C08091D80080FF20C08091DA008E7FFE
:102EB0008093DA008091D90080FFA9C080E189BDAC
:102EC00082E189BD09B400FEFDCF81E080937C03DF
:102ED00080917003811109C00E9454040E94F5047E
:102EE0008091E20084608093E2008091E10080FFA5
:102EF0001AC08091E20080FF16C08091E2008E7FB0
:102F00008093E2008091E20080618093E2008091F2
:102F1000D80080628093D80019BC85E080937C0340
:102F200083E08093A9018091E10084FF2FC080910C
:102F3000E20084FF2BC080E189BD82E189BD09B434
:102F400000FEFDCF8091D8008F7D8093D8008091C6
:102F5000E1008F7E8093E1008091E2008F7E80937C
:102F6000E2008091E20081608093E20080917D0325
:102F7000882309F452C084E080937C0380917C0311
:102F8000843009F452C081E08093A9018091E1006E
:102F900083FF2CC08091E20083FF28C08091E10074
:102FA000877F8093E10082E080937C0310927D0311
:102FB0008091E1008E7F8093E1008091E2008E7F1E
:102FC0008093E2008091E20080618093E20042E021
:102FD00060E080E00E94C3048091F00088608093EC
:102FE000F00081E08093A9018093A801FF91EF9107
:102FF000BF91AF919F918F917F916F915F914F9111
:103000003F912F910F900FBE0F901F90189519BCF4
:1030100010927C031092700368CF8091E30087FDCB
:1030200002C081E0A9CF83E0A7CF82E0ADCF789442
:103030001F921FB61F9211248F939F93AF93BF933C
:1030400080916C0390916D03A0916E03B0916F031A
:103050000196A11DB11D80936C0390936D03A09305
:103060006E03B0936F03BF91AF919F918F911F90AB
:103070001FBE1F9018952FB7F89480916C03909104
:103080006D03A0916E03B0916F032FBF0895A5E06B
:10309000B0E0EDE4F8E10C946131809164038823A1
:1030A00009F41DC120916203309163033A8329839F
:1030B000E2DF49815A81841B950BC29708F4E6C070
:1030C000DADF909363038093620385EC93E090933F
:1030D000CC058093CB0580916503882309F40EC14C
:1030E0008EEE91E00E94C70B88EB0E94420B80910C
:1030F00081010E94630A0E94420B89EB0E94420BED
:10310000809180010E94630A0E94420B8BEE91E045
:103110000E94C70B80917E0190917F0154E09695AB
:1031200087955A95E1F70E94630A0E94420B8091AD
:103130007E010E94630A0E94420B88EE91E00E9489
:10314000C70B88E891E00E9409108DE092E00E9490
:10315000C70B80918401082E000C990B0E946A0A0B
:103160000E94091080918501082E000C990B0E9485
:103170006A0A0E94091080918701082E000C990BA1
:103180000E946A0A0E94091080918601082E000C94
:10319000990B0E946A0A0E94091085E092E00E9441
:1031A000C70B80917501811101C085E090E00E94FC
:1031B0006A0A01960E94091081E092E00E94C70B02
:1031C00080917D01882331F0813009F48CC088EF33
:1031D00091E002C08EEF91E00E94C70B80917701D1
:1031E000882309F483C086E192E00E94C70B84EF34
:1031F00091E00E94C70B80917C01811101C084E0A5
:10320000805D0E94420B8CE192E00E94C70B61E05E
:1032100070E07A83698380913A03882309F469C056
:1032200090E0098002C0959587950A94E2F780FFA7
:1032300060C089810E94630A0E94420B89819A8141
:1032400001969A838983089731F780E20E94420BA6
:1032500089E192E00E94C70B80918F01882309F4D5
:103260004AC086E192E00E94C70B80919101909143
:1032700092016AE070E00E944931CB010E946A0A23
:1032800001960E94091080E30E94420B8091C303C3
:103290009091C403892B09F04DC08091610388236C
:1032A000F1F00E94BB0569837A838B839C838091B4
:1032B0005D0390915E03A0915F03B091600329814B
:1032C0003A814B815C81281B390B4A0B5B0BDA017D
:1032D000C9018F3F9F4FAF4FBF4708F440D9259694
:1032E000EEE00C947D318BEF91E076CF83E192E0BC
:1032F0007CCF80EBA1CF83E192E0B5CF90E99983B9
:10330000A981A051AD8382E292E00E94C70B8D811A
:10331000B82FBF5FBD830E94420B6D80298162126E
:10332000F6CF80E00E94D40B3981305F3983303C86
:1033300039F7ACCF80916403882309F4AECF809134
:103340005C038111AACF25D92091C3033091C40316
:103350002115310509F4A1CF80E041E050E0082FAC
:1033600010E0BA01082E02C0660F771F0A94E2F738
:103370007A83698362237323672B11F48F5FEFCF06
:1033800090915B0390FF97C0880F880F880F809300
:10339000A1011092A401895F8093A20183E0809330
:1033A000A50124E630E047E050E06FE971E088E7EE
:1033B0000E94CC2E892B09F070CFA80125E0440F84
:1033C000551F2A95E1F780915B0380FF86C0EBE3F0
:1033D000F3E080E2DF011D928A95E9F70AEF11E040
:1033E00086EFE82E81E0F82E97E0992E88248394CA
:1033F000D801ED918D01D7016D917D01640F752F7D
:10340000711D6B537C4FF0E0E55CFC4F30E020E039
:10341000792C721AA82C022E01C0AA0C0A94EAF781
:103420006B0190E0D6018D916D018A21A72DA91B1A
:10343000A770BA2E0A2E000CBB0B682E01C0660CBA
:10344000BA94EAF7B62CB195A195B109A770BB273C
:1034500001C08695AA95EAF7A62DA82B80818A2B14
:1034600080839F5F9830F1F62F5F3F4F3196283071
:10347000310571F621E00E3F120709F0B9CF04E6DD
:1034800010E020E230E04BE353E060E488E70E9484
:10349000532F892B09F001CF49815A8140955095CE
:1034A0008091C3039091C403482359235093C403CC
:1034B0004093C303F2CE8295880F80768093A1015A
:1034C000980136952795369527952093A401815E1E
:1034D0008093A2012093A50164CF4B535C4F04E677
:1034E00010E020E230E0D1CFA4E3B0E0EAE7FAE177
:1034F0000C94663180912703833009F07DC240919E
:1035000033035091340360913503709136038091F9
:1035100037039091380333DB209333033093340324
:103520004093350350933603609337037093380309
:1035300086E0E3E3F3E0DE01519601900D928A9577
:10354000E1F786E0FE017196DE015D9601900D9235
:103550008A95E1F786E0FE017D96DE0111960190E5
:103560000D928A95E1F786E0FE013196A3E3B3E080
:1035700001900D928A95E1F786E0E3E3F3E0DE0146
:10358000519601900D928A95E1F786E0FE017196C1
:10359000DE01939601900D928A95E1F786E0FE0197
:1035A000B396DE01119601900D928A95E1F786E0BF
:1035B000FE013196A3E3B3E001900D928A95E1F705
:1035C00086E0E3E3F3E0DE019F9601900D928A9599
:1035D000E1F786E0FE01BF96DE01579601900D925D
:1035E0008A95E1F7E9A8FAA81BA90CA980913103F3
:1035F000882309F4E4C020912F03309130032E0D6D
:10360000311DE7FC3A953093300320932F038091CE
:103610002D0390912E038F0D911DF7FC9A95909399
:103620002E0380932D0337FF03C031952195310977
:103630002D3031053CF497FF03C091958195910998
:103640000D972CF081E080932C0310923103198E9A
:103650001A8E1B8F0C8F86E0FE017796DE01519645
:1036600001900D928A95E1F7F12CE12CEB8AFC8A0E
:103670001D8B0E8B86E0FE017196DE0199960190FE
:103680000D928A95E1F7EBA6FCA61DA70EA786E092
:10369000FE01B996DE01579601900D928A95E1F7E9
:1036A000E98EFA8E1B8F0C8F86E0FE017796A3E3DE
:1036B000B3E001900D928A95E1F786E0E3E3F3E051
:1036C000DE01579601900D928A95E1F780918F0166
:1036D000882309F452C10091940110919501CBDC2B
:1036E00020919301801B910B2817190608F045C102
:1036F0000091960110919701BEDC9C01201B310BBB
:1037000089010E9477138017910708F036C1588D00
:103710002A8D8B8D9C8D30919B01498D340F309378
:103720009B0140919C01240F20939C0140919E019C
:10373000940F90939E0140919D01840F80939D0171
:103740004091690137FD3195431708F40AC127FDFF
:103750002195421708F405C197FD9195491708F482
:1037600000C187FD8195481708F4FBC081E0511125
:1037700001C080E08170809398010E946B061091D7
:103780003A03882309F406C110929B0110929C0110
:1037900010929D0110929E016EDC90939501809392
:1037A000940110929701109296018091900111114D
:1037B000DAC0882309F4E1C00E949812DEC080912B
:1037C0002C03811105C080912B03882309F4A8C024
:1037D00080912A03882369F0C0902803D0902903A0
:1037E0004ADC8C199D098F35914008F483C01092F2
:1037F0002A03C0902F03D0903003CE0CD11CE7FCDD
:10380000DA94D0923003C0922F0380912D039091CF
:103810002E039C012F0D311DF7FC3A957901309351
:103820002E0320932D030E940A12B82E0E94F51138
:103830002B2D30E0BC141D0494F0319521953109F5
:10384000C216D30664F0282F30E08E151F043CF01A
:10385000319521953109E216F3060CF0F8CECE0130
:1038600001960E94FC12D7FE03C0D194C194D108E6
:10387000F7FE03C0F194E194F108EC14FD040CF0A0
:1038800042C080912F0390913003EF84F88818167E
:10389000190614F0ED84FE84E114F104D1F095E0F2
:1038A000C92ED12C39E3E316F10419F480E5C82EB2
:1038B000D12CC7010E94F50F8FE99FE00197F1F726
:1038C00000C0000091E0C91AD108B1F7C7010E94F9
:1038D000700F1092300310922F0310922E0310924B
:1038E0002D0381E080932A03C6DB90932903809304
:1038F0002803ADCE1092300310922F0310922E03A6
:1039000010922D03A4CE80912D0390912E03EB8471
:10391000FC84181619060CF4BFCFE984FA84BCCFD6
:10392000812F802BD1F0CE0101960E94FC128B8159
:1039300084FD119585FF13C0802F8195E98EFA8E45
:103940001B8F8C8F96E0FE017796DE0151960190D9
:103950000D929A95E1F7082F89CE10E0EFCF802FD6
:10396000EDCF81E007CF212F30E0082E02C0359542
:1039700027950A94E2F720FF1FCF0E94D10A8111F8
:1039800038C080913203817010923203E496E9E0EE
:103990000C94823180919001111121C08111EDCFE1
:1039A000009194011091950166DB801B910B209191
:1039B00091013091920128173907F8F68091900112
:1039C0000E947712109295011092940110929B011F
:1039D00010929C0110929D0110929E01CECF212F3A
:1039E00030E002C0359527958A95E2F720FFC5CFD4
:1039F000D7CF81E090E0C7CF80E0C8CFA0E2B0E0B1
:103A0000E4E0FDE10C9463311A8A198AFE01739691
:103A100086E0DF011D928A95E9F784EEE82E81E0C9
:103A2000F82E10E000E0CC24C394D12C2EEEA22E70
:103A300021E0B22EF70181917F018F3F09F445C04B
:103A4000F894E82FE295EF70F0E021A18F70A601C5
:103A500002C0440F551F8A95E2F7CA01922F982B96
:103A600091A392A18095892382A3789400C0E8EE67
:103A7000F1E031E0912C21912F3F09F4BCC0A22F3D
:103A8000A295AF70B0E090968C9190E02F7002C03C
:103A9000959587952A95E2F780FDADC0832F982AEA
:103AA000330FAE16BF0639F7F701319780818F3F8C
:103AB00011F00E94CE0650EA5A95F1F7E1E1F0E0EC
:103AC000EC0FFD1FE00FF11F90820F5F1F4F0430BE
:103AD000110509F0AFCF48E050E0BE016F5E7F4FA7
:103AE00082EF92E00E9434329C01892B49F088E0F9
:103AF000FE017196A2EFB2E001900D928A95E1F776
:103B00000091FB0210E0075F1C4F232B09F475C0E6
:103B100081E080938502AFDA9093840280938302E0
:103B2000F12CE0906503EE2009F4C3C01A8E198EC3
:103B30001C8E1B8E8091ED028A3008F083C044ED0C
:103B400054E1BE01675E7F4FC8010E948410882344
:103B500009F49FC040E954E1BE01675E7F4FC80190
:103B60000E948410882309F494C04DE454E1BE01FE
:103B7000675E7F4FC8010E948410882309F489C0C2
:103B80001092ED028091FA0290E044E050E0BE0114
:103B9000675E7F4F875F9C4F0E94343221E0209305
:103BA0008E02892B09F067C0E12C809131038823B4
:103BB000E1F0CE0101960E94FC1209811A81C80130
:103BC000C297873B934010F008EC10E0C090880249
:103BD000D090890250DA8C199D090817190728F42A
:103BE00081E080932C03109231038E2D8F29A096B3
:103BF000ECE00C947F3180E052CFF0908502FF2002
:103C000009F48ECFC0908302D090840234DA8C19EC
:103C10009D09059708F484CF44E050E062EF72E01C
:103C2000C8010E943432892B59F084E0E2EFF2E0BF
:103C3000D80101900D928A95E1F71092850271CF1B
:103C4000F12CFBCFC0908602D090870214DA8C1939
:103C50009D09843F914008F072CF80918E028823A5
:103C600009F4A2CFFE01799684E0DF011D928A95C6
:103C7000E9F710928E02E091FA02F0E0E75FFC4F64
:103C8000898D9A8DAB8DBC8D80839183A283B38304
:103C90008CCF8091ED028F3F31F08F5F8093ED02EA
:103CA0008A3008F46FCFE7D9909387028093860219
:103CB000D4CFF80180819181A281B3818093900259
:103CC00090939102A0939202B093930264E070E00B
:103CD00080E992E00E943E0680938F0280909402D9
:103CE00090909502A0909602B090970280918A02DF
:103CF00090918B02A0918C02B0918D02881699064A
:103D0000AA06BB06B1F080928A0290928B02A09222
:103D10008C02B0928D020E94BB05861A970AA80AEF
:103D2000B90A8092EE029092EF02A092F002B09255
:103D3000F10280919802882319F00E94C91255CF90
:103D40000E94AF1252CFA0E1B0E0E9EAFEE10C948C
:103D500062317C01DC0114968C91882309F43EC108
:103D600061E0C7010E94CB118C0180918F018823F3
:103D700021F10032B2E51B0708F081C00115E2E530
:103D80001E0708F0C5C00115F0E51F0708F06CC05C
:103D9000011520E4120708F0D2C0011530E2130724
:103DA00008F0D5C0083E110590F5003E1105A0F1C0
:103DB00080919A0187FD10929A0110937F010093E0
:103DC0007E01D7018D919C911197909381018093F1
:103DD0008001F8013497E533F10508F0D0C0E357CE
:103DE000FE4FE49115968C9120EB811102C02E2F8D
:103DF000E0EBA8E8B1E090E080E03D913213B9C07B
:103E000086599E4FDC015E96EC93F80107C5C80108
:103E10009A9581159F4160F2D70114968C91882361
:103E200039F20730BEE71B0709F440C0C8018D5CBA
:103E300091094397D8F10E946B068111B9CFF70120
:103E40008581882359F08091900120913A032111B6
:103E500084C0882309F48AC00E94AC0A0CD99093CC
:103E6000970180939601A4CFC801E5E096958795C8
:103E7000EA95E1F78F7099272091900113C00038DF
:103E8000B2E51B07C0F40036E2E51E0708F040C0AB
:103E90000034F2E51F0708F08BCF20919001C80194
:103EA0008F7199272817190609F082CFF7018581AC
:103EB0000E9454067DCF003E22E5120710F5003C1B
:103EC00032E5130708F474CF20919001C8018F7177
:103ED00099272817190609F06BCFD70115968C91F1
:103EE0000E945406F7018681807F803509F060CFFB
:103EF00085818823F1F080919A01815080939A0105
:103F000057CFC801805E9245809708F451CF84CF87
:103F100020919001C8018F7199272817190609F07F
:103F200047CFD70115968C91811142CF0E9462062E
:103F30003FCF0E94620680919A018F5FDFCFD70149
:103F400016968C91807F19F4812F992793CFF701D2
:103F50008681807F09F42CCF5FCF30E0082E02C02D
:103F6000359527950A94E2F720FF76CF0E947712C5
:103F700073CF01968630910509F03FCF46CFF70108
:103F800085810031FEE71F0709F064C08823B9F17D
:103F9000CE0101960E94FC12888510923003109287
:103FA0002F0310922E0310922D0310922A038111D9
:103FB00019C081E080932C03109231038091390362
:103FC000877061F0D70115968C91882339F0809124
:103FD000FE0282FF03C082E00E9482126096EDE042
:103FE0000C947E3180935C0246D890938902809332
:103FF000880281E08093310310922C03DFCF8091FF
:1040000031038823C1F0D0905C0229E305E010E081
:10401000D21202C000E510E08D2D0E94840F8FE9BE
:104020009FE00197F1F700C0000001501109B9F7B6
:104030008D2D0E94390F10922C0310923103109293
:10404000300310922F0310922E0310922D03109222
:104050002A03B4CF980137572038310508F0D6C36A
:10406000882309F4ACC010E0D12CC12C011721F138
:10407000B0E9CB16B1E0DB0608F0A0CFC601805B4B
:104080009D4F0E945A3296012F5F3F4F882391F037
:104090009FEF980F923010F0843051F493E0C90EE6
:1040A000D11CA0E9CA16A1E0DA0640F31F5FDECFFB
:1040B0006901F7CF6901FACFE0E9CE16E1E0DE064B
:1040C00008F07CCFC601805B9D4F0E945A3284303D
:1040D00019F0833008F072CFC601805B9D4F0E94BB
:1040E0005A32B82E882309F469CF8FEF8B0D8230B6
:1040F00018F0F4E0BF1262CFC6018F5A9D4F0E94A4
:104100005A32182FC6018E5A9D4F0E945A3223E010
:10411000C20ED11C082F31E0B31220C065E0A62EDC
:10412000B12C0933110519F450E5A52EB12CC801A5
:104130000E94F50F8FE99FE00197F1F700C00000A2
:1041400091E0A91AB108B1F7C8010E94700FF0E917
:10415000CF16F1E0DF0608F4BFCF30CFA2E0BA12ED
:1041600013C0C8010E94F50FE0915B02E83078F7B8
:1041700081E08E0F80935B02F0E0EE0FFF1FE55BA6
:10418000FD4F11830083E3CFB4E0BB12E0CF0115F4
:104190001105E9F2EFE9FFE03197F1F700C0000007
:1041A00001501109F4CFE150E0935B02F0E0EE0F13
:1041B000FF1FE55BFD4F808191810E94700FE091B0
:1041C0005B02E111F0CFFACEE730BEE7FB0761F00A
:1041D000882309F432C3FE57E031F10508F02DC3FE
:1041E000E355FD4C0C94DE310E94C30826C380E0E9
:1041F0000E94931510927C0180E00E94C90A8AE80F
:1042000092E00E94BB0ADACE20917C0130918F01AE
:10421000809191019091920162E370E00E94493196
:104220008FEF860F90917D0160911503409175018C
:1042300020FB47F9522F56955370330F330F532BF2
:10424000282F220F220F220F522B660F660F6C733E
:104250009370692B70E08FE090E00E947E32AECECA
:1042600081E00E94AD15AACE8FEFFBCF8AE0F9CF97
:1042700086EFF7CF9091770181E089270E94C308EC
:104280009DCE80917C01811101C084E08F5F181662
:104290000CF081E0883008F087E080937C018ECEBE
:1042A00080917C01811101C084E08150F0CF81E0D8
:1042B00080937D0183CE10927D0180CE82E0F8CF85
:1042C00090918F0181E089270E94C90A77CE809161
:1042D000910190919201C296893EE3E09E0708F415
:1042E00090CF88EE93E08DCF8091910190919201D3
:1042F000C2978436910508F084CF84E690E081CFA0
:104300008823E1F10B35FCE71F0771F10C352CE731
:104310001207F1F00A353CE7130721F101309CE761
:10432000190751F10330ACE71A0701F101151C47D9
:1043300029F5109271030E94430CEFEFF4E32CE097
:10434000E150F0402040E1F700C000000E94AA05C3
:104350008091FE0282FB882780F991E089270E94E4
:104360009C132CCE81E0FBCF80E0F9CF6FEF7FEF85
:1043700090E080E00E9486320E94BD10F701C0806C
:10438000D180882309F44CC0C6010E946E11182FF9
:10439000682FC6010E944908B601812F0E94621150
:1043A0000E9418078C01882ED70115967C901597CE
:1043B0001696CC90C2942FE0C22280913903877068
:1043C00009F1972C7720F9F0812F807F803469F0F4
:1043D00080E2800F8830B0F0812F807E803229F417
:1043E000B1E0B01778F4CC2069F08091FE0282FF32
:1043F00009C082E00E94821280913903877099245B
:1044000093948111912C812F82958F70A82EB12CBD
:104410008C3008F069C0F501E354FD4C0C94DE319A
:10442000C6010E941508182FB7CFE12FEF70DE2EBE
:10443000107F19F0D29490EFD922802F7720B9F015
:10444000DD2069F090E2900F983010F0011109C062
:1044500080917103D82AD09271030E94050C802F9D
:1044600041C080917802D82AD0927802F6CF0E947B
:10447000390FDD20C9F1005E083010F0811004C052
:104480008D2D0E94030806C0D09480917802D82216
:10449000D09278020E94050C27C0F12FFF70DF2E0A
:1044A000107F103219F0D29480EFD822882051F07A
:1044B00021E0821609F45CC0772009F468C0CC20A2
:1044C00061F1CDCF8091FE0282FD23C07720D9F02B
:1044D000DD2039F080917103D82AD09271030E94B7
:1044E000050C80E00E94840F98E0A91AB108A4E0AE
:1044F000AA16B10408F072C10E942B0660E0C70141
:104500000E94CB116BCD80E00E94390FDD2061F35A
:10451000B7CF772099F0C11004C08D2D0E94300FC5
:10452000E3CF31E0C312E0CF809177029D2D982335
:10453000D916D1F2D82AD0927702D6CFC110D4CFD3
:104540008D2D0E942B0F909177028D2D892329F0BC
:104550008D2D809589238093770280915D029D2D1A
:10456000982309F4C1CFD094D822D0925D02BCCF59
:10457000772029F085E08C1508F4B6CFCECF94E0F3
:104580009C1508F4B1CF8D2D0E942B0FADCFCC2000
:10459000D1F3093309F01AC1AFEFB7EEE3E0A15050
:1045A000B040E040E1F700C00000802F0E94390FCA
:1045B0009BCF812F86958695837061F0813009F0BD
:1045C00093CFC8019370711002C080E090E00E9408
:1045D000DB058ACFC8019370711002C080E090E0C3
:1045E0000E94030681CF672D802F0E942C0B7CCF69
:1045F000812F837091F5711077CF402F42954695AA
:104600004770440F440F802F8F70042E01C0880F15
:104610000A94EAF7202F207104FF07C02FE030E052
:1046200001C0220F4A95EAF720951695169513704A
:10463000123071F0133051F03091FC02113029F03A
:10464000822B83230E947F084FCF832B822BFACFAC
:10465000282B8091FC028227F5CF8695772011F0D8
:10466000812F8170882309F43FCF402F42954695D2
:104670004770440F440F802F8F70042E01C0880FA5
:104680000A94EAF7202F207104FF07C02FE030E0E2
:1046900001C0220F4A95EAF72095169516951370DA
:1046A000123071F0133051F030913A03113029F08B
:1046B000822B83230E94731217CF832B822BFACF76
:1046C000282B80913A038227F5CF1F70772029F09D
:1046D000812F0E949812802F21CF802F0E942B0FB4
:1046E000812F0E94771200CF802F92EF8916B1F1AF
:1046F000981570F0A0EF8A16D1F0B1EF8B1691F0FB
:10470000772009F457C0C110AACE812F8F712AC01B
:10471000E3EF8E1651F1F4EF8F12F2CF9091FE027B
:1047200092FD2FC0812F8F717720D9F21BC0772087
:1047300081F024E02C1508F4D7CE1F7181E090E0C1
:10474000012E01C0880F0A94EAF790913A03892755
:10475000B1CF35E03C1508F4C7CEEFCF812F8F7174
:104760007110BFCF0E949812BFCE80E0772009F46D
:10477000A1CF1F7181E0012E01C0880F0A94EAF7D2
:1047800099CF772061F0812F8F7192FFEBCF98E066
:10479000899F90011124236020933903E3CF81E0A6
:1047A0000E948212A1E0AC1508F09ECE82E00E9429
:1047B00082129ACECC2079F0893341F4BFEFE7EE34
:1047C000F3E0B150E040F040E1F7EDCE8FE19EE440
:1047D0000197F1F7E8CE812F8F7183CF992009F4EB
:1047E0008DCE8091390380FD89CEF70115828695A3
:1047F000869586950E949812C701A5DA80913903A3
:104800008695869586950E94771278CEC8019A95EE
:1048100081159F4108F0F9CAF801FF27D7011596C5
:104820008C91E93DF10508F0CFCCE13DF10508F4AC
:10483000CFCC682F8E2F0E942C0BD70115968C9110
:104840009801205E32452032310508F059CD8111A2
:1048500069CD0F7181E090E0FC0102C0EE0FFF1FF7
:104860000A95E2F78F016E2F83E090E00E946C3290
:10487000802F0E947F08A2CBB0E0A0E0E2E4F4E247
:104880000C94683180917602807F09F050C080914D
:104890007502882309F44BC0E091BF0387E0D82E4E
:1048A000809186038E1709F442C00E2F10E0ED9D13
:1048B000F0011124E957FC4F84818823E9F1D09E4F
:1048C000E001D19ED00D1124FE01E957FC4F9181EA
:1048D00080917102981330C090818091700298137A
:1048E0002BC08581811128C0E280F3808091720203
:1048F00090917302E81AF90A60E080E792E00E9462
:10490000CB110E947713E816F906B0F48091760275
:104910008F70806180937602C357DC4F88818F70DF
:104920008061888380E792E00EDA0E940B08CDB7A1
:10493000DEB7E7E00C948431F8013196E770B0CF30
:10494000A6E1B0E0E6EAF4E20C9460318C0186E086
:10495000F801DE01519601900D928A95E1F7D80198
:104960001496FC9014971596EC9080E7882E82E0C0
:10497000982E80917402811128C0F11003C0FF2489
:10498000F3941BC0EE20F1F0C8010E94A511F82E8F
:104990008823C1F087E0F801A0E7B2E001900D9212
:1049A0008A95E1F780917402813031F48091700230
:1049B000909171020E9498115FDF8F2D6696EFE053
:1049C0000C947C31C801BFD9DACFF801A0805180A6
:1049D000C280D38060E080E792E00E94CB11B0906B
:1049E00075028091720290917302BB2009F4C6C0D7
:1049F0003601681A790A60E080E792E00E94CB11E4
:104A00000E9477136816790608F099C0FF2009F410
:104A1000B6CF80917602382F307F20917102D80175
:104A200011969C91119731114CC0FE2C291313C083
:104A3000209170029C9129130EC0E1101CC18F704F
:104A400080618093760280E792E07DD98091760242
:104A5000F8018683B2CFE1100EC1652D8A2D0E9428
:104A60003604882309F4E6C0CE0101960E94FC12A8
:104A70008B8182FFDFC080E792E065D987E0E0E7C5
:104A8000F2E0DF011D928A95E9F7F12C96CF2A5FBB
:104A90002F70223070F0C80156D9EB2CEAC0992350
:104AA00019F0882309F4E5C0805E883008F4E1C07D
:104AB000F2CF803F08F4DDC0815F833008F4D9C0B5
:104AC000EACF291315C0209170029C91291310C0C0
:104AD000E1100EC016968C93C80135D987E0F80115
:104AE000A0E7B2E001900D928A95E1F7FB2C65CF2B
:104AF000C8010E94A511882309F464CFEE2009F4AF
:104B000061CF80917602803280F0209170023091E6
:104B100071023A832983DC82CB82909174029D8357
:104B20001E828F83CE0101960ED987E0F801A0E79F
:104B3000B2E001900D928A95E1F79EDE20CF809140
:104B40007602982F907F09F496CFFF2009F417CFB3
:104B500020917102F80191812913CACF209170022E
:104B600090812913C5CFE110C3CF8683C801EBD84C
:104B700087E0D4011D928A95E9F7B8CF5601A81AAB
:104B8000B90A60E080E792E00E94CB110E9477139F
:104B9000A816B90608F048C0FF2009F4F0CEFE2C94
:104BA000EE2009F40FCF90917102F80181819813E2
:104BB0002EC0909170028081981329C0809172025A
:104BC00090917302C81AD90AF8ECCF16D104B0F448
:104BD0008091760280FD12C0982F907F79F0D801E5
:104BE00016968C931697903F39F0982F907F905F90
:104BF0008F70892B16968C93C801A5D887E0F80191
:104C0000A0E7B2E001900D928A95E1F7D6CEC801F7
:104C10000E94A511811189CF8091760281608093D5
:104C20007602C80190D8C9CE87E0F40111928A9526
:104C3000E9F72BCF652D8A2D0E943604E82E8111CD
:104C4000BCCEA98A5A8A89899A890E949811292FEB
:104C500022952F70903408F01ACF9F70223008F4FC
:104C60001ECF992309F420CFF8019681907F09F097
:104C70001BCFFE2CA2CE80917602816080937602BB
:104C800004CFABE1B0E0E7E4F6E20C946C314E8B7C
:104C90005F8B688F798F8A8F9B8F9111109278022A
:104CA0001D8A86E0FE017696DE011F9601900D9228
:104CB0008A95E1F78B89882351F061E0CE010F9648
:104CC0000E94CB1161E0CE010F960E94CB1187E0CC
:104CD000FE013F96DE01189601900D928A95E1F74C
:104CE000CE0108962DDE81110CC087E0FE013896BA
:104CF000DE01119601900D928A95E1F74C854111E4
:104D00000BC017E08091BF0390918603891334C0D4
:104D10006B96E3E00C9488312091860330E0C90162
:104D20000196877099275091BF0358171906A1F073
:104D30004D8397E0929FD001939FB00D1124A95706
:104D4000BC4FFE01319601900D929A95E1F7809348
:104D500086030E940B08D5CF109271030E94430C6A
:104D6000109286031092BF0387E0E0E7F2E0DF01D4
:104D70001D928A95E9F7C5CF819FC00111248957FB
:104D80009C4FDEDD882321F28091BF0390E00196E5
:104D9000877099278093BF03B5CFA6E0B0E0E3ED1D
:104DA000F6E20C946B310E943B188C0180918102D9
:104DB000909182028017910779F019821A820E94DD
:104DC0003B18682F49815A81792F80E090E059DFA4
:104DD00010938202009381022696E4E00C948731BE
:104DE0001F921FB61F9211248F939F93AF93BF936F
:104DF00080916B03811113C080916C0390916D03BE
:104E0000A0916E03B0916F034196A11DB11D8093D7
:104E10006C0390936D03A0936E03B0936F03BF91E7
:104E2000AF919F918F911F901FBE1F901895CF93A8
:104E3000DF93EC010E943B188C1B9D0BDF91CF91FF
:104E40000895CDB7DEB7C655D1090FB6F894DEBFC9
:104E50000FBECDBF85B7806885BF85B7806885BF29
:104E600084B7877F84BF0FB6F894A89580916000BF
:104E7000886180936000109260000FBE80E890E02F
:104E80000FB6F89480936100909361000FBE81E0AB
:104E90008093A9018EE996E090930F0280930E0211
:104EA0000E9454040E94F5048091E2008460809383
:104EB000E200789480917C038823A1F01091E900AE
:104EC0001F709091EC00892F817090FD80E8182B65
:104ED0001092E9008091E80083FD0E94530C1F703E
:104EE0001093E90082E084BD93E095BD9AEF97BDF1
:104EF00080936E001092EE021092EF021092F00278
:104F00001092F10288EC90E02091E300122F111F23
:104F10001127111F27FD0CC0AFE3BCE91197F1F772
:104F200000C00000019781F70E94540410927C0396
:104F30001093650325982D9A869A8E98B5E0BA95B8
:104F4000F1F7000083B185FB882780F986988E9A57
:104F5000E0EAEA95F1F7809366038093000180917F
:104F6000650381110E94F52F80910001809100015D
:104F700094E0811190E09093FB0284E0891B809380
:104F8000FA0284EF0E94CE0685EF0E94CE0686EFDD
:104F90000E94CE0687EF0E94CE0608EE11E0D801EF
:104FA0008D918D018F3F11F00E94CE06B1E00E3E33
:104FB0001B07A9F788E0E9E0F3E0DF01082F1D9265
:104FC0000A95E9F7E2EFF2E0DF011D928A95E9F731
:104FD00090E080E00E946732833E9E4F49F163EE8D
:104FE0007EEF90E080E00E94863260E082E090E018
:104FF0000E946C3281E08093FC0261E083E090E0EB
:105000000E946C3260E074E184E090E00E9486329D
:105010000E94FB1040E050E0BA018FE090E00E9457
:105020007E3240E050E0BA0183E190E00E947E329F
:1050300082E090E00E945A328093FF0284E090E088
:105040000E9467329093FE028093FD0283E090E01D
:105050000E945A320E947F0880913A030E944812AF
:1050600080916503882309F477C180E080935B0316
:1050700080E88093C2035BD66BE070E089ED91E03D
:105080000E94A212882309F445C080915B0365E069
:1050900070E081FD63C184ED91E00E94A21288233B
:1050A000C9F16DE070E082EC91E00E94A2128823C9
:1050B00089F10E94BB0565966CAF7DAF8EAF9FAF47
:1050C0006597DC01CB01805A9541AF4FBF4F80936C
:1050D0005D0390935E03A0935F03B0936003E5ECE0
:1050E000F3E080E092E0DF018C011D92015010405E
:1050F000E1F7F093CC05E093CB058FEF9FEF909312
:10510000C4038093C30381E08093640380936103AD
:1051100010925C0380916503811101C069D70E94E0
:10512000B216882309F41DC183E080932703809180
:10513000650381112EC085E896E090934801809325
:1051400047012EE030E030934301209342018EE28C
:1051500090E090934601809345014AE856E05093D1
:10516000500140934F0130934B0120934A0190939B
:105170004E0180934D014AEA55E150935801409306
:10518000570130935301209352019093560180931D
:10519000550190E080E00E946732833E9E4FC9F542
:1051A0008FE090E00E946232F62E172F082F862F94
:1051B0008F770E949315FF1CFF24FF1C612F6370E3
:1051C000660FF62AF0927C0112FB882780F90E9474
:1051D000C90A812F887F09F4C6C0169516951695C1
:1051E000212F30E02F5F3F4F42E3429FC001439F9A
:1051F000900D11240E94BB0A802F837080937D0143
:10520000802F869586958F708B3008F08AE080938A
:105210001503CE0101960E94FC128C8190919001A1
:10522000891721F0809390010E94AC0A8D819E81A4
:105230000E94BB0A8B8186FB882780F991E0892731
:105240000E94C90A8F818093690189E591E090935A
:10525000C1038093C00389E093E028E0280F67969C
:105260002FAF67976E0133E0C30ED11C7724739480
:1052700080917C0310E400E142E1F42E853009F4D2
:10528000B0C00E94FE1C30E0E32E33E0F32E09E0B4
:1052900013E08EEE91E063969FAF8EAF6397BC01F3
:1052A0009801F7019191D9018D919D01DB014D91FB
:1052B000BD018423B3E0E830FB0709F49EC09817D2
:1052C00089F3E09165036696EFAF66979EEEA92E8F
:1052D00091E0B92E29E0822E23E0922E512CD401A8
:1052E0006D904D01F50181915F016822D7012D90EC
:1052F0007D01261441F12624412C33243394822D40
:105300008321C9F06696BFAD6697BB23A1F04982A1
:105310005A820E943B189C838B83E1E0ED8391E0ED
:10532000862D832109F490E09E8349815A816B8107
:105330007C818D81A6DC4394330CF6E04F12DFCFE5
:10534000F70131976082539428E05212C8CF0E942F
:10535000E706FF24F39455C082E088CE8FEC91E0FD
:105360009CCE81E0E2CE8AE892E044CF80917C033B
:10537000843039F10E94AF120E94741A10926B03AC
:1053800048E150E00FB6F894A895409360000FBE36
:105390001093600083B7817F846083BF83B781608F
:1053A00083BF7894889583B78E7F83BF0FB6F894B8
:1053B000A8958091600088618093600010926000E1
:1053C0000FBE0E94FE1CAEEEB1E0E9E0F3E0819179
:1053D0009D91892309F03BC367965FAD67975E1384
:1053E000F6CF80917C03853009F4C0CF1092710311
:1053F0000E94430C0E942B0644CF981362CFCDDC51
:10540000F12C0E94741A882339F00E94E7060E944A
:1054100047180E94C91204C00E944718F110F9CF22
:105420000E942B0690910803891721F080930803AE
:105430000E94BB0580917C03843009F4B7C0809141
:105440006503882309F414CF0E94BB05462F572F0C
:10545000BC0180911C03811144C08091180390917C
:105460001903A0911A03B0911B038A019B01081B29
:10547000190B2A0B3B0BD901C801843F9140A105B0
:10548000B10578F1409318035093190360931A0300
:1054900070931B03809116039091170301969093CC
:1054A00017038093160319828E010F5F1F4F21E0AF
:1054B00050E040E060E088E00E94FC13811106C0EB
:1054C00080911603909117030A975CF081E0809316
:1054D0001C0380936B019981911101C080E080933E
:1054E0006C0180916C01882309F4C0CE0E94BB0539
:1054F0004B015C0180911D0390911E03A0911F033D
:10550000B0912003A5019401281B390B4A0B5B0BBA
:10551000DA01C9010497A105B10580F119821A8247
:105520001B821C828E010F5F1F4F24E050E040E081
:1055300060E089E00E94FC138823C1F069817A81D0
:1055400080917101909172010E94990A9093720169
:10555000809371016B817C818091730190917401C2
:105560000E94990A909374018093730180921D03A5
:1055700090921E03A0921F03B092200380917601A7
:10558000882309F473CE80917501898310E000E0CF
:1055900020E0AE014F5F5F4F61E08AE00E94FC13A4
:1055A000882309F463CE1092760160CE83E0809365
:1055B000E9008091E80082FF42CF8091E80090E00E
:1055C00085FF05C00E9473048823D1F091E080918B
:1055D000E8008B778093E800992309F430CF1A8292
:1055E00019828EE1F60111928A95E9F7E9A1E98322
:1055F000E150E73108F027C2F0E0E753FD4CDEC68A
:1056000080E2A82EB12C7E0131E2E30EF11C8091E4
:10561000E80085FD0AC08091E8008B778093E80060
:105620000E947304882399F3D1CF8091F100D701B0
:105630008D937D01B1E0AB1AB10849F7C7CF8BE874
:105640008A8384E08B8388E08C8386E08D837E82EE
:105650001F82CE0101960E942804F1CEFAA00BA170
:105660001CA1412F602F8F2D0E943311FA820B83D2
:105670001C839827892798279E838D83E9CF2DA1A6
:105680003EA13227232732274CA16BA18AA10E9479
:10569000D4101A82DECF8FE090E014D7862F8F7758
:1056A0008A83661F6627661F7370770F762B7B834E
:1056B00080917D018C831D82CCCFFAA01BA10CA10F
:1056C0008FE090E0FFD6272FBC014F2D10FB47F94C
:1056D000912F96959370522F5C7F592B033020F4B5
:1056E0008C7F602F6370682B8FE090E007D78F2D41
:1056F0000E949315183008F017E010937C010330D6
:1057000040F600937D01C5CF8FE090E0DBD6AB0182
:10571000BC018FE090E0F2D6BCCF0E94FB10B9CF65
:10572000809115038A831B8294CF1AA11B3008F045
:105730001AE0109315038FE090E0C4D6AB01792FE7
:10574000212F2F70220F220F837C682F622BE1CF35
:10575000CE018F5B9F4F0E94FC1227968EAD9FADAE
:10576000279798278927982723962EAD3FAD239713
:105770003227232732273B832A8324962FAD249771
:105780002C8325962FAD25972D839F838E83289676
:105790008FAD2897888719860E9432128A8759CF41
:1057A000CE018F5B9F4F0E94FC128AA19BA198277C
:1057B0008927982723969FAF8EAF23978CA1249695
:1057C0008FAF24978DA125968FAF25978EA19FA18E
:1057D00098278927982727969FAF8EAF279788A568
:1057E000811101C08AE028968FAF2897CE018F5B88
:1057F0009F4F0E948E1369A5683008F06EEF60938A
:1058000068017092140380EE93E08DD625968FADDB
:10581000259790919001891721F0809390010E9423
:10582000AC0A27968EAD9FAD27970E94BB0A24969F
:105830008FAD249786FB882780F9F1E08F270E949F
:10584000C90A28968FAD28978093690122CFCE018F
:105850008F5B9F4F0E94FC122B968EAD9FAD2B97B6
:105860009827892798279B838A832D968EAD9FAD95
:105870002D979827892798279D838C832F968EAD07
:105880009FAD2F979827892798279F838E836196AE
:105890008EAD9FAD6197982789279827998788872C
:1058A0001A8629968FAD29978B870E941F128C87A5
:1058B0000E940A128D870E94F5118E87CACECE01F2
:1058C0008F5B9F4F0E94FC128AA19BA1982789277A
:1058D00098272B969FAF8EAF2B978CA19DA19827D1
:1058E000892798272D969FAF8EAF2D978EA19FA1C8
:1058F0009827892798272F969FAF8EAF2F9788A537
:1059000099A598278927982761969FAF8EAF6197B1
:105910008AA529968FAF2997CE018F5B9F4F0E9452
:105920008E136BA5683008F06EEF6093670170927C
:10593000130381EE93E0F7D56CA586EF860F8F3BBE
:1059400008F062E3609366017092120382EE93E0C6
:10595000EAD56DA586EF860F8F3B08F062E3609372
:1059600065017092110383EE93E0DDD592CE7A82C9
:105970001B821C82A0CE1A82CE0101960E942804AE
:105980000FEF19E628E1015010402040E1F700C078
:1059900000000E94AA0588E08A83F601D8018D9153
:1059A0008D016396AEADBFAD63979D916396BFAF1A
:1059B000AEAF639789238193B3E001311B0771F781
:1059C0001B8647CE6AA17BA17627672776278BA106
:1059D0009AA19A838B83CE0104966039E1E07E0719
:1059E00038F02CE1DC011D922A95E9F718A231CE9E
:1059F0009B01245E3F4F40E9461B2139314008F4AA
:105A00004CE150E0605B7D4F45D5F0CF6AA17BA1B2
:105A10007627672776276039E1E07E0708F039CEE0
:105A20004CA14D3108F04CE1CB01840F911D81391F
:105A3000914010F040E9461B50E0605B7D4FCE0185
:105A4000859668D526CE8FEF89837A8202CE8091A3
:105A50007B03882309F4C5CC09BDF9BC09B400FE59
:105A6000FDCF8091D8008F7D8093D8008091E00099
:105A700082608093E0008091E00081FDFCCF109275
:105A800071030E94430CADCC289A219A229A239844
:105A90002B9880E58CBD0895FC018091AB018F3F70
:105AA00009F081C080818F3F09F47DC01092CE053E
:105AB0008181882319F080E28093CE0592818091C4
:105AC000CE05923009F449C0933009F44AC084608D
:105AD000913009F443C08381948121E030E028179C
