:100000000EC5000029C5000027C500000C94C532AC
:1000100023C5000021C500001FC500001DC500004C
:100020001BC5000019C500000C947B1A0C94371AEC
:100030000C94142911C500000FC500000DC5000067
:100040000BC5000009C5000007C5000005C500007C
:1000500003C500000C94631BFFC40000FDC4000036
:10006000FBC40000F9C40000F7C40000F5C40000A0
:10007000F3C40000F1C40000EFC40000EDC40000B0
:10008000EBC40000E9C40000E7C40000E5C40000C0
:10009000E3C40000E1C40000DFC40000DDC40000D0
:1000A000DBC40000D9C40000D7C400000501090268
:1000B000A10185020901A1000509190129081500FE
:1000C0002501950875018102050109300931158165
:1000D000257F95027508810609381581257F9501D0
:1000E00075088106050C0A38021581257F95017572
:1000F000088106C0C005010980A101850319012AF4
:10010000B700150126B700950175108100C0050CD8
:100110000901A101850419012AA002150126A002E6
:10012000950175108100C00660FF0961A101096297
:10013000150026FF00952075088102096315002629
:10014000FF00952075089102C005010906A101056F
:100150000719E029E7150025019508750181029529
:1001600001750881010507190029FF150026FF0008
:100170009506750881000508190129051500250156
:10018000950575019102950175039101C061626346
:100190006465666768696A6B6C6D6E6F70717273A7
:1001A0007475767778797A31323334353637383931
:1001B00030524542545F2D3D5B5D5C233B27602CF4
:1001C0002E2F00DA0281FFD9F1DB20A4A62EAF008A
:1001D000A0C0D30000A1C8D30000AED580A81F40A6
:1001E0008D142000783C1E1E140A05000101010137
:1001F00001010101010202020202020202020303E2
:1002000003030303030304040404040404050505B1
:100210000505060606060607070707070808080873
:10022000090909090A0A0A0B0B0B0C0C0C0D0D0D20
:100230000E0E0E0F0F0F10101111111212131314B6
:1002400014151516161717181819191A1A1B1B1C2E
:100250001D1D1E1E1F202021222223242425262688
:10026000272829292A2B2C2D2D2E2F3031323233BD
:100270003435363738393A3B3C3D3E3F40414243C6
:100280004445464748494A4C4D4E4F5051535455AA
:100290005658595A5B5D5E5F616264656668696B5A
:1002A0006C6D6F7072737577787A7B7D7E808283D8
:1002B0008587888A8C8E8F91939596989A9C9EA01C
:1002C000A2A3A5A7A9ABADAFB1B3B5B7BABCBEC029
:1002D000C2C4C6C9CBCDCFD1D4D6D8DBDDDFE2E4F2
:1002E000E7E9EBEEF0F3F5F8FAFDFF2223252628E7
:1002F000292A2C2D2F3032333536383A3B3D3E40BB
:1003000042434547494A4C4E5051535557595A5C00
:100310005E6062646668696B6D6F71737577797B17
:100320007D7F81838587898A8C8E90929496989A16
:100330009C9E9FA1A3A5A7A8AAACAEAFB1B3B4B62B
:10034000B8B9BBBCBEBFC1C2C3C5C6C7C9CACBCC86
:10035000CDCED0D1D2D2D3D4D5D6D7D7D8D9D9DA59
:10036000DADBDBDBDCDCDCDCDCDDDDDDDDDCDCDCCE
:10037000DCDCDBDBDBDADAD9D9D8D7D7D6D5D4D3F6
:10038000D2D2D1D0CECDCCCBCAC9C7C6C5C3C2C1CB
:10039000BFBEBCBBB9B8B6B4B3B1AFAEACAAA8A728
:1003A000A5A3A19F9E9C9A98969492908E8C8A89E0
:1003B000878583817F7D7B79777573716F6D6B69BD
:1003C00068666462605E5C5A5957555351504E4C92
:1003D0004A4947454342403E3D3B3A383635333241
:1003E000302F2D2C2A29282625232200AF00AE20CD
:1003F0002000BABB004B657920B10020C0C100BE0F
:10040000BF00484F005654003030200020202020EC
:10041000B1BCBD0042616C6CB100B4B500B2B300B8
:10042000C2C3004CB6B772B1002020001300120006
:100430000C0018001C0000002D430F000E000D41A1
:100440000B00000038423700360010001100000099
:100450008702000000002A422A42284114001A00A4
:10046000080015001700000004001600070009002E
:100470000A0000001D411B000600190005000000D5
:10048000E100E300E20091432C00904227002600A7
:1004900025002400230000004300420041004000EA
:1004A0003F0000002E022F0031003000330000001A
:1004B000890000000000D100010001001E001F00A3
:1004C00020002100220000003A003B003C003D00DB
:1004D0003E0000002E0025023000310034000000F4
:1004E00001000100010029002B004C000000000069
:1004F000D3000000000000002352D2005200D100BF
:100500000000000000004F005100500000000000FB
:100510000000000000002A000100010054005F00FC
:10052000600061005600000055005C005D005E0048
:1005300057000000620059005A005B006300000091
:1005400001000100010001000100010056006100EE
:1005500060005F005400000057005E005D005C001A
:100560005500000063005B005A0059006200000063
:10057000000000000000D2000100010000000000A7
:10058000000000000000000004011601070109013D
:100590000A0100001D011B010601190105010000EF
:1005A00001000100010001000100010009025B00DF
:1005B000030100A0FA090400000103010100092160
:1005C00011010F01224400070581030800010904FD
:1005D0000100020300000009211101000122220094
:1005E0000705820320000107050303200001090419
:1005F00002000103000000092111010F01227B000C
:1006000007058403200001120100020000000857C2
:1006100059000200010102000114034B006500793A
:1006200000620061006C006C0033003900000010B3
:100630000359006F0077006B0065006500730000D0
:10064000000403090400000000000000002F000067
:1006500000000700070000123F123F1200242A7F0B
:100660002A120036091E241B001826291228000011
:100670000007000000001E214000000040211E0075
:100680000014083E08140008083E08080000003066
:100690007000000808080808000000303000002042
:1006A000100C0201001E2925231E0000223F2000FD
:1006B00000223129292600122125251A001814129A
:1006C0003F10001725252518001E25252518000197
:1006D00031090503001A2525251A00062929291E96
:1006E00000000033330000000033730000081414CE
:1006F00022220014141414140022221414080002DC
:1007000001290502003E59555D3E00381611163884
:10071000003F2525251A001E21212112003F2121FD
:10072000211E003F25252521003F09090901001E42
:100730002121291A003F0404043F0000213F210029
:1007400000102020201F003F040C1221003F202019
:100750002020003F0204023F003F020C103F001E19
:100760002121211E003F09090906001E2129112E01
:10077000003F090919260012252529120001013F11
:100780000101001F2020201F000718201807000F5C
:10079000300C300F0021120C122100030438040326
:1007A00000312925232100007F4141000001020C76
:1007B0001020000041417F000004020102040040BB
:1007C0004040404000000103040000102A2A2A3C57
:1007D000003F2422221C001C22222224001C222250
:1007E000243F001C2A2A2A0C0000043E0505000CA8
:1007F0005252543E003F080404380000003D0000FF
:10080000002040403D00003F080814220000013F46
:100810002000003E023C023C003E0402023C001C60
:100820002222221C007E1422221C001C2222147E62
:10083000003E0402020400242A2A2A120000021F99
:100840002200001E2020103E000618201806000E70
:10085000300C300E002214081422000E5050483E76
:100860000022322A26220008087741410000007F3A
:10087000000000414177080800180408100C00002F
:100880000000000000000000000000000000000068
:1008900000C0F0F88C86C6E7FFFFFFFFFFFFFEFCFD
:1008A000FCF8E080000000F0F0F00000C0E0F07024
:1008B00070000000000000000000000000000000C8
:1008C00000000000000000F8F8F800000000000040
:1008D00000000000000000000000000000F8F8F830
:1008E0000000F8F8F8000000000080E07078686C04
:1008F00064C7C7C7C7C7C7E73F1F0F3FFFFFFFFF5B
:10090000FFFF3F0F000000FFFFFF1E3FFFF3E180EE
:100910000000F8FCFE3636363EBCB8000E3EFEF057
:1009200080F0FE3E0E0000FFFFFF060606FEFEFC06
:100930007000E6F6F63636FEFEFC000000FFFFFF14
:100940000000FFFFFF000000003C7F6360E0C0C0CC
:10095000C0C0C0C0C0C0FFFFC06030180F03030399
:100960000100000000000003030300000003030374
:100970000300010303030303030301007070393F05
:100980001F07010000000001030303030303030129
:10099000000001030303030303010000000303033A
:1009A00000000303030010101000000000550000B9
:1009B000003E635D5D637F417B77413E00001C220A
:1009C000221C003E0A003E0A00322A3C0026281E55
:1009D000001C2A2C0000003F09360000001E2121C7
:1009E00000000000003F0837001E2121001E2121C9
:1009F000003F090600213F2100222519001E212168
:100A0000003F0936003F211E00213F21000F300F1B
:100A1000003E093E003F063F003F20200000112419
:100A20001FBECFEFDAE0DEBFCDBF12E0A0E0B1E045
:100A3000E6E7FBE602C005900D92A432B107D9F7B4
:100A400026E0A4E2B2E001C01D92A437B207E1F7AC
:100A50000E9445290C947135D3CA80918F01811170
:100A60001DC088E1909190019923D1F0909191015E
:100A7000911118C098E120916604211115C0292F09
:100A800020938A0180938B01890F8F3230F410926A
:100A90008C0180938D0180938E01089586E1E2CFD1
:100AA00090E0E9CF96E1E7CF20E0EACFE091630460
:100AB000F0916404309739F00284F385E02D30978B
:100AC00011F060E209950895982FE0915A04409141
:100AD000210457E0E41302C080E008952E2F30E097
:100AE0005E9FF0011124EE5DFB4F8181681306C00B
:100AF0008081981303C085818111EFCFF901319670
:100B0000E770E8CFE8EDF0E080818E7F808310927F
:100B1000E2001092DA001092E100A0EEB0E08C91B9
:100B200081608C9380818F77808319BCA7EDB0E0C2
:100B30008C918E7F8C9380818F7E808310920B04AA
:100B400008952091E4003091E50095E6A9012091F7
:100B5000EC00822F817020FF06C08091E80080FFAA
:100B600006C080E008952091E80022FD1AC080911F
:100B70001704882389F0853089F08091EB0085FD8A
:100B80000FC02091E4003091E50042175307F9F2BD
:100B90009150E1F684E0089582E0089583E008959D
:100BA00081E008958091190487FF13C08091E800C7
:100BB00082FF06C08091E8008B778093E80004C034
:100BC000809117048111F2CF089580911704882332
:100BD000D9F38091E80080FFF8CF8091E8008E770C
:100BE000ECCF982F9093E900242F762F50E08917AF
:100BF00031F07091EC002091ED005091F00021FD5A
:100C000007C09F5F973071F78093E90081E00895F6
:100C10003091EB003E7F3093EB003091ED003D7F53
:100C20003093ED003091EB0031603093EB00709326
:100C3000EC002093ED005093F0002091EE0027FD92
:100C4000E0CF80E00895B0E0A0E0E9E2F6E00C94A7
:100C5000F433C8EDD0E088818F7E8883E7EDF0E043
:100C600080818160808384E082BF81E080930B0477
:100C700088818E7F888302EE10E0F8011082109246
:100C8000DA0081EEC82ED12CF601108288818F7790
:100C9000888388818068888388818F7D888319BC58
:100CA0001092170410921804109216041092150452
:100CB00090EEE92EF12CF70180818B7F8083888173
:100CC0008160888342E060E080E08BDFF601808114
:100CD0008E7F8083F801808181608083808188603D
:100CE0008083F70180818E7F808388818061888303
:100CF000CDB7DEB7E8E00C941034FC01CB012091B5
:100D00001F04309120042617370790F0009729F42C
:100D10002091E8002E772093E80040E0009751F4FE
:100D2000411108C08091E80082FF31C080E0089541
:100D3000C901F3CF209117042223A9F12530A9F18D
:100D40002091E80023FD2DC02091E80022FDEACF8C
:100D50002091E80020FFE2CF3091F3002091F200D3
:100D6000009719F02830310558F041E0283031055E
:100D700009F040E02091E8002E772093E800CECFE4
:100D800041914093F10001972F5F3F4FE9CF809150
:100D90001704882341F0853041F08091E80083FFFB
:100DA000C1CF81E0089582E0089583E00895089519
:100DB000089587E797E7909301088093000888E1FA
:100DC0009AE00FB6F894A895809360000FBE9093B8
:100DD0006000FFCFA4E0B0E0E0EFF6E00C94FA335F
:100DE0008FB7F894209107043091080440910904CA
:100DF00050910A0429833A834B835C838FBF6981B6
:100E00007A818B819C812496E2E00C941634809147
:100E100087010895A3E0B0E0E0E1F7E00C94FA3335
:100E20009C01809104049091050482179307B1F00E
:100E30003093050420930404E0916304F09164046A
:100E4000309761F00084F185E02D309739F084E02F
:100E500089833B832A83CE01019609952396E2E09C
:100E60000C941634A3E0B0E0E8E3F7E00C94FA3316
:100E70009C01809102049091030482179307B1F0C2
:100E80003093030420930204E0916304F09164041E
:100E9000309761F00084F185E02D309739F083E0E0
:100EA00089833B832A83CE01019609952396E2E04C
:100EB0000C94163480916504882369F0E0916304F2
:100EC000F0916404309739F00190F081E02D309773
:100ED00011F00995089580E00895FC01680F791FCD
:100EE0008FEF91E32191822728E030E087FF09C04E
:100EF000880F892721503109C9F7E617F70791F7BD
:100F00000895880FF7CFFC01EE0FFF1FE80FF91FC0
:100F1000E858FC4F6183408322830895539A0895D3
:100F2000EAE4F3E011828281846082830895CF93A2
:100F300080915B0480FF04C00E94B914CF91089592
:100F4000C0918C0180918D01C817B0F780918A0102
:100F50009C2F981B892F20E040E060E090E0D3DFD9
:100F6000CF5FF0CF0F931F93CF93DF93D82F162F20
:100F7000042F80915B04C0918C0180FD10C0DF9133
:100F8000CF911F910F91089580918A019C2F981BFA
:100F9000892F202F412F6D2F90E0B5DFCF5F8091FB
:100FA0008D01C81788F3C3DFEACFB0E0A0E0EBED16
:100FB000F7E00C94F233262FD72EE82FF0E0E5511E
:100FC000FE4F71110AC0E4918E2F9E2F6E2F792F44
:100FD000CDB7DEB7EAE00C940E34072F10E0E491B1
:100FE0004E2F56E0659F70011124CFEFD0E0C7016E
:100FF000BE010E94D633822F90E0880F991F55E5DD
:10100000569F9001579F300D1124821B930B582F30
:10101000550F580FCE01801B910BE89F9001E99F5F
:10102000300D1124932FD59ED0011124AB2FBB2757
:101030006E01CA1ADB0AEC9DD001ED9DB00D1124A2
:101040008B2F5E01A51AB108A09E6001A19ED00C55
:10105000B09ED00C1124CD2CDD24CC19DD09EC9FE1
:101060008001ED9F100D112463307105D1F05CEF0C
:10107000E51653E0F50670F461307105B1F06230A9
:101080007105B9F04FEFE416F10408F09FCF832FFC
:10109000912F9CCF6430710579F066307105B9F3FA
:1010A00095CFE32F9B2F842F91CFEB2F832F942F5E
:1010B0008DCF812FE32FFBCF8E2FE12F87CF982F5E
:1010C000762F842F20915B0420FF0AC0473908F057
:1010D00086E9692F6ADF962F672F482F892F42CF25
:1010E0000895CF93DF93EC01EBE5F4E04381628157
:1010F0008C81E5DF8C818F5F8C83DF91CF910895A8
:10110000CF93DF93EC01EC81F0E0E551FD4F94913A
:10111000EBE5F4E08381989FC00111246FEF70E04C
:101120000E94D633462F62818181C9DF8C818F5F17
:101130008C83DF91CF91089590917A01882341F0BB
:101140009F5F90937A011092770110927601089533
:101150009150F7CFEFE6F1E0828591E08927828711
:1011600010861782089580917801811114C08091B2
:101170007A01811110C08091790181110CC0909188
:10118000430396959695969581E020917001921370
:1011900080E08170089581E0FCCF80918F01F9019A
:1011A00080835BCCCF93DF93EFE8F1E08381948180
:1011B000A581B681E90188839983AA83BB831482C0
:1011C000138216821582DF91CF91089580E00895F1
:1011D00063E070E088E992E080DE909197028913E5
:1011E00018C0E0919802EC30A4F488E0E802F00125
:1011F0001124EF5FFE4F0680F781E02D309749F014
:101200002BEB32E040919A026BE972E080919902F7
:1012100009950895E2E8F2E0878980933101808D95
:10122000809344010895F894E82FE295EF70F0E080
:1012300041A18F7021E030E0B90102C0660F771F35
:101240008A95E2F7CB01962F9095942391A392A1D2
:10125000892B82A378940895A4E0B0E0E2E3F9E05A
:101260000C94FA3380916504882369F0B3DD6983B7
:101270007A838B839C8369817A818B819C8124967C
:10128000E2E00C941634A6DD69837A838B839C8319
:101290008091F0029091F102A091F202B091F302DC
:1012A00029813A814B815C81280F391F4A1F5B1FBE
:1012B00029833A834B835C83DECF811522E5920735
:1012C00008F04AC0811530E5930708F0C5C0803E9C
:1012D000910540F58D3C910508F09AC0883A91053A
:1012E00080F4853A910508F090C08130910541F075
:1012F0009C0124503109213A310510F090E080E042
:1013000008959C01285A31092B313105B8F7885AC4
:10131000E82FF0E0EE0FFF1FEA54FE4F808191812D
:1013200094640895811540E4940798F4811550E27F
:10133000950708F0ABC0883E910510F39C013A95E3
:1013400021153F41D8F620E0392FA901482BCA01C9
:1013500008959F70906A0895803852E59507B8F512
:10136000803622E5920708F05CC0803432E59307AE
:10137000C8F4803242E5940708F04CC0282F269527
:10138000269550E2259F90011124482F437081E05B
:1013900090E002C0880F991F4A95E2F7822B932BA9
:1013A0009D680895282F26952695277040E2249F52
:1013B00090011124482F437081E090E002C0880F13
:1013C000991F4A95E2F7822B932B9C680895803CE5
:1013D00052E5950760F4282F2F71803A9245B0F5B9
:1013E000822F90E0982F8827846F906A08959C013F
:1013F000205C32452032310508F080CF982F8827B5
:1014000088279F71806F906A0895849790640895EB
:10141000906508958F7190E0982F8827816F906A6A
:101420000895282F26952695277050E2259F900134
:101430001124482F437081E090E002C0880F991F6B
:101440004A95E2F7822B932B9A680895822F90E0B9
:10145000982F8827906208959C0195E036952795EE
:101460009A95E1F72F7030E0322F2227482F4F71E5
:1014700050E084FF06C084E0440F551F8A95E1F7D1
:101480005527C901842B952B906908959F71E2CF50
:10149000982F909580910C04892380930C040895D3
:1014A00080915A0490912104981301C008958F5F90
:1014B0008770FACF292F983078F5863068F590E05C
:1014C00036E0239F800D911D1124682F677023E063
:1014D000969587952A95E1F7FC01EE0FFF1FE80F1F
:1014E000F91FED5AFD4F50E040E080E0219130E0DF
:1014F000062E02C0369527950A94E2F7217033270D
:10150000042E01C0220F0A94EAF7822B4F5F5F4F2F
:101510004330510559F7089580E00895292F9830F8
:1015200090F5863080F590E036E0239F800D911D88
:101530001124282F277041E001C0440F2A95EAF7B3
:1015400023E0969587952A95E1F7FC01EE0FFF1FA2
:10155000E80FF91FED5AFD4F90E080E070E05191E7
:10156000DF0111979B01082E02C0369527950A943A
:10157000E2F7217021952527242325272C93019616
:101580008330910561F708958093FE020895982FA6
:1015900082958F7011F0982F84E0292F269526953B
:1015A00011F08E5F922F969509F08F5F0895CF937B
:1015B000C82F80919C018C1749F00CDC60939D0131
:1015C00070939E0180939F019093A001C0939C0112
:1015D000CF910895ACE0B0E0E0EFFAE00C94EC338A
:1015E0006C017B01DC011296ED91FC9113978D91BA
:1015F0009C91222309F450C02091A101211101C026
:1016000024E02150330B32E0832E912C02C0880C51
:10161000991C2A95E2F7B4010E943C349B01D60143
:101620008D939C93CF01B4010E943C34F6019383C7
:1016300082836138FFEF7F0704F160387105FCF4A5
:10164000D70115966C932138BFEF3B07D4F02038B3
:101650003105CCF4822F8195F7018483442319F05E
:101660006195658324838091A201882371F0813084
:1016700081F02C96E0E10C94083461E8E1CF6FE74B
:10168000DFCF21E8E7CF2FE7E5CFD70115961C92F2
:10169000F0CFF7011482EDCF21E02427411106C0DD
:1016A000F195E195F109919581959109022F10E04D
:1016B00044E0249F90011124D901AD5BBD4F6D9191
:1016C0007C911197AB0177FF02C04D5F5F4F55953D
:1016D0004795559547954F01841A950AA401460FE1
:1016E000571F4D935C93F901ED5BFD4F4281538190
:1016F000BA0157FF02C06D5F7F4F7595679575956D
:1017000067955C01A61AB70AA40EB51EBA82A98213
:10171000F901ED5BFD4FB382A2822081318137FF59
:1017200002C02D5F3F4F3595279535952795498107
:101730005A8157FF04C04D5F5F4F5A8349836980C8
:101740007A8075946794759467945090290353E058
:10175000000F111F5A95E1F75520A9F0A90137FF95
:1017600004C044275527421B530BC30177FE04C016
:101770008827992786199709481759070CF4AC014F
:1017800041155105B9F4F801ED5CFD4F108211824D
:10179000128213821482158216821782D701129642
:1017A0002C93129713966C92F60111821082138279
:1017B00012825FCF0D5C1D4FDA010E947134698384
:1017C0007A838B839C83F80180819181A281B3818C
:1017D00089809A80AB80BC80880E991EAA1EBB1E91
:1017E00089829A82AB82BC829A01D3010E947134B1
:1017F0006D837E838F83988784819581A681B7814D
:101800002D813E814F815885280F391F4A1F5B1F4C
:101810002D833E834F835887652D70E080E490E0F0
:101820000E943C344B01770FAA08BB0869817A817A
:101830008B819C81A50194010E944F3429013A01BA
:10184000D8016D937D938D939C9313976D817E81C9
:101850008F819885A50194010E944F3429833A8392
:101860004B835C83A501940169817A818B819C8182
:101870000E9421344B015C018D819E81AF81B8852E
:1018800088199909AA09BB09F80184839583A6835D
:10189000B78321E83FEFF1E84F16FFEF5F066F06D1
:1018A0007F063CF020E84216510461047104E4F420
:1018B000920149815A816B817C8191E8692E77245C
:1018C0007A9441388FEF5807680778070CF466CF91
:1018D00069807A8040385105610571050CF45ECF4E
:1018E0008FE7682E712C5ACF2FE730E0E2CF8F7050
:1018F0008A3010F4805D0895895A089520E297FF98
:1019000004C09195819591092DE2EAE0F0E0BF01D4
:101910000E943C34805D809331026115710559F459
:101920002093300220E220932F0220E220932E0207
:101930008EE292E00895CB01BF010E943C34805DAD
:10194000809330026115710571F3CB01BF010E94D4
:101950003C34805D80932F02E9CFAC01860F971F46
:1019600057FD07C077FD04C097FF02C08FEF9FE7C8
:10197000089577FFFDCF97FDFBCF80E090E80895B5
:10198000E8E7F1E083E0DF011D928A95E9F7E4E7FB
:10199000F1E084E0DF011D928A95E9F708959C014A
:1019A00080917101909172018217930729F0309311
:1019B000720120937101E4CF089590916F019817FF
:1019C00019F080936F01DCCF0895CF9390913E037F
:1019D00080913603981323C080913F03882321F020
:1019E0009091370389131BC080914003882321F015
:1019F00090913803891313C080914203882321F00A
:101A000090913A0389130BC090914103992329F0D7
:101A100081E020913903291303C080E001C081E0F7
:101A2000C82FC17080FF11C0E0916304F09164047D
:101A3000309759F00680F781E02D309731F082E041
:101A400080933D038DE393E0099590913E0386E0FA
:101A5000EDE3F3E0DF01282F1D922A95E9F790933B
:101A60003E03A5E3B3E001900D928A95E1F781E092
:101A7000C11103C0911101C080E08170CF91089520
:101A80002FE2280F283070F481E090E001C0880F29
:101A90002A95EAF720913E03662329F0822B809352
:101AA0003E0393CF089580958223F9CFCF93DF93A0
:101AB000282F81E02A3019F02D3029F480E088D0D9
:101AC000DF91CF910895809170069091710636E074
:101AD000FC01AAE6B6E001900D923A95E1F730EEEE
:101AE000320F343A08F458C026E0FC0111922A95CE
:101AF000E9F7C0917006D091710646E050E0BE0152
:101B00008AE696E00E9404359E012A563440892BCD
:101B100041F1C90145E0969587954A95E1F741E085
:101B200050E0BA0102C0660F771F8A95E2F7CB0139
:101B30006091680470916904862B972BB9016B5FE3
:101B40007F4FE5E076956795EA95E1F702C0440F8F
:101B5000551F6A95E2F7842B952B90936904809327
:101B600068042A5F3F4F40916704642F70E0C90109
:101B70000E94D633481B463010F4240F311D211526
:101B800072E0370710F030E020E026593B4F3093E9
:101B900071062093700694CF2052330B46E0429F8B
:101BA000B001439F700D11246B5B794F46E050E00C
:101BB0000E94EE349ECFCF93DF93EC01FE0184911F
:101BC000811103C0DF91CF91089570DF2196F6CF88
:101BD000CF93382FE0917006F0917106EA56F440E9
:101BE00020916704622F70E0CF010E94D633281B3A
:101BF000822F332359F066E00E943034C82FC15041
:101C000010F4CF91089580E251DFF9CF9F01280FA2
:101C1000311D2115324018F080E0F0E0E0E08E0F39
:101C20009F2F911D86599B4F90937106809370064C
:101C3000E8CF80910C0490916D02892B90916C02F9
:101C4000992389F0892B90E028E232E0F901408164
:101C50002F5F3F4F41119F5F42E02E323407B1F7B3
:101C6000911110926C028093260248E050E06EE6DB
:101C700072E086E292E00E940435892BB9F088E098
:101C8000E6E2F2E0AEE6B2E001900D928A95E1F76D
:101C9000E0916304F0916404309741F00280F38195
:101CA000E02D309719F086E292E009950895E8E278
:101CB000F2E086E0DF011D928A95E9F790E080E08E
:101CC000D1D890E080E0A6D810926D02B2CFAAE2FF
:101CD000B0E0EDE6FEE00C94F93389E194E0FC011C
:101CE00001962091F100208324E081329207B9F718
:101CF00080911A04893009F45BC0C8F4823009F479
:101D0000B8C0833009F487C0813099F18091E80030
:101D100083FF3BC18091190490911A049A3008F016
:101D200034C1E92FF0E0ED58FA4C0C946B348A3052
:101D300009F48EC08B3051F780911904813231F74C
:101D400080911D0490911E04892B01F78091E80079
:101D5000877F8093E8000E94D20581E090911B0468
:101D6000911101C080E08093880110920C049FDFE4
:101D7000CDCF80911904813A49F68091E800877FA0
:101D80008093E80080911D0490911E04892B61F4DA
:101D900068E08DE094E070E00E947D068091E800AC
:101DA0008B778093E800B2CF60E090E080E0F3CFE3
:101DB00080911904813209F0A9CF80911D0490917E
:101DC0001E048D7F892B09F0A1CF8091E800877FC9
:101DD0008093E8008091E80082FF18C09091F300A2
:101DE0008091F200029731F48091F100813011F07E
:101DF000863021F48091F100809387018091E80082
:101E00008B778093E8000E94D20580CF80911704E1
:101E10008111E0CF7BCF80911904813A09F076CF10
:101E200080911D0490911E04892B09F06FCF809141
:101E3000E800877F8093E8008091E80080FFFCCF76
:101E4000809188018093F1008091E8008E77D9CF4E
:101E500080911904813209F059CF8091E800877F81
:101E60008093E8000E94D20580911C048093860133
:101E70004DCF80911904813A09F048CF8091E80054
:101E8000877F8093E8008091E80080FFFCCF8091FD
:101E90008601D8CF803899F0823809F076C08091D9
:101EA0001D048F70873008F070C08093E900809126
:101EB000EB0085FB882780F91092E90006C080912D
:101EC000150490911604911182609091E800977F1B
:101ED0009093E8008093F1001092F1008091E80067
:101EE0008E77B7C1882309F4A4C1823009F04DC0B0
:101EF00080911B048111A8C180911D048F702FEF68
:101F0000280F263008F041C08093E9002091EB00B3
:101F100020FF9AC1933031F48091EB00806280936E
:101F2000EB0092C19091EB0090619093EB0021E067
:101F300030E001C0220F8A95EAF72093EA00109260
:101F4000EA008091EB008860EACF81111EC01091F9
:101F50001B041F778091E3008078812B8093E3003E
:101F60008091E800877F8093E8000E94D2058091ED
:101F7000E80080FFFCCF8091E30080688093E3005D
:101F800082E0111183E0809317048091E80083FFC1
:101F90000AC08091E800877F8093E8008091EB0081
:101FA00080628093EB00AA96E3E00C94153480588D
:101FB000823058F740911B0450911C044C3D83E043
:101FC0005807A1F583E08A838AE289834FB7F894A2
:101FD000DE01139620E03EE051E2E32FF0E0509363
:101FE0005700E49120FF03C0E295EF703F5FEF7070
:101FF0008E2F90E0EA30C0F0C7968D939D932F5FAF
:10200000243159F74FBF8091E800877F8093E80023
:102010006AE270E0CE0101960E947D068091E800A0
:102020008B778093E800B1CFC096E7CF80911D04F5
:1020300090911E04252F33272330310509F44AC01F
:1020400078F52130310509F479C08BE590E0ECEAB0
:10205000F5E02230310509F098CF2091E800277F84
:102060002093E80020911F043091200482179307E9
:1020700008F49C0140E02115310509F064C04111CC
:1020800062C08091E80082FDC9CF80911704882347
:1020900029F2853019F28091E80083FFF2CFBECF9C
:1020A0002132310509F43BC02232310509F06DCFF0
:1020B0008330910508F069CFFC01EE0FFF1FE85E49
:1020C000FD4F0190F081E02D8B5E9D4FDC018C91E6
:1020D00090E011C0CA019927413089F08230910502
:1020E000B1F0892B09F051CFE1E4F6E0E4918E2FB5
:1020F00090E0E1E4F6E0009709F447CFAECFEFE2DD
:10210000F6E0E4918E2F90E0EFE2F6E0F4CFE9E123
:10211000F6E0E4918E2F90E0E9E1F6E0ECCF833039
:10212000910508F032CF880F991FFC01E25EFD4F48
:102130000190F081E02D89E090E08FCF82E190E086
:10214000E7E0F6E08ACF80911704882309F466CF90
:10215000853009F463CF8091E80083FD5FCF8091E3
:10216000E80082FD8ECF8091E80080FF84CF9091BF
:10217000F3008091F2002115310519F088309105A6
:1021800050F041E0089709F040E08091E8008E7738
:102190008093E80070CF44914093F1003196215034
:1021A00031090196E8CF803809F0EFCE8091E80040
:1021B000877F8093E800809118048093F1008ECE91
:1021C0008111E3CE10911B04123008F0DECE809115
:1021D000E800877F8093E800109318040E94D205DE
:1021E000112311F084E005C08091E30087FDFACF50
:1021F00081E08093170442E061EC81E00E94F105E8
:1022000042E261EC84E00E94F10542E261EC82E08E
:102210000E94F10542E260EC83E00E94F1058091AA
:102220001704843021F081E080938901AECE82E0F2
:10223000FBCF80911B04813009F0A7CE81E0933061
:1022400009F080E0809316041092E9008091E80084
:10225000877F8093E8000E94D20597CE882311F0F3
:1022600017D9E7CC0895882331F090910C04892B7D
:1022700080930C04DECC08958823A1F19CEF980F85
:10228000913A68F4E8E2F2E09191891303C0DF012A
:1022900011971C9292E0EE32F907B1F7CACC90E2A6
:1022A000980F983048F4877091E001C0990F8A9593
:1022B000EAF7892FEDD8F2CF9BE5980F933020F401
:1022C00090E080E00C94320798E5980F9B3120F461
:1022D00090E080E00C940A0793E3980F933110F498
:1022E00060E0CECB08950F931F93CF93C82F882320
:1022F00031F18CEF8C0F813AA0F508E212E0F80181
:102300008191C81701F122E0EE32F207C9F7EFEF31
:1023100080E0D8019D918D01C91781F0EF3F19F43C
:10232000911101C0E82F8F5F863099F7EF3F31F0B0
:102330000E2E000CFF0BEA5DFD4FC2837ADCCF91BD
:102340001F910F910895E8E2F2E08191C81303C054
:10235000DF0111971C9232E0EE32F307B1F769DC2E
:10236000D6CF80E28C0F883068F4C77021E030E06F
:1023700001C0220FCA95EAF780910C04822B80934A
:102380000C04DCCF8BE58C0F833038F42C2F2452D7
:10239000330BC9010E943207D2CFE8E5EC0FEB31D5
:1023A00050F4F0E0EE0FFF1FEA54FE4F8081918160
:1023B0000E940A07C4CF83E38C0F833108F0BFCF9C
:1023C00061E08C2F5DDBBBCF0F931F93CF93DF9327
:1023D000EC01FC0101900020E9F78F010150110987
:1023E000C017D10728F0DF91CF911F910F91089569
:1023F00089915CDBF5CF0F93CF93DF93CBE5D4E0EE
:10240000488159816A817B8188E090E00E944E3545
:10241000288139814A815B816C817D818E819F8198
:1024200000E20E94B134622F83E290E00E943C35CA
:10243000DF91CF910F9108950F931F93CF93DF9367
:10244000D82F162FC42F022F80915B0480FF36C037
:1024500020915C042D1308C090915D04961304C074
:1024600090915E04941729F090914C0392609093A0
:102470004C03E82FE695E695F0E0EC5FFD4F908188
:1024800090934A038C7F8430F1F48C2FC73908F085
:1024900086E96D2F712F0E94D507962F672F482F41
:1024A000892F0E94B207D0935C0410935D04C093FF
:1024B0005E04002319F08BE594E09DDFDF91CF915E
:1024C0001F910F910895963071F7D22FECCFEBE565
:1024D000F4E043812FE0421B08F440E021E06281F8
:1024E0008181AACFEBE5F4E043812FE0420F08F4AD
:1024F0004FEF21E0628181819FCFEBE5F4E06281C3
:1025000021E1621B08F460E021E04381818194CFE6
:10251000EBE5F4E0628121E1620F08F46FEF21E066
:102520004381818189CFEBE5F4E0818121E0438122
:102530006281815181CFEBE5F4E0818121E043812B
:1025400062818F5E79CF80915F04882319F081507A
:1025500080935F048BE594E04ECF80915F048330DD
:1025600018F48F5F80935F048BE594E044CFEBE534
:10257000F4E080818E7F8083CF013DDF0E94900751
:10258000EAE4F3E08281816082830C949707EBE5B3
:10259000F4E089E080838AEA81838FEF828384E696
:1025A00083831482EAE4F3E08281836082838BE593
:1025B00094E021CF1F93CF93DF93962F122F632F99
:1025C0008430D8F49830C8F44630B8F4C42FD0E042
:1025D000CC0FDD1F2CE0929FC00DD11D112490E681
:1025E000899FC00DD11D1124CE0185960E943C35D6
:1025F000612FCE0186960E943C35DF91CF911F91CD
:102600000895AF92BF92CF92DF92FF920F931F93E4
:10261000CF93DF93B12CA12C00E0650110E012C034
:10262000FE01259134914F2D612F802FC3DF22961B
:10263000F39486E0F812F4CF86E0C80ED11C1F5F39
:10264000183039F0E601CC0FDD1FC45DDB4FF12CF3
:10265000E7CF0F5F80E3A80EB11C0430F1F6DF91E5
:10266000CF911F910F91FF90DF90CF90BF90AF90CF
:1026700008954F925F926F927F928F929F92AF9246
:10268000BF920F93CF93DF9300D000D0CDB7DEB7CA
:1026900088E090E00E9432352B013C01ABE5B4E0CC
:1026A0006C9350925C0480935D0470925E0410926F
:1026B0005F0410926004109261041092620483E23D
:1026C00090E00E942A35282F30E040E050E060E0A2
:1026D00070E080E090E000E20E94963424293529E1
:1026E00046295729EBE5F4E0208330935C044093BE
:1026F0005D0450935E0460935F0470936004809364
:102700006104909362040F900F900F900F90DF91EF
:10271000CF910F91BF90AF909F908F907F906F90CF
:102720005F904F9008950F931F93CF93DF93843062
:1027300030F5683020F5463010F5C42FD0E0CC0FCE
:10274000DD1F2CE0629FC00DD11D112430E6839F58
:10275000C00DD11D1124CE0185960E942A35082F67
:1027600010E0102F0027CE0186960E942A3598018E
:10277000282BC901DF91CF911F910F91089590E00F
:1027800080E0F8CF462F672F783028F4463018F4D1
:10279000843008F4C8CF80E090E00895B0E0A0E075
:1027A000E4EDF3E10C94F5337C0100914D0380914D
:1027B000FE02082BC3E0D0E010E0DC2EC8010C2E96
:1027C00002C0959587950A94E2F780FD09C021978C
:1027D000A0F7D12C8D2DCDB7DEB7E7E00C941134E6
:1027E000B7018C2FCFDF0E945D09019781F3F2CFF3
:1027F000CF93DF93D82FC92FD1DF6D2F7C2FC2DF6E
:102800000E945D09DF91CF910895FC0184818823A6
:1028100099F080819181ECDF282F92959F709630FE
:1028200091F060F4925F9F70923030F481E0203F2D
:1028300081F030F4283E30F080E004C09A5FF3CF9E
:10284000243FD1F7089581E0283E20F0213FA1F7F1
:10285000F9CF08950895A6E0B0E0E1E3F4E10C9427
:10286000F9339C0186E0F901DE01119601900D9289
:102870008A95E1F7F901258189819A81222389F0DE
:10288000662379F08BDF182F682F89819A810E9447
:102890008E0A69817A81812F75DF2696E3E00C9498
:1028A00015340E945A0A182FF4CF0F931F93CF9319
:1028B000DF938B01EA0190911704943061F58093C6
:1028C000E9008FEF9091E800815095FD06C095EDED
:1028D0009A95F1F700008111F5CF8091E80085FF0E
:1028E0001AC00E94A105811111C08091E80085FDE8
:1028F00006C08091E8008E778093E800F2CFF8015F
:1029000081918F018093F100219779F78091E80000
:102910008E778093E800DF91CF911F910F910895FA
:10292000BC0143E050E084E0C0CFBC0146E050E091
:1029300084E0BBCFCF93DF93D82FC92F48E050E07E
:10294000682F792F81E0B1DF88E0ED2FFC2FADE01B
:10295000B4E001900D928A95E1F7DF91CF9108954F
:10296000792F603229F440E250E0682F82E09DCF59
:1029700008953BB1377F2BB128604FB7F89488E7B3
:1029800093E0FC010196508168E02BB9000000C083
:1029900057FF3BB9550F000000C000C000C03BB955
:1029A00000C06A9591F754E08230950751F74FBF08
:1029B0008FE594E00197F1F700C000000895B0E0C2
:1029C000A0E0E5EEF4E10C94F233F82EE92ED62ED9
:1029D000C72E8A018091EF02AA24A394B12C8A30D9
:1029E00018F48AE0A82EB12CC1E0D0E06D2D7C2D2A
:1029F0008F2D9E2DF8010995811104C02196AC16EA
:102A0000BD062CF4CDB7DEB7EAE00C940E34CC9FB3
:102A10009001CD9F300D300D112490E080E045E312
:102A20004A95F1F70000019682179307C1F7DECFB0
:102A300010920C043CD92FEF84E39CE0215080409D
:102A40009040E1F700C0000088E19AE00FB6F894EA
:102A5000A895809360000FBE90936000FFCFAB01FC
:102A600024E630E0BC0188E70E949B319C0181E0B4
:102A7000232B09F080E008958091740390917703EF
:102A8000911103C091E089270895882361F062E0E5
:102A900070E08DEE93E0E3DF811103C08091740359
:102AA00008951092740380917403ECCFA5E0B0E018
:102AB000ECE5F5E10C94FA33809174038D838091F9
:102AC00077038823E9F00E94EA06DC01CB01805AF3
:102AD0009541AF4FBF4F8093700390937103A093C4
:102AE0007203B09373038D81811107C062E070E0BF
:102AF0008BEE93E0B4DF811108C0809174038D8365
:102B00008D812596E2E00C94163481E08093740365
:102B1000F4CFCF93EBE1F3E086E0DF011D928A95DD
:102B2000E9F7E9E1F3E088EC90E091838083C1E08C
:102B3000C3838AE892E0958384838AE086838FE268
:102B40009AE09187808780E39AE0938782878FE27B
:102B500098E09587848780E398E09787868740E1AF
:102B600050E060E472E0CF010E945A35C0935102F8
:102B700083E08093180363E080EE93E00E94633566
:102B8000C09317036BE48EEF93E00E94633565EA10
:102B90008FEF93E00E946335CF91089580915002AA
:102BA000811110C081E0809350028EEF93E00E946B
:102BB0002A358B3431F48FEF93E00E942A35853A21
:102BC00009F0A7CF0895EADF8091170381110BC0A8
:102BD00080EE93E00E942A35883040F480931803F9
:102BE00081E0809317038091180308958E3FB1F31D
:102BF00083E0F4CFCF93DF93C82F0E94C70AD82F6A
:102C0000E2DF982F81E0D91380E00E94D70AC093B9
:102C10004D03DF91CF91089521E030E001C0220FF4
:102C20008A95EAF7209580914D038223E3CF909116
:102C300043038095892380934303282F277061F4F1
:102C4000891751F09091000392FF06C086958695F2
:102C50008695E2DF10924303089521E030E001C041
:102C6000220F8A95EAF780914D03822BC3CF909172
:102C7000000392FB222720F9281771F080FB92F9BC
:102C8000909300036091FF027091000384E090E054
:102C90000E94563582E0CBCF0895B0E0A0E0E3E596
:102CA000F6E10C94F433FA0169017801C82F880F1A
:102CB000DD0B3097B1F0DE0193E0AA0FBB1F9A95B0
:102CC000E1F7AF5FBE4F11968D919C9112978E5791
:102CD0009D4F4C9150E0E417F50708F4AF010E94B6
:102CE0001135CE010E946633182F8823D1F0E114EC
:102CF000F104B9F083E0CC0FDD1F8A95E1F7FE0106
:102D0000EF5FFE4F438150E0E416F50608F4A7019B
:102D1000CF5FDE4F6C817D816E577D4FC6010E9473
:102D20001135812FCDB7DEB7E8E00C941034A5E063
:102D3000B0E0EDE9F6E10C94F2338D83E62E5A0112
:102D4000F22E68018091EF028A3028F080E025960B
:102D5000EAE00C940E348D818930C4F319828A83A1
:102D60006B832C8363E070E0CE0102960E946D07B6
:102D70008983E0923101F092440110E000E030E0FC
:102D800020E044E050E0BE016F5F7F4F85E085DFCB
:102D90008823E1F24E2D50E030E020E0B50186E0DE
:102DA0007CDF882399F230E020E041E050E0BE0172
:102DB0006B5F7F4F87E071DF882341F20F2D10E0BA
:102DC000960150E040E070E060E088E066DFBFCF51
:102DD000A8E0B0E0EEEEF6E10C94F433C090E3022C
:102DE000D090E402E090E502F090E6020E94EA064C
:102DF000DC01CB018C199D09AE09BF0911E08436B5
:102E00009105A105B10518F10E942C09DC01CB0147
:102E10000296A11DB11D89839A83AB83BC8310E008
:102E200000E030E020E044E050E0BE016F5F7F4F03
:102E300082E033DF182F882351F00E94EA06609366
:102E4000E3027093E4028093E5029093E602812FFF
:102E50002896E8E00C9410348F929F92AF92BF9224
:102E6000EF92FF920F931F93CF93DF93CDB7DEB70F
:102E700029970FB6F894DEBF0FBECDBF7B0101E0EE
:102E800010E09E012B5F3F4F50E040E070E060E0BB
:102E900080E003DF182F882309F44EC08090DF0202
:102EA0009090E002A090E102B090E2020E94EA0657
:102EB000DC01CB0188199909AA09BB09843691055F
:102EC000A105B10548F464E070E083E892E00E9457
:102ED0006D079D81891781F104E010E09E012F5F4D
:102EE0003F4F50E040E070E060E081E0D6DE182F18
:102EF00064E070E083E892E00E946D0791E02D812C
:102F0000281390E0192331F10E94EA066093DF0252
:102F10007093E0028093E1029093E20289819A81AA
:102F2000AB81BC818093DB029093DC02A093DD0235
:102F3000B093DE0211E00EC0809183029091840272
:102F4000A0918502B091860289839A83AB83BC836A
:102F50001111E4CF8091DB029091DC02A091DD029F
:102F6000B091DE02F70180839183A283B383812F26
:102F700029960FB6F894DEBF0FBECDBFDF91CF917B
:102F80001F910F91FF90EF90BF90AF909F908F9007
:102F900008954F925F926F927F92AF92BF92CF92BD
:102FA000DF92EF92FF920F931F93CF93DF9300D0A6
:102FB00000D000D0CDB7DEB78D837B01A42ED22EFA
:102FC0003E83B02EC12EDB014D905D906D907C90C4
:102FD0000E94EA06DC01CB0184199509A609B7090C
:102FE00084369105A105B10510F4AA2051F110E035
:102FF00000E030E020E04B2D5C2D6D2D7E818D8139
:103000004CDE8983882339F00E94EA06F701608349
:10301000718382839383898126960FB6F894DEBFED
:103020000FBECDBFDF91CF911F910F91FF90EF9019
:10303000DF90CF90BF90AF907F906F905F904F9058
:103040000895F1E0F983E7CFA1E0B0E0EAE2F8E12A
:103050000C94F8338091740389832091960290E058
:1030600041E02817190609F440E001E010E09E0154
:103070002F5F3F4F6BEE72E084E08BDF2196E4E040
:103080000C941434ABE0B0E0E8E4F8E10C94F833CD
:1030900088E0EBE5F4E0DE01119601900D928A954F
:1030A000E1F780914A0390914B03A0914C038987EB
:1030B0009A87AB8741E08B85811101C040E00BE02E
:1030C00010E09E012F5F3F4F67EE72E083E061DF0B
:1030D000811110924C032B96E4E00C941434CF939E
:1030E000DF93D82FC92F5ADD80915102811120C062
:1030F00040E150E060E472E089E193E00E941A351B
:103100008091190390911A03C297873B934068F00E
:10311000EBE1F3E08EE0DF011D928A95E9F788ECA0
:1031200090E090931A038093190381E080935102F9
:1031300080E1E9E1F3E0AD2FBC2F01900D928A957B
:10314000E1F78D2F9C2FDF91CF910895A0E1B0E0A2
:10315000ECEAF8E10C94FA33CE010196C0DF8981E4
:103160009A819C0122533109273B334010F088ECAF
:1031700090E06096E2E00C94163428E030E043E002
:1031800060E086E30C946030CF93DF93D82FC62F96
:10319000F4DF8D2F80680E9472308C2F0E94723075
:1031A0008AEB8A95F1F700C00E94A23083E492E096
:1031B0000197F1F700C00000DF91CF910895682FCB
:1031C000893708F068E760939A0191E090939B013A
:1031D00090918F01992349F06150811101C064E001
:1031E000683708F067E78FE0CFCF0895FB01808153
:1031F000E6CF282F80919A01811101C085E0022E2F
:10320000000C330B820F932F911D1816190614F022
:1032100081E090E0D4CFACE0B0E0E1E1F9E10C94E2
:10322000F6334F83588769877A878B879C8780918D
:103230008F01882309F444C080914B02811106C09C
:1032400060E080E5A1DF81E080934B0296DF80E5BE
:103250000E9472300AEB0A95F1F700C00E948A3092
:103260000E948A300E948A307C010E948A3060E08D
:10327000E62AF82A0E948A308C010E948A3020E0D7
:10328000022B182B0E94A23025E02A95F1F70000AE
:10329000F894B70180919201909193010E94AD0C36
:1032A0009093930180939201B80180919401909141
:1032B00095010E94AD0C90939501809394017894B0
:1032C00080916504882309F466C00E94EA06462FAF
:1032D000572FBC0180914C0290914D02A0914E025B
:1032E000B0914F028A019B01081B190B2A0B3B0B63
:1032F000D901C8010897A105B10508F44CC0409355
:103300004C0250934D0260934E0270934F02809195
:103310009D0190919E01A0919F01B091A001481B39
:10332000590B6A0B7B0B423351056105710580F423
:1033300010929301109292011092950110929401B3
:103340001092970110929601109299011092980193
:103350001091660420919C01412FBE01695F7F4F4F
:1033600082E991E00E94EA0A20919C0180918F01FC
:10337000282741E04127BE01695F7F4F86E991E040
:103380000E94EA0A86E0FE013796A7EAB1E00190C2
:103390000D928A95E1F786E0FE013796DE011196DF
:1033A00001900D928A95E1F729813A814B815C81E8
:1033B0006D817E8180E090E02C96E6E00C941234E2
:1033C000CF93C82FDADE8C2F0E9472308FE792E005
:1033D0000197F1F700C000000E948A30C82F95E0E5
:1033E0009A95F1F700000E94A23085E68A95F1F7E0
:1033F000000010924B028C2FCF910895CF93DF9352
:103400000E94CF2F269AB9DE6AE58AE3BDDE2FEF50
:1034100080E792E0215080409040E1F700C000003A
:1034200082E0CEDF83E0CCDF84E0CADF85E0C8DF66
:1034300086E0C6DF60E080E1A7DE80E0C1DFD82F54
:1034400081E0BEDFC82F0E94A230D23419F481E09F
:10345000C13009F080E0817080938F01882319F0DA
:1034600064E08FE091DE81E0DF91CF9108951F92BB
:103470000F920FB60F9211242F933F934F935F93A8
:103480006F937F938F939F93AF93BF93CF93DF936C
:10349000EF93FF93D091E900DF708091EC00C82F8B
:1034A000C17080FDC0E81092E9008091F000877F34
:1034B0008093F00078940E94670E1092E90080914A
:1034C000F00088608093F000CD2BCF70C093E900AE
:1034D000FF91EF91DF91CF91BF91AF919F918F912C
:1034E0007F916F915F914F913F912F910F900FBE00
:1034F0000F901F9018951F920F920FB60F921124E4
:103500002F933F934F935F936F937F938F939F93EB
:10351000AF93BF93EF93FF938091E10082FF09C0C7
:103520008091E20082FF05C08091E1008B7F809353
:10353000E1008091DA0080FF24C08091D80080FFF4
:1035400020C08091DA008E7F8093DA008091D900CC
:1035500080FFA9C080E189BD82E189BD09B400FE78
:10356000FDCF81E08093170480910B04811109C085
:103570000E9482050E9423068091E200846080936D
:10358000E2008091E10080FF1AC08091E20080FF9C
:1035900016C08091E2008E7F8093E2008091E2006D
:1035A00080618093E2008091D80080628093D8008F
:1035B00019BC85E08093170483E080938901809192
:1035C000E10084FF2FC08091E20084FF2BC080E1E6
:1035D00089BD82E189BD09B400FEFDCF8091D8008C
:1035E0008F7D8093D8008091E1008F7E8093E100F1
:1035F0008091E2008F7E8093E2008091E200816002
:103600008093E20080911804882309F452C084E07A
:103610008093170480911704843009F452C081E02C
:10362000809389018091E10083FF2CC08091E200AA
:1036300083FF28C08091E100877F8093E10082E0D2
:1036400080931704109218048091E1008E7F80937C
:10365000E1008091E2008E7F8093E2008091E200A1
:1036600080618093E20042E060E080E00E94F1052A
:103670008091F00088608093F00081E08093890160
:1036800080938801FF91EF91BF91AF919F918F91AE
:103690007F916F915F914F913F912F910F900FBE4E
:1036A0000F901F90189519BC1092170410920B04DC
:1036B00068CF8091E30087FD02C081E0A9CF83E05D
:1036C000A7CF82E0ADCF78941F921FB61F9211242E
:1036D0008F939F93AF93BF938091070490910804B9
:1036E000A0910904B0910A040196A11DB11D809317
:1036F000070490930804A0930904B0930A04BF91AF
:10370000AF919F918F911F901FBE1F9018952FB75B
:10371000F8948091070490910804A0910904B09155
:103720000A042FBF0895A5E0B0E0E9E9FBE10C949D
:10373000EE3380917703882309F41DC1209175032E
:10374000309176033A832983E2DF49815A81841BD1
:10375000950BC29708F4E6C0DADF90937603809366
:1037600075038AE694E090937106809370068091C9
:103770006504882309F40EC185EF93E00E94DB0DF8
:1037800088EB0E94560D8091A6010E94770C0E9442
:10379000560D89EB0E94560D8091A5010E94770C71
:1037A0000E94560D82EF93E00E94DB0D8091A301F1
:1037B0009091A40154E0969587955A95E1F70E945F
:1037C000770C0E94560D8091A3010E94770C0E94F5
:1037D000560D8FEE93E00E94DB0D8DEA91E00E9482
:1037E000E41184E194E00E94DB0D8091A901082E90
:1037F000000C990B0E947E0C0E94E4118091AA019A
:10380000082E000C990B0E947E0C0E94E4118091FE
:10381000AC01082E000C990B0E947E0C0E94E41152
:103820008091AB01082E000C990B0E947E0C0E9427
:10383000E4118CE094E00E94DB0D80919A018111EB
:1038400001C085E090E00E947E0C01960E94E41188
:1038500088E094E00E94DB0D8091A201882331F082
:10386000813009F48CC08FEF93E002C085E094E0D2
:103870000E94DB0D80919C01882309F483C08DE1B7
:1038800094E00E94DB0D8BEF93E00E94DB0D8091B2
:10389000A101811101C084E0805D0E94560D83E288
:1038A00094E00E94DB0D61E070E07A83698380918F
:1038B0004D03882309F469C090E0098002C0959502
:1038C00087950A94E2F780FF60C089810E94770C97
:1038D0000E94560D89819A8101969A83898308975F
:1038E00031F780E20E94560D80E294E00E94DB0DE9
:1038F00080916F01882309F44AC08DE194E00E9411
:10390000DB0D80917101909172016AE070E00E947C
:10391000D633CB010E947E0C01960E94E41180E315
:103920000E94560D8091680490916904892B09F0DA
:103930004DC0809174038823F1F00E94EA066983E8
:103940007A838B839C838091700390917103A09103
:103950007203B091730329813A814B815C81281BEA
:10396000390B4A0B5B0BDA01C9018F3F9F4FAF4FF9
:10397000BF4708F481D82596EEE00C940A3482E023
:1039800094E076CF8AE194E07CCF80EBA1CF8AE10E
:1039900094E0B5CF90E99983A981A051AD8389E2E4
:1039A00094E00E94DB0D8D81B82FBF5FBD830E9424
:1039B000560D6D8029816212F6CF80E00E94E80DDD
:1039C0003981305F3983303C39F7ACCF8091770350
:1039D000882309F4AECF80916F038111AACF66D8F6
:1039E00020916804309169042115310509F4A1CFB3
:1039F00080E041E050E0082F10E0BA01082E02C03C
:103A0000660F771F0A94E2F77A8369836223732330
:103A1000672B11F48F5FEFCF90916E0390FF97C0EB
:103A2000880F880F880F8093810110928401895F2D
:103A30008093820183E08093850124E630E047E0B3
:103A400050E06FE771E088E70E945831892B09F058
:103A500070CFA80125E0440F551F2A95E1F780910A
:103A60006E0380FF86C0EEE4F3E080E2DF011D928A
:103A70008A95E9F701E112E08DE0E82E82E0F82E68
:103A800097E0992E88248394D801ED918D01D70178
:103A90006D917D01640F752F711D66597B4FF0E0AC
:103AA000E25BFC4F30E020E0792C721AA82C022E49
:103AB00001C0AA0C0A94EAF76B0190E0D6018D913F
:103AC0006D018A21A72DA91BA770BA2E0A2E000C02
:103AD000BB0B682E01C0660CBA94EAF7B62CB19500
:103AE000A195B109A770BB2701C08695AA95EAF7F1
:103AF000A62DA82B80818A2B80839F5F9830F1F6BA
:103B00002F5F3F4F31962830310571F622E00531A5
:103B1000120709F0B9CF04E610E020E230E04EE4ED
:103B200053E060E488E70E94E031892B09F001CF7F
:103B300049815A814095509580916804909169041B
:103B4000482359235093690440936804F2CE829528
:103B5000880F807680938101980136952795369558
:103B6000279520938401815E8093820120938501B3
:103B700064CF46595B4F04E610E020E230E0D1CF3D
:103B8000A4E3B0E0E6ECFDE10C94F63380913B0356
:103B9000833009F074C140913D0350913E03609120
:103BA0003F0370914003809141039091420333DBC6
:103BB00020933D0330933E0340933F0350934003D3
:103BC000609341037093420386E0EDE3F3E0DE018E
:103BD000519601900D928A95E1F786E0FE0171966B
:103BE000DE015D9601900D928A95E1F786E0FE0177
:103BF0007D96DE01119601900D928A95E1F786E09F
:103C0000FE013196ADE3B3E001900D928A95E1F7A4
:103C100086E0EDE3F3E0DE01519601900D928A9586
:103C2000E1F786E0FE017196DE01939601900D9218
:103C30008A95E1F786E0FE01B396DE0111960190C8
:103C40000D928A95E1F786E0FE013196ADE3B3E08F
:103C500001900D928A95E1F786E0EDE3F3E0DE0155
:103C60009F9601900D928A95E1F786E0FE01BF963E
:103C7000DE01579601900D928A95E1F71BA9FCA8E9
:103C8000012F0F2909F4AEC0CE01019628DA8B81ED
:103C900084FD11950F2D85FD01951B8F0C8F86E0FE
:103CA000FE017796DE01519601900D928A95E1F71B
:103CB0001D8B0E8B86E0FE017196DE0199960190B8
:103CC0000D928A95E1F71DA70EA786E0FE01B99631
:103CD000DE01579601900D928A95E1F71B8F0C8FAC
:103CE00086E0FE017796ADE3B3E001900D928A95F0
:103CF000E1F786E0EDE3F3E0DE01579601900D92E7
:103D00008A95E1F780916F01882309F479C0E090EA
:103D10007401F0907501FBDC209173018E199F09ED
:103D20002817190608F06CC0E0907601F090770132
:103D3000EEDC9C012E193F09790108DA8E159F05EA
:103D400008F05EC0388D8A8D90917B01298D920F8D
:103D500090937B0120917C01820F80937C012091C4
:103D60007E01020F00937E0120917D01120F1093BE
:103D70007D0120916D0197FD91952917A8F187FD8F
:103D80008195281788F107FD0195201768F117FD27
:103D9000119581E0211718F0311101C080E0817088
:103DA000809378010E94B30810914D038823A9F1F4
:103DB00010927B0110927C0110927D0110927E0185
:103DC000A6DC909375018093740110927701109294
:103DD000760180917001111109C0882389F00E9439
:103DE0002D160EC010E059CF81E0D9CF212F30E041
:103DF000082E02C0359527950A94E2F720FFEFCFF1
:103E00000E94E50C811138C080913C0381701092B2
:103E10003C03E496E6E00C94123480917001111199
:103E200021C08111EDCF00917401109175016FDCFB
:103E3000801B910B20917101309172012817390775
:103E4000F8F6809170010E940C1610927501109284
:103E5000740110927B0110927C0110927D011092EE
:103E60007E01CECF212F30E002C0359527958A956F
:103E7000E2F720FFC5CFD7CF81E090E0C7CF80E049
:103E8000C8CF80916504882309F041CC0E942C0999
:103E9000CB01089560915B046695669570E041E002
:103EA00050E08EE691E00E94F734892B19F481E00E
:103EB00080934B03E6DF9093450380934403809106
:103EC0004C03846080934C03089590915B0490FFB1
:103ED0002CC0937081112AC0946090935B048091F0
:103EE0004C03816080934C03662321F08BE594E0C2
:103EF0000E94FB1160915B046695669570E041E05D
:103F000050E08EE691E00E94F734892BB9F00E94D0
:103F1000900781E08093470320E040915E04609128
:103F20005D0480915C040C941C120895893010F09B
:103F30009062D3CF880F880F982BCFCFABDFE9CF1C
:103F400090915B04969596958FEF890F913009F4C7
:103F500088E061E0BACF80915B04869586958F5F9B
:103F6000893008F081E061E0B0CFA7E1B0E0EBEB91
:103F7000FFE10C94F0331D861C86FE013E9686E020
:103F8000DF011D928A95E9F78EEEE82E81E0F82E8A
:103F900010E000E0CC24C394D12C28EFA22E21E025
:103FA000B22EF70181917F018F3F09F445C0F8944B
:103FB000E82FE295EF70F0E021A18F70A60102C01A
:103FC000440F551F8A95E2F7CA01922F982B91A3AF
:103FD00092A18095892382A3789400C0E2EFF1E05A
:103FE00031E0912C21912F3F09F4A7C0A22FA29577
:103FF000AF70B0E090968C9190E02F7002C09595D4
:1040000087952A95E2F780FD98C0832F982A330F71
:10401000AE16BF0639F7F701319780818F3F11F057
:104020000E94130950EA5A95F1F7ECE0F0E0EC0F2A
:10403000FD1FE00FF11F90820F5F1F4F043011052D
:1040400009F0AFCF48E050E0BE01645F7F4F84EFDE
:1040500092E00E9404359C01892B49F088E0FE0122
:104060003C96A4EFB2E001900D928A95E1F70091A1
:10407000FD0210E0015F1C4F232B09F460C081E0BA
:1040800080937A0244DB9093790280937802F12C3A
:10409000E0906504EE2009F4ADC01A8219821C82FA
:1040A0001B828091EF028A3008F06EC04CE257E12B
:1040B000BE016F5F7F4FC8010E94DF14882309F49F
:1040C00089C048EE56E1BE016F5F7F4FC8010E9474
:1040D000DF14882309F47EC042E458E1BE016F5F1B
:1040E0007F4FC8010E94DF14882309F473C044E2A3
:1040F00058E1BE016F5F7F4FC8010E94DF14882323
:1041000009F468C01092EF028091FC0290E044E054
:1041100050E0BE016F5F7F4F815F9C4F0E9404356E
:1041200021E020938102892B09F046C0E12C8E2DDD
:104130008F296796ECE00C940C3480E067CFF09008
:104140007A02FF2009F4A3CFC0907802D0907902C0
:10415000DEDA8C199D09059708F499CF44E050E008
:1041600064EF72E0C8010E940435892B59F084E0A5
:10417000E4EFF2E0D80101900D928A95E1F71092F8
:104180007A0286CFF12CFBCFC0907B02D0907C02CC
:10419000BEDA8C199D09843F914008F087CF809149
:1041A0008102882319F284E0FE013196DF011D921D
:1041B0008A95E9F710928102E091FC02F0E0E15F5C
:1041C000FC4F89819A81AB81BC8180839183A283DA
:1041D000B383ADCF8091EF028F3F31F08F5F80933B
:1041E000EF028A3008F490CF92DA90937C028093A9
:1041F0007B02D5CFF80180819181A281B381809328
:10420000830290938402A0938502B093860264E0B7
:1042100070E083E892E00E946D07809382028090B4
:10422000870290908802A0908902B0908A028091C3
:104230007D0290917E02A0917F02B091800288164B
:104240009906AA06BB06B1F080927D0290927E028A
:10425000A0927F02B09280020E94EA06861A970A14
:10426000A80AB90A8092F0029092F102A092F2029A
:10427000B092F3028BE0EBE8F2E0DE0111960190E0
:104280000D928A95E1F780918B0286958695D09064
:104290008C02C0908D02B0908E0200919402109119
:1042A000950210929502112321F110FF10C029816F
:1042B0002370982F990F990F292B298390915B04D4
:1042C00020FF1EC0916090935B0460E0FEDD11FF53
:1042D00006C020E04B2D6C2D8D2D0E941C1212FF6C
:1042E00003C00023D1F0D6DD13FF03C081E080932B
:1042F000470380919602882399F00E94561517CFA4
:104300009E7F90935B040E94900780914C03816094
:1043100080934C030E949707DACF0E949007E4CF66
:104320000E943C1504CFB0E0A0E0E9E9F1E20C9472
:10433000F1337C01DC0114968C91882309F48CC143
:1043400061E0C7010E942B14EC0180916F0188236A
:1043500031F1F7011581C032F2E5DF0708F07EC0C8
:10436000C11522E5D20708F0C2C0C11530E5D30758
:1043700008F069C0C11580E4D80708F0CCC0C115A9
:1043800090E2D90708F0CEC0C83ED10590F5C03EF6
:10439000D105A0F180917A0187FD10927A01D09326
:1043A000A401C093A301D7018D919C911197909383
:1043B000A6018093A501FE013497E533F10508F0CD
:1043C000CAC0E357FE4FE49115968C9120EB811102
:1043D00002C02E2FE0EBADEAB1E090E080E03D912D
:1043E0003213B3C081579E4FDC015E96EC93FE0101
:1043F000B9C0CE019A9581159F4160F2F701848181
:10440000882341F2C730FEE7DF0709F43EC0CE0142
:104410008D5C91094397C8F10E94B3088111BACF0E
:10442000112359F08091700120914D03211181C019
:10443000882309F487C00E94C00C69D99093770142
:1044400080937601A7CFCE0125E0969587952A9592
:10445000E1F78F7099272091700113C0C038B2E541
:10446000DB07B8F4C036E2E5DE0708F040C0C03430
:10447000F2E5DF0708F08ECF20917001CE018F7139
:1044800099272817190609F085CF812F0E949C08CB
:1044900081CFC03E22E5D20718F5C03C32E5D307F4
:1044A00008F478CF20917001CE018F7199272817D9
:1044B000190609F06FCF812F0E949C08D70116962C
:1044C0008C911697807F803509F064CF15968C917A
:1044D0008823D9F080917A01815080937A015ACF54
:1044E000CE01805E9245809708F454CF87CF20910B
:1044F0007001CE018F7199272817190609F04ACF4C
:10450000111148CF0E94AA0845CF0E94AA088091A5
:104510007A018F5FE2CFF7018681807F19F48D2FBA
:10452000992797CFD70116968C91807F09F432CFC7
:1045300065CF30E0082E02C0359527950A94E2F742
:1045400020FF79CF0E940C1676CF01968630910518
:1045500009F045CF4CCFCE019A95FE0181159F41C0
:1045600008F4FF27D70115968C91E93DF105D8F4A1
:10457000E13DF105E0F0682F8E2F0E94400DD7013C
:1045800015969C91992309F4FBC080910C048272CA
:10459000FE01E052F847EB30F10508F0F1C0E358B6
:1045A000FA4C0C946B34E730BEE7FB0751F08823DC
:1045B00031F3FE57E031F10510F7E857FA4C0C944F
:1045C0006B340E94D70ADBCF80E00E94DF18109284
:1045D000A10180E00E94DD0C8AE892E00E94CF0CED
:1045E0002BC02091A10130916F01809171019091B8
:1045F000720162E370E00E94D6338FEF860F9091D4
:10460000A2016091290340919A0120FB47F9522FA2
:1046100056955370330F330F532B282F220F220F31
:10462000220F522B660F660F6C739370692B70E02C
:104630008FE090E00E944E3580914303877061F0D7
:10464000D70115968C91882339F08091000382FF61
:1046500003C082E00E941716CDB7DEB7EBE00C94E2
:104660000D3481E00E94F918E7CF8FEFFBCF8AE08D
:10467000F9CF86EFF7CF90919C0181E089270E94C6
:10468000D70ADACF8091A101811101C084E08F5F48
:1046900018160CF081E0883008F087E08093A101C3
:1046A000CBCF8091A101811101C084E08150F0CF76
:1046B00081E08093A201C0CF1092A201BDCF82E021
:1046C000F8CF90916F0181E089270E94DD0CB4CF73
:1046D0008091710190917201C296893EE3E09E073C
:1046E00008F47CCF88EE93E079CF809171019091AE
:1046F0007201C2978436910508F070CF84E690E08D
:104700006DCF80915B0480FF03C00E94B71294CFED
:10471000816080935B0461E086958695D6DB8CCFC3
:10472000882321F00DDC88CF8823E1F314DC84CFCB
:10473000882329F00E9493127FCF8823D9F30E9407
:104740009B127ACF882329F00E947D1275CF88238F
:10475000D9F30E94881270CF882329F00E94671233
:104760006BCF8823D9F30E94721266CF882329F079
:104770000E94A31261CF8823D9F30E94AD125CCFAF
:104780009E01205E324520323105A8F4911127C0E8
:10479000CF7181E090E0FC0102C0EE0FFF1FCA95CF
:1047A000E2F7EF016E2F83E090E00E943C358C2F02
:1047B0000E94C40A41CF9923D1F180E0CB35FCE7B8
:1047C000DF0751F1CC352CE7D207F9F081E0CA358B
:1047D0003CE7D30709F1C1308CE7D80731F1C3308A
:1047E000ACE7DA07E1F0C115DC4709F510920C04DB
:1047F0000E94570EEFEFF4E32CE0E150F040204030
:10480000E1F700C000000E94D9068091000382FBFE
:10481000882780F991E089270E9437160DCF6FEF26
:104820007FEF90E080E00E9456350E941815F70156
:1048300000811181992309F44CC0C8010E94CE1354
:10484000C82F682FC8010E948E0AB8018C2F0E94C1
:10485000C2130E945D09D82FC92F982ED701159633
:10486000BC9015971696AC90A2948FE0A8228091E8
:104870004303877001F10B2DBB20F1F0892F807F5E
:10488000803469F080E28D0F8830A8F0892F807E17
:10489000803229F4B1E0BD1770F4AA2061F0809154
:1048A000000382FF08C082E00E9417168091430334
:1048B000877001E009F000E08C2F82958F70C82E80
:1048C000D12C8C3008F065C0F601E856FA4C0C94F7
:1048D0006B34C8010E945A0AC82FB7CF1C2F1F7013
:1048E000C07F11F01295107F8D2FBB20B9F01123DE
:1048F00069F090E29D0F983010F0D11109C08091BD
:104900000C04182B10930C040E94190E8D2F3FC01D
:1049100080916D02182B10936D02F6CF0E943C110E
:104920001123B9F1D05ED83010F0911004C0812F5E
:104930000E94480A06C0109580916D0218231093BA
:104940006D020E94190E25C01C2F1F70C07FC0323F
:1049500011F01295107F992051F0E1E09E1609F4B4
:104960005CC0BB2009F468C0AA2061F1CFCF809160
:10497000000382FD23C0BB20D9F0112339F08091C0
:104980000C04182B10930C040E94190E80E00E9456
:104990007311B8E0CB1AD108E4E0CE16D10408F0C8
:1049A00076C10E945A0760E0C7010E942B1454CEC2
:1049B00080E00E943C11112361F3B9CFBB2099F034
:1049C000A11004C0812F0E943311E3CFF1E0AF1298
:1049D000E0CF80916C02912F98231917D1F2182BF8
:1049E00010936C02D6CFA110D4CF812F0E942E112C
:1049F00090916C02812F892329F0812F8095892342
:104A000080936C0280915202912F982309F4C1CFB8
:104A10001095182310935202BCCFBB2029F025E03B
:104A20002A1508F4B6CFCECF34E03A1508F4B1CF4A
:104A3000812F0E942E11ADCFAA20D1F3D93369F472
:104A40008FEF97EEA3E081509040A040E1F700C0C7
:104A500000008D2F0E943C119CCFEFE1FEE43197C6
:104A6000F1F7F5CF8C2F86958695837069F08130AC
:104A700009F08FCF8D2F9C2F9370B11002C080E072
:104A800090E00E940A0785CF8D2F9C2F9370B11064
:104A900002C080E090E00E9432077BCF6B2D8D2F0B
:104AA0000E94400D76CF8C2F837091F5B11071CF9D
:104AB0004D2F429546954770440F440F8D2F8F70B0
:104AC000042E01C0880F0A94EAF72D2F2071D4FF1D
:104AD00007C02FE030E001C0220F4A95EAF7209589
:104AE000C695C695C370C23071F0C33051F0309195
:104AF000FE02C13029F0822B83230E94C40A49CFD1
:104B0000832B822BFACF282B8091FE028227F5CFB0
:104B10008695BB2011F08C2F8170882309F439CF42
:104B20004D2F429546954770440F440F8D2F8F703F
:104B3000042E01C0880F0A94EAF72D2F2071D4FFAC
:104B400007C02FE030E001C0220F4A95EAF7209518
:104B5000C695C695C370C23071F0C33051F0309124
:104B60004D03C13029F0822B83230E94FA1511CF07
:104B7000832B822BFACF282B80914D038227F5CFF0
:104B8000CF70BB2029F08C2F0E942D168D2F1BCFAC
:104B90008D2F0E942E118C2F0E940C16FACE8D2F75
:104BA000F2EF9F16A9F1F91570F020EF9216D1F0EF
:104BB00031EF931691F0BB2009F455C0A110A6CE99
:104BC0008C2F8F7129C093EF991649F1A4EF9A1297
:104BD000F2CF9091000392FD2DC08C2F8F71BB20DE
:104BE000D9F21AC0BB2079F0B4E0BA1508F4D1CEDE
:104BF000CF7181E090E001C0880FCA95EAF79091EB
:104C00004D038927B2CFE5E0EA1508F4C2CEF0CF14
:104C10008C2F8F71B110C0CF0E942D16BACE80E0BC
:104C2000BB2009F4A2CFCF7181E001C0880FCA95E3
:104C3000EAF79BCFBB2061F08C2F8F7192FFECCFF6
:104C4000F8E08F9F90011124236020934303E4CF69
:104C500081E00E94171621E02A1508F09ACE82E022
:104C60000E94171696CEAA2079F0893341F43FEFBF
:104C700087EE93E0315080409040E1F7E8CEAFE11D
:104C8000BEE41197F1F7E3CE8C2F8F7185CF00230F
:104C900009F489CE8091430380FD85CED701159616
:104CA0001C928695869586950E942D16C7013BDB42
:104CB000809143038695869586950E940C1673CE47
:104CC000B0E0A0E0E6E6F6E20C94F53380916B02EA
:104CD000807F09F050C080916A02882309F44BC09C
:104CE000E0915A0487E0D82E809121048E1709F4B0
:104CF00042C00E2F10E0ED9DF0011124EE5DFB4F40
:104D000084818823E9F1D09EE001D19ED00D112449
:104D1000FE01EE5DFB4F918180916602981330C0D9
:104D200090818091650298132BC08581811128C0E4
:104D3000E280F3808091670290916802E81AF90A94
:104D400060E085E692E00E942B140E94A618E81607
:104D5000F906B0F480916B028F70806180936B02D2
:104D6000C85DDB4F88818F708061888385E692E023
:104D7000DADA0E94500ACDB7DEB7E7E00C941134BE
:104D8000F8013196E770B0CFA6E1B0E0EAECF6E2C8
:104D90000C94ED338C0186E0F801DE015196019010
:104DA0000D928A95E1F7D8011496FC901497159608
:104DB000EC9085E6882E82E0982E80916902811120
:104DC00028C0F11003C0FF24F3941BC0EE20F1F0C3
:104DD000C8010E940514F82E8823C1F087E0F8016D
:104DE000A5E6B2E001900D928A95E1F78091690203
:104DF000813031F480916502909166020E94F8132F
:104E00005FDF8F2D6696EFE00C940934C8018BDAD2
:104E1000DACFF801A0805180C280D38060E085E6BF
:104E200092E00E942B14B0906A02809167029091E8
:104E30006802BB2009F4C6C03601681A790A60E02E
:104E400085E692E00E942B140E94A6186816790647
:104E500008F099C0FF2009F4B6CF80916B02382F7B
:104E6000307F20916602D80111969C9111973111E3
:104E70004CC0FE2C291313C0209165029C9129136C
:104E80000EC0E1101CC18F70806180936B0285E6BB
:104E900092E049DA80916B02F8018683B2CFE1108B
:104EA0000EC1652D8A2D0E946405882309F4E6C091
:104EB000CE0101960E946F188B8182FFDFC085E6CC
:104EC00092E031DA87E0E5E6F2E0DF011D928A95B3
:104ED000E9F7F12C96CF2A5F2F70223070F0C801CD
:104EE00022DAEB2CEAC0992319F0882309F4E5C0F3
:104EF000805E883008F4E1C0F2CF803F08F4DDC066
:104F0000815F833008F4D9C0EACF291315C02091FE
:104F100065029C91291310C0E1100EC016968C9367
:104F2000C80101DA87E0F801A5E6B2E001900D9230
:104F30008A95E1F7FB2C65CFC8010E9405148823F0
:104F400009F464CFEE2009F461CF80916B028032C6
:104F500080F020916502309166023A832983DC82D9
:104F6000CB82909169029D831E828F83CE01019630
:104F7000DAD987E0F801A5E6B2E001900D928A95B2
:104F8000E1F79EDE20CF80916B02982F907F09F48D
:104F900096CFFF2009F417CF20916602F801918186
:104FA0002913CACF2091650290812913C5CFE11042
:104FB000C3CF8683C801B7D987E0D4011D928A95F3
:104FC000E9F7B8CF5601A81AB90A60E085E692E081
:104FD0000E942B140E94A618A816B90608F048C013
:104FE000FF2009F4F0CEFE2CEE2009F40FCF9091B3
:104FF0006602F801818198132EC09091650280812C
:10500000981329C08091670290916802C81AD90A42
:10501000F8ECCF16D104B0F480916B0280FD12C081
:10502000982F907F79F0D80116968C931697903F21
:1050300039F0982F907F905F8F70892B16968C9304
:10504000C80171D987E0F801A5E6B2E001900D92A0
:105050008A95E1F7D6CEC8010E940514811189CF47
:1050600080916B02816080936B02C8015CD9C9CECC
:1050700087E0F40111928A95E9F72BCF652D8A2DEF
:105080000E946405E82E8111BCCEA98A5A8A8989BA
:105090009A890E94F813292F22952F70903408F0D6
:1050A0001ACF9F70223008F41ECF992309F420CF25
:1050B000F8019681907F09F01BCFFE2CA2CE809143
:1050C0006B02816080936B0204CFABE1B0E0EBE652
:1050D000F8E20C94F9334E8B5F8B688F798F8A8F4F
:1050E0009B8F911110926D021D8A86E0FE017696CB
:1050F000DE011F9601900D928A95E1F78B89882336
:1051000051F061E0CE010F960E942B1461E0CE01B8
:105110000F960E942B1487E0FE013F96DE01189641
:1051200001900D928A95E1F7CE0108962DDE81114E
:105130000CC087E0FE013896DE01119601900D92B9
:105140008A95E1F74C8541110BC017E080915A0414
:1051500090912104891334C06B96E3E00C941534CC
:105160002091210430E0C901019687709927509160
:105170005A0458171906A1F04D8397E0929FD00169
:10518000939FB00D1124AE5DBB4FFE01319601908F
:105190000D929A95E1F7809321040E94500AD5CF91
:1051A00010920C040E94570E1092210410925A047F
:1051B00087E0E5E6F2E0DF011D928A95E9F7C5CFC9
:1051C000819FC00111248E5D9B4FDEDD882321F27B
:1051D00080915A0490E001968770992780935A0431
:1051E000B5CFA6E0B0E0E7EFF8E20C94F8330E9408
:1051F000871B8C018091760290917702801791072E
:1052000079F019821A820E94871B682F49815A817E
:10521000792F80E090E059DF1093770200937602B7
:105220002696E4E00C9414341F921FB61F921124AA
:105230008F939F93AF93BF9380910604811113C006
:105240008091070490910804A0910904B0910A0488
:105250004196A11DB11D8093070490930804A0936B
:105260000904B0930A04BF91AF919F918F911F9051
:105270001FBE1F901895CF93DF93EC010E94871BF0
:105280008C1B9D0BDF91CF910895CDB7DEB7C8552C
:10529000D1090FB6F894DEBF0FBECDBF85B78068C9
:1052A00085BF85B7806885BF84B7877F84BF0FB609
:1052B000F894A895809160008861809360001092B6
:1052C00060000FBE80E890E00FB6F8948093610014
:1052D000909361000FBE81E08093890186EE98E093
:1052E00090932502809324020E9482050E94230647
:1052F0008091E20084608093E200789480911704AA
:105300008823A1F01091E9001F709091EC00892F83
:10531000817090FD80E8182B1092E9008091E800E0
:1053200083FD0E94670E1F701093E90082E084BD28
:1053300093E095BD9AEF97BD80936E001092F002B6
:105340001092F1021092F2021092F30288EC90E0B7
:105350002091E300122F111F1127111F27FD0CC0F0
:10536000AFE3BCE91197F1F700C00000019781F7A6
:105370000E948205109217041093650425982D9AB7
:10538000869A8E98B5E0BA95F1F7000083B185FB57
:10539000882780F986988E9AE0EAEA95F1F780935B
:1053A000660480930001882309F45CC210928A018C
:1053B00086E180938B018091650481110E94823285
:1053C000809100018091000194E0811190E0909320
:1053D000FD0284E0891B8093FC0284EF0E94130984
:1053E00085EF0E94130986EF0E94130987EF0E9440
:1053F000130902EF11E068EFE62E61E0F62ED80106
:105400008D918D018F3F11F00E941309E016F10676
:10541000B1F788E0EFE0F3E0DF01082F1D920A9575
:10542000E9F7E4EFF2E0DF011D928A95E9F790E0F9
:1054300080E00E943735833E9E4F59F163EE7EEF48
:1054400090E080E00E94563560E082E090E00E94AB
:105450003C3581E08093FE0261E083E090E00E94B1
:105460003C3560E074E184E090E00E9456350E9493
:10547000C7120E94011340E050E0BA018FE090E0B3
:105480000E944E3540E050E0BA0183E190E00E9476
:105490004E3582E090E00E942A358093020384E03A
:1054A00090E00E943735909300038093FF0283E0E1
:1054B00090E00E942A350E94C40A80914D030E9408
:1054C000C70A182F0E94E315982F81E0191380E076
:1054D0000E94D70A80916504882309F4C8C180E03E
:1054E00080936E0380E880936704ACD66BE070E035
:1054F00089ED91E00E942F15882309F445C0809121
:105500006E0365E070E081FDB4C184ED91E00E941E
:105510002F158823C9F16DE070E082EC91E00E94C4
:105520002F15882389F10E94EA0665966CAF7DAF3E
:105530008EAF9FAF6597DC01CB01805A9541AF4F8D
:10554000BF4F8093700390937103A0937203B09345
:105550007303EAE6F4E080E092E0DF018C011D9243
:1055600001501040E1F7F0937106E09370068FEF61
:105570009FEF909369048093680481E080937703A0
:105580008093740310926F038091010381113AC0DC
:105590008BE594E00E94391380914C0383608093E3
:1055A0004C0380915B048C7F71F40E94C7128BE5E1
:1055B00094E00E94391380915B04982F9C7F837044
:1055C0008460992331F080915B04843220F08370F1
:1055D000806280935B0480915E04873918F086E9CD
:1055E00080935E040E9490070E948E0780915B0466
:1055F00080FF05C060E0869586950E94651F81E06A
:105600008093010380916504811101C07ED70E94BF
:10561000FE19882309F430C183E080933B03809115
:10562000650481112EC08DEC98E090935001809319
:105630004F0129E130E030934B0120934A0189E387
:1056400090E090934E0180934D0142ED58E05093CD
:105650005801409357013093530120935201909386
:1056600056018093550146EF58E1509360014093F5
:105670005F0130935B0120935A0190935E01809308
:105680005D0190E080E00E943735833E9E4FC9F572
:105690008FE090E00E943235F62E172F082F862FCC
:1056A0008F770E94DF18FF1CFF24FF1C612F63709F
:1056B000660FF62AF092A10112FB882780F90E945A
:1056C000DD0C812F887F09F4D9C0169516951695A3
:1056D000212F30E02F5F3F4F42E3429FC001439FA5
:1056E000900D11240E94CF0C802F83708093A20113
:1056F000802F869586958F708B3008F08AE0809396
:1057000029030E942D05CE0101960E946F188C81FD
:1057100090917001891721F0809370010E94C00C54
:105720008D819E810E94CF0C8B8186FB882780F91A
:1057300091E089270E94DD0C8F8180936D0181E6C5
:1057400091E090936404809363048FE093E058E0C9
:10575000252E280E2E0123E0420E511CEE24E39448
:10576000FF24F394772473948091170410E400E1EC
:1057700042E1D42E853009F4BCC00E94B51F03E07D
:1057800013E03FE0C32E33E0D32E88EF91E0639621
:105790009FAF8EAF63979C01B601F8019191DB0139
:1057A0008D91BD01D9014D919D0184234BE053E0C2
:1057B0004E175F0709F4A9C0981781F3309065046C
:1057C00088EF91E067969FAF8EAF6797AFE0B3E049
:1057D0006996BFAFAEAF6997A12C6996EEADFFADEC
:1057E0006997B1906996FFAFEEAF69976796AEADD6
:1057F000BFAD67978D916796BFAFAEAF6797B82281
:10580000F80161908F016B1421F16B24912C882495
:105810008394862D8821A9F0332099F09982AA8259
:105820000E94871B9C838B837D8291E08B2D882136
:1058300009F490E09E8349815A816B817C818D813E
:1058400044DC9394880CF6E09F12E3CFF801319783
:10585000B082A39428E0A212C0CF0E942C09662433
:10586000639457C086E180938A0188E1A2CD82E0EB
:1058700037CE8FEC91E04BCE81E0CFCE8AE892E03C
:1058800031CF80911704843039F10E943C150E9479
:10589000C01D1092060448E150E00FB6F894A89598
:1058A000409360000FBE1093600083B7817F8460D7
:1058B00083BF83B7816083BF7894889583B78E7FD9
:1058C00083BF0FB6F894A89580916000886180939B
:1058D0006000109260000FBE0E94B51FA8EFB1E0FB
:1058E000EFE0F3E081919D91892309F03BC32E12F3
:1058F000F9CF80911704853009F4C3CF10920C04BE
:105900000E94570E0E945A0738CF981357CF69DC70
:10591000612C80914B03882309F464C080914A0371
:10592000E0915B04E695E695E81BE0934603823040
:1059300009F063C0F0E0E951FE4FE4910E2F10E052
:1059400020E8A22E28E0B22E80914703882361F040
:10595000109247030E94411F909345038093440394
:1059600010924903109248030E94411F9C01E0914C
:105970004403F09145038E1B9F0B8F3F9F4790F58B
:1059800080910D038823B1F010920D0380910B03D9
:1059900090910C03281B390B2F3F3F4758F4805D33
:1059A0009A4890930C0380930B0380914C0388607A
:1059B00080934C0380904803909049030E0F1F1F63
:1059C000109345030093440384E493E0F5010995A3
:1059D0008091480390914903892B21F4892811F083
:1059E000F0920D030E94C01D8823D9F00E942C095B
:1059F0000E94931B0E94561518C0863059F4F0E09F
:105A0000EC51FE4FE4910E2F10E091E7A92E98E0A3
:105A1000B92E9ACF00ED17E087EDA82E86E0B82EBC
:105A200093CF0E94931B6110E5CF0E945A0790917B
:105A30000E03891721F080930E030E94EA068091DD
:105A40001704843009F4B9C080916504882309F4EF
:105A50008BCE0E94EA06462F572FBC01809130035F
:105A6000811146C080912C0390912D03A0912E03AB
:105A7000B0912F038A019B01081B190B2A0B3B0BCA
:105A8000D901C801843F9140A105B10588F1409337
:105A90002C0350932D0360932E0370932F0380915A
:105AA0002A0390912B03019690932B0380932A0352
:105AB00019828E010F5F1F4F21E050E040E060E04F
:105AC00089E00E949716811106C080912A03909167
:105AD0002B030A976CF081E0809330038093900150
