:100000008AC40000A5C40000A3C400000C94AB3255
:100010009FC400009DC400009BC4000099C4000060
:1000200097C4000095C400000C9400140C941B1895
:100030000C94C6288DC400008BC4000089C4000045
:1000400087C4000085C4000083C4000081C4000090
:100050007FC400000C94E8147BC4000079C4000045
:1000600077C4000075C4000073C4000071C40000B0
:100070006FC400006DC400006BC4000069C40000C0
:1000800067C4000065C4000063C4000061C40000D0
:100090005FC400005DC400005BC4000059C40000E0
:1000A00057C4000055C4000053C4000005010902F4
:1000B000A10185020901A1000509190129081500FE
:1000C0002501950875018102050109300931158165
:1000D000257F95027508810609381581257F9501D0
:1000E00075088106050C0A38021581257F95017572
:1000F000088106C0C005010980A101850319012AF4
:10010000B700150126B700950175108100C0050CD8
:100110000901A101850419012AA002150126A002E6
:10012000950175108100C00660FF0961A101096297
:10013000150026FF00952075088102096315002629
:10014000FF00952075089102C005010906A101056F
:100150000719E029E7150025019508750181029529
:1001600001750881010507190029FF150026FF0008
:100170009506750881000508190129051500250156
:10018000950575019102950175039101C061626346
:100190006465666768696A6B6C6D6E6F70717273A7
:1001A0007475767778797A31323334353637383931
:1001B00030524542545F2D3D5B5D5C233B27602CF4
:1001C0002E2F00DA0281FFD9F1DB20A4A62EAF008A
:1001D000A0C0D30000A1C8D30000AED580A81F40A6
:1001E0008D14200000AF00AE202000BABB004B658C
:1001F0007920B10020C0C100BEBF00484F00565456
:10020000003030200020202020B1BCBD0042616CB5
:100210006CB100B4B500B2B300C2C3004CB6B77243
:10022000B1002020002D002700260000002500241A
:1002300000230000002F001300120000000C001823
:10024000001C000000340033430F0000000E000DBE
:10025000000B000000870238003700000036001055
:1002600000110031008943E500E2000000E3009145
:10027000412A42284129001E001F000000200021C1
:1002800000220000002B0014001A000000080015D6
:100290000017000000E0000400160000000700093D
:1002A000000A00000039001D001B000000060019B4
:1002B00000050030004A00E100E2000000E3009188
:1002C000432C00904245004400430000004200419E
:1002D00000400000000000000000000000D300000B
:1002E000000000000000002352D20000005200D1A4
:1002F0000000000000000000004F0000005100500E
:10030000000000000000000000270000003700018E
:1003100000010001003A003B003C0000003D003EAF
:10032000003F00000000000000000000000000008E
:1003300000000000000000000000000000000000BD
:1003400000000000000000000000000000000000AD
:10035000000000000000000000000000000000019C
:100360000001000100000054006100000060005F17
:100370000000000000000055005E0000005D005C11
:100380000000000000000056005B0000005A005909
:1003900000000000000000570058000000630062E9
:1003A000000000000000000000010000000100014A
:1003B000000100010001000000000000000000003A
:1003C000000000000001000000000000000000002C
:1003D000000000000001000000000000000000001C
:1003E000000000000001000000000000000000000C
:1003F00000000000000100010001000000010001F8
:1004000000010001000000000000000000000000EA
:1004100000000000000000000000000000000000DC
:1004200000000000000000000000000000000000CC
:1004300000000000000000000000000000000000BC
:10044000000000000000000000300A2F0A30080100
:100450000800000000000000000000000000000094
:10046000000000000000000000000000000000008C
:10047000000000000000000000000000000000007C
:10048000000000000000000000000000000000006C
:10049000000000000000000000000000000000005C
:1004A000000000000009025B00030100A0FA09043B
:1004B00000000103010100092111010F0122440084
:1004C0000705810308000109040100020300000080
:1004D00009211101000122220007058203200001E9
:1004E00007050303200001090402000103000000C6
:1004F000092111010F01227B00070584032000015F
:100500001201000200000008575900010001010219
:10051000000114034B0065007900620061006C006B
:100520006C00360031000000100359006F007700A6
:100530006B006500650073000000040309040000FF
:100540000000000000002F0000000007000700006E
:10055000123F123F1200242A7F2A120036091E245D
:100560001B00182629122800000007000000001EAA
:10057000214000000040211E000014083E08140025
:1005800008083E080800000030700000080808084D
:10059000080000003030000020100C0201001E296D
:1005A00025231E0000223F20000022312929260099
:1005B000122125251A001814123F10001725252591
:1005C00018001E25252518000131090503001A25EC
:1005D00025251A00062929291E00000033330000B2
:1005E00000003373000008141422220014141414A1
:1005F00014002222141408000201290502003E59A9
:10060000555D3E003816111638003F2525251A0085
:100610001E21212112003F2121211E003F252525D9
:1006200021003F09090901001E2121291A003F0468
:1006300004043F0000213F210000102020201F0063
:100640003F040C1221003F20202020003F02040222
:100650003F003F020C103F001E2121211E003F09D8
:10066000090906001E2129112E003F09091926003B
:1006700012252529120001013F0101001F20202021
:100680001F000718201807000F300C300F00211230
:100690000C12210003043804030031292523210012
:1006A000007F4141000001020C1020000041417F09
:1006B00000000402010204004040404040000001EC
:1006C00003040000102A2A2A3C003F2422221C0096
:1006D0001C22222224001C2222243F001C2A2A2A17
:1006E0000C0000043E0505000C5252543E003F0829
:1006F0000404380000003D0000002040403D0000A0
:100700003F080814220000013F2000003E023C0286
:100710003C003E0402023C001C2222221C007E14EB
:1007200022221C001C2222147E003E04020204002D
:10073000242A2A2A120000021F2200001E20201054
:100740003E000618201806000E300C300E00221451
:10075000081422000E5050483E0022322A26220061
:1007600008087741410000007F0000004141770800
:100770000800180408100C00000000000000000031
:1007800000000000000000000000C0F0F88C86C6E9
:10079000E7FFFFFFFFFFFFFEFCFCF8E0800000002A
:1007A000F0F0F00000C0E0F0707000000000000009
:1007B0000000000000000000000000000000000039
:1007C000F8F8F80000000000000000000000000041
:1007D000000000000000F8F8F80000F8F8F8000049
:1007E00000000080E07078686C64C7C7C7C7C7C7DF
:1007F000E73F1F0F3FFFFFFFFFFFFF3F0F0000001E
:10080000FFFFFF1E3FFFF3E1800000F8FCFE3636DD
:10081000363EBCB8000E3EFEF080F0FE3E0E0000FC
:10082000FFFFFF060606FEFEFC7000E6F6F6363613
:10083000FEFEFC000000FFFFFF0000FFFFFF0000C6
:1008400000003C7F6360E0C0C0C0C0C0C0C0C0FF4B
:10085000FFC06030180F0303030100000000000018
:100860000303030000000303030300010303030366
:1008700003030301007070393F1F070100000000EF
:100880000103030303030303010000010303030344
:10089000030301000000030303000003030300102F
:1008A000101000000000550000003E635D5D637F96
:1008B000417B77413E00001C22221C003E0A003E84
:1008C0000A00322A3C0026281E001C2A2C000000A8
:1008D0003F09360000001E212100000000003F08F3
:1008E00037001E2121001E2121003F090600213F63
:1008F0002100222519001E2121003F0936003F2139
:100900001E00213F21000F300F003E093E003F0630
:100910003F003F20200011241FBECFEFDAE0DEBFF2
:10092000CDBF12E0A0E0B1E0E4EAFAE602C0059033
:100930000D92AC30B107D9F725E0ACE0B2E001C0D0
:100940001D92A93EB207E1F70E94F7280C941435D6
:1009500057CBE091CF03F091D003309739F0028468
:10096000F385E02D309711F060E209950895982FF6
:10097000E091CE034091950357E0E41302C080E07C
:1009800008952E2F30E05E9FF0011124EA56FC4FAF
:100990008181681306C08081981303C0858181110D
:1009A000EFCFF9013196E770E8CFE8EDF0E0808114
:1009B0008E7F80831092E2001092DA001092E100A4
:1009C000A0EEB0E08C9181608C9380818F778083E2
:1009D00019BCA7EDB0E08C918E7F8C9380818F7EC7
:1009E000808310927F0308952091E4003091E50008
:1009F00095E6A9012091EC00822F817020FF06C0AE
:100A00008091E80080FF06C080E008952091E80012
:100A100022FD1AC080918B03882389F0853089F0EC
:100A20008091EB0085FD0FC02091E4003091E5003E
:100A300042175307F9F29150E1F684E0089582E0FD
:100A4000089583E0089581E0089580918D0387FFE4
:100A500013C08091E80082FF06C08091E8008B7788
:100A60008093E80004C080918B038111F2CF089538
:100A700080918B038823D9F38091E80080FFF8CF21
:100A80008091E8008E77ECCF982F9093E900242F87
:100A9000762F50E0891731F07091EC002091ED0035
:100AA0005091F00021FD07C09F5F973071F7809350
:100AB000E90081E008953091EB003E7F3093EB0038
:100AC0003091ED003D7F3093ED003091EB003160CF
:100AD0003093EB007093EC002093ED005093F00006
:100AE0002091EE0027FDE0CF80E00895B0E0A0E087
:100AF000ECE7F5E00C94DA33C8EDD0E088818F7E26
:100B00008883E7EDF0E080818160808384E082BFAC
:100B100081E080937F0388818E7F888302EE10E0DE
:100B2000F80110821092DA0081EEC82ED12CF60165
:100B3000108288818F778883888180688883888104
:100B40008F7D888319BC10928B0310928C031092B6
:100B50008A031092890390EEE92EF12CF70180812F
:100B60008B7F808388818160888342E060E080E0C1
:100B70008BDFF60180818E7F8083F8018081816028
:100B80008083808188608083F70180818E7F80836D
:100B9000888180618883CDB7DEB7E8E00C94F633B6
:100BA000FC01CB0120919303309194032617370762
:100BB00090F0009729F42091E8002E772093E80028
:100BC00040E0009751F4411108C08091E80082FF95
:100BD00031C080E00895C901F3CF20918B03222317
:100BE000A9F12530A9F12091E80023FD2DC0209125
:100BF000E80022FDEACF2091E80020FFE2CF30910B
:100C0000F3002091F200009719F02830310558F0D8
:100C100041E02830310509F040E02091E8002E77CE
:100C20002093E800CECF41914093F10001972F5FD0
:100C30003F4FE9CF80918B03882341F0853041F00D
:100C40008091E80083FFC1CF81E0089582E008959C
:100C500083E00895089587E797E7909301088093CC
:100C6000000888E19AE00FB6F894A8958093600098
:100C70000FBE90936000FFCFA4E0B0E0E2E4F6E0A6
:100C80000C94E0338FB7F89420917B0330917C0370
:100C900040917D0350917E0329833A834B835C838B
:100CA0008FBF69817A818B819C812496E2E00C94CC
:100CB000FC338091AE010895DC01FB0111969C91FB
:100CC00011978181981322C012968C9112978823D4
:100CD00019F0928189131AC013968C911397882367
:100CE00019F09381891312C015968C91159788235A
:100CF00019F0958189130AC014969C91992321F0CB
:100D000081E02481291303C080E001C081E081706B
:100D10000895A3E0B0E0EFE8F6E00C94E0339C0126
:100D2000809178039091790382179307B1F0309303
:100D3000790320937803E091CF03F091D0033097AB
:100D400061F00084F185E02D309739F084E08983EB
:100D50003B832A83CE01019609952396E2E00C9409
:100D6000FC33A3E0B0E0E7EBF6E00C94E0339C0149
:100D7000809176039091770382179307B1F03093B7
:100D8000770320937603E091CF03F091D00330975F
:100D900061F00084F185E02D309739F083E089839C
:100DA0003B832A83CE01019609952396E2E00C94B9
:100DB000FC33DC01E091CF03F091D003309759F080
:100DC00086819781892B39F082E08C930680F781A8
:100DD000E02DCD010995089580917403882369F071
:100DE000E091CF03F091D003309739F00190F0817A
:100DF000E02D309711F00995089580E008958091D5
:100E0000690380FD16C081FD16C082FD16C0809169
:100E100068038823A1F0883280F428E0829FC00113
:100E2000112468E270E00E942234862F672B39F08B
:100E3000089582E0089584E0089588E0089581E0AF
:100E400008958091690380FD14C081FD14C082FD66
:100E500016C080916703882381F08E3180F420E5ED
:100E6000829FC00111246EE170E00E942234862F1F
:100E7000089584E1089588E2089588E0089580E562
:100E80000895282F35EB2303C001112497FF04C0D8
:100E900080589109892F089580589F4FFBCFFC01FE
:100EA000680F791F8FEF91E32191822728E030E0CE
:100EB00087FF09C0880F892721503109C9F7E61734
:100EC000F70791F70895880FF7CF9091A101882334
:100ED00041F09F5F9093A10110929E0110929D019D
:100EE00008959150F7CFE6E9F1E0828591E08927F6
:100EF000828710861782089580919F01811114C006
:100F00008091A101811110C08091A00181110CC0BC
:100F100090913B0396959695969581E02091970147
:100F2000921380E08170089581E0FCCF809171017F
:100F3000F90180830895CF93DF93E1E7F1E08381A6
:100F40009481A581B681E90188839983AA83BB83B3
:100F50001482138216821582DF91CF91089580E06A
:100F6000089563E070E085EA92E099DF9091A40231
:100F7000891318C0E091A502EB30A4F488E0E802E0
:100F8000F0011124E65FFE4F0680F781E02D3097D7
:100F900049F028EC32E04091A70268EA72E08091C3
:100FA000A60209950895EAE0F1E0A9E9B2E01D96EC
:100FB0008C911D9780A71E968C9183AF0895A4E015
:100FC000B0E0E5EEF7E00C94E03380917403882301
:100FD00069F052DE69837A838B839C8369817A818D
:100FE0008B819C812496E2E00C94FC3345DE69837E
:100FF0007A838B839C838091F9029091FA02A0916D
:10100000FB02B091FC0229813A814B815C81280F5F
:10101000391F4A1F5B1F29833A834B835C83DECFD2
:10102000811522E5920708F04AC0811530E5930743
:1010300008F0C5C0803E910540F58D3C910508F053
:101040009AC0883A910580F4853A910508F090C0DD
:101050008130910541F09C0124503109213A31053C
:1010600010F090E080E008959C01285A31092B315E
:101070003105B8F7885AE82FF0E0EE0FFF1FED5466
:10108000FE4F8081918194640895811540E4940716
:1010900098F4811550E2950708F0ABC0883E9105A1
:1010A00010F39C013A9521153F41D8F620E0392FE5
:1010B000A901482BCA0108959F70906A089580384D
:1010C00052E59507B8F5803622E5920708F05CC036
:1010D000803432E59307C8F4803242E5940708F083
:1010E0004CC0282F2695269550E2259F900111246B
:1010F000482F437081E090E002C0880F991F4A9505
:10110000E2F7822B932B9D680895282F269526952C
:10111000277040E2249F90011124482F437081E002
:1011200090E002C0880F991F4A95E2F7822B932B1B
:101130009C680895803C52E5950760F4282F2F7134
:10114000803A9245B0F5822F90E0982F8827846FDF
:10115000906A08959C01205C32452032310508F0E8
:1011600080CF982F882788279F71806F906A089575
:10117000849790640895906508958F7190E0982FFA
:101180008827816F906A0895282F269526952770C5
:1011900050E2259F90011124482F437081E090E098
:1011A00002C0880F991F4A95E2F7822B932B9A6809
:1011B0000895822F90E0982F8827906208959C01CF
:1011C00095E0369527959A95E1F72F7030E0322F0C
:1011D0002227482F4F7150E084FF06C084E0440F5F
:1011E000551F8A95E1F75527C901842B952B9069E6
:1011F00008959F71E2CF982F909580918003892365
:101200008093800308958091CE0390919503981365
:1012100001C008958F5F8770FACF9A3078F58830D3
:1012200068F548E0949F90011124280F311D682F24
:10123000677083E0369527958A95E1F7F901EE0FFF
:10124000FF1FE20FF31FE859FD4F30E020E080E080
:10125000419150E0062E02C0569547950A94E2F758
:1012600041705527022E01C0440F0A94EAF7842BDF
:101270002F5F3F4F2330310559F7089580E00895DF
:10128000282F9A3090F5883080F538E0939FC00180
:101290001124820F911D277041E001C0440F2A954F
:1012A000EAF723E0969587952A95E1F7FC01EE0F82
:1012B000FF1FE80FF91FE859FD4F30E020E070E014
:1012C0005191DF011197CB01022E02C096958795AF
:1012D0000A94E2F7817081958527842385278C9372
:1012E0002F5F3F4F2330310559F708958093FF0258
:1012F0000895982F82958F7011F0982F84E0292FF0
:101300002695269511F08E5F922F969509F08F5FA6
:1013100008959C019A9581159F4150F5D901AA27FE
:10132000B170F901EE27F270B90166277470A90156
:101330004427587034FF0EC080E1AB2B09F480E0E5
:10134000EF2B09F08062672B09F08064452B89F050
:101350008068089581E0AB2B09F480E0EF2B09F061
:101360008260672B09F08460452B19F0886008952E
:1013700080E00895CF93C82F80917E018C1749F0AB
:101380007BDC60937F017093800180938101909357
:101390008201C0937E01CF910895ACE0B0E0E3ED0F
:1013A000F9E00C94D2336C017B01DC011296ED91D3
:1013B000FC9113978D919C91222309F450C02091A8
:1013C0008301211101C024E02150330B32E0832E30
:1013D000912C02C0880C991C2A95E2F7B4010E9456
:1013E00022349B01D6018D939C93CF01B4010E94BE
:1013F0002234F601938382836138FFEF7F0704F183
:1014000060387105FCF4D70115966C932138BFEF55
:101410003B07D4F020383105CCF4822F8195F701B9
:101420008483442319F0619565832483809184012A
:10143000882371F0813081F02C96E0E10C94EE333A
:1014400061E8E1CF6FE7DFCF21E8E7CF2FE7E5CF16
:10145000D70115961C92F0CFF7011482EDCF21E051
:101460002427411106C0F195E195F10991958195E7
:101470009109022F10E044E0249F90011124D9012A
:10148000AB5CBD4F6D917C911197AB0177FF02C0B2
:101490004D5F5F4F55954795559547954F01841A78
:1014A000950AA401460F571F4D935C93F901EB5C1D
:1014B000FD4F42815381BA0157FF02C06D5F7F4FDC
:1014C00075956795759567955C01A61AB70AA40E80
:1014D000B51EBA82A982F901EB5CFD4FB382A282EC
:1014E0002081318137FF02C02D5F3F4F3595279511
:1014F0003595279549815A8157FF04C04D5F5F4F4D
:101500005A83498369807A80759467947594679447
:1015100050901A0353E0000F111F5A95E1F7552020
:10152000A9F0A90137FF04C044275527421B530BDC
:10153000C30177FE04C088279927861997094817A1
:1015400059070CF4AC0141155105B9F4F801EB5DF4
:10155000FD4F10821182128213821482158216822C
:101560001782D70112962C93129713966C92F6015C
:1015700011821082138212825FCF0B5D1D4FDA0140
:101580000E94573469837A838B839C83F80180811E
:101590009181A281B38189809A80AB80BC80880EC2
:1015A000991EAA1EBB1E89829A82AB82BC829A01B6
:1015B000D3010E9457346D837E838F839887848103
:1015C0009581A681B7812D813E814F815885280F55
:1015D000391F4A1F5B1F2D833E834F835887652D1C
:1015E00070E080E490E00E9422344B01770FAA085B
:1015F000BB0869817A818B819C81A50194010E943D
:10160000353429013A01D8016D937D938D939C93D4
:1016100013976D817E818F819885A50194010E9429
:10162000353429833A834B835C83A5019401698116
:101630007A818B819C810E9407344B015C018D81F2
:101640009E81AF81B88588199909AA09BB09F8015B
:1016500084839583A683B78321E83FEFF1E84F1693
:10166000FFEF5F066F067F063CF020E8421651044C
:1016700061047104E4F4920149815A816B817C8197
:1016800091E8692E77247A9441388FEF58076807DC
:1016900078070CF466CF69807A804038510561057F
:1016A00071050CF45ECF8FE7682E712C5ACF2FE7AF
:1016B00030E0E2CF8F708A3010F4805D0895895A4F
:1016C000089520E297FF04C09195819591092DE23C
:1016D000EAE0F0E0BF010E942234805D80932302A3
:1016E0006115710559F42093220220E22093210212
:1016F00020E22093200280E292E00895CB01BF0116
:101700000E942234805D809322026115710571F37D
:10171000CB01BF010E942234805D80932102E9CF7A
:10172000AC01860F971F57FD07C077FD04C097FFD8
:1017300002C08FEF9FE7089577FFFDCF97FDFBCFA6
:1017400080E090E80895E82FE295EF70F0E031A195
:10175000282F2F7081E090E001C0880F2A95EAF7CA
:10176000932F982B91A392A18095892382A308950A
:10177000E82FE295EF70F0E041A18F7021E030E0BA
:10178000B90102C0660F771F8A95E2F7CB01962F49
:101790009095942391A392A1892B82A30895B0E000
:1017A000A0E0E5EDFBE00C94DA33F82EE92E8B0196
:1017B0008091DC05CC24C394D12C8A3018F48AE0C3
:1017C000C82ED12CC1E0D0E062EE75E08F2D9E2DA9
:1017D000F8010995811104C02196CC16DD062CF480
:1017E000CDB7DEB7E8E00C94F633CC9F9001CD9FE7
:1017F000300D300D112490E080E045E34A95F1F77B
:101800000000019682179307C1F7DECF0F931F9355
:10181000CF93DF938B01EA0190918B03943059F5BC
:101820008093E9008FEF9091E800815095FD06C00C
:1018300095ED9A95F1F700008111F5CF8091E800C0
:1018400085FF19C0D1D8811111C08091E80085FDB4
:1018500006C08091E8008E778093E800F3CFF8010E
:1018600081918F018093F100219779F78091E800B1
:101870008E778093E800DF91CF911F910F910895AB
:10188000BC0143E050E084E0C1CFBC0146E050E041
:1018900084E0BCCFCF93DF93D82FC92F48E050E02E
:1018A000682F792F81E0B2DF88E0ED2FFC2FA1E8CF
:1018B000B3E001900D928A95E1F7DF91CF91089501
:1018C000792F603229F440E250E0682F82E09ECF09
:1018D0000895EFE9F1E083E0DF011D928A95E9F7D1
:1018E000EBE9F1E084E0DF011D928A95E9F70895C4
:1018F0009C0180919801909199018217930729F09A
:101900003093990120939801E4CF08959091960126
:10191000981719F080939601DCCF0895CF9366E273
:1019200073E085E393E0C8D9C82F882319F085E3D5
:1019300093E03FDA9091360386E0E5E3F3E0DF01E0
:10194000282F1D922A95E9F790933603A6E2B3E07B
:1019500001900D928A95E1F781E0C11103C09111C8
:1019600001C080E08170CF910895CF93DF93282F3D
:1019700081E02A3019F02D3029F480E088D0DF9101
:10198000CF9108958091DA059091DB0536E0FC0156
:10199000A4EDB5E001900D923A95E1F730EE320FEB
:1019A000343A08F458C026E0FC0111922A95E9F770
:1019B000C091DA05D091DB0546E050E0BE0184ED30
:1019C00095E00E94A7349E01245D3340892B41F1AC
:1019D000C90145E0969587954A95E1F741E050E0C9
:1019E000BA0102C0660F771F8A95E2F7CB016091BA
:1019F000D2037091D303862B972BB9016B5F7F4F76
:101A0000E5E076956795EA95E1F702C0440F551F2A
:101A10006A95E2F7842B952B9093D3038093D2039E
:101A20002A5F3F4F4091D103642F70E0C9010E94AB
:101A3000BC33481B463010F4240F311D211572E0D1
:101A4000370710F030E020E02C523C4F3093DB059C
:101A50002093DA0594CF2052330B46E0429FB00129
:101A6000439F700D1124625C7A4F46E050E00E9463
:101A70009E349ECFCF93DF93EC01FE0184918111C0
:101A800003C0DF91CF91089570DF2196F6CFCF93F9
:101A9000382FE091DA05F091DB05E45DF340209109
:101AA000D103622F70E0CF010E94BC33281B822F2C
:101AB000332359F066E00E941634C82FC15010F449
:101AC000CF91089580E251DFF9CF9F01280F311D9A
:101AD0002115324018F080E0F0E0E0E08E0F9F2FFB
:101AE000911D8C529C4F9093DB058093DA05E8CFD3
:101AF0008091800390918E02892B90918D02992381
:101B000089F0892B90E020E132E0F90140812F5FDC
:101B10003F4F41119F5F42E026313407B1F79111E9
:101B200010928D0280930E0248E050E06FE872E060
:101B30008EE092E00E94A734892BB9F088E0EEE0B5
:101B4000F2E0AFE8B2E001900D928A95E1F7E09102
:101B5000CF03F091D003309741F00280F381E02D64
:101B6000309719F08EE092E009950895882339F0B6
:101B7000809590918E02892380938E02B9CF08952B
:101B8000882331F090918E02892B80938E02B0CF02
:101B90000895882311F02FDBABCF0895882331F00F
:101BA00090918003892B80938003A2CF08950F9397
:101BB0001F93CF93DF93EC01FC0101900020E9F724
:101BC0008F0101501109C017D10728F0DF91CF9183
:101BD0001F910F9108958991C8DEF5CF1F93CF9380
:101BE000DF93C62F122F632F8430D8F4CA30C8F485
:101BF0004830B8F490E1C99FE001112450E0440F4F
:101C0000551FC40FD51F90EA899FC00DD11D112407
:101C1000CE0185960E94DF34612FCE0186960E9408
:101C2000DF34DF91CF911F910895AF92BF92CF9291
:101C3000DF92FF920F931F93CF93DF93B12CA12CD0
:101C400000E0650110E012C0FE01259134914F2D96
:101C5000612F802FC3DF2296F39488E0F812F4CF2F
:101C600088E0C80ED11C1F5F1A3039F0E601CC0F96
:101C7000DD1FCB5DDD4FF12CE7CF0F5F80E5A80EB8
:101C8000B11C0430F1F6DF91CF911F910F91FF90BD
:101C9000DF90CF90BF90AF9008950F931F93CF9395
:101CA000DF93843038F56A3028F5483018F520E1A4
:101CB000629FE0011124642F70E0660F771FC60F4A
:101CC000D71F30EA839FC00DD11D1124CE01859608
:101CD0000E94CD34082F10E0102F0027CE018696E9
:101CE0000E94CD349801282BC901DF91CF911F911B
:101CF0000F91089590E080E0F8CF462F672F7A305B
:101D000028F4483018F4843008F4C7CF80E090E01D
:101D10000895B0E0A0E0EFE8FEE00C94DB337C0136
:101D200000913C038091FF02082BC3E0D0E010E05B
:101D3000DC2EC8010C2E02C0959587950A94E2F717
:101D400080FD09C02197A0F7D12C8D2DCDB7DEB72E
:101D5000E7E00C94F733B7018C2FCFDF61D90197FF
:101D600089F3F3CFCF93DF93D82FC92FD2DF6D2F15
:101D70007C2FC3DF55D9DF91CF910895FC01848179
:101D8000882399F080819181EDDF282F92959F70B3
:101D9000963091F060F4925F9F70923030F481E061
:101DA000203F81F030F4283E30F080E004C09A5F9C
:101DB000F3CF243FD1F7089581E0283E20F0213F62
:101DC000A1F7F9CF08950895A6E0B0E0EAEEFEE0AD
:101DD0000C94DF339C0186E0F901DE01119601903D
:101DE0000D928A95E1F7F901258189819A81222353
:101DF00081F0662371F08DDF182F682F89819A8119
:101E00003FDA69817A81812F78DF2696E3E00C94AE
:101E1000FB3303DA182FF5CF8091180381110CC022
:101E200081EE93E00E94CD34883008F08EEF8093ED
:101E30006E0181E08093180380916E010895809176
:101E4000190381110BC080EE93E00E94CD348830DD
:101E500040F480936F0181E08093190380916F01BA
:101E600008958E3FB1F383E0F4CFCF93DF93D82F63
:101E700040DAC82FE4DF982F81E09C1380E07ADA03
:101E8000CBDF91E08C1390E090932D038C1781F0C1
:101E900080912E0381110CC080913303811108C001
:101EA00010923203109231031092300310922F03DC
:101EB0008D2FDF91CF910895D8DF80933C03089553
:101EC00021E030E001C0220F8A95EAF72095809149
:101ED0003C038223F1CF90913B038095892380932B
:101EE0003B03282F277061F4891751F0909101036B
:101EF00092FF06C0869586958695E2DF10923B0399
:101F0000089521E030E001C0220F8A95EAF7809120
:101F10003C03822BD1CFAB0124E630E0BC0188E743
:101F20000E9481319C0181E0232B09F080E008951B
:101F30008091630390916603911103C091E089271A
:101F40000895882361F062E070E086EE91E0E3DFBF
:101F5000811103C0809163030895109263038091FF
:101F60006303ECCFA5E0B0E0E8EBFFE00C94E033D6
:101F7000809163038D83809166038823E9F00E943A
:101F80003C06DC01CB01805A9541AF4FBF4F809397
:101F90005F0390936003A0936103B09362038D810C
:101FA000811107C062E070E084EE91E0B4DF81113E
:101FB00008C0809163038D838D812596E2E00C94A7
:101FC000FC3381E080936303F4CFCF93DF93D82F6A
:101FD000C92F80914202811165C040E150E060E468
:101FE00072E083E492E00E94BD34809143029091BC
:101FF0004402C297873B934068F0E5E4F2E08EE04C
:10200000DF011D928A95E9F788EC90E090934402F5
:1020100080934302809146028150873018F081E01E
:10202000809346028091470290914802845691091C
:102030008532934130F08AE892E090934802809391
:102040004702809149028150843618F08AE08093DB
:10205000490280914B0290914C0201978E3F9F4F15
:10206000C0F08FE29AE090934C0280934B0280E3A1
:102070009AE090934E0280934D028FE298E0909305
:10208000500280934F0280E398E090935202809335
:10209000510280914A028F3F11F410924A0281E06E
:1020A0008093420280E1E3E4F2E0AD2FBC2F019087
:1020B0000D928A95E1F78D2F9C2FDF91CF91089596
:1020C000A0E1B0E0E6E6F0E10C94E033CE01019649
:1020D0007CDF89819A819C0122533109273B33405F
:1020E00010F088EC90E06096E2E00C94FC3320E184
:1020F000FC01A3E4B2E001900D922A95E1F740E1E2
:1021000050E060E472E00C94FD349091010392FB86
:10211000222720F9281771F080FB92F99093010390
:10212000609100037091010384E090E00E94F93413
:1021300082E0D1CE0895B0E0A0E0E1EAF0E10C94B5
:10214000DA33FA0169017801C82F880FDD0B309767
:10215000B1F0DE0193E0AA0FBB1F9A95E1F7A65FED
:10216000BE4F11968D919C91129787569D4F4C9121
:1021700050E0E417F50708F4AF010E94B434CE0133
:102180000E944C33182F8823D1F0E114F104B9F0E8
:1021900083E0CC0FDD1F8A95E1F7FE01E65FFE4F7D
:1021A000438150E0E416F50608F4A701C65FDE4F50
:1021B0006C817D8167567D4FC6010E94B434812FAA
:1021C000CDB7DEB7E8E00C94F633A5E0B0E0EBEE77
:1021D000F0E10C94D8338D83E62E5A01F22E68017B
:1021E0008091DC058A3028F080E02596EAE00C94A6
:1021F000F4338D818830C4F319828A836B832C83F6
:1022000063E070E0CE0102960E944F078983E0925E
:102210003201F092450110E000E030E020E044E0BF
:1022200050E0BE016F5F7F4F84E085DF8823E1F2DD
:102230004E2D50E030E020E0B50185E07CDF8823C2
:1022400099F230E020E041E050E0BE016B5F7F4F4B
:1022500086E071DF882341F20F2D10E0960150E0F7
:1022600040E070E060E087E066DFBFCFA5E0B0E06F
:10227000ECE3F1E10C94DA330091630309831091EC
:10228000A302C090F502D090F602E090F702F09021
:10229000F8020E943C06DC01CB018C199D09AE09B5
:1022A000BF0984369105A105B10530F4812F90E076
:1022B00011E008171906C1F010E000E030E020E05E
:1022C00041E050E0BE016F5F7F4F83E034DF182FA5
:1022D000882351F00E943C066093F5027093F60249
:1022E0008093F7029093F802812F2596E8E00C94F2
:1022F000F633A8E0B0E0EFE7F1E10C94DA33C090F8
:10230000F102D090F202E090F302F090F4020E9409
:102310003C06DC01CB018C199D09AE09BF0911E017
:1023200084369105A105B10518F10E94DF07DC0193
:10233000CB010296A11DB11D89839A83AB83BC8317
:1023400010E000E030E020E044E050E0BE016F5FCC
:102350007F4F82E0F0DE182F882351F00E943C0668
:102360006093F1027093F2028093F3029093F4026F
:10237000812F2896E8E00C94F6338F929F92AF92CB
:10238000BF92EF92FF920F931F93CF93DF93CDB73E
:10239000DEB72A970FB6F894DEBF0FBECDBF7B0124
:1023A00001E010E09E012A5F3F4F50E040E070E006
:1023B00060E080E0C0DE182F882309F44FC08090D1
:1023C000ED029090EE02A090EF02B090F0020E9419
:1023D0003C066F83788789879A87DC01CB0188194F
:1023E0009909AA09BB0984369105A105B10548F4EC
:1023F00065E070E08AE992E00E944F079E818917AC
:1024000069F105E010E09E012F5F3F4F50E040E092
:1024100070E060E081E08FDE082F65E070E08AE91F
:1024200092E00E944F0711E09E81981310E0102364
:1024300001F10E943C066093ED027093EE028093DE
:10244000EF029093F00285E0FE013196A8EEB2E033
:1024500001900D928A95E1F711E00BC085E0EAE961
:10246000F2E0DE01119601900D928A95E1F71111CB
:10247000EACF85E0E8EEF2E0D70101900D928A956F
:10248000E1F7812F2A960FB6F894DEBF0FBECDBFBD
:10249000DF91CF911F910F91FF90EF90BF90AF9080
:1024A0009F908F900895CF9388EC90E02091E30067
:1024B000C22FCC1FCC27CC1F27FD0CC0EFE3FCE9BB
:1024C0003197F1F700C00000019781F70E94D50411
:1024D00010928B03C093740357985F9A879A8F98D2
:1024E000F5E0FA95F1F7000089B187FB882780F9BC
:1024F00087988F9A90EA9A95F1F780937503809365
:1025000009018091740381110E946832CF9108956E
:1025100028E030E043E060E086E30C944430CF9361
:10252000DF93D82FC62FF4DF8D2F80680E9456309E
:102530008C2F0E9456308AEB8A95F1F700C00E94DA
:10254000863083E492E00197F1F700C00000DF914C
:10255000CF910895682F893708F068E760937C0170
:1025600091E090937D0190917101992349F0615020
:10257000811101C064E0683708F067E78FE0CFCFD2
:102580000895FB018081E6CF282F80917C01811185
:1025900001C085E0022E000C330B820F932F911D9A
:1025A0001816190614F081E090E0D4CFACE0B0E04A
:1025B000ECEDF2E10C94DC334F83588769877A871E
:1025C0008B879C8780917101882309F442C0809198
:1025D0003D02811106C060E080E5A1DF81E08093CB
:1025E0003D0296DF80E50E9456300AEB0A95F1F72E
:1025F00000C00E946E300E946E300E946E307C01DE
:102600000E946E3060E0E62AF82A0E946E308C014B
:102610000E946E3020E0022B182B0E94863025E0AD
:102620002A95F1F70000F894B70180917401909118
:10263000750176D89093750180937401B8018091EB
:102640007601909177016CD8909377018093760111
:10265000789480917403882309F466C00E943C0634
:10266000462F572FBC0180913E0290913F02A091CE
:102670004002B09141028A019B01081B190B2A0BF1
:102680003B0BD901C8010897A105B10508F44CC05E
:1026900040933E0250933F02609340027093410288
:1026A00080917F0190918001A0918101B091820180
:1026B000481B590B6A0B7B0B4233510561057105B1
:1026C00080F41092750110927401109277011092AB
:1026D0007601109279011092780110927B0110928C
:1026E0007A011091750320917E01412FBE01695F2F
:1026F0007F4F84E791E00E94CD0920917E01809177
:102700007101282741E04127BE01695F7F4F88E7BB
:1027100091E00E94CD0986E0FE013796A9E8B1E07C
:1027200001900D928A95E1F786E0FE013796DE0171
:10273000119601900D928A95E1F729813A814B819A
:102740005C816D817E8180E090E02C96E6E00C94C7
:10275000F833CF93C82FDCDE8C2F0E9456308FE7E2
:1027600092E00197F1F700C000000E946E30C82F80
:1027700095E09A95F1F700000E94863085E68A95EB
:10278000F1F7000010923D028C2FCF910895CF9366
:10279000DF930E94B32F269ABBDE6AE58AE3BFDE91
:1027A0002FEF80E792E0215080409040E1F700C099
:1027B000000082E0CEDF83E0CCDF84E0CADF85E08A
:1027C000C8DF86E0C6DF60E080E1A9DE80E0C1DF2F
:1027D000D82F81E0BEDFC82F0E948630D23419F492
:1027E00081E0C13009F080E081708093710188231D
:1027F00019F064E08FE093DE81E0DF91CF910895DE
:102800001F920F920FB60F9211242F933F934F9365
:102810005F936F937F938F939F93AF93BF93EF9348
:10282000FF938091E10082FF09C08091E20082FF66
:1028300005C08091E1008B7F8093E1008091DA00F8
:1028400080FF24C08091D80080FF20C08091DA00F2
:102850008E7F8093DA008091D90080FFA9C080E14B
:1028600089BD82E189BD09B400FEFDCF81E080937E
:102870008B0380917F03811109C00E94D5040E94BF
:1028800076058091E20084608093E2008091E1000F
:1028900080FF1AC08091E20080FF16C08091E200A4
:1028A0008E7F8093E2008091E20080618093E2005D
:1028B0008091D80080628093D80019BC85E0809315
:1028C0008B0383E08093B0018091E10084FF2FC0EF
:1028D0008091E20084FF2BC080E189BD82E189BD47
:1028E00009B400FEFDCF8091D8008F7D8093D80081
:1028F0008091E1008F7E8093E1008091E2008F7EE5
:102900008093E2008091E20081608093E2008091F8
:102910008C03882309F452C084E080938B03809158
:102920008B03843009F452C081E08093B001809120
:10293000E10083FF2CC08091E20083FF28C08091DA
:10294000E100877F8093E10082E080938B03109207
:102950008C038091E1008E7F8093E1008091E20002
:102960008E7F8093E2008091E20080618093E2009C
:1029700042E060E080E00E9444058091F0008860C1
:102980008093F00081E08093B0018093AF01FF91CC
:10299000EF91BF91AF919F918F917F916F915F91D7
:1029A0004F913F912F910F900FBE0F901F90189550
:1029B00019BC10928B0310927F0368CF8091E300C3
:1029C00087FD02C081E0A9CF83E0A7CF82E0ADCF31
:1029D00078941F921FB61F9211248F939F93AF93E9
:1029E000BF9380917B0390917C03A0917D03B09174
:1029F0007E030196A11DB11D80937B0390937C0300
:102A0000A0937D03B0937E03BF91AF919F918F916F
:102A10001F901FBE1F9018952FB7F89480917B03CD
:102A200090917C03A0917D03B0917E032FBF089508
:102A3000F3DF2091700330917103232B21F08093F9
:102A40006C0390936D032091720330917303232BD9
:102A500021F080936A0390936B038EE693E00C94CD
:102A6000D906CF93C6E0E0E1F2E0DF018C2F1D92A2
:102A70008A95E9F790E080E00E94B10690E080E05E
:102A80000E94890610928E0233D8EEE6F3E0DF0151
:102A90001D92CA95E9F7109267031092680310928D
:102AA0006903C6DFCF910895AAE2B0E0EAE5F5E157
:102AB0000C94DF338DE893E0FC0101962091F10046
:102AC000208323E085399207B9F780918E038930FE
:102AD00009F45BC0C8F4823009F4B8C0833009F44B
:102AE00087C0813099F18091E80083FF3BC18091DC
:102AF0008D0390918E039A3008F034C1E92FF0E0F5
:102B0000EA5EFA4C0C9451348A3009F48EC08B3052
:102B100051F780918D03813231F78091910390912B
:102B20009203892B01F78091E800877F8093E8006A
:102B30000E94250581E090918F03911101C080E0F2
:102B40008093AF01109280038CDFCDCF80918D03F5
:102B5000813A49F68091E800877F8093E800809170
:102B6000910390919203892B61F468E081E893E0EE
:102B700070E00E94D0058091E8008B778093E80098
:102B8000B2CF60E090E080E0F3CF80918D0381329E
:102B900009F0A9CF80919103909192038D7F892BA9
:102BA00009F0A1CF8091E800877F8093E8008091B1
:102BB000E80082FF18C09091F3008091F200029724
:102BC00031F48091F100813011F0863021F4809150
:102BD000F1008093AE018091E8008B778093E8004C
:102BE0000E94250580CF80918B038111E0CF7BCFA0
:102BF00080918D03813A09F076CF80919103909175
:102C00009203892B09F06FCF8091E800877F809332
:102C1000E8008091E80080FFFCCF8091AF018093B5
:102C2000F1008091E8008E77D9CF80918D038132B9
:102C300009F059CF8091E800877F8093E8000E94D7
:102C40002505809190038093AD014DCF80918D0338
:102C5000813A09F048CF8091E800877F8093E800AF
:102C60008091E80080FFFCCF8091AD01D8CF803803
:102C700099F0823809F076C0809191038F70873087
:102C800008F070C08093E9008091EB0085FB8827F5
:102C900080F91092E90006C08091890390918A031F
:102CA000911182609091E800977F9093E800809363
:102CB000F1001092F1008091E8008E77B7C188236F
:102CC00009F4A4C1823009F04DC080918F038111B5
:102CD000A8C1809191038F702FEF280F263008F044
:102CE00041C08093E9002091EB0020FF9AC193300E
:102CF00031F48091EB0080628093EB0092C190915F
:102D0000EB0090619093EB0021E030E001C0220FD6
:102D10008A95EAF72093EA001092EA008091EB008E
:102D20008860EACF81111EC010918F031F778091B8
:102D3000E3008078812B8093E3008091E800877F17
:102D40008093E8000E9425058091E80080FFFCCF79
:102D50008091E30080688093E30082E0111183E0BA
:102D600080938B038091E80083FF0AC08091E80084
:102D7000877F8093E8008091EB0080628093EB0076
:102D8000AA96E3E00C94FB338058823058F74091C8
:102D90008F03509190034C3D83E05807A1F583E0E9
:102DA0008A838AE289834FB7F894DE01139620E084
:102DB0003EE051E2E32FF0E050935700E49120FF12
:102DC00003C0E295EF703F5FEF708E2F90E0EA3026
:102DD000C0F0C7968D939D932F5F243159F74FBF55
:102DE0008091E800877F8093E8006AE270E0CE017E
:102DF00001960E94D0058091E8008B778093E800CF
:102E0000B1CFC096E7CF8091910390919203252F87
:102E100033272330310509F44AC078F521303105D4
:102E200009F479C08BE590E0E5EAF4E02230310561
:102E300009F098CF2091E800277F2093E8002091A7
:102E40009303309194038217930708F49C0140E0A8
:102E50002115310509F064C0411162C08091E8007C
:102E600082FDC9CF80918B03882329F2853019F226
:102E70008091E80083FFF2CFBECF2132310509F403
:102E80003BC02232310509F06DCF8330910508F047
:102E900069CFFC01EE0FFF1FE050FE4F0190F08163
:102EA000E02D83509E4FDC018C9190E011C0CA014F
:102EB0009927413089F082309105B1F0892B09F0D2
:102EC00051CFEAE3F5E0E4918E2F90E0EAE3F5E0FC
:102ED000009709F447CFAECFE8E2F5E0E4918E2FFA
:102EE00090E0E8E2F5E0F4CFE2E1F5E0E4918E2F46
:102EF00090E0E2E1F5E0ECCF8330910508F032CFCD
:102F0000880F991FFC01EA5FFD4F0190F081E02DD1
:102F100089E090E08FCF82E190E0E0E0F5E08ACFB9
:102F200080918B03882309F466CF853009F463CF41
:102F30008091E80083FD5FCF8091E80082FD8ECF15
:102F40008091E80080FF84CF9091F3008091F2009F
:102F50002115310519F08830910550F041E00897AE
:102F600009F040E08091E8008E778093E80070CF10
:102F700044914093F1003196215031090196E8CFF8
:102F8000803809F0EFCE8091E800877F8093E800D9
:102F900080918C038093F1008ECE8111E3CE10914D
:102FA0008F03123008F0DECE8091E800877F809397
:102FB000E80010938C030E942505112311F084E092
:102FC00005C08091E30087FDFACF81E080938B03F9
:102FD00042E061EC81E00E94440542E261EC84E061
:102FE0000E94440542E261EC82E00E94440542E214
:102FF00060EC83E00E94440580918B03843021F0D3
:1030000081E08093B001AECE82E0FBCF80918F0350
:10301000813009F0A7CE81E0933009F080E0809301
:103020008A031092E9008091E800877F8093E8008E
:103030000E94250597CE1F920F920FB60F92112472
:103040002F933F934F935F936F937F938F939F93B0
:10305000AF93BF93CF93DF93EF93FF93D091E900AA
:10306000DF708091EC00C82FC17080FDC0E8109225
:10307000E9008091F000877F8093F000789414DD60
:103080001092E9008091F00088608093F000CD2BD1
:10309000CF70C093E900FF91EF91DF91CF91BF9185
:1030A000AF919F918F917F916F915F914F913F91E0
:1030B0002F910F900FBE0F901F90189510928003C4
:1030C000D0DC2FEF84E39CE0215080409040E1F77A
:1030D00000C0000088E19AE00FB6F894A8958093AC
:1030E00060000FBE90936000FFCF662309F46FC0AD
:1030F0008D3C31F40E94210781958093710398CC17
:103100008E3C19F40E942107F8CF8F3C31F40E94C5
:103110002107819580937003F2CF803D19F40E94BE
:103120002107F8CF893D29F40E94FF06809372039E
:10313000E6CF8A3D21F40E94FF068195F7CF8B3DB3
:1031400031F40E94FF06819580937303D8CF8C3DA4
:1031500019F40E94FF06F8CF9FE2980F983018F5F7
:10316000282F215D330BA90121E030E001C0220F9F
:103170004A95EAF790916F03922B90936F03815DCC
:1031800021E030E0A90102C0440F551F8A95E2F703
:10319000CA0120913603662309F492C0822B8093E2
:1031A00036030C948E0C8D3D31F48091690381605F
:1031B00080936903A4CF8E3D21F4809169038260DE
:1031C000F7CF8F3D19F5809169038460F1CF90911D
:1031D00070038D3C59F42091710327FF0DC01092AC
:1031E000710391110BC01092670308C08E3CB1F4BB
:1031F0002091710312169CF39923B1F09091720300
:1032000020917303922B11F410926803482F415DB3
:10321000550B4830510508F4B2CF71CF8F3C39F4CB
:1032200097FFEACF1092700390917103DACF803D3F
:1032300019F41916BCF3E0CF20917203893D29F4EB
:103240001216D4F610927203D7CF8A3D19F427FFD5
:10325000D3CFF8CF209173038B3D29F427FFCCCF38
:1032600010927303C9CF8C3D19F41216CCF3C4CF5E
:103270002FE2280F283088F4282F215D330BA90175
:1032800021E030E001C0220F4A95EAF72095309105
:103290006F03232320936F03AFCF209169032E7F09
:1032A0008D3D59F0209169032D7F8E3D31F08F3D8A
:1032B00009F0A2CF209169032B7F209369039CCF53
:1032C000809582236CCF8823B1F19CEF980F913ABF
:1032D00070F4E0E1F2E09191891303C0DF011197EE
:1032E0001C9292E0E631F907B1F70C94780D90E268
:1032F000980F983050F4877091E001C0990F8A952B
:10330000EAF7892F0E94FB08F0CF9BE5980F9330D6
:1033100020F490E080E00C94B10698E5980F9B3182
:1033200020F490E080E00C94890693E3980F9331A9
:1033300010F460E0DACE0895CF93DF93EC01C3DFA1
:10334000CE010E9489099E01205E31092830310595
:1033500010F0CD2B29F40E94C90DDF91CF91089573
:103360000E94B60DFACF0F931F93CF93C82F8823D7
:1033700039F18CEF8C0F813AB0F500E112E0F801E1
:103380008191C81709F122E0E631F207C9F7EFEFA2
:1033900080E0D8019D918D01C91781F0EF3F19F4AC
:1033A000911101C0E82F8F5F863099F7EF3F31F020
:1033B0000E2E000CFF0BE25FFD4FC2830E94780DC2
:1033C000CF911F910F910895E0E1F2E08191C81330
:1033D00003C0DF0111971C9232E0E631F307B1F729
:1033E0000E94780DD4CF80E28C0F883068F4C770CB
:1033F00021E030E001C0220FCA95EAF780918003F6
:10340000822B80938003DACF8BE58C0F833038F4E6
:103410002C2F2452330BC9010E94B106D1CFE8E50D
:10342000EC0FEB3150F4F0E0EE0FFF1FED54FE4FC8
:10343000808191810E948906C3CF83E38C0F833101
:1034400008F0BECF61E08C2F50DEBACFCF93DF9370
:10345000EC010E9489099E01205E31092830310566
:1034600010F0209739F40E94CE0D8C2F7CDFDF9175
:10347000CF9108950E94C00DF8CFA5E0B0E0E3E43D
:10348000FAE10C94D43380916603882309F41EC1B9
:1034900020916403309165033A832983BDDA498121
:1034A0005A81841B950BC29708F4E6C0B5DA909355
:1034B00065038093640384ED93E09093DB05809330
:1034C000DA0580917403882309F40FC18EEE91E030
:1034D0000E943A0D88EB0E94B50C809188010E94F1
:1034E0005A0B0E94B50C89EB0E94B50C80918701A4
:1034F0000E945A0B0E94B50C8BEE91E00E943A0D8F
:10350000809185019091860154E0969587955A9512
:10351000E1F70E945A0B0E94B50C809185010E9430
:103520005A0B0E94B50C88EE91E00E943A0D8FE88C
:1035300091E00E94D70D8DE092E00E943A0D8091BB
:103540008B01082E000C990B0E94610B0E94D70D75
:1035500080918C01082E000C990B0E94610B0E9437
:10356000D70D80918E01082E000C990B0E94610BE3
:103570000E94D70D80918D01082E000C990B0E949E
:10358000610B0E94D70D85E092E00E943A0D809178
:103590007C01811101C085E090E00E94610B0196E1
:1035A0000E94D70D81E092E00E943A0D8091840143
:1035B000882331F0813009F48DC088EF91E002C09A
:1035C0008EEF91E00E943A0D80917E01882309F4EC
:1035D00084C086E192E00E943A0D84EF91E00E945F
:1035E0003A0D80918301811101C084E0805D0E94C9
:1035F000B50C8CE192E00E943A0D61E070E07A83B4
:10360000698380913C03882309F46AC090E00980B3
:1036100002C0959587950A94E2F780FF61C0898181
:103620000E945A0B0E94B50C89819A8101969A8357
:103630008983089731F780E20E94B50C89E192E016
:103640000E943A0D80919601882309F44BC086E1CF
:1036500092E00E943A0D80919801909199016AE060
:1036600070E00E94BC33CB010E94610B01960E9466
:10367000D70D80E30E94B50C8091D2039091D303C3
:10368000892B09F04EC0809163038823F9F00E94D2
:103690003C0669837A838B839C8380915F0390913E
:1036A0006003A0916103B091620329813A814B814B
:1036B0005C81281B390B4A0B5B0BDA01C9018F3F78
:1036C0009F4FAF4FBF4710F40E94980F2596EEE032
:1036D0000C94F0338BEF91E075CF83E192E07BCFD8
:1036E00080EBA0CF83E192E0B4CF90E99983A981E8
:1036F000A051AD8382E292E00E943A0D8D81B82FF5
:10370000BF5FBD830E94B50C6D8029816212F6CF28
:1037100080E00E94470D3981305F3983303C39F7B2
:10372000ABCF80916603882309F4ADCF80915E030F
:103730008111A9CF0E94B20F2091D2033091D303FF
:103740002115310509F49FCF80E041E050E0082FBA
:1037500010E0BA01082E02C0660F771F0A94E2F744
:103760007A83698362237323672B11F48F5FEFCF12
:1037700090915D0390FF97C0880F880F880F80930A
:10378000A8011092AB01895F8093A90183E0809327
:10379000AC0124E630E047E050E066EA71E088E7FB
:1037A0000E943E31892B09F06ECFA80125E0440F1D
:1037B000551F2A95E1F780915D0380FF86C0EDE3F8
:1037C000F3E080E2DF011D928A95E9F709EF11E04D
:1037D00085EFE82E81E0F82E97E0992E88248394D7
:1037E000D801ED918D01D7016D917D01640F752F89
:1037F000711D6C527C4FF0E0E35CFC4F30E020E048
:10380000792C721AA82C022E01C0AA0C0A94EAF78D
:103810006B0190E0D6018D916D018A21A72DA91B26
:10382000A770BA2E0A2E000CBB0B682E01C0660CC6
:10383000BA94EAF7B62CB195A195B109A770BB2748
:1038400001C08695AA95EAF7A62DA82B80818A2B20
:1038500080839F5F9830F1F62F5F3F4F319628307D
:10386000310571F621E00D3F120709F0B9CF04E6EA
:1038700010E020E230E04DE353E060E488E70E948E
:10388000C631892B09F0FFCE49815A814095509568
:103890008091D2039091D303482359235093D303AB
:1038A0004093D203F0CE8295880F80768093A80152
:1038B000980136952795369527952093AB01815E23
:1038C0008093A9012093AC0164CF4C525C4F04E675
:1038D00010E020E230E0D1CFA4E3B0E0E2E7FCE189
:1038E0000C94D93380912C03833009F058C2409155
:1038F00035035091360360913703709138038091FE
:10390000390390913A030E94D612209335033093E5
:103910003603409337035093380360933903709311
:103920003A0386E0E5E3F3E0DE01519601900D9263
:103930008A95E1F786E0FE017196DE015D960190C1
:103940000D928A95E1F786E0FE017D96DE011196E3
:1039500001900D928A95E1F786E0FE013196A5E38C
:10396000B3E001900D928A95E1F786E0E5E3F3E09C
:10397000DE01519601900D928A95E1F786E0FE01F5
:103980007196DE01939601900D928A95E1F786E09B
:10399000FE01B396DE01119601900D928A95E1F732
:1039A00086E0FE013196A5E3B3E001900D928A9581
:1039B000E1F786E0E5E3F3E0DE019F9601900D92EA
:1039C0008A95E1F786E0FE01BF96DE0157960190E9
:1039D0000D928A95E1F7F9A8BAA81BA90CA98091C4
:1039E0003303882309F4E7C0209131033091320377
:1039F0002F0D311DF7FC3A9530933203209331039C
:103A000080912F03909130038B0D911DB7FC9A95F7
:103A10009093300380932F0337FF03C03195219596
:103A200031092D3031053CF497FF03C09195819504
:103A300091090D972CF081E080932E0310923303AF
:103A4000198E1A8E1B8F0C8F86E0FE017796DE0191
:103A5000519601900D928A95E1F7B12CF12CFB8AD9
:103A6000BC8A1D8B0E8B86E0FE017196DE01999655
:103A700001900D928A95E1F7FBA6BCA61DA70EA7A3
:103A800086E0FE01B996DE01579601900D928A9567
:103A9000E1F7F98EBA8E1B8F0C8F86E0FE017796C8
:103AA000A5E3B3E001900D928A95E1F786E0E5E3A6
:103AB000F3E0DE01579601900D928A95E1F780912F
:103AC0009601882309F41CC100919B0110919C016F
:103AD0000E940C1520919A01801B910B2817190642
:103AE00008F00EC100919D0110919E010E940C15DD
:103AF0009C01201B310B89010E94601080179107E7
:103B000008F0FEC0588D2A8D8B8D9C8D3091A201BE
:103B1000498D340F3093A2014091A301240F2093CB
:103B2000A3014091A501940F9093A5014091A40198
:103B3000840F8093A4014091700137FD31954317A4
:103B400008F4D2C027FD2195421708F4CDC097FD97
:103B50009195491708F4C8C087FD8195481708F466
:103B6000C3C081E0511101C080E0817080939F014A
:103B70000E947C0710913C03882309F4DDC0109259
:103B8000A2011092A3011092A4011092A5010E941B
:103B90000C1590939C0180939B0110929E011092B2
:103BA0009D01809197011111A1C0882309F4A8C03B
:103BB0000E94810FA5C080912E03811105C08091C4
:103BC0002D03882309F46FC0C0903103D0903203D5
:103BD000CF0CD11CF7FCDA94D0923203C09231039F
:103BE000E0902F03F0903003EB0CF11CB7FCFA943B
:103BF000F0923003E0922F03C601C29685369105FC
:103C000030F4C701C2968536910508F419CFCE016C
:103C100001960E94E50FD7FE03C0D194C194D1084C
:103C2000F7FE03C0F194E194F108EC14FD047CF577
:103C30008091310390913203EF84F88818161906A9
:103C400014F0ED84FE84E114F104C1F095E0C92E76
:103C5000D12C29E3E216F10419F480E5C82ED12C09
:103C6000C701F4DB8FE99FE00197F1F700C0000086
:103C700091E0C91AD108B1F7C7015EDB1092320397
:103C8000109231031092300310922F03D9CE8091FD
:103C90002F0390913003EB84FC84181619069CF2D4
:103CA000E984FA84D0CF802F812BD1F0CE01019608
:103CB0000E94E50F8B8184FD119585FF13C0802F35
:103CC0008195F98EBA8E1B8F8C8F96E0FE017796C8
:103CD000DE01519601900D929A95E1F7082FBFCE23
:103CE00010E0EFCF802FEDCF81E03FCF212F30E0EC
:103CF000082E02C0359527950A94E2F720FF58CF89
:103D000086E0EEE6F3E0DE01579601900D928A958B
:103D1000E1F780913603988D892B809336030E94BA
:103D20008E0C811139C0809134038170109234035C
:103D3000E496E9E00C94F53380919701111122C0CB
:103D40008111DECF00919B0110919C010E940C1506
:103D5000801B910B20919801309199012817390708
:103D600078F6809197010E94600F10929C0110924A
:103D70009B011092A2011092A3011092A401109233
:103D8000A501BECF212F30E002C0359527958A9539
:103D9000E2F720FFB5CFD6CF81E090E0C6CF80E03C
:103DA000C7CFA0E1B0E0E7EDFEE10C94D5337C0194
:103DB000DC0114968C91882309F46DC161E0C70180
:103DC0000E94E40E8C0180919601882331F100322B
:103DD000B2E51B0708F0B2C00115E2E51E0708F0C6
:103DE000F6C00115F0E51F0708F09DC0011520E49D
:103DF000120708F003C1011530E2130708F006C1ED
:103E0000083E110508F05FC0003E110508F461C0CE
:103E10008091A10187FD1092A1011093860100936A
:103E20008501D7018D919C91119790938801809382
:103E30008701F8013497E533F10508F0FFC0E35737
:103E4000FE4FE49115968C9120EB811102C02E2F2C
:103E5000E0EBAFE8B1E090E080E03D913213E8C0E4
:103E60008F589E4FDC015E96EC93D70115968C918E
:103E700098013A9521153F4138F007302EE7120797
:103E800009F0F8C10E94BA09D70115968C919801E2
:103E9000205E32452032310508F082C2811192C283
:103EA0000F7181E090E0FC0102C0EE0FFF1F0A9548
:103EB000E2F78F016E2F83E090E00E94DF34802FC5
:103EC0000E947609D8C0C8019A9581159F4108F4CF
:103ED0009FCFD70114968C91882309F499CF07308E
:103EE000BEE71B0709F441C0C8018D5C91094397E7
:103EF000E0F10E947C0781118BCFF7018581882337
:103F000059F08091970120913C03211185C08823AD
:103F100009F48BC00E94690C0E940C1590939E01BD
:103F200080939D0175CFC801E5E096958795EA9548
:103F3000E1F78F7099272091970113C00038B2E5FF
:103F40001B07C0F40036E2E51E0708F040C000344D
:103F5000F2E51F0708F05CCF20919701C8018F712F
:103F600099272817190609F053CFF70185810E9478
:103F700065074ECF003E22E5120710F5003C32E502
:103F8000130708F445CF20919701C8018F71992735
:103F90002817190609F03CCFD70115968C910E947D
:103FA0006507F7018681807F803509F031CF8581F3
:103FB0008823F1F08091A10181508093A10128CF45
:103FC000C801805E9245809708F422CF82CF20916D
:103FD0009701C8018F7199272817190609F018CF82
:103FE000D70115968C91811113CF0E94730710CFC2
:103FF0000E9473078091A1018F5FDFCFD7011696D2
:104000008C91807F19F4812F992793CFF7018681B6
:10401000807F09F4FDCE5DCF30E0082E02C03595DB
:1040200027950A94E2F720FF75CF0E94600F72CFA8
:1040300001968630910509F010CF17CFF7018581E1
:104040000031FEE71F0709F05FC08823B1F1CE0100
:1040500001960E94E50F8885109232031092310379
:104060001092300310922F03811119C081E08093C8
:104070002E031092330380913B03877061F0D701C8
:1040800015968C91882339F08091010382FF03C03B
:1040900082E00E946B0F6096EDE00C94F133809308
:1040A00066020E940C15909365028093640281E081
:1040B0008093330310922E03DECF80913303882345
:1040C000B1F0D090660229E305E010E0D21202C000
:1040D00000E510E08D2D47D98FE99FE00197F1F7BA
:1040E00000C0000001501109B9F78D2DECD81092D5
:1040F0002E03109233031092320310923103109268
:10410000300310922F03B7CF98013757203831056D
:1041100008F0ABCE882309F4A8C010E0D12CC12C44
:10412000011721F1B0E9CB16B1E0DB0608F0A3CF0F
:10413000C601805B9D4F0E94CD3496012F5F3F4F9B
:10414000882391F09FEF980F923010F0843051F453
:1041500093E0C90ED11CA0E9CA16A1E0DA0640F32B
:104160001F5FDECF6901F7CF6901FACFE0E9CE1614
:10417000E1E0DE0608F07FCFC601805B9D4F0E9424
:10418000CD34843019F0833008F075CFC601805BE0
:104190009D4F0E94CD34B82E882309F46CCF8FEF49
:1041A0008B0D823018F0F4E0BF1265CFC6018F5A34
:1041B0009D4F0E94CD34182FC6018E5A9D4F0E94EC
:1041C000CD3423E0C20ED11C082F31E0B3121EC043
:1041D00065E0A62EB12C0933110519F450E5A52E82
:1041E000B12CC80133D98FE99FE00197F1F700C0E6
:1041F000000091E0A91AB108B1F7C8019DD8F0E913
:10420000CF16F1E0DF0608F4C1CF35CFA2E0BA1235
:1042100012C0C8011BD9E0916302E83080F781E049
:104220008E0F80936302F0E0EE0FFF1FED5AFD4FFB
:1042300011830083E4CFB4E0BB12E1CF0115110577
:10424000F1F2EFE9FFE03197F1F700C00000015013
:104250001109F4CFE150E0936302F0E0EE0FFF1F8D
:10426000ED5AFD4F8081918167D8E0916302E111A1
:10427000F1CF01CF882309F407CEF801FE57E031D2
:10428000F10508F001CEE05EFA4C0C94513480E068
:104290000E94AA121092830180E00E94860C8AE894
:1042A00092E00E94780CE7CE209183013091960134
:1042B000809198019091990162E370E00E94BC3373
:1042C0008FEF860F9091840160911A0340917C01D9
:1042D00020FB47F9522F56955370330F330F532B52
:1042E000282F220F220F220F522B660F660F6C739E
:1042F0009370692B70E08FE090E00E94F134BBCEA8
:1043000081E00E94C412B7CE8FEFFBCF8AE0F9CFD5
:1043100086EFF7CF90917E0181E089270E94BA094C
:10432000AACE80918301811101C084E08F5F1816AD
:104330000CF081E0883008F087E0809383019BCE09
:1043400080918301811101C084E08150F0CF81E030
:104350008093840190CE109284018DCE82E0F8CFBC
:104360009091960181E089270E94860C84CE8091ED
:10437000980190919901C296893E33E0930708F421
:1043800090CF88EE93E08DCF809198019091990124
:10439000C2978436910508F084CF84E690E081CFFF
:1043A0008823E1F10B35FCE71F0771F10C352CE791
:1043B0001207F1F00A353CE7130721F101309CE7C1
:1043C000190751F10330ACE71A0701F101151C4739
:1043D00029F5109280030E943115EFEFF4E32CE0F1
:1043E000E150F0402040E1F700C000000E942B06A1
:1043F0008091010382FB882780F991E089270E9440
:10440000851039CE81E0FBCF80E0F9CF6FEF7FEFF1
:1044100090E080E00E94F9340E945E18F701C080AD
:10442000D180882309F44CC0C6010E94890E182F40
:10443000682FC6010E944009B601812F0E947D0E9F
:104440000E9410088C01882ED70115967C90159734
:104450001696CC90C2942FE0C22280913B038770C5
:1044600009F1972C7720F9F0812F807F803469F053
:1044700080E2800F8830B0F0812F807E803229F476
:10448000B1E0B01778F4CC2069F08091010382FF8D
:1044900009C082E00E946B0F80913B0387709924D2
:1044A00093948111912C812F82958F70A82EB12C1D
:1044B0008C3008F069C0F501E05DFA4C0C94513481
:1044C000C6010E940D09182FB7CFE12FEF70DE2E25
:1044D000107F19F0D29490EFD922802F7720B9F075
:1044E000DD2069F090E2900F983010F0011109C0C2
:1044F00080918003D82AD09280030E94780D802F6B
:1045000041C080918E02D82AD0928E02F6CF0E94AE
:104510006319DD20C9F1005E083010F0811004C07D
:104520008D2D0E94FB0806C0D09480918E02D82267
:10453000D0928E020E94780D27C0F12FFF70DF2EDF
:10454000107F103219F0D29480EFD822882051F0D9
:1045500021E0821609F45CC0772009F468C0CC2001
:1045600061F1CDCF8091010382FD23C07720D9F086
:10457000DD2039F080918003D82AD09280030E94F8
:10458000780D80E00E94B31998E0A91AB108A4E060
:10459000AA16B10408F072C10E94EC0660E0C701DF
:1045A0000E94E40E78CD80E00E946319DD2061F363
:1045B000B7CF772099F0C11004C08D2D0E94CE0D89
:1045C000E3CF31E0C312E0CF80918D029D2D98237F
:1045D000D916D1F2D82AD0928D02D6CFC110D4CF1D
:1045E0008D2D0E94C90D90918D028D2D892329F06A
:1045F0008D2D8095892380938D02809167029D2D5A
:10460000982309F4C1CFD094D822D0926702BCCFAE
:10461000772029F085E08C1508F4B6CFCECF94E052
:104620009C1508F4B1CF8D2D0E94C90DADCFCC20C3
:10463000D1F3093309F01AC1AFEFB7EEE3E0A150AF
:10464000B040E040E1F700C00000802F0E946319F5
:104650009BCF812F86958695837061F0813009F01C
:1046600093CFC8019370711002C080E090E00E9467
:1046700089068ACFC8019370711002C080E090E073
:104680000E94B10681CF672D802F0E9475187CCFC4
:10469000812F837091F5711077CF402F4295469509
:1046A0004770440F440F802F8F70042E01C0880F75
:1046B0000A94EAF7202F207104FF07C02FE030E0B2
:1046C00001C0220F4A95EAF72095169516951370AA
:1046D000123071F0133051F03091FF02113029F097
:1046E000822B83230E9476094FCF832B822BFACF14
:1046F000282B8091FF028227F5CF8695772011F035
:10470000812F8170882309F43FCF402F4295469531
:104710004770440F440F802F8F70042E01C0880F04
:104720000A94EAF7202F207104FF07C02FE030E041
:1047300001C0220F4A95EAF7209516951695137039
:10474000123071F0133051F030913C03113029F0E8
:10475000822B83230E945C0F17CF832B822BFACFEF
:10476000282B80913C038227F5CF1F70772029F0FA
:10477000812F0E94810F802F21CF802F0E94C90D91
:10478000812F0E94600F00CF802F92EF8916B1F128
:10479000981570F0A0EF8A16D1F0B1EF8B1691F05A
:1047A000772009F457C0C110AACE812F8F712AC07B
:1047B000E3EF8E1651F1F4EF8F12F2CF90910103D7
:1047C00092FD2FC0812F8F717720D9F21BC07720E7
:1047D00081F024E02C1508F4D7CE1F7181E090E021
:1047E000012E01C0880F0A94EAF790913C038927B3
:1047F000B1CF35E03C1508F4C7CEEFCF812F8F71D4
:104800007110BFCF0E94810FBFCE80E0772009F4E6
:10481000A1CF1F7181E0012E01C0880F0A94EAF731
:1048200099CF772061F0812F8F7192FFEBCF98E0C5
:10483000899F90011124236020933B03E3CF81E003
:104840000E946B0FA1E0AC1508F09ECE82E00E94A2
:104850006B0F9ACECC2079F0893341F4BFEFE7EEAD
:10486000F3E0B150E040F040E1F7EDCE8FE19EE49F
:104870000197F1F7E8CE812F8F7183CF992009F44A
:104880008DCE80913B0380FD89CEF7011582869500
:10489000869586950E94810FC70183DA80913B033C
:1048A0008695869586950E94600F78CEB0E0A0E050
:1048B000ECE5F4E20C94DB3380918C02807F09F00C
:1048C00050C080918B02882309F44BC0E091CE0345
:1048D00087E0D82E809195038E1709F442C00E2FE1
:1048E00010E0ED9DF0011124EA56FC4F84818823ED
:1048F000E9F1D09EE001D19ED00D1124FE01EA56CF
:10490000FC4F918180918702981330C090818091F3
:10491000860298132BC08581811128C0E280F38024
:104920008091880290918902E81AF90A60E086E88D
:1049300092E00E94E40E0E946010E816F906B0F4BE
:1049400080918C028F70806180938C02C456DC4F02
:1049500088818F708061888386E892E022DA0E94E5
:104960000309CDB7DEB7E7E00C94F733F8013196D1
:10497000E770B0CFA6E1B0E0E0ECF4E20C94D33302
:104980008C0186E0F801DE01519601900D928A9526
:10499000E1F7D8011496FC9014971596EC9086E8F0
:1049A000882E82E0982E80918A02811128C0F11011
:1049B00003C0FF24F3941BC0EE20F1F0C8010E9455
:1049C000BE0EF82E8823C1F087E0F801A6E8B2E019
:1049D00001900D928A95E1F780918A02813031F43D
:1049E00080918602909187020E94B20E5FDF8F2D28
:1049F0006696EFE00C94EF33C801D3D9DACFF80113
:104A0000A0805180C280D38060E086E892E00E945E
:104A1000E40EB0908B028091880290918902BB20B5
:104A200009F4C6C03601681A790A60E086E892E0A7
:104A30000E94E40E0E9460106816790608F099C082
:104A4000FF2009F4B6CF80918C02382F307F20915F
:104A50008702D80111969C91119731114CC0FE2C00
:104A6000291313C0209186029C9129130EC0E110D6
:104A70001CC18F70806180938C0286E892E091D98E
:104A800080918C02F8018683B2CFE1100EC1652DB2
:104A90008A2D0E94B704882309F4E6C0CE0101964E
:104AA0000E94E50F8B8182FFDFC086E892E079D912
:104AB00087E0E6E8F2E0DF011D928A95E9F7F12C44
:104AC00096CF2A5F2F70223070F0C8016AD9EB2C84
:104AD000EAC0992319F0882309F4E5C0805E883084
:104AE00008F4E1C0F2CF803F08F4DDC0815F83307D
:104AF00008F4D9C0EACF291315C0209186029C91F1
:104B0000291310C0E1100EC016968C93C80149D924
:104B100087E0F801A6E8B2E001900D928A95E1F7EE
:104B2000FB2C65CFC8010E94BE0E882309F464CF18
:104B3000EE2009F461CF80918C02803280F02091C8
:104B40008602309187023A832983DC82CB8290915E
:104B50008A029D831E828F83CE01019622D987E02F
:104B6000F801A6E8B2E001900D928A95E1F79EDE89
:104B700020CF80918C02982F907F09F496CFFF2050
:104B800009F417CF20918702F80191812913CACF28
:104B90002091860290812913C5CFE110C3CF86836F
:104BA000C801FFD887E0D4011D928A95E9F7B8CFF4
:104BB0005601A81AB90A60E086E892E00E94E40E65
:104BC0000E946010A816B90608F048C0FF2009F43A
:104BD000F0CEFE2CEE2009F40FCF90918702F80161
:104BE000818198132EC0909186028081981329C0EC
:104BF0008091880290918902C81AD90AF8ECCF16E0
:104C0000D104B0F480918C0280FD12C0982F907F67
:104C100079F0D80116968C931697903F39F0982F1B
:104C2000907F905F8F70892B16968C93C801B9D8AE
:104C300087E0F801A6E8B2E001900D928A95E1F7CD
:104C4000D6CEC8010E94BE0E811189CF80918C0200
:104C5000816080938C02C801A4D8C9CE87E0F4019A
:104C600011928A95E9F72BCF652D8A2D0E94B70402
:104C7000E82E8111BCCEA98A5A8A89899A890E9414
:104C8000B20E292F22952F70903408F01ACF9F7002
:104C9000223008F41ECF992309F420CFF801968121
:104CA000907F09F01BCFFE2CA2CE80918C028160F8
:104CB00080938C0204CFABE1B0E0E1E6F6E20C9425
:104CC000DF334E8B5F8B688F798F8A8F9B8F91112B
:104CD00010928E021D8A86E0FE017696DE011F96F6
:104CE00001900D928A95E1F78B89882351F061E05C
:104CF000CE010F960E94E40E61E0CE010F960E9455
:104D0000E40E87E0FE013F96DE01189601900D92B9
:104D10008A95E1F7CE0108962DDE81110CC087E05F
:104D2000FE013896DE01119601900D928A95E1F709
:104D30004C8541110BC017E08091CE0390919503F3
:104D4000891334C06B96E3E00C94FB3320919503F8
:104D500030E0C9010196877099275091CE0358170A
:104D60001906A1F04D8397E0929FD001939FB00D5B
:104D70001124AA56BC4FFE01319601900D929A95CE
:104D8000E1F7809395030E940309D5CF1092800329
:104D90000E943115109295031092CE0387E0E6E849
:104DA000F2E0DF011D928A95E9F7C5CF819FC0012E
:104DB00011248A569C4FDEDD882321F28091CE0398
:104DC00090E00196877099278093CE03B5CFA6E037
:104DD000B0E0EDEEF6E20C94DE330E940C158C018F
:104DE00080919702909198028017910779F019822B
:104DF0001A820E940C15682F49815A81792F80E010
:104E000090E059DF10939802009397022696E4E011
:104E10000C94FA33A4E1B0E0E0E1F7E20C94D23371
:104E20001A821982FE01339688E0DF011D928A956D
:104E3000E9F78E010F5F1F4F580190E0C92E91E0F6
:104E4000D92E280166246394712CF60181916F019B
:104E50000E94A30B00C085E0882E81E0982EF4010B
:104E6000F12CE12C2191A22FA295AF70B0E0909689
:104E70008C9190E02F7002C0959587952A95E2F766
:104E800080FD0AC0D5018C9193010E2C01C0220F28
:104E90000A94EAF7822B8C93BFEFEB1AFB0A24E00B
:104EA000E216F104F9F6F601319780810E94B80B01
:104EB00080EA8A95F1F79FEFA91AB90AA5E0CA1608
:104EC000A1E0DA0611F6DD24D394F40181914F01BB
:104ED0000E94A30B00C03D2D0E2C01C0330F0A947D
:104EE000EAF7F80140E051E0DA012D91AD01822F9F
:104EF00082958F7090E0DC0190968C9190E02F70FD
:104F000002C0959587952A95E2F780FD03C08081C0
:104F1000832B80833196B1E045305B0729F7F4019C
:104F2000319780810E94B80BE0EAEA95F1F7FFEF34
:104F3000EF1AFF0A28E0E216F10439F6EDEDF5E08C
:104F400098012B5F3F4FF12CD8018D918D019191EC
:104F5000891729F0DF0111978C93FF24F394201710
:104F6000310791F70091FE0210E0025F1C4FFF2015
:104F700009F453C081E0809318020E940C159093AD
:104F8000170280931602E0907403E1106DC085E073
:104F9000F801AAE9B2E001900D928A95E1F765E087
:104FA00070E08AE992E00E944F0780939902809016
:104FB0009F029090A002A090A102B090A2028091C6
:104FC000190290911A02A0911B02B0911C0288163E
:104FD0009906AA06BB06B1F08092190290921A02B5
:104FE000A0921B02B0921C020E943C06861A970AED
:104FF000A80AB90A8092F9029092FA02A092FB02E2
:10500000B092FC028091A302882359F10E94B20F52
:105010008F2D6496E0E10C94EE3380911802882382
:1050200009F4B1CFC0901602D09017020E940C155F
:105030008C199D09059708F4A6CF45E050E06DED69
:1050400075E0C8010E94A734892B41F085E0EDEDA1
:10505000F5E0D80101900D928A95E1F710921802BF
:1050600092CF0E94980FD4CFE2EEF5E085E0DF0109
:105070001D928A95E9F78091DC058A3008F057C0C7
:105080006DEB71E1C8010E94CF0B882309F46DC05C
:1050900069E771E1C8010E94CF0B882309F465C05C
:1050A00066E371E1C8010E94CF0B882309F45DC05B
:1050B0001092DC0581E080931F020091FD0210E058
:1050C000025F1C4F45E050E062EE75E0C8010E94AF
:1050D000A734892B49F085E0E2EEF5E0D801019094
:1050E0000D928A95E1F7FE2C80913303882309F411
:1050F0008FCFC2010E94E50F09811A81C801C297B2
:10510000873B934010F008EC10E0C0906402D09010
:1051100065020E940C158C199D090817190708F0E3
:1051200077CF81E080932E031092330371CFC0902C
:105130001D02D0901E020E940C158C199D09843FFF
:10514000914008F09DCF80911F02882369F2109250
:105150001F02E091FD02F0E0E25FFC4F95E0DF010D
:105160001D929A95E9F7F82EBFCF8091DC058F3F0D
:1051700031F08F5F8093DC058A3008F49BCF0E946A
:105180000C1590931E0280931D02DDCF1F921FB657
:105190001F9211248F939F93AF93BF9380917A03B3
:1051A000811113C080917B0390917C03A0917D03BA
:1051B000B0917E034196A11DB11D80937B03909316
:1051C0007C03A0937D03B0937E03BF91AF919F9129
:1051D0008F911F901FBE1F901895CF93DF93EC0106
:1051E0000E940C158C1B9D0BDF91CF910895CDB7BC
:1051F000DEB7C655D1090FB6F894DEBF0FBECDBFDE
:1052000085B7806885BF85B7806885BF84B7877F8D
:1052100084BF0FB6F894A895809160008861809350
:105220006000109260000FBE80E890E00FB6F89426
:1052300080936100909361000FBE81E08093B00184
:105240008FEA97E090930D0280930C020E94D504A0
:105250000E9476058091E20084608093E200789459
:1052600080918B038823A1F01091E9001F70909129
:10527000EC00892F817090FD80E8182B1092E900D6
:105280008091E80083FD0E9454151F701093E9007F
:1052900082E084BD93E095BD9AEF97BD80936E0048
:1052A0001092F9021092FA021092FB021092FC0284
:1052B0000E945312809109010E94531280910501AE
:1052C0000E94B80B809106010E94B80B80910701E3
:1052D0000E94B80B809108010E94B80B00E011E019
:1052E00055E0E52E51E0F52ED8018D918D010E94FB
:1052F000B80BE016F106C1F78091090195E0811124
:1053000090E09093FE0285E0891B8093FD028091DE
:105310007403811102C00E946B32EDEDF5E0AEE046
:10532000B3E011921D9205E0E73EF007D1F790E05F
:1053300080E00E94DA34833E9E4F49F163EE7EEFB7
:1053400090E080E00E94F93460E082E090E00E940A
:10535000DF3481E08093FF0261E083E090E00E940F
:10536000DF3460E074E184E090E00E94F9340E9450
:10537000150E40E050E0BA018FE090E00E94F13459
:1053800040E050E0BA0183E190E00E94F13482E015
:1053900090E00E94CD348093020384E090E00E946C
:1053A000DA34909301038093000383E090E00E943D
:1053B000CD340E94760980913C030E94350F809184
:1053C0007403882309F480C180E080935D0380E842
:1053D0008093D1031DD76BE070E089ED91E00E94CE
:1053E0008B0F882309F445C080915D0365E070E070
:1053F00081FD6CC184ED91E00E948B0F8823C9F17F
:105400006DE070E082EC91E00E948B0F882389F1BF
:105410000E943C0665966CAF7DAF8EAF9FAF6597DF
:10542000DC01CB01805A9541AF4FBF4F80935F03A2
:1054300090936003A0936103B0936203E4EDF3E003
:1054400080E092E0DF018C011D9201501040E1F7F5
:10545000F093DB05E093DA058FEF9FEF9093D30392
:105460008093D20381E0809366038093630310925C
:105470005E0380917403811102C00E946B320E940E
:10548000C713882309F425C183E080932C038091FE
:10549000740381112EC086E997E0909351018093A7
:1054A00050012FE030E030934C0120934B018FE20C
:1054B00090E090934F0180934E014BE957E0509359
:1054C0005901409358013093540120935301909314
:1054D00057018093560141EC52E150936101409392
:1054E000600130935C0120935B0190935F01809396
:1054F0005E0190E080E00E94DA34833E9E4FC9F561
:105500008FE090E00E94D534F62E172F082F862FBB
:105510008F770E94AA12FF1CFF24FF1C612F63706B
:10552000660FF62AF092830112FB882780F90E9409
:10553000860C812F887F09F4CEC016951695169596
:10554000212F30E02F5F3F4F42E3429FC001439F36
:10555000900D11240E94780C802F83708093840119
:10556000802F869586958F708B3008F08AE0809327
:105570001A03CE0101960E94E50F8C81909197014C
:10558000891721F0809397010E94690C8D819E817B
:105590000E94780C8B8186FB882780F991E089270F
:1055A0000E94860C8F818093700182E691E0909337
:1055B000D0038093CF035E0123E0A20EB11CAE01A5
:1055C0004C5F5F4F4A018EE093E0AAE08A0F282EDD
:1055D00011E080918B0300E430E1F32E42E1E42EF0
:1055E000853009F4B2C016DC93E0C92E93E0D92EC1
:1055F0002BEE422E21E0522E2DE033E072018EE0A0
:1056000093E0F6015191DC014D91CD01D7016D91EF
:105610007D0146232E173F0709F4A3C0541791F3C9
:1056200030907403EBEEF1E06796FFAFEEAF679753
:105630002EE033E063963FAF2EAF6397F12C639675
:10564000AEADBFAD63970D916396BFAFAEAF63973D
:105650006796EEADFFAD679781916796FFAFEEAFAE
:1056600067970823D6016D906D01601629F16026B9
:10567000E12C77247394872D8621B1F03320A1F09B
:10568000E982FA820E940C159C838B83B1E0BD8372
:1056900091E0872D802309F490E09E8349815A810F
:1056A0006B817C818D8107DBE394770CE8E0EE125F
:1056B000E2CFF60131970083F394FAE0FF12BFCFF7
:1056C0000E94DF0701E051C082E07FCE8FEC91E0C5
:1056D00093CE81E0DACE8AE892E03CCF80918B03D2
:1056E000843039F10E94980F0E946C1C10927A034A
:1056F000E8E1F0E00FB6F894A895E09360000FBEE3
:105700000093600083B7817F846083BF83B781602B
:1057100083BF7894889583B78E7F83BF0FB6F89444
:10572000A89580916000886180936000109260006D
:105730000FBE70DBABEEB1E0EEE0F3E081919D9146
:10574000892309F0E9C32E12F9CF80918B038530AC
:1057500009F4C4CF109280030E9431150E94EC0618
:1057600042CF54135DCF33DB00E00E946C1C8823D2
:1057700039F00E94DF070E943D1A0E94B20F04C058
:105780000E943D1A0111F9CF86E0EEE6F3E0DE015A
:10579000119601900D928A95E1F710927003109284
:1057A000710310927203109273038B819C81892B79
:1057B00009F449C0E0906C03F0906D030E940C1551
:1057C0009C012E193F0990916703992309F4C6C3E0
:1057D00025313105C0F19F3F19F09F5F909367031A
:1057E0000B81002359F00E9421079FEF10160CF443
:1057F00091E0899F802D1124809370030C810023F8
:1058000059F00E9421079FEF10160CF491E0899F38
:10581000802D11248093710380917003882399F067
:1058200000917103002379F00E944107882309F455
:105830003EC180937003802F0E944107882309F4A2
:1058400039C1809371038D819E81892B09F449C0F0
:10585000E0906A03F0906B030E940C159C012E19D6
:105860003F0990916803992309F473C321353105E9
:10587000C0F19F3F19F09F5F909368030D81002353
:1058800059F00E94FF069FEF10160CF491E0899FDB
:10589000802D1124809372030E81002359F00E9401
:1058A000FF069FEF10160CF491E0899F802D1124C4
:1058B0008093730380917203882399F0009173039E
:1058C000002379F00E944107882309F4F6C08093F1
:1058D0007203802F0E944107882309F4F1C080934E
:1058E0007303BE016F5F7F4F8EE693E00E945C06FC
:1058F00081110CC08091700390917103892B90915C
:105900007203892B90917303892B11F00E94181553
:1059100086E0FE013196AEE6B3E001900D928A95E5
:10592000E1F70E94EC0690910D03891721F0809316
:105930000D030E943C0680918B03843009F4C3C0A0
:1059400080917403882309F444CE0E943C06462FBC
:10595000572FBC0180912103811144C080911D0308
:1059600090911E03A0911F03B09120038A019B0117
:10597000081B190B2A0B3B0BD901C801843F91402E
:10598000A105B10578F140931D0350931E03609368
:105990001F037093200380911B0390911C030196B9
:1059A00090931C0380931B0319828E010F5F1F4F7E
:1059B00021E050E040E060E088E00E94E5108111C5
:1059C00006C080911B0390911C030A975CF081E054
:1059D00080932103809372019981911101C080E02D
:1059E0008093730180917301882309F4F1CD0E94A3
:1059F0003C066B017C018091220390912303A091CE
:105A00002403B0912503A7019601281B390B4A0BEB
:105A10005B0BDA01C9010497A105B10580F1198278
:105A20001A821B821C828E010F5F1F4F24E050E000
:105A300040E060E089E00E94E5108823C1F06981C0
:105A40007A8180917801909179010E94900B9093D6
:105A50007901809378016B817C8180917A019091AA
:105A60007B010E94900B90937B0180937A01C092FE
:105A70002203D0922303E0922403F0922503809125
:105A80007D01882309F49FCD80917C01898310E0FA
:105A900000E020E0AE014F5F5F4F61E08AE00E94CE
:105AA000E510882309F48FCD10927D018CCD1093E1
:105AB0007003C1CE10937103C6CE1093720309CF49
:105AC000109373030ECF83E08093E9008091E80088
:105AD00082FF36CF8091E80090E085FF05C00E94EC
