:100000000EC5000029C5000027C500000C947433FC
:1000100023C5000021C500001FC500001DC500004C
:100020001BC5000019C500000C94AA150C94C61934
:100030000C94E92811C500000FC500000DC5000093
:100040000BC5000009C5000007C5000005C500007C
:1000500003C500000C949216FFC40000FDC400000C
:10006000FBC40000F9C40000F7C40000F5C40000A0
:10007000F3C40000F1C40000EFC40000EDC40000B0
:10008000EBC40000E9C40000E7C40000E5C40000C0
:10009000E3C40000E1C40000DFC40000DDC40000D0
:1000A000DBC40000D9C40000D7C400000501090268
:1000B000A10185020901A1000509190129081500FE
:1000C0002501950875018102050109300931158165
:1000D000257F95027508810609381581257F9501D0
:1000E00075088106050C0A38021581257F95017572
:1000F000088106C0C005010980A101850319012AF4
:10010000B700150126B700950175108100C0050CD8
:100110000901A101850419012AA002150126A002E6
:10012000950175108100C00660FF0961A101096297
:10013000150026FF00952075088102096315002629
:10014000FF00952075089102C005010906A101056F
:100150000719E029E7150025019508750181029529
:1001600001750881010507190029FF150026FF0008
:100170009506750881000508190129051500250156
:10018000950575019102950175039101C061626346
:100190006465666768696A6B6C6D6E6F70717273A7
:1001A0007475767778797A31323334353637383931
:1001B00030524542545F2D3D5B5D5C233B27602CF4
:1001C0002E2F00DA0281FFD9F1DB20A4A62EAF008A
:1001D000A0C0D30000A1C8D30000AED580A81F40A6
:1001E0008D142000783C1E1E140A05000101010137
:1001F00001010101010202020202020202020303E2
:1002000003030303030304040404040404050505B1
:100210000505060606060607070707070808080873
:10022000090909090A0A0A0B0B0B0C0C0C0D0D0D20
:100230000E0E0E0F0F0F10101111111212131314B6
:1002400014151516161717181819191A1A1B1B1C2E
:100250001D1D1E1E1F202021222223242425262688
:10026000272829292A2B2C2D2D2E2F3031323233BD
:100270003435363738393A3B3C3D3E3F40414243C6
:100280004445464748494A4C4D4E4F5051535455AA
:100290005658595A5B5D5E5F616264656668696B5A
:1002A0006C6D6F7072737577787A7B7D7E808283D8
:1002B0008587888A8C8E8F91939596989A9C9EA01C
:1002C000A2A3A5A7A9ABADAFB1B3B5B7BABCBEC029
:1002D000C2C4C6C9CBCDCFD1D4D6D8DBDDDFE2E4F2
:1002E000E7E9EBEEF0F3F5F8FAFDFF2223252628E7
:1002F000292A2C2D2F3032333536383A3B3D3E40BB
:1003000042434547494A4C4E5051535557595A5C00
:100310005E6062646668696B6D6F71737577797B17
:100320007D7F81838587898A8C8E90929496989A16
:100330009C9E9FA1A3A5A7A8AAACAEAFB1B3B4B62B
:10034000B8B9BBBCBEBFC1C2C3C5C6C7C9CACBCC86
:10035000CDCED0D1D2D2D3D4D5D6D7D7D8D9D9DA59
:10036000DADBDBDBDCDCDCDCDCDDDDDDDDDCDCDCCE
:10037000DCDCDBDBDBDADAD9D9D8D7D7D6D5D4D3F6
:10038000D2D2D1D0CECDCCCBCAC9C7C6C5C3C2C1CB
:10039000BFBEBCBBB9B8B6B4B3B1AFAEACAAA8A728
:1003A000A5A3A19F9E9C9A98969492908E8C8A89E0
:1003B000878583817F7D7B79777573716F6D6B69BD
:1003C00068666462605E5C5A5957555351504E4C92
:1003D0004A4947454342403E3D3B3A383635333241
:1003E000302F2D2C2A29282625232200AF00AE20CD
:1003F0002000BABB004B657920B10020C0C100BE0F
:10040000BF00484F005654003030200020202020EC
:10041000B1BCBD0042616C6CB100B4B500B2B300B8
:10042000C2C3004CB6B772B1002020004C001300CC
:1004300012000C0018001C0087022D000F000E0097
:100440000D000B0035023800370036001000110097
:1004500000002F43E30091212A4228412900140083
:100460001A000800150017002B00040016000700F2
:1004700009000A00E1001D411B00060019000500EB
:100480000000E300E20091432C00904201002700AD
:100490002600250024002300000043004200410004
:1004A00040003F00000000008900310231003300AD
:1004B00000000000010001000100010001001E0019
:1004C0001F0020002100220001003A003B003C00F8
:1004D0003D003E000100000000003002300034000A
:1004E0000000010001000100010001000000000007
:1004F0000000D3000000000000002352D200520090
:10050000D1000000000000004F005100500000002A
:10051000000000003700010001000100010054004C
:100520005F00600061005600010055005C005D0046
:100530005E0057000100620059005A005B00630032
:10054000000001000100010001000100010056004F
:10055000610060005F005400000057005E005D0015
:100560005C005500000063005B005A005900620007
:1005700000000000007E01000100010001000000F9
:10058000000000000000000001000000000000006A
:10059000000000000100000000000000000000005A
:1005A00000000100010001000100010009025B00E0
:1005B000030100A0FA090400000103010100092160
:1005C00011010F01224400070581030800010904FD
:1005D0000100020300000009211101000122220094
:1005E0000705820320000107050303200001090419
:1005F00002000103000000092111010F01227B000C
:1006000007058403200001120100020000000857C2
:1006100059000400010102000114034B0065007938
:1006200000620061006C006C0034003400000010B7
:100630000359006F0077006B0065006500730000D0
:10064000000403090400000000000000002F000067
:1006500000000700070000123F123F1200242A7F0B
:100660002A120036091E241B001826291228000011
:100670000007000000001E214000000040211E0075
:100680000014083E08140008083E08080000003066
:100690007000000808080808000000303000002042
:1006A000100C0201001E2925231E0000223F2000FD
:1006B00000223129292600122125251A001814129A
:1006C0003F10001725252518001E25252518000197
:1006D00031090503001A2525251A00062929291E96
:1006E00000000033330000000033730000081414CE
:1006F00022220014141414140022221414080002DC
:1007000001290502003E59555D3E00381611163884
:10071000003F2525251A001E21212112003F2121FD
:10072000211E003F25252521003F09090901001E42
:100730002121291A003F0404043F0000213F210029
:1007400000102020201F003F040C1221003F202019
:100750002020003F0204023F003F020C103F001E19
:100760002121211E003F09090906001E2129112E01
:10077000003F090919260012252529120001013F11
:100780000101001F2020201F000718201807000F5C
:10079000300C300F0021120C122100030438040326
:1007A00000312925232100007F4141000001020C76
:1007B0001020000041417F000004020102040040BB
:1007C0004040404000000103040000102A2A2A3C57
:1007D000003F2422221C001C22222224001C222250
:1007E000243F001C2A2A2A0C0000043E0505000CA8
:1007F0005252543E003F080404380000003D0000FF
:10080000002040403D00003F080814220000013F46
:100810002000003E023C023C003E0402023C001C60
:100820002222221C007E1422221C001C2222147E62
:10083000003E0402020400242A2A2A120000021F99
:100840002200001E2020103E000618201806000E70
:10085000300C300E002214081422000E5050483E76
:100860000022322A26220008087741410000007F3A
:10087000000000414177080800180408100C00002F
:100880000000000000000000000000000000000068
:1008900000C0F0F88C86C6E7FFFFFFFFFFFFFEFCFD
:1008A000FCF8E080000000F0F0F00000C0E0F07024
:1008B00070000000000000000000000000000000C8
:1008C00000000000000000F8F8F800000000000040
:1008D00000000000000000000000000000F8F8F830
:1008E0000000F8F8F8000000000080E07078686C04
:1008F00064C7C7C7C7C7C7E73F1F0F3FFFFFFFFF5B
:10090000FFFF3F0F000000FFFFFF1E3FFFF3E180EE
:100910000000F8FCFE3636363EBCB8000E3EFEF057
:1009200080F0FE3E0E0000FFFFFF060606FEFEFC06
:100930007000E6F6F63636FEFEFC000000FFFFFF14
:100940000000FFFFFF000000003C7F6360E0C0C0CC
:10095000C0C0C0C0C0C0FFFFC06030180F03030399
:100960000100000000000003030300000003030374
:100970000300010303030303030301007070393F05
:100980001F07010000000001030303030303030129
:10099000000001030303030303010000000303033A
:1009A00000000303030010101000000000550000B9
:1009B000003E635D5D637F417B77413E00001C220A
:1009C000221C003E0A003E0A00322A3C0026281E55
:1009D000001C2A2C0000003F09360000001E2121C7
:1009E00000000000003F0837001E2121001E2121C9
:1009F000003F090600213F2100222519001E212168
:100A0000003F0936003F211E00213F21000F300F1B
:100A1000003E093E003F063F003F20200000112419
:100A20001FBECFEFDAE0DEBFCDBF12E0A0E0B1E045
:100A3000E0EFFBE602C005900D92A632B107D9F7B0
:100A400026E0A6E2B2E001C01D92A339B207E1F7A9
:100A50000E941A290C94AE35D3CA8091900181115D
:100A60001BC08EE1909191019923C1F09091920168
:100A7000911116C09EE120918504211113C0292FE8
:100A800020938B0180938C01890F10928D018093AC
:100A90008E0180938F0108958DE1E4CF90E0EBCF3C
:100AA0009DE1E9CF20E0ECCFE0918204F091830456
:100AB000309739F00284F385E02D309711F060E231
:100AC00009950895982FE09179044091400457E0EA
:100AD000E41302C080E008952E2F30E05E9FF00105
:100AE0001124EF5BFB4F8181681306C0808198134E
:100AF00003C085818111EFCFF9013196E770E8CF0E
:100B0000E8EDF0E080818E7F80831092E200109209
:100B1000DA001092E100A0EEB0E08C9181608C933D
:100B200080818F77808319BCA7EDB0E08C918E7F98
:100B30008C9380818F7E808310922A040895209167
:100B4000E4003091E50095E6A9012091EC00822FA8
:100B5000817020FF06C08091E80080FF06C080E021
:100B600008952091E80022FD1AC080913604882360
:100B700089F0853089F08091EB0085FD0FC02091D0
:100B8000E4003091E50042175307F9F29150E1F685
:100B900084E0089582E0089583E0089581E0089557
:100BA0008091380487FF13C08091E80082FF06C05F
:100BB0008091E8008B778093E80004C08091360430
:100BC0008111F2CF0895809136048823D9F3809162
:100BD000E80080FFF8CF8091E8008E77ECCF982F67
:100BE0009093E900242F762F50E0891731F070910F
:100BF000EC002091ED005091F00021FD07C09F5FB7
:100C0000973071F78093E90081E008953091EB000F
:100C10003E7F3093EB003091ED003D7F3093ED004F
:100C20003091EB0031603093EB007093EC00209337
:100C3000ED005093F0002091EE0027FDE0CF80E022
:100C40000895B0E0A0E0E7E2F6E00C94A334C8ED2C
:100C5000D0E088818F7E8883E7EDF0E0808181603D
:100C6000808384E082BF81E080932A0488818E7F24
:100C7000888302EE10E0F80110821092DA0081EE13
:100C8000C82ED12CF601108288818F7788838881C5
:100C90008068888388818F7D888319BC1092360490
:100CA00010923704109235041092340490EEE92E1D
:100CB000F12CF70180818B7F80838881816088831C
:100CC00042E060E080E08BDFF60180818E7F8083F0
:100CD000F801808181608083808188608083F70152
:100CE00080818E7F8083888180618883CDB7DEB7E5
:100CF000E8E00C94BF34FC01CB0120913E0430911C
:100D00003F042617370790F0009729F42091E80058
:100D10002E772093E80040E0009751F4411108C07D
:100D20008091E80082FF31C080E00895C901F3CFCF
:100D3000209136042223A9F12530A9F12091E80061
:100D400023FD2DC02091E80022FDEACF2091E8008C
:100D500020FFE2CF3091F3002091F200009719F0CC
:100D60002830310558F041E02830310509F040E0E5
:100D70002091E8002E772093E800CECF4191409358
:100D8000F10001972F5F3F4FE9CF80913604882310
:100D900041F0853041F08091E80083FFC1CF81E0D0
:100DA000089582E0089583E008950895089587E7FF
:100DB00097E7909301088093000888E19AE00FB6C6
:100DC000F894A895809360000FBE90936000FFCFC9
:100DD000A4E0B0E0EEEEF6E00C94A9348FB7F894FE
:100DE0002091260430912704409128045091290431
:100DF00029833A834B835C838FBF69817A818B819E
:100E00009C812496E2E00C94C53480918801089579
:100E1000DC01FB0111969C9111978181981322C0EE
:100E200012968C911297882319F0928189131AC017
:100E300013968C911397882319F09381891312C00C
:100E400015968C911597882319F0958189130AC0FE
:100E500014969C91992321F081E02481291303C0E9
:100E600080E001C081E081700895A3E0B0E0EBE391
:100E7000F7E00C94A9349C01809123049091240400
:100E800082179307B1F03093240420932304E09158
:100E90008204F0918304309761F00084F185E02DA5
:100EA000309739F084E089833B832A83CE01019611
:100EB00009952396E2E00C94C534A3E0B0E0E3E6A4
:100EC000F7E00C94A9349C018091210490912204B4
:100ED00082179307B1F03093220420932104E0910C
:100EE0008204F0918304309761F00084F185E02D55
:100EF000309739F083E089833B832A83CE010196C2
:100F000009952396E2E00C94C534DC01E09182045B
:100F1000F0918304309759F086819781892B39F0BD
:100F200082E08C930680F781E02DCD01099508952C
:100F300080918404882369F0E0918204F091830415
:100F4000309739F00190F081E02D309711F009953C
:100F5000089580E008958091160480FD16C081FDFB
:100F600016C082FD16C0809115048823A1F0883236
:100F700080F428E0829FC001112468E270E00E94A2
:100F8000DC34862F672B39F0089582E0089584E0E1
:100F9000089588E0089581E008958091160480FD09
:100FA00014C081FD14C082FD16C0809114048823F2
:100FB00081F08E3180F420E5829FC00111246EE122
:100FC00070E00E94DC34862F089584E1089588E261
:100FD000089588E0089580E50895282F35EB2303D0
:100FE000C001112497FF04C080589109892F0895EA
:100FF00080589F4FFBCFFC01680F791F8FEF91E363
:101000002191822728E030E087FF09C0880F8927D7
:1010100021503109C9F7E617F70791F70895880FAE
:10102000F7CFFC01EE0FFF1FE80FF91FE05AFC4F4E
:101030006183408322830895539A0895E2E3F3E0A5
:1010400011828281846082830895CF9380917A0493
:1010500080FF04C00E94B710CF910895C0918D0108
:1010600080918E01C817B0F780918B019C2F981B3F
:10107000892F20E040E060E090E0D3DFCF5FF0CF49
:101080000F931F93CF93DF93D82F162F042F8091A8
:101090007A04C0918D0180FD10C0DF91CF911F9126
:1010A0000F91089580918B019C2F981B892F202FE1
:1010B000412F6D2F90E0B5DFCF5F80918E01C81773
:1010C00088F3C3DFEACFB0E0A0E0E9E6F8E00C94F3
:1010D000A134262FD72EE82FF0E0E551FE4F7111F5
:1010E0000AC0E4918E2F9E2F6E2F792FCDB7DEB7D9
:1010F000EAE00C94BD34072F10E0E4914E2F56E047
:10110000659F70011124CFEFD0E0C701BE010E949E
:101110008534822F90E0880F991F55E5569F9001E6
:10112000579F300D1124821B930B582F550F580FCA
:10113000CE01801B910BE89F9001E99F300D112497
:10114000932FD59ED0011124AB2FBB276E01CA1A55
:10115000DB0AEC9DD001ED9DB00D11248B2F5E01BB
:10116000A51AB108A09E6001A19ED00CB09ED00C23
:101170001124CD2CDD24CC19DD09EC9F8001ED9FDD
:10118000100D112463307105D1F05CEFE51653E0CA
:10119000F50670F461307105B1F062307105B9F097
:1011A0004FEFE416F10408F09FCF832F912F9CCFCF
:1011B0006430710579F066307105B9F395CFE32F8E
:1011C0009B2F842F91CFEB2F832F942F8DCF812FA7
:1011D000E32FFBCF8E2FE12F87CF982F762F842FF1
:1011E00020917A0420FF0AC0473908F086E9692F68
:1011F0006ADF962F672F482F892F42CF0895CF930C
:10120000DF93EC01EAE7F4E0438162818C81E5DF62
:101210008C818F5F8C83DF91CF910895CF93DF9383
:10122000EC01EC81F0E0E551FD4F4491EAE7F4E098
:1012300062818181D2DF8C818F5F8C83DF91CF913E
:10124000089590917B01882341F09F5F90937B01EB
:10125000109278011092770108959150F7CFE0E74E
:10126000F1E0828591E089278287108617820895B0
:1012700080917901811114C080917B01811110C08E
:1012800080917A0181110CC090912B0396959695CF
:10129000969581E020917101921380E0817008950C
:1012A00081E0FCCF80919001F9018083D6CBCF9370
:1012B000DF93E0E9F1E083819481A581B681E901C2
:1012C00088839983AA83BB83148213821682158232
:1012D000DF91CF91089580E0089563E070E081E8A8
:1012E00092E089DE90918002891318C0E09181021A
:1012F000EC30A4F488E0E802F0011124EF5FFE4F27
:101300000680F781E02D309749F024EA32E04091E1
:10131000830264E872E08091820209950895EBE609
:10132000F2E0878980933101808D80934401089594
:10133000F894E82FE295EF70F0E041A18F7021E082
:1013400030E0B90102C0660F771F8A95E2F7CB0142
:10135000962F9095942391A392A1892B82A37894A0
:101360000895A4E0B0E0E7EBF9E00C94A934809193
:101370008404882369F02CDD69837A838B839C83C2
:1013800069817A818B819C812496E2E00C94C5343A
:101390001FDD69837A838B839C838091D90290912E
:1013A000DA02A091DB02B091DC0229813A814B8103
:1013B0005C81280F391F4A1F5B1F29833A834B83A7
:1013C0005C83DECF811522E5920708F04AC08115C3
:1013D00030E5930708F0C5C0803E910540F58D3C8F
:1013E000910508F09AC0883A910580F4853A9105F4
:1013F00008F090C08130910541F09C0124503109E2
:10140000213A310510F090E080E008959C01285ABF
:1014100031092B313105B8F7885AE82FF0E0EE0F8B
:10142000FF1FE954FE4F80819181946408958115D6
:1014300040E4940798F4811550E2950708F0ABC09A
:10144000883E910510F39C013A9521153F41D8F64D
:1014500020E0392FA901482BCA0108959F70906A96
:101460000895803852E59507B8F5803622E5920751
:1014700008F05CC0803432E59307C8F4803242E55E
:10148000940708F04CC0282F2695269550E2259FFA
:1014900090011124482F437081E090E002C0880F32
:1014A000991F4A95E2F7822B932B9D680895282F68
:1014B00026952695277040E2249F90011124482FFD
:1014C000437081E090E002C0880F991F4A95E2F7CF
:1014D000822B932B9C680895803C52E5950760F41D
:1014E000282F2F71803A9245B0F5822F90E0982FE7
:1014F0008827846F906A08959C01205C32452032D1
:10150000310508F080CF982F882788279F71806F3A
:10151000906A0895849790640895906508958F71F6
:1015200090E0982F8827816F906A0895282F26953C
:101530002695277050E2259F90011124482F437073
:1015400081E090E002C0880F991F4A95E2F7822B54
:10155000932B9A680895822F90E0982F88279062A5
:1015600008959C0195E0369527959A95E1F72F709F
:1015700030E0322F2227482F4F7150E084FF06C001
:1015800084E0440F551F8A95E1F75527C901842B44
:10159000952B906908959F71E2CF982F9095809137
:1015A0002B04892380932B040895809179049091D2
:1015B0004004981301C008958F5F8770FACF292FD8
:1015C000983078F5863068F590E036E0239F800DFE
:1015D000911D1124682F677023E0969587952A95B1
:1015E000E1F7FC01EE0FFF1FE80FF91FE45CFD4F70
:1015F00050E040E080E0219130E0062E02C03695B8
:1016000027950A94E2F721703327042E01C0220F98
:101610000A94EAF7822B4F5F5F4F4330510559F729
:10162000089580E00895292F983090F5863080F550
:1016300090E036E0239F800D911D1124282F277004
:1016400041E001C0440F2A95EAF723E0969587957B
:101650002A95E1F7FC01EE0FFF1FE80FF91FE45C8C
:10166000FD4F90E080E070E05191DF0111979B0108
:10167000082E02C0369527950A94E2F7217021952D
:101680002527242325272C9301968330910561F784
:1016900008958093E7020895982F82958F7011F036
:1016A000982F84E0292F2695269511F08E5F922F92
:1016B000969509F08F5F0895CF93C82F80919D0173
:1016C0008C1749F085DB60939E0170939F01809396
:1016D000A0019093A101C0939D01CF9108950F9314
:1016E0001F93CF93DF93EC01FB018091A201811145
:1016F00001C084E08150990B02E010E002C0000FAD
:10170000111F8A95E2F788819981B8010E94DC3423
:101710009B01998388838A819B81B8010E94DC3474
:101720009B838A8361388FEF7807F4F06038710506
:10173000ECF4658321388FEF3807D4F02038310579
:10174000CCF4822F81958483442319F061956583BD
:1017500024838091A301882379F0813079F0DF918F
:10176000CF911F910F91089561E8E3CF6FE7E1CF2B
:1017700021E8E7CF2FE7E5CF1582F1CF1482EFCF35
:10178000FC01DB012281338121388FEF380704F11E
:1017900020383105FCF412962C93129780819181A8
:1017A00081383FEF9307C4F080389105BCF413965D
:1017B0008C931397442339F0219512962C9312970A
:1017C000819513968C931182108213821282089550
:1017D00021E8E1CF2FE7DFCF81E8E9CF8FE7E7CF3F
:1017E0008F708A3010F4805D0895895A089520E240
:1017F00097FF04C09195819591092DE2EAE0F0E010
:10180000BF010E94DC34805D809333026115710555
:1018100059F42093320220E22093310220E22093F7
:10182000300280E392E00895CB01BF010E94DC34D6
:10183000805D809332026115710571F3CB01BF01A8
:101840000E94DC34805D80933102E9CFAC01860FC9
:10185000971F57FD07C077FD04C097FF02C08FEFA9
:101860009FE7089577FFFDCF97FDFBCF80E090E8DD
:101870000895E9E7F1E083E0DF011D928A95E9F739
:10188000E5E7F1E084E0DF011D928A95E9F708952C
:101890009C0180917201909173018217930729F046
:1018A0003093730120937201E4CF089590917001F9
:1018B000981719F080937001DCCF0895CF936DE1F4
:1018C00073E085E293E0A4DAC82F882319F085E25B
:1018D00093E01BDB9091260386E0E5E2F3E0DF0175
:1018E000282F1D922A95E9F790932603ADE1B3E0E6
:1018F00001900D928A95E1F781E0C11103C0911129
:1019000001C080E08170CF910895CF93DF93282F9D
:1019100081E02A3019F02D3029F480E088D0DF9161
:10192000CF91089580918F069091900636E0FC014A
:10193000A9E8B6E001900D923A95E1F730EE320F4A
:10194000343A08F458C026E0FC0111922A95E9F7D0
:10195000C0918F06D091900646E050E0BE0189E824
:1019600096E00E9441359E0129583440892B41F16F
:10197000C90145E0969587954A95E1F741E050E029
:10198000BA0102C0660F771F8A95E2F7CB0160911A
:10199000870470918804862B972BB9016B5F7F4F6A
:1019A000E5E076956795EA95E1F702C0440F551F8B
:1019B0006A95E2F7842B952B909388048093870493
:1019C0002A5F3F4F40918604642F70E0C9010E9456
:1019D0008534481B463010F4240F311D211572E068
:1019E000370710F030E020E027573B4F3093900648
:1019F00020938F0694CF2052330B46E0429FB001D4
:101A0000439F700D11246B5B794F46E050E00E94BC
:101A10002B359ECFCF93DF93EC01FE018491811192
:101A200003C0DF91CF91089570DF2196F6CFCF9359
:101A3000382FE0918F06F0919006E958F4402091FC
:101A40008604622F70E0CF010E948534281B822F0C
:101A5000332359F066E00E94D034C82FC15010F4EF
:101A6000CF91089580E251DFF9CF9F01280F311DFA
:101A70002115324018F080E0F0E0E0E08E0F9F2F5B
:101A8000911D87579B4F9093900680938F06E8CFC8
:101A900080912B0490915602892B909155029923A5
:101AA00089F0892B90E02AE232E0F90140812F5F32
:101AB0003F4F41119F5F42E020333407B1F791114E
:101AC000109255028093280248E050E067E572E0EA
:101AD00088E292E00E944135892BB9F088E0E8E283
:101AE000F2E0A7E5B2E001900D928A95E1F7E0916E
:101AF0008204F0918304309741F00280F381E02D5D
:101B0000309719F088E292E009950895882311F042
:101B100044DDBECF0895882331F090912B04892BAA
:101B200080932B04B5CF08950F931F93CF93DF932A
:101B3000EC01FC0101900020E9F78F01015011092F
:101B4000C017D10728F0DF91CF911F910F91089511
:101B50008991DBDEF5CF0F93CF93DF93CAE7D4E013
:101B6000488159816A817B8188E090E00E948B35B1
:101B7000288139814A815B816C817D818E819F8141
:101B800000E20E941035622F83E290E00E947935D6
:101B9000DF91CF910F9108950F931F93CF93DF9310
:101BA000D82F162FC42F022F80917A0480FF34C0C3
:101BB00020917B042D1308C090917C04961304C0DF
:101BC00090917D04941729F0909134039260909342
:101BD0003403E82FE695E695F0E0EB5FFD4F90814A
:101BE000909332038C7F8430E1F48C2FC73908F056
:101BF00086E96D2F712F67DA962F672F482F892F6F
:101C00003FDAD0937B0410937C04C0937D040023BF
:101C100019F08AE794E09FDFDF91CF911F910F9138
:101C20000895923019F4C0917D04EBCF963049F7B6
:101C3000D22FE7CFEAE7F4E043812FE0421B08F41C
:101C400040E021E062818181A7CFEAE7F4E04381AF
:101C50002FE0420F08F44FEF21E0628181819CCF99
:101C6000EAE7F4E0628121E1621B08F460E021E030
:101C70004381818191CFEAE7F4E0628121E1620F43
:101C800008F46FEF21E04381818186CFEAE7F4E039
:101C9000818121E04381628181517ECFEAE7F4E0D6
:101CA000818121E0438162818F5E76CF80917E04C5
:101CB000882319F0815080937E048AE794E04BCF0B
:101CC00080917E04833018F48F5F80937E048AE7CE
:101CD00094E041CFEAE7F4E080818E7F8083CF01FA
:101CE0003ADFACD9E2E3F3E0828181608283ADC95F
:101CF000EAE7F4E089E080838AEA81838FEF8283D8
:101D000080E883838483E2E3F3E0828183608283DB
:101D10008AE794E020CF1F93CF93DF93962F122F63
:101D2000632F8430D8F49830C8F44630B8F4C42F08
:101D3000D0E0CC0FDD1F2CE0929FC00DD11D1124EF
:101D400090E6899FC00DD11D1124CE0185960E9479
:101D50007935612FCE0186960E947935DF91CF913A
:101D60001F910895AF92BF92CF92DF92FF920F938F
:101D70001F93CF93DF93B12CA12C00E0650110E0FD
:101D800012C0FE01259134914F2D612F802FC3DFAA
:101D90002296F39486E0F812F4CF86E0C80ED11CA8
:101DA0001F5F183039F0E601CC0FDD1FC45DDB4F3B
:101DB000F12CE7CF0F5F80E3A80EB11C0430F1F6E1
:101DC000DF91CF911F910F91FF90DF90CF90BF9047
:101DD000AF9008954F925F926F927F928F929F92F1
:101DE000AF92BF920F93CF93DF9300D000D0CDB7C7
:101DF000DEB788E090E00E946F352B013C01AAE736
:101E0000B4E06C9350927B0480937C0470927D04C8
:101E100010927E0410927F0410928004109281042C
:101E200083E290E00E946735282F30E040E050E0E8
:101E300060E070E080E090E000E20E94F534242948
:101E4000352946295729EAE7F4E0208330937B04BB
:101E500040937C0450937D0460937E0470937F04D0
:101E600080938004909381040F900F900F900F90B7
:101E7000DF91CF910F91BF90AF909F908F907F9007
:101E80006F905F904F9008950F931F93CF93DF93C0
:101E9000843030F5683020F5463010F5C42FD0E09E
:101EA000CC0FDD1F2CE0629FC00DD11D112430E648
:101EB000839FC00DD11D1124CE0185960E946735E8
:101EC000082F10E0102F0027CE0186960E9467355C
:101ED0009801282BC901DF91CF911F910F9108958F
:101EE00090E080E0F8CF462F672F783028F4463016
:101EF00018F4843008F4C8CF80E090E00895B0E092
:101F0000A0E0E5E8FFE00C94A4347C0100913503E7
:101F10008091E702082BC3E0D0E010E0DC2EC8017E
:101F20000C2E02C0959587950A94E2F780FD09C0B2
:101F30002197A0F7D12C8D2DCDB7DEB7E7E00C941B
:101F4000C034B7018C2FCFDF3DDA019789F3F3CF8F
:101F5000CF93DF93D82FC92FD2DF6D2F7C2FC3DF14
:101F600031DADF91CF910895FC018481882399F0C3
:101F700080819181EDDF282F92959F70963091F0AE
:101F800060F4925F9F70923030F481E0203F81F0E6
:101F900030F4283E30F080E004C09A5FF3CF243F55
:101FA000D1F7089581E0283E20F0213FA1F7F9CF35
:101FB00008950895A6E0B0E0E0EEFFE00C94A834A8
:101FC0009C0186E0F901DE01119601900D928A953F
:101FD000E1F7F901258189819A81222381F0662325
:101FE00071F08DDF182F682F89819A811CDB698140
:101FF0007A81812F78DF2696E3E00C94C434DFDA0F
:10200000182FF5CF8091000381110BC080EE93E073
:102010000E946735883040F480936D0181E08093A1
:10202000000380916D0108958E3FB1F383E0F4CFFA
:10203000CF93DF93C82F30DBD82FE4DF982F81E0D8
:10204000D91380E039DBC0933503DF91CF91089538
:1020500021E030E001C0220F8A95EAF720958091B7
:1020600035038223E5CF90912B03809589238093BC
:102070002B03282F277061F4891751F09091E90202
:1020800092FF06C0869586958695E2DF10922B0317
:10209000089521E030E001C0220F8A95EAF780918F
:1020A0003503822BC5CF0F931F93CF93DF938B0103
:1020B000EA0190913604943061F58093E9008FEF46
:1020C0009091E800815095FD06C095ED9A95F1F745
:1020D00000008111F5CF8091E80085FF1AC00E94B1
:1020E0009F05811111C08091E80085FD06C0809197
:1020F000E8008E778093E800F2CFF80181918F019C
:102100008093F100219779F78091E8008E77809392
:10211000E800DF91CF911F910F910895BC0143E03A
:1021200050E084E0C0CFBC0146E050E084E0BBCF8B
:10213000CF93DF93D82FC92F48E050E0682F792F35
:1021400081E0B1DF88E0ED2FFC2FACE2B4E001903C
:102150000D928A95E1F7DF91CF910895792F603242
:1021600029F440E250E0682F82E09DCF08953BB112
:10217000377F2BB128604FB7F89480E693E0FC01DD
:102180000196508168E02BB9000000C057FF3BB9B1
:10219000550F000000C000C000C03BB900C06A95E8
:1021A00091F754E08431950751F74FBF8FE594E0E4
:1021B0000197F1F700C000000895B0E0A0E0E3EE61
:1021C000F0E10C94A134F82EE92ED62EC72E8A0108
:1021D0008091D802AA24A394B12C8A3018F48AE002
:1021E000A82EB12CC1E0D0E06D2D7C2D8F2D9E2D21
:1021F000F8010995811104C02196AC16BD062CF496
:10220000CDB7DEB7EAE00C94BD34CC9F9001CD9FF2
:10221000300D300D112490E080E045E34A95F1F750
:102220000000019682179307C1F7DECFAB0124E6C9
:1022300030E0BC0188E70E944A329C0181E0232BF8
:1022400009F080E0089580915C0390915F03911103
:1022500003C091E089270895882361F062E070E06F
:102260008DEE93E0E3DF811103C080915C0308955C
:1022700010925C0380915C03ECCFA5E0B0E0E3E456
:10228000F1E10C94A93480915C038D8380915F030C
:102290008823E9F00E94E806DC01CB01805A9541D1
:1022A000AF4FBF4F8093580390935903A0935A03A5
:1022B000B0935B038D81811107C062E070E08BEE0B
:1022C00093E0B4DF811108C080915C038D838D8120
:1022D0002596E2E00C94C53481E080935C03F4CF52
:1022E0009091E90292FB222720F9281771F080FBD8
:1022F00092F99093E9026091E8027091E90284E01A
:1023000090E00E94933582E0AECE0895B0E0A0E068
:10231000ECE8F1E10C94A334FA0169017801C82FCB
:10232000880FDD0B3097B1F0DE0193E0AA0FBB1FE1
:102330009A95E1F7AF5FBE4F11968D919C911297E0
:1023400085599D4F4C9150E0E417F50708F4AF0113
:102350000E944E35CE010E941534182F8823D1F0EB
:10236000E114F104B9F083E0CC0FDD1F8A95E1F7A9
:10237000FE01EF5FFE4F438150E0E416F50608F4DE
:10238000A701CF5FDE4F6C817D8165597D4FC6010E
:102390000E944E35812FCDB7DEB7E8E00C94BF34F4
:1023A000A5E0B0E0E6EDF1E10C94A1348D83E62EDA
:1023B0005A01F22E68018091D8028A3028F080E01C
:1023C0002596EAE00C94BD348D818930C4F31982DE
:1023D0008A836B832C8363E070E0CE0102960E94B7
:1023E000FB078983E0923101F092440110E000E0A4
:1023F00030E020E044E050E0BE016F5F7F4F85E0B9
:1024000085DF8823E1F24E2D50E030E020E0B50179
:1024100086E07CDF882399F230E020E041E050E064
:10242000BE016B5F7F4F87E071DF882341F20F2D84
:1024300010E0960150E040E070E060E088E066DF88
:10244000BFCFA8E0B0E0E7E2F2E10C94A334C09083
:10245000CC02D090CD02E090CE02F090CF020E944C
:10246000E806DC01CB018C199D09AE09BF0911E01A
:1024700084369105A105B10518F10E94B109DC016E
:10248000CB010296A11DB11D89839A83AB83BC83C6
:1024900010E000E030E020E044E050E0BE016F5F7B
:1024A0007F4F82E033DF182F882351F00E94E80627
:1024B0006093CC027093CD028093CE029093CF02B2
:1024C000812F2896E8E00C94BF348F929F92AF92B0
:1024D000BF92EF92FF920F931F93CF93DF93CDB7ED
:1024E000DEB729970FB6F894DEBF0FBECDBF7B01D4
:1024F00001E010E09E012B5F3F4F50E040E070E0B4
:1025000060E080E003DF182F882309F44EC080903C
:10251000C8029090C902A090CA02B090CB020E945B
:10252000E806DC01CB0188199909AA09BB098436A0
:102530009105A105B10548F464E070E08CE692E0F5
:102540000E94FB079D81891781F104E010E09E0144
:102550002F5F3F4F50E040E070E060E081E0D6DE6A
:10256000182F64E070E08CE692E00E94FB0791E097
:102570002D81281390E0192331F10E94E806609321
:10258000C8027093C9028093CA029093CB028981DA
:102590009A81AB81BC818093C4029093C502A093C1
:1025A000C602B093C70211E00EC080916C029091F8
:1025B0006D02A0916E02B0916F0289839A83AB8302
:1025C000BC831111E4CF8091C4029091C502A09107
:1025D000C602B091C702F70180839183A283B383BF
:1025E000812F29960FB6F894DEBF0FBECDBFDF91C5
:1025F000CF911F910F91FF90EF90BF90AF909F9060
:102600008F9008954F925F926F927F92AF92BF9298
:10261000CF92DF92EF92FF920F931F93CF93DF93AE
:1026200000D000D000D0CDB7DEB78D837B01A42EC3
:10263000D22E3E83B02EC12EDB014D905D906D9069
:102640007C900E94E806DC01CB0184199509A6095B
:10265000B70984369105A105B10510F4AA2051F1FE
:1026600010E000E030E020E04B2D5C2D6D2D7E81F0
:102670008D814CDE8983882339F00E94E806F701BA
:102680006083718382839383898126960FB6F89441
:10269000DEBF0FBECDBFDF91CF911F910F91FF9095
:1026A000EF90DF90CF90BF90AF907F906F905F9052
:1026B0004F900895F1E0F983E7CFA1E0B0E0E3E6C1
:1026C000F3E10C94A73480915C03898320917F020D
:1026D00090E041E02817190609F440E001E010E01D
:1026E0009E012F5F3F4F64ED72E084E08BDF219607
:1026F000E4E00C94C334ABE0B0E0E1E8F3E10C9427
:10270000A73488E0EAE7F4E0DE01119601900D922B
:102710008A95E1F78091320390913303A0913403BD
:1027200089879A87AB8741E08B85811101C040E0A2
:102730000BE010E09E012F5F3F4F60ED72E083E001
:1027400061DF8111109234032B96E4E00C94C334C2
:10275000CF93DF93D82FC92F80913A02811165C0A2
:1027600040E150E060E472E081E093E00E94573580
:102770008091010390910203C297873B934068F0D8
:10278000E3E0F3E08EE0DF011D928A95E9F788EC43
:1027900090E09093020380930103809104038150A1
:1027A000873018F081E080930403809105039091B5
:1027B0000603845691098532934130F08AE892E00D
:1027C000909306038093050380910703815084361C
:1027D00018F08AE0809307038091090390910A031F
:1027E00001978E3F9F4FC0F08FE29AE090930A03CB
:1027F0008093090380E39AE090930C0380930B038A
:102800008FE298E090930E0380930D0380E398E0AD
:102810009093100380930F03809108038F3F11F46E
:102820001092080381E080933A0280E1E1E0F3E056
:10283000AD2FBC2F01900D928A95E1F78D2F9C2F23
:10284000DF91CF91089528E030E043E060E086E337
:102850000C940D31CF93DF93D82FC62FF4DF8D2F3B
:1028600080680E941F318C2F0E941F318AEB8A954D
:10287000F1F700C00E944F3183E492E00197F1F735
:1028800000C00000DF91CF910895682F893708F0CC
:1028900068E760939B0191E090939C019091900177
:1028A000992349F06150811101C064E0683708F054
:1028B00067E78FE0CFCF0895FB018081E6CF282F17
:1028C00080919B01811101C085E0022E000C330B29
:1028D000820F932F911D1816190614F081E090E0D5
:1028E000D4CFACE0B0E0E7E7F4E10C94A5344F833B
:1028F000588769877A878B879C8780919001882386
:1029000009F444C080913502811106C060E080E581
:10291000A1DF81E08093350296DF80E50E941F31C0
:102920000AEB0A95F1F700C00E9437310E94373157
:102930000E9437317C010E94373160E0E62AF82A94
:102940000E9437318C010E94373120E0022B182B76
:102950000E944F3125E02A95F1F70000F894B70165
:1029600080919301909194010E94260C9093940180
:1029700080939301B80180919501909196010E94F6
:10298000260C90939601809395017894809184040D
:10299000882309F469C00E94E806462F572FBC011E
:1029A0008091360290913702A0913802B09139029D
:1029B0008A019B01081B190B2A0B3B0BD901C8018B
:1029C0000897A105B10508F44FC040933602509313
:1029D0003702609338027093390280919E01909182
:1029E0009F01A091A001B091A101481B590B6A0B56
:1029F0007B0B423351056105710580F410929401FF
:102A000010929301109296011092950110929801E4
:102A10001092970110929A011092990110918504D9
:102A200080919D01412FBE01695F7F4F882389F10D
:102A300083E991E00E946F0B41E0412790919D0155
:102A400080919001BE01695F7F4F981739F187E946
:102A500091E00E946F0B86E0FE013796A8EAB1E094
:102A600001900D928A95E1F786E0FE013796DE012E
:102A7000119601900D928A95E1F729813A814B8157
:102A80005C816D817E8180E090E02C96E6E00C9484
:102A9000C13483E991E00E94C00BCECF87E991E079
:102AA0000E94C00BD8CFCF93C82FCDDE8C2F0E94B1
:102AB0001F318FE792E00197F1F700C000000E94FC
:102AC0003731C82F95E09A95F1F700000E944F31F9
:102AD00085E68A95F1F70000109235028C2FCF9190
:102AE0000895CF93DF930E947C30269AACDE6AE58E
:102AF0008AE3B0DE2FEF80E792E0215080409040E3
:102B0000E1F700C0000082E0CEDF83E0CCDF84E0AC
:102B1000CADF85E0C8DF86E0C6DF60E080E19ADEDC
:102B200080E0C1DFD82F81E0BEDFC82F0E944F3187
:102B3000D23419F481E0C13009F080E081708093D3
:102B40009001882319F064E08FE084DE81E0DF915A
:102B5000CF9108951F920F920FB60F9211242F93C9
:102B60003F934F935F936F937F938F939F93AF9315
:102B7000BF93EF93FF938091E10082FF09C08091A2
:102B8000E20082FF05C08091E1008B7F8093E1002D
:102B90008091DA0080FF24C08091D80080FF20C09F
:102BA0008091DA008E7F8093DA008091D90080FFD7
:102BB000A9C080E189BD82E189BD09B400FEFDCFD5
:102BC00081E08093360480912A04811109C00E941B
:102BD00080050E9421068091E20084608093E200DB
:102BE0008091E10080FF1AC08091E20080FF16C052
:102BF0008091E2008E7F8093E2008091E20080610C
:102C00008093E2008091D80080628093D80019BC44
:102C100085E08093360483E080938A018091E1000F
:102C200084FF2FC08091E20084FF2BC080E189BD2A
:102C300082E189BD09B400FEFDCF8091D8008F7D6F
:102C40008093D8008091E1008F7E8093E100809195
:102C5000E2008F7E8093E2008091E20081608093A9
:102C6000E20080913704882309F452C084E0809305
:102C7000360480913604843009F452C081E0809398
:102C80008A018091E10083FF2CC08091E20083FFE4
:102C900028C08091E100877F8093E10082E08093EB
:102CA0003604109237048091E1008E7F8093E1001A
:102CB0008091E2008E7F8093E2008091E20080614B
:102CC0008093E20042E060E080E00E94EF058091A6
:102CD000F00088608093F00081E080938A01809307
:102CE0008901FF91EF91BF91AF919F918F917F915A
:102CF0006F915F914F913F912F910F900FBE0F9069
:102D00001F90189519BC1092360410922A0468CFAF
:102D10008091E30087FD02C081E0A9CF83E0A7CFC7
:102D200082E0ADCF78941F921FB61F9211248F932B
:102D30009F93AF93BF938091260490912704A09115
:102D40002804B09129040196A11DB11D8093260489
:102D500090932704A0932804B0932904BF91AF91C6
:102D60009F918F911F901FBE1F9018952FB7F894B9
:102D70008091260490912704A0912804B091290401
:102D80002FBF0895F3DF20911D0430911E04232BE3
:102D900021F08093190490931A0420911F0430911C
:102DA0002004232B21F080931704909318048BE1C7
:102DB00094E00C948507CF93C6E0EAE2F2E0DF01ED
:102DC0008C2F1D928A95E9F790E080E00E945D07C4
:102DD00090E080E00E943507109256020E94480D54
:102DE000EBE1F4E0DF011D92CA95E9F710921404BB
:102DF0001092150410921604C5DFCF910895AAE22F
:102E0000B0E0E5E0F7E10C94A83488E394E0FC013D
:102E100001962091F100208324E080349207B9F7D5
:102E200080913904893009F45BC0C8F4823009F418
:102E3000B8C0833009F487C0813099F18091E800EF
:102E400083FF3BC180913804909139049A3008F097
:102E500034C1E92FF0E0E055FA4C0C94EF348A309D
:102E600009F48EC08B3051F780913804813231F7EC
:102E700080913C0490913D04892B01F78091E800FA
:102E8000877F8093E8000E94D00581E090913A040A
:102E9000911101C080E08093890110922B048BDF97
:102EA000CDCF80913804813A49F68091E800877F40
:102EB0008093E80080913C0490913D04892B61F45B
:102EC00068E08CE294E070E00E947B068091E8006C
:102ED0008B778093E800B2CF60E090E080E0F3CFA2
:102EE00080913804813209F0A9CF80913C049091FF
:102EF0003D048D7F892B09F0A1CF8091E800877F69
:102F00008093E8008091E80082FF18C09091F30060
:102F10008091F200029731F48091F100813011F03C
:102F2000863021F48091F100809388018091E8003F
:102F30008B778093E8000E94D00580CF8091360483
:102F40008111E0CF7BCF80913804813A09F076CFB0
:102F500080913C0490913D04892B09F06FCF8091C2
:102F6000E800877F8093E8008091E80080FFFCCF35
:102F7000809189018093F1008091E8008E77D9CF0C
:102F800080913804813209F059CF8091E800877F21
:102F90008093E8000E94D00580913B0480938701D4
:102FA0004DCF80913804813A09F048CF8091E800F4
:102FB000877F8093E8008091E80080FFFCCF8091BC
:102FC0008701D8CF803899F0823809F076C0809197
:102FD0003C048F70873008F070C08093E9008091C6
:102FE000EB0085FB882780F91092E90006C08091EC
:102FF000340490913504911182609091E800977F9C
:103000009093E8008093F1001092F1008091E80025
:103010008E77B7C1882309F4A4C1823009F04DC06E
:1030200080913A048111A8C180913C048F702FEFE8
:10303000280F263008F041C08093E9002091EB0072
:1030400020FF9AC1933031F48091EB00806280932D
:10305000EB0092C19091EB0090619093EB0021E026
:1030600030E001C0220F8A95EAF72093EA0010921F
:10307000EA008091EB008860EACF81111EC01091B8
:103080003A041F778091E3008078812B8093E300DE
:103090008091E800877F8093E8000E94D0058091AE
:1030A000E80080FFFCCF8091E30080688093E3001C
:1030B00082E0111183E0809336048091E80083FF61
:1030C0000AC08091E800877F8093E8008091EB0040
:1030D00080628093EB00AA96E3E00C94C43480589D
:1030E000823058F740913A0450913B044C3D83E0C4
:1030F0005807A1F583E08A838AE289834FB7F89461
:10310000DE01139620E03EE051E2E32FF0E0509321
:103110005700E49120FF03C0E295EF703F5FEF702E
:103120008E2F90E0EA30C0F0C7968D939D932F5F6D
:10313000243159F74FBF8091E800877F8093E800E2
:103140006AE270E0CE0101960E947B068091E80061
:103150008B778093E800B1CFC096E7CF80913C0495
:1031600090913D04252F33272330310509F44AC0BF
:1031700078F52130310509F479C08BE590E0ECEA6F
:10318000F5E02230310509F098CF2091E800277F43
:103190002093E80020913E0430913F04821793076A
:1031A00008F49C0140E02115310509F064C041118B
:1031B00062C08091E80082FDC9CF809136048823E7
:1031C00029F2853019F28091E80083FFF2CFBECF5B
:1031D0002132310509F43BC02232310509F06DCFAF
:1031E0008330910508F069CFFC01EE0FFF1FE75E09
:1031F000FD4F0190F081E02D8A5E9D4FDC018C91A6
:1032000090E011C0CA019927413089F082309105C0
:10321000B1F0892B09F051CFE1E4F6E0E4918E2F73
:1032200090E0E1E4F6E0009709F447CFAECFEFE29B
:10323000F6E0E4918E2F90E0EFE2F6E0F4CFE9E1E2
:10324000F6E0E4918E2F90E0E9E1F6E0ECCF8330F8
:10325000910508F032CF880F991FFC01E15EFD4F08
:103260000190F081E02D89E090E08FCF82E190E045
:10327000E7E0F6E08ACF80913604882309F466CF30
:10328000853009F463CF8091E80083FD5FCF8091A2
:10329000E80082FD8ECF8091E80080FF84CF90917E
:1032A000F3008091F2002115310519F08830910565
:1032B00050F041E0089709F040E08091E8008E77F7
:1032C0008093E80070CF44914093F10031962150F3
:1032D00031090196E8CF803809F0EFCE8091E800FF
:1032E000877F8093E800809137048093F1008ECE31
:1032F0008111E3CE10913A04123008F0DECE8091B5
:10330000E800877F8093E800109337040E94D0057F
:10331000112311F084E005C08091E30087FDFACF0E
:1033200081E08093360442E061EC81E00E94EF0589
:1033300042E261EC84E00E94EF0542E261EC82E04F
:103340000E94EF0542E260EC83E00E94EF0580916D
:103350003604843021F081E080938A01AECE82E091
:10336000FBCF80913A04813009F0A7CE81E0933001
:1033700009F080E0809335041092E9008091E80024
:10338000877F8093E8000E94D00597CE1F920F920E
:103390000FB60F9211242F933F934F935F936F9328
:1033A0007F938F939F93AF93BF93CF93DF93EF93CD
:1033B000FF93D091E900DF708091EC00C82FC170BD
:1033C00080FDC0E81092E9008091F000877F809333
:1033D000F000789414DD1092E9008091F00088608C
:1033E0008093F000CD2BCF70C093E900FF91EF9157
:1033F000DF91CF91BF91AF919F918F917F916F910D
:103400005F914F913F912F910F900FBE0F901F90A2
:10341000189510922B04CFDC2FEF84E39CE0215011
:1034200080409040E1F700C0000088E19AE00FB6CC
:10343000F894A895809360000FBE90936000FFCF32
:10344000662309F46FC08D3C31F40E94CD0781954D
:1034500080931E0497CC8E3C19F40E94CD07F8CFC0
:103460008F3C31F40E94CD07819580931D04F2CFEB
:10347000803D19F40E94CD07F8CF893D29F40E94C0
:10348000AB0780931F04E6CF8A3D21F40E94AB076F
:103490008195F7CF8B3D31F40E94AB0781958093E6
:1034A0002004D8CF8C3D19F40E94AB07F8CF9FE2DF
:1034B000980F983018F5282F215D330BA90121E0D2
:1034C00030E001C0220F4A95EAF790911C04922B3C
:1034D00090931C04815D21E030E0A90102C0440FFB
:1034E000551F8A95E2F7CA0120912603662309F445
:1034F00092C0822B809326030C945E0C8D3D31F498
:1035000080911604816080931604A4CF8E3D21F42F
:10351000809116048260F7CF8F3D19F580911604D3
:103520008460F1CF90911D048D3C59F420911E04CC
:1035300027FF0DC010921E0491110BC010921404AD
:1035400008C08E3CB1F420911E0412169CF39923FE
:10355000B1F090911F0420912004922B11F410924D
:103560001504482F415D550B4830510508F4B2CF82
:1035700071CF8F3C39F497FFEACF10921D049091E0
:103580001E04DACF803D19F41916BCF3E0CF209168
:103590001F04893D29F41216D4F610921F04D7CFC8
:1035A0008A3D19F427FFD3CFF8CF209120048B3D1B
:1035B00029F427FFCCCF10922004C9CF8C3D19F4F9
:1035C0001216CCF3C4CF2FE2280F283088F4282F0E
:1035D000215D330BA90121E030E001C0220F4A95A3
:1035E000EAF7209530911C04232320931C04AFCFCD
:1035F000209116042E7F8D3D59F0209116042D7FC9
:103600008E3D31F08F3D09F0A2CF209116042B7F23
:10361000209316049CCF809582236CCF8823B1F130
:103620009CEF980F913A70F4EAE2F2E091918913DD
:1036300003C0DF0111971C9292E0E033F907B1F764
:103640000C94480D90E2980F983050F4877091E0F8
:1036500001C0990F8A95EAF7892F0E94CD0AF0CF11
:103660009BE5980F933020F490E080E00C945D0788
:1036700098E5980F9B3120F490E080E00C9435079A
:1036800093E3980F933110F460E0DACE08950F932E
:103690001F93CF93C82F882339F18CEF8C0F813A79
:1036A000B0F50AE212E0F8018191C81709F122E0B1
:1036B000E033F207C9F7EFEF80E0D8019D918D016B
:1036C000C91781F0EF3F19F4911101C0E82F8F5F06
:1036D000863099F7EF3F31F00E2E000CFF0BE85DBE
:1036E000FD4FC2830E94480DCF911F910F91089505
:1036F000EAE2F2E08191C81303C0DF0111971C9246
:1037000032E0E033F307B1F70E94480DD4CF80E2F6
:103710008C0F883068F4C77021E030E001C0220FC0
:10372000CA95EAF780912B04822B80932B04DACF81
:103730008BE58C0F833038F42C2F2452330BC901C6
:103740000E945D07D1CFE8E5EC0FEB3150F4F0E0DB
:10375000EE0FFF1FE954FE4F808191810E943507D3
:10376000C3CF83E38C0F833108F0BECF61E08C2F91
:1037700067DEBACFA5E0B0E0E0ECFBE10C949D344D
:1037800080915F03882309F41EC120915D0330916D
:103790005E033A832983EADA49815A81841B950BB7
:1037A000C29708F4E6C0E2DA90935E0380935D036B
:1037B00089E894E09093900680938F06809184042A
:1037C000882309F40FC185EF93E00E940A0D88EB6E
:1037D0000E94850C8091A7010E94F00B0E94850C2D
:1037E00089EB0E94850C8091A6010E94F00B0E943B
:1037F000850C82EF93E00E940A0D8091A4019091C4
:10380000A50154E0969587955A95E1F70E94F00B33
:103810000E94850C8091A4010E94F00B0E94850CEF
:103820008FEE93E00E940A0D8EEA91E00E94940DC3
:1038300084E194E00E940A0D8091AA01082E000CF8
:10384000990B0E94F70B0E94940D8091AB01082EFA
:10385000000C990B0E94F70B0E94940D8091AD0112
:10386000082E000C990B0E94F70B0E94940D80917A
:10387000AC01082E000C990B0E94F70B0E94940DCE
:103880008CE094E00E940A0D80919B01811101C09F
:1038900085E090E00E94F70B01960E94940D88E06D
:1038A00094E00E940A0D8091A301882331F08130B9
:1038B00009F48DC08FEF93E002C085E094E00E9490
:1038C0000A0D80919D01882309F484C08DE194E064
:1038D0000E940A0D8BEF93E00E940A0D8091A201D5
:1038E000811101C084E0805D0E94850C83E294E038
:1038F0000E940A0D61E070E07A836983809135034C
:10390000882309F46AC090E0098002C095958795E4
:103910000A94E2F780FF61C089810E94F00B0E9447
:10392000850C89819A8101969A838983089731F75A
:1039300080E20E94850C80E294E00E940A0D809152
:103940007001882309F44BC08DE194E00E940A0DB8
:1039500080917201909173016AE070E00E94853459
:10396000CB010E94F70B01960E94940D80E30E9408
:10397000850C8091870490918804892B09F04EC0B2
:1039800080915C038823F9F00E94E80669837A83BA
:103990008B839C838091580390915903A0915A0383
:1039A000B0915B0329813A814B815C81281B390BE3
:1039B0004A0B5B0BDA01C9018F3F9F4FAF4FBF47E7
:1039C00010F40E9423112596EEE00C94B93482E0A5
:1039D00094E075CF8AE194E07BCF80EBA0CF8AE1C1
:1039E00094E0B4CF90E99983A981A051AD8389E295
:1039F00094E00E940A0D8D81B82FBF5FBD830E94A5
:103A0000850C6D8029816212F6CF80E00E94170D2F
:103A10003981305F3983303C39F7ABCF80915F0318
:103A2000882309F4ADCF809157038111A9CF0E945B
:103A30003D1120918704309188042115310509F446
:103A40009FCF80E041E050E0082F10E0BA01082E3F
:103A500002C0660F771F0A94E2F77A8369836223B4
:103A60007323672B11F48F5FEFCF9091560390FF74
:103A700097C0880F880F880F80938201109285016C
:103A8000895F8093830183E08093860124E630E0A0
:103A900047E050E060E871E088E70E940732892B38
:103AA00009F06ECFA80125E0440F551F2A95E1F7D4
:103AB0008091560380FF86C0E6E3F3E080E2DF01F9
:103AC0001D928A95E9F702E112E08EE0E82E82E08D
:103AD000F82E97E0992E88248394D801ED918D01DA
:103AE000D7016D917D01640F752F711D67577B4F55
:103AF000F0E0EA5CFC4F30E020E0792C721AA82C50
:103B0000022E01C0AA0C0A94EAF76B0190E0D601DC
:103B10008D916D018A21A72DA91BA770BA2E0A2E9F
:103B2000000CBB0B682E01C0660CBA94EAF7B62CE9
:103B3000B195A195B109A770BB2701C08695AA953B
:103B4000EAF7A62DA82B80818A2B80839F5F98306F
:103B5000F1F62F5F3F4F31962830310571F622E0A4
:103B60000631120709F0B9CF04E610E020E230E098
:103B700046E353E060E488E70E948F32892B09F026
:103B8000FFCE49815A81409550958091870490914C
:103B90008804482359235093880440938704F0CE27
:103BA0008295880F807680938201980136952795BB
:103BB0003695279520938501815E8093830120931C
:103BC000860164CF47575B4F04E610E020E230E007
:103BD000D1CFA4E3B0E0EFEEFDE10C94A5348091E9
:103BE0002303833009F087C14091250350912603B8
:103BF00060912703709128038091290390912A03F3
:103C00000E947114209325033093260340932703C9
:103C1000509328036093290370932A0386E0E5E21A
:103C2000F3E0DE01519601900D928A95E1F786E06E
:103C3000FE017196DE015D9601900D928A95E1F785
:103C400086E0FE017D96DE01119601900D928A9527
:103C5000E1F786E0FE013196A5E2B3E001900D9216
:103C60008A95E1F786E0E5E2F3E0DE015196019006
:103C70000D928A95E1F786E0FE017196DE0193963A
:103C800001900D928A95E1F786E0FE01B396DE0180
:103C9000119601900D928A95E1F786E0FE0131962A
:103CA000A5E2B3E001900D928A95E1F786E0E5E2A6
:103CB000F3E0DE019F9601900D928A95E1F786E090
:103CC000FE01BF96DE01579601900D928A95E1F7AD
:103CD0001BA9FCA80F2D012B09F4B0C0CE01019641
:103CE0000E94A8138B8184FD11950F2D85FD0195F0
:103CF0001B8F0C8F86E0FE017796DE0151960190B6
:103D00000D928A95E1F71D8B0E8B86E0FE01719670
:103D1000DE01999601900D928A95E1F71DA70EA7F5
:103D200086E0FE01B996DE01579601900D928A95C4
:103D3000E1F71B8F0C8F86E0FE017796A5E2B3E0DA
:103D400001900D928A95E1F786E0E5E2F3E0DE016D
:103D5000579601900D928A95E1F780917001882322
:103D600009F47AC0E0907501F09076010E94B616D1
:103D7000209174018E199F092817190608F06CC04C
:103D8000E0907701F09078010E94B6168E199F0995
:103D9000893C910508F460C0388D8A8D90917C0132
:103DA000298D920F90937C0120917D01820F809349
:103DB0007D0120917F01020F00937F0120917E0100
:103DC000120F10937E0120916E0197FD9195291796
:103DD000B8F187FD8195281798F107FD0195201707
:103DE00078F117FD119581E0211718F0311101C00C
:103DF00080E08170809379010E9438091091350329
:103E0000882309F445C010927C0110927D01109224
:103E10007E0110927F010E94B616909376018093E6
:103E20007501109278011092770180917101111142
:103E300009C0882389F00E9449100EC010E058CFB5
:103E400081E0D7CF212F30E0082E02C0359527958D
:103E50000A94E2F720FFEFCF86E0EBE1F4E0DE0129
:103E6000579601900D928A95E1F780912603988DDF
:103E7000892B809326030E945E0C811139C08091AA
:103E80002403817010922403E496E6E00C94C1347C
:103E900080917101111122C08111DECF0091750155
:103EA000109176010E94B616801B910B2091720131
:103EB000309173012817390778F6809171010E94BB
:103EC0002810109276011092750110927C011092C8
:103ED0007D0110927E0110927F01BECF212F30E034
:103EE00002C0359527958A95E2F720FFB5CFD6CF4A
:103EF00081E090E0C6CF80E0C7CF80918404882322
:103F000011F00C94B6160E94B109CB01089560918E
:103F10007A046695669570E041E050E08FE691E0A6
:103F20000E943435892B19F481E080933303E5DF57
:103F300090932D0380932C038091340384608093AD
:103F40003403089590917A0490FF2CC093708111EE
:103F50002AC0946090937A048091340381608093A6
:103F60003403662321F08AE794E00E94AB0D609150
:103F70007A046695669570E041E050E08FE691E046
:103F80000E943435892BB9F00E941E0881E080938D
:103F90002F0320E040917D0460917C0480917B049C
:103FA0000C94CC0D0895893010F09062D3CF880F17
:103FB000880F982BCFCFABDFE9CF90917A049695FD
:103FC00096958FEF890F913009F488E061E0BACFC0
:103FD00080917A04869586958F5F893008F081E01C
:103FE00061E0B0CFA7E1B0E0E8EFFFE10C949F34CF
:103FF0001D861C86FE013E9686E0DF011D928A9595
:10400000E9F78FEEE82E81E0F82E10E000E0CC24F6
:10401000C394D12C29EFA22E21E0B22EF701819179
:104020007F018F3F09F445C0F894E82FE295EF70C7
:10403000F0E021A18F70A60102C0440F551F8A95A0
:10404000E2F7CA01922F982B91A392A18095892320
:1040500082A3789400C0E3EFF1E031E0912C21914C
:104060002F3F09F4A8C0A22FA295AF70B0E09096A0
:104070008C9190E02F7002C0959587952A95E2F774
:1040800080FD99C0832F982A330FAE16BF0639F7EB
:10409000F701319780818F3F11F00E94980950EA13
:1040A0005A95F1F7ECE0F0E0EC0FFD1FE00FF11F87
:1040B00090820F5F1F4F0430110509F0AFCF48E029
:1040C00050E0BE01645F7F4F8DED92E00E9441356C
:1040D0009C01892B49F088E0FE013C96ADEDB2E0F1
:1040E00001900D928A95E1F70091E60210E00850E8
:1040F0001D4F232B09F461C081E0809363020E946D
:10410000B6169093620280936102F12CE0908404D1
:10411000EE2009F4B0C01A8219821C821B828091A1
:10412000D8028A3008F06FC045E652E1BE016F5FE9
:104130007F4FC8010E94DD10882309F48BC041E243
:1041400052E1BE016F5F7F4FC8010E94DD108823DE
:1041500009F480C04BE753E1BE016F5F7F4FC80198
:104160000E94DD10882309F475C04DE553E1BE01BE
:104170006F5F7F4FC8010E94DD10882309F46AC079
:104180001092D8028091E50290E044E050E0BE0138
:104190006F5F7F4F88509D4F0E94413521E02093F3
:1041A0006A02892B09F048C0E12C8E2D8F29679671
:1041B000ECE00C94BB3480E066CFF0906302FF200B
:1041C00009F4A3CFC0906102D09062020E94B6169B
:1041D0008C199D09059708F498CF44E050E06DEDE7
:1041E00072E0C8010E944135892B59F084E0EDED61
:1041F000F2E0D80101900D928A95E1F710926302E6
:1042000085CFF12CFBCFC0906402D09065020E9454
:10421000B6168C199D09843F914008F085CF809196
:104220006A02882309F284E0FE013196DF011D92C3
:104230008A95E9F710926A02E091E502F0E0E85011
:10424000FD4F89819A81AB81BC8180839183A28358
:10425000B383ABCF8091D8028F3F31F08F5F8093D3
:10426000D8028A3008F48ECF0E94B6169093650269
:1042700080936402D4CFF80180819181A281B381BF
:1042800080936C0290936D02A0936E02B0936F02C4
:1042900064E070E08CE692E00E94FB0780936B0282
:1042A0008090700290907102A0907202B0907302A0
:1042B0008091660290916702A0916802B0916902B4
:1042C00088169906AA06BB06B1F080926602909203
:1042D0006702A0926802B09269020E94E806861AFC
:1042E000970AA80AB90A8092D9029092DA02A0929B
:1042F000DB02B092DC028BE0E4E7F2E0DE01119633
:1043000001900D928A95E1F78091740286958695C9
:10431000D0907502C0907602B090770200917D0235
:1043200010917E0210927E02112321F110FF10C025
:1043300029812370982F990F990F292B2983909108
:104340007A0420FF1EC0916090937A0460E0FADD49
:1043500011FF06C020E04B2D6C2D8D2D0E94CC0D41
:1043600012FF03C00023D1F0D2DD13FF03C081E0B0
:1043700080932F0380917F02882399F00E943D1142
:1043800014CF9E7F90937A040E941E08809134037C
:104390008160809334030E942508DACF0E941E08B2
:1043A000E4CF0E94231101CFB0E0A0E0EAEDF1E2FA
:1043B0000C94A0347C01DC0114968C91882309F4C0
:1043C0008BC161E0C7010E94DA0FEC01809170019E
:1043D000882341F1F7011581C032F2E5DF0708F0CB
:1043E00091C0C11522E5D20708F0D5C0C11530E54E
:1043F000D30708F07CC0C11580E4D80708F0DFC0FF
:10440000C11590E2D90708F0E1C0C83ED10508F017
:1044100041C0C03ED10508F443C080917B0187FDB7
:1044200010927B01D093A501C093A401D7018D9177
:104430009C9111979093A7018093A601FE01349758
:10444000E533F10508F0DBC0E357FE4FE491159624
:104450008C9120EB811102C02E2FE0EBAEEAB1E08F
:1044600090E080E03D913213C4C080579E4FDC0144
:104470005E96EC93FE01D70115968C91882309F482
:10448000D0C0FE57E031F10508F0CBC0E654FA4C3D
:104490000C94EF34CE019A9581159F4108F4BDCF5D
:1044A000F7018481882309F4B8CFC730FEE7DF071E
:1044B00009F43FC0CE018D5C91094397D0F10E9471
:1044C00038098111AACF112359F0809171012091EF
:1044D0003503211182C0882309F488C00E94390C59
:1044E0000E94B616909378018093770196CFCE0103
:1044F00025E0969587952A95E1F78F709927209169
:10450000710113C0C038B2E5DB07B8F4C036E2E58C
:10451000DE0708F040C0C034F2E5DF0708F07DCFC9
:1045200020917101CE018F7199272817190609F082
:1045300074CF812F0E94210970CFC03E22E5D2079F
:1045400018F5C03C32E5D30708F467CF209171011C
:10455000CE018F7199272817190609F05ECF812F98
:104560000E942109D70116968C911697807F80357D
:1045700009F053CF15968C918823D9F080917B0157
:10458000815080937B0149CFCE01805E9245809718
:1045900008F443CF85CF20917101CE018F71992707
:1045A0002817190609F039CF111137CF0E942F09AA
:1045B00034CF0E942F0980917B018F5FE2CFF701FA
:1045C0008681807F19F48D2F992797CFD701169672
:1045D0008C91807F09F421CF63CF30E0082E02C098
:1045E000359527950A94E2F720FF78CF0E9428108E
:1045F00075CF01968630910509F034CF3BCFCE01BF
:104600009A95FE01FF2781159F4108F434CFC730EA
:10461000EEE7DE0709F02ECFD70115968C910E94A8
:104620005C0BF7019581992309F4EAC080912B0472
:104630008272FE01E052F847EB30F10508F0E0C06D
:10464000E653FA4C0C94EF3480E00E94451410922B
:10465000A20180E00E94560C8AE892E00E94480C79
:104660002BC02091A2013091700180917201909134
:10467000730162E370E00E9485348FEF860F9091A2
:10468000A3016091110340919B0120FB47F9522F38
:1046900056955370330F330F532B282F220F220FB1
:1046A000220F522B660F660F6C739370692B70E0AC
:1046B0008FE090E00E948B3580912B03877061F032
:1046C000D70115968C91882339F08091E90282FFF9
:1046D00003C082E00E943310CDB7DEB7EBE00C944C
:1046E000BC3481E00E945F14E7CF8FEFFBCF8AE0FC
:1046F000F9CF86EFF7CF90919D0181E089270E9445
:104700005C0BDACF8091A201811101C084E08F5F40
:1047100018160CF081E0883008F087E08093A20141
:10472000CBCF8091A201811101C084E08150F0CFF4
:1047300081E08093A301C0CF1092A301BDCF82E09E
:10474000F8CF9091700181E089270E94560CB4CF78
:104750008091720190917301C296893EB3E09B07EC
:1047600008F47CCF88EE93E079CF8091720190912C
:104770007301C2978436910508F070CF84E690E00B
:104780006DCF80917A0480FF03C00E946A0E94CF9F
:10479000816080937A0461E086958695D3DB8CCF27
:1047A000882321F00ADC88CF8823E1F311DC84CF51
:1047B000882329F00E94460E7FCF8823D9F30E94D8
:1047C0004E0E7ACF882329F00E94300E75CF8823B1
:1047D000D9F30E943B0E70CF882329F00E941A0E55
:1047E0006BCF8823D9F30E94250E66CF882329F04A
:1047F0000E94560E61CF8823D9F30E94600E5CCFD1
:104800009E01205E324520323105A8F4911127C067
:10481000CF7181E090E09C0102C0220F331FCA9546
:10482000E2F7E901622F83E090E00E9479358C2F56
:104830000E94490B41CF9923D1F180E0CB353CE771
:10484000D30751F1CC358CE7D807F9F081E0CA35B0
:10485000ACE7DA0709F1C130BCE7DB0731F1C3305F
:10486000ECE7DE07E1F0C115DC4709F510922B04F7
:104870000E94DB162FEF34E38CE021503040804063
:10488000E1F700C000000E94D7068091E90282FB98
:10489000882780F991E089270E9470110DCF6FEF72
:1048A0007FEF90E080E00E9493350E94091AF701A3
:1048B00000811181992309F44CC0C8010E947F0F27
:1048C000C82F682FC8010E94130BB8018C2F0E94BB
:1048D000730F0E94E209D82FC92F982ED701159681
:1048E000BC9015971696AC90A2948FE0A822809168
:1048F0002B03877001F10B2DBB20F1F0892F807FF6
:10490000803469F080E28D0F8830A8F0892F807E96
:10491000803229F4B1E0BD1770F4AA2061F08091D3
:10492000E90282FF08C082E00E94331080912B03CD
:10493000877001E009F000E08C2F82958F70C82EFF
:10494000D12C8C3008F065C0F601EB52FA4C0C9477
:10495000EF34C8010E94DF0AC82FB7CF1C2F1F7089
:10496000C07F11F01295107F8D2FBB20B9F011235D
:1049700069F090E29D0F983010F0D11109C080913C
:104980002B04182B10932B040E94480D8D2F3FC031
:1049900080915602182B10935602F6CF0E940E1BE0
:1049A0001123B9F1D05ED83010F0911004C0812FDE
:1049B0000E94CD0A06C010958091560218231093CC
:1049C00056020E94480D25C01C2F1F70C07FC032A8
:1049D00011F01295107F992051F0E1E09E1609F434
:1049E0005CC0BB2009F468C0AA2061F1CFCF8091E0
:1049F000E90282FD23C0BB20D9F0112339F0809158
:104A00002B04182B10932B040E94480D80E00E9469
:104A1000471BB8E0CB1AD108E4E0CE16D10408F069
:104A200076C10E94980760E0C7010E94DA0F54CE59
:104A300080E00E940E1B112361F3B9CFBB2099F0D7
:104A4000A11004C0812F0E948B0DE3CFF1E0AF12C3
:104A5000E0CF80915502912F98231917D1F2182B8E
:104A600010935502D6CFA110D4CF812F0E94860D6E
:104A700090915502812F892329F0812F80958923D8
:104A80008093550280913B02912F982309F4C1CF66
:104A90001095182310933B02BCCFBB2029F025E0D2
:104AA0002A1508F4B6CFCECF34E03A1508F4B1CFCA
:104AB000812F0E94860DADCFAA20D1F3D93369F49E
:104AC0008FEF97EEA3E081509040A040E1F700C047
:104AD00000008D2F0E940E1B9CCFEFE1FEE431976A
:104AE000F1F7F5CF8C2F86958695837069F081302C
:104AF00009F08FCF8D2F9C2F9370B11002C080E0F2
:104B000090E00E94350785CF8D2F9C2F9370B110B8
:104B100002C080E090E00E945D077BCF6B2D8D2F5F
:104B20000E94201A76CF8C2F837091F5B11071CF2F
:104B30004D2F429546954770440F440F8D2F8F702F
:104B4000042E01C0880F0A94EAF72D2F2071D4FF9C
:104B500007C02FE030E001C0220F4A95EAF7209508
:104B6000C695C695C370C23071F0C33051F0309114
:104B7000E702C13029F0822B83230E94490B49CFE1
:104B8000832B822BFACF282B8091E7028227F5CF47
:104B90008695BB2011F08C2F8170882309F439CFC2
:104BA0004D2F429546954770440F440F8D2F8F70BF
:104BB000042E01C0880F0A94EAF72D2F2071D4FF2C
:104BC00007C02FE030E001C0220F4A95EAF7209598
:104BD000C695C695C370C23071F0C33051F03091A4
:104BE0003503C13029F0822B83230E94181011CF86
:104BF000832B822BFACF282B809135038227F5CF88
:104C0000CF70BB2029F08C2F0E9449108D2F1BCF15
:104C10008D2F0E94860D8C2F0E942810FACE8D2F8A
:104C2000F2EF9F16A9F1F91570F020EF9216D1F06E
:104C300031EF931691F0BB2009F455C0A110A6CE18
:104C40008C2F8F7129C093EF991649F1A4EF9A1216
:104C5000F2CF9091E90292FD2DC08C2F8F71BB2075
:104C6000D9F21AC0BB2079F0B4E0BA1508F4D1CE5D
:104C7000CF7181E090E001C0880FCA95EAF790916A
:104C800035038927B2CFE5E0EA1508F4C2CEF0CFAC
:104C90008C2F8F71B110C0CF0E944910BACE80E026
:104CA000BB2009F4A2CFCF7181E001C0880FCA9563
:104CB000EAF79BCFBB2061F08C2F8F7192FFECCF76
:104CC000F8E08F9F90011124236020932B03E4CF01
:104CD00081E00E94331021E02A1508F09ACE82E08C
:104CE0000E94331096CEAA2079F0893341F43FEF29
:104CF00087EE93E0315080409040E1F7E8CEAFE19D
:104D0000BEE41197F1F7E3CE8C2F8F7185CF00238E
:104D100009F489CE80912B0380FD85CED7011596AD
:104D20001C928695869586950E944910C7013CDBAA
:104D300080912B038695869586950E94281073CEC8
:104D4000CF93DF9380915402807F09F04CC0809113
:104D50005302882309F447C0E0917904509140043C
:104D6000C0914F02D0914E02609150027091510259
:104D700047E05E17C1F18E2F90E0E49FF00111240F
:104D8000EF5BFB4F2481222389F1489FF001499F6B
:104D9000F00D1124DF01AF5BBB4F11962C911197E1
:104DA0002C1324C02C912D1321C015962C911597EE
:104DB00021111CC012962D913C91261B370B283CCB
:104DC0003105A0F4809154028F7080618093540269
:104DD000E95BFB4F80818F70806180838EE492E07D
:104DE000E3DA0E94D50ADF91CF910895FC01319654
:104DF000E770BFCFADE0B0E0E0E0F7E20C949F34A5
:104E00008C0186E0F801DE01189601900D928A95DA
:104E1000E1F7F8018481E5809EE4A92E92E0B92EA5
:104E200090915202911126C0882309F1EE20E9F0F9
:104E3000C8010E94B40FF82E8823B9F087E0F8016A
:104E4000D50101900D928A95E1F78091520281304F
:104E500031F480914E0290914F020E94A80F70DFB2
:104E60008F2D2D96ECE00C94BB34C8019DDAFF2405
:104E7000F394F6CFD080C18082809380F09053026B
:104E80002091500230915102A401421B530BFF208C
:104E900009F4B6C0483C510508F08EC0882301F3E0
:104EA00090914F0280915402282F207F09F054C026
:104EB000C91213C090914E02D9120FC0E11046C022
:104EC0008F708061809354028EE492E06DDA80915D
:104ED0005402F8018683F12CC3CFE11037C06C2D4A
:104EE0008D2D0E9462056C2D8D2D0E946205E82E8D
:104EF0008111F1CFD886C986888599850E94A80F2F
:104F0000292F22952F70903458F49F70223080F012
:104F1000992391F0F8019681907F71F4FE2CA0CF37
:104F20002A5F2F70223060F0C8013EDAEF2CF6CFF6
:104F3000992311F0882391F3805E883078F3F4CFC1
:104F4000803F60F3815F833048F3EECF809154025D
:104F5000816080935402BFCFC91207C090914E0266
:104F6000D91203C0EE2009F46CC0C8010E94B40F2E
:104F7000882309F47ACFEE2009F477CF8091540288
:104F8000803280F020914E0230914F023A83298383
:104F90009C828B82909152029D831E828F83CE01D0
:104FA000019602DA87E0F801AEE4B2E001900D92DA
:104FB0008A95E1F7C5DE5BCF90915402292F207FBF
:104FC00049F48EE492E0F0D987E0F50111928A95D8
:104FD000E9F781CF882309F443CF80914F028C11E8
:104FE000C4CF80914E02D812C0CFE110BECF9683BD
:104FF000C801DAD987E0F50111928A95E9F730CF37
:10500000483C5105B8F7882309F431CFFE2CEE2037
:1050100009F42BCF80914F028C111FC080914E025A
:10502000D8121BC08091540280FD0EC0982F907F33
:1050300059F08683903F31F0982F907F905F8F706A
:10504000892B8683C801B0D987E0F801AEE4B2E0CD
:1050500001900D928A95E1F703CFC8010E94B40F29
:105060008111A0CF80915402816080935402C801C5
:105070009BD9F6CEABE1B0E0E0E4F8E20C94A834C2
:105080004E8B5F8B688F798F8A8F9B8F91111092D7
:1050900056021D8A86E0FE017696DE011F9601907B
:1050A0000D928A95E1F78B89882351F061E0CE015A
:1050B0000F960E94DA0F61E0CE010F960E94DA0F80
:1050C00087E0FE013F96DE01189601900D928A95C9
:1050D000E1F7CE0108968EDE81110CC087E0FE015B
:1050E0003896DE01119601900D928A95E1F74C8574
:1050F00041110BC017E0809179049091400489130D
:1051000034C06B96E3E00C94C4342091400430E04A
:10511000C90101968770992750917904581719068B
:10512000A1F04D8397E0929FD001939FB00D112481
:10513000AF5BBB4FFE01319601900D929A95E1F75E
:10514000809340040E94D50AD5CF10922B040E9470
:10515000DB16109240041092790487E0EEE4F2E04E
:10516000DF011D928A95E9F7C5CF819FC001112407
:105170008F5B9B4F3FDE882321F28091790490E082
:1051800001968770992780937904B5CFA6E0B0E0A7
:10519000ECECF8E20C94A7340E94B6168C018091D6
:1051A0005F02909160028017910779F019821A824C
:1051B0000E94B616682F49815A81792F80E090E0CD
:1051C00059DF1093600200935F022696E4E00C948E
:1051D000C3341F921FB61F9211248F939F93AF93D6
:1051E000BF9380912504811113C080912604909172
:1051F0002704A0912804B09129044196A11DB11D56
:105200008093260490932704A0932804B093290444
:10521000BF91AF919F918F911F901FBE1F901895C6
:10522000CF93DF93EC010E94B6168C1B9D0BDF9190
:10523000CF910895CDB7DEB7C855D1090FB6F89410
:10524000DEBF0FBECDBF85B7806885BF85B78068DC
:1052500085BF84B7877F84BF0FB6F894A8958091E7
:105260006000886180936000109260000FBE80E84B
:1052700090E00FB6F89480936100909361000FBEA8
:1052800081E080938A018BE699E0909327028093D6
:1052900026020E9480050E9421068091E20084601F
:1052A0008093E2007894809136048823A1F01091D5
:1052B000E9001F709091EC00892F817090FD80E8CB
:1052C000182B1092E9008091E80083FD0E94FF16E0
:1052D0001F701093E90082E084BD93E095BD9AEFC2
:1052E00097BD80936E001092D9021092DA0210924C
:1052F000DB021092DC0288EC90E02091E300122F98
:10530000111F1127111F27FD0CC0AFE3BCE9119736
:10531000F1F700C00000019781F70E94800510920C
:1053200036041093840454985C9A879A8F98B5E059
:10533000BA95F1F7000089B18295817087988F9AAC
:10534000E0EAEA95F1F780938504809300018823D1
:1053500009F459C210928B018EE180938C018091E7
:10536000840481110E9431338091000180910001F9
:1053700094E0811190E09093E60284E0891B809391
:10538000E50284EF0E94980985EF0E94980986EF54
:105390000E94980987EF0E94980903EF11E0D80155
:1053A0008D918D018F3F11F00E949809B1E0093F66
:1053B0001B07A9F788E0E8EFF2E0DF01082F1D9254
:1053C0000A95E9F7EDEDF2E0DF011D928A95E9F724
:1053D00090E080E00E947435833E9E4F59F163EE69
:1053E0007EEF90E080E00E94933560E082E090E004
:1053F0000E94793581E08093E70261E083E090E0EC
:105400000E94793560E074E184E090E00E94933579
:105410000E94780E0E94B20E40E050E0BA018FE088
:1054200090E00E948B3540E050E0BA0183E190E0CB
:105430000E948B3582E090E00E9467358093EB02FA
:1054400084E090E00E9474359093E9028093E80232
:1054500083E090E00E9467350E94490B80913503FC
:105460000E944C0B182F0E940210982F81E01913F4
:1054700080E00E945C0B80918404882309F4C7C1FA
:1054800080E08093560380E8809386048AD76BE09F
:1054900070E089ED91E00E941611882309F445C05F
:1054A0008091560365E070E081FDB3C184ED91E029
:1054B0000E9416118823C9F16DE070E082EC91E042
:1054C0000E941611882389F10E94E80665966CAF48
:1054D0007DAF8EAF9FAF6597DC01CB01805A9541C0
:1054E000AF4FBF4F8093580390935903A0935A0333
:1054F000B0935B03E9E8F4E080E092E0DF018C0127
:105500001D9201501040E1F7F0939006E0938F0652
:105510008FEF9FEF909388048093870481E08093BE
:105520005F0380935C03109257038091EA0281111C
:105530003AC08AE794E00E94EA0E809134038360C7
:105540008093340380917A048C7F71F40E94780EEA
:105550008AE794E00E94EA0E80917A04982F9C7F5B
:1055600083708460992331F080917A04843220F032
:105570008370806280937A0480917D04873918F06B
:1055800086E980937D040E941E080E941C08809179
:105590007A0480FF05C060E0869586950E94A21F70
:1055A00081E08093EA0280918404811102C00E940C
:1055B00034330E947115882309F42EC183E080934F
:1055C00023038091840481112EC082E599E0909399
:1055D000500180934F0129E130E030934B0120933B
:1055E0004A0189E390E090934E0180934D0147E595
:1055F00059E0509358014093570130935301209341
:10560000520190935601809355014CE554E150931B
:10561000600140935F0130935B0120935A019093A6
:105620005E0180935D0190E080E00E947435833ECE
:105630009E4FC9F58FE090E00E946F35F62E172F30
:10564000082F862F8F770E944514FF1CFF24FF1C14
:10565000612F6370660FF62AF092A20112FB882771
:1056600080F90E94560C812F887F09F4D7C01695C7
:1056700016951695212F30E02F5F3F4F42E3429F52
:10568000C001439F900D11240E94480C802F83700D
:105690008093A301802F869586958F708B3008F0BC
:1056A0008AE0809311030E942D05CE0101960E948D
:1056B000A8138C8190917101891721F08093710159
:1056C0000E94390C8D819E810E94480C8B8186FB43
:1056D000882780F991E089270E94560C8F8180935A
:1056E0006E0181E691E090938304809382042E0101
:1056F00023E0420E511C48EF52E088E0480F242E70
:10570000EE24E394FF24F394772473948091360479
:1057100010E400E142E1D42E853009F4BAC00E94C1
:10572000F21F0CEE12E038EFC32E32E0D32EE9EF79
:10573000F1E06996FFAFEEAF6997BF019601F801FE
:105740009191D9018D919D01DB014D91BD01842382
:10575000B2E0E43FFB0709F4A8C0981789F3309042
:105760008404E9EFF1E06396FFAFEEAF639728EFB3
:1057700032E067963FAF2EAF6797A12C6796AEAD2C
:10578000BFAD6797BD906796BFAFAEAF67976396A3
:10579000EEADFFAD639781916396FFAFEEAF639778
:1057A000B822D8016D908D016B1421F16B24912CDE
:1057B00088248394862D8821A9F0332099F099823A
:1057C000AA820E94B6169C838B837D8291E08B2DEA
:1057D000882109F490E09E8349815A816B817C8104
:1057E0008D8148DC9394880CB6E09B12E3CFF801DE
:1057F0003197B082A394E8E0AE12C0CF0E94B10905
:105800006624639456C08EE180938B01A6CD82E01E
:1058100038CE8FEC91E04CCE81E0D1CE8AE892E098
:1058200033CF80913604843039F10E9423110E94D5
:10583000E91D10922504A8E1B0E00FB6F894A895F0
:10584000A09360000FBE1093600083B7817F8460D7
:1058500083BF83B7816083BF7894889583B78E7F39
:1058600083BF0FB6F894A8958091600088618093FB
:105870006000109260000FBE0E94F21FA9EFB1E01D
:10588000E8EFF2E081919D91892309F00EC42E1278
:10589000F9CF80913604853009F4C3CF10922B04E0
:1058A0000E94DB160E9498073ACF981358CF6EDCFF
:1058B000612C80913303882309F464C08091320302
:1058C000E0917A04E695E695E81BE0932E0382309A
:1058D00009F063C0F0E0E951FE4FE4910E2F10E0B3
:1058E0002EE0A22E29E0B22E80912F03882361F0B2
:1058F00010922F030E947D1F90932D0380932C0301
:1059000010923103109230030E947D1F9C01E091A0
:105910002C03F0912D038E1B9F0B8F3F9F4790F51B
:105920008091F6028823B1F01092F6028091F40281
:105930009091F502281B390B2F3F3F4758F4805DAB
:105940009A489093F5028093F40280913403886022
:105950008093340380903003909031030E0F1F1F0B
:1059600010932D0300932C038CE293E0F50109952D
:105970008091300390913103892B21F4892811F013
:10598000F092F6020E94E91D8823D9F00E94B10925
:105990000E94BA1B0E943D1118C0863059F4F0E0F5
:1059A000EC51FE4FE4910E2F10E09FEFA92E98E0EE
:1059B000B92E9ACF00ED17E085EDA82E86E0B82E1F
:1059C00093CF0E94BA1B6110E5CF86E0EBE1F4E0D3
:1059D000DE01119601900D928A95E1F710921D0457
:1059E00010921E0410921F04109220048B819C813F
:1059F000892B09F449C00091190410911A040E94DE
:105A0000B6169C01201B310B90911404992309F4C4
:105A10006EC325313105C0F19F3F19F09F5F909310
:105A200014041B81112359F00E94CD079FEF11161A
:105A30000CF491E0899F802D112480931D041C811A
:105A4000112359F00E94CD079FEF11160CF491E03D
:105A5000899F802D112480931E0480911D0488232A
:105A600099F010911E04112379F00E94ED0788230C
:105A700009F440C180931D04812F0E94ED07882303
:105A800009F43BC180931E048D819E81892B09F40A
:105A900049C000911704109118040E94B6169C0189
:105AA000201B310B90911504992309F41BC3213558
:105AB0003105C0F19F3F19F09F5F909315041D8140
:105AC000112359F00E94AB079FEF11160CF491E0DF
:105AD000899F802D112480931F041E81112359F06A
