:100000000AC4000025C4000023C400000C947D3005
:100010001FC400001DC400001BC4000019C4000060
:1000200017C4000015C400000C9469170C94251720
:100030000C942F270DC400000BC4000009C400005D
:1000400007C4000005C4000003C4000001C4000090
:10005000FFC300000C945118FBC30000F9C300005B
:10006000F7C30000F5C30000F3C30000F1C30000B4
:10007000EFC30000EDC30000EBC30000E9C30000C4
:10008000E7C30000E5C30000E3C30000E1C30000D4
:10009000DFC30000DDC30000DBC30000D9C30000E4
:1000A000D7C30000D5C30000D3C300000501090277
:1000B000A10185020901A1000509190129081500FE
:1000C0002501950875018102050109300931158165
:1000D000257F95027508810609381581257F9501D0
:1000E00075088106050C0A38021581257F95017572
:1000F000088106C0C005010980A101850319012AF4
:10010000B700150126B700950175108100C0050CD8
:100110000901A101850419012AA002150126A002E6
:10012000950175108100C00660FF0961A101096297
:10013000150026FF00952075088102096315002629
:10014000FF00952075089102C005010906A101056F
:100150000719E029E7150025019508750181029529
:1001600001750881010507190029FF150026FF0008
:100170009506750881000508190129051500250156
:10018000950575019102950175039101C061626346
:100190006465666768696A6B6C6D6E6F70717273A7
:1001A0007475767778797A31323334353637383931
:1001B00030524542545F2D3D5B5D5C233B27602CF4
:1001C0002E2F00DA0281FFD9F1DB20A4A62EAF008A
:1001D000A0C0D30000A1C8D30000AED580A81F40A6
:1001E0008D14200000AF00AE202000BABB004B658C
:1001F0007920B10020C0C100BEBF00484F00565456
:10020000003030200020202020B1BCBD0042616CB5
:100210006CB100B4B500B2B300C2C3004CB6B77243
:10022000B100202000130012000C0018001C000078
:10023000002D430F000E000D410B00000038423727
:100240000036001000110000008702000000002AA4
:10025000422A42284114001A000800150017000025
:100260000004001600070009000A0000001D411BE1
:10027000000600190005000000E100E300E2009123
:10028000432C009042270026002500240023000074
:100290000043004200410040003F0000002E022FBA
:1002A000003100300033000000890000000000D160
:1002B00000010001001E001F00200021002200009C
:1002C000003A003B003C003D003E0000002E0025AF
:1002D000023000310034000000010001000100295B
:1002E000002B004C0000000000D3000000000000C4
:1002F000002352D2005200D1000000000000004F45
:100300000051005000000000000000000000002A22
:10031000000100010054005F006000610056000011
:100320000055005C005D005E00570000006200594F
:10033000005A005B006300000001000100010001A1
:1003400000010001005600610060005F00540000E1
:100350000057005E005D005C005500000063005B1C
:10036000005A00590062000000000000000000D2A6
:10037000000100010000000000000000000000007B
:100380000004011601070109010A0100001D011BFB
:100390000106011901050100000100010001000131
:1003A000000100010009025B00030100A0FA09043A
:1003B00000000103010100092111010F0122440085
:1003C0000705810308000109040100020300000081
:1003D00009211101000122220007058203200001EA
:1003E00007050303200001090402000103000000C7
:1003F000092111010F01227B000705840320000160
:100400001201000200000008575900020001010219
:10041000000114034B0065007900620061006C006C
:100420006C00330039000000100359006F007700A2
:100430006B00650065007300000004030904000000
:100440000000000000002F0000000007000700006F
:10045000123F123F1200242A7F2A120036091E245E
:100460001B00182629122800000007000000001EAB
:10047000214000000040211E000014083E08140026
:1004800008083E080800000030700000080808084E
:10049000080000003030000020100C0201001E296E
:1004A00025231E0000223F2000002231292926009A
:1004B000122125251A001814123F10001725252592
:1004C00018001E25252518000131090503001A25ED
:1004D00025251A00062929291E00000033330000B3
:1004E00000003373000008141422220014141414A2
:1004F00014002222141408000201290502003E59AA
:10050000555D3E003816111638003F2525251A0086
:100510001E21212112003F2121211E003F252525DA
:1005200021003F09090901001E2121291A003F0469
:1005300004043F0000213F210000102020201F0064
:100540003F040C1221003F20202020003F02040223
:100550003F003F020C103F001E2121211E003F09D9
:10056000090906001E2129112E003F09091926003C
:1005700012252529120001013F0101001F20202022
:100580001F000718201807000F300C300F00211231
:100590000C12210003043804030031292523210013
:1005A000007F4141000001020C1020000041417F0A
:1005B00000000402010204004040404040000001ED
:1005C00003040000102A2A2A3C003F2422221C0097
:1005D0001C22222224001C2222243F001C2A2A2A18
:1005E0000C0000043E0505000C5252543E003F082A
:1005F0000404380000003D0000002040403D0000A1
:100600003F080814220000013F2000003E023C0287
:100610003C003E0402023C001C2222221C007E14EC
:1006200022221C001C2222147E003E04020204002E
:10063000242A2A2A120000021F2200001E20201055
:100640003E000618201806000E300C300E00221452
:10065000081422000E5050483E0022322A26220062
:1006600008087741410000007F0000004141770801
:100670000800180408100C00000000000000000032
:1006800000000000000000000000C0F0F88C86C6EA
:10069000E7FFFFFFFFFFFFFEFCFCF8E0800000002B
:1006A000F0F0F00000C0E0F070700000000000000A
:1006B000000000000000000000000000000000003A
:1006C000F8F8F80000000000000000000000000042
:1006D000000000000000F8F8F80000F8F8F800004A
:1006E00000000080E07078686C64C7C7C7C7C7C7E0
:1006F000E73F1F0F3FFFFFFFFFFFFF3F0F0000001F
:10070000FFFFFF1E3FFFF3E1800000F8FCFE3636DE
:10071000363EBCB8000E3EFEF080F0FE3E0E0000FD
:10072000FFFFFF060606FEFEFC7000E6F6F6363614
:10073000FEFEFC000000FFFFFF0000FFFFFF0000C7
:1007400000003C7F6360E0C0C0C0C0C0C0C0C0FF4C
:10075000FFC06030180F0303030100000000000019
:100760000303030000000303030300010303030367
:1007700003030301007070393F1F070100000000F0
:100780000103030303030303010000010303030345
:100790000303010000000303030000030303001030
:1007A000101000000000550000003E635D5D637F97
:1007B000417B77413E00001C22221C003E0A003E85
:1007C0000A00322A3C0026281E001C2A2C000000A9
:1007D0003F09360000001E212100000000003F08F4
:1007E00037001E2121001E2121003F090600213F64
:1007F0002100222519001E2121003F0936003F213A
:100800001E00213F21000F300F003E093E003F0631
:100810003F003F20200011241FBECFEFDAE0DEBFF3
:10082000CDBF12E0A0E0B1E0EAE4F6E602C0059038
:100830000D92AA30B107D9F725E0AAE0B2E001C0D5
:100840001D92A03DB207E1F70E9460270C94E632AA
:10085000D7CBE091C103F091C203309739F0028405
:10086000F385E02D309711F060E209950895982FF7
:10087000E091C0034091870357E0E41302C080E099
:1008800008952E2F30E05E9FF0011124E857FC4FB1
:100890008181681306C08081981303C0858181110E
:1008A000EFCFF9013196E770E8CFE8EDF0E0808115
:1008B0008E7F80831092E2001092DA001092E100A5
:1008C000A0EEB0E08C9181608C9380818F778083E3
:1008D00019BCA7EDB0E08C918E7F8C9380818F7EC8
:1008E00080831092710308952091E4003091E50017
:1008F00095E6A9012091EC00822F817020FF06C0AF
:100900008091E80080FF06C080E008952091E80013
:1009100022FD1AC080917D03882389F0853089F0FB
:100920008091EB0085FD0FC02091E4003091E5003F
:1009300042175307F9F29150E1F684E0089582E0FE
:10094000089583E0089581E0089580917F0387FFF3
:1009500013C08091E80082FF06C08091E8008B7789
:100960008093E80004C080917D038111F2CF089547
:1009700080917D038823D9F38091E80080FFF8CF30
:100980008091E8008E77ECCF982F9093E900242F88
:10099000762F50E0891731F07091EC002091ED0036
:1009A0005091F00021FD07C09F5F973071F7809351
:1009B000E90081E008953091EB003E7F3093EB0039
:1009C0003091ED003D7F3093ED003091EB003160D0
:1009D0003093EB007093EC002093ED005093F00007
:1009E0002091EE0027FDE0CF80E00895B0E0A0E088
:1009F000ECEFF4E00C94AC31C8EDD0E088818F7E50
:100A00008883E7EDF0E080818160808384E082BFAD
:100A100081E08093710388818E7F888302EE10E0ED
:100A2000F80110821092DA0081EEC82ED12CF60166
:100A3000108288818F778883888180688883888105
:100A40008F7D888319BC10927D0310927E031092D3
:100A50007C0310927B0390EEE92EF12CF70180814C
:100A60008B7F808388818160888342E060E080E0C2
:100A70008BDFF60180818E7F8083F8018081816029
:100A80008083808188608083F70180818E7F80836E
:100A9000888180618883CDB7DEB7E8E00C94C831E7
:100AA000FC01CB012091850330918603261737077F
:100AB00090F0009729F42091E8002E772093E80029
:100AC00040E0009751F4411108C08091E80082FF96
:100AD00031C080E00895C901F3CF20917D03222326
:100AE000A9F12530A9F12091E80023FD2DC0209126
:100AF000E80022FDEACF2091E80020FFE2CF30910C
:100B0000F3002091F200009719F02830310558F0D9
:100B100041E02830310509F040E02091E8002E77CF
:100B20002093E800CECF41914093F10001972F5FD1
:100B30003F4FE9CF80917D03882341F0853041F01C
:100B40008091E80083FFC1CF81E0089582E008959D
:100B500083E00895089587E797E7909301088093CD
:100B6000000888E19AE00FB6F894A8958093600099
:100B70000FBE90936000FFCFA4E0B0E0E2ECF5E0A0
:100B80000C94B2318FB7F89420916D0330916E03BD
:100B900040916F035091700329833A834B835C83A8
:100BA0008FBF69817A818B819C812496E2E00C94CD
:100BB000CE318091A3010895A3E0B0E0E2EEF5E02C
:100BC0000C94B2319C0180916A0390916B0382175F
:100BD0009307B1F030936B0320936A03E091C10354
:100BE000F091C203309761F00084F185E02D3097D9
:100BF00039F084E089833B832A83CE0101960995ED
:100C00002396E2E00C94CE31A3E0B0E0EAE0F6E017
:100C10000C94B2319C018091680390916903821712
:100C20009307B1F03093690320936803E091C10307
:100C3000F091C203309761F00084F185E02D309788
:100C400039F083E089833B832A83CE01019609959D
:100C50002396E2E00C94CE3180916603882369F0FC
:100C6000E091C103F091C203309739F00190F08117
:100C7000E02D309711F00995089580E00895FC016A
:100C8000680F791F8FEF91E32191822728E030E0F0
:100C900087FF09C0880F892721503109C9F7E61756
:100CA000F70791F70895880FF7CF90919601882361
:100CB00041F09F5F909396011092930110929201E0
:100CC00008959150F7CFEBE8F1E0828591E0892714
:100CD000828710861782089580919401811114C033
:100CE00080919601811110C08091950181110CC0F5
:100CF00090913A0396959695969581E020918C0176
:100D0000921380E08170089581E0FCCF80916601AC
:100D1000F90180830895CF93DF93E6E6F1E08381C4
:100D20009481A581B681E90188839983AA83BB83D5
:100D30001482138216821582DF91CF91089580E08C
:100D4000089563E070E087E992E099DF9091960260
:100D5000891318C0E0919702EB30A4F488E0E80210
:100D6000F0011124EF5FFE4F0680F781E02D3097F0
:100D700049F02AEB32E0409199026AE972E08091F1
:100D8000980209950895E1E0F1E0ACE8B2E01C9624
:100D90008C911C9780A71D968C9183AF0895F89431
:100DA000E82FE295EF70F0E041A18F7021E030E094
:100DB000B90102C0660F771F8A95E2F7CB01962F23
:100DC0009095942391A392A1892B82A3789408955E
:100DD000A4E0B0E0EEEEF6E00C94B2318091660350
:100DE000882369F0C9DE69837A838B839C83698158
:100DF0007A818B819C812496E2E00C94CE31BCDE1A
:100E000069837A838B839C838091EB029091EC02BF
:100E1000A091ED02B091EE0229813A814B815C8173
:100E2000280F391F4A1F5B1F29833A834B835C833A
:100E3000DECF811522E5920708F04AC0811530E522
:100E4000930708F0C5C0803E910540F58D3C9105A3
:100E500008F09AC0883A910580F4853A910508F027
:100E600090C08130910541F09C0124503109213A14
:100E7000310510F090E080E008959C01285A310976
:100E80002B313105B8F7885AE82FF0E0EE0FFF1F3D
:100E9000E855FE4F8081918194640895811540E466
:100EA000940798F4811550E2950708F0ABC0883E8E
:100EB000910510F39C013A9521153F41D8F620E0A9
:100EC000392FA901482BCA0108959F70906A08958F
:100ED000803852E59507B8F5803622E5920708F08C
:100EE0005CC0803432E59307C8F4803242E5940751
:100EF00008F04CC0282F2695269550E2259F90019A
:100F00001124482F437081E090E002C0880F991FA0
:100F10004A95E2F7822B932B9D680895282F2695FA
:100F20002695277040E2249F90011124482F43709A
:100F300081E090E002C0880F991F4A95E2F7822B6A
:100F4000932B9C680895803C52E5950760F4282F08
:100F50002F71803A9245B0F5822F90E0982F882724
:100F6000846F906A08959C01205C324520323105DF
:100F700008F080CF982F882788279F71806F906A0C
:100F80000895849790640895906508958F7190E016
:100F9000982F8827816F906A0895282F2695269587
:100FA000277050E2259F90011124482F437081E063
:100FB00090E002C0880F991F4A95E2F7822B932B8D
:100FC0009A680895822F90E0982F8827906208955C
:100FD0009C0195E0369527959A95E1F72F7030E0C2
:100FE000322F2227482F4F7150E084FF06C084E043
:100FF000440F551F8A95E1F75527C901842B952B7E
:10100000906908959F71E2CF982F90958091720317
:1010100089238093720308958091C0039091870380
:10102000981301C008958F5F8770FACF292F9830E9
:1010300078F5863068F590E036E0239F800D911DAD
:101040001124682F677023E0969587952A95E1F71C
:10105000FC01EE0FFF1FE80FF91FE55AFD4F50E0AE
:1010600040E080E0219130E0062E02C036952795C1
:101070000A94E2F721703327042E01C0220F0A944C
:10108000EAF7822B4F5F5F4F4330510559F70895C0
:1010900080E00895292F983090F5863080F590E013
:1010A00036E0239F800D911D1124282F277041E0E9
:1010B00001C0440F2A95EAF723E0969587952A9573
:1010C000E1F7FC01EE0FFF1FE80FF91FE55AFD4F96
:1010D00090E080E070E05191DF0111979B01082EB4
:1010E00002C0369527950A94E2F7217021952527AD
:1010F000242325272C9301968330910561F70895C9
:101100008093F9020895982F82958F7011F0982F8F
:1011100084E0292F2695269511F08E5F922F9695C3
:1011200009F08F5F08959C019A9581159F4150F5B4
:10113000D901AA27B170F901EE27F270B90166272B
:101140007470A9014427587034FF0EC080E1AB2BA6
:1011500009F480E0EF2B09F08062672B09F08064CE
:10116000452B89F08068089581E0AB2B09F480E07D
:10117000EF2B09F08260672B09F08460452B19F092
:101180008860089580E00895CF93C82F80917301FF
:101190008C1749F0F1DC60937401709375018093B2
:1011A000760190937701C0937301CF910895ACE0DD
:1011B000B0E0EDEDF8E00C94A4316C017B01DC01B2
:1011C0001296ED91FC9113978D919C91222309F435
:1011D00050C020917801211101C024E02150330B2F
:1011E00032E0832E912C02C0880C991C2A95E2F7DC
:1011F000B4010E94F4319B01D6018D939C93CF01E1
:10120000B4010E94F431F601938382836138FFEFC9
:101210007F0704F160387105FCF4D70115966C93D3
:101220002138BFEF3B07D4F020383105CCF4822FB2
:101230008195F7018483442319F0619565832483A4
:1012400080917901882371F0813081F02C96E0E162
:101250000C94C03161E8E1CF6FE7DFCF21E8E7CF41
:101260002FE7E5CFD70115961C92F0CFF701148236
:10127000EDCF21E02427411106C0F195E195F10958
:10128000919581959109022F10E044E0249F9001EF
:101290001124D901A75DBD4F6D917C911197AB01D0
:1012A00077FF02C04D5F5F4F559547955595479520
:1012B0004F01841A950AA401460F571F4D935C9362
:1012C000F901E75DFD4F42815381BA0157FF02C02A
:1012D0006D5F7F4F75956795759567955C01A61A4B
:1012E000B70AA40EB51EBA82A982F901E75DFD4FC7
:1012F000B382A2822081318137FF02C02D5F3F4F30
:10130000359527953595279549815A8157FF04C012
:101310004D5F5F4F5A83498369807A8075946794E3
:10132000759467945090160353E0000F111F5A955F
:10133000E1F75520A9F0A90137FF04C0442755273C
:10134000421B530BC30177FE04C0882799278619D7
:101350009709481759070CF4AC0141155105B9F428
:10136000F801E75EFD4F108211821282138214820F
:10137000158216821782D70112962C931297139614
:101380006C92F60111821082138212825FCF075E87
:101390001D4FDA010E94293269837A838B839C83F3
:1013A000F80180819181A281B38189809A80AB808C
:1013B000BC80880E991EAA1EBB1E89829A82AB82AF
:1013C000BC829A01D3010E9429326D837E838F8370
:1013D000988784819581A681B7812D813E814F8137
:1013E0005885280F391F4A1F5B1F2D833E834F836B
:1013F0005887652D70E080E490E00E94F4314B0145
:10140000770FAA08BB0869817A818B819C81A5012D
:1014100094010E94073229013A01D8016D937D930E
:101420008D939C9313976D817E818F819885A50103
:1014300094010E94073229833A834B835C83A50180
:10144000940169817A818B819C810E94D9314B0101
:101450005C018D819E81AF81B88588199909AA099F
:10146000BB09F80184839583A683B78321E83FEF06
:10147000F1E84F16FFEF5F066F067F063CF020E8AD
:101480004216510461047104E4F4920149815A81C5
:101490006B817C8191E8692E77247A9441388FEFB3
:1014A0005807680778070CF466CF69807A8040385F
:1014B0005105610571050CF45ECF8FE7682E712C24
:1014C0005ACF2FE730E0E2CF8F708A3010F4805D82
:1014D0000895895A089520E297FF04C09195819557
:1014E00091092DE2EAE0F0E0BF010E94F431805D55
:1014F000809317026115710559F42093160220E2BA
:101500002093150220E22093140284E192E00895D2
:10151000CB01BF010E94F431805D809316026115FA
:10152000710571F3CB01BF010E94F431805D80939E
:101530001502E9CFAC01860F971F57FD07C077FD55
:1015400004C097FF02C08FEF9FE7089577FFFDCF9C
:1015500097FDFBCF80E090E80895E4E9F1E083E0B7
:10156000DF011D928A95E9F7E0E9F1E084E0DF010F
:101570001D928A95E9F708959C0180918D019091C3
:101580008E018217930729F030938E0120938D01ED
:10159000E4CF089590918B01981719F080938B01F7
:1015A000DCCF0895CF939091350380912303981356
:1015B00023C080913603882321F09091240389135E
:1015C0001BC080913703882321F090912503891354
:1015D00013C080913903882321F090912703891348
:1015E0000BC090913803992329F081E020912603C4
:1015F000291303C080E001C081E0C82FC17080FFC3
:1016000011C0E091C103F091C203309759F00680F8
:10161000F781E02D309731F082E08093340384E34A
:1016200093E009959091350386E0E4E3F3E0DF0170
:10163000282F1D922A95E9F790933503A2E2B3E093
:1016400001900D928A95E1F781E0C11103C09111DB
:1016500001C080E08170CF9108952FE2280F2830DB
:1016600070F481E090E001C0880F2A95EAF720919C
:101670003503662329F0822B8093350393CF089599
:1016800080958223F9CFCF93DF93282F81E02A30F2
:1016900019F02D3029F480E088D0DF91CF910895A2
:1016A0008091CC059091CD0536E0FC01A6ECB5E02B
:1016B00001900D923A95E1F730EE320F343A08F48A
:1016C00058C026E0FC0111922A95E9F7C091CC059B
:1016D000D091CD0546E050E0BE0186EC95E00E9439
:1016E00079329E01265C3340892B41F1C90145E0E6
:1016F000969587954A95E1F741E050E0BA0102C01E
:10170000660F771F8A95E2F7CB016091C403709151
:10171000C503862B972BB9016B5F7F4FE5E076956C
:101720006795EA95E1F702C0440F551F6A95E2F705
:10173000842B952B9093C5038093C4032A5F3F4F5E
:101740004091C303642F70E0C9010E948E31481B91
:10175000463010F4240F311D211572E0370710F0C8
:1017600030E020E02A533C4F3093CD052093CC0548
:1017700094CF2052330B46E0429FB001439F700D3F
:101780001124625C7B4F46E050E00E9470329ECF95
:10179000CF93DF93EC01FE018491811103C0DF91AF
:1017A000CF91089570DF2196F6CFCF93382FE09137
:1017B000CC05F091CD05E65CF3402091C303622F88
:1017C00070E0CF010E948E31281B822F332359F005
:1017D00066E00E94E831C82FC15010F4CF910895FF
:1017E00080E251DFF9CF9F01280F311D21153240D2
:1017F00018F080E0F0E0E0E08E0F9F2F911D8A53FB
:101800009C4F9093CD058093CC05E8CF80917203D7
:1018100090917502892B90917402992389F0892BFC
:1018200090E02EE032E0F90140812F5F3F4F4111FF
:101830009F5F42E024313407B1F791111092740296
:1018400080930C0248E050E066E772E08CE092E0A2
:101850000E947932892BB9F088E0ECE0F2E0A6E74B
:10186000B2E001900D928A95E1F7E091C103F09109
:10187000C203309741F00280F381E02D309719F0D8
:101880008CE092E009950895EEE0F2E086E0DF0159
:101890001D928A95E9F790E080E0B6D990E080E06B
:1018A0008BD910927502B2CFAAE2B0E0EAE5FCE073
:1018B0000C94B1318FE793E0FC0101962091F10087
:1018C000208323E087389207B9F78091800389301D
:1018D00009F459C0C8F4823009F4B6C0833009F461
:1018E00085C0813091F18091E80083FF39C18091FA
:1018F0007F03909180039A3008F032C1E92FF0E025
:10190000E851FD4C0C9423328A3009F48CC08B30A2
:1019100051F780917F03813231F780918303909159
:101920008403892B01F78091E800877F8093E8008A
:101930000CD881E090918103911101C080E08093E7
:10194000A40110927203A0DFCECF80917F03813A71
:1019500051F68091E800877F8093E80080918303AF
:1019600090918403892B59F468E083E793E070E059
:1019700097D88091E8008B778093E800B4CF60E03F
:1019800090E080E0F4CF80917F03813209F0ABCF0B
:1019900080918303909184038D7F892B09F0A3CFDD
:1019A0008091E800877F8093E8008091E80082FFC3
:1019B00018C09091F3008091F200029731F4809169
:1019C000F100813011F0863021F48091F100809394
:1019D000A3018091E8008B778093E8000E94A50422
:1019E00082CF80917D038111E0CF7DCF80917F03F5
:1019F000813A09F078CF8091830390918403892BF9
:101A000009F071CF8091E800877F8093E800809192
:101A1000E80080FFFCCF8091A4018093F1008091C9
:101A2000E8008E77D9CF80917F03813209F05BCFB8
:101A30008091E800877F8093E8000E94A504809150
:101A400082038093A2014FCF80917F03813A09F0F6
:101A50004ACF8091E800877F8093E8008091E8007A
:101A600080FFFCCF8091A201D8CF803899F08238D6
:101A700009F076C0809183038F70873008F070C0C2
:101A80008093E9008091EB0085FB882780F9109214
:101A9000E90006C080917B0390917C0391118260E4
:101AA0009091E800977F9093E8008093F100109266
:101AB000F1008091E8008E77B7C1882309F4A4C1B2
:101AC000823009F04DC0809181038111A8C18091BD
:101AD00083038F702FEF280F263008F041C08093CA
:101AE000E9002091EB0020FF9AC1933031F48091FE
:101AF000EB0080628093EB0092C19091EB009061CB
:101B00009093EB0021E030E001C0220F8A95EAF7C4
:101B10002093EA001092EA008091EB008860EACFFF
:101B200081111EC0109181031F778091E30080789E
:101B3000812B8093E3008091E800877F8093E80009
:101B40000E94A5048091E80080FFFCCF8091E30013
:101B500080688093E30082E0111183E080937D032D
:101B60008091E80083FF0AC08091E800877F80931E
:101B7000E8008091EB0080628093EB00AA96E3E09E
:101B80000C94CD318058823058F7409181035091A8
:101B900082034C3D83E05807A1F583E08A838AE203
:101BA00089834FB7F894DE01139620E03EE051E2BE
:101BB000E32FF0E050935700E49120FF03C0E2953B
:101BC000EF703F5FEF708E2F90E0EA30C0F0C79665
:101BD0008D939D932F5F243159F74FBF8091E8007B
:101BE000877F8093E8006AE270E0CE0101960E9450
:101BF00050058091E8008B778093E800B1CFC096C4
:101C0000E7CF8091830390918403252F33272330DE
:101C1000310509F44AC078F52130310509F479C05D
:101C20008BE590E0E5EAF3E02230310509F098CF4A
:101C30002091E800277F2093E800209185033091D0
:101C400086038217930708F49C0140E021153105B3
:101C500009F064C0411162C08091E80082FDC9CFE3
:101C600080917D03882329F2853019F28091E80064
:101C700083FFF2CFBECF2132310509F43BC02232BF
:101C8000310509F06DCF8330910508F069CFFC0173
:101C9000EE0FFF1FE350FE4F0190F081E02D8650C4
:101CA0009E4FDC018C9190E011C0CA019927413010
:101CB00089F082309105B1F0892B09F051CFEAE328
:101CC000F4E0E4918E2F90E0EAE3F4E0009709F469
:101CD00047CFAECFE8E2F4E0E4918E2F90E0E8E267
:101CE000F4E0F4CFE2E1F4E0E4918E2F90E0E2E161
:101CF000F4E0ECCF8330910508F032CF880F991FC4
:101D0000FC01ED5FFD4F0190F081E02D89E090E056
:101D10008FCF82E190E0E0E0F4E08ACF80917D0314
:101D2000882309F466CF853009F463CF8091E800F9
:101D300083FD5FCF8091E80082FD8ECF8091E80027
:101D400080FF84CF9091F3008091F200211531053E
:101D500019F08830910550F041E0089709F040E013
:101D60008091E8008E778093E80070CF4491409393
:101D7000F1003196215031090196E8CF803809F001
:101D8000EFCE8091E800877F8093E80080917E030A
:101D90008093F1008ECE8111E3CE10918103123039
:101DA00008F0DECE8091E800877F8093E8001093F2
:101DB0007E030E94A504112311F084E005C08091E8
:101DC000E30087FDFACF81E080937D0342E061EC80
:101DD00081E00E94C40442E261EC84E00E94C404F9
:101DE00042E261EC82E00E94C40442E260EC83E0E3
:101DF0000E94C40480917D03843021F081E08093AF
:101E0000A501AECE82E0FBCF80918103813009F045
:101E1000A7CE81E0933009F080E080937C0310929C
:101E2000E9008091E800877F8093E8000E94A50484
:101E300097CE882339F080959091750289238093FD
:101E40007502E4CC0895882331F090917502892BB6
:101E500080937502DBCC0895882311F0D5D8D6CCB9
:101E60000895882331F090917203892B8093720337
:101E7000CDCC08958823A1F19CEF980F913A68F496
:101E8000EEE0F2E09191891303C0DF0111971C92FB
:101E900092E0E431F907B1F7B9CC90E2980F9830AD
:101EA00048F4877091E001C0990F8A95EAF7892F6D
:101EB000ABD8F2CF9BE5980F933020F490E080E010
:101EC0000C94040698E5980F9B3120F490E080E094
:101ED0000C94DC0593E3980F933110F460E0BDCBD4
:101EE0000895CF93DF93EC01C5DFCE011CD99E018D
:101EF000205E31092830310510F0CD2B21F4ACDF04
:101F0000DF91CF91089595DFFBCF0F931F93CF9370
:101F1000C82F882331F18CEF8C0F813AA0F50EE0A9
:101F200012E0F8018191C81701F122E0E431F207D3
:101F3000C9F7EFEF80E0D8019D918D01C91781F0BD
:101F4000EF3F19F4911101C0E82F8F5F863099F7A8
:101F5000EF3F31F00E2E000CFF0BE45FFD4FC2830C
:101F600055DCCF911F910F910895EEE0F2E0819141
:101F7000C81303C0DF0111971C9232E0E431F3076C
:101F8000B1F744DCD6CF80E28C0F883068F4C7709C
:101F900021E030E001C0220FCA95EAF78091720378
:101FA000822B80937203DCCF8BE58C0F833038F467
:101FB0002C2F2452330BC9010E940406D2CFE8E52E
:101FC000EC0FEB3150F4F0E0EE0FFF1FE855FE4F41
:101FD000808191810E94DC05C4CF83E38C0F833123
:101FE00008F0BFCF61E08C2F38DBBBCFCF93DF93FE
:101FF000EC0199D89E01205E31092830310510F09E
:10200000209731F42EDF8C2F80DFDF91CF91089560
:102010001ADFF9CF0F931F93CF93DF93EC01FC01ED
:1020200001900020E9F78F0101501109C017D10775
:1020300028F0DF91CF911F910F910895899123DBB3
:10204000F5CF0F931F93CF93DF938B01EA0190910C
:102050007D03943061F58093E9008FEF9091E80063
:10206000815095FD06C095ED9A95F1F7000081111C
:10207000F5CF8091E80085FF1AC00E947404811199
:1020800011C08091E80085FD06C08091E8008E7740
:102090008093E800F2CFF80181918F018093F100E5
:1020A000219779F78091E8008E778093E800DF919F
:1020B000CF911F910F910895BC0143E050E084E05F
:1020C000C0CFBC0146E050E084E0BBCFCF93DF93AC
:1020D000D82FC92F48E050E0682F792F81E0B1DF79
:1020E00088E0ED2FFC2FA3E7B3E001900D928A95D5
:1020F000E1F7DF91CF910895792F603229F440E222
:1021000050E0682F82E09DCF0895B0E0A0E0EBE8BA
:10211000F0E10C94AA31F82EE92ED62EC72E8A01B2
:102120008091EA02AA24A394B12C8A3018F48AE0A0
:10213000A82EB12CC1E0D0E06D2D7C2D8F2D9E2DD1
:10214000F8010995811104C02196AC16BD062CF446
:10215000CDB7DEB7EAE00C94C631CC9F9001CD9F9D
:10216000300D300D112490E080E045E34A95F1F701
:102170000000019682179307C1F7DECF1092720319
:1021800083DB2FEF84E39CE0215080409040E1F717
:1021900000C0000088E19AE00FB6F894A8958093FB
:1021A00060000FBE90936000FFCF1F93CF93DF932B
:1021B000962F122F632F8430D8F49830C8F446300D
:1021C000B8F4C42FD0E0CC0FDD1F2CE0929FC00DDF
:1021D000D11D112490E6899FC00DD11D1124CE017F
:1021E00085960E94B132612FCE0186960E94B1324F
:1021F000DF91CF911F910895AF92BF92CF92DF925E
:10220000FF920F931F93CF93DF93B12CA12C00E08B
:10221000650110E012C0FE01259134914F2D612F10
:10222000802FC3DF2296F39486E0F812F4CF86E085
:10223000C80ED11C1F5F183039F0E601CC0FDD1F2E
:10224000CB5DDD4FF12CE7CF0F5F80E3A80EB11C13
:102250000430F1F6DF91CF911F910F91FF90DF9045
:10226000CF90BF90AF9008950F931F93CF93DF93BC
:10227000843030F5683020F5463010F5C42FD0E0BA
:10228000CC0FDD1F2CE0629FC00DD11D112430E664
:10229000839FC00DD11D1124CE0185960E949F32CF
:1022A000082F10E0102F0027CE0186960E949F3243
:1022B0009801282BC901DF91CF911F910F910895AB
:1022C00090E080E0F8CF462F672F783028F4463032
:1022D00018F4843008F4C8CF80E090E00895B0E0AE
:1022E000A0E0E5E7F1E10C94AD317C0100913B0306
:1022F0008091F902082BC3E0D0E010E0DC2EC80189
:102300000C2E02C0959587950A94E2F780FD09C0CE
:102310002197A0F7D12C8D2DCDB7DEB7E7E00C9437
:10232000C931B7018C2FCFDF0E941907019781F3C4
:10233000F2CFCF93DF93D82FC92FD1DF6D2F7C2F12
:10234000C2DF0E941907DF91CF910895FC018481BB
:10235000882399F080819181ECDF282F92959F70DE
:10236000963091F060F4925F9F70923030F481E08B
:10237000203F81F030F4283E30F080E004C09A5FC6
:10238000F3CF243FD1F7089581E0283E20F0213F8C
:10239000A1F7F9CF08950895A6E0B0E0E2EDF1E1EC
:1023A0000C94B1319C0186E0F901DE011196019097
:1023B0000D928A95E1F7F901258189819A8122237D
:1023C00089F0662379F08BDF182F682F89819A8135
:1023D0000E944A0869817A81812F75DF2696E3E0A1
:1023E0000C94CD310E941608182FF4CFAB0124E6CF
:1023F00030E0BC0188E70E94532F9C0181E0232B31
:1024000009F080E008958091620390916503911135
:1024100003C091E089270895882361F062E070E0AD
:1024200086EE91E0E3DF811103C08091620308959D
:102430001092620380916203ECCFA5E0B0E0E3E28A
:10244000F2E10C94B231809162038D838091650337
:102450008823E9F00E94BC05DC01CB01805A95413C
:10246000AF4FBF4F80935E0390935F03A0936003D1
:10247000B09361038D81811107C062E070E084EE4A
:1024800091E0B4DF811108C0809162038D838D815A
:102490002596E2E00C94CE3181E080936203F4CF84
:1024A00020E1FC01A8E3B2E001900D922A95E1F74A
:1024B00040E150E060E472E00C94CF32CF93DF93C0
:1024C000EAE3F2E086E0DF011D928A95E9F7E8E3AE
:1024D000F2E088EC90E091838083C1E0C3838AE8D6
:1024E00092E0958384838AE086838FE29AE09187E5
:1024F000808780E39AE0938782878FE298E09587D0
:10250000848780E398E09787868740E150E060E425
:1025100072E0CF010E94CF32C093370283E08093F4
:10252000150363E080EE93E00E94D832C093140359
:102530008EEF809313036EEF81EE93E00E94D8320A
:10254000C0931203D2E3D093110362E382EE93E0CF
:102550000E94D832C0931003D0930F0362E383EE3E
:1025600093E00E94D832C0930E036BE48EEF93E0A9
:102570000E94D83265EA8FEF93E00E94D832DF9153
:10258000CF91089580913602811110C081E080932F
:1025900036028EEF93E00E949F328B3431F48FEF3E
:1025A00093E00E949F32853A09F088CF0895EADFD0
:1025B00080910E0381110EC083EE93E00E949F3242
:1025C00096EF980F9F3B08F082E380930F0381E022
:1025D00080930E0380910F030895D4DF8091100340
:1025E00081110EC082EE93E00E949F3296EF980F09
:1025F0009F3B08F082E38093110381E080931003F6
:10260000809111030895BEDF8091120381110CC0E7
:1026100081EE93E00E949F32883008F08EEF809325
:10262000130381E080931203809113030895AADFBE
:102630008091140381110BC080EE93E00E949F32C1
:10264000883040F48093150381E0809314038091D7
:10265000150308958E3FB1F383E0F4CFCF93DF935A
:10266000D82F0E948308C82FE2DF982F81E09C13A7
:1026700080E00E94C408C7DF91E08C1390E0909343
:102680002C038C1791F080912D0381110EC0809145
:10269000320381110AC0109231031092300310925C
:1026A0002F0310922E0310922B038D2FDF91CF91C9
:1026B0000895D4DF80933B03089521E030E001C00A
:1026C000220F8A95EAF7209580913B038223F1CF70
:1026D00090913A038095892380933A03282F27709D
:1026E00061F4891751F09091FB0292FF06C0869524
:1026F00086958695E2DF10923A03089521E030E056
:1027000001C0220F8A95EAF780913B03822BD1CF3B
:10271000CF93DF93D82FC92F35DF809137028111F6
:1027200020C040E150E060E472E088E392E00E9463
:102730008F328091380290913902C297873B934043
:1027400068F0EAE3F2E08EE0DF011D928A95E9F796
:1027500088EC90E0909339028093380281E0809376
:10276000370280E1E8E3F2E0AD2FBC2F01900D923B
:102770008A95E1F78D2F9C2FDF91CF910895A0E1ED
:10278000B0E0E5ECF3E10C94B231CE010196C0DF8C
:1027900089819A819C0122533109273B334010F0F3
:1027A00088EC90E06096E2E00C94CE319091FB02D0
:1027B00092FB222720F9281771F080FB92F9909361
:1027C000FB026091FA027091FB0284E090E00E94AB
:1027D000CB3282E07DCF0895B0E0A0E0E2EFF3E1FC
:1027E0000C94AC31FA0169017801C82F880FDD0B18
:1027F0003097B1F0DE0193E0AA0FBB1F9A95E1F785
:10280000AF5FBE4F11968D919C91129784579D4F4B
:102810004C9150E0E417F50708F4AF010E948632AE
:10282000CE010E941E31182F8823D1F0E114F1044B
:10283000B9F083E0CC0FDD1F8A95E1F7FE01EF5F71
:10284000FE4F438150E0E416F50608F4A701CF5F80
:10285000DE4F6C817D8164577D4FC6010E948632B8
:10286000812FCDB7DEB7E8E00C94C831A5E0B0E029
:10287000ECE3F4E10C94AA318D83E62E5A01F22E9A
:1028800068018091EA028A3028F080E02596EAE02B
:102890000C94C6318D818830C4F319828A836B838E
:1028A0002C8363E070E0CE0102960E943F0689838C
:1028B000E0922901F0923C0110E000E030E020E0DD
:1028C00044E050E0BE016F5F7F4F84E085DF8823E6
:1028D000E1F24E2D50E030E020E0B50185E07CDFF4
:1028E000882399F230E020E041E050E0BE016B5FC8
:1028F0007F4F86E071DF882341F20F2D10E09601B3
:1029000050E040E070E060E087E066DFBFCFA5E028
:10291000B0E0EDE8F4E10C94AC310091620309837E
:1029200010919502C090E602D090E702E090E80294
:10293000F090E9020E94BC05DC01CB018C199D09D5
:10294000AE09BF0984369105A105B10530F4812F88
:1029500090E011E008171906C1F010E000E030E047
:1029600020E041E050E0BE016F5F7F4F83E034DF45
:10297000182F882351F00E94BC056093E6027093E3
:10298000E7028093E8029093E902812F2596E8E020
:102990000C94C831A8E0B0E0E0EDF4E10C94AC3167
:1029A000C090E202D090E302E090E402F090E502F1
:1029B0000E94BC05DC01CB018C199D09AE09BF0941
:1029C00011E084369105A105B10518F10E94E806D1
:1029D000DC01CB010296A11DB11D89839A83AB83D3
:1029E000BC8310E000E030E020E044E050E0BE01B5
:1029F0006F5F7F4F82E0F0DE182F882351F00E9436
:102A0000BC056093E2027093E3028093E40290932A
:102A1000E502812F2896E8E00C94C8318F929F92AE
:102A2000AF92BF92EF92FF920F931F93CF93DF93DA
:102A3000CDB7DEB729970FB6F894DEBF0FBECDBF76
:102A40007B0101E010E09E012B5F3F4F50E040E032
:102A500070E060E080E0C0DE182F882309F44EC0EB
:102A60008090DE029090DF02A090E002B090E10240
:102A70000E94BC05DC01CB0188199909AA09BB0990
:102A800084369105A105B10548F464E070E08DE855
:102A900092E00E943F069D81891781F104E010E0D9
:102AA0009E012F5F3F4F50E040E070E060E081E02A
:102AB00093DE182F64E070E08DE892E00E943F06FC
:102AC00091E02D81281390E0192331F10E94BC057B
:102AD0006093DE027093DF028093E0029093E10244
:102AE00089819A81AB81BC818093DA029093DB0269
:102AF000A093DC02B093DD0211E00EC080918D0244
:102B000090918E02A0918F02B091900289839A8356
:102B1000AB83BC831111E4CF8091DA029091DB0288
:102B2000A091DC02B091DD02F70180839183A28342
:102B3000B383812F29960FB6F894DEBF0FBECDBFA9
:102B4000DF91CF911F910F91FF90EF90BF90AF90C9
:102B50009F908F90089528E030E043E060E086E3A6
:102B60000C941A2ECF93DF93D82FC62FF4DF8D2F1E
:102B700080680E942C2E8C2F0E942C2E8AEB8A9526
:102B8000F1F700C00E945C2E83E492E00197F1F718
:102B900000C00000DF91CF910895682F893708F0B9
:102BA00068E76093710191E09093720190916601E2
:102BB000992349F06150811101C064E0683708F041
:102BC00067E78FE0CFCF0895FB018081E6CF282F04
:102BD00080917101811101C085E0022E000C330B40
:102BE000820F932F911D1816190614F081E090E0C2
:102BF000D4CFACE0B0E0EFEFF5E10C94AE314F8311
:102C0000588769877A878B879C878091660188239C
:102C100009F444C080913102811106C060E080E572
:102C2000A1DF81E08093310296DF80E50E942C2EA7
:102C30000AEB0A95F1F700C00E94442E0E94442E30
:102C40000E94442E7C010E94442E60E0E62AF82A6D
:102C50000E94442E8C010E94442E20E0022B182B4F
:102C60000E945C2E25E02A95F1F70000F894B70148
:102C70008091690190916A010E949A0A90936A0179
:102C800080936901B80180916B0190916C010E9461
:102C90009A0A90936C0180936B01789480916603FB
:102CA000882309F466C00E94BC05462F572FBC013B
:102CB0008091320290913302A0913402B09135029A
:102CC0008A019B01081B190B2A0B3B0BD901C80178
:102CD0000897A105B10508F44CC040933202509307
:102CE00033026093340270933502809174019091A5
:102CF0007501A0917601B0917701481B590B6A0BC1
:102D00007B0B423351056105710580F410926A0115
:102D10001092690110926C0110926B0110926E0179
:102D200010926D011092700110926F011091670363
:102D300020917301412FBE01695F7F4F89E691E0C9
:102D40000E94D7082091730180916601282741E0F5
:102D50004127BE01695F7F4F8DE691E00E94D70851
:102D600086E0FE013796AEE7B1E001900D928A95BC
:102D7000E1F786E0FE013796DE01119601900D9293
:102D80008A95E1F729813A814B815C816D817E8151
:102D900080E090E02C96E6E00C94CA31CF93C82FE7
:102DA000DADE8C2F0E942C2E8FE792E00197F1F74C
:102DB00000C000000E94442EC82F95E09A95F1F7BC
:102DC00000000E945C2E85E68A95F1F700001092C3
:102DD00031028C2FCF910895CF93DF930E94892DDC
:102DE000269AB9DE6AE58AE3BDDE2FEF80E792E03E
:102DF000215080409040E1F700C0000082E0CEDF2B
:102E000083E0CCDF84E0CADF85E0C8DF86E0C6DF90
:102E100060E080E1A7DE80E0C1DFD82F81E0BEDF87
:102E2000C82F0E945C2ED23419F481E0C13009F021
:102E300080E0817080936601882319F064E08FE060
:102E400091DE81E0DF91CF9108951F920F920FB62E
:102E50000F9211242F933F934F935F936F937F9320
:102E60008F939F93AF93BF93CF93DF93EF93FF9392
:102E7000D091E900DF708091EC00C82FC17080FD17
:102E8000C0E81092E9008091F000877F8093F00005
:102E900078940E94540C1092E9008091F0008860B0
:102EA0008093F000CD2BCF70C093E900FF91EF919C
:102EB000DF91CF91BF91AF919F918F917F916F9152
:102EC0005F914F913F912F910F900FBE0F901F90E8
:102ED00018951F920F920FB60F9211242F933F93C4
:102EE0004F935F936F937F938F939F93AF93BF9312
:102EF000EF93FF938091E10082FF09C08091E2008F
:102F000082FF05C08091E1008B7F8093E10080917A
:102F1000DA0080FF24C08091D80080FF20C080911B
:102F2000DA008E7F8093DA008091D90080FFA9C0FB
:102F300080E189BD82E189BD09B400FEFDCF81E059
:102F400080937D0380917103811109C00E94550413
:102F50000E94F6048091E20084608093E2008091F8
:102F6000E10080FF1AC08091E20080FF16C08091CE
:102F7000E2008E7F8093E2008091E2008061809386
:102F8000E2008091D80080628093D80019BC85E06F
:102F900080937D0383E08093A5018091E10084FF0D
:102FA0002FC08091E20084FF2BC080E189BD82E1C7
:102FB00089BD09B400FEFDCF8091D8008F7D80933C
:102FC000D8008091E1008F7E8093E1008091E20043
:102FD0008F7E8093E2008091E20081608093E20026
:102FE00080917E03882309F452C084E080937D039E
:102FF00080917D03843009F452C081E08093A50163
:103000008091E10083FF2CC08091E20083FF28C003
:103010008091E100877F8093E10082E080937D03CF
:1030200010927E038091E1008E7F8093E100809179
:10303000E2008E7F8093E2008091E20080618093C5
:10304000E20042E060E080E00E94C4048091F00071
:1030500088608093F00081E08093A5018093A401B3
:10306000FF91EF91BF91AF919F918F917F916F9160
:103070005F914F913F912F910F900FBE0F901F9036
:10308000189519BC10927D031092710368CF80913E
:10309000E30087FD02C081E0A9CF83E0A7CF82E0F3
:1030A000ADCF78941F921FB61F9211248F939F93D8
:1030B000AF93BF9380916D0390916E03A0916F03C6
:1030C000B09170030196A11DB11D80936D03909383
:1030D0006E03A0936F03B0937003BF91AF919F9164
:1030E0008F911F901FBE1F9018952FB7F894809155
:1030F0006D0390916E03A0916F03B09170032FBF89
:103100000895A5E0B0E0E7E8F8E10C94A6318091DD
:103110006503882309F41DC1209163033091640382
:103120003A832983E2DF49815A81841B950BC29738
:1031300008F4E6C0DADF909364038093630386ECBF
:1031400093E09093CD058093CC058091660388230E
:1031500009F40EC18EEE91E00E94C80B88EB0E942C
:10316000430B80917D010E94640A0E94430B89EB0E
:103170000E94430B80917C010E94640A0E94430BD1
:103180008BEE91E00E94C80B80917A0190917B01B7
:1031900054E0969587955A95E1F70E94640A0E943B
:1031A000430B80917A010E94640A0E94430B88EECF
:1031B00091E00E94C80B84E891E00E940A108DE023
:1031C00092E00E94C80B80918001082E000C990BA0
:1031D0000E946B0A0E940A1080918101082E000C47
:1031E000990B0E946B0A0E940A1080918301082E9D
:1031F000000C990B0E946B0A0E940A1080918201B8
:10320000082E000C990B0E946B0A0E940A1085E0A0
:1032100092E00E94C80B80917101811101C085E08C
:1032200090E00E946B0A01960E940A1081E092E0F1
:103230000E94C80B80917901882331F0813009F414
:103240008CC088EF91E002C08EEF91E00E94C80B25
:1032500080917301882309F483C086E192E00E9483
:10326000C80B84EF91E00E94C80B80917801811116
:1032700001C084E0805D0E94430B8CE192E00E94DB
:10328000C80B61E070E07A83698380913B038823F7
:1032900009F469C090E0098002C0959587950A9469
:1032A000E2F780FF60C089810E94640A0E94430B9C
:1032B00089819A8101969A838983089731F780E200
:1032C0000E94430B89E192E00E94C80B80918B0120
:1032D000882309F44AC086E192E00E94C80B8091DD
:1032E0008D0190918E016AE070E00E948E31CB01D9
:1032F0000E946B0A01960E940A1080E30E94430B11
:103300008091C4039091C503892B09F04DC0809131
:1033100062038823F1F00E94BC0569837A838B8362
:103320009C8380915E0390915F03A0916003B091B4
:10333000610329813A814B815C81281B390B4A0B3F
:103340005B0BDA01C9018F3F9F4FAF4FBF4708F4B6
:103350005AD82596EEE00C94C2318BEF91E076CFEF
:1033600083E192E07CCF80EBA1CF83E192E0B5CF07
:1033700090E99983A981A051AD8382E292E00E94F5
:10338000C80B8D81B82FBF5FBD830E94430B6D803A
:1033900029816212F6CF80E00E94D50B3981305F1F
:1033A0003983303C39F7ACCF80916503882309F429
:1033B000AECF80915D038111AACF3FD82091C40385
:1033C0003091C5032115310509F4A1CF80E041E01A
:1033D00050E0082F10E0BA01082E02C0660F771FD8
:1033E0000A94E2F77A83698362237323672B11F4CB
:1033F0008F5FEFCF90915C0390FF97C0880F880F8D
:10340000880F80939D011092A001895F80939E0197
:1034100083E08093A10124E630E047E050E06BE9CF
:1034200071E088E70E94112F892B09F070CFA80165
:1034300025E0440F551F2A95E1F780915C0380FF3A
:1034400086C0ECE3F3E080E2DF011D928A95E9F7A4
:1034500006EF11E082EFE82E81E0F82E97E0992E3A
:1034600088248394D801ED918D01D7016D917D0160
:10347000640F752F711D6A537C4FF0E0E45CFC4FC4
:1034800030E020E0792C721AA82C022E01C0AA0C80
:103490000A94EAF76B0190E0D6018D916D018A21C3
:1034A000A72DA91BA770BA2E0A2E000CBB0B682EE5
:1034B00001C0660CBA94EAF7B62CB195A195B10992
:1034C000A770BB2701C08695AA95EAF7A62DA82B61
:1034D00080818A2B80839F5F9830F1F62F5F3F4F6A
:1034E00031962830310571F621E00A3F120709F0C4
:1034F000B9CF04E610E020E230E04CE353E060E4B2
:1035000088E70E94982F892B09F001CF49815A81C1
:10351000409550958091C4039091C5034823592349
:103520005093C5034093C403F2CE8295880F8076F2
:1035300080939D0198013695279536952795209380
:10354000A001815E80939E012093A10164CF4A5324
:103550005C4F04E610E020E230E0D1CFA4E3B0E01D
:10356000E4EBFAE10C94AC3180912803833009F04C
:1035700082C24091340350913503609136037091BB
:103580003703809138039091390333DB2093340360
:1035900030933503409336035093370360933803D9
:1035A0007093390386E0E4E3F3E0DE015196019085
:1035B0000D928A95E1F786E0FE017196DE015D9637
:1035C00001900D928A95E1F786E0FE017D96DE017D
:1035D000119601900D928A95E1F786E0FE013196F1
:1035E000A4E3B3E001900D928A95E1F786E0E4E36D
:1035F000F3E0DE01519601900D928A95E1F786E0A5
:10360000FE017196DE01939601900D928A95E1F785
:1036100086E0FE01B396DE01119601900D928A9527
:10362000E1F786E0FE013196A4E3B3E001900D924C
:103630008A95E1F786E0E4E3F3E0DE019F960190EE
:103640000D928A95E1F786E0FE01BF96DE0157965E
:1036500001900D928A95E1F7E9A8FAA81BA90CA997
:1036600080913203882309F4E3C020913003309124
:1036700031032E0D311DE7FC3A9530933103209331
:10368000300380912E0390912F038F0D911DF7FC35
:103690009A9590932F0380932E0337FF03C03195A3
:1036A000219531092D3031053CF497FF03C09195E8
:1036B000819591090D972CF081E080932D03109254
:1036C0003203198E1A8E1B8F0C8F86E0FE017796BF
:1036D000DE01519601900D928A95E1F7F12CE12CD3
:1036E000EB8AFC8A1D8B0E8B86E0FE017196DE0153
:1036F000999601900D928A95E1F7EBA6FCA61DA77D
:103700000EA786E0FE01B996DE01579601900D9254
:103710008A95E1F7E98EFA8E1B8F0C8F86E0FE0109
:103720007796A4E3B3E001900D928A95E1F786E0E5
:10373000E4E3F3E0DE01579601900D928A95E1F7FC
:1037400080918B01882309F457C100919001109159
:103750009101CBDC20918F01801B910B281719065A
:1037600008F04AC10091920110919301BEDC9C01C6
:10377000201B310B890103D88017910708F03CC149
:10378000588D2A8D8B8D9C8D30919701498D340FEA
:103790003093970140919801240F20939801409114
:1037A0009A01940F90939A0140919901840F80930C
:1037B00099014091650137FD3195431708F410C117
:1037C00027FD2195421708F40BC197FD91954917E4
:1037D00008F406C187FD8195481708F401C181E00E
:1037E000511101C080E08170809394010E946C06A9
:1037F00010913B03882309F40CC110929701109299
:1038000098011092990110929A016FDC90939101A6
:1038100080939001109293011092920180918C01FB
:103820001111E0C0882309F4E7C00E947E13E4C0B0
:1038300080912D03811105C080912C03882309F408
:10384000AEC080912B03882369F0C0902903D090EB
:103850002A034BDC8C199D098F35914008F489C0EF
:1038600010922B0380913003909131038E0D911DA6
:10387000E7FC9A95909331038093300380912E0357
:1038800090912F038F0D911DF7FC9A9590932F0324
:1038900080932E030E94ED12F82E0E94D7122F2D36
:1038A00030E0C0903003D0903103E0902E03F090D0
:1038B0002F032C153D0594F0319521953109C21641
:1038C000D30664F0282F30E08E151F043CF03195AC
:1038D00021953109E216F3060CF0F3CEF7FE03C092
:1038E000F194E194F108CE0101960E948813D7FE6D
:1038F00003C0D194C194D108EC14FD040CF042C073
:103900008091300390913103EF84F88818161906DE
:1039100014F0ED84FE84E114F104D1F095E0C92E99
:10392000D12C39E3E316F10419F480E5C82ED12C2B
:10393000C7010E94F60F8FE99FE00197F1F700C0E1
:10394000000091E0C91AD108B1F7C7010E94710FB8
:10395000109231031092300310922F0310922E0315
:1039600081E080932B03C1DB90932A03809329038A
:10397000A8CE109231031092300310922F031092B0
:103980002E039FCE80912E0390912F03EB84FC8415
:10399000181619060CF4BFCFE984FA84BCCF802F27
:1039A000812BD1F0CE0101960E9488138B8184FD7A
:1039B000119585FF13C0802F8195E98EFA8E1B8F9C
:1039C0008C8F96E0FE017796DE01519601900D9264
:1039D0009A95E1F7082F84CE10E0EFCF802FEDCF3E
:1039E00081E001CF212F30E0082E02C035952795C8
:1039F0000A94E2F720FF19CF0E94D20A811138C041
:103A000080913303817010923303E496E8E00C94C4
:103A1000C83180918C01111121C08111EDCF00912D
:103A200090011091910161DB801B910B20918D0120
:103A300030918E0128173907F8F680918C010E9489
:103A40005D131092910110929001109297011092C3
:103A500098011092990110929A01CECF212F30E057
:103A600002C0359527958A95E2F720FFC5CFD7CFBD
:103A700081E090E0C7CF80E0C8CFA0E2B0E0E3E40F
:103A8000FDE10C94A8311A8A198AFE01739686E02A
:103A9000DF011D928A95E9F780EEE82E81E0F82E8D
:103AA00010E000E0CC24C394D12C2AEEA22E21E019
:103AB000B22EF70181917F018F3F09F445C0F89440
:103AC000E82FE295EF70F0E021A18F70A60102C00F
:103AD000440F551F8A95E2F7CA01922F982B91A3A4
:103AE00092A18095892382A3789400C0E4EEF1E04E
:103AF00031E0912C21912F3F09F4BCC0A22FA29557
:103B0000AF70B0E090968C9190E02F7002C09595C8
:103B100087952A95E2F780FDADC0832F982A330F51
:103B2000AE16BF0639F7F701319780818F3F11F04C
:103B30000E94CF0650EA5A95F1F7E1E1F0E0EC0F70
:103B4000FD1FE00FF11F90820F5F1F4F0430110522
:103B500009F0AFCF48E050E0BE016F5E7F4F8FEEBF
:103B600092E00E9479329C01892B49F088E0FE01A5
:103B70007196AFEEB2E001900D928A95E1F7009157
:103B8000F80210E00A5F1C4F232B09F475C081E096
:103B900080938202AADA9093810280938002F12CB2
:103BA000E0906603EE2009F4C3C01A8E198E1C8EB5
:103BB0001B8E8091EA028A3008F083C04EE055E106
:103BC000BE01675E7F4FC8010E948510882309F4FB
:103BD0009FC04AEC54E1BE01675E7F4FC8010E945E
:103BE0008510882309F494C047E854E1BE01675E5C
:103BF0007F4FC8010E948510882309F489C0109264
:103C0000EA028091F70290E044E050E0BE01675E76
:103C10007F4F8A5F9C4F0E94793221E020938B0274
:103C2000892B09F067C0E12C809132038823E1F0F1
:103C3000CE0101960E94881309811A81C801C2979A
:103C4000873B934010F008EC10E0C0908502D090C4
:103C500086024BDA8C199D090817190728F481E0B0
:103C600080932D03109232038E2D8F29A096ECE0C5
:103C70000C94C43180E052CFF0908202FF2009F40E
:103C80008ECFC0908002D09081022FDA8C199D09CE
:103C9000059708F484CF44E050E06FEE72E0C8016D
:103CA0000E947932892B59F084E0EFEEF2E0D801DE
:103CB00001900D928A95E1F71092820271CFF12C5A
:103CC000FBCFC0908302D09084020FDA8C199D093B
:103CD000843F914008F072CF80918B02882309F4D1
:103CE000A2CFFE01799684E0DF011D928A95E9F763
:103CF00010928B02E091F702F0E0EA5FFC4F898DB1
:103D00009A8DAB8DBC8D80839183A283B3838CCF3E
:103D10008091EA028F3F31F08F5F8093EA028A3010
:103D200008F46FCFE2D99093840280938302D4CFBA
:103D3000F80180819181A281B38180938D0290935B
:103D40008E02A0938F02B093900264E070E08DE841
:103D500092E00E943F0680938C02809091029090A6
:103D60009202A0909302B090940280918702909169
:103D70008802A0918902B0918A0288169906AA0643
:103D8000BB06B1F08092870290928802A0928902CD
:103D9000B0928A020E94BC05861A970AA80AB90A3C
:103DA0008092EB029092EC02A092ED02B092EE02B1
:103DB00080919502882319F00E941D1255CF0E9410
:103DC000031252CFA0E1B0E0E8EEFEE10C94A7317F
:103DD0007C01DC0114968C91882309F43EC161E0DA
:103DE000C7010E94CC118C0180918B01882321F1A5
:103DF0000032B2E51B0708F081C00115E2E51E079D
:103E000008F0C5C00115F0E51F0708F06CC00115EA
:103E100020E4120708F0D2C0011530E2130708F0C1
:103E2000D5C0083E110590F5003E1105A0F1809126
:103E3000960187FD1092960110937B0100937A0101
:103E4000D7018D919C91119790937D0180937C0176
:103E5000F8013497E533F10508F0D0C0E357FE4F81
:103E6000E49115968C9120EB811102C02E2FE0EB8E
:103E7000A4E8B1E090E080E03D913213B9C08A59E6
:103E80009E4FDC015E96EC93F80107C5C8019A9538
:103E900081159F4160F2D70114968C91882339F2E5
:103EA0000730BEE71B0709F440C0C8018D5C9109CB
:103EB0004397D8F10E946C068111B9CFF701858133
:103EC000882359F080918C0120913B03211184C0FB
:103ED000882309F48AC00E94AD0A07D99093930100
:103EE00080939201A4CFC801E5E096958795EA9565
:103EF000E1F78F70992720918C0113C00038B2E54B
:103F00001B07C0F40036E2E51E0708F040C000348D
:103F1000F2E51F0708F08BCF20918C01C8018F714B
:103F200099272817190609F082CFF70185810E9489
:103F300055067DCF003E22E5120710F5003C32E524
:103F4000130708F474CF20918C01C8018F71992751
:103F50002817190609F06BCFD70115968C910E948E
:103F60005506F7018681807F803509F060CF858115
:103F70008823F1F08091960181508093960157CF6C
:103F8000C801805E9245809708F451CF84CF20917C
:103F90008C01C8018F7199272817190609F047CF9E
:103FA000D70115968C91811142CF0E9463063FCFB5
:103FB0000E946306809196018F5FDFCFD70116962E
:103FC0008C91807F19F4812F992793CFF7018681F7
:103FD000807F09F42CCF5FCF30E0082E02C03595EA
:103FE00027950A94E2F720FF76CF0E945D1373CFE6
:103FF00001968630910509F03FCF46CFF7018581C4
:104000000031FEE71F0709F064C08823B9F1CE0133
:1040100001960E9488138885109231031092300314
:1040200010922F0310922E0310922B03811119C0AE
:1040300081E080932D031092320380913A038770C0
:1040400061F0D70115968C91882339F08091FB029D
:1040500082FF03C082E00E9468136096EDE00C943A
:10406000C3318093590241D8909386028093850290
:1040700081E08093320310922D03DFCF80913203D1
:104080008823C1F0D090590229E305E010E0D21254
:1040900002C000E510E08D2D0E94850F8FE99FE0A2
:1040A0000197F1F700C0000001501109B9F78D2DFB
:1040B0000E943A0F10922D03109232031092310396
:1040C0001092300310922F0310922E0310922B03A4
:1040D000B4CF980137572038310508F0D6C388236C
:1040E00009F4ACC010E0D12CC12C011721F1B0E9CA
:1040F000CB16B1E0DB0608F0A0CFC601805B9D4F78
:104100000E949F3296012F5F3F4F882391F09FEFCF
:10411000980F923010F0843051F493E0C90ED11C06
:10412000A0E9CA16A1E0DA0640F31F5FDECF6901FD
:10413000F7CF6901FACFE0E9CE16E1E0DE0608F03C
:104140007CCFC601805B9D4F0E949F32843019F066
:10415000833008F072CFC601805B9D4F0E949F3272
:10416000B82E882309F469CF8FEF8B0D823018F0B9
:10417000F4E0BF1262CFC6018F5A9D4F0E949F325A
:10418000182FC6018E5A9D4F0E949F3223E0C20E07
:10419000D11C082F31E0B31220C065E0A62EB12C4F
:1041A0000933110519F450E5A52EB12CC8010E9460
:1041B000F60F8FE99FE00197F1F700C0000091E052
:1041C000A91AB108B1F7C8010E94710FF0E9CF1622
:1041D000F1E0DF0608F4BFCF30CFA2E0BA1213C07F
:1041E000C8010E94F60FE0915802E83078F781E0AC
:1041F0008E0F80935802F0E0EE0FFF1FE85BFD4F3B
:1042000011830083E3CFB4E0BB12E0CF01151105A9
:10421000E9F2EFE9FFE03197F1F700C0000001504B
:104220001109F4CFE150E0935802F0E0EE0FFF1FC8
:10423000E85BFD4F808191810E94710FE0915802EF
:10424000E111F0CFFACEE730BEE7FB0761F088233B
:1042500009F432C3FE57E031F10508F02DC3EE50EA
:10426000FD4C0C9423320E94C40826C380E00E94B7
:10427000CD151092780180E00E94CA0A8AE892E087
:104280000E94BC0ADACE2091780130918B01809196
:104290008D0190918E0162E370E00E948E318FEF6C
:1042A000860F90917901609116034091710120FB76
:1042B00047F9522F56955370330F330F532B282F36
:1042C000220F220F220F522B660F660F6C73937012
:1042D000692B70E08FE090E00E94C332AECE81E0A7
:1042E0000E94E715AACE8FEFFBCF8AE0F9CF86EFC9
:1042F000F7CF9091730181E089270E94C4089DCE79
:1043000080917801811101C084E08F5F18160CF054
:1043100081E0883008F087E0809378018ECE80912C
:104320007801811101C084E08150F0CF81E0809359
:10433000790183CE1092790180CE82E0F8CF9091FE
:104340008B0181E089270E94CA0A77CE80918D0176
:1043500090918E01C296893EE3E09E0708F490CFCB
:1043600088EE93E08DCF80918D0190918E01C29760
:104370008436910508F084CF84E690E081CF8823CD
:10438000E1F10B35FCE71F0771F10C352CE7120743
:10439000F1F00A353CE7130721F101309CE71907DA
:1043A00051F10330ACE71A0701F101151C4729F55B
:1043B000109272030E94440CEFEFF4E32CE0E15002
:1043C000F0402040E1F700C000000E94AB05809162
:1043D000FB0282FB882780F991E089270E94D6138F
:1043E0002CCE81E0FBCF80E0F9CF6FEF7FEF90E044
:1043F00080E00E94CB320E94BE10F701C080D180C5
:10440000882309F44CC0C6010E946F11182F682F31
:10441000C6010E944A08B601812F0E9463110E94C2
:1044200019078C01882ED70115967C901597169642
:10443000CC90C2942FE0C22280913A03877009F198
:10444000972C7720F9F0812F807F803469F080E20B
:10445000800F8830B0F0812F807E803229F4B1E067
:10446000B01778F4CC2069F08091FB0282FF09C07C
:1044700082E00E94681380913A0387709924939494
:104480008111912C812F82958F70A82EB12C8C30A8
:1044900008F069C0F501EE5FFC4C0C942332C601B4
:1044A0000E941608182FB7CFE12FEF70DE2E107F75
:1044B00019F0D29490EFD922802F7720B9F0DD2027
:1044C00069F090E2900F983010F0011109C08091CE
:1044D0007203D82AD09272030E94060C802F41C02A
:1044E00080917502D82AD0927502F6CF0E943A0FB9
:1044F000DD20C9F1005E083010F0811004C08D2D60
:104500000E94040806C0D09480917502D822D092EF
:1045100075020E94060C27C0F12FFF70DF2E107F5E
:10452000103219F0D29480EFD822882051F021E087
:10453000821609F45CC0772009F468C0CC2061F1D0
:10454000CDCF8091FB0282FD23C07720D9F0DD2002
:1045500039F080917203D82AD09272030E94060C1F
:1045600080E00E94850F98E0A91AB108A4E0AA167D
:10457000B10408F072C10E942C0660E0C7010E94DD
:10458000CC116BCD80E00E943A0FDD2061F3B7CFF4
:10459000772099F0C11004C08D2D0E94310FE3CF18
:1045A00031E0C312E0CF809174029D2D9823D9167B
:1045B000D1F2D82AD0927402D6CFC110D4CF8D2D8B
:1045C0000E942C0F909174028D2D892329F08D2D3E
:1045D000809589238093740280915A029D2D98239F
:1045E00009F4C1CFD094D822D0925A02BCCF772000
:1045F00029F085E08C1508F4B6CFCECF94E09C1559
:1046000008F4B1CF8D2D0E942C0FADCFCC20D1F36B
:10461000093309F01AC1AFEFB7EEE3E0A150B040A3
:10462000E040E1F700C00000802F0E943A0F9BCFCE
:10463000812F86958695837061F0813009F093CF44
:10464000C8019370711002C080E090E00E94DC0508
:104650008ACFC8019370711002C080E090E00E9480
:10466000040681CF672D802F0E942D0B7CCF812FD8
:10467000837091F5711077CF402F42954695477022
:10468000440F440F802F8F70042E01C0880F0A94AE
:10469000EAF7202F207104FF07C02FE030E001C0AF
:1046A000220F4A95EAF72095169516951370123049
:1046B00071F0133051F03091F902113029F0822B52
:1046C00083230E9480084FCF832B822BFACF282B85
:1046D0008091F9028227F5CF8695772011F0812FFE
:1046E0008170882309F43FCF402F4295469547704B
:1046F000440F440F802F8F70042E01C0880F0A943E
:10470000EAF7202F207104FF07C02FE030E001C03E
:10471000220F4A95EAF720951695169513701230D8
:1047200071F0133051F030913B03113029F0822B9E
:1047300083230E94591317CF832B822BFACF282B68
:1047400080913B038227F5CF1F70772029F0812FBE
:104750000E947E13802F21CF802F0E942C0F812F4B
:104760000E945D1300CF802F92EF8916B1F198154A
:1047700070F0A0EF8A16D1F0B1EF8B1691F0772090
:1047800009F457C0C110AACE812F8F712AC0E3EF60
:104790008E1651F1F4EF8F12F2CF9091FB0292FD41
:1047A0002FC0812F8F717720D9F21BC0772081F025
:1047B00024E02C1508F4D7CE1F7181E090E0012E83
:1047C00001C0880F0A94EAF790913B038927B1CF83
:1047D00035E03C1508F4C7CEEFCF812F8F717110F3
:1047E000BFCF0E947E13BFCE80E0772009F4A1CF17
:1047F0001F7181E0012E01C0880F0A94EAF799CF5A
:10480000772061F0812F8F7192FFEBCF98E0899F25
:1048100090011124236020933A03E3CF81E00E94AA
:104820006813A1E0AC1508F09ECE82E00E946813E8
:104830009ACECC2079F0893341F4BFEFE7EEF3E074
:10484000B150E040F040E1F7EDCE8FE19EE40197FA
:10485000F1F7E8CE812F8F7183CF992009F48DCEA7
:1048600080913A0380FD89CEF70115828695869561
:1048700086950E947E13C701A5DA80913A0386953A
:10488000869586950E945D1378CEC8019A9581150C
:104890009F4108F0F9CAF801FF27D70115968C91BE
:1048A000E93DF10508F0CFCCE13DF10508F4CFCCAE
:1048B000682F8E2F0E942D0BD70115968C91980191
:1048C000205E32452032310508F059CD811169CD85
:1048D0000F7181E090E0FC0102C0EE0FFF1F0A950E
:1048E000E2F78F016E2F83E090E00E94B132802FBB
:1048F0000E948008A2CBB0E0A0E0E1E8F4E20C94D2
:10490000AD3180917302807F09F050C080917202B6
:10491000882309F44BC0E091C00387E0D82E809132
:1049200087038E1709F442C00E2F10E0ED9DF001B1
:104930001124E857FC4F84818823E9F1D09EE001DF
:10494000D19ED00D1124FE01E857FC4F918180913A
:104950006E02981330C0908180916D0298132BC025
:104960008581811128C0E280F38080916F0290914F
:104970007002E81AF90A60E08DE692E00E94CC111C
:104980000E94BF13E816F906B0F4809173028F708D
:10499000806180937302C257DC4F88818F70806181
:1049A00088838DE692E00EDA0E940C08CDB7DEB760
:1049B000E7E00C94C931F8013196E770B0CFA6E179
:1049C000B0E0E5EEF4E20C94A5318C0186E0F8014C
:1049D000DE01519601900D928A95E1F7D801149667
:1049E000FC9014971596EC908DE6882E82E0982E18
:1049F00080917102811128C0F11003C0FF24F3944B
:104A00001BC0EE20F1F0C8010E94A611F82E8823E9
:104A1000C1F087E0F801ADE6B2E001900D928A9511
:104A2000E1F780917102813031F480916D029091B3
:104A30006E020E9499115FDF8F2D6696EFE00C9455
:104A4000C131C801BFD9DACFF801A0805180C2803E
:104A5000D38060E08DE692E00E94CC11B0907202AB
:104A600080916F0290917002BB2009F4C6C036019C
:104A7000681A790A60E08DE692E00E94CC110E94EB
:104A8000BF136816790608F099C0FF2009F4B6CF65
:104A900080917302382F307F20916E02D8011196D9
:104AA0009C91119731114CC0FE2C291313C02091F9
:104AB0006D029C9129130EC0E1101CC18F708061A2
:104AC000809373028DE692E07DD980917302F801A4
:104AD0008683B2CFE1100EC1652D8A2D0E94370466
:104AE000882309F4E6C0CE0101960E9488138B81C9
:104AF00082FFDFC08DE692E065D987E0EDE6F2E067
:104B0000DF011D928A95E9F7F12C96CF2A5F2F706D
:104B1000223070F0C80156D9EB2CEAC0992319F065
:104B2000882309F4E5C0805E883008F4E1C0F2CF44
:104B3000803F08F4DDC0815F833008F4D9C0EACF3C
:104B4000291315C020916D029C91291310C0E1100A
:104B50000EC016968C93C80135D987E0F801ADE6F2
:104B6000B2E001900D928A95E1F7FB2C65CFC80168
:104B70000E94A611882309F464CFEE2009F461CFC6
:104B800080917302803280F020916D0230916E022C
:104B90003A832983DC82CB82909171029D831E82AD
:104BA0008F83CE0101960ED987E0F801ADE6B2E021
:104BB00001900D928A95E1F79EDE20CF80917302DD
:104BC000982F907F09F496CFFF2009F417CF2091FA
:104BD0006E02F80191812913CACF20916D02908154
:104BE0002913C5CFE110C3CF8683C801EBD887E076
:104BF000D4011D928A95E9F7B8CF5601A81AB90ACF
:104C000060E08DE692E00E94CC110E94BF13A816CE
:104C1000B90608F048C0FF2009F4F0CEFE2CEE20C3
:104C200009F40FCF90916E02F801818198132EC084
:104C300090916D028081981329C080916F029091AC
:104C40007002C81AD90AF8ECCF16D104B0F48091DA
:104C5000730280FD12C0982F907F79F0D8011696CC
:104C60008C931697903F39F0982F907F905F8F70BC
:104C7000892B16968C93C801A5D887E0F801ADE67C
:104C8000B2E001900D928A95E1F7D6CEC8010E945C
:104C9000A611811189CF8091730281608093730284
:104CA000C80190D8C9CE87E0F40111928A95E9F73E
:104CB0002BCF652D8A2D0E943704E82E8111BCCEA2
:104CC000A98A5A8A89899A890E949911292F22953D
:104CD0002F70903408F01ACF9F70223008F41ECF46
:104CE000992309F420CFF8019681907F09F01BCF1A
:104CF000FE2CA2CE8091730281608093730204CF58
:104D0000ABE1B0E0E6E8F6E20C94B1314E8B5F8B9C
:104D1000688F798F8A8F9B8F9111109275021D8AEF
:104D200086E0FE017696DE011F9601900D928A952F
:104D3000E1F78B89882351F061E0CE010F960E9444
:104D4000CC1161E0CE010F960E94CC1187E0FE01EC
:104D50003F96DE01189601900D928A95E1F7CE01FB
:104D600008962DDE81110CC087E0FE013896DE0129
:104D7000119601900D928A95E1F74C8541110BC077
:104D800017E08091C00390918703891334C06B961C
:104D9000E3E00C94CD312091870330E0C901019606
:104DA000877099275091C00358171906A1F04D83B9
:104DB00097E0929FD001939FB00D1124A857BC4F4C
:104DC000FE01319601900D929A95E1F78093870349
:104DD0000E940C08D5CF109272030E94440C1092CE
:104DE00087031092C00387E0EDE6F2E0DF011D9239
:104DF0008A95E9F7C5CF819FC001112488579C4F40
:104E0000DEDD882321F28091C00390E00196877057
:104E100099278093C003B5CFA6E0B0E0E2E1F7E2C6
:104E20000C94B0310E9475188C0180917E02909193
:104E30007F028017910779F019821A820E947518F3
:104E4000682F49815A81792F80E090E059DF1093D3
:104E50007F0200937E022696E4E00C94CC311F92F0
:104E60001FB61F9211248F939F93AF93BF9380918E
:104E70006C03811113C080916D0390916E03A0911A
:104E80006F03B09170034196A11DB11D80936D0316
:104E900090936E03A0936F03B0937003BF91AF9193
:104EA0009F918F911F901FBE1F901895CF93DF93F6
:104EB000EC010E9475188C1B9D0BDF91CF9108951A
:104EC000CDB7DEB7C655D1090FB6F894DEBF0FBE19
:104ED000CDBF85B7806885BF85B7806885BF84B73B
:104EE000877F84BF0FB6F894A89580916000886191
:104EF00080936000109260000FBE80E890E00FB6D3
:104F0000F89480936100909361000FBE81E08093DC
:104F1000A5018FE996E090930B0280930A020E940C
:104F200055040E94F6048091E20084608093E200C0
:104F3000789480917D038823A1F01091E9001F707F
:104F40009091EC00892F817090FD80E8182B1092D1
:104F5000E9008091E80083FD0E94540C1F701093BB
:104F6000E90082E084BD93E095BD9AEF97BD809300
:104F70006E001092EB021092EC021092ED02109271
:104F8000EE0288EC90E02091E300122F111F112710
:104F9000111F27FD0CC0AFE3BCE91197F1F700C06A
:104FA0000000019781F70E94550410927D03109331
:104FB000660325982D9A869A8E98B5E0BA95F1F7F2
:104FC000000083B185FB882780F986988E9AE0EAF5
:104FD000EA95F1F78093670380930001809166035F
:104FE00081110E943A30809100018091000194E08B
:104FF000811190E09093F80284E0891B8093F7027E
:1050000084EF0E94CF0685EF0E94CF0686EF0E94B4
:10501000CF0687EF0E94CF0604EE11E0D8018D91F4
:105020008D018F3F11F00E94CF06B1E00A3E1B07B1
:10503000A9F788E0E6E0F3E0DF01082F1D920A956A
:10504000E9F7EFEEF2E0DF011D928A95E9F790E0D3
:1050500080E00E94AC32833E9E4F49F163EE7EEFCA
:1050600090E080E00E94CB3260E082E090E00E941D
:10507000B13281E08093F90261E083E090E00E9428
:10508000B13260E074E184E090E00E94CB320E9493
:10509000FC1040E050E0BA018FE090E00E94C33283
:1050A00040E050E0BA0183E190E00E94C33282E028
:1050B00090E00E949F328093FC0284E090E00E9486
:1050C000AC329093FB028093FA0283E090E00E945E
:1050D0009F320E94800880913B030E942E13809192
:1050E0006603882309F477C180E080935C0380E83D
:1050F0008093C30361D66BE070E089ED91E00E947C
:10510000F611882309F445C080915C0365E070E0E6
:1051100081FD63C184ED91E00E94F6118823C9F1FD
:105120006DE070E082EC91E00E94F611882389F135
:105130000E94BC0565966CAF7DAF8EAF9FAF659743
:10514000DC01CB01805A9541AF4FBF4F80935E0386
:1051500090935F03A0936003B0936103E6ECF3E0E8
:1051600080E092E0DF018C011D9201501040E1F7D8
:10517000F093CD05E093CC058FEF9FEF9093C5039F
:105180008093C40381E0809365038093620310924F
:105190005D0380916603811101C06FD70E94EC16F8
:1051A000882309F41DC183E080932803809166035E
:1051B00081112EC086E896E09093480180934701C4
:1051C0002EE030E030934301209342018EE290E0E4
:1051D00090934601809345014BE856E0509350016F
:1051E00040934F0130934B0120934A0190934E011D
:1051F00080934D0144EE55E150935801409357017F
:10520000309353012093520190935601809355019E
:1052100090E080E00E94AC32833E9E4FC9F58FE063
:1052200090E00E94A732F62E172F082F862F8F7737
:105230000E94CD15FF1CFF24FF1C612F6370660FB9
:10524000F62AF092780112FB882780F90E94CA0A98
:10525000812F887F09F4C6C0169516951695212FC3
:1052600030E02F5F3F4F42E3429FC001439F900DCC
:1052700011240E94BC0A802F837080937901802FB3
:10528000869586958F708B3008F08AE080931603A0
:10529000CE0101960E9488138C8190918C01891710
:1052A00021F080938C010E94AD0A8D819E810E9425
:1052B000BC0A8B8186FB882780F991E089270E94B0
:1052C000CA0A8F818093650189E591E09093C203BA
:1052D0008093C10386E093E028E0280F67962FAF04
:1052E00067976E0133E0C30ED11C772473948091CD
:1052F0007D0310E400E142E1F42E853009F4B0C0F2
:105300000E943D1D3DEFE32E32E0F32E06E013E058
:105310008AEE91E063969FAF8EAF6397BC019801D0
:10532000F7019191D9018D919D01DB014D91BD0155
:105330008423B3E0E530FB0709F49EC0981789F396
:10534000E09166036696EFAF66979AEEA92E91E01C
:10535000B92E26E0822E23E0922E512CD4016D909E
:105360004D01F50181915F016822D7012D907D01EA
:10537000261441F12624412C33243394822D832199
:10538000C9F06696BFAD6697BB23A1F049825A82E9
:105390000E9475189C838B83E1E0ED8391E0862D5C
:1053A000832109F490E09E8349815A816B817C813D
:1053B0008D81A6DC4394330CF6E04F12DFCFF7016A
:1053C00031976082539428E05212C8CF0E94E806B9
:1053D000FF24F39455C082E088CE8FEC91E09CCE00
:1053E00081E0E2CE8AE892E044CF80917D03843070
:1053F00039F10E9403120E94AE1A10926C0348E128
:1054000050E00FB6F894A895409360000FBE10933B
:10541000600083B7817F846083BF83B7816083BF6F
:105420007894889583B78E7F83BF0FB6F894A8953C
:1054300080916000886180936000109260000FBED0
:105440000E943D1DAAEEB1E0E6E0F3E081919D915E
:10545000892309F041C367965FAD67975E13F6CF66
:1054600080917D03853009F4C0CF109272030E94B1
:10547000440C0E942C0644CF981362CFCDDCF12C53
:105480000E94AE1A882339F00E94E8060E94811813
:105490000E941D1204C00E948118F110F9CF0E94D1
:1054A0002C0690910503891721F0809305030E9433
:1054B000BC0580917D03843009F4B7C080916603F8
:1054C000882309F414CF0E94BC05462F572FBC0136
:1054D00080911D03811144C08091190390911A039A
:1054E000A0911B03B0911C038A019B01081B190B9F
:1054F0002A0B3B0BD901C801843F9140A105B1059E
:1055000078F14093190350931A0360931B0370932F
:105510001C03809117039091180301969093180330
:105520008093170319828E010F5F1F4F21E050E017
:1055300040E060E088E00E943614811106C080914E
:105540001703909118030A975CF081E080931D0384
:10555000809367019981911101C080E08093680177
:1055600080916801882309F4C0CE0E94BC054B01DC
:105570005C0180911E0390911F03A0912003B091C4
:105580002103A5019401281B390B4A0B5B0BDA019F
:10559000C9010497A105B10580F119821A821B8205
:1055A0001C828E010F5F1F4F24E050E040E060E05E
:1055B00089E00E9436148823C1F069817A81809144
:1055C0006D0190916E010E949A0A90936E018093F2
:1055D0006D016B817C8180916F01909170010E94BF
:1055E0009A0A9093700180936F0180921E039092AB
:1055F0001F03A0922003B09221038091720188239F
:1056000009F473CE80917101898310E000E020E0FD
:10561000AE014F5F5F4F61E08AE00E94361488233D
:1056200009F463CE1092720160CE83E08093E900AA
:105630008091E80082FF42CF8091E80090E085FFF2
:1056400005C00E9474048823D1F091E08091E800A5
:105650008B778093E800992309F430CF1A8219825E
:105660008EE1F60111928A95E9F7E9A1E983E1500B
:10567000E73108F02DC2F0E0E25FFC4CE4C680E2C6
:10568000A82EB12C7E0131E2E30EF11C8091E800DE
:1056900085FD0AC08091E8008B778093E8000E9426
:1056A0007404882399F3D1CF8091F100D7018D93B1
:1056B0007D01B1E0AB1AB10849F7C7CF87E28A8311
:1056C00084E08B8388E08C8386E08D837E821F82DA
:1056D000CE0101960E942904F1CEFAA00BA11CA1D3
:1056E000412F602F8F2D0E943411FA820B831C836F
:1056F0009827892798279E838D83E9CF2DA13EA1E6
:105700003227232732274CA16BA18AA10E94D510F2
:105710001A82DECF8FE090E01AD7862F8F778A83A8
:10572000661F6627661F7370770F762B7B838091C9
:1057300079018C831D82CCCFFAA01BA10CA18FE034
:1057400090E005D7272FBC014F2D10FB47F9912F73
:1057500096959370522F5C7F592B033020F48C7FE9
:10576000602F6370682B8FE090E00DD78F2D0E9423
:10577000CD15183008F017E010937801033040F68B
:1057800000937901C5CF8FE090E0E1D6AB01BC0179
:105790008FE090E0F8D6BCCF0E94FC100E945E1211
:1057A00040E050E0BA01F4CF809116038A831B8257
:1057B0008FCF1AA11B3008F01AE0109316038FE068
:1057C00090E0C5D6AB01792F212F2F70220F220F29
:1057D000837C682F622BDCCFCE018F5B9F4F0E94B2
:1057E000881327968EAD9FAD2797982789279827EE
:1057F00023962EAD3FAD23973227232732273B83B5
:105800002A8324962FAD24972C8325962FAD259798
:105810002D839F838E8328968FAD2897888719863E
:105820000E9417138A8754CFCE018F5B9F4F0E942F
:1058300088138AA19BA198278927982723969FAF31
:105840008EAF23978CA124968FAF24978DA1259698
:105850008FAF25978EA19FA19827892798272796F4
:105860009FAF8EAF279788A5811101C08AE0289647
:105870008FAF2897CE018F5B9F4F0E94501269A572
:10588000683008F06EEF609315037092140380EE99
:1058900093E08ED625968FAD259790918C01891730
:1058A00021F080938C010E94AD0A27968EAD9FADAA
:1058B00027970E94BC0A24968FAD249786FB8827E1
:1058C00080F9F1E08F270E94CA0A28968FAD2897A9
:1058D000809365011DCFCE018F5B9F4F0E9488137F
:1058E0002B968EAD9FAD2B979827892798279B8362
:1058F0008A832D968EAD9FAD2D979827892798275F
:105900009D838C832F968EAD9FAD2F9798278927E7
:1059100098279F838E8361968EAD9FAD6197982760
:1059200089279827998788871A8629968FAD29977E
:105930008B870E9403138C870E94ED128D870E9433
:10594000D7128E87C5CECE018F5B9F4F0E948813E2
:105950008AA19BA19827892798272B969FAF8EAF66
:105960002B978CA19DA19827892798272D969FAFCB
:105970008EAF2D978EA19FA19827892798272F96C4
:105980009FAF8EAF2F9788A599A59827892798272D
:1059900061969FAF8EAF61978AA529968FAF2997A1
:1059A000CE018F5B9F4F0E9450126BA5683008F0AC
:1059B0006EEF609313037092120381EE93E0F8D5BB
:1059C0006CA586EF860F8F3B08F062E360931103AE
:1059D0007092100382EE93E0EBD56DA586EF860FF3
:1059E0008F3B08F062E360930F0370920E0383EE27
:1059F00093E0DED58DCE7A8283E08B831C829ACEB3
:105A00001A82CE0101960E9429040FEF19E628E1BF
:105A1000015010402040E1F700C000000E94AB059B
:105A200088E08A83F601D8018D918D016396AEAD31
:105A3000BFAD63979D916396BFAFAEAF6397892368
:105A40008193B3E00E301B0771F71B8641CE6AA12C
:105A50007BA17627672776278BA19AA19A838B83D0
:105A6000CE0104966039E1E07E0738F02CE1DC01DC
:105A70001D922A95E9F718A22BCE9B01245E3F4F79
:105A800040E9461B2139314008F44CE150E0605BAD
:105A90007D4F45D5F0CF6AA17BA176276727762772
:105AA0006039E1E07E0708F033CE4CA14D3108F0BB
:105AB0004CE1CB01840F911D8139914010F040E9F8
:105AC000461B50E0605B7D4FCE01859668D520CEA9
:105AD0008FEF89837A82FCCD80917C03882309F43F
